{
  "abi": [
    {
      "inputs": [
        {
          "internalType": "contract IERC721",
          "name": "_nftCollection",
          "type": "address"
        },
        {
          "internalType": "contract IERC20",
          "name": "_rewardsToken",
          "type": "address"
        }
      ],
      "stateMutability": "nonpayable",
      "type": "constructor"
    },
    {
      "inputs": [],
      "name": "claimRewards",
      "outputs": [],
      "stateMutability": "nonpayable",
      "type": "function"
    },
    {
      "inputs": [
        {
          "internalType": "address",
          "name": "_user",
          "type": "address"
        }
      ],
      "name": "getStakedTokens",
      "outputs": [
        {
          "components": [
            {
              "internalType": "address",
              "name": "staker",
              "type": "address"
            },
            {
              "internalType": "uint256",
              "name": "tokenId",
              "type": "uint256"
            }
          ],
          "internalType": "struct ERC721Staking.StakedToken[]",
          "name": "",
          "type": "tuple[]"
        }
      ],
      "stateMutability": "view",
      "type": "function"
    },
    {
      "inputs": [],
      "name": "nftCollection",
      "outputs": [
        {
          "internalType": "contract IERC721",
          "name": "",
          "type": "address"
        }
      ],
      "stateMutability": "view",
      "type": "function"
    },
    {
      "inputs": [],
      "name": "rewardsToken",
      "outputs": [
        {
          "internalType": "contract IERC20",
          "name": "",
          "type": "address"
        }
      ],
      "stateMutability": "view",
      "type": "function"
    },
    {
      "inputs": [
        {
          "internalType": "uint256",
          "name": "_tokenId",
          "type": "uint256"
        }
      ],
      "name": "stake",
      "outputs": [],
      "stateMutability": "nonpayable",
      "type": "function"
    },
    {
      "inputs": [
        {
          "internalType": "uint256",
          "name": "",
          "type": "uint256"
        }
      ],
      "name": "stakerAddress",
      "outputs": [
        {
          "internalType": "address",
          "name": "",
          "type": "address"
        }
      ],
      "stateMutability": "view",
      "type": "function"
    },
    {
      "inputs": [
        {
          "internalType": "address",
          "name": "",
          "type": "address"
        }
      ],
      "name": "stakers",
      "outputs": [
        {
          "internalType": "uint256",
          "name": "amountStaked",
          "type": "uint256"
        },
        {
          "internalType": "uint256",
          "name": "timeOfLastUpdate",
          "type": "uint256"
        },
        {
          "internalType": "uint256",
          "name": "unclaimedRewards",
          "type": "uint256"
        }
      ],
      "stateMutability": "view",
      "type": "function"
    },
    {
      "inputs": [
        {
          "internalType": "uint256",
          "name": "_tokenId",
          "type": "uint256"
        }
      ],
      "name": "withdraw",
      "outputs": [],
      "stateMutability": "nonpayable",
      "type": "function"
    }
  ],
  "devdoc": {
    "kind": "dev",
    "methods": {},
    "version": 1
  },
  "evm": {
    "assembly": "    /* \"StakingContract.sol\":311:7317  contract ERC721Staking is ReentrancyGuard {... */\n  mstore(0x40, 0xc0)\n    /* \"StakingContract.sol\":1237:1243  100000 */\n  0x0186a0\n    /* \"StakingContract.sol\":1204:1243  uint256 private rewardsPerHour = 100000 */\n  0x01\n  sstore\n    /* \"StakingContract.sol\":1605:1751  constructor(IERC721 _nftCollection, IERC20 _rewardsToken) {... */\n  callvalue\n  dup1\n  iszero\n  tag_1\n  jumpi\n  0x00\n  dup1\n  revert\ntag_1:\n  pop\n  mload(0x40)\n  sub(codesize, bytecodeSize)\n  dup1\n  bytecodeSize\n  dup4\n  codecopy\n  dup2\n  add\n  0x40\n  dup2\n  swap1\n  mstore\n  tag_2\n  swap2\n  tag_3\n  jump\t// in\ntag_2:\n    /* \"@openzeppelin/contracts/security/ReentrancyGuard.sol\":1701:1702   */\n  0x01\n    /* \"@openzeppelin/contracts/security/ReentrancyGuard.sol\":1806:1813   */\n  0x00\n    /* \"@openzeppelin/contracts/security/ReentrancyGuard.sol\":1806:1828   */\n  sstore\n  sub(shl(0xa0, 0x01), 0x01)\n    /* \"StakingContract.sol\":1674:1704  nftCollection = _nftCollection */\n  swap2\n  dup3\n  and\n  0xa0\n  mstore\n    /* \"StakingContract.sol\":1715:1743  rewardsToken = _rewardsToken */\n  and\n  0x80\n  mstore\n    /* \"StakingContract.sol\":311:7317  contract ERC721Staking is ReentrancyGuard {... */\n  jump(tag_10)\n    /* \"#utility.yul\":14:154   */\ntag_9:\n  sub(shl(0xa0, 0x01), 0x01)\n    /* \"#utility.yul\":98:129   */\n  dup2\n  and\n    /* \"#utility.yul\":88:130   */\n  dup2\n  eq\n    /* \"#utility.yul\":78:148   */\n  tag_12\n  jumpi\n    /* \"#utility.yul\":144:145   */\n  0x00\n    /* \"#utility.yul\":141:142   */\n  dup1\n    /* \"#utility.yul\":134:146   */\n  revert\n    /* \"#utility.yul\":78:148   */\ntag_12:\n    /* \"#utility.yul\":14:154   */\n  pop\n  jump\t// out\n    /* \"#utility.yul\":159:591   */\ntag_3:\n    /* \"#utility.yul\":267:273   */\n  0x00\n    /* \"#utility.yul\":275:281   */\n  dup1\n    /* \"#utility.yul\":328:330   */\n  0x40\n    /* \"#utility.yul\":316:325   */\n  dup4\n    /* \"#utility.yul\":307:314   */\n  dup6\n    /* \"#utility.yul\":303:326   */\n  sub\n    /* \"#utility.yul\":299:331   */\n  slt\n    /* \"#utility.yul\":296:348   */\n  iszero\n  tag_14\n  jumpi\n    /* \"#utility.yul\":344:345   */\n  0x00\n    /* \"#utility.yul\":341:342   */\n  dup1\n    /* \"#utility.yul\":334:346   */\n  revert\n    /* \"#utility.yul\":296:348   */\ntag_14:\n    /* \"#utility.yul\":376:385   */\n  dup3\n    /* \"#utility.yul\":370:386   */\n  mload\n    /* \"#utility.yul\":395:435   */\n  tag_15\n    /* \"#utility.yul\":429:434   */\n  dup2\n    /* \"#utility.yul\":395:435   */\n  tag_9\n  jump\t// in\ntag_15:\n    /* \"#utility.yul\":504:506   */\n  0x20\n    /* \"#utility.yul\":489:507   */\n  dup5\n  add\n    /* \"#utility.yul\":483:508   */\n  mload\n    /* \"#utility.yul\":454:459   */\n  swap1\n  swap3\n  pop\n    /* \"#utility.yul\":517:559   */\n  tag_16\n    /* \"#utility.yul\":483:508   */\n  dup2\n    /* \"#utility.yul\":517:559   */\n  tag_9\n  jump\t// in\ntag_16:\n    /* \"#utility.yul\":578:585   */\n  dup1\n    /* \"#utility.yul\":568:585   */\n  swap2\n  pop\n  pop\n    /* \"#utility.yul\":159:591   */\n  swap3\n  pop\n  swap3\n  swap1\n  pop\n  jump\t// out\ntag_10:\n    /* \"StakingContract.sol\":311:7317  contract ERC721Staking is ReentrancyGuard {... */\n  mload(0x80)\n  mload(0xa0)\n  codecopy(0x00, dataOffset(sub_0), dataSize(sub_0))\n  0x00\n  assignImmutable(\"0x8e8fab5f003314da8d1873ea7720e8d9f47650136d916064d1edb8a11d682624\")\n  0x00\n  assignImmutable(\"0x5c4c6aa067b6f8e6cb38e6ab843832a94d1712d661a04d73c517d6a1931a9e5d\")\n  return(0x00, dataSize(sub_0))\nstop\n\nsub_0: assembly {\n        /* \"StakingContract.sol\":311:7317  contract ERC721Staking is ReentrancyGuard {... */\n      mstore(0x40, 0x80)\n      callvalue\n      dup1\n      iszero\n      tag_1\n      jumpi\n      0x00\n      dup1\n      revert\n    tag_1:\n      pop\n      jumpi(tag_2, lt(calldatasize, 0x04))\n      shr(0xe0, calldataload(0x00))\n      dup1\n      0x9168ae72\n      gt\n      tag_11\n      jumpi\n      dup1\n      0x9168ae72\n      eq\n      tag_7\n      jumpi\n      dup1\n      0x94067045\n      eq\n      tag_8\n      jumpi\n      dup1\n      0xa694fc3a\n      eq\n      tag_9\n      jumpi\n      dup1\n      0xd1af0c7d\n      eq\n      tag_10\n      jumpi\n      0x00\n      dup1\n      revert\n    tag_11:\n      dup1\n      0x2e1a7d4d\n      eq\n      tag_3\n      jumpi\n      dup1\n      0x372500ab\n      eq\n      tag_4\n      jumpi\n      dup1\n      0x63c28db1\n      eq\n      tag_5\n      jumpi\n      dup1\n      0x6588103b\n      eq\n      tag_6\n      jumpi\n    tag_2:\n      0x00\n      dup1\n      revert\n        /* \"StakingContract.sol\":3524:5321  function withdraw(uint256 _tokenId) external nonReentrant {... */\n    tag_3:\n      tag_12\n      tag_13\n      calldatasize\n      0x04\n      tag_14\n      jump\t// in\n    tag_13:\n      tag_15\n      jump\t// in\n    tag_12:\n      stop\n        /* \"StakingContract.sol\":5504:5890  function claimRewards() external {... */\n    tag_4:\n      tag_12\n      tag_17\n      jump\t// in\n        /* \"StakingContract.sol\":6387:7314  function getStakedTokens(address _user)... */\n    tag_5:\n      tag_18\n      tag_19\n      calldatasize\n      0x04\n      tag_20\n      jump\t// in\n    tag_19:\n      tag_21\n      jump\t// in\n    tag_18:\n      mload(0x40)\n      tag_22\n      swap2\n      swap1\n      tag_23\n      jump\t// in\n    tag_22:\n      mload(0x40)\n      dup1\n      swap2\n      sub\n      swap1\n      return\n        /* \"StakingContract.sol\":537:575  IERC721 public immutable nftCollection */\n    tag_6:\n      tag_24\n      immutable(\"0x8e8fab5f003314da8d1873ea7720e8d9f47650136d916064d1edb8a11d682624\")\n      dup2\n      jump\n    tag_24:\n      mload(0x40)\n      sub(shl(0xa0, 0x01), 0x01)\n        /* \"#utility.yul\":1635:1690   */\n      swap1\n      swap2\n      and\n        /* \"#utility.yul\":1617:1691   */\n      dup2\n      mstore\n        /* \"#utility.yul\":1605:1607   */\n      0x20\n        /* \"#utility.yul\":1590:1608   */\n      add\n        /* \"StakingContract.sol\":537:575  IERC721 public immutable nftCollection */\n      tag_22\n        /* \"#utility.yul\":1456:1697   */\n      jump\n        /* \"StakingContract.sol\":1299:1340  mapping(address => Staker) public stakers */\n    tag_7:\n      tag_28\n      tag_29\n      calldatasize\n      0x04\n      tag_20\n      jump\t// in\n    tag_29:\n      0x02\n      0x20\n      dup2\n      swap1\n      mstore\n      0x00\n      swap2\n      dup3\n      mstore\n      0x40\n      swap1\n      swap2\n      keccak256\n      dup1\n      sload\n      swap2\n      dup2\n      add\n      sload\n      0x03\n      swap1\n      swap2\n      add\n      sload\n      dup4\n      jump\n    tag_28:\n      0x40\n      dup1\n      mload\n        /* \"#utility.yul\":1904:1929   */\n      swap4\n      dup5\n      mstore\n        /* \"#utility.yul\":1960:1962   */\n      0x20\n        /* \"#utility.yul\":1945:1963   */\n      dup5\n      add\n        /* \"#utility.yul\":1938:1972   */\n      swap3\n      swap1\n      swap3\n      mstore\n        /* \"#utility.yul\":1988:2006   */\n      swap1\n      dup3\n      add\n        /* \"#utility.yul\":1981:2015   */\n      mstore\n        /* \"#utility.yul\":1892:1894   */\n      0x60\n        /* \"#utility.yul\":1877:1895   */\n      add\n        /* \"StakingContract.sol\":1299:1340  mapping(address => Staker) public stakers */\n      tag_22\n        /* \"#utility.yul\":1702:2021   */\n      jump\n        /* \"StakingContract.sol\":1461:1509  mapping(uint256 => address) public stakerAddress */\n    tag_8:\n      tag_24\n      tag_34\n      calldatasize\n      0x04\n      tag_14\n      jump\t// in\n    tag_34:\n      mstore(0x20, 0x03)\n      0x00\n      swap1\n      dup2\n      mstore\n      0x40\n      swap1\n      keccak256\n      sload\n      sub(shl(0xa0, 0x01), 0x01)\n      and\n      dup2\n      jump\n        /* \"StakingContract.sol\":2024:3275  function stake(uint256 _tokenId) external nonReentrant {... */\n    tag_9:\n      tag_12\n      tag_39\n      calldatasize\n      0x04\n      tag_14\n      jump\t// in\n    tag_39:\n      tag_40\n      jump\t// in\n        /* \"StakingContract.sol\":494:530  IERC20 public immutable rewardsToken */\n    tag_10:\n      tag_24\n      immutable(\"0x5c4c6aa067b6f8e6cb38e6ab843832a94d1712d661a04d73c517d6a1931a9e5d\")\n      dup2\n      jump\n        /* \"StakingContract.sol\":3524:5321  function withdraw(uint256 _tokenId) external nonReentrant {... */\n    tag_15:\n        /* \"@openzeppelin/contracts/security/ReentrancyGuard.sol\":1744:1745   */\n      0x02\n        /* \"@openzeppelin/contracts/security/ReentrancyGuard.sol\":2325:2332   */\n      sload(0x00)\n        /* \"@openzeppelin/contracts/security/ReentrancyGuard.sol\":2325:2344   */\n      sub\n        /* \"@openzeppelin/contracts/security/ReentrancyGuard.sol\":2317:2380   */\n      tag_46\n      jumpi\n      mload(0x40)\n      shl(0xe5, 0x461bcd)\n      dup2\n      mstore\n        /* \"#utility.yul\":2704:2706   */\n      0x20\n        /* \"@openzeppelin/contracts/security/ReentrancyGuard.sol\":2317:2380   */\n      0x04\n      dup3\n      add\n        /* \"#utility.yul\":2686:2707   */\n      mstore\n        /* \"#utility.yul\":2743:2745   */\n      0x1f\n        /* \"#utility.yul\":2723:2741   */\n      0x24\n      dup3\n      add\n        /* \"#utility.yul\":2716:2746   */\n      mstore\n        /* \"#utility.yul\":2782:2815   */\n      0x5265656e7472616e637947756172643a207265656e7472616e742063616c6c00\n        /* \"#utility.yul\":2762:2780   */\n      0x44\n      dup3\n      add\n        /* \"#utility.yul\":2755:2816   */\n      mstore\n        /* \"#utility.yul\":2833:2851   */\n      0x64\n      add\n        /* \"@openzeppelin/contracts/security/ReentrancyGuard.sol\":2317:2380   */\n    tag_47:\n      mload(0x40)\n      dup1\n      swap2\n      sub\n      swap1\n      revert\n    tag_46:\n        /* \"@openzeppelin/contracts/security/ReentrancyGuard.sol\":1744:1745   */\n      0x02\n        /* \"@openzeppelin/contracts/security/ReentrancyGuard.sol\":2455:2462   */\n      0x00\n        /* \"@openzeppelin/contracts/security/ReentrancyGuard.sol\":2455:2473   */\n      dup2\n      dup2\n      sstore\n        /* \"StakingContract.sol\":3703:3713  msg.sender */\n      caller\n        /* \"StakingContract.sol\":3695:3714  stakers[msg.sender] */\n      dup2\n      mstore\n      0x20\n      swap2\n      swap1\n      swap2\n      mstore\n      0x40\n      swap1\n      keccak256\n        /* \"StakingContract.sol\":3695:3727  stakers[msg.sender].amountStaked */\n      sload\n        /* \"StakingContract.sol\":3673:3784  require(... */\n      tag_50\n      jumpi\n      mload(0x40)\n      shl(0xe5, 0x461bcd)\n      dup2\n      mstore\n        /* \"#utility.yul\":3064:3066   */\n      0x20\n        /* \"StakingContract.sol\":3673:3784  require(... */\n      0x04\n      dup3\n      add\n        /* \"#utility.yul\":3046:3067   */\n      mstore\n        /* \"#utility.yul\":3103:3105   */\n      0x19\n        /* \"#utility.yul\":3083:3101   */\n      0x24\n      dup3\n      add\n        /* \"#utility.yul\":3076:3106   */\n      mstore\n        /* \"#utility.yul\":3142:3169   */\n      0x596f752068617665206e6f20746f6b656e73207374616b656400000000000000\n        /* \"#utility.yul\":3122:3140   */\n      0x44\n      dup3\n      add\n        /* \"#utility.yul\":3115:3170   */\n      mstore\n        /* \"#utility.yul\":3187:3205   */\n      0x64\n      add\n        /* \"StakingContract.sol\":3673:3784  require(... */\n      tag_47\n        /* \"#utility.yul\":2862:3211   */\n      jump\n        /* \"StakingContract.sol\":3673:3784  require(... */\n    tag_50:\n        /* \"StakingContract.sol\":3885:3908  stakerAddress[_tokenId] */\n      0x00\n      dup2\n      dup2\n      mstore\n        /* \"StakingContract.sol\":3885:3898  stakerAddress */\n      0x03\n        /* \"StakingContract.sol\":3885:3908  stakerAddress[_tokenId] */\n      0x20\n      mstore\n      0x40\n      swap1\n      keccak256\n      sload\n      sub(shl(0xa0, 0x01), 0x01)\n      and\n        /* \"StakingContract.sol\":3912:3922  msg.sender */\n      caller\n        /* \"StakingContract.sol\":3885:3922  stakerAddress[_tokenId] == msg.sender */\n      eq\n        /* \"StakingContract.sol\":3863:3975  require(... */\n      tag_53\n      jumpi\n      mload(0x40)\n      shl(0xe5, 0x461bcd)\n      dup2\n      mstore\n        /* \"#utility.yul\":3418:3420   */\n      0x20\n        /* \"StakingContract.sol\":3863:3975  require(... */\n      0x04\n      dup3\n      add\n        /* \"#utility.yul\":3400:3421   */\n      mstore\n        /* \"#utility.yul\":3457:3459   */\n      0x19\n        /* \"#utility.yul\":3437:3455   */\n      0x24\n      dup3\n      add\n        /* \"#utility.yul\":3430:3460   */\n      mstore\n        /* \"#utility.yul\":3496:3523   */\n      0x596f7520646f6e2774206f776e207468697320746f6b656e2100000000000000\n        /* \"#utility.yul\":3476:3494   */\n      0x44\n      dup3\n      add\n        /* \"#utility.yul\":3469:3524   */\n      mstore\n        /* \"#utility.yul\":3541:3559   */\n      0x64\n      add\n        /* \"StakingContract.sol\":3863:3975  require(... */\n      tag_47\n        /* \"#utility.yul\":3216:3565   */\n      jump\n        /* \"StakingContract.sol\":3863:3975  require(... */\n    tag_53:\n        /* \"StakingContract.sol\":4087:4102  uint256 rewards */\n      0x00\n        /* \"StakingContract.sol\":4105:4133  calculateRewards(msg.sender) */\n      tag_56\n        /* \"StakingContract.sol\":4122:4132  msg.sender */\n      caller\n        /* \"StakingContract.sol\":4105:4121  calculateRewards */\n      tag_57\n        /* \"StakingContract.sol\":4105:4133  calculateRewards(msg.sender) */\n      jump\t// in\n    tag_56:\n        /* \"StakingContract.sol\":4152:4162  msg.sender */\n      caller\n        /* \"StakingContract.sol\":4144:4163  stakers[msg.sender] */\n      0x00\n      swap1\n      dup2\n      mstore\n        /* \"StakingContract.sol\":4144:4151  stakers */\n      0x02\n        /* \"StakingContract.sol\":4144:4163  stakers[msg.sender] */\n      0x20\n      mstore\n      0x40\n      dup2\n      keccak256\n        /* \"StakingContract.sol\":4144:4180  stakers[msg.sender].unclaimedRewards */\n      0x03\n      add\n        /* \"StakingContract.sol\":4144:4191  stakers[msg.sender].unclaimedRewards += rewards */\n      dup1\n      sload\n        /* \"StakingContract.sol\":4087:4133  uint256 rewards = calculateRewards(msg.sender) */\n      swap3\n      swap4\n      pop\n      dup4\n      swap3\n        /* \"StakingContract.sol\":4144:4180  stakers[msg.sender].unclaimedRewards */\n      swap1\n      swap2\n        /* \"StakingContract.sol\":4144:4163  stakers[msg.sender] */\n      swap1\n        /* \"StakingContract.sol\":4144:4191  stakers[msg.sender].unclaimedRewards += rewards */\n      tag_58\n      swap1\n        /* \"StakingContract.sol\":4087:4133  uint256 rewards = calculateRewards(msg.sender) */\n      dup5\n      swap1\n        /* \"StakingContract.sol\":4144:4191  stakers[msg.sender].unclaimedRewards += rewards */\n      tag_59\n      jump\t// in\n    tag_58:\n      swap1\n      swap2\n      sstore\n      pop\n        /* \"StakingContract.sol\":4274:4287  uint256 index */\n      0x00\n      swap1\n      pop\n      dup1\n        /* \"StakingContract.sol\":4302:4636  for (uint256 i = 0; i < stakers[msg.sender].stakedTokens.length; i++) {... */\n    tag_60:\n        /* \"StakingContract.sol\":4334:4344  msg.sender */\n      caller\n        /* \"StakingContract.sol\":4326:4345  stakers[msg.sender] */\n      0x00\n      swap1\n      dup2\n      mstore\n        /* \"StakingContract.sol\":4326:4333  stakers */\n      0x02\n        /* \"StakingContract.sol\":4326:4345  stakers[msg.sender] */\n      0x20\n      mstore\n      0x40\n      swap1\n      keccak256\n        /* \"StakingContract.sol\":4326:4358  stakers[msg.sender].stakedTokens */\n      0x01\n      add\n        /* \"StakingContract.sol\":4326:4365  stakers[msg.sender].stakedTokens.length */\n      sload\n        /* \"StakingContract.sol\":4322:4365  i < stakers[msg.sender].stakedTokens.length */\n      dup2\n      lt\n        /* \"StakingContract.sol\":4302:4636  for (uint256 i = 0; i < stakers[msg.sender].stakedTokens.length; i++) {... */\n      iszero\n      tag_61\n      jumpi\n        /* \"StakingContract.sol\":4417:4427  msg.sender */\n      caller\n        /* \"StakingContract.sol\":4409:4428  stakers[msg.sender] */\n      0x00\n      swap1\n      dup2\n      mstore\n        /* \"StakingContract.sol\":4409:4416  stakers */\n      0x02\n        /* \"StakingContract.sol\":4409:4428  stakers[msg.sender] */\n      0x20\n      mstore\n      0x40\n      swap1\n      keccak256\n        /* \"StakingContract.sol\":4409:4441  stakers[msg.sender].stakedTokens */\n      0x01\n      add\n        /* \"StakingContract.sol\":4409:4444  stakers[msg.sender].stakedTokens[i] */\n      dup1\n      sload\n        /* \"StakingContract.sol\":4456:4464  _tokenId */\n      dup6\n      swap2\n        /* \"StakingContract.sol\":4409:4441  stakers[msg.sender].stakedTokens */\n      swap1\n        /* \"StakingContract.sol\":4442:4443  i */\n      dup4\n      swap1\n        /* \"StakingContract.sol\":4409:4444  stakers[msg.sender].stakedTokens[i] */\n      dup2\n      lt\n      tag_64\n      jumpi\n      tag_64\n      tag_65\n      jump\t// in\n    tag_64:\n      swap1\n      0x00\n      mstore\n      keccak256(0x00, 0x20)\n      swap1\n      0x02\n      mul\n      add\n        /* \"StakingContract.sol\":4409:4452  stakers[msg.sender].stakedTokens[i].tokenId */\n      0x01\n      add\n      sload\n        /* \"StakingContract.sol\":4409:4464  stakers[msg.sender].stakedTokens[i].tokenId == _tokenId */\n      eq\n        /* \"StakingContract.sol\":4409:4541  stakers[msg.sender].stakedTokens[i].tokenId == _tokenId &&... */\n      dup1\n      iszero\n      tag_67\n      jumpi\n      pop\n        /* \"StakingContract.sol\":4493:4503  msg.sender */\n      caller\n        /* \"StakingContract.sol\":4539:4540  0 */\n      0x00\n        /* \"StakingContract.sol\":4485:4504  stakers[msg.sender] */\n      swap1\n      dup2\n      mstore\n        /* \"StakingContract.sol\":4485:4492  stakers */\n      0x02\n        /* \"StakingContract.sol\":4485:4504  stakers[msg.sender] */\n      0x20\n      mstore\n      0x40\n      dup2\n      keccak256\n        /* \"StakingContract.sol\":4485:4517  stakers[msg.sender].stakedTokens */\n      0x01\n      add\n        /* \"StakingContract.sol\":4485:4520  stakers[msg.sender].stakedTokens[i] */\n      dup1\n      sload\n        /* \"StakingContract.sol\":4518:4519  i */\n      dup4\n      swap1\n        /* \"StakingContract.sol\":4485:4520  stakers[msg.sender].stakedTokens[i] */\n      dup2\n      lt\n      tag_69\n      jumpi\n      tag_69\n      tag_65\n      jump\t// in\n    tag_69:\n      0x00\n      swap2\n      dup3\n      mstore\n      0x20\n      swap1\n      swap2\n      keccak256\n      0x02\n      swap1\n      swap2\n      mul\n      add\n        /* \"StakingContract.sol\":4485:4527  stakers[msg.sender].stakedTokens[i].staker */\n      sload\n      sub(shl(0xa0, 0x01), 0x01)\n      and\n        /* \"StakingContract.sol\":4485:4541  stakers[msg.sender].stakedTokens[i].staker != address(0) */\n      eq\n      iszero\n        /* \"StakingContract.sol\":4409:4541  stakers[msg.sender].stakedTokens[i].tokenId == _tokenId &&... */\n    tag_67:\n        /* \"StakingContract.sol\":4387:4625  if (... */\n      iszero\n      tag_71\n      jumpi\n        /* \"StakingContract.sol\":4584:4585  i */\n      dup1\n        /* \"StakingContract.sol\":4576:4585  index = i */\n      swap2\n      pop\n        /* \"StakingContract.sol\":4604:4609  break */\n      jump(tag_61)\n        /* \"StakingContract.sol\":4387:4625  if (... */\n    tag_71:\n        /* \"StakingContract.sol\":4367:4370  i++ */\n      dup1\n      tag_72\n      dup2\n      tag_73\n      jump\t// in\n    tag_72:\n      swap2\n      pop\n      pop\n        /* \"StakingContract.sol\":4302:4636  for (uint256 i = 0; i < stakers[msg.sender].stakedTokens.length; i++) {... */\n      jump(tag_60)\n    tag_61:\n      pop\n        /* \"StakingContract.sol\":4740:4750  msg.sender */\n      caller\n        /* \"StakingContract.sol\":4789:4790  0 */\n      0x00\n        /* \"StakingContract.sol\":4732:4751  stakers[msg.sender] */\n      swap1\n      dup2\n      mstore\n        /* \"StakingContract.sol\":4732:4739  stakers */\n      0x02\n        /* \"StakingContract.sol\":4732:4751  stakers[msg.sender] */\n      0x20\n      mstore\n      0x40\n      dup2\n      keccak256\n        /* \"StakingContract.sol\":4732:4764  stakers[msg.sender].stakedTokens */\n      0x01\n      add\n        /* \"StakingContract.sol\":4732:4771  stakers[msg.sender].stakedTokens[index] */\n      dup1\n      sload\n        /* \"StakingContract.sol\":4765:4770  index */\n      dup4\n      swap1\n        /* \"StakingContract.sol\":4732:4771  stakers[msg.sender].stakedTokens[index] */\n      dup2\n      lt\n      tag_75\n      jumpi\n      tag_75\n      tag_65\n      jump\t// in\n    tag_75:\n      0x00\n      swap2\n      dup3\n      mstore\n      0x20\n      dup1\n      dup4\n      keccak256\n      0x02\n      swap3\n      dup4\n      mul\n      add\n        /* \"StakingContract.sol\":4732:4791  stakers[msg.sender].stakedTokens[index].staker = address(0) */\n      dup1\n      sload\n      not(sub(shl(0xa0, 0x01), 0x01))\n      and\n      sub(shl(0xa0, 0x01), 0x01)\n      swap6\n      swap1\n      swap6\n      and\n      swap5\n      swap1\n      swap5\n      or\n      swap1\n      swap4\n      sstore\n        /* \"StakingContract.sol\":4868:4878  msg.sender */\n      caller\n        /* \"StakingContract.sol\":4860:4879  stakers[msg.sender] */\n      dup3\n      mstore\n      swap1\n      swap2\n      mstore\n      0x40\n      dup2\n      keccak256\n        /* \"StakingContract.sol\":4860:4894  stakers[msg.sender].amountStaked-- */\n      dup1\n      sload\n      swap2\n      tag_77\n      dup4\n      tag_78\n      jump\t// in\n    tag_77:\n      swap1\n      swap2\n      sstore\n      pop\n      pop\n        /* \"StakingContract.sol\":5055:5056  0 */\n      0x00\n        /* \"StakingContract.sol\":5021:5044  stakerAddress[_tokenId] */\n      dup4\n      dup2\n      mstore\n        /* \"StakingContract.sol\":5021:5034  stakerAddress */\n      0x03\n        /* \"StakingContract.sol\":5021:5044  stakerAddress[_tokenId] */\n      0x20\n      mstore\n      0x40\n      swap1\n      dup2\n      swap1\n      keccak256\n        /* \"StakingContract.sol\":5021:5057  stakerAddress[_tokenId] = address(0) */\n      dup1\n      sload\n      not(sub(shl(0xa0, 0x01), 0x01))\n      and\n      swap1\n      sstore\n        /* \"StakingContract.sol\":5124:5187  nftCollection.transferFrom(address(this), msg.sender, _tokenId) */\n      mload\n      shl(0xe0, 0x23b872dd)\n      dup2\n      mstore\n        /* \"StakingContract.sol\":5159:5163  this */\n      address\n        /* \"StakingContract.sol\":5124:5187  nftCollection.transferFrom(address(this), msg.sender, _tokenId) */\n      0x04\n      dup3\n      add\n        /* \"#utility.yul\":4511:4545   */\n      mstore\n        /* \"StakingContract.sol\":5166:5176  msg.sender */\n      caller\n        /* \"#utility.yul\":4561:4579   */\n      0x24\n      dup3\n      add\n        /* \"#utility.yul\":4554:4597   */\n      mstore\n        /* \"#utility.yul\":4613:4631   */\n      0x44\n      dup2\n      add\n        /* \"#utility.yul\":4606:4640   */\n      dup5\n      swap1\n      mstore\n      sub(shl(0xa0, 0x01), 0x01)\n        /* \"StakingContract.sol\":5124:5137  nftCollection */\n      immutable(\"0x8e8fab5f003314da8d1873ea7720e8d9f47650136d916064d1edb8a11d682624\")\n        /* \"StakingContract.sol\":5124:5150  nftCollection.transferFrom */\n      and\n      swap1\n      0x23b872dd\n      swap1\n        /* \"#utility.yul\":4423:4441   */\n      0x64\n      add\n        /* \"StakingContract.sol\":5124:5187  nftCollection.transferFrom(address(this), msg.sender, _tokenId) */\n      0x00\n      mload(0x40)\n      dup1\n      dup4\n      sub\n      dup2\n      0x00\n      dup8\n      dup1\n      extcodesize\n      iszero\n      dup1\n      iszero\n      tag_81\n      jumpi\n      0x00\n      dup1\n      revert\n    tag_81:\n      pop\n      gas\n      call\n      iszero\n      dup1\n      iszero\n      tag_83\n      jumpi\n      returndatasize\n      0x00\n      dup1\n      returndatacopy\n      revert(0x00, returndatasize)\n    tag_83:\n      pop\n      pop\n        /* \"StakingContract.sol\":5267:5277  msg.sender */\n      caller\n        /* \"StakingContract.sol\":5259:5278  stakers[msg.sender] */\n      0x00\n      swap1\n      dup2\n      mstore\n        /* \"StakingContract.sol\":5259:5266  stakers */\n      0x02\n        /* \"StakingContract.sol\":5259:5278  stakers[msg.sender] */\n      0x20\n      dup2\n      swap1\n      mstore\n      0x40\n      dup3\n      keccak256\n        /* \"StakingContract.sol\":5298:5313  block.timestamp */\n      timestamp\n        /* \"StakingContract.sol\":5259:5295  stakers[msg.sender].timeOfLastUpdate */\n      swap2\n      add\n        /* \"StakingContract.sol\":5259:5313  stakers[msg.sender].timeOfLastUpdate = block.timestamp */\n      sstore\n        /* \"@openzeppelin/contracts/security/ReentrancyGuard.sol\":1701:1702   */\n      0x01\n        /* \"@openzeppelin/contracts/security/ReentrancyGuard.sol\":2628:2650   */\n      swap1\n      sstore\n      pop\n      pop\n      pop\n      pop\n      pop\n        /* \"StakingContract.sol\":3524:5321  function withdraw(uint256 _tokenId) external nonReentrant {... */\n      jump\t// out\n        /* \"StakingContract.sol\":5504:5890  function claimRewards() external {... */\n    tag_17:\n        /* \"StakingContract.sol\":5618:5628  msg.sender */\n      caller\n        /* \"StakingContract.sol\":5548:5563  uint256 rewards */\n      0x00\n        /* \"StakingContract.sol\":5610:5629  stakers[msg.sender] */\n      dup2\n      dup2\n      mstore\n        /* \"StakingContract.sol\":5610:5617  stakers */\n      0x02\n        /* \"StakingContract.sol\":5610:5629  stakers[msg.sender] */\n      0x20\n      mstore\n      0x40\n      dup2\n      keccak256\n        /* \"StakingContract.sol\":5610:5646  stakers[msg.sender].unclaimedRewards */\n      0x03\n      add\n      sload\n        /* \"StakingContract.sol\":5548:5563  uint256 rewards */\n      swap1\n      swap2\n        /* \"StakingContract.sol\":5566:5594  calculateRewards(msg.sender) */\n      tag_85\n      swap1\n        /* \"StakingContract.sol\":5566:5582  calculateRewards */\n      tag_57\n        /* \"StakingContract.sol\":5566:5594  calculateRewards(msg.sender) */\n      jump\t// in\n    tag_85:\n        /* \"StakingContract.sol\":5566:5646  calculateRewards(msg.sender) +... */\n      tag_86\n      swap2\n      swap1\n      tag_59\n      jump\t// in\n    tag_86:\n        /* \"StakingContract.sol\":5548:5646  uint256 rewards = calculateRewards(msg.sender) +... */\n      swap1\n      pop\n        /* \"StakingContract.sol\":5675:5676  0 */\n      0x00\n        /* \"StakingContract.sol\":5665:5672  rewards */\n      dup2\n        /* \"StakingContract.sol\":5665:5676  rewards > 0 */\n      gt\n        /* \"StakingContract.sol\":5657:5709  require(rewards > 0, \"You have no rewards to claim\") */\n      tag_87\n      jumpi\n      mload(0x40)\n      shl(0xe5, 0x461bcd)\n      dup2\n      mstore\n        /* \"#utility.yul\":4853:4855   */\n      0x20\n        /* \"StakingContract.sol\":5657:5709  require(rewards > 0, \"You have no rewards to claim\") */\n      0x04\n      dup3\n      add\n        /* \"#utility.yul\":4835:4856   */\n      mstore\n        /* \"#utility.yul\":4892:4894   */\n      0x1c\n        /* \"#utility.yul\":4872:4890   */\n      0x24\n      dup3\n      add\n        /* \"#utility.yul\":4865:4895   */\n      mstore\n        /* \"#utility.yul\":4931:4961   */\n      0x596f752068617665206e6f207265776172647320746f20636c61696d00000000\n        /* \"#utility.yul\":4911:4929   */\n      0x44\n      dup3\n      add\n        /* \"#utility.yul\":4904:4962   */\n      mstore\n        /* \"#utility.yul\":4979:4997   */\n      0x64\n      add\n        /* \"StakingContract.sol\":5657:5709  require(rewards > 0, \"You have no rewards to claim\") */\n      tag_47\n        /* \"#utility.yul\":4651:5003   */\n      jump\n        /* \"StakingContract.sol\":5657:5709  require(rewards > 0, \"You have no rewards to claim\") */\n    tag_87:\n        /* \"StakingContract.sol\":5728:5738  msg.sender */\n      caller\n        /* \"StakingContract.sol\":5720:5739  stakers[msg.sender] */\n      0x00\n      dup2\n      dup2\n      mstore\n        /* \"StakingContract.sol\":5720:5727  stakers */\n      0x02\n        /* \"StakingContract.sol\":5720:5739  stakers[msg.sender] */\n      0x20\n      dup2\n      swap1\n      mstore\n      0x40\n      dup3\n      keccak256\n        /* \"StakingContract.sol\":5759:5774  block.timestamp */\n      timestamp\n        /* \"StakingContract.sol\":5720:5756  stakers[msg.sender].timeOfLastUpdate */\n      swap2\n      dup2\n      add\n        /* \"StakingContract.sol\":5720:5774  stakers[msg.sender].timeOfLastUpdate = block.timestamp */\n      swap2\n      swap1\n      swap2\n      sstore\n        /* \"StakingContract.sol\":5785:5821  stakers[msg.sender].unclaimedRewards */\n      0x03\n      add\n        /* \"StakingContract.sol\":5785:5825  stakers[msg.sender].unclaimedRewards = 0 */\n      sstore\n        /* \"StakingContract.sol\":5836:5882  rewardsToken.safeTransfer(msg.sender, rewards) */\n      tag_90\n      swap1\n        /* \"StakingContract.sol\":5836:5848  rewardsToken */\n      immutable(\"0x5c4c6aa067b6f8e6cb38e6ab843832a94d1712d661a04d73c517d6a1931a9e5d\")\n      sub(shl(0xa0, 0x01), 0x01)\n        /* \"StakingContract.sol\":5836:5861  rewardsToken.safeTransfer */\n      and\n      swap1\n        /* \"StakingContract.sol\":5874:5881  rewards */\n      dup4\n        /* \"StakingContract.sol\":5836:5861  rewardsToken.safeTransfer */\n      tag_91\n        /* \"StakingContract.sol\":5836:5882  rewardsToken.safeTransfer(msg.sender, rewards) */\n      jump\t// in\n    tag_90:\n        /* \"StakingContract.sol\":5537:5890  {... */\n      pop\n        /* \"StakingContract.sol\":5504:5890  function claimRewards() external {... */\n      jump\t// out\n        /* \"StakingContract.sol\":6387:7314  function getStakedTokens(address _user)... */\n    tag_21:\n      sub(shl(0xa0, 0x01), 0x01)\n        /* \"StakingContract.sol\":6556:6570  stakers[_user] */\n      dup2\n      and\n        /* \"StakingContract.sol\":6586:6587  0 */\n      0x00\n        /* \"StakingContract.sol\":6556:6570  stakers[_user] */\n      swap1\n      dup2\n      mstore\n        /* \"StakingContract.sol\":6556:6563  stakers */\n      0x02\n        /* \"StakingContract.sol\":6556:6570  stakers[_user] */\n      0x20\n      mstore\n      0x40\n      swap1\n      keccak256\n        /* \"StakingContract.sol\":6556:6583  stakers[_user].amountStaked */\n      sload\n        /* \"StakingContract.sol\":6475:6495  StakedToken[] memory */\n      0x60\n      swap1\n        /* \"StakingContract.sol\":6556:6587  stakers[_user].amountStaked > 0 */\n      iszero\n        /* \"StakingContract.sol\":6552:7307  if (stakers[_user].amountStaked > 0) {... */\n      tag_93\n      jumpi\n      sub(shl(0xa0, 0x01), 0x01)\n        /* \"StakingContract.sol\":6770:6784  stakers[_user] */\n      dup3\n      and\n        /* \"StakingContract.sol\":6697:6731  StakedToken[] memory _stakedTokens */\n      0x00\n        /* \"StakingContract.sol\":6770:6784  stakers[_user] */\n      swap1\n      dup2\n      mstore\n        /* \"StakingContract.sol\":6770:6777  stakers */\n      0x02\n        /* \"StakingContract.sol\":6770:6784  stakers[_user] */\n      0x20\n      mstore\n      0x40\n      dup2\n      keccak256\n        /* \"StakingContract.sol\":6770:6797  stakers[_user].amountStaked */\n      sload\n        /* \"StakingContract.sol\":6734:6812  new StakedToken[](... */\n      0xffffffffffffffff\n      dup2\n      gt\n      iszero\n      tag_95\n      jumpi\n      tag_95\n      tag_96\n      jump\t// in\n    tag_95:\n      mload(0x40)\n      swap1\n      dup1\n      dup3\n      mstore\n      dup1\n      0x20\n      mul\n      0x20\n      add\n      dup3\n      add\n      0x40\n      mstore\n      dup1\n      iszero\n      tag_97\n      jumpi\n      dup2\n      0x20\n      add\n    tag_98:\n      0x40\n      dup1\n      mload\n      dup1\n      dup3\n      add\n      swap1\n      swap2\n      mstore\n      0x00\n      dup1\n      dup3\n      mstore\n      0x20\n      dup3\n      add\n      mstore\n      dup2\n      mstore\n      0x20\n      add\n      swap1\n      0x01\n      swap1\n      sub\n      swap1\n      dup2\n      tag_98\n      jumpi\n      swap1\n      pop\n    tag_97:\n      pop\n        /* \"StakingContract.sol\":6697:6812  StakedToken[] memory _stakedTokens = new StakedToken[](... */\n      swap1\n      pop\n        /* \"StakingContract.sol\":6827:6841  uint256 _index */\n      0x00\n        /* \"StakingContract.sol\":6867:6876  uint256 j */\n      dup1\n        /* \"StakingContract.sol\":6862:7148  for (uint256 j = 0; j < stakers[_user].stakedTokens.length; j++) {... */\n    tag_101:\n      sub(shl(0xa0, 0x01), 0x01)\n        /* \"StakingContract.sol\":6886:6900  stakers[_user] */\n      dup6\n      and\n      0x00\n      swap1\n      dup2\n      mstore\n        /* \"StakingContract.sol\":6886:6893  stakers */\n      0x02\n        /* \"StakingContract.sol\":6886:6900  stakers[_user] */\n      0x20\n      mstore\n      0x40\n      swap1\n      keccak256\n        /* \"StakingContract.sol\":6886:6913  stakers[_user].stakedTokens */\n      0x01\n      add\n        /* \"StakingContract.sol\":6886:6920  stakers[_user].stakedTokens.length */\n      sload\n        /* \"StakingContract.sol\":6882:6920  j < stakers[_user].stakedTokens.length */\n      dup2\n      lt\n        /* \"StakingContract.sol\":6862:7148  for (uint256 j = 0; j < stakers[_user].stakedTokens.length; j++) {... */\n      iszero\n      tag_102\n      jumpi\n      sub(shl(0xa0, 0x01), 0x01)\n        /* \"StakingContract.sol\":6950:6964  stakers[_user] */\n      dup6\n      and\n        /* \"StakingContract.sol\":7000:7001  0 */\n      0x00\n        /* \"StakingContract.sol\":6950:6964  stakers[_user] */\n      swap1\n      dup2\n      mstore\n        /* \"StakingContract.sol\":6950:6957  stakers */\n      0x02\n        /* \"StakingContract.sol\":6950:6964  stakers[_user] */\n      0x20\n      mstore\n      0x40\n      dup2\n      keccak256\n        /* \"StakingContract.sol\":6950:6977  stakers[_user].stakedTokens */\n      0x01\n      add\n        /* \"StakingContract.sol\":6950:6980  stakers[_user].stakedTokens[j] */\n      dup1\n      sload\n        /* \"StakingContract.sol\":6978:6979  j */\n      dup4\n      swap1\n        /* \"StakingContract.sol\":6950:6980  stakers[_user].stakedTokens[j] */\n      dup2\n      lt\n      tag_105\n      jumpi\n      tag_105\n      tag_65\n      jump\t// in\n    tag_105:\n      0x00\n      swap2\n      dup3\n      mstore\n      0x20\n      swap1\n      swap2\n      keccak256\n      0x02\n      swap1\n      swap2\n      mul\n      add\n        /* \"StakingContract.sol\":6950:6987  stakers[_user].stakedTokens[j].staker */\n      sload\n      sub(shl(0xa0, 0x01), 0x01)\n      and\n        /* \"StakingContract.sol\":6950:7003  stakers[_user].stakedTokens[j].staker != (address(0)) */\n      eq\n        /* \"StakingContract.sol\":6946:7133  if (stakers[_user].stakedTokens[j].staker != (address(0))) {... */\n      tag_107\n      jumpi\n      sub(shl(0xa0, 0x01), 0x01)\n        /* \"StakingContract.sol\":7052:7066  stakers[_user] */\n      dup6\n      and\n      0x00\n      swap1\n      dup2\n      mstore\n        /* \"StakingContract.sol\":7052:7059  stakers */\n      0x02\n        /* \"StakingContract.sol\":7052:7066  stakers[_user] */\n      0x20\n      mstore\n      0x40\n      swap1\n      keccak256\n        /* \"StakingContract.sol\":7052:7079  stakers[_user].stakedTokens */\n      0x01\n      add\n        /* \"StakingContract.sol\":7052:7082  stakers[_user].stakedTokens[j] */\n      dup1\n      sload\n        /* \"StakingContract.sol\":7080:7081  j */\n      dup3\n      swap1\n        /* \"StakingContract.sol\":7052:7082  stakers[_user].stakedTokens[j] */\n      dup2\n      lt\n      tag_109\n      jumpi\n      tag_109\n      tag_65\n      jump\t// in\n    tag_109:\n      0x00\n      swap2\n      dup3\n      mstore\n      0x20\n      swap2\n      dup3\n      swap1\n      keccak256\n        /* \"StakingContract.sol\":7028:7082  _stakedTokens[_index] = stakers[_user].stakedTokens[j] */\n      0x40\n      dup1\n      mload\n      dup1\n      dup3\n      add\n      swap1\n      swap2\n      mstore\n        /* \"StakingContract.sol\":7052:7082  stakers[_user].stakedTokens[j] */\n      0x02\n      swap1\n      swap3\n      mul\n      add\n        /* \"StakingContract.sol\":7028:7082  _stakedTokens[_index] = stakers[_user].stakedTokens[j] */\n      dup1\n      sload\n      sub(shl(0xa0, 0x01), 0x01)\n      and\n      dup3\n      mstore\n      0x01\n      add\n      sload\n      swap2\n      dup2\n      add\n      swap2\n      swap1\n      swap2\n      mstore\n        /* \"StakingContract.sol\":7028:7049  _stakedTokens[_index] */\n      dup4\n      mload\n        /* \"StakingContract.sol\":7028:7041  _stakedTokens */\n      dup5\n      swap1\n        /* \"StakingContract.sol\":7042:7048  _index */\n      dup5\n      swap1\n        /* \"StakingContract.sol\":7028:7049  _stakedTokens[_index] */\n      dup2\n      lt\n      tag_112\n      jumpi\n      tag_112\n      tag_65\n      jump\t// in\n    tag_112:\n      0x20\n      mul\n      0x20\n      add\n      add\n        /* \"StakingContract.sol\":7028:7082  _stakedTokens[_index] = stakers[_user].stakedTokens[j] */\n      dup2\n      swap1\n      mstore\n      pop\n        /* \"StakingContract.sol\":7105:7113  _index++ */\n      dup2\n      dup1\n      tag_113\n      swap1\n      tag_73\n      jump\t// in\n    tag_113:\n      swap3\n      pop\n      pop\n        /* \"StakingContract.sol\":6946:7133  if (stakers[_user].stakedTokens[j].staker != (address(0))) {... */\n    tag_107:\n        /* \"StakingContract.sol\":6922:6925  j++ */\n      dup1\n      tag_114\n      dup2\n      tag_73\n      jump\t// in\n    tag_114:\n      swap2\n      pop\n      pop\n        /* \"StakingContract.sol\":6862:7148  for (uint256 j = 0; j < stakers[_user].stakedTokens.length; j++) {... */\n      jump(tag_101)\n    tag_102:\n      pop\n        /* \"StakingContract.sol\":7171:7184  _stakedTokens */\n      swap1\n      swap4\n        /* \"StakingContract.sol\":6387:7314  function getStakedTokens(address _user)... */\n      swap3\n      pop\n      pop\n      pop\n      jump\t// out\n        /* \"StakingContract.sol\":6552:7307  if (stakers[_user].amountStaked > 0) {... */\n    tag_93:\n        /* \"StakingContract.sol\":7275:7295  new StakedToken[](0) */\n      0x40\n      dup1\n      mload\n        /* \"StakingContract.sol\":7293:7294  0 */\n      0x00\n        /* \"StakingContract.sol\":7275:7295  new StakedToken[](0) */\n      dup1\n      dup3\n      mstore\n      0x20\n      dup3\n      add\n      swap1\n      swap3\n      mstore\n      swap1\n      jump(tag_118)\n    tag_119:\n      0x40\n      dup1\n      mload\n      dup1\n      dup3\n      add\n      swap1\n      swap2\n      mstore\n      0x00\n      dup1\n      dup3\n      mstore\n      0x20\n      dup3\n      add\n      mstore\n      dup2\n      mstore\n      0x20\n      add\n      swap1\n      0x01\n      swap1\n      sub\n      swap1\n      dup2\n      tag_119\n      jumpi\n      swap1\n      pop\n    tag_118:\n      pop\n        /* \"StakingContract.sol\":7268:7295  return new StakedToken[](0) */\n      swap3\n        /* \"StakingContract.sol\":6387:7314  function getStakedTokens(address _user)... */\n      swap2\n      pop\n      pop\n      jump\t// out\n        /* \"StakingContract.sol\":2024:3275  function stake(uint256 _tokenId) external nonReentrant {... */\n    tag_40:\n        /* \"@openzeppelin/contracts/security/ReentrancyGuard.sol\":1744:1745   */\n      0x02\n        /* \"@openzeppelin/contracts/security/ReentrancyGuard.sol\":2325:2332   */\n      sload(0x00)\n        /* \"@openzeppelin/contracts/security/ReentrancyGuard.sol\":2325:2344   */\n      sub\n        /* \"@openzeppelin/contracts/security/ReentrancyGuard.sol\":2317:2380   */\n      tag_122\n      jumpi\n      mload(0x40)\n      shl(0xe5, 0x461bcd)\n      dup2\n      mstore\n        /* \"#utility.yul\":2704:2706   */\n      0x20\n        /* \"@openzeppelin/contracts/security/ReentrancyGuard.sol\":2317:2380   */\n      0x04\n      dup3\n      add\n        /* \"#utility.yul\":2686:2707   */\n      mstore\n        /* \"#utility.yul\":2743:2745   */\n      0x1f\n        /* \"#utility.yul\":2723:2741   */\n      0x24\n      dup3\n      add\n        /* \"#utility.yul\":2716:2746   */\n      mstore\n        /* \"#utility.yul\":2782:2815   */\n      0x5265656e7472616e637947756172643a207265656e7472616e742063616c6c00\n        /* \"#utility.yul\":2762:2780   */\n      0x44\n      dup3\n      add\n        /* \"#utility.yul\":2755:2816   */\n      mstore\n        /* \"#utility.yul\":2833:2851   */\n      0x64\n      add\n        /* \"@openzeppelin/contracts/security/ReentrancyGuard.sol\":2317:2380   */\n      tag_47\n        /* \"#utility.yul\":2502:2857   */\n      jump\n        /* \"@openzeppelin/contracts/security/ReentrancyGuard.sol\":2317:2380   */\n    tag_122:\n        /* \"@openzeppelin/contracts/security/ReentrancyGuard.sol\":1744:1745   */\n      0x02\n        /* \"@openzeppelin/contracts/security/ReentrancyGuard.sol\":2455:2462   */\n      0x00\n        /* \"@openzeppelin/contracts/security/ReentrancyGuard.sol\":2455:2473   */\n      dup2\n      dup2\n      sstore\n        /* \"StakingContract.sol\":2193:2203  msg.sender */\n      caller\n        /* \"StakingContract.sol\":2185:2204  stakers[msg.sender] */\n      dup2\n      mstore\n      0x20\n      swap2\n      swap1\n      swap2\n      mstore\n      0x40\n      swap1\n      keccak256\n        /* \"StakingContract.sol\":2185:2217  stakers[msg.sender].amountStaked */\n      sload\n        /* \"StakingContract.sol\":2185:2221  stakers[msg.sender].amountStaked > 0 */\n      iszero\n        /* \"StakingContract.sol\":2181:2358  if (stakers[msg.sender].amountStaked > 0) {... */\n      tag_125\n      jumpi\n        /* \"StakingContract.sol\":2238:2253  uint256 rewards */\n      0x00\n        /* \"StakingContract.sol\":2256:2284  calculateRewards(msg.sender) */\n      tag_126\n        /* \"StakingContract.sol\":2273:2283  msg.sender */\n      caller\n        /* \"StakingContract.sol\":2256:2272  calculateRewards */\n      tag_57\n        /* \"StakingContract.sol\":2256:2284  calculateRewards(msg.sender) */\n      jump\t// in\n    tag_126:\n        /* \"StakingContract.sol\":2307:2317  msg.sender */\n      caller\n        /* \"StakingContract.sol\":2299:2318  stakers[msg.sender] */\n      0x00\n      swap1\n      dup2\n      mstore\n        /* \"StakingContract.sol\":2299:2306  stakers */\n      0x02\n        /* \"StakingContract.sol\":2299:2318  stakers[msg.sender] */\n      0x20\n      mstore\n      0x40\n      dup2\n      keccak256\n        /* \"StakingContract.sol\":2299:2335  stakers[msg.sender].unclaimedRewards */\n      0x03\n      add\n        /* \"StakingContract.sol\":2299:2346  stakers[msg.sender].unclaimedRewards += rewards */\n      dup1\n      sload\n        /* \"StakingContract.sol\":2238:2284  uint256 rewards = calculateRewards(msg.sender) */\n      swap3\n      swap4\n      pop\n      dup4\n      swap3\n        /* \"StakingContract.sol\":2299:2335  stakers[msg.sender].unclaimedRewards */\n      swap1\n      swap2\n        /* \"StakingContract.sol\":2299:2318  stakers[msg.sender] */\n      swap1\n        /* \"StakingContract.sol\":2299:2346  stakers[msg.sender].unclaimedRewards += rewards */\n      tag_127\n      swap1\n        /* \"StakingContract.sol\":2238:2284  uint256 rewards = calculateRewards(msg.sender) */\n      dup5\n      swap1\n        /* \"StakingContract.sol\":2299:2346  stakers[msg.sender].unclaimedRewards += rewards */\n      tag_59\n      jump\t// in\n    tag_127:\n      swap1\n      swap2\n      sstore\n      pop\n      pop\n      pop\n        /* \"StakingContract.sol\":2181:2358  if (stakers[msg.sender].amountStaked > 0) {... */\n    tag_125:\n        /* \"StakingContract.sol\":2455:2486  nftCollection.ownerOf(_tokenId) */\n      mload(0x40)\n      shl(0xe1, 0x31a9108f)\n      dup2\n      mstore\n      0x04\n      dup2\n      add\n        /* \"#utility.yul\":5286:5311   */\n      dup3\n      swap1\n      mstore\n        /* \"StakingContract.sol\":2490:2500  msg.sender */\n      caller\n      swap1\n      sub(shl(0xa0, 0x01), 0x01)\n        /* \"StakingContract.sol\":2455:2468  nftCollection */\n      immutable(\"0x8e8fab5f003314da8d1873ea7720e8d9f47650136d916064d1edb8a11d682624\")\n        /* \"StakingContract.sol\":2455:2476  nftCollection.ownerOf */\n      and\n      swap1\n      0x6352211e\n      swap1\n        /* \"#utility.yul\":5259:5277   */\n      0x24\n      add\n        /* \"StakingContract.sol\":2455:2486  nftCollection.ownerOf(_tokenId) */\n      0x20\n      mload(0x40)\n      dup1\n      dup4\n      sub\n      dup2\n      dup7\n      gas\n      staticcall\n      iszero\n      dup1\n      iszero\n      tag_131\n      jumpi\n      returndatasize\n      0x00\n      dup1\n      returndatacopy\n      revert(0x00, returndatasize)\n    tag_131:\n      pop\n      pop\n      pop\n      pop\n      mload(0x40)\n      returndatasize\n      not(0x1f)\n      0x1f\n      dup3\n      add\n      and\n      dup3\n      add\n      dup1\n      0x40\n      mstore\n      pop\n      dup2\n      add\n      swap1\n      tag_132\n      swap2\n      swap1\n      tag_133\n      jump\t// in\n    tag_132:\n      sub(shl(0xa0, 0x01), 0x01)\n        /* \"StakingContract.sol\":2455:2500  nftCollection.ownerOf(_tokenId) == msg.sender */\n      and\n      eq\n        /* \"StakingContract.sol\":2433:2553  require(... */\n      tag_134\n      jumpi\n      mload(0x40)\n      shl(0xe5, 0x461bcd)\n      dup2\n      mstore\n        /* \"#utility.yul\":3418:3420   */\n      0x20\n        /* \"StakingContract.sol\":2433:2553  require(... */\n      0x04\n      dup3\n      add\n        /* \"#utility.yul\":3400:3421   */\n      mstore\n        /* \"#utility.yul\":3457:3459   */\n      0x19\n        /* \"#utility.yul\":3437:3455   */\n      0x24\n      dup3\n      add\n        /* \"#utility.yul\":3430:3460   */\n      mstore\n        /* \"#utility.yul\":3496:3523   */\n      0x596f7520646f6e2774206f776e207468697320746f6b656e2100000000000000\n        /* \"#utility.yul\":3476:3494   */\n      0x44\n      dup3\n      add\n        /* \"#utility.yul\":3469:3524   */\n      mstore\n        /* \"#utility.yul\":3541:3559   */\n      0x64\n      add\n        /* \"StakingContract.sol\":2433:2553  require(... */\n      tag_47\n        /* \"#utility.yul\":3216:3565   */\n      jump\n        /* \"StakingContract.sol\":2433:2553  require(... */\n    tag_134:\n        /* \"StakingContract.sol\":2635:2698  nftCollection.transferFrom(msg.sender, address(this), _tokenId) */\n      mload(0x40)\n      shl(0xe0, 0x23b872dd)\n      dup2\n      mstore\n        /* \"StakingContract.sol\":2662:2672  msg.sender */\n      caller\n        /* \"StakingContract.sol\":2635:2698  nftCollection.transferFrom(msg.sender, address(this), _tokenId) */\n      0x04\n      dup3\n      add\n        /* \"#utility.yul\":4511:4545   */\n      mstore\n        /* \"StakingContract.sol\":2682:2686  this */\n      address\n        /* \"#utility.yul\":4561:4579   */\n      0x24\n      dup3\n      add\n        /* \"#utility.yul\":4554:4597   */\n      mstore\n        /* \"#utility.yul\":4613:4631   */\n      0x44\n      dup2\n      add\n        /* \"#utility.yul\":4606:4640   */\n      dup3\n      swap1\n      mstore\n        /* \"StakingContract.sol\":2635:2648  nftCollection */\n      immutable(\"0x8e8fab5f003314da8d1873ea7720e8d9f47650136d916064d1edb8a11d682624\")\n      sub(shl(0xa0, 0x01), 0x01)\n        /* \"StakingContract.sol\":2635:2661  nftCollection.transferFrom */\n      and\n      swap1\n      0x23b872dd\n      swap1\n        /* \"#utility.yul\":4423:4441   */\n      0x64\n      add\n        /* \"StakingContract.sol\":2635:2698  nftCollection.transferFrom(msg.sender, address(this), _tokenId) */\n      0x00\n      mload(0x40)\n      dup1\n      dup4\n      sub\n      dup2\n      0x00\n      dup8\n      dup1\n      extcodesize\n      iszero\n      dup1\n      iszero\n      tag_137\n      jumpi\n      0x00\n      dup1\n      revert\n    tag_137:\n      pop\n      gas\n      call\n      iszero\n      dup1\n      iszero\n      tag_139\n      jumpi\n      returndatasize\n      0x00\n      dup1\n      returndatacopy\n      revert(0x00, returndatasize)\n    tag_139:\n      pop\n      pop\n        /* \"StakingContract.sol\":2775:2808  StakedToken(msg.sender, _tokenId) */\n      0x40\n      dup1\n      mload\n      dup1\n      dup3\n      add\n      dup3\n      mstore\n        /* \"StakingContract.sol\":2787:2797  msg.sender */\n      caller\n        /* \"StakingContract.sol\":2775:2808  StakedToken(msg.sender, _tokenId) */\n      dup1\n      dup3\n      mstore\n      0x20\n      dup1\n      dup4\n      add\n      dup8\n      dup2\n      mstore\n      0x00\n        /* \"StakingContract.sol\":2873:2892  stakers[msg.sender] */\n      dup4\n      dup2\n      mstore\n        /* \"StakingContract.sol\":2873:2880  stakers */\n      0x02\n        /* \"StakingContract.sol\":2873:2892  stakers[msg.sender] */\n      dup1\n      dup5\n      mstore\n      swap6\n      dup2\n      keccak256\n        /* \"StakingContract.sol\":2873:2905  stakers[msg.sender].stakedTokens */\n      0x01\n      dup1\n      dup3\n      add\n        /* \"StakingContract.sol\":2873:2923  stakers[msg.sender].stakedTokens.push(stakedToken) */\n      dup1\n      sload\n      dup1\n      dup4\n      add\n      dup3\n      sstore\n      swap1\n      dup5\n      mstore\n      swap5\n      dup4\n      keccak256\n      dup8\n      mload\n      swap6\n      swap1\n      swap9\n      mul\n      swap1\n      swap8\n      add\n      dup1\n      sload\n      not(sub(shl(0xa0, 0x01), 0x01))\n      and\n      sub(shl(0xa0, 0x01), 0x01)\n      swap1\n      swap6\n      and\n      swap5\n      swap1\n      swap5\n      or\n      dup5\n      sstore\n      swap2\n      mload\n      swap3\n      swap1\n      swap6\n      add\n      swap2\n      swap1\n      swap2\n      sstore\n        /* \"StakingContract.sol\":2992:3011  stakers[msg.sender] */\n      swap1\n      dup4\n      mstore\n        /* \"StakingContract.sol\":2992:3026  stakers[msg.sender].amountStaked++ */\n      dup1\n      sload\n        /* \"StakingContract.sol\":2775:2808  StakedToken(msg.sender, _tokenId) */\n      swap2\n      swap5\n      pop\n        /* \"StakingContract.sol\":2992:3026  stakers[msg.sender].amountStaked++ */\n      swap1\n      swap3\n      pop\n        /* \"StakingContract.sol\":2873:2892  stakers[msg.sender] */\n      swap1\n        /* \"StakingContract.sol\":2992:3026  stakers[msg.sender].amountStaked++ */\n      tag_141\n      dup4\n      tag_73\n      jump\t// in\n    tag_141:\n      swap1\n      swap2\n      sstore\n      pop\n      pop\n      pop\n        /* \"StakingContract.sol\":3109:3132  stakerAddress[_tokenId] */\n      0x00\n      swap1\n      dup2\n      mstore\n        /* \"StakingContract.sol\":3109:3122  stakerAddress */\n      0x03\n        /* \"StakingContract.sol\":3109:3132  stakerAddress[_tokenId] */\n      0x20\n      swap1\n      dup2\n      mstore\n      0x40\n      dup1\n      dup4\n      keccak256\n        /* \"StakingContract.sol\":3109:3145  stakerAddress[_tokenId] = msg.sender */\n      dup1\n      sload\n      not(sub(shl(0xa0, 0x01), 0x01))\n      and\n        /* \"StakingContract.sol\":3135:3145  msg.sender */\n      caller\n        /* \"StakingContract.sol\":3109:3145  stakerAddress[_tokenId] = msg.sender */\n      swap1\n      dup2\n      or\n      swap1\n      swap2\n      sstore\n        /* \"StakingContract.sol\":3213:3232  stakers[msg.sender] */\n      dup4\n      mstore\n        /* \"StakingContract.sol\":3213:3220  stakers */\n      0x02\n        /* \"StakingContract.sol\":3213:3232  stakers[msg.sender] */\n      swap2\n      dup3\n      swap1\n      mstore\n      dup3\n      keccak256\n        /* \"StakingContract.sol\":3252:3267  block.timestamp */\n      timestamp\n        /* \"StakingContract.sol\":3213:3249  stakers[msg.sender].timeOfLastUpdate */\n      swap2\n      add\n        /* \"StakingContract.sol\":3213:3267  stakers[msg.sender].timeOfLastUpdate = block.timestamp */\n      sstore\n        /* \"StakingContract.sol\":3109:3145  stakerAddress[_tokenId] = msg.sender */\n      0x01\n        /* \"@openzeppelin/contracts/security/ReentrancyGuard.sol\":2628:2650   */\n      swap1\n      sstore\n        /* \"StakingContract.sol\":2024:3275  function stake(uint256 _tokenId) external nonReentrant {... */\n      jump\t// out\n        /* \"StakingContract.sol\":6079:6379  function calculateRewards(address _staker)... */\n    tag_57:\n        /* \"StakingContract.sol\":6348:6362  rewardsPerHour */\n      sload(0x01)\n      sub(shl(0xa0, 0x01), 0x01)\n        /* \"StakingContract.sol\":6304:6320  stakers[_staker] */\n      dup3\n      and\n        /* \"StakingContract.sol\":6172:6188  uint256 _rewards */\n      0x00\n        /* \"StakingContract.sol\":6304:6320  stakers[_staker] */\n      swap1\n      dup2\n      mstore\n        /* \"StakingContract.sol\":6304:6311  stakers */\n      0x02\n        /* \"StakingContract.sol\":6304:6320  stakers[_staker] */\n      0x20\n      dup2\n      swap1\n      mstore\n      0x40\n      dup3\n      keccak256\n        /* \"StakingContract.sol\":6304:6333  stakers[_staker].amountStaked */\n      dup1\n      sload\n        /* \"StakingContract.sol\":6250:6283  stakers[_staker].timeOfLastUpdate */\n      swap2\n      add\n      sload\n        /* \"StakingContract.sol\":6172:6188  uint256 _rewards */\n      swap2\n      swap3\n        /* \"StakingContract.sol\":6366:6370  3600 */\n      0x0e10\n      swap3\n        /* \"StakingContract.sol\":6348:6362  rewardsPerHour */\n      swap1\n      swap2\n        /* \"StakingContract.sol\":6304:6333  stakers[_staker].amountStaked */\n      swap1\n        /* \"StakingContract.sol\":6232:6283  block.timestamp - stakers[_staker].timeOfLastUpdate */\n      tag_143\n      swap1\n        /* \"StakingContract.sol\":6232:6247  block.timestamp */\n      timestamp\n        /* \"StakingContract.sol\":6232:6283  block.timestamp - stakers[_staker].timeOfLastUpdate */\n      tag_144\n      jump\t// in\n    tag_143:\n        /* \"StakingContract.sol\":6231:6333  (block.timestamp - stakers[_staker].timeOfLastUpdate) *... */\n      tag_145\n      swap2\n      swap1\n      tag_146\n      jump\t// in\n    tag_145:\n        /* \"StakingContract.sol\":6215:6362  (... */\n      tag_147\n      swap2\n      swap1\n      tag_146\n      jump\t// in\n    tag_147:\n        /* \"StakingContract.sol\":6214:6370  ((... */\n      tag_148\n      swap2\n      swap1\n      tag_149\n      jump\t// in\n    tag_148:\n        /* \"StakingContract.sol\":6206:6371  return (((... */\n      swap3\n        /* \"StakingContract.sol\":6079:6379  function calculateRewards(address _staker)... */\n      swap2\n      pop\n      pop\n      jump\t// out\n        /* \"@openzeppelin/contracts/token/ERC20/utils/SafeERC20.sol\":763:968   */\n    tag_91:\n        /* \"@openzeppelin/contracts/token/ERC20/utils/SafeERC20.sol\":902:960   */\n      0x40\n      dup1\n      mload\n      sub(shl(0xa0, 0x01), 0x01)\n        /* \"#utility.yul\":6295:6350   */\n      dup5\n      and\n        /* \"@openzeppelin/contracts/token/ERC20/utils/SafeERC20.sol\":902:960   */\n      0x24\n      dup3\n      add\n        /* \"#utility.yul\":6277:6351   */\n      mstore\n        /* \"#utility.yul\":6367:6385   */\n      0x44\n      dup1\n      dup3\n      add\n        /* \"#utility.yul\":6360:6394   */\n      dup5\n      swap1\n      mstore\n        /* \"@openzeppelin/contracts/token/ERC20/utils/SafeERC20.sol\":902:960   */\n      dup3\n      mload\n      dup1\n      dup4\n      sub\n      swap1\n      swap2\n      add\n      dup2\n      mstore\n        /* \"#utility.yul\":6250:6268   */\n      0x64\n      swap1\n      swap2\n      add\n        /* \"@openzeppelin/contracts/token/ERC20/utils/SafeERC20.sol\":902:960   */\n      swap1\n      swap2\n      mstore\n      0x20\n      dup2\n      add\n      dup1\n      mload\n      0xffffffffffffffffffffffffffffffffffffffffffffffffffffffff\n      and\n      shl(0xe0, 0xa9059cbb)\n      or\n      swap1\n      mstore\n        /* \"@openzeppelin/contracts/token/ERC20/utils/SafeERC20.sol\":875:961   */\n      tag_151\n      swap1\n        /* \"@openzeppelin/contracts/token/ERC20/utils/SafeERC20.sol\":895:900   */\n      dup5\n      swap1\n        /* \"@openzeppelin/contracts/token/ERC20/utils/SafeERC20.sol\":875:894   */\n      tag_154\n        /* \"@openzeppelin/contracts/token/ERC20/utils/SafeERC20.sol\":875:961   */\n      jump\t// in\n    tag_151:\n        /* \"@openzeppelin/contracts/token/ERC20/utils/SafeERC20.sol\":763:968   */\n      pop\n      pop\n      pop\n      jump\t// out\n        /* \"@openzeppelin/contracts/token/ERC20/utils/SafeERC20.sol\":3747:4453   */\n    tag_154:\n        /* \"@openzeppelin/contracts/token/ERC20/utils/SafeERC20.sol\":4166:4189   */\n      0x00\n        /* \"@openzeppelin/contracts/token/ERC20/utils/SafeERC20.sol\":4192:4261   */\n      tag_156\n        /* \"@openzeppelin/contracts/token/ERC20/utils/SafeERC20.sol\":4220:4224   */\n      dup3\n        /* \"@openzeppelin/contracts/token/ERC20/utils/SafeERC20.sol\":4192:4261   */\n      mload(0x40)\n      dup1\n      0x40\n      add\n      0x40\n      mstore\n      dup1\n      0x20\n      dup2\n      mstore\n      0x20\n      add\n      0x5361666545524332303a206c6f772d6c6576656c2063616c6c206661696c6564\n      dup2\n      mstore\n      pop\n        /* \"@openzeppelin/contracts/token/ERC20/utils/SafeERC20.sol\":4200:4205   */\n      dup6\n      sub(shl(0xa0, 0x01), 0x01)\n        /* \"@openzeppelin/contracts/token/ERC20/utils/SafeERC20.sol\":4192:4219   */\n      and\n      tag_157\n      swap1\n        /* \"@openzeppelin/contracts/token/ERC20/utils/SafeERC20.sol\":4192:4261   */\n      swap3\n      swap2\n      swap1\n      0xffffffff\n      and\n      jump\t// in\n    tag_156:\n        /* \"@openzeppelin/contracts/token/ERC20/utils/SafeERC20.sol\":4275:4292   */\n      dup1\n      mload\n        /* \"@openzeppelin/contracts/token/ERC20/utils/SafeERC20.sol\":4166:4261   */\n      swap1\n      swap2\n      pop\n        /* \"@openzeppelin/contracts/token/ERC20/utils/SafeERC20.sol\":4275:4296   */\n      iszero\n        /* \"@openzeppelin/contracts/token/ERC20/utils/SafeERC20.sol\":4271:4447   */\n      tag_151\n      jumpi\n        /* \"@openzeppelin/contracts/token/ERC20/utils/SafeERC20.sol\":4370:4380   */\n      dup1\n        /* \"@openzeppelin/contracts/token/ERC20/utils/SafeERC20.sol\":4359:4389   */\n      dup1\n      0x20\n      add\n      swap1\n      mload\n      dup2\n      add\n      swap1\n      tag_159\n      swap2\n      swap1\n      tag_160\n      jump\t// in\n    tag_159:\n        /* \"@openzeppelin/contracts/token/ERC20/utils/SafeERC20.sol\":4351:4436   */\n      tag_151\n      jumpi\n      mload(0x40)\n      shl(0xe5, 0x461bcd)\n      dup2\n      mstore\n        /* \"#utility.yul\":6889:6891   */\n      0x20\n        /* \"@openzeppelin/contracts/token/ERC20/utils/SafeERC20.sol\":4351:4436   */\n      0x04\n      dup3\n      add\n        /* \"#utility.yul\":6871:6892   */\n      mstore\n        /* \"#utility.yul\":6928:6930   */\n      0x2a\n        /* \"#utility.yul\":6908:6926   */\n      0x24\n      dup3\n      add\n        /* \"#utility.yul\":6901:6931   */\n      mstore\n        /* \"#utility.yul\":6967:7001   */\n      0x5361666545524332303a204552433230206f7065726174696f6e20646964206e\n        /* \"#utility.yul\":6947:6965   */\n      0x44\n      dup3\n      add\n        /* \"#utility.yul\":6940:7002   */\n      mstore\n        /* \"#utility.yul\":7038:7050   */\n      0x6f74207375636365656400000000000000000000000000000000000000000000\n        /* \"#utility.yul\":7018:7036   */\n      0x64\n      dup3\n      add\n        /* \"#utility.yul\":7011:7051   */\n      mstore\n        /* \"#utility.yul\":7068:7087   */\n      0x84\n      add\n        /* \"@openzeppelin/contracts/token/ERC20/utils/SafeERC20.sol\":4351:4436   */\n      tag_47\n        /* \"#utility.yul\":6687:7093   */\n      jump\n        /* \"@openzeppelin/contracts/utils/Address.sol\":3861:4084   */\n    tag_157:\n        /* \"@openzeppelin/contracts/utils/Address.sol\":3994:4006   */\n      0x60\n        /* \"@openzeppelin/contracts/utils/Address.sol\":4025:4077   */\n      tag_165\n        /* \"@openzeppelin/contracts/utils/Address.sol\":4047:4053   */\n      dup5\n        /* \"@openzeppelin/contracts/utils/Address.sol\":4055:4059   */\n      dup5\n        /* \"@openzeppelin/contracts/utils/Address.sol\":4061:4062   */\n      0x00\n        /* \"@openzeppelin/contracts/utils/Address.sol\":4064:4076   */\n      dup6\n        /* \"@openzeppelin/contracts/utils/Address.sol\":4025:4046   */\n      tag_166\n        /* \"@openzeppelin/contracts/utils/Address.sol\":4025:4077   */\n      jump\t// in\n    tag_165:\n        /* \"@openzeppelin/contracts/utils/Address.sol\":4018:4077   */\n      swap1\n      pop\n        /* \"@openzeppelin/contracts/utils/Address.sol\":3861:4084   */\n    tag_164:\n      swap4\n      swap3\n      pop\n      pop\n      pop\n      jump\t// out\n        /* \"@openzeppelin/contracts/utils/Address.sol\":4948:5447   */\n    tag_166:\n        /* \"@openzeppelin/contracts/utils/Address.sol\":5113:5125   */\n      0x60\n        /* \"@openzeppelin/contracts/utils/Address.sol\":5170:5175   */\n      dup3\n        /* \"@openzeppelin/contracts/utils/Address.sol\":5145:5166   */\n      selfbalance\n        /* \"@openzeppelin/contracts/utils/Address.sol\":5145:5175   */\n      lt\n      iszero\n        /* \"@openzeppelin/contracts/utils/Address.sol\":5137:5218   */\n      tag_168\n      jumpi\n      mload(0x40)\n      shl(0xe5, 0x461bcd)\n      dup2\n      mstore\n        /* \"#utility.yul\":7300:7302   */\n      0x20\n        /* \"@openzeppelin/contracts/utils/Address.sol\":5137:5218   */\n      0x04\n      dup3\n      add\n        /* \"#utility.yul\":7282:7303   */\n      mstore\n        /* \"#utility.yul\":7339:7341   */\n      0x26\n        /* \"#utility.yul\":7319:7337   */\n      0x24\n      dup3\n      add\n        /* \"#utility.yul\":7312:7342   */\n      mstore\n        /* \"#utility.yul\":7378:7412   */\n      0x416464726573733a20696e73756666696369656e742062616c616e636520666f\n        /* \"#utility.yul\":7358:7376   */\n      0x44\n      dup3\n      add\n        /* \"#utility.yul\":7351:7413   */\n      mstore\n        /* \"#utility.yul\":7449:7457   */\n      0x722063616c6c0000000000000000000000000000000000000000000000000000\n        /* \"#utility.yul\":7429:7447   */\n      0x64\n      dup3\n      add\n        /* \"#utility.yul\":7422:7458   */\n      mstore\n        /* \"#utility.yul\":7475:7494   */\n      0x84\n      add\n        /* \"@openzeppelin/contracts/utils/Address.sol\":5137:5218   */\n      tag_47\n        /* \"#utility.yul\":7098:7500   */\n      jump\n        /* \"@openzeppelin/contracts/utils/Address.sol\":5137:5218   */\n    tag_168:\n      sub(shl(0xa0, 0x01), 0x01)\n        /* \"@openzeppelin/contracts/utils/Address.sol\":1465:1484   */\n      dup6\n      and\n      extcodesize\n        /* \"@openzeppelin/contracts/utils/Address.sol\":5228:5288   */\n      tag_173\n      jumpi\n      mload(0x40)\n      shl(0xe5, 0x461bcd)\n      dup2\n      mstore\n        /* \"#utility.yul\":7707:7709   */\n      0x20\n        /* \"@openzeppelin/contracts/utils/Address.sol\":5228:5288   */\n      0x04\n      dup3\n      add\n        /* \"#utility.yul\":7689:7710   */\n      mstore\n        /* \"#utility.yul\":7746:7748   */\n      0x1d\n        /* \"#utility.yul\":7726:7744   */\n      0x24\n      dup3\n      add\n        /* \"#utility.yul\":7719:7749   */\n      mstore\n        /* \"#utility.yul\":7785:7816   */\n      0x416464726573733a2063616c6c20746f206e6f6e2d636f6e7472616374000000\n        /* \"#utility.yul\":7765:7783   */\n      0x44\n      dup3\n      add\n        /* \"#utility.yul\":7758:7817   */\n      mstore\n        /* \"#utility.yul\":7834:7852   */\n      0x64\n      add\n        /* \"@openzeppelin/contracts/utils/Address.sol\":5228:5288   */\n      tag_47\n        /* \"#utility.yul\":7505:7858   */\n      jump\n        /* \"@openzeppelin/contracts/utils/Address.sol\":5228:5288   */\n    tag_173:\n        /* \"@openzeppelin/contracts/utils/Address.sol\":5300:5312   */\n      0x00\n        /* \"@openzeppelin/contracts/utils/Address.sol\":5314:5337   */\n      dup1\n        /* \"@openzeppelin/contracts/utils/Address.sol\":5341:5347   */\n      dup7\n      sub(shl(0xa0, 0x01), 0x01)\n        /* \"@openzeppelin/contracts/utils/Address.sol\":5341:5352   */\n      and\n        /* \"@openzeppelin/contracts/utils/Address.sol\":5360:5365   */\n      dup6\n        /* \"@openzeppelin/contracts/utils/Address.sol\":5367:5371   */\n      dup8\n        /* \"@openzeppelin/contracts/utils/Address.sol\":5341:5372   */\n      mload(0x40)\n      tag_176\n      swap2\n      swap1\n      tag_177\n      jump\t// in\n    tag_176:\n      0x00\n      mload(0x40)\n      dup1\n      dup4\n      sub\n      dup2\n      dup6\n      dup8\n      gas\n      call\n      swap3\n      pop\n      pop\n      pop\n      returndatasize\n      dup1\n      0x00\n      dup2\n      eq\n      tag_180\n      jumpi\n      mload(0x40)\n      swap2\n      pop\n      and(add(returndatasize, 0x3f), not(0x1f))\n      dup3\n      add\n      0x40\n      mstore\n      returndatasize\n      dup3\n      mstore\n      returndatasize\n      0x00\n      0x20\n      dup5\n      add\n      returndatacopy\n      jump(tag_179)\n    tag_180:\n      0x60\n      swap2\n      pop\n    tag_179:\n      pop\n        /* \"@openzeppelin/contracts/utils/Address.sol\":5299:5372   */\n      swap2\n      pop\n      swap2\n      pop\n        /* \"@openzeppelin/contracts/utils/Address.sol\":5389:5440   */\n      tag_181\n        /* \"@openzeppelin/contracts/utils/Address.sol\":5406:5413   */\n      dup3\n        /* \"@openzeppelin/contracts/utils/Address.sol\":5415:5425   */\n      dup3\n        /* \"@openzeppelin/contracts/utils/Address.sol\":5427:5439   */\n      dup7\n        /* \"@openzeppelin/contracts/utils/Address.sol\":5389:5405   */\n      tag_182\n        /* \"@openzeppelin/contracts/utils/Address.sol\":5389:5440   */\n      jump\t// in\n    tag_181:\n        /* \"@openzeppelin/contracts/utils/Address.sol\":5382:5440   */\n      swap8\n        /* \"@openzeppelin/contracts/utils/Address.sol\":4948:5447   */\n      swap7\n      pop\n      pop\n      pop\n      pop\n      pop\n      pop\n      pop\n      jump\t// out\n        /* \"@openzeppelin/contracts/utils/Address.sol\":7561:8303   */\n    tag_182:\n        /* \"@openzeppelin/contracts/utils/Address.sol\":7707:7719   */\n      0x60\n        /* \"@openzeppelin/contracts/utils/Address.sol\":7735:7742   */\n      dup4\n        /* \"@openzeppelin/contracts/utils/Address.sol\":7731:8297   */\n      iszero\n      tag_185\n      jumpi\n      pop\n        /* \"@openzeppelin/contracts/utils/Address.sol\":7765:7775   */\n      dup2\n        /* \"@openzeppelin/contracts/utils/Address.sol\":7758:7775   */\n      jump(tag_164)\n        /* \"@openzeppelin/contracts/utils/Address.sol\":7731:8297   */\n    tag_185:\n        /* \"@openzeppelin/contracts/utils/Address.sol\":7876:7893   */\n      dup3\n      mload\n        /* \"@openzeppelin/contracts/utils/Address.sol\":7876:7897   */\n      iszero\n        /* \"@openzeppelin/contracts/utils/Address.sol\":7872:8287   */\n      tag_187\n      jumpi\n        /* \"@openzeppelin/contracts/utils/Address.sol\":8120:8130   */\n      dup3\n        /* \"@openzeppelin/contracts/utils/Address.sol\":8114:8131   */\n      mload\n        /* \"@openzeppelin/contracts/utils/Address.sol\":8180:8195   */\n      dup1\n        /* \"@openzeppelin/contracts/utils/Address.sol\":8167:8177   */\n      dup5\n        /* \"@openzeppelin/contracts/utils/Address.sol\":8163:8165   */\n      0x20\n        /* \"@openzeppelin/contracts/utils/Address.sol\":8159:8178   */\n      add\n        /* \"@openzeppelin/contracts/utils/Address.sol\":8152:8196   */\n      revert\n        /* \"@openzeppelin/contracts/utils/Address.sol\":7872:8287   */\n    tag_187:\n        /* \"@openzeppelin/contracts/utils/Address.sol\":8259:8271   */\n      dup2\n        /* \"@openzeppelin/contracts/utils/Address.sol\":8252:8272   */\n      mload(0x40)\n      shl(0xe5, 0x461bcd)\n      dup2\n      mstore\n      0x04\n      add\n      tag_47\n      swap2\n      swap1\n      tag_190\n      jump\t// in\n        /* \"#utility.yul\":14:194   */\n    tag_14:\n        /* \"#utility.yul\":73:79   */\n      0x00\n        /* \"#utility.yul\":126:128   */\n      0x20\n        /* \"#utility.yul\":114:123   */\n      dup3\n        /* \"#utility.yul\":105:112   */\n      dup5\n        /* \"#utility.yul\":101:124   */\n      sub\n        /* \"#utility.yul\":97:129   */\n      slt\n        /* \"#utility.yul\":94:146   */\n      iszero\n      tag_196\n      jumpi\n        /* \"#utility.yul\":142:143   */\n      0x00\n        /* \"#utility.yul\":139:140   */\n      dup1\n        /* \"#utility.yul\":132:144   */\n      revert\n        /* \"#utility.yul\":94:146   */\n    tag_196:\n      pop\n        /* \"#utility.yul\":165:188   */\n      calldataload\n      swap2\n        /* \"#utility.yul\":14:194   */\n      swap1\n      pop\n      jump\t// out\n        /* \"#utility.yul\":199:353   */\n    tag_191:\n      sub(shl(0xa0, 0x01), 0x01)\n        /* \"#utility.yul\":278:283   */\n      dup2\n        /* \"#utility.yul\":274:328   */\n      and\n        /* \"#utility.yul\":267:272   */\n      dup2\n        /* \"#utility.yul\":264:329   */\n      eq\n        /* \"#utility.yul\":254:347   */\n      tag_90\n      jumpi\n        /* \"#utility.yul\":343:344   */\n      0x00\n        /* \"#utility.yul\":340:341   */\n      dup1\n        /* \"#utility.yul\":333:345   */\n      revert\n        /* \"#utility.yul\":358:605   */\n    tag_20:\n        /* \"#utility.yul\":417:423   */\n      0x00\n        /* \"#utility.yul\":470:472   */\n      0x20\n        /* \"#utility.yul\":458:467   */\n      dup3\n        /* \"#utility.yul\":449:456   */\n      dup5\n        /* \"#utility.yul\":445:468   */\n      sub\n        /* \"#utility.yul\":441:473   */\n      slt\n        /* \"#utility.yul\":438:490   */\n      iszero\n      tag_200\n      jumpi\n        /* \"#utility.yul\":486:487   */\n      0x00\n        /* \"#utility.yul\":483:484   */\n      dup1\n        /* \"#utility.yul\":476:488   */\n      revert\n        /* \"#utility.yul\":438:490   */\n    tag_200:\n        /* \"#utility.yul\":525:534   */\n      dup2\n        /* \"#utility.yul\":512:535   */\n      calldataload\n        /* \"#utility.yul\":544:575   */\n      tag_164\n        /* \"#utility.yul\":569:574   */\n      dup2\n        /* \"#utility.yul\":544:575   */\n      tag_191\n      jump\t// in\n        /* \"#utility.yul\":610:1451   */\n    tag_23:\n        /* \"#utility.yul\":835:837   */\n      0x20\n        /* \"#utility.yul\":887:908   */\n      dup1\n      dup3\n      mstore\n        /* \"#utility.yul\":957:970   */\n      dup3\n      mload\n        /* \"#utility.yul\":860:878   */\n      dup3\n      dup3\n      add\n        /* \"#utility.yul\":979:1001   */\n      dup2\n      swap1\n      mstore\n        /* \"#utility.yul\":806:810   */\n      0x00\n      swap2\n        /* \"#utility.yul\":835:837   */\n      swap1\n        /* \"#utility.yul\":1020:1022   */\n      0x40\n      swap1\n        /* \"#utility.yul\":1038:1056   */\n      dup2\n      dup6\n      add\n      swap1\n        /* \"#utility.yul\":1079:1094   */\n      dup7\n      dup5\n      add\n        /* \"#utility.yul\":806:810   */\n      dup6\n        /* \"#utility.yul\":1122:1425   */\n    tag_203:\n        /* \"#utility.yul\":1136:1142   */\n      dup3\n        /* \"#utility.yul\":1133:1134   */\n      dup2\n        /* \"#utility.yul\":1130:1143   */\n      lt\n        /* \"#utility.yul\":1122:1425   */\n      iszero\n      tag_205\n      jumpi\n        /* \"#utility.yul\":1195:1208   */\n      dup2\n      mload\n        /* \"#utility.yul\":1237:1246   */\n      dup1\n      mload\n      sub(shl(0xa0, 0x01), 0x01)\n        /* \"#utility.yul\":1233:1291   */\n      and\n        /* \"#utility.yul\":1221:1292   */\n      dup6\n      mstore\n        /* \"#utility.yul\":1332:1343   */\n      dup7\n      add\n        /* \"#utility.yul\":1326:1344   */\n      mload\n        /* \"#utility.yul\":1312:1324   */\n      dup7\n      dup6\n      add\n        /* \"#utility.yul\":1305:1345   */\n      mstore\n        /* \"#utility.yul\":1365:1377   */\n      swap3\n      dup5\n      add\n      swap3\n        /* \"#utility.yul\":1400:1415   */\n      swap1\n      dup6\n      add\n      swap1\n        /* \"#utility.yul\":1158:1159   */\n      0x01\n        /* \"#utility.yul\":1151:1160   */\n      add\n        /* \"#utility.yul\":1122:1425   */\n      jump(tag_203)\n    tag_205:\n      pop\n        /* \"#utility.yul\":1442:1445   */\n      swap2\n      swap8\n        /* \"#utility.yul\":610:1451   */\n      swap7\n      pop\n      pop\n      pop\n      pop\n      pop\n      pop\n      pop\n      jump\t// out\n        /* \"#utility.yul\":3570:3697   */\n    tag_192:\n        /* \"#utility.yul\":3631:3641   */\n      0x4e487b71\n        /* \"#utility.yul\":3626:3629   */\n      0xe0\n        /* \"#utility.yul\":3622:3642   */\n      shl\n        /* \"#utility.yul\":3619:3620   */\n      0x00\n        /* \"#utility.yul\":3612:3643   */\n      mstore\n        /* \"#utility.yul\":3662:3666   */\n      0x11\n        /* \"#utility.yul\":3659:3660   */\n      0x04\n        /* \"#utility.yul\":3652:3667   */\n      mstore\n        /* \"#utility.yul\":3686:3690   */\n      0x24\n        /* \"#utility.yul\":3683:3684   */\n      0x00\n        /* \"#utility.yul\":3676:3691   */\n      revert\n        /* \"#utility.yul\":3702:3830   */\n    tag_59:\n        /* \"#utility.yul\":3742:3745   */\n      0x00\n        /* \"#utility.yul\":3773:3774   */\n      dup3\n        /* \"#utility.yul\":3769:3775   */\n      not\n        /* \"#utility.yul\":3766:3767   */\n      dup3\n        /* \"#utility.yul\":3763:3776   */\n      gt\n        /* \"#utility.yul\":3760:3799   */\n      iszero\n      tag_216\n      jumpi\n        /* \"#utility.yul\":3779:3797   */\n      tag_216\n      tag_192\n      jump\t// in\n    tag_216:\n      pop\n        /* \"#utility.yul\":3815:3824   */\n      add\n      swap1\n        /* \"#utility.yul\":3702:3830   */\n      jump\t// out\n        /* \"#utility.yul\":3835:3962   */\n    tag_65:\n        /* \"#utility.yul\":3896:3906   */\n      0x4e487b71\n        /* \"#utility.yul\":3891:3894   */\n      0xe0\n        /* \"#utility.yul\":3887:3907   */\n      shl\n        /* \"#utility.yul\":3884:3885   */\n      0x00\n        /* \"#utility.yul\":3877:3908   */\n      mstore\n        /* \"#utility.yul\":3927:3931   */\n      0x32\n        /* \"#utility.yul\":3924:3925   */\n      0x04\n        /* \"#utility.yul\":3917:3932   */\n      mstore\n        /* \"#utility.yul\":3951:3955   */\n      0x24\n        /* \"#utility.yul\":3948:3949   */\n      0x00\n        /* \"#utility.yul\":3941:3956   */\n      revert\n        /* \"#utility.yul\":3967:4102   */\n    tag_73:\n        /* \"#utility.yul\":4006:4009   */\n      0x00\n        /* \"#utility.yul\":4027:4044   */\n      0x01\n      dup3\n      add\n        /* \"#utility.yul\":4024:4067   */\n      tag_220\n      jumpi\n        /* \"#utility.yul\":4047:4065   */\n      tag_220\n      tag_192\n      jump\t// in\n    tag_220:\n      pop\n        /* \"#utility.yul\":4094:4095   */\n      0x01\n        /* \"#utility.yul\":4083:4096   */\n      add\n      swap1\n        /* \"#utility.yul\":3967:4102   */\n      jump\t// out\n        /* \"#utility.yul\":4107:4243   */\n    tag_78:\n        /* \"#utility.yul\":4146:4149   */\n      0x00\n        /* \"#utility.yul\":4174:4179   */\n      dup2\n        /* \"#utility.yul\":4164:4203   */\n      tag_223\n      jumpi\n        /* \"#utility.yul\":4183:4201   */\n      tag_223\n      tag_192\n      jump\t// in\n    tag_223:\n      pop\n      not(0x00)\n        /* \"#utility.yul\":4219:4237   */\n      add\n      swap1\n        /* \"#utility.yul\":4107:4243   */\n      jump\t// out\n        /* \"#utility.yul\":5008:5135   */\n    tag_96:\n        /* \"#utility.yul\":5069:5079   */\n      0x4e487b71\n        /* \"#utility.yul\":5064:5067   */\n      0xe0\n        /* \"#utility.yul\":5060:5080   */\n      shl\n        /* \"#utility.yul\":5057:5058   */\n      0x00\n        /* \"#utility.yul\":5050:5081   */\n      mstore\n        /* \"#utility.yul\":5100:5104   */\n      0x41\n        /* \"#utility.yul\":5097:5098   */\n      0x04\n        /* \"#utility.yul\":5090:5105   */\n      mstore\n        /* \"#utility.yul\":5124:5128   */\n      0x24\n        /* \"#utility.yul\":5121:5122   */\n      0x00\n        /* \"#utility.yul\":5114:5129   */\n      revert\n        /* \"#utility.yul\":5322:5573   */\n    tag_133:\n        /* \"#utility.yul\":5392:5398   */\n      0x00\n        /* \"#utility.yul\":5445:5447   */\n      0x20\n        /* \"#utility.yul\":5433:5442   */\n      dup3\n        /* \"#utility.yul\":5424:5431   */\n      dup5\n        /* \"#utility.yul\":5420:5443   */\n      sub\n        /* \"#utility.yul\":5416:5448   */\n      slt\n        /* \"#utility.yul\":5413:5465   */\n      iszero\n      tag_229\n      jumpi\n        /* \"#utility.yul\":5461:5462   */\n      0x00\n        /* \"#utility.yul\":5458:5459   */\n      dup1\n        /* \"#utility.yul\":5451:5463   */\n      revert\n        /* \"#utility.yul\":5413:5465   */\n    tag_229:\n        /* \"#utility.yul\":5493:5502   */\n      dup2\n        /* \"#utility.yul\":5487:5503   */\n      mload\n        /* \"#utility.yul\":5512:5543   */\n      tag_164\n        /* \"#utility.yul\":5537:5542   */\n      dup2\n        /* \"#utility.yul\":5512:5543   */\n      tag_191\n      jump\t// in\n        /* \"#utility.yul\":5578:5703   */\n    tag_144:\n        /* \"#utility.yul\":5618:5622   */\n      0x00\n        /* \"#utility.yul\":5646:5647   */\n      dup3\n        /* \"#utility.yul\":5643:5644   */\n      dup3\n        /* \"#utility.yul\":5640:5648   */\n      lt\n        /* \"#utility.yul\":5637:5671   */\n      iszero\n      tag_233\n      jumpi\n        /* \"#utility.yul\":5651:5669   */\n      tag_233\n      tag_192\n      jump\t// in\n    tag_233:\n      pop\n        /* \"#utility.yul\":5688:5697   */\n      sub\n      swap1\n        /* \"#utility.yul\":5578:5703   */\n      jump\t// out\n        /* \"#utility.yul\":5708:5876   */\n    tag_146:\n        /* \"#utility.yul\":5748:5755   */\n      0x00\n        /* \"#utility.yul\":5814:5815   */\n      dup2\n        /* \"#utility.yul\":5810:5811   */\n      0x00\n        /* \"#utility.yul\":5806:5812   */\n      not\n        /* \"#utility.yul\":5802:5816   */\n      div\n        /* \"#utility.yul\":5799:5800   */\n      dup4\n        /* \"#utility.yul\":5796:5817   */\n      gt\n        /* \"#utility.yul\":5791:5792   */\n      dup3\n        /* \"#utility.yul\":5784:5793   */\n      iszero\n        /* \"#utility.yul\":5777:5794   */\n      iszero\n        /* \"#utility.yul\":5773:5818   */\n      and\n        /* \"#utility.yul\":5770:5841   */\n      iszero\n      tag_236\n      jumpi\n        /* \"#utility.yul\":5821:5839   */\n      tag_236\n      tag_192\n      jump\t// in\n    tag_236:\n      pop\n        /* \"#utility.yul\":5861:5870   */\n      mul\n      swap1\n        /* \"#utility.yul\":5708:5876   */\n      jump\t// out\n        /* \"#utility.yul\":5881:6098   */\n    tag_149:\n        /* \"#utility.yul\":5921:5922   */\n      0x00\n        /* \"#utility.yul\":5947:5948   */\n      dup3\n        /* \"#utility.yul\":5937:6069   */\n      tag_238\n      jumpi\n        /* \"#utility.yul\":5991:6001   */\n      0x4e487b71\n        /* \"#utility.yul\":5986:5989   */\n      0xe0\n        /* \"#utility.yul\":5982:6002   */\n      shl\n        /* \"#utility.yul\":5979:5980   */\n      0x00\n        /* \"#utility.yul\":5972:6003   */\n      mstore\n        /* \"#utility.yul\":6026:6030   */\n      0x12\n        /* \"#utility.yul\":6023:6024   */\n      0x04\n        /* \"#utility.yul\":6016:6031   */\n      mstore\n        /* \"#utility.yul\":6054:6058   */\n      0x24\n        /* \"#utility.yul\":6051:6052   */\n      0x00\n        /* \"#utility.yul\":6044:6059   */\n      revert\n        /* \"#utility.yul\":5937:6069   */\n    tag_238:\n      pop\n        /* \"#utility.yul\":6083:6092   */\n      div\n      swap1\n        /* \"#utility.yul\":5881:6098   */\n      jump\t// out\n        /* \"#utility.yul\":6405:6682   */\n    tag_160:\n        /* \"#utility.yul\":6472:6478   */\n      0x00\n        /* \"#utility.yul\":6525:6527   */\n      0x20\n        /* \"#utility.yul\":6513:6522   */\n      dup3\n        /* \"#utility.yul\":6504:6511   */\n      dup5\n        /* \"#utility.yul\":6500:6523   */\n      sub\n        /* \"#utility.yul\":6496:6528   */\n      slt\n        /* \"#utility.yul\":6493:6545   */\n      iszero\n      tag_241\n      jumpi\n        /* \"#utility.yul\":6541:6542   */\n      0x00\n        /* \"#utility.yul\":6538:6539   */\n      dup1\n        /* \"#utility.yul\":6531:6543   */\n      revert\n        /* \"#utility.yul\":6493:6545   */\n    tag_241:\n        /* \"#utility.yul\":6573:6582   */\n      dup2\n        /* \"#utility.yul\":6567:6583   */\n      mload\n        /* \"#utility.yul\":6626:6631   */\n      dup1\n        /* \"#utility.yul\":6619:6632   */\n      iszero\n        /* \"#utility.yul\":6612:6633   */\n      iszero\n        /* \"#utility.yul\":6605:6610   */\n      dup2\n        /* \"#utility.yul\":6602:6634   */\n      eq\n        /* \"#utility.yul\":6592:6652   */\n      tag_164\n      jumpi\n        /* \"#utility.yul\":6648:6649   */\n      0x00\n        /* \"#utility.yul\":6645:6646   */\n      dup1\n        /* \"#utility.yul\":6638:6650   */\n      revert\n        /* \"#utility.yul\":7863:8121   */\n    tag_193:\n        /* \"#utility.yul\":7935:7936   */\n      0x00\n        /* \"#utility.yul\":7945:8058   */\n    tag_247:\n        /* \"#utility.yul\":7959:7965   */\n      dup4\n        /* \"#utility.yul\":7956:7957   */\n      dup2\n        /* \"#utility.yul\":7953:7966   */\n      lt\n        /* \"#utility.yul\":7945:8058   */\n      iszero\n      tag_249\n      jumpi\n        /* \"#utility.yul\":8035:8046   */\n      dup2\n      dup2\n      add\n        /* \"#utility.yul\":8029:8047   */\n      mload\n        /* \"#utility.yul\":8016:8027   */\n      dup4\n      dup3\n      add\n        /* \"#utility.yul\":8009:8048   */\n      mstore\n        /* \"#utility.yul\":7981:7983   */\n      0x20\n        /* \"#utility.yul\":7974:7984   */\n      add\n        /* \"#utility.yul\":7945:8058   */\n      jump(tag_247)\n    tag_249:\n        /* \"#utility.yul\":8076:8082   */\n      dup4\n        /* \"#utility.yul\":8073:8074   */\n      dup2\n        /* \"#utility.yul\":8070:8083   */\n      gt\n        /* \"#utility.yul\":8067:8115   */\n      iszero\n      tag_250\n      jumpi\n        /* \"#utility.yul\":8111:8112   */\n      0x00\n        /* \"#utility.yul\":8102:8108   */\n      dup5\n        /* \"#utility.yul\":8097:8100   */\n      dup5\n        /* \"#utility.yul\":8093:8109   */\n      add\n        /* \"#utility.yul\":8086:8113   */\n      mstore\n        /* \"#utility.yul\":8067:8115   */\n    tag_250:\n      pop\n        /* \"#utility.yul\":7863:8121   */\n      pop\n      pop\n      pop\n      jump\t// out\n        /* \"#utility.yul\":8126:8400   */\n    tag_177:\n        /* \"#utility.yul\":8255:8258   */\n      0x00\n        /* \"#utility.yul\":8293:8299   */\n      dup3\n        /* \"#utility.yul\":8287:8300   */\n      mload\n        /* \"#utility.yul\":8309:8362   */\n      tag_252\n        /* \"#utility.yul\":8355:8361   */\n      dup2\n        /* \"#utility.yul\":8350:8353   */\n      dup5\n        /* \"#utility.yul\":8343:8347   */\n      0x20\n        /* \"#utility.yul\":8335:8341   */\n      dup8\n        /* \"#utility.yul\":8331:8348   */\n      add\n        /* \"#utility.yul\":8309:8362   */\n      tag_193\n      jump\t// in\n    tag_252:\n        /* \"#utility.yul\":8378:8394   */\n      swap2\n      swap1\n      swap2\n      add\n      swap3\n        /* \"#utility.yul\":8126:8400   */\n      swap2\n      pop\n      pop\n      jump\t// out\n        /* \"#utility.yul\":8405:8788   */\n    tag_190:\n        /* \"#utility.yul\":8554:8556   */\n      0x20\n        /* \"#utility.yul\":8543:8552   */\n      dup2\n        /* \"#utility.yul\":8536:8557   */\n      mstore\n        /* \"#utility.yul\":8517:8521   */\n      0x00\n        /* \"#utility.yul\":8586:8592   */\n      dup3\n        /* \"#utility.yul\":8580:8593   */\n      mload\n        /* \"#utility.yul\":8629:8635   */\n      dup1\n        /* \"#utility.yul\":8624:8626   */\n      0x20\n        /* \"#utility.yul\":8613:8622   */\n      dup5\n        /* \"#utility.yul\":8609:8627   */\n      add\n        /* \"#utility.yul\":8602:8636   */\n      mstore\n        /* \"#utility.yul\":8645:8711   */\n      tag_254\n        /* \"#utility.yul\":8704:8710   */\n      dup2\n        /* \"#utility.yul\":8699:8701   */\n      0x40\n        /* \"#utility.yul\":8688:8697   */\n      dup6\n        /* \"#utility.yul\":8684:8702   */\n      add\n        /* \"#utility.yul\":8679:8681   */\n      0x20\n        /* \"#utility.yul\":8671:8677   */\n      dup8\n        /* \"#utility.yul\":8667:8682   */\n      add\n        /* \"#utility.yul\":8645:8711   */\n      tag_193\n      jump\t// in\n    tag_254:\n        /* \"#utility.yul\":8772:8774   */\n      0x1f\n        /* \"#utility.yul\":8751:8766   */\n      add\n      not(0x1f)\n        /* \"#utility.yul\":8747:8776   */\n      and\n        /* \"#utility.yul\":8732:8777   */\n      swap2\n      swap1\n      swap2\n      add\n        /* \"#utility.yul\":8779:8781   */\n      0x40\n        /* \"#utility.yul\":8728:8782   */\n      add\n      swap3\n        /* \"#utility.yul\":8405:8788   */\n      swap2\n      pop\n      pop\n      jump\t// out\n\n    auxdata: 0xa2646970667358221220eadb173070837c4d618b2ebedc2d5b4f5094ba18ba56590ad94f498005df4acd64736f6c634300080d0033\n}\n",
    "bytecode": {
      "linkReferences": {},
      "object": "60c0604052620186a060015534801561001757600080fd5b5060405161112d38038061112d8339810160408190526100369161006a565b60016000556001600160a01b0391821660a052166080526100a4565b6001600160a01b038116811461006757600080fd5b50565b6000806040838503121561007d57600080fd5b825161008881610052565b602084015190925061009981610052565b809150509250929050565b60805160a0516110496100e46000396000818160d80152818161048801528181610890015261097301526000818161019c015261059f01526110496000f3fe608060405234801561001057600080fd5b50600436106100885760003560e01c80639168ae721161005b5780639168ae7214610112578063940670451461015b578063a694fc3a14610184578063d1af0c7d1461019757600080fd5b80632e1a7d4d1461008d578063372500ab146100a257806363c28db1146100aa5780636588103b146100d3575b600080fd5b6100a061009b366004610dd0565b6101be565b005b6100a0610502565b6100bd6100b8366004610dfe565b6105d1565b6040516100ca9190610e1b565b60405180910390f35b6100fa7f000000000000000000000000000000000000000000000000000000000000000081565b6040516001600160a01b0390911681526020016100ca565b610140610120366004610dfe565b600260208190526000918252604090912080549181015460039091015483565b604080519384526020840192909252908201526060016100ca565b6100fa610169366004610dd0565b6003602052600090815260409020546001600160a01b031681565b6100a0610192366004610dd0565b6107cb565b6100fa7f000000000000000000000000000000000000000000000000000000000000000081565b6002600054036102155760405162461bcd60e51b815260206004820152601f60248201527f5265656e7472616e637947756172643a207265656e7472616e742063616c6c0060448201526064015b60405180910390fd5b6002600081815533815260209190915260409020546102765760405162461bcd60e51b815260206004820152601960248201527f596f752068617665206e6f20746f6b656e73207374616b656400000000000000604482015260640161020c565b6000818152600360205260409020546001600160a01b031633146102dc5760405162461bcd60e51b815260206004820152601960248201527f596f7520646f6e2774206f776e207468697320746f6b656e2100000000000000604482015260640161020c565b60006102e733610a8c565b3360009081526002602052604081206003018054929350839290919061030e908490610e89565b9091555060009050805b336000908152600260205260409020600101548110156103d35733600090815260026020526040902060010180548591908390811061035957610359610ea1565b9060005260206000209060020201600101541480156103b4575033600090815260026020526040812060010180548390811061039757610397610ea1565b60009182526020909120600290910201546001600160a01b031614155b156103c1578091506103d3565b806103cb81610eb7565b915050610318565b503360009081526002602052604081206001018054839081106103f8576103f8610ea1565b6000918252602080832060029283020180546001600160a01b0319166001600160a01b0395909516949094179093553382529091526040812080549161043d83610ed0565b90915550506000838152600360205260409081902080546001600160a01b0319169055516323b872dd60e01b8152306004820152336024820152604481018490526001600160a01b037f000000000000000000000000000000000000000000000000000000000000000016906323b872dd90606401600060405180830381600087803b1580156104cc57600080fd5b505af11580156104e0573d6000803e3d6000fd5b5050336000908152600260208190526040822042910155600190555050505050565b33600081815260026020526040812060030154909161052090610a8c565b61052a9190610e89565b90506000811161057c5760405162461bcd60e51b815260206004820152601c60248201527f596f752068617665206e6f207265776172647320746f20636c61696d00000000604482015260640161020c565b33600081815260026020819052604082204291810191909155600301556105ce907f00000000000000000000000000000000000000000000000000000000000000006001600160a01b03169083610ae5565b50565b6001600160a01b03811660009081526002602052604090205460609015610787576001600160a01b03821660009081526002602052604081205467ffffffffffffffff81111561062357610623610ee7565b60405190808252806020026020018201604052801561066857816020015b60408051808201909152600080825260208201528152602001906001900390816106415790505b5090506000805b6001600160a01b03851660009081526002602052604090206001015481101561077e576001600160a01b03851660009081526002602052604081206001018054839081106106bf576106bf610ea1565b60009182526020909120600290910201546001600160a01b03161461076c576001600160a01b038516600090815260026020526040902060010180548290811061070b5761070b610ea1565b60009182526020918290206040805180820190915260029092020180546001600160a01b031682526001015491810191909152835184908490811061075257610752610ea1565b6020026020010181905250818061076890610eb7565b9250505b8061077681610eb7565b91505061066f565b50909392505050565b60408051600080825260208201909252906107c4565b604080518082019091526000808252602082015281526020019060019003908161079d5790505b5092915050565b60026000540361081d5760405162461bcd60e51b815260206004820152601f60248201527f5265656e7472616e637947756172643a207265656e7472616e742063616c6c00604482015260640161020c565b6002600081815533815260209190915260409020541561087057600061084233610a8c565b33600090815260026020526040812060030180549293508392909190610869908490610e89565b9091555050505b6040516331a9108f60e11b81526004810182905233906001600160a01b037f00000000000000000000000000000000000000000000000000000000000000001690636352211e90602401602060405180830381865afa1580156108d7573d6000803e3d6000fd5b505050506040513d601f19601f820116820180604052508101906108fb9190610efd565b6001600160a01b0316146109515760405162461bcd60e51b815260206004820152601960248201527f596f7520646f6e2774206f776e207468697320746f6b656e2100000000000000604482015260640161020c565b6040516323b872dd60e01b8152336004820152306024820152604481018290527f00000000000000000000000000000000000000000000000000000000000000006001600160a01b0316906323b872dd90606401600060405180830381600087803b1580156109bf57600080fd5b505af11580156109d3573d6000803e3d6000fd5b50506040805180820182523380825260208083018781526000838152600280845295812060018082018054808301825590845294832087519590980290970180546001600160a01b0319166001600160a01b0390951694909417845591519290950191909155908352805491945090925090610a4e83610eb7565b909155505050600090815260036020908152604080832080546001600160a01b03191633908117909155835260029182905282204291015560019055565b6001546001600160a01b0382166000908152600260208190526040822080549101549192610e1092909190610ac19042610f1a565b610acb9190610f31565b610ad59190610f31565b610adf9190610f50565b92915050565b604080516001600160a01b038416602482015260448082018490528251808303909101815260649091019091526020810180517bffffffffffffffffffffffffffffffffffffffffffffffffffffffff1663a9059cbb60e01b179052610b4c908490610b51565b505050565b6000610ba6826040518060400160405280602081526020017f5361666545524332303a206c6f772d6c6576656c2063616c6c206661696c6564815250856001600160a01b0316610c369092919063ffffffff16565b805190915015610b4c5780806020019051810190610bc49190610f72565b610b4c5760405162461bcd60e51b815260206004820152602a60248201527f5361666545524332303a204552433230206f7065726174696f6e20646964206e60448201527f6f74207375636365656400000000000000000000000000000000000000000000606482015260840161020c565b6060610c458484600085610c4f565b90505b9392505050565b606082471015610cc75760405162461bcd60e51b815260206004820152602660248201527f416464726573733a20696e73756666696369656e742062616c616e636520666f60448201527f722063616c6c0000000000000000000000000000000000000000000000000000606482015260840161020c565b6001600160a01b0385163b610d1e5760405162461bcd60e51b815260206004820152601d60248201527f416464726573733a2063616c6c20746f206e6f6e2d636f6e7472616374000000604482015260640161020c565b600080866001600160a01b03168587604051610d3a9190610fc4565b60006040518083038185875af1925050503d8060008114610d77576040519150601f19603f3d011682016040523d82523d6000602084013e610d7c565b606091505b5091509150610d8c828286610d97565b979650505050505050565b60608315610da6575081610c48565b825115610db65782518084602001fd5b8160405162461bcd60e51b815260040161020c9190610fe0565b600060208284031215610de257600080fd5b5035919050565b6001600160a01b03811681146105ce57600080fd5b600060208284031215610e1057600080fd5b8135610c4881610de9565b602080825282518282018190526000919060409081850190868401855b82811015610e6657815180516001600160a01b03168552860151868501529284019290850190600101610e38565b5091979650505050505050565b634e487b7160e01b600052601160045260246000fd5b60008219821115610e9c57610e9c610e73565b500190565b634e487b7160e01b600052603260045260246000fd5b600060018201610ec957610ec9610e73565b5060010190565b600081610edf57610edf610e73565b506000190190565b634e487b7160e01b600052604160045260246000fd5b600060208284031215610f0f57600080fd5b8151610c4881610de9565b600082821015610f2c57610f2c610e73565b500390565b6000816000190483118215151615610f4b57610f4b610e73565b500290565b600082610f6d57634e487b7160e01b600052601260045260246000fd5b500490565b600060208284031215610f8457600080fd5b81518015158114610c4857600080fd5b60005b83811015610faf578181015183820152602001610f97565b83811115610fbe576000848401525b50505050565b60008251610fd6818460208701610f94565b9190910192915050565b6020815260008251806020840152610fff816040850160208701610f94565b601f01601f1916919091016040019291505056fea2646970667358221220eadb173070837c4d618b2ebedc2d5b4f5094ba18ba56590ad94f498005df4acd64736f6c634300080d0033",
      "opcodes": "PUSH1 0xC0 PUSH1 0x40 MSTORE PUSH3 0x186A0 PUSH1 0x1 SSTORE CALLVALUE DUP1 ISZERO PUSH2 0x17 JUMPI PUSH1 0x0 DUP1 REVERT JUMPDEST POP PUSH1 0x40 MLOAD PUSH2 0x112D CODESIZE SUB DUP1 PUSH2 0x112D DUP4 CODECOPY DUP2 ADD PUSH1 0x40 DUP2 SWAP1 MSTORE PUSH2 0x36 SWAP2 PUSH2 0x6A JUMP JUMPDEST PUSH1 0x1 PUSH1 0x0 SSTORE PUSH1 0x1 PUSH1 0x1 PUSH1 0xA0 SHL SUB SWAP2 DUP3 AND PUSH1 0xA0 MSTORE AND PUSH1 0x80 MSTORE PUSH2 0xA4 JUMP JUMPDEST PUSH1 0x1 PUSH1 0x1 PUSH1 0xA0 SHL SUB DUP2 AND DUP2 EQ PUSH2 0x67 JUMPI PUSH1 0x0 DUP1 REVERT JUMPDEST POP JUMP JUMPDEST PUSH1 0x0 DUP1 PUSH1 0x40 DUP4 DUP6 SUB SLT ISZERO PUSH2 0x7D JUMPI PUSH1 0x0 DUP1 REVERT JUMPDEST DUP3 MLOAD PUSH2 0x88 DUP2 PUSH2 0x52 JUMP JUMPDEST PUSH1 0x20 DUP5 ADD MLOAD SWAP1 SWAP3 POP PUSH2 0x99 DUP2 PUSH2 0x52 JUMP JUMPDEST DUP1 SWAP2 POP POP SWAP3 POP SWAP3 SWAP1 POP JUMP JUMPDEST PUSH1 0x80 MLOAD PUSH1 0xA0 MLOAD PUSH2 0x1049 PUSH2 0xE4 PUSH1 0x0 CODECOPY PUSH1 0x0 DUP2 DUP2 PUSH1 0xD8 ADD MSTORE DUP2 DUP2 PUSH2 0x488 ADD MSTORE DUP2 DUP2 PUSH2 0x890 ADD MSTORE PUSH2 0x973 ADD MSTORE PUSH1 0x0 DUP2 DUP2 PUSH2 0x19C ADD MSTORE PUSH2 0x59F ADD MSTORE PUSH2 0x1049 PUSH1 0x0 RETURN INVALID PUSH1 0x80 PUSH1 0x40 MSTORE CALLVALUE DUP1 ISZERO PUSH2 0x10 JUMPI PUSH1 0x0 DUP1 REVERT JUMPDEST POP PUSH1 0x4 CALLDATASIZE LT PUSH2 0x88 JUMPI PUSH1 0x0 CALLDATALOAD PUSH1 0xE0 SHR DUP1 PUSH4 0x9168AE72 GT PUSH2 0x5B JUMPI DUP1 PUSH4 0x9168AE72 EQ PUSH2 0x112 JUMPI DUP1 PUSH4 0x94067045 EQ PUSH2 0x15B JUMPI DUP1 PUSH4 0xA694FC3A EQ PUSH2 0x184 JUMPI DUP1 PUSH4 0xD1AF0C7D EQ PUSH2 0x197 JUMPI PUSH1 0x0 DUP1 REVERT JUMPDEST DUP1 PUSH4 0x2E1A7D4D EQ PUSH2 0x8D JUMPI DUP1 PUSH4 0x372500AB EQ PUSH2 0xA2 JUMPI DUP1 PUSH4 0x63C28DB1 EQ PUSH2 0xAA JUMPI DUP1 PUSH4 0x6588103B EQ PUSH2 0xD3 JUMPI JUMPDEST PUSH1 0x0 DUP1 REVERT JUMPDEST PUSH2 0xA0 PUSH2 0x9B CALLDATASIZE PUSH1 0x4 PUSH2 0xDD0 JUMP JUMPDEST PUSH2 0x1BE JUMP JUMPDEST STOP JUMPDEST PUSH2 0xA0 PUSH2 0x502 JUMP JUMPDEST PUSH2 0xBD PUSH2 0xB8 CALLDATASIZE PUSH1 0x4 PUSH2 0xDFE JUMP JUMPDEST PUSH2 0x5D1 JUMP JUMPDEST PUSH1 0x40 MLOAD PUSH2 0xCA SWAP2 SWAP1 PUSH2 0xE1B JUMP JUMPDEST PUSH1 0x40 MLOAD DUP1 SWAP2 SUB SWAP1 RETURN JUMPDEST PUSH2 0xFA PUSH32 0x0 DUP2 JUMP JUMPDEST PUSH1 0x40 MLOAD PUSH1 0x1 PUSH1 0x1 PUSH1 0xA0 SHL SUB SWAP1 SWAP2 AND DUP2 MSTORE PUSH1 0x20 ADD PUSH2 0xCA JUMP JUMPDEST PUSH2 0x140 PUSH2 0x120 CALLDATASIZE PUSH1 0x4 PUSH2 0xDFE JUMP JUMPDEST PUSH1 0x2 PUSH1 0x20 DUP2 SWAP1 MSTORE PUSH1 0x0 SWAP2 DUP3 MSTORE PUSH1 0x40 SWAP1 SWAP2 KECCAK256 DUP1 SLOAD SWAP2 DUP2 ADD SLOAD PUSH1 0x3 SWAP1 SWAP2 ADD SLOAD DUP4 JUMP JUMPDEST PUSH1 0x40 DUP1 MLOAD SWAP4 DUP5 MSTORE PUSH1 0x20 DUP5 ADD SWAP3 SWAP1 SWAP3 MSTORE SWAP1 DUP3 ADD MSTORE PUSH1 0x60 ADD PUSH2 0xCA JUMP JUMPDEST PUSH2 0xFA PUSH2 0x169 CALLDATASIZE PUSH1 0x4 PUSH2 0xDD0 JUMP JUMPDEST PUSH1 0x3 PUSH1 0x20 MSTORE PUSH1 0x0 SWAP1 DUP2 MSTORE PUSH1 0x40 SWAP1 KECCAK256 SLOAD PUSH1 0x1 PUSH1 0x1 PUSH1 0xA0 SHL SUB AND DUP2 JUMP JUMPDEST PUSH2 0xA0 PUSH2 0x192 CALLDATASIZE PUSH1 0x4 PUSH2 0xDD0 JUMP JUMPDEST PUSH2 0x7CB JUMP JUMPDEST PUSH2 0xFA PUSH32 0x0 DUP2 JUMP JUMPDEST PUSH1 0x2 PUSH1 0x0 SLOAD SUB PUSH2 0x215 JUMPI PUSH1 0x40 MLOAD PUSH3 0x461BCD PUSH1 0xE5 SHL DUP2 MSTORE PUSH1 0x20 PUSH1 0x4 DUP3 ADD MSTORE PUSH1 0x1F PUSH1 0x24 DUP3 ADD MSTORE PUSH32 0x5265656E7472616E637947756172643A207265656E7472616E742063616C6C00 PUSH1 0x44 DUP3 ADD MSTORE PUSH1 0x64 ADD JUMPDEST PUSH1 0x40 MLOAD DUP1 SWAP2 SUB SWAP1 REVERT JUMPDEST PUSH1 0x2 PUSH1 0x0 DUP2 DUP2 SSTORE CALLER DUP2 MSTORE PUSH1 0x20 SWAP2 SWAP1 SWAP2 MSTORE PUSH1 0x40 SWAP1 KECCAK256 SLOAD PUSH2 0x276 JUMPI PUSH1 0x40 MLOAD PUSH3 0x461BCD PUSH1 0xE5 SHL DUP2 MSTORE PUSH1 0x20 PUSH1 0x4 DUP3 ADD MSTORE PUSH1 0x19 PUSH1 0x24 DUP3 ADD MSTORE PUSH32 0x596F752068617665206E6F20746F6B656E73207374616B656400000000000000 PUSH1 0x44 DUP3 ADD MSTORE PUSH1 0x64 ADD PUSH2 0x20C JUMP JUMPDEST PUSH1 0x0 DUP2 DUP2 MSTORE PUSH1 0x3 PUSH1 0x20 MSTORE PUSH1 0x40 SWAP1 KECCAK256 SLOAD PUSH1 0x1 PUSH1 0x1 PUSH1 0xA0 SHL SUB AND CALLER EQ PUSH2 0x2DC JUMPI PUSH1 0x40 MLOAD PUSH3 0x461BCD PUSH1 0xE5 SHL DUP2 MSTORE PUSH1 0x20 PUSH1 0x4 DUP3 ADD MSTORE PUSH1 0x19 PUSH1 0x24 DUP3 ADD MSTORE PUSH32 0x596F7520646F6E2774206F776E207468697320746F6B656E2100000000000000 PUSH1 0x44 DUP3 ADD MSTORE PUSH1 0x64 ADD PUSH2 0x20C JUMP JUMPDEST PUSH1 0x0 PUSH2 0x2E7 CALLER PUSH2 0xA8C JUMP JUMPDEST CALLER PUSH1 0x0 SWAP1 DUP2 MSTORE PUSH1 0x2 PUSH1 0x20 MSTORE PUSH1 0x40 DUP2 KECCAK256 PUSH1 0x3 ADD DUP1 SLOAD SWAP3 SWAP4 POP DUP4 SWAP3 SWAP1 SWAP2 SWAP1 PUSH2 0x30E SWAP1 DUP5 SWAP1 PUSH2 0xE89 JUMP JUMPDEST SWAP1 SWAP2 SSTORE POP PUSH1 0x0 SWAP1 POP DUP1 JUMPDEST CALLER PUSH1 0x0 SWAP1 DUP2 MSTORE PUSH1 0x2 PUSH1 0x20 MSTORE PUSH1 0x40 SWAP1 KECCAK256 PUSH1 0x1 ADD SLOAD DUP2 LT ISZERO PUSH2 0x3D3 JUMPI CALLER PUSH1 0x0 SWAP1 DUP2 MSTORE PUSH1 0x2 PUSH1 0x20 MSTORE PUSH1 0x40 SWAP1 KECCAK256 PUSH1 0x1 ADD DUP1 SLOAD DUP6 SWAP2 SWAP1 DUP4 SWAP1 DUP2 LT PUSH2 0x359 JUMPI PUSH2 0x359 PUSH2 0xEA1 JUMP JUMPDEST SWAP1 PUSH1 0x0 MSTORE PUSH1 0x20 PUSH1 0x0 KECCAK256 SWAP1 PUSH1 0x2 MUL ADD PUSH1 0x1 ADD SLOAD EQ DUP1 ISZERO PUSH2 0x3B4 JUMPI POP CALLER PUSH1 0x0 SWAP1 DUP2 MSTORE PUSH1 0x2 PUSH1 0x20 MSTORE PUSH1 0x40 DUP2 KECCAK256 PUSH1 0x1 ADD DUP1 SLOAD DUP4 SWAP1 DUP2 LT PUSH2 0x397 JUMPI PUSH2 0x397 PUSH2 0xEA1 JUMP JUMPDEST PUSH1 0x0 SWAP2 DUP3 MSTORE PUSH1 0x20 SWAP1 SWAP2 KECCAK256 PUSH1 0x2 SWAP1 SWAP2 MUL ADD SLOAD PUSH1 0x1 PUSH1 0x1 PUSH1 0xA0 SHL SUB AND EQ ISZERO JUMPDEST ISZERO PUSH2 0x3C1 JUMPI DUP1 SWAP2 POP PUSH2 0x3D3 JUMP JUMPDEST DUP1 PUSH2 0x3CB DUP2 PUSH2 0xEB7 JUMP JUMPDEST SWAP2 POP POP PUSH2 0x318 JUMP JUMPDEST POP CALLER PUSH1 0x0 SWAP1 DUP2 MSTORE PUSH1 0x2 PUSH1 0x20 MSTORE PUSH1 0x40 DUP2 KECCAK256 PUSH1 0x1 ADD DUP1 SLOAD DUP4 SWAP1 DUP2 LT PUSH2 0x3F8 JUMPI PUSH2 0x3F8 PUSH2 0xEA1 JUMP JUMPDEST PUSH1 0x0 SWAP2 DUP3 MSTORE PUSH1 0x20 DUP1 DUP4 KECCAK256 PUSH1 0x2 SWAP3 DUP4 MUL ADD DUP1 SLOAD PUSH1 0x1 PUSH1 0x1 PUSH1 0xA0 SHL SUB NOT AND PUSH1 0x1 PUSH1 0x1 PUSH1 0xA0 SHL SUB SWAP6 SWAP1 SWAP6 AND SWAP5 SWAP1 SWAP5 OR SWAP1 SWAP4 SSTORE CALLER DUP3 MSTORE SWAP1 SWAP2 MSTORE PUSH1 0x40 DUP2 KECCAK256 DUP1 SLOAD SWAP2 PUSH2 0x43D DUP4 PUSH2 0xED0 JUMP JUMPDEST SWAP1 SWAP2 SSTORE POP POP PUSH1 0x0 DUP4 DUP2 MSTORE PUSH1 0x3 PUSH1 0x20 MSTORE PUSH1 0x40 SWAP1 DUP2 SWAP1 KECCAK256 DUP1 SLOAD PUSH1 0x1 PUSH1 0x1 PUSH1 0xA0 SHL SUB NOT AND SWAP1 SSTORE MLOAD PUSH4 0x23B872DD PUSH1 0xE0 SHL DUP2 MSTORE ADDRESS PUSH1 0x4 DUP3 ADD MSTORE CALLER PUSH1 0x24 DUP3 ADD MSTORE PUSH1 0x44 DUP2 ADD DUP5 SWAP1 MSTORE PUSH1 0x1 PUSH1 0x1 PUSH1 0xA0 SHL SUB PUSH32 0x0 AND SWAP1 PUSH4 0x23B872DD SWAP1 PUSH1 0x64 ADD PUSH1 0x0 PUSH1 0x40 MLOAD DUP1 DUP4 SUB DUP2 PUSH1 0x0 DUP8 DUP1 EXTCODESIZE ISZERO DUP1 ISZERO PUSH2 0x4CC JUMPI PUSH1 0x0 DUP1 REVERT JUMPDEST POP GAS CALL ISZERO DUP1 ISZERO PUSH2 0x4E0 JUMPI RETURNDATASIZE PUSH1 0x0 DUP1 RETURNDATACOPY RETURNDATASIZE PUSH1 0x0 REVERT JUMPDEST POP POP CALLER PUSH1 0x0 SWAP1 DUP2 MSTORE PUSH1 0x2 PUSH1 0x20 DUP2 SWAP1 MSTORE PUSH1 0x40 DUP3 KECCAK256 TIMESTAMP SWAP2 ADD SSTORE PUSH1 0x1 SWAP1 SSTORE POP POP POP POP POP JUMP JUMPDEST CALLER PUSH1 0x0 DUP2 DUP2 MSTORE PUSH1 0x2 PUSH1 0x20 MSTORE PUSH1 0x40 DUP2 KECCAK256 PUSH1 0x3 ADD SLOAD SWAP1 SWAP2 PUSH2 0x520 SWAP1 PUSH2 0xA8C JUMP JUMPDEST PUSH2 0x52A SWAP2 SWAP1 PUSH2 0xE89 JUMP JUMPDEST SWAP1 POP PUSH1 0x0 DUP2 GT PUSH2 0x57C JUMPI PUSH1 0x40 MLOAD PUSH3 0x461BCD PUSH1 0xE5 SHL DUP2 MSTORE PUSH1 0x20 PUSH1 0x4 DUP3 ADD MSTORE PUSH1 0x1C PUSH1 0x24 DUP3 ADD MSTORE PUSH32 0x596F752068617665206E6F207265776172647320746F20636C61696D00000000 PUSH1 0x44 DUP3 ADD MSTORE PUSH1 0x64 ADD PUSH2 0x20C JUMP JUMPDEST CALLER PUSH1 0x0 DUP2 DUP2 MSTORE PUSH1 0x2 PUSH1 0x20 DUP2 SWAP1 MSTORE PUSH1 0x40 DUP3 KECCAK256 TIMESTAMP SWAP2 DUP2 ADD SWAP2 SWAP1 SWAP2 SSTORE PUSH1 0x3 ADD SSTORE PUSH2 0x5CE SWAP1 PUSH32 0x0 PUSH1 0x1 PUSH1 0x1 PUSH1 0xA0 SHL SUB AND SWAP1 DUP4 PUSH2 0xAE5 JUMP JUMPDEST POP JUMP JUMPDEST PUSH1 0x1 PUSH1 0x1 PUSH1 0xA0 SHL SUB DUP2 AND PUSH1 0x0 SWAP1 DUP2 MSTORE PUSH1 0x2 PUSH1 0x20 MSTORE PUSH1 0x40 SWAP1 KECCAK256 SLOAD PUSH1 0x60 SWAP1 ISZERO PUSH2 0x787 JUMPI PUSH1 0x1 PUSH1 0x1 PUSH1 0xA0 SHL SUB DUP3 AND PUSH1 0x0 SWAP1 DUP2 MSTORE PUSH1 0x2 PUSH1 0x20 MSTORE PUSH1 0x40 DUP2 KECCAK256 SLOAD PUSH8 0xFFFFFFFFFFFFFFFF DUP2 GT ISZERO PUSH2 0x623 JUMPI PUSH2 0x623 PUSH2 0xEE7 JUMP JUMPDEST PUSH1 0x40 MLOAD SWAP1 DUP1 DUP3 MSTORE DUP1 PUSH1 0x20 MUL PUSH1 0x20 ADD DUP3 ADD PUSH1 0x40 MSTORE DUP1 ISZERO PUSH2 0x668 JUMPI DUP2 PUSH1 0x20 ADD JUMPDEST PUSH1 0x40 DUP1 MLOAD DUP1 DUP3 ADD SWAP1 SWAP2 MSTORE PUSH1 0x0 DUP1 DUP3 MSTORE PUSH1 0x20 DUP3 ADD MSTORE DUP2 MSTORE PUSH1 0x20 ADD SWAP1 PUSH1 0x1 SWAP1 SUB SWAP1 DUP2 PUSH2 0x641 JUMPI SWAP1 POP JUMPDEST POP SWAP1 POP PUSH1 0x0 DUP1 JUMPDEST PUSH1 0x1 PUSH1 0x1 PUSH1 0xA0 SHL SUB DUP6 AND PUSH1 0x0 SWAP1 DUP2 MSTORE PUSH1 0x2 PUSH1 0x20 MSTORE PUSH1 0x40 SWAP1 KECCAK256 PUSH1 0x1 ADD SLOAD DUP2 LT ISZERO PUSH2 0x77E JUMPI PUSH1 0x1 PUSH1 0x1 PUSH1 0xA0 SHL SUB DUP6 AND PUSH1 0x0 SWAP1 DUP2 MSTORE PUSH1 0x2 PUSH1 0x20 MSTORE PUSH1 0x40 DUP2 KECCAK256 PUSH1 0x1 ADD DUP1 SLOAD DUP4 SWAP1 DUP2 LT PUSH2 0x6BF JUMPI PUSH2 0x6BF PUSH2 0xEA1 JUMP JUMPDEST PUSH1 0x0 SWAP2 DUP3 MSTORE PUSH1 0x20 SWAP1 SWAP2 KECCAK256 PUSH1 0x2 SWAP1 SWAP2 MUL ADD SLOAD PUSH1 0x1 PUSH1 0x1 PUSH1 0xA0 SHL SUB AND EQ PUSH2 0x76C JUMPI PUSH1 0x1 PUSH1 0x1 PUSH1 0xA0 SHL SUB DUP6 AND PUSH1 0x0 SWAP1 DUP2 MSTORE PUSH1 0x2 PUSH1 0x20 MSTORE PUSH1 0x40 SWAP1 KECCAK256 PUSH1 0x1 ADD DUP1 SLOAD DUP3 SWAP1 DUP2 LT PUSH2 0x70B JUMPI PUSH2 0x70B PUSH2 0xEA1 JUMP JUMPDEST PUSH1 0x0 SWAP2 DUP3 MSTORE PUSH1 0x20 SWAP2 DUP3 SWAP1 KECCAK256 PUSH1 0x40 DUP1 MLOAD DUP1 DUP3 ADD SWAP1 SWAP2 MSTORE PUSH1 0x2 SWAP1 SWAP3 MUL ADD DUP1 SLOAD PUSH1 0x1 PUSH1 0x1 PUSH1 0xA0 SHL SUB AND DUP3 MSTORE PUSH1 0x1 ADD SLOAD SWAP2 DUP2 ADD SWAP2 SWAP1 SWAP2 MSTORE DUP4 MLOAD DUP5 SWAP1 DUP5 SWAP1 DUP2 LT PUSH2 0x752 JUMPI PUSH2 0x752 PUSH2 0xEA1 JUMP JUMPDEST PUSH1 0x20 MUL PUSH1 0x20 ADD ADD DUP2 SWAP1 MSTORE POP DUP2 DUP1 PUSH2 0x768 SWAP1 PUSH2 0xEB7 JUMP JUMPDEST SWAP3 POP POP JUMPDEST DUP1 PUSH2 0x776 DUP2 PUSH2 0xEB7 JUMP JUMPDEST SWAP2 POP POP PUSH2 0x66F JUMP JUMPDEST POP SWAP1 SWAP4 SWAP3 POP POP POP JUMP JUMPDEST PUSH1 0x40 DUP1 MLOAD PUSH1 0x0 DUP1 DUP3 MSTORE PUSH1 0x20 DUP3 ADD SWAP1 SWAP3 MSTORE SWAP1 PUSH2 0x7C4 JUMP JUMPDEST PUSH1 0x40 DUP1 MLOAD DUP1 DUP3 ADD SWAP1 SWAP2 MSTORE PUSH1 0x0 DUP1 DUP3 MSTORE PUSH1 0x20 DUP3 ADD MSTORE DUP2 MSTORE PUSH1 0x20 ADD SWAP1 PUSH1 0x1 SWAP1 SUB SWAP1 DUP2 PUSH2 0x79D JUMPI SWAP1 POP JUMPDEST POP SWAP3 SWAP2 POP POP JUMP JUMPDEST PUSH1 0x2 PUSH1 0x0 SLOAD SUB PUSH2 0x81D JUMPI PUSH1 0x40 MLOAD PUSH3 0x461BCD PUSH1 0xE5 SHL DUP2 MSTORE PUSH1 0x20 PUSH1 0x4 DUP3 ADD MSTORE PUSH1 0x1F PUSH1 0x24 DUP3 ADD MSTORE PUSH32 0x5265656E7472616E637947756172643A207265656E7472616E742063616C6C00 PUSH1 0x44 DUP3 ADD MSTORE PUSH1 0x64 ADD PUSH2 0x20C JUMP JUMPDEST PUSH1 0x2 PUSH1 0x0 DUP2 DUP2 SSTORE CALLER DUP2 MSTORE PUSH1 0x20 SWAP2 SWAP1 SWAP2 MSTORE PUSH1 0x40 SWAP1 KECCAK256 SLOAD ISZERO PUSH2 0x870 JUMPI PUSH1 0x0 PUSH2 0x842 CALLER PUSH2 0xA8C JUMP JUMPDEST CALLER PUSH1 0x0 SWAP1 DUP2 MSTORE PUSH1 0x2 PUSH1 0x20 MSTORE PUSH1 0x40 DUP2 KECCAK256 PUSH1 0x3 ADD DUP1 SLOAD SWAP3 SWAP4 POP DUP4 SWAP3 SWAP1 SWAP2 SWAP1 PUSH2 0x869 SWAP1 DUP5 SWAP1 PUSH2 0xE89 JUMP JUMPDEST SWAP1 SWAP2 SSTORE POP POP POP JUMPDEST PUSH1 0x40 MLOAD PUSH4 0x31A9108F PUSH1 0xE1 SHL DUP2 MSTORE PUSH1 0x4 DUP2 ADD DUP3 SWAP1 MSTORE CALLER SWAP1 PUSH1 0x1 PUSH1 0x1 PUSH1 0xA0 SHL SUB PUSH32 0x0 AND SWAP1 PUSH4 0x6352211E SWAP1 PUSH1 0x24 ADD PUSH1 0x20 PUSH1 0x40 MLOAD DUP1 DUP4 SUB DUP2 DUP7 GAS STATICCALL ISZERO DUP1 ISZERO PUSH2 0x8D7 JUMPI RETURNDATASIZE PUSH1 0x0 DUP1 RETURNDATACOPY RETURNDATASIZE PUSH1 0x0 REVERT JUMPDEST POP POP POP POP PUSH1 0x40 MLOAD RETURNDATASIZE PUSH1 0x1F NOT PUSH1 0x1F DUP3 ADD AND DUP3 ADD DUP1 PUSH1 0x40 MSTORE POP DUP2 ADD SWAP1 PUSH2 0x8FB SWAP2 SWAP1 PUSH2 0xEFD JUMP JUMPDEST PUSH1 0x1 PUSH1 0x1 PUSH1 0xA0 SHL SUB AND EQ PUSH2 0x951 JUMPI PUSH1 0x40 MLOAD PUSH3 0x461BCD PUSH1 0xE5 SHL DUP2 MSTORE PUSH1 0x20 PUSH1 0x4 DUP3 ADD MSTORE PUSH1 0x19 PUSH1 0x24 DUP3 ADD MSTORE PUSH32 0x596F7520646F6E2774206F776E207468697320746F6B656E2100000000000000 PUSH1 0x44 DUP3 ADD MSTORE PUSH1 0x64 ADD PUSH2 0x20C JUMP JUMPDEST PUSH1 0x40 MLOAD PUSH4 0x23B872DD PUSH1 0xE0 SHL DUP2 MSTORE CALLER PUSH1 0x4 DUP3 ADD MSTORE ADDRESS PUSH1 0x24 DUP3 ADD MSTORE PUSH1 0x44 DUP2 ADD DUP3 SWAP1 MSTORE PUSH32 0x0 PUSH1 0x1 PUSH1 0x1 PUSH1 0xA0 SHL SUB AND SWAP1 PUSH4 0x23B872DD SWAP1 PUSH1 0x64 ADD PUSH1 0x0 PUSH1 0x40 MLOAD DUP1 DUP4 SUB DUP2 PUSH1 0x0 DUP8 DUP1 EXTCODESIZE ISZERO DUP1 ISZERO PUSH2 0x9BF JUMPI PUSH1 0x0 DUP1 REVERT JUMPDEST POP GAS CALL ISZERO DUP1 ISZERO PUSH2 0x9D3 JUMPI RETURNDATASIZE PUSH1 0x0 DUP1 RETURNDATACOPY RETURNDATASIZE PUSH1 0x0 REVERT JUMPDEST POP POP PUSH1 0x40 DUP1 MLOAD DUP1 DUP3 ADD DUP3 MSTORE CALLER DUP1 DUP3 MSTORE PUSH1 0x20 DUP1 DUP4 ADD DUP8 DUP2 MSTORE PUSH1 0x0 DUP4 DUP2 MSTORE PUSH1 0x2 DUP1 DUP5 MSTORE SWAP6 DUP2 KECCAK256 PUSH1 0x1 DUP1 DUP3 ADD DUP1 SLOAD DUP1 DUP4 ADD DUP3 SSTORE SWAP1 DUP5 MSTORE SWAP5 DUP4 KECCAK256 DUP8 MLOAD SWAP6 SWAP1 SWAP9 MUL SWAP1 SWAP8 ADD DUP1 SLOAD PUSH1 0x1 PUSH1 0x1 PUSH1 0xA0 SHL SUB NOT AND PUSH1 0x1 PUSH1 0x1 PUSH1 0xA0 SHL SUB SWAP1 SWAP6 AND SWAP5 SWAP1 SWAP5 OR DUP5 SSTORE SWAP2 MLOAD SWAP3 SWAP1 SWAP6 ADD SWAP2 SWAP1 SWAP2 SSTORE SWAP1 DUP4 MSTORE DUP1 SLOAD SWAP2 SWAP5 POP SWAP1 SWAP3 POP SWAP1 PUSH2 0xA4E DUP4 PUSH2 0xEB7 JUMP JUMPDEST SWAP1 SWAP2 SSTORE POP POP POP PUSH1 0x0 SWAP1 DUP2 MSTORE PUSH1 0x3 PUSH1 0x20 SWAP1 DUP2 MSTORE PUSH1 0x40 DUP1 DUP4 KECCAK256 DUP1 SLOAD PUSH1 0x1 PUSH1 0x1 PUSH1 0xA0 SHL SUB NOT AND CALLER SWAP1 DUP2 OR SWAP1 SWAP2 SSTORE DUP4 MSTORE PUSH1 0x2 SWAP2 DUP3 SWAP1 MSTORE DUP3 KECCAK256 TIMESTAMP SWAP2 ADD SSTORE PUSH1 0x1 SWAP1 SSTORE JUMP JUMPDEST PUSH1 0x1 SLOAD PUSH1 0x1 PUSH1 0x1 PUSH1 0xA0 SHL SUB DUP3 AND PUSH1 0x0 SWAP1 DUP2 MSTORE PUSH1 0x2 PUSH1 0x20 DUP2 SWAP1 MSTORE PUSH1 0x40 DUP3 KECCAK256 DUP1 SLOAD SWAP2 ADD SLOAD SWAP2 SWAP3 PUSH2 0xE10 SWAP3 SWAP1 SWAP2 SWAP1 PUSH2 0xAC1 SWAP1 TIMESTAMP PUSH2 0xF1A JUMP JUMPDEST PUSH2 0xACB SWAP2 SWAP1 PUSH2 0xF31 JUMP JUMPDEST PUSH2 0xAD5 SWAP2 SWAP1 PUSH2 0xF31 JUMP JUMPDEST PUSH2 0xADF SWAP2 SWAP1 PUSH2 0xF50 JUMP JUMPDEST SWAP3 SWAP2 POP POP JUMP JUMPDEST PUSH1 0x40 DUP1 MLOAD PUSH1 0x1 PUSH1 0x1 PUSH1 0xA0 SHL SUB DUP5 AND PUSH1 0x24 DUP3 ADD MSTORE PUSH1 0x44 DUP1 DUP3 ADD DUP5 SWAP1 MSTORE DUP3 MLOAD DUP1 DUP4 SUB SWAP1 SWAP2 ADD DUP2 MSTORE PUSH1 0x64 SWAP1 SWAP2 ADD SWAP1 SWAP2 MSTORE PUSH1 0x20 DUP2 ADD DUP1 MLOAD PUSH28 0xFFFFFFFFFFFFFFFFFFFFFFFFFFFFFFFFFFFFFFFFFFFFFFFFFFFFFFFF AND PUSH4 0xA9059CBB PUSH1 0xE0 SHL OR SWAP1 MSTORE PUSH2 0xB4C SWAP1 DUP5 SWAP1 PUSH2 0xB51 JUMP JUMPDEST POP POP POP JUMP JUMPDEST PUSH1 0x0 PUSH2 0xBA6 DUP3 PUSH1 0x40 MLOAD DUP1 PUSH1 0x40 ADD PUSH1 0x40 MSTORE DUP1 PUSH1 0x20 DUP2 MSTORE PUSH1 0x20 ADD PUSH32 0x5361666545524332303A206C6F772D6C6576656C2063616C6C206661696C6564 DUP2 MSTORE POP DUP6 PUSH1 0x1 PUSH1 0x1 PUSH1 0xA0 SHL SUB AND PUSH2 0xC36 SWAP1 SWAP3 SWAP2 SWAP1 PUSH4 0xFFFFFFFF AND JUMP JUMPDEST DUP1 MLOAD SWAP1 SWAP2 POP ISZERO PUSH2 0xB4C JUMPI DUP1 DUP1 PUSH1 0x20 ADD SWAP1 MLOAD DUP2 ADD SWAP1 PUSH2 0xBC4 SWAP2 SWAP1 PUSH2 0xF72 JUMP JUMPDEST PUSH2 0xB4C JUMPI PUSH1 0x40 MLOAD PUSH3 0x461BCD PUSH1 0xE5 SHL DUP2 MSTORE PUSH1 0x20 PUSH1 0x4 DUP3 ADD MSTORE PUSH1 0x2A PUSH1 0x24 DUP3 ADD MSTORE PUSH32 0x5361666545524332303A204552433230206F7065726174696F6E20646964206E PUSH1 0x44 DUP3 ADD MSTORE PUSH32 0x6F74207375636365656400000000000000000000000000000000000000000000 PUSH1 0x64 DUP3 ADD MSTORE PUSH1 0x84 ADD PUSH2 0x20C JUMP JUMPDEST PUSH1 0x60 PUSH2 0xC45 DUP5 DUP5 PUSH1 0x0 DUP6 PUSH2 0xC4F JUMP JUMPDEST SWAP1 POP JUMPDEST SWAP4 SWAP3 POP POP POP JUMP JUMPDEST PUSH1 0x60 DUP3 SELFBALANCE LT ISZERO PUSH2 0xCC7 JUMPI PUSH1 0x40 MLOAD PUSH3 0x461BCD PUSH1 0xE5 SHL DUP2 MSTORE PUSH1 0x20 PUSH1 0x4 DUP3 ADD MSTORE PUSH1 0x26 PUSH1 0x24 DUP3 ADD MSTORE PUSH32 0x416464726573733A20696E73756666696369656E742062616C616E636520666F PUSH1 0x44 DUP3 ADD MSTORE PUSH32 0x722063616C6C0000000000000000000000000000000000000000000000000000 PUSH1 0x64 DUP3 ADD MSTORE PUSH1 0x84 ADD PUSH2 0x20C JUMP JUMPDEST PUSH1 0x1 PUSH1 0x1 PUSH1 0xA0 SHL SUB DUP6 AND EXTCODESIZE PUSH2 0xD1E JUMPI PUSH1 0x40 MLOAD PUSH3 0x461BCD PUSH1 0xE5 SHL DUP2 MSTORE PUSH1 0x20 PUSH1 0x4 DUP3 ADD MSTORE PUSH1 0x1D PUSH1 0x24 DUP3 ADD MSTORE PUSH32 0x416464726573733A2063616C6C20746F206E6F6E2D636F6E7472616374000000 PUSH1 0x44 DUP3 ADD MSTORE PUSH1 0x64 ADD PUSH2 0x20C JUMP JUMPDEST PUSH1 0x0 DUP1 DUP7 PUSH1 0x1 PUSH1 0x1 PUSH1 0xA0 SHL SUB AND DUP6 DUP8 PUSH1 0x40 MLOAD PUSH2 0xD3A SWAP2 SWAP1 PUSH2 0xFC4 JUMP JUMPDEST PUSH1 0x0 PUSH1 0x40 MLOAD DUP1 DUP4 SUB DUP2 DUP6 DUP8 GAS CALL SWAP3 POP POP POP RETURNDATASIZE DUP1 PUSH1 0x0 DUP2 EQ PUSH2 0xD77 JUMPI PUSH1 0x40 MLOAD SWAP2 POP PUSH1 0x1F NOT PUSH1 0x3F RETURNDATASIZE ADD AND DUP3 ADD PUSH1 0x40 MSTORE RETURNDATASIZE DUP3 MSTORE RETURNDATASIZE PUSH1 0x0 PUSH1 0x20 DUP5 ADD RETURNDATACOPY PUSH2 0xD7C JUMP JUMPDEST PUSH1 0x60 SWAP2 POP JUMPDEST POP SWAP2 POP SWAP2 POP PUSH2 0xD8C DUP3 DUP3 DUP7 PUSH2 0xD97 JUMP JUMPDEST SWAP8 SWAP7 POP POP POP POP POP POP POP JUMP JUMPDEST PUSH1 0x60 DUP4 ISZERO PUSH2 0xDA6 JUMPI POP DUP2 PUSH2 0xC48 JUMP JUMPDEST DUP3 MLOAD ISZERO PUSH2 0xDB6 JUMPI DUP3 MLOAD DUP1 DUP5 PUSH1 0x20 ADD REVERT JUMPDEST DUP2 PUSH1 0x40 MLOAD PUSH3 0x461BCD PUSH1 0xE5 SHL DUP2 MSTORE PUSH1 0x4 ADD PUSH2 0x20C SWAP2 SWAP1 PUSH2 0xFE0 JUMP JUMPDEST PUSH1 0x0 PUSH1 0x20 DUP3 DUP5 SUB SLT ISZERO PUSH2 0xDE2 JUMPI PUSH1 0x0 DUP1 REVERT JUMPDEST POP CALLDATALOAD SWAP2 SWAP1 POP JUMP JUMPDEST PUSH1 0x1 PUSH1 0x1 PUSH1 0xA0 SHL SUB DUP2 AND DUP2 EQ PUSH2 0x5CE JUMPI PUSH1 0x0 DUP1 REVERT JUMPDEST PUSH1 0x0 PUSH1 0x20 DUP3 DUP5 SUB SLT ISZERO PUSH2 0xE10 JUMPI PUSH1 0x0 DUP1 REVERT JUMPDEST DUP2 CALLDATALOAD PUSH2 0xC48 DUP2 PUSH2 0xDE9 JUMP JUMPDEST PUSH1 0x20 DUP1 DUP3 MSTORE DUP3 MLOAD DUP3 DUP3 ADD DUP2 SWAP1 MSTORE PUSH1 0x0 SWAP2 SWAP1 PUSH1 0x40 SWAP1 DUP2 DUP6 ADD SWAP1 DUP7 DUP5 ADD DUP6 JUMPDEST DUP3 DUP2 LT ISZERO PUSH2 0xE66 JUMPI DUP2 MLOAD DUP1 MLOAD PUSH1 0x1 PUSH1 0x1 PUSH1 0xA0 SHL SUB AND DUP6 MSTORE DUP7 ADD MLOAD DUP7 DUP6 ADD MSTORE SWAP3 DUP5 ADD SWAP3 SWAP1 DUP6 ADD SWAP1 PUSH1 0x1 ADD PUSH2 0xE38 JUMP JUMPDEST POP SWAP2 SWAP8 SWAP7 POP POP POP POP POP POP POP JUMP JUMPDEST PUSH4 0x4E487B71 PUSH1 0xE0 SHL PUSH1 0x0 MSTORE PUSH1 0x11 PUSH1 0x4 MSTORE PUSH1 0x24 PUSH1 0x0 REVERT JUMPDEST PUSH1 0x0 DUP3 NOT DUP3 GT ISZERO PUSH2 0xE9C JUMPI PUSH2 0xE9C PUSH2 0xE73 JUMP JUMPDEST POP ADD SWAP1 JUMP JUMPDEST PUSH4 0x4E487B71 PUSH1 0xE0 SHL PUSH1 0x0 MSTORE PUSH1 0x32 PUSH1 0x4 MSTORE PUSH1 0x24 PUSH1 0x0 REVERT JUMPDEST PUSH1 0x0 PUSH1 0x1 DUP3 ADD PUSH2 0xEC9 JUMPI PUSH2 0xEC9 PUSH2 0xE73 JUMP JUMPDEST POP PUSH1 0x1 ADD SWAP1 JUMP JUMPDEST PUSH1 0x0 DUP2 PUSH2 0xEDF JUMPI PUSH2 0xEDF PUSH2 0xE73 JUMP JUMPDEST POP PUSH1 0x0 NOT ADD SWAP1 JUMP JUMPDEST PUSH4 0x4E487B71 PUSH1 0xE0 SHL PUSH1 0x0 MSTORE PUSH1 0x41 PUSH1 0x4 MSTORE PUSH1 0x24 PUSH1 0x0 REVERT JUMPDEST PUSH1 0x0 PUSH1 0x20 DUP3 DUP5 SUB SLT ISZERO PUSH2 0xF0F JUMPI PUSH1 0x0 DUP1 REVERT JUMPDEST DUP2 MLOAD PUSH2 0xC48 DUP2 PUSH2 0xDE9 JUMP JUMPDEST PUSH1 0x0 DUP3 DUP3 LT ISZERO PUSH2 0xF2C JUMPI PUSH2 0xF2C PUSH2 0xE73 JUMP JUMPDEST POP SUB SWAP1 JUMP JUMPDEST PUSH1 0x0 DUP2 PUSH1 0x0 NOT DIV DUP4 GT DUP3 ISZERO ISZERO AND ISZERO PUSH2 0xF4B JUMPI PUSH2 0xF4B PUSH2 0xE73 JUMP JUMPDEST POP MUL SWAP1 JUMP JUMPDEST PUSH1 0x0 DUP3 PUSH2 0xF6D JUMPI PUSH4 0x4E487B71 PUSH1 0xE0 SHL PUSH1 0x0 MSTORE PUSH1 0x12 PUSH1 0x4 MSTORE PUSH1 0x24 PUSH1 0x0 REVERT JUMPDEST POP DIV SWAP1 JUMP JUMPDEST PUSH1 0x0 PUSH1 0x20 DUP3 DUP5 SUB SLT ISZERO PUSH2 0xF84 JUMPI PUSH1 0x0 DUP1 REVERT JUMPDEST DUP2 MLOAD DUP1 ISZERO ISZERO DUP2 EQ PUSH2 0xC48 JUMPI PUSH1 0x0 DUP1 REVERT JUMPDEST PUSH1 0x0 JUMPDEST DUP4 DUP2 LT ISZERO PUSH2 0xFAF JUMPI DUP2 DUP2 ADD MLOAD DUP4 DUP3 ADD MSTORE PUSH1 0x20 ADD PUSH2 0xF97 JUMP JUMPDEST DUP4 DUP2 GT ISZERO PUSH2 0xFBE JUMPI PUSH1 0x0 DUP5 DUP5 ADD MSTORE JUMPDEST POP POP POP POP JUMP JUMPDEST PUSH1 0x0 DUP3 MLOAD PUSH2 0xFD6 DUP2 DUP5 PUSH1 0x20 DUP8 ADD PUSH2 0xF94 JUMP JUMPDEST SWAP2 SWAP1 SWAP2 ADD SWAP3 SWAP2 POP POP JUMP JUMPDEST PUSH1 0x20 DUP2 MSTORE PUSH1 0x0 DUP3 MLOAD DUP1 PUSH1 0x20 DUP5 ADD MSTORE PUSH2 0xFFF DUP2 PUSH1 0x40 DUP6 ADD PUSH1 0x20 DUP8 ADD PUSH2 0xF94 JUMP JUMPDEST PUSH1 0x1F ADD PUSH1 0x1F NOT AND SWAP2 SWAP1 SWAP2 ADD PUSH1 0x40 ADD SWAP3 SWAP2 POP POP JUMP INVALID LOG2 PUSH5 0x6970667358 0x22 SLT KECCAK256 0xEA 0xDB OR ADDRESS PUSH17 0x837C4D618B2EBEDC2D5B4F5094BA18BA56 MSIZE EXP 0xD9 0x4F 0x49 DUP1 SDIV 0xDF 0x4A 0xCD PUSH5 0x736F6C6343 STOP ADDMOD 0xD STOP CALLER "
    },
    "gasEstimates": {
      "creation": {
        "codeDepositCost": "833800",
        "executionCost": "infinite",
        "totalCost": "infinite"
      },
      "external": {
        "claimRewards()": "infinite",
        "getStakedTokens(address)": "infinite",
        "nftCollection()": "infinite",
        "rewardsToken()": "infinite",
        "stake(uint256)": "infinite",
        "stakerAddress(uint256)": "2499",
        "stakers(address)": "6788",
        "withdraw(uint256)": "infinite"
      },
      "internal": {
        "calculateRewards(address)": "infinite"
      }
    },
    "methodIdentifiers": {
      "claimRewards()": "372500ab",
      "getStakedTokens(address)": "63c28db1",
      "nftCollection()": "6588103b",
      "rewardsToken()": "d1af0c7d",
      "stake(uint256)": "a694fc3a",
      "stakerAddress(uint256)": "94067045",
      "stakers(address)": "9168ae72",
      "withdraw(uint256)": "2e1a7d4d"
    }
  },
  "storageLayout": {
    "storage": [
      {
        "astId": 489,
        "contract": "StakingContract.sol:ERC721Staking",
        "label": "_status",
        "offset": 0,
        "slot": "0",
        "type": "t_uint256"
      },
      {
        "astId": 36,
        "contract": "StakingContract.sol:ERC721Staking",
        "label": "rewardsPerHour",
        "offset": 0,
        "slot": "1",
        "type": "t_uint256"
      },
      {
        "astId": 41,
        "contract": "StakingContract.sol:ERC721Staking",
        "label": "stakers",
        "offset": 0,
        "slot": "2",
        "type": "t_mapping(t_address,t_struct(Staker)33_storage)"
      },
      {
        "astId": 45,
        "contract": "StakingContract.sol:ERC721Staking",
        "label": "stakerAddress",
        "offset": 0,
        "slot": "3",
        "type": "t_mapping(t_uint256,t_address)"
      }
    ],
    "types": {
      "t_address": {
        "encoding": "inplace",
        "label": "address",
        "numberOfBytes": "20"
      },
      "t_array(t_struct(StakedToken)22_storage)dyn_storage": {
        "base": "t_struct(StakedToken)22_storage",
        "encoding": "dynamic_array",
        "label": "struct ERC721Staking.StakedToken[]",
        "numberOfBytes": "32"
      },
      "t_mapping(t_address,t_struct(Staker)33_storage)": {
        "encoding": "mapping",
        "key": "t_address",
        "label": "mapping(address => struct ERC721Staking.Staker)",
        "numberOfBytes": "32",
        "value": "t_struct(Staker)33_storage"
      },
      "t_mapping(t_uint256,t_address)": {
        "encoding": "mapping",
        "key": "t_uint256",
        "label": "mapping(uint256 => address)",
        "numberOfBytes": "32",
        "value": "t_address"
      },
      "t_struct(StakedToken)22_storage": {
        "encoding": "inplace",
        "label": "struct ERC721Staking.StakedToken",
        "members": [
          {
            "astId": 19,
            "contract": "StakingContract.sol:ERC721Staking",
            "label": "staker",
            "offset": 0,
            "slot": "0",
            "type": "t_address"
          },
          {
            "astId": 21,
            "contract": "StakingContract.sol:ERC721Staking",
            "label": "tokenId",
            "offset": 0,
            "slot": "1",
            "type": "t_uint256"
          }
        ],
        "numberOfBytes": "64"
      },
      "t_struct(Staker)33_storage": {
        "encoding": "inplace",
        "label": "struct ERC721Staking.Staker",
        "members": [
          {
            "astId": 24,
            "contract": "StakingContract.sol:ERC721Staking",
            "label": "amountStaked",
            "offset": 0,
            "slot": "0",
            "type": "t_uint256"
          },
          {
            "astId": 28,
            "contract": "StakingContract.sol:ERC721Staking",
            "label": "stakedTokens",
            "offset": 0,
            "slot": "1",
            "type": "t_array(t_struct(StakedToken)22_storage)dyn_storage"
          },
          {
            "astId": 30,
            "contract": "StakingContract.sol:ERC721Staking",
            "label": "timeOfLastUpdate",
            "offset": 0,
            "slot": "2",
            "type": "t_uint256"
          },
          {
            "astId": 32,
            "contract": "StakingContract.sol:ERC721Staking",
            "label": "unclaimedRewards",
            "offset": 0,
            "slot": "3",
            "type": "t_uint256"
          }
        ],
        "numberOfBytes": "128"
      },
      "t_uint256": {
        "encoding": "inplace",
        "label": "uint256",
        "numberOfBytes": "32"
      }
    }
  },
  "userdoc": {
    "kind": "user",
    "methods": {},
    "version": 1
  }
}