{
  "abi": [
    {
      "inputs": [
        {
          "internalType": "contract IERC721",
          "name": "_nftCollection",
          "type": "address"
        },
        {
          "internalType": "contract IERC20",
          "name": "_rewardsToken",
          "type": "address"
        },
        {
          "internalType": "address",
          "name": "_character",
          "type": "address"
        }
      ],
      "stateMutability": "nonpayable",
      "type": "constructor"
    },
    {
      "inputs": [
        {
          "internalType": "address",
          "name": "_staker",
          "type": "address"
        }
      ],
      "name": "availableRewards",
      "outputs": [
        {
          "internalType": "uint256",
          "name": "",
          "type": "uint256"
        }
      ],
      "stateMutability": "view",
      "type": "function"
    },
    {
      "inputs": [],
      "name": "character",
      "outputs": [
        {
          "internalType": "contract Character",
          "name": "",
          "type": "address"
        }
      ],
      "stateMutability": "view",
      "type": "function"
    },
    {
      "inputs": [],
      "name": "claimRewards",
      "outputs": [],
      "stateMutability": "nonpayable",
      "type": "function"
    },
    {
      "inputs": [
        {
          "internalType": "address",
          "name": "_user",
          "type": "address"
        }
      ],
      "name": "getStakedTokens",
      "outputs": [
        {
          "components": [
            {
              "internalType": "address",
              "name": "staker",
              "type": "address"
            },
            {
              "internalType": "uint256",
              "name": "tokenId",
              "type": "uint256"
            }
          ],
          "internalType": "struct ERC721Staking.StakedToken[]",
          "name": "",
          "type": "tuple[]"
        }
      ],
      "stateMutability": "view",
      "type": "function"
    },
    {
      "inputs": [],
      "name": "nftCollection",
      "outputs": [
        {
          "internalType": "contract IERC721",
          "name": "",
          "type": "address"
        }
      ],
      "stateMutability": "view",
      "type": "function"
    },
    {
      "inputs": [],
      "name": "rewardsToken",
      "outputs": [
        {
          "internalType": "contract IERC20",
          "name": "",
          "type": "address"
        }
      ],
      "stateMutability": "view",
      "type": "function"
    },
    {
      "inputs": [
        {
          "internalType": "uint256",
          "name": "_tokenId",
          "type": "uint256"
        }
      ],
      "name": "stake",
      "outputs": [],
      "stateMutability": "nonpayable",
      "type": "function"
    },
    {
      "inputs": [
        {
          "internalType": "uint256",
          "name": "",
          "type": "uint256"
        }
      ],
      "name": "stakerAddress",
      "outputs": [
        {
          "internalType": "address",
          "name": "",
          "type": "address"
        }
      ],
      "stateMutability": "view",
      "type": "function"
    },
    {
      "inputs": [
        {
          "internalType": "address",
          "name": "",
          "type": "address"
        }
      ],
      "name": "stakers",
      "outputs": [
        {
          "internalType": "uint256",
          "name": "amountStaked",
          "type": "uint256"
        },
        {
          "internalType": "uint256",
          "name": "timeOfLastUpdate",
          "type": "uint256"
        },
        {
          "internalType": "uint256",
          "name": "unclaimedRewards",
          "type": "uint256"
        }
      ],
      "stateMutability": "view",
      "type": "function"
    },
    {
      "inputs": [
        {
          "internalType": "uint256",
          "name": "_tokenId",
          "type": "uint256"
        }
      ],
      "name": "withdraw",
      "outputs": [],
      "stateMutability": "nonpayable",
      "type": "function"
    }
  ],
  "devdoc": {
    "kind": "dev",
    "methods": {},
    "version": 1
  },
  "evm": {
    "assembly": "    /* \"StakingContract.sol\":587:8384  contract ERC721Staking is ReentrancyGuard {... */\n  mstore(0x40, 0xe0)\n    /* \"StakingContract.sol\":1836:1843  3600e18 */\n  0xc328093e61ee400000\n    /* \"StakingContract.sol\":1803:1843  uint256 private rewardsPerHour = 3600e18 */\n  0x01\n  sstore\n    /* \"StakingContract.sol\":931:1175  constructor(... */\n  callvalue\n  dup1\n  iszero\n  tag_1\n  jumpi\n  0x00\n  dup1\n  revert\ntag_1:\n  pop\n  mload(0x40)\n  sub(codesize, bytecodeSize)\n  dup1\n  bytecodeSize\n  dup4\n  codecopy\n  dup2\n  add\n  0x40\n  dup2\n  swap1\n  mstore\n  tag_2\n  swap2\n  tag_3\n  jump\t// in\ntag_2:\n    /* \"@openzeppelin/contracts/security/ReentrancyGuard.sol\":1701:1702   */\n  0x01\n    /* \"@openzeppelin/contracts/security/ReentrancyGuard.sol\":1806:1813   */\n  0x00\n    /* \"@openzeppelin/contracts/security/ReentrancyGuard.sol\":1806:1828   */\n  sstore\n  sub(shl(0xa0, 0x01), 0x01)\n    /* \"StakingContract.sol\":1054:1084  nftCollection = _nftCollection */\n  swap3\n  dup4\n  and\n  0xa0\n  mstore\n    /* \"StakingContract.sol\":1095:1123  rewardsToken = _rewardsToken */\n  swap1\n  dup3\n  and\n  0x80\n  mstore\n    /* \"StakingContract.sol\":1134:1167  character = Character(_character) */\n  and\n  0xc0\n  mstore\n    /* \"StakingContract.sol\":587:8384  contract ERC721Staking is ReentrancyGuard {... */\n  jump(tag_10)\n    /* \"#utility.yul\":14:154   */\ntag_9:\n  sub(shl(0xa0, 0x01), 0x01)\n    /* \"#utility.yul\":98:129   */\n  dup2\n  and\n    /* \"#utility.yul\":88:130   */\n  dup2\n  eq\n    /* \"#utility.yul\":78:148   */\n  tag_12\n  jumpi\n    /* \"#utility.yul\":144:145   */\n  0x00\n    /* \"#utility.yul\":141:142   */\n  dup1\n    /* \"#utility.yul\":134:146   */\n  revert\n    /* \"#utility.yul\":78:148   */\ntag_12:\n    /* \"#utility.yul\":14:154   */\n  pop\n  jump\t// out\n    /* \"#utility.yul\":159:736   */\ntag_3:\n    /* \"#utility.yul\":278:284   */\n  0x00\n    /* \"#utility.yul\":286:292   */\n  dup1\n    /* \"#utility.yul\":294:300   */\n  0x00\n    /* \"#utility.yul\":347:349   */\n  0x60\n    /* \"#utility.yul\":335:344   */\n  dup5\n    /* \"#utility.yul\":326:333   */\n  dup7\n    /* \"#utility.yul\":322:345   */\n  sub\n    /* \"#utility.yul\":318:350   */\n  slt\n    /* \"#utility.yul\":315:367   */\n  iszero\n  tag_14\n  jumpi\n    /* \"#utility.yul\":363:364   */\n  0x00\n    /* \"#utility.yul\":360:361   */\n  dup1\n    /* \"#utility.yul\":353:365   */\n  revert\n    /* \"#utility.yul\":315:367   */\ntag_14:\n    /* \"#utility.yul\":395:404   */\n  dup4\n    /* \"#utility.yul\":389:405   */\n  mload\n    /* \"#utility.yul\":414:454   */\n  tag_15\n    /* \"#utility.yul\":448:453   */\n  dup2\n    /* \"#utility.yul\":414:454   */\n  tag_9\n  jump\t// in\ntag_15:\n    /* \"#utility.yul\":523:525   */\n  0x20\n    /* \"#utility.yul\":508:526   */\n  dup6\n  add\n    /* \"#utility.yul\":502:527   */\n  mload\n    /* \"#utility.yul\":473:478   */\n  swap1\n  swap4\n  pop\n    /* \"#utility.yul\":536:578   */\n  tag_16\n    /* \"#utility.yul\":502:527   */\n  dup2\n    /* \"#utility.yul\":536:578   */\n  tag_9\n  jump\t// in\ntag_16:\n    /* \"#utility.yul\":649:651   */\n  0x40\n    /* \"#utility.yul\":634:652   */\n  dup6\n  add\n    /* \"#utility.yul\":628:653   */\n  mload\n    /* \"#utility.yul\":597:604   */\n  swap1\n  swap3\n  pop\n    /* \"#utility.yul\":662:704   */\n  tag_17\n    /* \"#utility.yul\":628:653   */\n  dup2\n    /* \"#utility.yul\":662:704   */\n  tag_9\n  jump\t// in\ntag_17:\n    /* \"#utility.yul\":723:730   */\n  dup1\n    /* \"#utility.yul\":713:730   */\n  swap2\n  pop\n  pop\n    /* \"#utility.yul\":159:736   */\n  swap3\n  pop\n  swap3\n  pop\n  swap3\n  jump\t// out\ntag_10:\n    /* \"StakingContract.sol\":587:8384  contract ERC721Staking is ReentrancyGuard {... */\n  mload(0x80)\n  mload(0xa0)\n  mload(0xc0)\n  codecopy(0x00, dataOffset(sub_0), dataSize(sub_0))\n  0x00\n  assignImmutable(\"0xf63dd2532f4bb354c128345aafbf8d088267c0b2cdfe137c5864fa441df714ed\")\n  0x00\n  assignImmutable(\"0xc54ee332974d1c3b722bf69de0eb5376e86c76b9f8da5c925e6b0c3efd2d5979\")\n  0x00\n  assignImmutable(\"0x89b941ac507936813383287e3bdf5ed02eb8ad2c46d6681eed1aed470bac2b05\")\n  return(0x00, dataSize(sub_0))\nstop\n\nsub_0: assembly {\n        /* \"StakingContract.sol\":587:8384  contract ERC721Staking is ReentrancyGuard {... */\n      mstore(0x40, 0x80)\n      callvalue\n      dup1\n      iszero\n      tag_1\n      jumpi\n      0x00\n      dup1\n      revert\n    tag_1:\n      pop\n      jumpi(tag_2, lt(calldatasize, 0x04))\n      shr(0xe0, calldataload(0x00))\n      dup1\n      0x9168ae72\n      gt\n      tag_13\n      jumpi\n      dup1\n      0xa694fc3a\n      gt\n      tag_14\n      jumpi\n      dup1\n      0xa694fc3a\n      eq\n      tag_10\n      jumpi\n      dup1\n      0xd1af0c7d\n      eq\n      tag_11\n      jumpi\n      dup1\n      0xf854a27f\n      eq\n      tag_12\n      jumpi\n      0x00\n      dup1\n      revert\n    tag_14:\n      dup1\n      0x9168ae72\n      eq\n      tag_8\n      jumpi\n      dup1\n      0x94067045\n      eq\n      tag_9\n      jumpi\n      0x00\n      dup1\n      revert\n    tag_13:\n      dup1\n      0x4d2e03a0\n      gt\n      tag_15\n      jumpi\n      dup1\n      0x4d2e03a0\n      eq\n      tag_5\n      jumpi\n      dup1\n      0x63c28db1\n      eq\n      tag_6\n      jumpi\n      dup1\n      0x6588103b\n      eq\n      tag_7\n      jumpi\n      0x00\n      dup1\n      revert\n    tag_15:\n      dup1\n      0x2e1a7d4d\n      eq\n      tag_3\n      jumpi\n      dup1\n      0x372500ab\n      eq\n      tag_4\n      jumpi\n    tag_2:\n      0x00\n      dup1\n      revert\n        /* \"StakingContract.sol\":3883:5680  function withdraw(uint256 _tokenId) external nonReentrant {... */\n    tag_3:\n      tag_16\n      tag_17\n      calldatasize\n      0x04\n      tag_18\n      jump\t// in\n    tag_17:\n      tag_19\n      jump\t// in\n    tag_16:\n      stop\n        /* \"StakingContract.sol\":5863:6249  function claimRewards() external {... */\n    tag_4:\n      tag_16\n      tag_21\n      jump\t// in\n        /* \"StakingContract.sol\":799:835  Character public immutable character */\n    tag_5:\n      tag_22\n      immutable(\"0xf63dd2532f4bb354c128345aafbf8d088267c0b2cdfe137c5864fa441df714ed\")\n      dup2\n      jump\n    tag_22:\n      mload(0x40)\n      sub(shl(0xa0, 0x01), 0x01)\n        /* \"#utility.yul\":380:435   */\n      swap1\n      swap2\n      and\n        /* \"#utility.yul\":362:436   */\n      dup2\n      mstore\n        /* \"#utility.yul\":350:352   */\n      0x20\n        /* \"#utility.yul\":335:353   */\n      add\n        /* \"StakingContract.sol\":799:835  Character public immutable character */\n    tag_24:\n      mload(0x40)\n      dup1\n      swap2\n      sub\n      swap1\n      return\n        /* \"StakingContract.sol\":6524:7451  function getStakedTokens(address _user)... */\n    tag_6:\n      tag_26\n      tag_27\n      calldatasize\n      0x04\n      tag_28\n      jump\t// in\n    tag_27:\n      tag_29\n      jump\t// in\n    tag_26:\n      mload(0x40)\n      tag_24\n      swap2\n      swap1\n      tag_31\n      jump\t// in\n        /* \"StakingContract.sol\":754:792  IERC721 public immutable nftCollection */\n    tag_7:\n      tag_22\n      immutable(\"0xc54ee332974d1c3b722bf69de0eb5376e86c76b9f8da5c925e6b0c3efd2d5979\")\n      dup2\n      jump\n        /* \"StakingContract.sol\":1899:1940  mapping(address => Staker) public stakers */\n    tag_8:\n      tag_36\n      tag_37\n      calldatasize\n      0x04\n      tag_28\n      jump\t// in\n    tag_37:\n      0x02\n      0x20\n      dup2\n      swap1\n      mstore\n      0x00\n      swap2\n      dup3\n      mstore\n      0x40\n      swap1\n      swap2\n      keccak256\n      dup1\n      sload\n      swap2\n      dup2\n      add\n      sload\n      0x03\n      swap1\n      swap2\n      add\n      sload\n      dup4\n      jump\n    tag_36:\n      0x40\n      dup1\n      mload\n        /* \"#utility.yul\":2155:2180   */\n      swap4\n      dup5\n      mstore\n        /* \"#utility.yul\":2211:2213   */\n      0x20\n        /* \"#utility.yul\":2196:2214   */\n      dup5\n      add\n        /* \"#utility.yul\":2189:2223   */\n      swap3\n      swap1\n      swap3\n      mstore\n        /* \"#utility.yul\":2239:2257   */\n      swap1\n      dup3\n      add\n        /* \"#utility.yul\":2232:2266   */\n      mstore\n        /* \"#utility.yul\":2143:2145   */\n      0x60\n        /* \"#utility.yul\":2128:2146   */\n      add\n        /* \"StakingContract.sol\":1899:1940  mapping(address => Staker) public stakers */\n      tag_24\n        /* \"#utility.yul\":1953:2272   */\n      jump\n        /* \"StakingContract.sol\":2061:2109  mapping(uint256 => address) public stakerAddress */\n    tag_9:\n      tag_22\n      tag_42\n      calldatasize\n      0x04\n      tag_18\n      jump\t// in\n    tag_42:\n      mstore(0x20, 0x03)\n      0x00\n      swap1\n      dup2\n      mstore\n      0x40\n      swap1\n      keccak256\n      sload\n      sub(shl(0xa0, 0x01), 0x01)\n      and\n      dup2\n      jump\n        /* \"StakingContract.sol\":2383:3634  function stake(uint256 _tokenId) external nonReentrant {... */\n    tag_10:\n      tag_16\n      tag_47\n      calldatasize\n      0x04\n      tag_18\n      jump\t// in\n    tag_47:\n      tag_48\n      jump\t// in\n        /* \"StakingContract.sol\":711:747  IERC20 public immutable rewardsToken */\n    tag_11:\n      tag_22\n      immutable(\"0x89b941ac507936813383287e3bdf5ed02eb8ad2c46d6681eed1aed470bac2b05\")\n      dup2\n      jump\n        /* \"StakingContract.sol\":6307:6516  function availableRewards(address _staker) public view returns (uint256) {... */\n    tag_12:\n      tag_53\n      tag_54\n      calldatasize\n      0x04\n      tag_28\n      jump\t// in\n    tag_54:\n      tag_55\n      jump\t// in\n    tag_53:\n      mload(0x40)\n        /* \"#utility.yul\":2900:2925   */\n      swap1\n      dup2\n      mstore\n        /* \"#utility.yul\":2888:2890   */\n      0x20\n        /* \"#utility.yul\":2873:2891   */\n      add\n        /* \"StakingContract.sol\":6307:6516  function availableRewards(address _staker) public view returns (uint256) {... */\n      tag_24\n        /* \"#utility.yul\":2754:2931   */\n      jump\n        /* \"StakingContract.sol\":3883:5680  function withdraw(uint256 _tokenId) external nonReentrant {... */\n    tag_19:\n        /* \"@openzeppelin/contracts/security/ReentrancyGuard.sol\":1744:1745   */\n      0x02\n        /* \"@openzeppelin/contracts/security/ReentrancyGuard.sol\":2325:2332   */\n      sload(0x00)\n        /* \"@openzeppelin/contracts/security/ReentrancyGuard.sol\":2325:2344   */\n      sub\n        /* \"@openzeppelin/contracts/security/ReentrancyGuard.sol\":2317:2380   */\n      tag_59\n      jumpi\n      mload(0x40)\n      shl(0xe5, 0x461bcd)\n      dup2\n      mstore\n        /* \"#utility.yul\":3138:3140   */\n      0x20\n        /* \"@openzeppelin/contracts/security/ReentrancyGuard.sol\":2317:2380   */\n      0x04\n      dup3\n      add\n        /* \"#utility.yul\":3120:3141   */\n      mstore\n        /* \"#utility.yul\":3177:3179   */\n      0x1f\n        /* \"#utility.yul\":3157:3175   */\n      0x24\n      dup3\n      add\n        /* \"#utility.yul\":3150:3180   */\n      mstore\n        /* \"#utility.yul\":3216:3249   */\n      0x5265656e7472616e637947756172643a207265656e7472616e742063616c6c00\n        /* \"#utility.yul\":3196:3214   */\n      0x44\n      dup3\n      add\n        /* \"#utility.yul\":3189:3250   */\n      mstore\n        /* \"#utility.yul\":3267:3285   */\n      0x64\n      add\n        /* \"@openzeppelin/contracts/security/ReentrancyGuard.sol\":2317:2380   */\n    tag_60:\n      mload(0x40)\n      dup1\n      swap2\n      sub\n      swap1\n      revert\n    tag_59:\n        /* \"@openzeppelin/contracts/security/ReentrancyGuard.sol\":1744:1745   */\n      0x02\n        /* \"@openzeppelin/contracts/security/ReentrancyGuard.sol\":2455:2462   */\n      0x00\n        /* \"@openzeppelin/contracts/security/ReentrancyGuard.sol\":2455:2473   */\n      dup2\n      dup2\n      sstore\n        /* \"StakingContract.sol\":4062:4072  msg.sender */\n      caller\n        /* \"StakingContract.sol\":4054:4073  stakers[msg.sender] */\n      dup2\n      mstore\n      0x20\n      swap2\n      swap1\n      swap2\n      mstore\n      0x40\n      swap1\n      keccak256\n        /* \"StakingContract.sol\":4054:4086  stakers[msg.sender].amountStaked */\n      sload\n        /* \"StakingContract.sol\":4032:4143  require(... */\n      tag_63\n      jumpi\n      mload(0x40)\n      shl(0xe5, 0x461bcd)\n      dup2\n      mstore\n        /* \"#utility.yul\":3498:3500   */\n      0x20\n        /* \"StakingContract.sol\":4032:4143  require(... */\n      0x04\n      dup3\n      add\n        /* \"#utility.yul\":3480:3501   */\n      mstore\n        /* \"#utility.yul\":3537:3539   */\n      0x19\n        /* \"#utility.yul\":3517:3535   */\n      0x24\n      dup3\n      add\n        /* \"#utility.yul\":3510:3540   */\n      mstore\n        /* \"#utility.yul\":3576:3603   */\n      0x596f752068617665206e6f20746f6b656e73207374616b656400000000000000\n        /* \"#utility.yul\":3556:3574   */\n      0x44\n      dup3\n      add\n        /* \"#utility.yul\":3549:3604   */\n      mstore\n        /* \"#utility.yul\":3621:3639   */\n      0x64\n      add\n        /* \"StakingContract.sol\":4032:4143  require(... */\n      tag_60\n        /* \"#utility.yul\":3296:3645   */\n      jump\n        /* \"StakingContract.sol\":4032:4143  require(... */\n    tag_63:\n        /* \"StakingContract.sol\":4244:4267  stakerAddress[_tokenId] */\n      0x00\n      dup2\n      dup2\n      mstore\n        /* \"StakingContract.sol\":4244:4257  stakerAddress */\n      0x03\n        /* \"StakingContract.sol\":4244:4267  stakerAddress[_tokenId] */\n      0x20\n      mstore\n      0x40\n      swap1\n      keccak256\n      sload\n      sub(shl(0xa0, 0x01), 0x01)\n      and\n        /* \"StakingContract.sol\":4271:4281  msg.sender */\n      caller\n        /* \"StakingContract.sol\":4244:4281  stakerAddress[_tokenId] == msg.sender */\n      eq\n        /* \"StakingContract.sol\":4222:4334  require(... */\n      tag_66\n      jumpi\n      mload(0x40)\n      shl(0xe5, 0x461bcd)\n      dup2\n      mstore\n        /* \"#utility.yul\":3852:3854   */\n      0x20\n        /* \"StakingContract.sol\":4222:4334  require(... */\n      0x04\n      dup3\n      add\n        /* \"#utility.yul\":3834:3855   */\n      mstore\n        /* \"#utility.yul\":3891:3893   */\n      0x19\n        /* \"#utility.yul\":3871:3889   */\n      0x24\n      dup3\n      add\n        /* \"#utility.yul\":3864:3894   */\n      mstore\n        /* \"#utility.yul\":3930:3957   */\n      0x596f7520646f6e2774206f776e207468697320746f6b656e2100000000000000\n        /* \"#utility.yul\":3910:3928   */\n      0x44\n      dup3\n      add\n        /* \"#utility.yul\":3903:3958   */\n      mstore\n        /* \"#utility.yul\":3975:3993   */\n      0x64\n      add\n        /* \"StakingContract.sol\":4222:4334  require(... */\n      tag_60\n        /* \"#utility.yul\":3650:3999   */\n      jump\n        /* \"StakingContract.sol\":4222:4334  require(... */\n    tag_66:\n        /* \"StakingContract.sol\":4446:4461  uint256 rewards */\n      0x00\n        /* \"StakingContract.sol\":4464:4492  calculateRewards(msg.sender) */\n      tag_69\n        /* \"StakingContract.sol\":4481:4491  msg.sender */\n      caller\n        /* \"StakingContract.sol\":4464:4480  calculateRewards */\n      tag_70\n        /* \"StakingContract.sol\":4464:4492  calculateRewards(msg.sender) */\n      jump\t// in\n    tag_69:\n        /* \"StakingContract.sol\":4511:4521  msg.sender */\n      caller\n        /* \"StakingContract.sol\":4503:4522  stakers[msg.sender] */\n      0x00\n      swap1\n      dup2\n      mstore\n        /* \"StakingContract.sol\":4503:4510  stakers */\n      0x02\n        /* \"StakingContract.sol\":4503:4522  stakers[msg.sender] */\n      0x20\n      mstore\n      0x40\n      dup2\n      keccak256\n        /* \"StakingContract.sol\":4503:4539  stakers[msg.sender].unclaimedRewards */\n      0x03\n      add\n        /* \"StakingContract.sol\":4503:4550  stakers[msg.sender].unclaimedRewards += rewards */\n      dup1\n      sload\n        /* \"StakingContract.sol\":4446:4492  uint256 rewards = calculateRewards(msg.sender) */\n      swap3\n      swap4\n      pop\n      dup4\n      swap3\n        /* \"StakingContract.sol\":4503:4539  stakers[msg.sender].unclaimedRewards */\n      swap1\n      swap2\n        /* \"StakingContract.sol\":4503:4522  stakers[msg.sender] */\n      swap1\n        /* \"StakingContract.sol\":4503:4550  stakers[msg.sender].unclaimedRewards += rewards */\n      tag_71\n      swap1\n        /* \"StakingContract.sol\":4446:4492  uint256 rewards = calculateRewards(msg.sender) */\n      dup5\n      swap1\n        /* \"StakingContract.sol\":4503:4550  stakers[msg.sender].unclaimedRewards += rewards */\n      tag_72\n      jump\t// in\n    tag_71:\n      swap1\n      swap2\n      sstore\n      pop\n        /* \"StakingContract.sol\":4633:4646  uint256 index */\n      0x00\n      swap1\n      pop\n      dup1\n        /* \"StakingContract.sol\":4661:4995  for (uint256 i = 0; i < stakers[msg.sender].stakedTokens.length; i++) {... */\n    tag_73:\n        /* \"StakingContract.sol\":4693:4703  msg.sender */\n      caller\n        /* \"StakingContract.sol\":4685:4704  stakers[msg.sender] */\n      0x00\n      swap1\n      dup2\n      mstore\n        /* \"StakingContract.sol\":4685:4692  stakers */\n      0x02\n        /* \"StakingContract.sol\":4685:4704  stakers[msg.sender] */\n      0x20\n      mstore\n      0x40\n      swap1\n      keccak256\n        /* \"StakingContract.sol\":4685:4717  stakers[msg.sender].stakedTokens */\n      0x01\n      add\n        /* \"StakingContract.sol\":4685:4724  stakers[msg.sender].stakedTokens.length */\n      sload\n        /* \"StakingContract.sol\":4681:4724  i < stakers[msg.sender].stakedTokens.length */\n      dup2\n      lt\n        /* \"StakingContract.sol\":4661:4995  for (uint256 i = 0; i < stakers[msg.sender].stakedTokens.length; i++) {... */\n      iszero\n      tag_74\n      jumpi\n        /* \"StakingContract.sol\":4776:4786  msg.sender */\n      caller\n        /* \"StakingContract.sol\":4768:4787  stakers[msg.sender] */\n      0x00\n      swap1\n      dup2\n      mstore\n        /* \"StakingContract.sol\":4768:4775  stakers */\n      0x02\n        /* \"StakingContract.sol\":4768:4787  stakers[msg.sender] */\n      0x20\n      mstore\n      0x40\n      swap1\n      keccak256\n        /* \"StakingContract.sol\":4768:4800  stakers[msg.sender].stakedTokens */\n      0x01\n      add\n        /* \"StakingContract.sol\":4768:4803  stakers[msg.sender].stakedTokens[i] */\n      dup1\n      sload\n        /* \"StakingContract.sol\":4815:4823  _tokenId */\n      dup6\n      swap2\n        /* \"StakingContract.sol\":4768:4800  stakers[msg.sender].stakedTokens */\n      swap1\n        /* \"StakingContract.sol\":4801:4802  i */\n      dup4\n      swap1\n        /* \"StakingContract.sol\":4768:4803  stakers[msg.sender].stakedTokens[i] */\n      dup2\n      lt\n      tag_77\n      jumpi\n      tag_77\n      tag_78\n      jump\t// in\n    tag_77:\n      swap1\n      0x00\n      mstore\n      keccak256(0x00, 0x20)\n      swap1\n      0x02\n      mul\n      add\n        /* \"StakingContract.sol\":4768:4811  stakers[msg.sender].stakedTokens[i].tokenId */\n      0x01\n      add\n      sload\n        /* \"StakingContract.sol\":4768:4823  stakers[msg.sender].stakedTokens[i].tokenId == _tokenId */\n      eq\n        /* \"StakingContract.sol\":4768:4900  stakers[msg.sender].stakedTokens[i].tokenId == _tokenId &&... */\n      dup1\n      iszero\n      tag_80\n      jumpi\n      pop\n        /* \"StakingContract.sol\":4852:4862  msg.sender */\n      caller\n        /* \"StakingContract.sol\":4898:4899  0 */\n      0x00\n        /* \"StakingContract.sol\":4844:4863  stakers[msg.sender] */\n      swap1\n      dup2\n      mstore\n        /* \"StakingContract.sol\":4844:4851  stakers */\n      0x02\n        /* \"StakingContract.sol\":4844:4863  stakers[msg.sender] */\n      0x20\n      mstore\n      0x40\n      dup2\n      keccak256\n        /* \"StakingContract.sol\":4844:4876  stakers[msg.sender].stakedTokens */\n      0x01\n      add\n        /* \"StakingContract.sol\":4844:4879  stakers[msg.sender].stakedTokens[i] */\n      dup1\n      sload\n        /* \"StakingContract.sol\":4877:4878  i */\n      dup4\n      swap1\n        /* \"StakingContract.sol\":4844:4879  stakers[msg.sender].stakedTokens[i] */\n      dup2\n      lt\n      tag_82\n      jumpi\n      tag_82\n      tag_78\n      jump\t// in\n    tag_82:\n      0x00\n      swap2\n      dup3\n      mstore\n      0x20\n      swap1\n      swap2\n      keccak256\n      0x02\n      swap1\n      swap2\n      mul\n      add\n        /* \"StakingContract.sol\":4844:4886  stakers[msg.sender].stakedTokens[i].staker */\n      sload\n      sub(shl(0xa0, 0x01), 0x01)\n      and\n        /* \"StakingContract.sol\":4844:4900  stakers[msg.sender].stakedTokens[i].staker != address(0) */\n      eq\n      iszero\n        /* \"StakingContract.sol\":4768:4900  stakers[msg.sender].stakedTokens[i].tokenId == _tokenId &&... */\n    tag_80:\n        /* \"StakingContract.sol\":4746:4984  if (... */\n      iszero\n      tag_84\n      jumpi\n        /* \"StakingContract.sol\":4943:4944  i */\n      dup1\n        /* \"StakingContract.sol\":4935:4944  index = i */\n      swap2\n      pop\n        /* \"StakingContract.sol\":4963:4968  break */\n      jump(tag_74)\n        /* \"StakingContract.sol\":4746:4984  if (... */\n    tag_84:\n        /* \"StakingContract.sol\":4726:4729  i++ */\n      dup1\n      tag_85\n      dup2\n      tag_86\n      jump\t// in\n    tag_85:\n      swap2\n      pop\n      pop\n        /* \"StakingContract.sol\":4661:4995  for (uint256 i = 0; i < stakers[msg.sender].stakedTokens.length; i++) {... */\n      jump(tag_73)\n    tag_74:\n      pop\n        /* \"StakingContract.sol\":5099:5109  msg.sender */\n      caller\n        /* \"StakingContract.sol\":5148:5149  0 */\n      0x00\n        /* \"StakingContract.sol\":5091:5110  stakers[msg.sender] */\n      swap1\n      dup2\n      mstore\n        /* \"StakingContract.sol\":5091:5098  stakers */\n      0x02\n        /* \"StakingContract.sol\":5091:5110  stakers[msg.sender] */\n      0x20\n      mstore\n      0x40\n      dup2\n      keccak256\n        /* \"StakingContract.sol\":5091:5123  stakers[msg.sender].stakedTokens */\n      0x01\n      add\n        /* \"StakingContract.sol\":5091:5130  stakers[msg.sender].stakedTokens[index] */\n      dup1\n      sload\n        /* \"StakingContract.sol\":5124:5129  index */\n      dup4\n      swap1\n        /* \"StakingContract.sol\":5091:5130  stakers[msg.sender].stakedTokens[index] */\n      dup2\n      lt\n      tag_88\n      jumpi\n      tag_88\n      tag_78\n      jump\t// in\n    tag_88:\n      0x00\n      swap2\n      dup3\n      mstore\n      0x20\n      dup1\n      dup4\n      keccak256\n      0x02\n      swap3\n      dup4\n      mul\n      add\n        /* \"StakingContract.sol\":5091:5150  stakers[msg.sender].stakedTokens[index].staker = address(0) */\n      dup1\n      sload\n      not(sub(shl(0xa0, 0x01), 0x01))\n      and\n      sub(shl(0xa0, 0x01), 0x01)\n      swap6\n      swap1\n      swap6\n      and\n      swap5\n      swap1\n      swap5\n      or\n      swap1\n      swap4\n      sstore\n        /* \"StakingContract.sol\":5227:5237  msg.sender */\n      caller\n        /* \"StakingContract.sol\":5219:5238  stakers[msg.sender] */\n      dup3\n      mstore\n      swap1\n      swap2\n      mstore\n      0x40\n      dup2\n      keccak256\n        /* \"StakingContract.sol\":5219:5253  stakers[msg.sender].amountStaked-- */\n      dup1\n      sload\n      swap2\n      tag_90\n      dup4\n      tag_91\n      jump\t// in\n    tag_90:\n      swap1\n      swap2\n      sstore\n      pop\n      pop\n        /* \"StakingContract.sol\":5414:5415  0 */\n      0x00\n        /* \"StakingContract.sol\":5380:5403  stakerAddress[_tokenId] */\n      dup4\n      dup2\n      mstore\n        /* \"StakingContract.sol\":5380:5393  stakerAddress */\n      0x03\n        /* \"StakingContract.sol\":5380:5403  stakerAddress[_tokenId] */\n      0x20\n      mstore\n      0x40\n      swap1\n      dup2\n      swap1\n      keccak256\n        /* \"StakingContract.sol\":5380:5416  stakerAddress[_tokenId] = address(0) */\n      dup1\n      sload\n      not(sub(shl(0xa0, 0x01), 0x01))\n      and\n      swap1\n      sstore\n        /* \"StakingContract.sol\":5483:5546  nftCollection.transferFrom(address(this), msg.sender, _tokenId) */\n      mload\n      shl(0xe0, 0x23b872dd)\n      dup2\n      mstore\n        /* \"StakingContract.sol\":5518:5522  this */\n      address\n        /* \"StakingContract.sol\":5483:5546  nftCollection.transferFrom(address(this), msg.sender, _tokenId) */\n      0x04\n      dup3\n      add\n        /* \"#utility.yul\":4945:4979   */\n      mstore\n        /* \"StakingContract.sol\":5525:5535  msg.sender */\n      caller\n        /* \"#utility.yul\":4995:5013   */\n      0x24\n      dup3\n      add\n        /* \"#utility.yul\":4988:5031   */\n      mstore\n        /* \"#utility.yul\":5047:5065   */\n      0x44\n      dup2\n      add\n        /* \"#utility.yul\":5040:5074   */\n      dup5\n      swap1\n      mstore\n      sub(shl(0xa0, 0x01), 0x01)\n        /* \"StakingContract.sol\":5483:5496  nftCollection */\n      immutable(\"0xc54ee332974d1c3b722bf69de0eb5376e86c76b9f8da5c925e6b0c3efd2d5979\")\n        /* \"StakingContract.sol\":5483:5509  nftCollection.transferFrom */\n      and\n      swap1\n      0x23b872dd\n      swap1\n        /* \"#utility.yul\":4857:4875   */\n      0x64\n      add\n        /* \"StakingContract.sol\":5483:5546  nftCollection.transferFrom(address(this), msg.sender, _tokenId) */\n      0x00\n      mload(0x40)\n      dup1\n      dup4\n      sub\n      dup2\n      0x00\n      dup8\n      dup1\n      extcodesize\n      iszero\n      dup1\n      iszero\n      tag_94\n      jumpi\n      0x00\n      dup1\n      revert\n    tag_94:\n      pop\n      gas\n      call\n      iszero\n      dup1\n      iszero\n      tag_96\n      jumpi\n      returndatasize\n      0x00\n      dup1\n      returndatacopy\n      revert(0x00, returndatasize)\n    tag_96:\n      pop\n      pop\n        /* \"StakingContract.sol\":5626:5636  msg.sender */\n      caller\n        /* \"StakingContract.sol\":5618:5637  stakers[msg.sender] */\n      0x00\n      swap1\n      dup2\n      mstore\n        /* \"StakingContract.sol\":5618:5625  stakers */\n      0x02\n        /* \"StakingContract.sol\":5618:5637  stakers[msg.sender] */\n      0x20\n      dup2\n      swap1\n      mstore\n      0x40\n      dup3\n      keccak256\n        /* \"StakingContract.sol\":5657:5672  block.timestamp */\n      timestamp\n        /* \"StakingContract.sol\":5618:5654  stakers[msg.sender].timeOfLastUpdate */\n      swap2\n      add\n        /* \"StakingContract.sol\":5618:5672  stakers[msg.sender].timeOfLastUpdate = block.timestamp */\n      sstore\n        /* \"@openzeppelin/contracts/security/ReentrancyGuard.sol\":1701:1702   */\n      0x01\n        /* \"@openzeppelin/contracts/security/ReentrancyGuard.sol\":2628:2650   */\n      swap1\n      sstore\n      pop\n      pop\n      pop\n      pop\n      pop\n        /* \"StakingContract.sol\":3883:5680  function withdraw(uint256 _tokenId) external nonReentrant {... */\n      jump\t// out\n        /* \"StakingContract.sol\":5863:6249  function claimRewards() external {... */\n    tag_21:\n        /* \"StakingContract.sol\":5977:5987  msg.sender */\n      caller\n        /* \"StakingContract.sol\":5907:5922  uint256 rewards */\n      0x00\n        /* \"StakingContract.sol\":5969:5988  stakers[msg.sender] */\n      dup2\n      dup2\n      mstore\n        /* \"StakingContract.sol\":5969:5976  stakers */\n      0x02\n        /* \"StakingContract.sol\":5969:5988  stakers[msg.sender] */\n      0x20\n      mstore\n      0x40\n      dup2\n      keccak256\n        /* \"StakingContract.sol\":5969:6005  stakers[msg.sender].unclaimedRewards */\n      0x03\n      add\n      sload\n        /* \"StakingContract.sol\":5907:5922  uint256 rewards */\n      swap1\n      swap2\n        /* \"StakingContract.sol\":5925:5953  calculateRewards(msg.sender) */\n      tag_98\n      swap1\n        /* \"StakingContract.sol\":5925:5941  calculateRewards */\n      tag_70\n        /* \"StakingContract.sol\":5925:5953  calculateRewards(msg.sender) */\n      jump\t// in\n    tag_98:\n        /* \"StakingContract.sol\":5925:6005  calculateRewards(msg.sender) +... */\n      tag_99\n      swap2\n      swap1\n      tag_72\n      jump\t// in\n    tag_99:\n        /* \"StakingContract.sol\":5907:6005  uint256 rewards = calculateRewards(msg.sender) +... */\n      swap1\n      pop\n        /* \"StakingContract.sol\":6034:6035  0 */\n      0x00\n        /* \"StakingContract.sol\":6024:6031  rewards */\n      dup2\n        /* \"StakingContract.sol\":6024:6035  rewards > 0 */\n      gt\n        /* \"StakingContract.sol\":6016:6068  require(rewards > 0, \"You have no rewards to claim\") */\n      tag_100\n      jumpi\n      mload(0x40)\n      shl(0xe5, 0x461bcd)\n      dup2\n      mstore\n        /* \"#utility.yul\":5287:5289   */\n      0x20\n        /* \"StakingContract.sol\":6016:6068  require(rewards > 0, \"You have no rewards to claim\") */\n      0x04\n      dup3\n      add\n        /* \"#utility.yul\":5269:5290   */\n      mstore\n        /* \"#utility.yul\":5326:5328   */\n      0x1c\n        /* \"#utility.yul\":5306:5324   */\n      0x24\n      dup3\n      add\n        /* \"#utility.yul\":5299:5329   */\n      mstore\n        /* \"#utility.yul\":5365:5395   */\n      0x596f752068617665206e6f207265776172647320746f20636c61696d00000000\n        /* \"#utility.yul\":5345:5363   */\n      0x44\n      dup3\n      add\n        /* \"#utility.yul\":5338:5396   */\n      mstore\n        /* \"#utility.yul\":5413:5431   */\n      0x64\n      add\n        /* \"StakingContract.sol\":6016:6068  require(rewards > 0, \"You have no rewards to claim\") */\n      tag_60\n        /* \"#utility.yul\":5085:5437   */\n      jump\n        /* \"StakingContract.sol\":6016:6068  require(rewards > 0, \"You have no rewards to claim\") */\n    tag_100:\n        /* \"StakingContract.sol\":6087:6097  msg.sender */\n      caller\n        /* \"StakingContract.sol\":6079:6098  stakers[msg.sender] */\n      0x00\n      dup2\n      dup2\n      mstore\n        /* \"StakingContract.sol\":6079:6086  stakers */\n      0x02\n        /* \"StakingContract.sol\":6079:6098  stakers[msg.sender] */\n      0x20\n      dup2\n      swap1\n      mstore\n      0x40\n      dup3\n      keccak256\n        /* \"StakingContract.sol\":6118:6133  block.timestamp */\n      timestamp\n        /* \"StakingContract.sol\":6079:6115  stakers[msg.sender].timeOfLastUpdate */\n      swap2\n      dup2\n      add\n        /* \"StakingContract.sol\":6079:6133  stakers[msg.sender].timeOfLastUpdate = block.timestamp */\n      swap2\n      swap1\n      swap2\n      sstore\n        /* \"StakingContract.sol\":6144:6180  stakers[msg.sender].unclaimedRewards */\n      0x03\n      add\n        /* \"StakingContract.sol\":6144:6184  stakers[msg.sender].unclaimedRewards = 0 */\n      sstore\n        /* \"StakingContract.sol\":6195:6241  rewardsToken.safeTransfer(msg.sender, rewards) */\n      tag_103\n      swap1\n        /* \"StakingContract.sol\":6195:6207  rewardsToken */\n      immutable(\"0x89b941ac507936813383287e3bdf5ed02eb8ad2c46d6681eed1aed470bac2b05\")\n      sub(shl(0xa0, 0x01), 0x01)\n        /* \"StakingContract.sol\":6195:6220  rewardsToken.safeTransfer */\n      and\n      swap1\n        /* \"StakingContract.sol\":6233:6240  rewards */\n      dup4\n        /* \"StakingContract.sol\":6195:6220  rewardsToken.safeTransfer */\n      tag_104\n        /* \"StakingContract.sol\":6195:6241  rewardsToken.safeTransfer(msg.sender, rewards) */\n      jump\t// in\n    tag_103:\n        /* \"StakingContract.sol\":5896:6249  {... */\n      pop\n        /* \"StakingContract.sol\":5863:6249  function claimRewards() external {... */\n      jump\t// out\n        /* \"StakingContract.sol\":6524:7451  function getStakedTokens(address _user)... */\n    tag_29:\n      sub(shl(0xa0, 0x01), 0x01)\n        /* \"StakingContract.sol\":6693:6707  stakers[_user] */\n      dup2\n      and\n        /* \"StakingContract.sol\":6723:6724  0 */\n      0x00\n        /* \"StakingContract.sol\":6693:6707  stakers[_user] */\n      swap1\n      dup2\n      mstore\n        /* \"StakingContract.sol\":6693:6700  stakers */\n      0x02\n        /* \"StakingContract.sol\":6693:6707  stakers[_user] */\n      0x20\n      mstore\n      0x40\n      swap1\n      keccak256\n        /* \"StakingContract.sol\":6693:6720  stakers[_user].amountStaked */\n      sload\n        /* \"StakingContract.sol\":6612:6632  StakedToken[] memory */\n      0x60\n      swap1\n        /* \"StakingContract.sol\":6693:6724  stakers[_user].amountStaked > 0 */\n      iszero\n        /* \"StakingContract.sol\":6689:7444  if (stakers[_user].amountStaked > 0) {... */\n      tag_106\n      jumpi\n      sub(shl(0xa0, 0x01), 0x01)\n        /* \"StakingContract.sol\":6907:6921  stakers[_user] */\n      dup3\n      and\n        /* \"StakingContract.sol\":6834:6868  StakedToken[] memory _stakedTokens */\n      0x00\n        /* \"StakingContract.sol\":6907:6921  stakers[_user] */\n      swap1\n      dup2\n      mstore\n        /* \"StakingContract.sol\":6907:6914  stakers */\n      0x02\n        /* \"StakingContract.sol\":6907:6921  stakers[_user] */\n      0x20\n      mstore\n      0x40\n      dup2\n      keccak256\n        /* \"StakingContract.sol\":6907:6934  stakers[_user].amountStaked */\n      sload\n        /* \"StakingContract.sol\":6871:6949  new StakedToken[](... */\n      0xffffffffffffffff\n      dup2\n      gt\n      iszero\n      tag_108\n      jumpi\n      tag_108\n      tag_109\n      jump\t// in\n    tag_108:\n      mload(0x40)\n      swap1\n      dup1\n      dup3\n      mstore\n      dup1\n      0x20\n      mul\n      0x20\n      add\n      dup3\n      add\n      0x40\n      mstore\n      dup1\n      iszero\n      tag_110\n      jumpi\n      dup2\n      0x20\n      add\n    tag_111:\n      0x40\n      dup1\n      mload\n      dup1\n      dup3\n      add\n      swap1\n      swap2\n      mstore\n      0x00\n      dup1\n      dup3\n      mstore\n      0x20\n      dup3\n      add\n      mstore\n      dup2\n      mstore\n      0x20\n      add\n      swap1\n      0x01\n      swap1\n      sub\n      swap1\n      dup2\n      tag_111\n      jumpi\n      swap1\n      pop\n    tag_110:\n      pop\n        /* \"StakingContract.sol\":6834:6949  StakedToken[] memory _stakedTokens = new StakedToken[](... */\n      swap1\n      pop\n        /* \"StakingContract.sol\":6964:6978  uint256 _index */\n      0x00\n        /* \"StakingContract.sol\":7004:7013  uint256 j */\n      dup1\n        /* \"StakingContract.sol\":6999:7285  for (uint256 j = 0; j < stakers[_user].stakedTokens.length; j++) {... */\n    tag_114:\n      sub(shl(0xa0, 0x01), 0x01)\n        /* \"StakingContract.sol\":7023:7037  stakers[_user] */\n      dup6\n      and\n      0x00\n      swap1\n      dup2\n      mstore\n        /* \"StakingContract.sol\":7023:7030  stakers */\n      0x02\n        /* \"StakingContract.sol\":7023:7037  stakers[_user] */\n      0x20\n      mstore\n      0x40\n      swap1\n      keccak256\n        /* \"StakingContract.sol\":7023:7050  stakers[_user].stakedTokens */\n      0x01\n      add\n        /* \"StakingContract.sol\":7023:7057  stakers[_user].stakedTokens.length */\n      sload\n        /* \"StakingContract.sol\":7019:7057  j < stakers[_user].stakedTokens.length */\n      dup2\n      lt\n        /* \"StakingContract.sol\":6999:7285  for (uint256 j = 0; j < stakers[_user].stakedTokens.length; j++) {... */\n      iszero\n      tag_115\n      jumpi\n      sub(shl(0xa0, 0x01), 0x01)\n        /* \"StakingContract.sol\":7087:7101  stakers[_user] */\n      dup6\n      and\n        /* \"StakingContract.sol\":7137:7138  0 */\n      0x00\n        /* \"StakingContract.sol\":7087:7101  stakers[_user] */\n      swap1\n      dup2\n      mstore\n        /* \"StakingContract.sol\":7087:7094  stakers */\n      0x02\n        /* \"StakingContract.sol\":7087:7101  stakers[_user] */\n      0x20\n      mstore\n      0x40\n      dup2\n      keccak256\n        /* \"StakingContract.sol\":7087:7114  stakers[_user].stakedTokens */\n      0x01\n      add\n        /* \"StakingContract.sol\":7087:7117  stakers[_user].stakedTokens[j] */\n      dup1\n      sload\n        /* \"StakingContract.sol\":7115:7116  j */\n      dup4\n      swap1\n        /* \"StakingContract.sol\":7087:7117  stakers[_user].stakedTokens[j] */\n      dup2\n      lt\n      tag_118\n      jumpi\n      tag_118\n      tag_78\n      jump\t// in\n    tag_118:\n      0x00\n      swap2\n      dup3\n      mstore\n      0x20\n      swap1\n      swap2\n      keccak256\n      0x02\n      swap1\n      swap2\n      mul\n      add\n        /* \"StakingContract.sol\":7087:7124  stakers[_user].stakedTokens[j].staker */\n      sload\n      sub(shl(0xa0, 0x01), 0x01)\n      and\n        /* \"StakingContract.sol\":7087:7140  stakers[_user].stakedTokens[j].staker != (address(0)) */\n      eq\n        /* \"StakingContract.sol\":7083:7270  if (stakers[_user].stakedTokens[j].staker != (address(0))) {... */\n      tag_120\n      jumpi\n      sub(shl(0xa0, 0x01), 0x01)\n        /* \"StakingContract.sol\":7189:7203  stakers[_user] */\n      dup6\n      and\n      0x00\n      swap1\n      dup2\n      mstore\n        /* \"StakingContract.sol\":7189:7196  stakers */\n      0x02\n        /* \"StakingContract.sol\":7189:7203  stakers[_user] */\n      0x20\n      mstore\n      0x40\n      swap1\n      keccak256\n        /* \"StakingContract.sol\":7189:7216  stakers[_user].stakedTokens */\n      0x01\n      add\n        /* \"StakingContract.sol\":7189:7219  stakers[_user].stakedTokens[j] */\n      dup1\n      sload\n        /* \"StakingContract.sol\":7217:7218  j */\n      dup3\n      swap1\n        /* \"StakingContract.sol\":7189:7219  stakers[_user].stakedTokens[j] */\n      dup2\n      lt\n      tag_122\n      jumpi\n      tag_122\n      tag_78\n      jump\t// in\n    tag_122:\n      0x00\n      swap2\n      dup3\n      mstore\n      0x20\n      swap2\n      dup3\n      swap1\n      keccak256\n        /* \"StakingContract.sol\":7165:7219  _stakedTokens[_index] = stakers[_user].stakedTokens[j] */\n      0x40\n      dup1\n      mload\n      dup1\n      dup3\n      add\n      swap1\n      swap2\n      mstore\n        /* \"StakingContract.sol\":7189:7219  stakers[_user].stakedTokens[j] */\n      0x02\n      swap1\n      swap3\n      mul\n      add\n        /* \"StakingContract.sol\":7165:7219  _stakedTokens[_index] = stakers[_user].stakedTokens[j] */\n      dup1\n      sload\n      sub(shl(0xa0, 0x01), 0x01)\n      and\n      dup3\n      mstore\n      0x01\n      add\n      sload\n      swap2\n      dup2\n      add\n      swap2\n      swap1\n      swap2\n      mstore\n        /* \"StakingContract.sol\":7165:7186  _stakedTokens[_index] */\n      dup4\n      mload\n        /* \"StakingContract.sol\":7165:7178  _stakedTokens */\n      dup5\n      swap1\n        /* \"StakingContract.sol\":7179:7185  _index */\n      dup5\n      swap1\n        /* \"StakingContract.sol\":7165:7186  _stakedTokens[_index] */\n      dup2\n      lt\n      tag_125\n      jumpi\n      tag_125\n      tag_78\n      jump\t// in\n    tag_125:\n      0x20\n      mul\n      0x20\n      add\n      add\n        /* \"StakingContract.sol\":7165:7219  _stakedTokens[_index] = stakers[_user].stakedTokens[j] */\n      dup2\n      swap1\n      mstore\n      pop\n        /* \"StakingContract.sol\":7242:7250  _index++ */\n      dup2\n      dup1\n      tag_126\n      swap1\n      tag_86\n      jump\t// in\n    tag_126:\n      swap3\n      pop\n      pop\n        /* \"StakingContract.sol\":7083:7270  if (stakers[_user].stakedTokens[j].staker != (address(0))) {... */\n    tag_120:\n        /* \"StakingContract.sol\":7059:7062  j++ */\n      dup1\n      tag_127\n      dup2\n      tag_86\n      jump\t// in\n    tag_127:\n      swap2\n      pop\n      pop\n        /* \"StakingContract.sol\":6999:7285  for (uint256 j = 0; j < stakers[_user].stakedTokens.length; j++) {... */\n      jump(tag_114)\n    tag_115:\n      pop\n        /* \"StakingContract.sol\":7308:7321  _stakedTokens */\n      swap1\n      swap4\n        /* \"StakingContract.sol\":6524:7451  function getStakedTokens(address _user)... */\n      swap3\n      pop\n      pop\n      pop\n      jump\t// out\n        /* \"StakingContract.sol\":6689:7444  if (stakers[_user].amountStaked > 0) {... */\n    tag_106:\n        /* \"StakingContract.sol\":7412:7432  new StakedToken[](0) */\n      0x40\n      dup1\n      mload\n        /* \"StakingContract.sol\":7430:7431  0 */\n      0x00\n        /* \"StakingContract.sol\":7412:7432  new StakedToken[](0) */\n      dup1\n      dup3\n      mstore\n      0x20\n      dup3\n      add\n      swap1\n      swap3\n      mstore\n      swap1\n      jump(tag_131)\n    tag_132:\n      0x40\n      dup1\n      mload\n      dup1\n      dup3\n      add\n      swap1\n      swap2\n      mstore\n      0x00\n      dup1\n      dup3\n      mstore\n      0x20\n      dup3\n      add\n      mstore\n      dup2\n      mstore\n      0x20\n      add\n      swap1\n      0x01\n      swap1\n      sub\n      swap1\n      dup2\n      tag_132\n      jumpi\n      swap1\n      pop\n    tag_131:\n      pop\n        /* \"StakingContract.sol\":7405:7432  return new StakedToken[](0) */\n      swap3\n        /* \"StakingContract.sol\":6524:7451  function getStakedTokens(address _user)... */\n      swap2\n      pop\n      pop\n      jump\t// out\n        /* \"StakingContract.sol\":2383:3634  function stake(uint256 _tokenId) external nonReentrant {... */\n    tag_48:\n        /* \"@openzeppelin/contracts/security/ReentrancyGuard.sol\":1744:1745   */\n      0x02\n        /* \"@openzeppelin/contracts/security/ReentrancyGuard.sol\":2325:2332   */\n      sload(0x00)\n        /* \"@openzeppelin/contracts/security/ReentrancyGuard.sol\":2325:2344   */\n      sub\n        /* \"@openzeppelin/contracts/security/ReentrancyGuard.sol\":2317:2380   */\n      tag_135\n      jumpi\n      mload(0x40)\n      shl(0xe5, 0x461bcd)\n      dup2\n      mstore\n        /* \"#utility.yul\":3138:3140   */\n      0x20\n        /* \"@openzeppelin/contracts/security/ReentrancyGuard.sol\":2317:2380   */\n      0x04\n      dup3\n      add\n        /* \"#utility.yul\":3120:3141   */\n      mstore\n        /* \"#utility.yul\":3177:3179   */\n      0x1f\n        /* \"#utility.yul\":3157:3175   */\n      0x24\n      dup3\n      add\n        /* \"#utility.yul\":3150:3180   */\n      mstore\n        /* \"#utility.yul\":3216:3249   */\n      0x5265656e7472616e637947756172643a207265656e7472616e742063616c6c00\n        /* \"#utility.yul\":3196:3214   */\n      0x44\n      dup3\n      add\n        /* \"#utility.yul\":3189:3250   */\n      mstore\n        /* \"#utility.yul\":3267:3285   */\n      0x64\n      add\n        /* \"@openzeppelin/contracts/security/ReentrancyGuard.sol\":2317:2380   */\n      tag_60\n        /* \"#utility.yul\":2936:3291   */\n      jump\n        /* \"@openzeppelin/contracts/security/ReentrancyGuard.sol\":2317:2380   */\n    tag_135:\n        /* \"@openzeppelin/contracts/security/ReentrancyGuard.sol\":1744:1745   */\n      0x02\n        /* \"@openzeppelin/contracts/security/ReentrancyGuard.sol\":2455:2462   */\n      0x00\n        /* \"@openzeppelin/contracts/security/ReentrancyGuard.sol\":2455:2473   */\n      dup2\n      dup2\n      sstore\n        /* \"StakingContract.sol\":2552:2562  msg.sender */\n      caller\n        /* \"StakingContract.sol\":2544:2563  stakers[msg.sender] */\n      dup2\n      mstore\n      0x20\n      swap2\n      swap1\n      swap2\n      mstore\n      0x40\n      swap1\n      keccak256\n        /* \"StakingContract.sol\":2544:2576  stakers[msg.sender].amountStaked */\n      sload\n        /* \"StakingContract.sol\":2544:2580  stakers[msg.sender].amountStaked > 0 */\n      iszero\n        /* \"StakingContract.sol\":2540:2717  if (stakers[msg.sender].amountStaked > 0) {... */\n      tag_138\n      jumpi\n        /* \"StakingContract.sol\":2597:2612  uint256 rewards */\n      0x00\n        /* \"StakingContract.sol\":2615:2643  calculateRewards(msg.sender) */\n      tag_139\n        /* \"StakingContract.sol\":2632:2642  msg.sender */\n      caller\n        /* \"StakingContract.sol\":2615:2631  calculateRewards */\n      tag_70\n        /* \"StakingContract.sol\":2615:2643  calculateRewards(msg.sender) */\n      jump\t// in\n    tag_139:\n        /* \"StakingContract.sol\":2666:2676  msg.sender */\n      caller\n        /* \"StakingContract.sol\":2658:2677  stakers[msg.sender] */\n      0x00\n      swap1\n      dup2\n      mstore\n        /* \"StakingContract.sol\":2658:2665  stakers */\n      0x02\n        /* \"StakingContract.sol\":2658:2677  stakers[msg.sender] */\n      0x20\n      mstore\n      0x40\n      dup2\n      keccak256\n        /* \"StakingContract.sol\":2658:2694  stakers[msg.sender].unclaimedRewards */\n      0x03\n      add\n        /* \"StakingContract.sol\":2658:2705  stakers[msg.sender].unclaimedRewards += rewards */\n      dup1\n      sload\n        /* \"StakingContract.sol\":2597:2643  uint256 rewards = calculateRewards(msg.sender) */\n      swap3\n      swap4\n      pop\n      dup4\n      swap3\n        /* \"StakingContract.sol\":2658:2694  stakers[msg.sender].unclaimedRewards */\n      swap1\n      swap2\n        /* \"StakingContract.sol\":2658:2677  stakers[msg.sender] */\n      swap1\n        /* \"StakingContract.sol\":2658:2705  stakers[msg.sender].unclaimedRewards += rewards */\n      tag_140\n      swap1\n        /* \"StakingContract.sol\":2597:2643  uint256 rewards = calculateRewards(msg.sender) */\n      dup5\n      swap1\n        /* \"StakingContract.sol\":2658:2705  stakers[msg.sender].unclaimedRewards += rewards */\n      tag_72\n      jump\t// in\n    tag_140:\n      swap1\n      swap2\n      sstore\n      pop\n      pop\n      pop\n        /* \"StakingContract.sol\":2540:2717  if (stakers[msg.sender].amountStaked > 0) {... */\n    tag_138:\n        /* \"StakingContract.sol\":2814:2845  nftCollection.ownerOf(_tokenId) */\n      mload(0x40)\n      shl(0xe1, 0x31a9108f)\n      dup2\n      mstore\n      0x04\n      dup2\n      add\n        /* \"#utility.yul\":2900:2925   */\n      dup3\n      swap1\n      mstore\n        /* \"StakingContract.sol\":2849:2859  msg.sender */\n      caller\n      swap1\n      sub(shl(0xa0, 0x01), 0x01)\n        /* \"StakingContract.sol\":2814:2827  nftCollection */\n      immutable(\"0xc54ee332974d1c3b722bf69de0eb5376e86c76b9f8da5c925e6b0c3efd2d5979\")\n        /* \"StakingContract.sol\":2814:2835  nftCollection.ownerOf */\n      and\n      swap1\n      0x6352211e\n      swap1\n        /* \"#utility.yul\":2873:2891   */\n      0x24\n      add\n        /* \"StakingContract.sol\":2814:2845  nftCollection.ownerOf(_tokenId) */\n      0x20\n      mload(0x40)\n      dup1\n      dup4\n      sub\n      dup2\n      dup7\n      gas\n      staticcall\n      iszero\n      dup1\n      iszero\n      tag_143\n      jumpi\n      returndatasize\n      0x00\n      dup1\n      returndatacopy\n      revert(0x00, returndatasize)\n    tag_143:\n      pop\n      pop\n      pop\n      pop\n      mload(0x40)\n      returndatasize\n      not(0x1f)\n      0x1f\n      dup3\n      add\n      and\n      dup3\n      add\n      dup1\n      0x40\n      mstore\n      pop\n      dup2\n      add\n      swap1\n      tag_144\n      swap2\n      swap1\n      tag_145\n      jump\t// in\n    tag_144:\n      sub(shl(0xa0, 0x01), 0x01)\n        /* \"StakingContract.sol\":2814:2859  nftCollection.ownerOf(_tokenId) == msg.sender */\n      and\n      eq\n        /* \"StakingContract.sol\":2792:2912  require(... */\n      tag_146\n      jumpi\n      mload(0x40)\n      shl(0xe5, 0x461bcd)\n      dup2\n      mstore\n        /* \"#utility.yul\":3852:3854   */\n      0x20\n        /* \"StakingContract.sol\":2792:2912  require(... */\n      0x04\n      dup3\n      add\n        /* \"#utility.yul\":3834:3855   */\n      mstore\n        /* \"#utility.yul\":3891:3893   */\n      0x19\n        /* \"#utility.yul\":3871:3889   */\n      0x24\n      dup3\n      add\n        /* \"#utility.yul\":3864:3894   */\n      mstore\n        /* \"#utility.yul\":3930:3957   */\n      0x596f7520646f6e2774206f776e207468697320746f6b656e2100000000000000\n        /* \"#utility.yul\":3910:3928   */\n      0x44\n      dup3\n      add\n        /* \"#utility.yul\":3903:3958   */\n      mstore\n        /* \"#utility.yul\":3975:3993   */\n      0x64\n      add\n        /* \"StakingContract.sol\":2792:2912  require(... */\n      tag_60\n        /* \"#utility.yul\":3650:3999   */\n      jump\n        /* \"StakingContract.sol\":2792:2912  require(... */\n    tag_146:\n        /* \"StakingContract.sol\":2994:3057  nftCollection.transferFrom(msg.sender, address(this), _tokenId) */\n      mload(0x40)\n      shl(0xe0, 0x23b872dd)\n      dup2\n      mstore\n        /* \"StakingContract.sol\":3021:3031  msg.sender */\n      caller\n        /* \"StakingContract.sol\":2994:3057  nftCollection.transferFrom(msg.sender, address(this), _tokenId) */\n      0x04\n      dup3\n      add\n        /* \"#utility.yul\":4945:4979   */\n      mstore\n        /* \"StakingContract.sol\":3041:3045  this */\n      address\n        /* \"#utility.yul\":4995:5013   */\n      0x24\n      dup3\n      add\n        /* \"#utility.yul\":4988:5031   */\n      mstore\n        /* \"#utility.yul\":5047:5065   */\n      0x44\n      dup2\n      add\n        /* \"#utility.yul\":5040:5074   */\n      dup3\n      swap1\n      mstore\n        /* \"StakingContract.sol\":2994:3007  nftCollection */\n      immutable(\"0xc54ee332974d1c3b722bf69de0eb5376e86c76b9f8da5c925e6b0c3efd2d5979\")\n      sub(shl(0xa0, 0x01), 0x01)\n        /* \"StakingContract.sol\":2994:3020  nftCollection.transferFrom */\n      and\n      swap1\n      0x23b872dd\n      swap1\n        /* \"#utility.yul\":4857:4875   */\n      0x64\n      add\n        /* \"StakingContract.sol\":2994:3057  nftCollection.transferFrom(msg.sender, address(this), _tokenId) */\n      0x00\n      mload(0x40)\n      dup1\n      dup4\n      sub\n      dup2\n      0x00\n      dup8\n      dup1\n      extcodesize\n      iszero\n      dup1\n      iszero\n      tag_149\n      jumpi\n      0x00\n      dup1\n      revert\n    tag_149:\n      pop\n      gas\n      call\n      iszero\n      dup1\n      iszero\n      tag_151\n      jumpi\n      returndatasize\n      0x00\n      dup1\n      returndatacopy\n      revert(0x00, returndatasize)\n    tag_151:\n      pop\n      pop\n        /* \"StakingContract.sol\":3134:3167  StakedToken(msg.sender, _tokenId) */\n      0x40\n      dup1\n      mload\n      dup1\n      dup3\n      add\n      dup3\n      mstore\n        /* \"StakingContract.sol\":3146:3156  msg.sender */\n      caller\n        /* \"StakingContract.sol\":3134:3167  StakedToken(msg.sender, _tokenId) */\n      dup1\n      dup3\n      mstore\n      0x20\n      dup1\n      dup4\n      add\n      dup8\n      dup2\n      mstore\n      0x00\n        /* \"StakingContract.sol\":3232:3251  stakers[msg.sender] */\n      dup4\n      dup2\n      mstore\n        /* \"StakingContract.sol\":3232:3239  stakers */\n      0x02\n        /* \"StakingContract.sol\":3232:3251  stakers[msg.sender] */\n      dup1\n      dup5\n      mstore\n      swap6\n      dup2\n      keccak256\n        /* \"StakingContract.sol\":3232:3264  stakers[msg.sender].stakedTokens */\n      0x01\n      dup1\n      dup3\n      add\n        /* \"StakingContract.sol\":3232:3282  stakers[msg.sender].stakedTokens.push(stakedToken) */\n      dup1\n      sload\n      dup1\n      dup4\n      add\n      dup3\n      sstore\n      swap1\n      dup5\n      mstore\n      swap5\n      dup4\n      keccak256\n      dup8\n      mload\n      swap6\n      swap1\n      swap9\n      mul\n      swap1\n      swap8\n      add\n      dup1\n      sload\n      not(sub(shl(0xa0, 0x01), 0x01))\n      and\n      sub(shl(0xa0, 0x01), 0x01)\n      swap1\n      swap6\n      and\n      swap5\n      swap1\n      swap5\n      or\n      dup5\n      sstore\n      swap2\n      mload\n      swap3\n      swap1\n      swap6\n      add\n      swap2\n      swap1\n      swap2\n      sstore\n        /* \"StakingContract.sol\":3351:3370  stakers[msg.sender] */\n      swap1\n      dup4\n      mstore\n        /* \"StakingContract.sol\":3351:3385  stakers[msg.sender].amountStaked++ */\n      dup1\n      sload\n        /* \"StakingContract.sol\":3134:3167  StakedToken(msg.sender, _tokenId) */\n      swap2\n      swap5\n      pop\n        /* \"StakingContract.sol\":3351:3385  stakers[msg.sender].amountStaked++ */\n      swap1\n      swap3\n      pop\n        /* \"StakingContract.sol\":3232:3251  stakers[msg.sender] */\n      swap1\n        /* \"StakingContract.sol\":3351:3385  stakers[msg.sender].amountStaked++ */\n      tag_153\n      dup4\n      tag_86\n      jump\t// in\n    tag_153:\n      swap1\n      swap2\n      sstore\n      pop\n      pop\n      pop\n        /* \"StakingContract.sol\":3468:3491  stakerAddress[_tokenId] */\n      0x00\n      swap1\n      dup2\n      mstore\n        /* \"StakingContract.sol\":3468:3481  stakerAddress */\n      0x03\n        /* \"StakingContract.sol\":3468:3491  stakerAddress[_tokenId] */\n      0x20\n      swap1\n      dup2\n      mstore\n      0x40\n      dup1\n      dup4\n      keccak256\n        /* \"StakingContract.sol\":3468:3504  stakerAddress[_tokenId] = msg.sender */\n      dup1\n      sload\n      not(sub(shl(0xa0, 0x01), 0x01))\n      and\n        /* \"StakingContract.sol\":3494:3504  msg.sender */\n      caller\n        /* \"StakingContract.sol\":3468:3504  stakerAddress[_tokenId] = msg.sender */\n      swap1\n      dup2\n      or\n      swap1\n      swap2\n      sstore\n        /* \"StakingContract.sol\":3572:3591  stakers[msg.sender] */\n      dup4\n      mstore\n        /* \"StakingContract.sol\":3572:3579  stakers */\n      0x02\n        /* \"StakingContract.sol\":3572:3591  stakers[msg.sender] */\n      swap2\n      dup3\n      swap1\n      mstore\n      dup3\n      keccak256\n        /* \"StakingContract.sol\":3611:3626  block.timestamp */\n      timestamp\n        /* \"StakingContract.sol\":3572:3608  stakers[msg.sender].timeOfLastUpdate */\n      swap2\n      add\n        /* \"StakingContract.sol\":3572:3626  stakers[msg.sender].timeOfLastUpdate = block.timestamp */\n      sstore\n        /* \"StakingContract.sol\":3468:3504  stakerAddress[_tokenId] = msg.sender */\n      0x01\n        /* \"@openzeppelin/contracts/security/ReentrancyGuard.sol\":2628:2650   */\n      swap1\n      sstore\n        /* \"StakingContract.sol\":2383:3634  function stake(uint256 _tokenId) external nonReentrant {... */\n      jump\t// out\n        /* \"StakingContract.sol\":6307:6516  function availableRewards(address _staker) public view returns (uint256) {... */\n    tag_55:\n      sub(shl(0xa0, 0x01), 0x01)\n        /* \"StakingContract.sol\":6450:6466  stakers[_staker] */\n      dup2\n      and\n        /* \"StakingContract.sol\":6371:6378  uint256 */\n      0x00\n        /* \"StakingContract.sol\":6450:6466  stakers[_staker] */\n      swap1\n      dup2\n      mstore\n        /* \"StakingContract.sol\":6450:6457  stakers */\n      0x02\n        /* \"StakingContract.sol\":6450:6466  stakers[_staker] */\n      0x20\n      mstore\n      0x40\n      dup2\n      keccak256\n        /* \"StakingContract.sol\":6450:6483  stakers[_staker].unclaimedRewards */\n      0x03\n      add\n      sload\n        /* \"StakingContract.sol\":6371:6378  uint256 */\n      dup2\n      swap1\n        /* \"StakingContract.sol\":6409:6434  calculateRewards(_staker) */\n      tag_155\n        /* \"StakingContract.sol\":6458:6465  _staker */\n      dup5\n        /* \"StakingContract.sol\":6409:6425  calculateRewards */\n      tag_70\n        /* \"StakingContract.sol\":6409:6434  calculateRewards(_staker) */\n      jump\t// in\n    tag_155:\n        /* \"StakingContract.sol\":6409:6483  calculateRewards(_staker) +... */\n      tag_156\n      swap2\n      swap1\n      tag_72\n      jump\t// in\n    tag_156:\n        /* \"StakingContract.sol\":6391:6483  uint256 rewards = calculateRewards(_staker) +... */\n      swap4\n        /* \"StakingContract.sol\":6307:6516  function availableRewards(address _staker) public view returns (uint256) {... */\n      swap3\n      pop\n      pop\n      pop\n      jump\t// out\n        /* \"StakingContract.sol\":7699:8381  function calculateRewards(address _staker)... */\n    tag_70:\n        /* \"StakingContract.sol\":7856:7887  character.hunter_skill(_staker) */\n      mload(0x40)\n      shl(0xe0, 0xc6cc5105)\n      dup2\n      mstore\n      sub(shl(0xa0, 0x01), 0x01)\n        /* \"#utility.yul\":380:435   */\n      dup3\n      dup2\n      and\n        /* \"StakingContract.sol\":7856:7887  character.hunter_skill(_staker) */\n      0x04\n      dup4\n      add\n        /* \"#utility.yul\":362:436   */\n      mstore\n        /* \"StakingContract.sol\":7792:7808  uint256 _rewards */\n      0x00\n      swap2\n      dup3\n      swap2\n        /* \"StakingContract.sol\":7856:7865  character */\n      immutable(\"0xf63dd2532f4bb354c128345aafbf8d088267c0b2cdfe137c5864fa441df714ed\")\n        /* \"StakingContract.sol\":7856:7878  character.hunter_skill */\n      and\n      swap1\n      0xc6cc5105\n      swap1\n        /* \"#utility.yul\":335:353   */\n      0x24\n      add\n        /* \"StakingContract.sol\":7856:7887  character.hunter_skill(_staker) */\n      0x00\n      mload(0x40)\n      dup1\n      dup4\n      sub\n      dup2\n      dup7\n      gas\n      staticcall\n      iszero\n      dup1\n      iszero\n      tag_160\n      jumpi\n      returndatasize\n      0x00\n      dup1\n      returndatacopy\n      revert(0x00, returndatasize)\n    tag_160:\n      pop\n      pop\n      pop\n      pop\n      mload(0x40)\n      returndatasize\n      0x00\n      dup3\n      returndatacopy\n      0x1f\n      returndatasize\n      swap1\n      dup2\n      add\n      not(0x1f)\n      and\n      dup3\n      add\n      0x40\n      mstore\n      tag_161\n      swap2\n      swap1\n      dup2\n      add\n      swap1\n      tag_162\n      jump\t// in\n    tag_161:\n        /* \"StakingContract.sol\":7931:7995  character.hunter_skill_multiple(... */\n      mload(0x40)\n      shl(0xe0, 0x08572119)\n      dup2\n      mstore\n      sub(shl(0xa0, 0x01), 0x01)\n        /* \"#utility.yul\":380:435   */\n      dup6\n      dup2\n      and\n        /* \"StakingContract.sol\":7931:7995  character.hunter_skill_multiple(... */\n      0x04\n      dup4\n      add\n        /* \"#utility.yul\":362:436   */\n      mstore\n        /* \"StakingContract.sol\":7826:7887  uint256[] memory skillLevel = character.hunter_skill(_staker) */\n      swap2\n      swap3\n      pop\n        /* \"StakingContract.sol\":7898:7928  uint256[] memory skillMultiple */\n      0x00\n      swap2\n        /* \"StakingContract.sol\":7931:7940  character */\n      immutable(\"0xf63dd2532f4bb354c128345aafbf8d088267c0b2cdfe137c5864fa441df714ed\")\n        /* \"StakingContract.sol\":7931:7962  character.hunter_skill_multiple */\n      and\n      swap1\n      0x08572119\n      swap1\n        /* \"#utility.yul\":335:353   */\n      0x24\n      add\n        /* \"StakingContract.sol\":7931:7995  character.hunter_skill_multiple(... */\n      0x00\n      mload(0x40)\n      dup1\n      dup4\n      sub\n      dup2\n      dup7\n      gas\n      staticcall\n      iszero\n      dup1\n      iszero\n      tag_165\n      jumpi\n      returndatasize\n      0x00\n      dup1\n      returndatacopy\n      revert(0x00, returndatasize)\n    tag_165:\n      pop\n      pop\n      pop\n      pop\n      mload(0x40)\n      returndatasize\n      0x00\n      dup3\n      returndatacopy\n      0x1f\n      returndatasize\n      swap1\n      dup2\n      add\n      not(0x1f)\n      and\n      dup3\n      add\n      0x40\n      mstore\n      tag_166\n      swap2\n      swap1\n      dup2\n      add\n      swap1\n      tag_162\n      jump\t// in\n    tag_166:\n        /* \"StakingContract.sol\":7898:7995  uint256[] memory skillMultiple = character.hunter_skill_multiple(... */\n      swap1\n      pop\n        /* \"StakingContract.sol\":8006:8027  uint256 skillBonusSum */\n      0x00\n        /* \"StakingContract.sol\":8047:8056  uint256 i */\n      dup1\n        /* \"StakingContract.sol\":8042:8165  for (uint256 i = 0; i < 3; i++) {... */\n    tag_167:\n        /* \"StakingContract.sol\":8066:8067  3 */\n      0x03\n        /* \"StakingContract.sol\":8062:8063  i */\n      dup2\n        /* \"StakingContract.sol\":8062:8067  i < 3 */\n      lt\n        /* \"StakingContract.sol\":8042:8165  for (uint256 i = 0; i < 3; i++) {... */\n      iszero\n      tag_168\n      jumpi\n        /* \"StakingContract.sol\":8137:8150  skillMultiple */\n      dup3\n        /* \"StakingContract.sol\":8151:8152  i */\n      dup2\n        /* \"StakingContract.sol\":8137:8153  skillMultiple[i] */\n      dup2\n      mload\n      dup2\n      lt\n      tag_171\n      jumpi\n      tag_171\n      tag_78\n      jump\t// in\n    tag_171:\n      0x20\n      mul\n      0x20\n      add\n      add\n      mload\n        /* \"StakingContract.sol\":8121:8131  skillLevel */\n      dup5\n        /* \"StakingContract.sol\":8132:8133  i */\n      dup3\n        /* \"StakingContract.sol\":8121:8134  skillLevel[i] */\n      dup2\n      mload\n      dup2\n      lt\n      tag_173\n      jumpi\n      tag_173\n      tag_78\n      jump\t// in\n    tag_173:\n      0x20\n      mul\n      0x20\n      add\n      add\n      mload\n        /* \"StakingContract.sol\":8121:8153  skillLevel[i] * skillMultiple[i] */\n      tag_174\n      swap2\n      swap1\n      tag_175\n      jump\t// in\n    tag_174:\n        /* \"StakingContract.sol\":8105:8153  skillBonusSum + skillLevel[i] * skillMultiple[i] */\n      tag_176\n      swap1\n        /* \"StakingContract.sol\":8105:8118  skillBonusSum */\n      dup4\n        /* \"StakingContract.sol\":8105:8153  skillBonusSum + skillLevel[i] * skillMultiple[i] */\n      tag_72\n      jump\t// in\n    tag_176:\n        /* \"StakingContract.sol\":8089:8153  skillBonusSum = skillBonusSum + skillLevel[i] * skillMultiple[i] */\n      swap2\n      pop\n        /* \"StakingContract.sol\":8069:8072  i++ */\n      dup1\n      tag_177\n      dup2\n      tag_86\n      jump\t// in\n    tag_177:\n      swap2\n      pop\n      pop\n        /* \"StakingContract.sol\":8042:8165  for (uint256 i = 0; i < 3; i++) {... */\n      jump(tag_167)\n    tag_168:\n      pop\n        /* \"StakingContract.sol\":8350:8364  rewardsPerHour */\n      sload(0x01)\n      sub(shl(0xa0, 0x01), 0x01)\n        /* \"StakingContract.sol\":8306:8322  stakers[_staker] */\n      dup7\n      and\n      0x00\n      swap1\n      dup2\n      mstore\n        /* \"StakingContract.sol\":8306:8313  stakers */\n      0x02\n        /* \"StakingContract.sol\":8306:8322  stakers[_staker] */\n      0x20\n      dup2\n      swap1\n      mstore\n      0x40\n      swap1\n      swap2\n      keccak256\n        /* \"StakingContract.sol\":8306:8335  stakers[_staker].amountStaked */\n      dup1\n      sload\n        /* \"StakingContract.sol\":8219:8252  stakers[_staker].timeOfLastUpdate */\n      swap2\n      add\n      sload\n        /* \"StakingContract.sol\":8368:8372  3600 */\n      0x0e10\n      swap3\n        /* \"StakingContract.sol\":8350:8364  rewardsPerHour */\n      swap2\n        /* \"StakingContract.sol\":8306:8335  stakers[_staker].amountStaked */\n      swap1\n        /* \"StakingContract.sol\":8273:8286  skillBonusSum */\n      dup5\n      swap1\n        /* \"StakingContract.sol\":8201:8252  block.timestamp - stakers[_staker].timeOfLastUpdate */\n      tag_178\n      swap1\n        /* \"StakingContract.sol\":8201:8216  block.timestamp */\n      timestamp\n        /* \"StakingContract.sol\":8201:8252  block.timestamp - stakers[_staker].timeOfLastUpdate */\n      tag_179\n      jump\t// in\n    tag_178:\n        /* \"StakingContract.sol\":8200:8286  (block.timestamp - stakers[_staker].timeOfLastUpdate) *... */\n      tag_180\n      swap2\n      swap1\n      tag_175\n      jump\t// in\n    tag_180:\n        /* \"StakingContract.sol\":8200:8335  (block.timestamp - stakers[_staker].timeOfLastUpdate) *... */\n      tag_181\n      swap2\n      swap1\n      tag_175\n      jump\t// in\n    tag_181:\n        /* \"StakingContract.sol\":8184:8364  (... */\n      tag_182\n      swap2\n      swap1\n      tag_175\n      jump\t// in\n    tag_182:\n        /* \"StakingContract.sol\":8183:8372  ((... */\n      tag_183\n      swap2\n      swap1\n      tag_184\n      jump\t// in\n    tag_183:\n        /* \"StakingContract.sol\":8175:8373  return (((... */\n      swap6\n        /* \"StakingContract.sol\":7699:8381  function calculateRewards(address _staker)... */\n      swap5\n      pop\n      pop\n      pop\n      pop\n      pop\n      jump\t// out\n        /* \"@openzeppelin/contracts/token/ERC20/utils/SafeERC20.sol\":763:968   */\n    tag_104:\n        /* \"@openzeppelin/contracts/token/ERC20/utils/SafeERC20.sol\":902:960   */\n      0x40\n      dup1\n      mload\n      sub(shl(0xa0, 0x01), 0x01)\n        /* \"#utility.yul\":7657:7712   */\n      dup5\n      and\n        /* \"@openzeppelin/contracts/token/ERC20/utils/SafeERC20.sol\":902:960   */\n      0x24\n      dup3\n      add\n        /* \"#utility.yul\":7639:7713   */\n      mstore\n        /* \"#utility.yul\":7729:7747   */\n      0x44\n      dup1\n      dup3\n      add\n        /* \"#utility.yul\":7722:7756   */\n      dup5\n      swap1\n      mstore\n        /* \"@openzeppelin/contracts/token/ERC20/utils/SafeERC20.sol\":902:960   */\n      dup3\n      mload\n      dup1\n      dup4\n      sub\n      swap1\n      swap2\n      add\n      dup2\n      mstore\n        /* \"#utility.yul\":7612:7630   */\n      0x64\n      swap1\n      swap2\n      add\n        /* \"@openzeppelin/contracts/token/ERC20/utils/SafeERC20.sol\":902:960   */\n      swap1\n      swap2\n      mstore\n      0x20\n      dup2\n      add\n      dup1\n      mload\n      0xffffffffffffffffffffffffffffffffffffffffffffffffffffffff\n      and\n      shl(0xe0, 0xa9059cbb)\n      or\n      swap1\n      mstore\n        /* \"@openzeppelin/contracts/token/ERC20/utils/SafeERC20.sol\":875:961   */\n      tag_186\n      swap1\n        /* \"@openzeppelin/contracts/token/ERC20/utils/SafeERC20.sol\":895:900   */\n      dup5\n      swap1\n        /* \"@openzeppelin/contracts/token/ERC20/utils/SafeERC20.sol\":875:894   */\n      tag_189\n        /* \"@openzeppelin/contracts/token/ERC20/utils/SafeERC20.sol\":875:961   */\n      jump\t// in\n    tag_186:\n        /* \"@openzeppelin/contracts/token/ERC20/utils/SafeERC20.sol\":763:968   */\n      pop\n      pop\n      pop\n      jump\t// out\n        /* \"@openzeppelin/contracts/token/ERC20/utils/SafeERC20.sol\":3747:4453   */\n    tag_189:\n        /* \"@openzeppelin/contracts/token/ERC20/utils/SafeERC20.sol\":4166:4189   */\n      0x00\n        /* \"@openzeppelin/contracts/token/ERC20/utils/SafeERC20.sol\":4192:4261   */\n      tag_191\n        /* \"@openzeppelin/contracts/token/ERC20/utils/SafeERC20.sol\":4220:4224   */\n      dup3\n        /* \"@openzeppelin/contracts/token/ERC20/utils/SafeERC20.sol\":4192:4261   */\n      mload(0x40)\n      dup1\n      0x40\n      add\n      0x40\n      mstore\n      dup1\n      0x20\n      dup2\n      mstore\n      0x20\n      add\n      0x5361666545524332303a206c6f772d6c6576656c2063616c6c206661696c6564\n      dup2\n      mstore\n      pop\n        /* \"@openzeppelin/contracts/token/ERC20/utils/SafeERC20.sol\":4200:4205   */\n      dup6\n      sub(shl(0xa0, 0x01), 0x01)\n        /* \"@openzeppelin/contracts/token/ERC20/utils/SafeERC20.sol\":4192:4219   */\n      and\n      tag_192\n      swap1\n        /* \"@openzeppelin/contracts/token/ERC20/utils/SafeERC20.sol\":4192:4261   */\n      swap3\n      swap2\n      swap1\n      0xffffffff\n      and\n      jump\t// in\n    tag_191:\n        /* \"@openzeppelin/contracts/token/ERC20/utils/SafeERC20.sol\":4275:4292   */\n      dup1\n      mload\n        /* \"@openzeppelin/contracts/token/ERC20/utils/SafeERC20.sol\":4166:4261   */\n      swap1\n      swap2\n      pop\n        /* \"@openzeppelin/contracts/token/ERC20/utils/SafeERC20.sol\":4275:4296   */\n      iszero\n        /* \"@openzeppelin/contracts/token/ERC20/utils/SafeERC20.sol\":4271:4447   */\n      tag_186\n      jumpi\n        /* \"@openzeppelin/contracts/token/ERC20/utils/SafeERC20.sol\":4370:4380   */\n      dup1\n        /* \"@openzeppelin/contracts/token/ERC20/utils/SafeERC20.sol\":4359:4389   */\n      dup1\n      0x20\n      add\n      swap1\n      mload\n      dup2\n      add\n      swap1\n      tag_194\n      swap2\n      swap1\n      tag_195\n      jump\t// in\n    tag_194:\n        /* \"@openzeppelin/contracts/token/ERC20/utils/SafeERC20.sol\":4351:4436   */\n      tag_186\n      jumpi\n      mload(0x40)\n      shl(0xe5, 0x461bcd)\n      dup2\n      mstore\n        /* \"#utility.yul\":8251:8253   */\n      0x20\n        /* \"@openzeppelin/contracts/token/ERC20/utils/SafeERC20.sol\":4351:4436   */\n      0x04\n      dup3\n      add\n        /* \"#utility.yul\":8233:8254   */\n      mstore\n        /* \"#utility.yul\":8290:8292   */\n      0x2a\n        /* \"#utility.yul\":8270:8288   */\n      0x24\n      dup3\n      add\n        /* \"#utility.yul\":8263:8293   */\n      mstore\n        /* \"#utility.yul\":8329:8363   */\n      0x5361666545524332303a204552433230206f7065726174696f6e20646964206e\n        /* \"#utility.yul\":8309:8327   */\n      0x44\n      dup3\n      add\n        /* \"#utility.yul\":8302:8364   */\n      mstore\n        /* \"#utility.yul\":8400:8412   */\n      0x6f74207375636365656400000000000000000000000000000000000000000000\n        /* \"#utility.yul\":8380:8398   */\n      0x64\n      dup3\n      add\n        /* \"#utility.yul\":8373:8413   */\n      mstore\n        /* \"#utility.yul\":8430:8449   */\n      0x84\n      add\n        /* \"@openzeppelin/contracts/token/ERC20/utils/SafeERC20.sol\":4351:4436   */\n      tag_60\n        /* \"#utility.yul\":8049:8455   */\n      jump\n        /* \"@openzeppelin/contracts/utils/Address.sol\":3861:4084   */\n    tag_192:\n        /* \"@openzeppelin/contracts/utils/Address.sol\":3994:4006   */\n      0x60\n        /* \"@openzeppelin/contracts/utils/Address.sol\":4025:4077   */\n      tag_200\n        /* \"@openzeppelin/contracts/utils/Address.sol\":4047:4053   */\n      dup5\n        /* \"@openzeppelin/contracts/utils/Address.sol\":4055:4059   */\n      dup5\n        /* \"@openzeppelin/contracts/utils/Address.sol\":4061:4062   */\n      0x00\n        /* \"@openzeppelin/contracts/utils/Address.sol\":4064:4076   */\n      dup6\n        /* \"@openzeppelin/contracts/utils/Address.sol\":4025:4046   */\n      tag_201\n        /* \"@openzeppelin/contracts/utils/Address.sol\":4025:4077   */\n      jump\t// in\n    tag_200:\n        /* \"@openzeppelin/contracts/utils/Address.sol\":4018:4077   */\n      swap5\n        /* \"@openzeppelin/contracts/utils/Address.sol\":3861:4084   */\n      swap4\n      pop\n      pop\n      pop\n      pop\n      jump\t// out\n        /* \"@openzeppelin/contracts/utils/Address.sol\":4948:5447   */\n    tag_201:\n        /* \"@openzeppelin/contracts/utils/Address.sol\":5113:5125   */\n      0x60\n        /* \"@openzeppelin/contracts/utils/Address.sol\":5170:5175   */\n      dup3\n        /* \"@openzeppelin/contracts/utils/Address.sol\":5145:5166   */\n      selfbalance\n        /* \"@openzeppelin/contracts/utils/Address.sol\":5145:5175   */\n      lt\n      iszero\n        /* \"@openzeppelin/contracts/utils/Address.sol\":5137:5218   */\n      tag_203\n      jumpi\n      mload(0x40)\n      shl(0xe5, 0x461bcd)\n      dup2\n      mstore\n        /* \"#utility.yul\":8662:8664   */\n      0x20\n        /* \"@openzeppelin/contracts/utils/Address.sol\":5137:5218   */\n      0x04\n      dup3\n      add\n        /* \"#utility.yul\":8644:8665   */\n      mstore\n        /* \"#utility.yul\":8701:8703   */\n      0x26\n        /* \"#utility.yul\":8681:8699   */\n      0x24\n      dup3\n      add\n        /* \"#utility.yul\":8674:8704   */\n      mstore\n        /* \"#utility.yul\":8740:8774   */\n      0x416464726573733a20696e73756666696369656e742062616c616e636520666f\n        /* \"#utility.yul\":8720:8738   */\n      0x44\n      dup3\n      add\n        /* \"#utility.yul\":8713:8775   */\n      mstore\n        /* \"#utility.yul\":8811:8819   */\n      0x722063616c6c0000000000000000000000000000000000000000000000000000\n        /* \"#utility.yul\":8791:8809   */\n      0x64\n      dup3\n      add\n        /* \"#utility.yul\":8784:8820   */\n      mstore\n        /* \"#utility.yul\":8837:8856   */\n      0x84\n      add\n        /* \"@openzeppelin/contracts/utils/Address.sol\":5137:5218   */\n      tag_60\n        /* \"#utility.yul\":8460:8862   */\n      jump\n        /* \"@openzeppelin/contracts/utils/Address.sol\":5137:5218   */\n    tag_203:\n      sub(shl(0xa0, 0x01), 0x01)\n        /* \"@openzeppelin/contracts/utils/Address.sol\":1465:1484   */\n      dup6\n      and\n      extcodesize\n        /* \"@openzeppelin/contracts/utils/Address.sol\":5228:5288   */\n      tag_208\n      jumpi\n      mload(0x40)\n      shl(0xe5, 0x461bcd)\n      dup2\n      mstore\n        /* \"#utility.yul\":9069:9071   */\n      0x20\n        /* \"@openzeppelin/contracts/utils/Address.sol\":5228:5288   */\n      0x04\n      dup3\n      add\n        /* \"#utility.yul\":9051:9072   */\n      mstore\n        /* \"#utility.yul\":9108:9110   */\n      0x1d\n        /* \"#utility.yul\":9088:9106   */\n      0x24\n      dup3\n      add\n        /* \"#utility.yul\":9081:9111   */\n      mstore\n        /* \"#utility.yul\":9147:9178   */\n      0x416464726573733a2063616c6c20746f206e6f6e2d636f6e7472616374000000\n        /* \"#utility.yul\":9127:9145   */\n      0x44\n      dup3\n      add\n        /* \"#utility.yul\":9120:9179   */\n      mstore\n        /* \"#utility.yul\":9196:9214   */\n      0x64\n      add\n        /* \"@openzeppelin/contracts/utils/Address.sol\":5228:5288   */\n      tag_60\n        /* \"#utility.yul\":8867:9220   */\n      jump\n        /* \"@openzeppelin/contracts/utils/Address.sol\":5228:5288   */\n    tag_208:\n        /* \"@openzeppelin/contracts/utils/Address.sol\":5300:5312   */\n      0x00\n        /* \"@openzeppelin/contracts/utils/Address.sol\":5314:5337   */\n      dup1\n        /* \"@openzeppelin/contracts/utils/Address.sol\":5341:5347   */\n      dup7\n      sub(shl(0xa0, 0x01), 0x01)\n        /* \"@openzeppelin/contracts/utils/Address.sol\":5341:5352   */\n      and\n        /* \"@openzeppelin/contracts/utils/Address.sol\":5360:5365   */\n      dup6\n        /* \"@openzeppelin/contracts/utils/Address.sol\":5367:5371   */\n      dup8\n        /* \"@openzeppelin/contracts/utils/Address.sol\":5341:5372   */\n      mload(0x40)\n      tag_211\n      swap2\n      swap1\n      tag_212\n      jump\t// in\n    tag_211:\n      0x00\n      mload(0x40)\n      dup1\n      dup4\n      sub\n      dup2\n      dup6\n      dup8\n      gas\n      call\n      swap3\n      pop\n      pop\n      pop\n      returndatasize\n      dup1\n      0x00\n      dup2\n      eq\n      tag_215\n      jumpi\n      mload(0x40)\n      swap2\n      pop\n      and(add(returndatasize, 0x3f), not(0x1f))\n      dup3\n      add\n      0x40\n      mstore\n      returndatasize\n      dup3\n      mstore\n      returndatasize\n      0x00\n      0x20\n      dup5\n      add\n      returndatacopy\n      jump(tag_214)\n    tag_215:\n      0x60\n      swap2\n      pop\n    tag_214:\n      pop\n        /* \"@openzeppelin/contracts/utils/Address.sol\":5299:5372   */\n      swap2\n      pop\n      swap2\n      pop\n        /* \"@openzeppelin/contracts/utils/Address.sol\":5389:5440   */\n      tag_216\n        /* \"@openzeppelin/contracts/utils/Address.sol\":5406:5413   */\n      dup3\n        /* \"@openzeppelin/contracts/utils/Address.sol\":5415:5425   */\n      dup3\n        /* \"@openzeppelin/contracts/utils/Address.sol\":5427:5439   */\n      dup7\n        /* \"@openzeppelin/contracts/utils/Address.sol\":5389:5405   */\n      tag_217\n        /* \"@openzeppelin/contracts/utils/Address.sol\":5389:5440   */\n      jump\t// in\n    tag_216:\n        /* \"@openzeppelin/contracts/utils/Address.sol\":5382:5440   */\n      swap8\n        /* \"@openzeppelin/contracts/utils/Address.sol\":4948:5447   */\n      swap7\n      pop\n      pop\n      pop\n      pop\n      pop\n      pop\n      pop\n      jump\t// out\n        /* \"@openzeppelin/contracts/utils/Address.sol\":7561:8303   */\n    tag_217:\n        /* \"@openzeppelin/contracts/utils/Address.sol\":7707:7719   */\n      0x60\n        /* \"@openzeppelin/contracts/utils/Address.sol\":7735:7742   */\n      dup4\n        /* \"@openzeppelin/contracts/utils/Address.sol\":7731:8297   */\n      iszero\n      tag_220\n      jumpi\n      pop\n        /* \"@openzeppelin/contracts/utils/Address.sol\":7765:7775   */\n      dup2\n        /* \"@openzeppelin/contracts/utils/Address.sol\":7758:7775   */\n      jump(tag_156)\n        /* \"@openzeppelin/contracts/utils/Address.sol\":7731:8297   */\n    tag_220:\n        /* \"@openzeppelin/contracts/utils/Address.sol\":7876:7893   */\n      dup3\n      mload\n        /* \"@openzeppelin/contracts/utils/Address.sol\":7876:7897   */\n      iszero\n        /* \"@openzeppelin/contracts/utils/Address.sol\":7872:8287   */\n      tag_222\n      jumpi\n        /* \"@openzeppelin/contracts/utils/Address.sol\":8120:8130   */\n      dup3\n        /* \"@openzeppelin/contracts/utils/Address.sol\":8114:8131   */\n      mload\n        /* \"@openzeppelin/contracts/utils/Address.sol\":8180:8195   */\n      dup1\n        /* \"@openzeppelin/contracts/utils/Address.sol\":8167:8177   */\n      dup5\n        /* \"@openzeppelin/contracts/utils/Address.sol\":8163:8165   */\n      0x20\n        /* \"@openzeppelin/contracts/utils/Address.sol\":8159:8178   */\n      add\n        /* \"@openzeppelin/contracts/utils/Address.sol\":8152:8196   */\n      revert\n        /* \"@openzeppelin/contracts/utils/Address.sol\":7872:8287   */\n    tag_222:\n        /* \"@openzeppelin/contracts/utils/Address.sol\":8259:8271   */\n      dup2\n        /* \"@openzeppelin/contracts/utils/Address.sol\":8252:8272   */\n      mload(0x40)\n      shl(0xe5, 0x461bcd)\n      dup2\n      mstore\n      0x04\n      add\n      tag_60\n      swap2\n      swap1\n      tag_225\n      jump\t// in\n        /* \"#utility.yul\":14:194   */\n    tag_18:\n        /* \"#utility.yul\":73:79   */\n      0x00\n        /* \"#utility.yul\":126:128   */\n      0x20\n        /* \"#utility.yul\":114:123   */\n      dup3\n        /* \"#utility.yul\":105:112   */\n      dup5\n        /* \"#utility.yul\":101:124   */\n      sub\n        /* \"#utility.yul\":97:129   */\n      slt\n        /* \"#utility.yul\":94:146   */\n      iszero\n      tag_231\n      jumpi\n        /* \"#utility.yul\":142:143   */\n      0x00\n        /* \"#utility.yul\":139:140   */\n      dup1\n        /* \"#utility.yul\":132:144   */\n      revert\n        /* \"#utility.yul\":94:146   */\n    tag_231:\n      pop\n        /* \"#utility.yul\":165:188   */\n      calldataload\n      swap2\n        /* \"#utility.yul\":14:194   */\n      swap1\n      pop\n      jump\t// out\n        /* \"#utility.yul\":447:601   */\n    tag_226:\n      sub(shl(0xa0, 0x01), 0x01)\n        /* \"#utility.yul\":526:531   */\n      dup2\n        /* \"#utility.yul\":522:576   */\n      and\n        /* \"#utility.yul\":515:520   */\n      dup2\n        /* \"#utility.yul\":512:577   */\n      eq\n        /* \"#utility.yul\":502:595   */\n      tag_103\n      jumpi\n        /* \"#utility.yul\":591:592   */\n      0x00\n        /* \"#utility.yul\":588:589   */\n      dup1\n        /* \"#utility.yul\":581:593   */\n      revert\n        /* \"#utility.yul\":606:853   */\n    tag_28:\n        /* \"#utility.yul\":665:671   */\n      0x00\n        /* \"#utility.yul\":718:720   */\n      0x20\n        /* \"#utility.yul\":706:715   */\n      dup3\n        /* \"#utility.yul\":697:704   */\n      dup5\n        /* \"#utility.yul\":693:716   */\n      sub\n        /* \"#utility.yul\":689:721   */\n      slt\n        /* \"#utility.yul\":686:738   */\n      iszero\n      tag_236\n      jumpi\n        /* \"#utility.yul\":734:735   */\n      0x00\n        /* \"#utility.yul\":731:732   */\n      dup1\n        /* \"#utility.yul\":724:736   */\n      revert\n        /* \"#utility.yul\":686:738   */\n    tag_236:\n        /* \"#utility.yul\":773:782   */\n      dup2\n        /* \"#utility.yul\":760:783   */\n      calldataload\n        /* \"#utility.yul\":792:823   */\n      tag_156\n        /* \"#utility.yul\":817:822   */\n      dup2\n        /* \"#utility.yul\":792:823   */\n      tag_226\n      jump\t// in\n        /* \"#utility.yul\":858:1701   */\n    tag_31:\n        /* \"#utility.yul\":1085:1087   */\n      0x20\n        /* \"#utility.yul\":1137:1158   */\n      dup1\n      dup3\n      mstore\n        /* \"#utility.yul\":1207:1220   */\n      dup3\n      mload\n        /* \"#utility.yul\":1110:1128   */\n      dup3\n      dup3\n      add\n        /* \"#utility.yul\":1229:1251   */\n      dup2\n      swap1\n      mstore\n        /* \"#utility.yul\":1056:1060   */\n      0x00\n      swap2\n        /* \"#utility.yul\":1085:1087   */\n      swap1\n        /* \"#utility.yul\":1270:1272   */\n      0x40\n      swap1\n        /* \"#utility.yul\":1288:1306   */\n      dup2\n      dup6\n      add\n      swap1\n        /* \"#utility.yul\":1329:1344   */\n      dup7\n      dup5\n      add\n        /* \"#utility.yul\":1056:1060   */\n      dup6\n        /* \"#utility.yul\":1372:1675   */\n    tag_239:\n        /* \"#utility.yul\":1386:1392   */\n      dup3\n        /* \"#utility.yul\":1383:1384   */\n      dup2\n        /* \"#utility.yul\":1380:1393   */\n      lt\n        /* \"#utility.yul\":1372:1675   */\n      iszero\n      tag_241\n      jumpi\n        /* \"#utility.yul\":1445:1458   */\n      dup2\n      mload\n        /* \"#utility.yul\":1487:1496   */\n      dup1\n      mload\n      sub(shl(0xa0, 0x01), 0x01)\n        /* \"#utility.yul\":1483:1541   */\n      and\n        /* \"#utility.yul\":1471:1542   */\n      dup6\n      mstore\n        /* \"#utility.yul\":1582:1593   */\n      dup7\n      add\n        /* \"#utility.yul\":1576:1594   */\n      mload\n        /* \"#utility.yul\":1562:1574   */\n      dup7\n      dup6\n      add\n        /* \"#utility.yul\":1555:1595   */\n      mstore\n        /* \"#utility.yul\":1615:1627   */\n      swap3\n      dup5\n      add\n      swap3\n        /* \"#utility.yul\":1650:1665   */\n      swap1\n      dup6\n      add\n      swap1\n        /* \"#utility.yul\":1408:1409   */\n      0x01\n        /* \"#utility.yul\":1401:1410   */\n      add\n        /* \"#utility.yul\":1372:1675   */\n      jump(tag_239)\n    tag_241:\n      pop\n        /* \"#utility.yul\":1692:1695   */\n      swap2\n      swap8\n        /* \"#utility.yul\":858:1701   */\n      swap7\n      pop\n      pop\n      pop\n      pop\n      pop\n      pop\n      pop\n      jump\t// out\n        /* \"#utility.yul\":4004:4131   */\n    tag_227:\n        /* \"#utility.yul\":4065:4075   */\n      0x4e487b71\n        /* \"#utility.yul\":4060:4063   */\n      0xe0\n        /* \"#utility.yul\":4056:4076   */\n      shl\n        /* \"#utility.yul\":4053:4054   */\n      0x00\n        /* \"#utility.yul\":4046:4077   */\n      mstore\n        /* \"#utility.yul\":4096:4100   */\n      0x11\n        /* \"#utility.yul\":4093:4094   */\n      0x04\n        /* \"#utility.yul\":4086:4101   */\n      mstore\n        /* \"#utility.yul\":4120:4124   */\n      0x24\n        /* \"#utility.yul\":4117:4118   */\n      0x00\n        /* \"#utility.yul\":4110:4125   */\n      revert\n        /* \"#utility.yul\":4136:4264   */\n    tag_72:\n        /* \"#utility.yul\":4176:4179   */\n      0x00\n        /* \"#utility.yul\":4207:4208   */\n      dup3\n        /* \"#utility.yul\":4203:4209   */\n      not\n        /* \"#utility.yul\":4200:4201   */\n      dup3\n        /* \"#utility.yul\":4197:4210   */\n      gt\n        /* \"#utility.yul\":4194:4233   */\n      iszero\n      tag_253\n      jumpi\n        /* \"#utility.yul\":4213:4231   */\n      tag_253\n      tag_227\n      jump\t// in\n    tag_253:\n      pop\n        /* \"#utility.yul\":4249:4258   */\n      add\n      swap1\n        /* \"#utility.yul\":4136:4264   */\n      jump\t// out\n        /* \"#utility.yul\":4269:4396   */\n    tag_78:\n        /* \"#utility.yul\":4330:4340   */\n      0x4e487b71\n        /* \"#utility.yul\":4325:4328   */\n      0xe0\n        /* \"#utility.yul\":4321:4341   */\n      shl\n        /* \"#utility.yul\":4318:4319   */\n      0x00\n        /* \"#utility.yul\":4311:4342   */\n      mstore\n        /* \"#utility.yul\":4361:4365   */\n      0x32\n        /* \"#utility.yul\":4358:4359   */\n      0x04\n        /* \"#utility.yul\":4351:4366   */\n      mstore\n        /* \"#utility.yul\":4385:4389   */\n      0x24\n        /* \"#utility.yul\":4382:4383   */\n      0x00\n        /* \"#utility.yul\":4375:4390   */\n      revert\n        /* \"#utility.yul\":4401:4536   */\n    tag_86:\n        /* \"#utility.yul\":4440:4443   */\n      0x00\n        /* \"#utility.yul\":4461:4478   */\n      0x01\n      dup3\n      add\n        /* \"#utility.yul\":4458:4501   */\n      tag_257\n      jumpi\n        /* \"#utility.yul\":4481:4499   */\n      tag_257\n      tag_227\n      jump\t// in\n    tag_257:\n      pop\n        /* \"#utility.yul\":4528:4529   */\n      0x01\n        /* \"#utility.yul\":4517:4530   */\n      add\n      swap1\n        /* \"#utility.yul\":4401:4536   */\n      jump\t// out\n        /* \"#utility.yul\":4541:4677   */\n    tag_91:\n        /* \"#utility.yul\":4580:4583   */\n      0x00\n        /* \"#utility.yul\":4608:4613   */\n      dup2\n        /* \"#utility.yul\":4598:4637   */\n      tag_260\n      jumpi\n        /* \"#utility.yul\":4617:4635   */\n      tag_260\n      tag_227\n      jump\t// in\n    tag_260:\n      pop\n      not(0x00)\n        /* \"#utility.yul\":4653:4671   */\n      add\n      swap1\n        /* \"#utility.yul\":4541:4677   */\n      jump\t// out\n        /* \"#utility.yul\":5442:5569   */\n    tag_109:\n        /* \"#utility.yul\":5503:5513   */\n      0x4e487b71\n        /* \"#utility.yul\":5498:5501   */\n      0xe0\n        /* \"#utility.yul\":5494:5514   */\n      shl\n        /* \"#utility.yul\":5491:5492   */\n      0x00\n        /* \"#utility.yul\":5484:5515   */\n      mstore\n        /* \"#utility.yul\":5534:5538   */\n      0x41\n        /* \"#utility.yul\":5531:5532   */\n      0x04\n        /* \"#utility.yul\":5524:5539   */\n      mstore\n        /* \"#utility.yul\":5558:5562   */\n      0x24\n        /* \"#utility.yul\":5555:5556   */\n      0x00\n        /* \"#utility.yul\":5548:5563   */\n      revert\n        /* \"#utility.yul\":5574:5825   */\n    tag_145:\n        /* \"#utility.yul\":5644:5650   */\n      0x00\n        /* \"#utility.yul\":5697:5699   */\n      0x20\n        /* \"#utility.yul\":5685:5694   */\n      dup3\n        /* \"#utility.yul\":5676:5683   */\n      dup5\n        /* \"#utility.yul\":5672:5695   */\n      sub\n        /* \"#utility.yul\":5668:5700   */\n      slt\n        /* \"#utility.yul\":5665:5717   */\n      iszero\n      tag_265\n      jumpi\n        /* \"#utility.yul\":5713:5714   */\n      0x00\n        /* \"#utility.yul\":5710:5711   */\n      dup1\n        /* \"#utility.yul\":5703:5715   */\n      revert\n        /* \"#utility.yul\":5665:5717   */\n    tag_265:\n        /* \"#utility.yul\":5745:5754   */\n      dup2\n        /* \"#utility.yul\":5739:5755   */\n      mload\n        /* \"#utility.yul\":5764:5795   */\n      tag_156\n        /* \"#utility.yul\":5789:5794   */\n      dup2\n        /* \"#utility.yul\":5764:5795   */\n      tag_226\n      jump\t// in\n        /* \"#utility.yul\":5830:6935   */\n    tag_162:\n        /* \"#utility.yul\":5925:5931   */\n      0x00\n        /* \"#utility.yul\":5956:5958   */\n      0x20\n        /* \"#utility.yul\":5999:6001   */\n      dup1\n        /* \"#utility.yul\":5987:5996   */\n      dup4\n        /* \"#utility.yul\":5978:5985   */\n      dup6\n        /* \"#utility.yul\":5974:5997   */\n      sub\n        /* \"#utility.yul\":5970:6002   */\n      slt\n        /* \"#utility.yul\":5967:6019   */\n      iszero\n      tag_268\n      jumpi\n        /* \"#utility.yul\":6015:6016   */\n      0x00\n        /* \"#utility.yul\":6012:6013   */\n      dup1\n        /* \"#utility.yul\":6005:6017   */\n      revert\n        /* \"#utility.yul\":5967:6019   */\n    tag_268:\n        /* \"#utility.yul\":6048:6057   */\n      dup3\n        /* \"#utility.yul\":6042:6058   */\n      mload\n        /* \"#utility.yul\":6077:6095   */\n      0xffffffffffffffff\n        /* \"#utility.yul\":6118:6120   */\n      dup1\n        /* \"#utility.yul\":6110:6116   */\n      dup3\n        /* \"#utility.yul\":6107:6121   */\n      gt\n        /* \"#utility.yul\":6104:6138   */\n      iszero\n      tag_269\n      jumpi\n        /* \"#utility.yul\":6134:6135   */\n      0x00\n        /* \"#utility.yul\":6131:6132   */\n      dup1\n        /* \"#utility.yul\":6124:6136   */\n      revert\n        /* \"#utility.yul\":6104:6138   */\n    tag_269:\n        /* \"#utility.yul\":6172:6178   */\n      dup2\n        /* \"#utility.yul\":6161:6170   */\n      dup6\n        /* \"#utility.yul\":6157:6179   */\n      add\n        /* \"#utility.yul\":6147:6179   */\n      swap2\n      pop\n        /* \"#utility.yul\":6217:6224   */\n      dup6\n        /* \"#utility.yul\":6210:6214   */\n      0x1f\n        /* \"#utility.yul\":6206:6208   */\n      dup4\n        /* \"#utility.yul\":6202:6215   */\n      add\n        /* \"#utility.yul\":6198:6225   */\n      slt\n        /* \"#utility.yul\":6188:6243   */\n      tag_270\n      jumpi\n        /* \"#utility.yul\":6239:6240   */\n      0x00\n        /* \"#utility.yul\":6236:6237   */\n      dup1\n        /* \"#utility.yul\":6229:6241   */\n      revert\n        /* \"#utility.yul\":6188:6243   */\n    tag_270:\n        /* \"#utility.yul\":6268:6270   */\n      dup2\n        /* \"#utility.yul\":6262:6271   */\n      mload\n        /* \"#utility.yul\":6290:6292   */\n      dup2\n        /* \"#utility.yul\":6286:6288   */\n      dup2\n        /* \"#utility.yul\":6283:6293   */\n      gt\n        /* \"#utility.yul\":6280:6316   */\n      iszero\n      tag_272\n      jumpi\n        /* \"#utility.yul\":6296:6314   */\n      tag_272\n      tag_109\n      jump\t// in\n    tag_272:\n        /* \"#utility.yul\":6342:6344   */\n      dup1\n        /* \"#utility.yul\":6339:6340   */\n      0x05\n        /* \"#utility.yul\":6335:6345   */\n      shl\n        /* \"#utility.yul\":6374:6376   */\n      0x40\n        /* \"#utility.yul\":6368:6377   */\n      mload\n        /* \"#utility.yul\":6437:6439   */\n      0x1f\n        /* \"#utility.yul\":6433:6440   */\n      not\n        /* \"#utility.yul\":6428:6430   */\n      0x3f\n        /* \"#utility.yul\":6424:6426   */\n      dup4\n        /* \"#utility.yul\":6420:6431   */\n      add\n        /* \"#utility.yul\":6416:6441   */\n      and\n        /* \"#utility.yul\":6408:6414   */\n      dup2\n        /* \"#utility.yul\":6404:6442   */\n      add\n        /* \"#utility.yul\":6492:6498   */\n      dup2\n        /* \"#utility.yul\":6480:6490   */\n      dup2\n        /* \"#utility.yul\":6477:6499   */\n      lt\n        /* \"#utility.yul\":6472:6474   */\n      dup6\n        /* \"#utility.yul\":6460:6470   */\n      dup3\n        /* \"#utility.yul\":6457:6475   */\n      gt\n        /* \"#utility.yul\":6454:6500   */\n      or\n        /* \"#utility.yul\":6451:6523   */\n      iszero\n      tag_274\n      jumpi\n        /* \"#utility.yul\":6503:6521   */\n      tag_274\n      tag_109\n      jump\t// in\n    tag_274:\n        /* \"#utility.yul\":6539:6541   */\n      0x40\n        /* \"#utility.yul\":6532:6554   */\n      mstore\n        /* \"#utility.yul\":6589:6607   */\n      swap2\n      dup3\n      mstore\n        /* \"#utility.yul\":6623:6638   */\n      dup5\n      dup3\n      add\n      swap3\n      pop\n        /* \"#utility.yul\":6665:6676   */\n      dup4\n      dup2\n      add\n        /* \"#utility.yul\":6661:6681   */\n      dup6\n      add\n      swap2\n        /* \"#utility.yul\":6693:6712   */\n      dup9\n      dup4\n      gt\n        /* \"#utility.yul\":6690:6729   */\n      iszero\n      tag_275\n      jumpi\n        /* \"#utility.yul\":6725:6726   */\n      0x00\n        /* \"#utility.yul\":6722:6723   */\n      dup1\n        /* \"#utility.yul\":6715:6727   */\n      revert\n        /* \"#utility.yul\":6690:6729   */\n    tag_275:\n        /* \"#utility.yul\":6749:6760   */\n      swap4\n      dup6\n      add\n      swap4\n        /* \"#utility.yul\":6769:6904   */\n    tag_276:\n        /* \"#utility.yul\":6785:6791   */\n      dup3\n        /* \"#utility.yul\":6780:6783   */\n      dup6\n        /* \"#utility.yul\":6777:6792   */\n      lt\n        /* \"#utility.yul\":6769:6904   */\n      iszero\n      tag_278\n      jumpi\n        /* \"#utility.yul\":6851:6861   */\n      dup5\n      mload\n        /* \"#utility.yul\":6839:6862   */\n      dup5\n      mstore\n        /* \"#utility.yul\":6802:6814   */\n      swap4\n      dup6\n      add\n      swap4\n        /* \"#utility.yul\":6882:6894   */\n      swap3\n      dup6\n      add\n      swap3\n        /* \"#utility.yul\":6769:6904   */\n      jump(tag_276)\n    tag_278:\n        /* \"#utility.yul\":6923:6929   */\n      swap9\n        /* \"#utility.yul\":5830:6935   */\n      swap8\n      pop\n      pop\n      pop\n      pop\n      pop\n      pop\n      pop\n      pop\n      jump\t// out\n        /* \"#utility.yul\":6940:7108   */\n    tag_175:\n        /* \"#utility.yul\":6980:6987   */\n      0x00\n        /* \"#utility.yul\":7046:7047   */\n      dup2\n        /* \"#utility.yul\":7042:7043   */\n      0x00\n        /* \"#utility.yul\":7038:7044   */\n      not\n        /* \"#utility.yul\":7034:7048   */\n      div\n        /* \"#utility.yul\":7031:7032   */\n      dup4\n        /* \"#utility.yul\":7028:7049   */\n      gt\n        /* \"#utility.yul\":7023:7024   */\n      dup3\n        /* \"#utility.yul\":7016:7025   */\n      iszero\n        /* \"#utility.yul\":7009:7026   */\n      iszero\n        /* \"#utility.yul\":7005:7050   */\n      and\n        /* \"#utility.yul\":7002:7073   */\n      iszero\n      tag_281\n      jumpi\n        /* \"#utility.yul\":7053:7071   */\n      tag_281\n      tag_227\n      jump\t// in\n    tag_281:\n      pop\n        /* \"#utility.yul\":7093:7102   */\n      mul\n      swap1\n        /* \"#utility.yul\":6940:7108   */\n      jump\t// out\n        /* \"#utility.yul\":7113:7238   */\n    tag_179:\n        /* \"#utility.yul\":7153:7157   */\n      0x00\n        /* \"#utility.yul\":7181:7182   */\n      dup3\n        /* \"#utility.yul\":7178:7179   */\n      dup3\n        /* \"#utility.yul\":7175:7183   */\n      lt\n        /* \"#utility.yul\":7172:7206   */\n      iszero\n      tag_284\n      jumpi\n        /* \"#utility.yul\":7186:7204   */\n      tag_284\n      tag_227\n      jump\t// in\n    tag_284:\n      pop\n        /* \"#utility.yul\":7223:7232   */\n      sub\n      swap1\n        /* \"#utility.yul\":7113:7238   */\n      jump\t// out\n        /* \"#utility.yul\":7243:7460   */\n    tag_184:\n        /* \"#utility.yul\":7283:7284   */\n      0x00\n        /* \"#utility.yul\":7309:7310   */\n      dup3\n        /* \"#utility.yul\":7299:7431   */\n      tag_286\n      jumpi\n        /* \"#utility.yul\":7353:7363   */\n      0x4e487b71\n        /* \"#utility.yul\":7348:7351   */\n      0xe0\n        /* \"#utility.yul\":7344:7364   */\n      shl\n        /* \"#utility.yul\":7341:7342   */\n      0x00\n        /* \"#utility.yul\":7334:7365   */\n      mstore\n        /* \"#utility.yul\":7388:7392   */\n      0x12\n        /* \"#utility.yul\":7385:7386   */\n      0x04\n        /* \"#utility.yul\":7378:7393   */\n      mstore\n        /* \"#utility.yul\":7416:7420   */\n      0x24\n        /* \"#utility.yul\":7413:7414   */\n      0x00\n        /* \"#utility.yul\":7406:7421   */\n      revert\n        /* \"#utility.yul\":7299:7431   */\n    tag_286:\n      pop\n        /* \"#utility.yul\":7445:7454   */\n      div\n      swap1\n        /* \"#utility.yul\":7243:7460   */\n      jump\t// out\n        /* \"#utility.yul\":7767:8044   */\n    tag_195:\n        /* \"#utility.yul\":7834:7840   */\n      0x00\n        /* \"#utility.yul\":7887:7889   */\n      0x20\n        /* \"#utility.yul\":7875:7884   */\n      dup3\n        /* \"#utility.yul\":7866:7873   */\n      dup5\n        /* \"#utility.yul\":7862:7885   */\n      sub\n        /* \"#utility.yul\":7858:7890   */\n      slt\n        /* \"#utility.yul\":7855:7907   */\n      iszero\n      tag_289\n      jumpi\n        /* \"#utility.yul\":7903:7904   */\n      0x00\n        /* \"#utility.yul\":7900:7901   */\n      dup1\n        /* \"#utility.yul\":7893:7905   */\n      revert\n        /* \"#utility.yul\":7855:7907   */\n    tag_289:\n        /* \"#utility.yul\":7935:7944   */\n      dup2\n        /* \"#utility.yul\":7929:7945   */\n      mload\n        /* \"#utility.yul\":7988:7993   */\n      dup1\n        /* \"#utility.yul\":7981:7994   */\n      iszero\n        /* \"#utility.yul\":7974:7995   */\n      iszero\n        /* \"#utility.yul\":7967:7972   */\n      dup2\n        /* \"#utility.yul\":7964:7996   */\n      eq\n        /* \"#utility.yul\":7954:8014   */\n      tag_156\n      jumpi\n        /* \"#utility.yul\":8010:8011   */\n      0x00\n        /* \"#utility.yul\":8007:8008   */\n      dup1\n        /* \"#utility.yul\":8000:8012   */\n      revert\n        /* \"#utility.yul\":9225:9483   */\n    tag_228:\n        /* \"#utility.yul\":9297:9298   */\n      0x00\n        /* \"#utility.yul\":9307:9420   */\n    tag_295:\n        /* \"#utility.yul\":9321:9327   */\n      dup4\n        /* \"#utility.yul\":9318:9319   */\n      dup2\n        /* \"#utility.yul\":9315:9328   */\n      lt\n        /* \"#utility.yul\":9307:9420   */\n      iszero\n      tag_297\n      jumpi\n        /* \"#utility.yul\":9397:9408   */\n      dup2\n      dup2\n      add\n        /* \"#utility.yul\":9391:9409   */\n      mload\n        /* \"#utility.yul\":9378:9389   */\n      dup4\n      dup3\n      add\n        /* \"#utility.yul\":9371:9410   */\n      mstore\n        /* \"#utility.yul\":9343:9345   */\n      0x20\n        /* \"#utility.yul\":9336:9346   */\n      add\n        /* \"#utility.yul\":9307:9420   */\n      jump(tag_295)\n    tag_297:\n        /* \"#utility.yul\":9438:9444   */\n      dup4\n        /* \"#utility.yul\":9435:9436   */\n      dup2\n        /* \"#utility.yul\":9432:9445   */\n      gt\n        /* \"#utility.yul\":9429:9477   */\n      iszero\n      tag_298\n      jumpi\n        /* \"#utility.yul\":9473:9474   */\n      0x00\n        /* \"#utility.yul\":9464:9470   */\n      dup5\n        /* \"#utility.yul\":9459:9462   */\n      dup5\n        /* \"#utility.yul\":9455:9471   */\n      add\n        /* \"#utility.yul\":9448:9475   */\n      mstore\n        /* \"#utility.yul\":9429:9477   */\n    tag_298:\n      pop\n        /* \"#utility.yul\":9225:9483   */\n      pop\n      pop\n      pop\n      jump\t// out\n        /* \"#utility.yul\":9488:9762   */\n    tag_212:\n        /* \"#utility.yul\":9617:9620   */\n      0x00\n        /* \"#utility.yul\":9655:9661   */\n      dup3\n        /* \"#utility.yul\":9649:9662   */\n      mload\n        /* \"#utility.yul\":9671:9724   */\n      tag_300\n        /* \"#utility.yul\":9717:9723   */\n      dup2\n        /* \"#utility.yul\":9712:9715   */\n      dup5\n        /* \"#utility.yul\":9705:9709   */\n      0x20\n        /* \"#utility.yul\":9697:9703   */\n      dup8\n        /* \"#utility.yul\":9693:9710   */\n      add\n        /* \"#utility.yul\":9671:9724   */\n      tag_228\n      jump\t// in\n    tag_300:\n        /* \"#utility.yul\":9740:9756   */\n      swap2\n      swap1\n      swap2\n      add\n      swap3\n        /* \"#utility.yul\":9488:9762   */\n      swap2\n      pop\n      pop\n      jump\t// out\n        /* \"#utility.yul\":9767:10150   */\n    tag_225:\n        /* \"#utility.yul\":9916:9918   */\n      0x20\n        /* \"#utility.yul\":9905:9914   */\n      dup2\n        /* \"#utility.yul\":9898:9919   */\n      mstore\n        /* \"#utility.yul\":9879:9883   */\n      0x00\n        /* \"#utility.yul\":9948:9954   */\n      dup3\n        /* \"#utility.yul\":9942:9955   */\n      mload\n        /* \"#utility.yul\":9991:9997   */\n      dup1\n        /* \"#utility.yul\":9986:9988   */\n      0x20\n        /* \"#utility.yul\":9975:9984   */\n      dup5\n        /* \"#utility.yul\":9971:9989   */\n      add\n        /* \"#utility.yul\":9964:9998   */\n      mstore\n        /* \"#utility.yul\":10007:10073   */\n      tag_302\n        /* \"#utility.yul\":10066:10072   */\n      dup2\n        /* \"#utility.yul\":10061:10063   */\n      0x40\n        /* \"#utility.yul\":10050:10059   */\n      dup6\n        /* \"#utility.yul\":10046:10064   */\n      add\n        /* \"#utility.yul\":10041:10043   */\n      0x20\n        /* \"#utility.yul\":10033:10039   */\n      dup8\n        /* \"#utility.yul\":10029:10044   */\n      add\n        /* \"#utility.yul\":10007:10073   */\n      tag_228\n      jump\t// in\n    tag_302:\n        /* \"#utility.yul\":10134:10136   */\n      0x1f\n        /* \"#utility.yul\":10113:10128   */\n      add\n      not(0x1f)\n        /* \"#utility.yul\":10109:10138   */\n      and\n        /* \"#utility.yul\":10094:10139   */\n      swap2\n      swap1\n      swap2\n      add\n        /* \"#utility.yul\":10141:10143   */\n      0x40\n        /* \"#utility.yul\":10090:10144   */\n      add\n      swap3\n        /* \"#utility.yul\":9767:10150   */\n      swap2\n      pop\n      pop\n      jump\t// out\n\n    auxdata: 0xa264697066735822122023eaebe88090b6541d5655519ee546e058ffa1ae06e9c411e79597add630c9e564736f6c634300080d0033\n}\n",
    "bytecode": {
      "linkReferences": {},
      "object": "60e060405268c328093e61ee40000060015534801561001d57600080fd5b50604051620014753803806200147583398101604081905261003e91610078565b60016000556001600160a01b0392831660a0529082166080521660c0526100c5565b6001600160a01b038116811461007557600080fd5b50565b60008060006060848603121561008d57600080fd5b835161009881610060565b60208501519093506100a981610060565b60408501519092506100ba81610060565b809150509250925092565b60805160a05160c0516113576200011e6000396000818160e501528181610b620152610bf6015260008181610149015281816105020152818161090a01526109ed0152600081816101f5015261061901526113576000f3fe608060405234801561001057600080fd5b50600436106100be5760003560e01c80639168ae7211610076578063a694fc3a1161005b578063a694fc3a146101dd578063d1af0c7d146101f0578063f854a27f1461021757600080fd5b80639168ae721461016b57806394067045146101b457600080fd5b80634d2e03a0116100a75780634d2e03a0146100e057806363c28db1146101245780636588103b1461014457600080fd5b80632e1a7d4d146100c3578063372500ab146100d8575b600080fd5b6100d66100d1366004611020565b610238565b005b6100d661057c565b6101077f000000000000000000000000000000000000000000000000000000000000000081565b6040516001600160a01b0390911681526020015b60405180910390f35b61013761013236600461104e565b61064b565b60405161011b919061106b565b6101077f000000000000000000000000000000000000000000000000000000000000000081565b61019961017936600461104e565b600260208190526000918252604090912080549181015460039091015483565b6040805193845260208401929092529082015260600161011b565b6101076101c2366004611020565b6003602052600090815260409020546001600160a01b031681565b6100d66101eb366004611020565b610845565b6101077f000000000000000000000000000000000000000000000000000000000000000081565b61022a61022536600461104e565b610b06565b60405190815260200161011b565b60026000540361028f5760405162461bcd60e51b815260206004820152601f60248201527f5265656e7472616e637947756172643a207265656e7472616e742063616c6c0060448201526064015b60405180910390fd5b6002600081815533815260209190915260409020546102f05760405162461bcd60e51b815260206004820152601960248201527f596f752068617665206e6f20746f6b656e73207374616b6564000000000000006044820152606401610286565b6000818152600360205260409020546001600160a01b031633146103565760405162461bcd60e51b815260206004820152601960248201527f596f7520646f6e2774206f776e207468697320746f6b656e21000000000000006044820152606401610286565b600061036133610b3e565b336000908152600260205260408120600301805492935083929091906103889084906110d9565b9091555060009050805b3360009081526002602052604090206001015481101561044d573360009081526002602052604090206001018054859190839081106103d3576103d36110f1565b90600052602060002090600202016001015414801561042e5750336000908152600260205260408120600101805483908110610411576104116110f1565b60009182526020909120600290910201546001600160a01b031614155b1561043b5780915061044d565b8061044581611107565b915050610392565b50336000908152600260205260408120600101805483908110610472576104726110f1565b6000918252602080832060029283020180546001600160a01b0319166001600160a01b039590951694909417909355338252909152604081208054916104b783611120565b90915550506000838152600360205260409081902080546001600160a01b0319169055516323b872dd60e01b8152306004820152336024820152604481018490526001600160a01b037f000000000000000000000000000000000000000000000000000000000000000016906323b872dd90606401600060405180830381600087803b15801561054657600080fd5b505af115801561055a573d6000803e3d6000fd5b5050336000908152600260208190526040822042910155600190555050505050565b33600081815260026020526040812060030154909161059a90610b3e565b6105a491906110d9565b9050600081116105f65760405162461bcd60e51b815260206004820152601c60248201527f596f752068617665206e6f207265776172647320746f20636c61696d000000006044820152606401610286565b3360008181526002602081905260408220429181019190915560030155610648907f00000000000000000000000000000000000000000000000000000000000000006001600160a01b03169083610d37565b50565b6001600160a01b03811660009081526002602052604090205460609015610801576001600160a01b03821660009081526002602052604081205467ffffffffffffffff81111561069d5761069d611137565b6040519080825280602002602001820160405280156106e257816020015b60408051808201909152600080825260208201528152602001906001900390816106bb5790505b5090506000805b6001600160a01b0385166000908152600260205260409020600101548110156107f8576001600160a01b0385166000908152600260205260408120600101805483908110610739576107396110f1565b60009182526020909120600290910201546001600160a01b0316146107e6576001600160a01b0385166000908152600260205260409020600101805482908110610785576107856110f1565b60009182526020918290206040805180820190915260029092020180546001600160a01b03168252600101549181019190915283518490849081106107cc576107cc6110f1565b602002602001018190525081806107e290611107565b9250505b806107f081611107565b9150506106e9565b50909392505050565b604080516000808252602082019092529061083e565b60408051808201909152600080825260208201528152602001906001900390816108175790505b5092915050565b6002600054036108975760405162461bcd60e51b815260206004820152601f60248201527f5265656e7472616e637947756172643a207265656e7472616e742063616c6c006044820152606401610286565b600260008181553381526020919091526040902054156108ea5760006108bc33610b3e565b336000908152600260205260408120600301805492935083929091906108e39084906110d9565b9091555050505b6040516331a9108f60e11b81526004810182905233906001600160a01b037f00000000000000000000000000000000000000000000000000000000000000001690636352211e90602401602060405180830381865afa158015610951573d6000803e3d6000fd5b505050506040513d601f19601f82011682018060405250810190610975919061114d565b6001600160a01b0316146109cb5760405162461bcd60e51b815260206004820152601960248201527f596f7520646f6e2774206f776e207468697320746f6b656e21000000000000006044820152606401610286565b6040516323b872dd60e01b8152336004820152306024820152604481018290527f00000000000000000000000000000000000000000000000000000000000000006001600160a01b0316906323b872dd90606401600060405180830381600087803b158015610a3957600080fd5b505af1158015610a4d573d6000803e3d6000fd5b50506040805180820182523380825260208083018781526000838152600280845295812060018082018054808301825590845294832087519590980290970180546001600160a01b0319166001600160a01b0390951694909417845591519290950191909155908352805491945090925090610ac883611107565b909155505050600090815260036020908152604080832080546001600160a01b03191633908117909155835260029182905282204291015560019055565b6001600160a01b0381166000908152600260205260408120600301548190610b2d84610b3e565b610b3791906110d9565b9392505050565b60405163c6cc510560e01b81526001600160a01b03828116600483015260009182917f0000000000000000000000000000000000000000000000000000000000000000169063c6cc510590602401600060405180830381865afa158015610ba9573d6000803e3d6000fd5b505050506040513d6000823e601f3d908101601f19168201604052610bd1919081019061116a565b604051630857211960e01b81526001600160a01b0385811660048301529192506000917f00000000000000000000000000000000000000000000000000000000000000001690630857211990602401600060405180830381865afa158015610c3d573d6000803e3d6000fd5b505050506040513d6000823e601f3d908101601f19168201604052610c65919081019061116a565b90506000805b6003811015610cd057828181518110610c8657610c866110f1565b6020026020010151848281518110610ca057610ca06110f1565b6020026020010151610cb29190611228565b610cbc90836110d9565b915080610cc881611107565b915050610c6b565b506001546001600160a01b03861660009081526002602081905260409091208054910154610e109291908490610d069042611247565b610d109190611228565b610d1a9190611228565b610d249190611228565b610d2e919061125e565b95945050505050565b604080516001600160a01b038416602482015260448082018490528251808303909101815260649091019091526020810180517bffffffffffffffffffffffffffffffffffffffffffffffffffffffff1663a9059cbb60e01b179052610d9e908490610da3565b505050565b6000610df8826040518060400160405280602081526020017f5361666545524332303a206c6f772d6c6576656c2063616c6c206661696c6564815250856001600160a01b0316610e889092919063ffffffff16565b805190915015610d9e5780806020019051810190610e169190611280565b610d9e5760405162461bcd60e51b815260206004820152602a60248201527f5361666545524332303a204552433230206f7065726174696f6e20646964206e60448201527f6f742073756363656564000000000000000000000000000000000000000000006064820152608401610286565b6060610e978484600085610e9f565b949350505050565b606082471015610f175760405162461bcd60e51b815260206004820152602660248201527f416464726573733a20696e73756666696369656e742062616c616e636520666f60448201527f722063616c6c00000000000000000000000000000000000000000000000000006064820152608401610286565b6001600160a01b0385163b610f6e5760405162461bcd60e51b815260206004820152601d60248201527f416464726573733a2063616c6c20746f206e6f6e2d636f6e74726163740000006044820152606401610286565b600080866001600160a01b03168587604051610f8a91906112d2565b60006040518083038185875af1925050503d8060008114610fc7576040519150601f19603f3d011682016040523d82523d6000602084013e610fcc565b606091505b5091509150610fdc828286610fe7565b979650505050505050565b60608315610ff6575081610b37565b8251156110065782518084602001fd5b8160405162461bcd60e51b815260040161028691906112ee565b60006020828403121561103257600080fd5b5035919050565b6001600160a01b038116811461064857600080fd5b60006020828403121561106057600080fd5b8135610b3781611039565b602080825282518282018190526000919060409081850190868401855b828110156110b657815180516001600160a01b03168552860151868501529284019290850190600101611088565b5091979650505050505050565b634e487b7160e01b600052601160045260246000fd5b600082198211156110ec576110ec6110c3565b500190565b634e487b7160e01b600052603260045260246000fd5b600060018201611119576111196110c3565b5060010190565b60008161112f5761112f6110c3565b506000190190565b634e487b7160e01b600052604160045260246000fd5b60006020828403121561115f57600080fd5b8151610b3781611039565b6000602080838503121561117d57600080fd5b825167ffffffffffffffff8082111561119557600080fd5b818501915085601f8301126111a957600080fd5b8151818111156111bb576111bb611137565b8060051b604051601f19603f830116810181811085821117156111e0576111e0611137565b6040529182528482019250838101850191888311156111fe57600080fd5b938501935b8285101561121c57845184529385019392850192611203565b98975050505050505050565b6000816000190483118215151615611242576112426110c3565b500290565b600082821015611259576112596110c3565b500390565b60008261127b57634e487b7160e01b600052601260045260246000fd5b500490565b60006020828403121561129257600080fd5b81518015158114610b3757600080fd5b60005b838110156112bd5781810151838201526020016112a5565b838111156112cc576000848401525b50505050565b600082516112e48184602087016112a2565b9190910192915050565b602081526000825180602084015261130d8160408501602087016112a2565b601f01601f1916919091016040019291505056fea264697066735822122023eaebe88090b6541d5655519ee546e058ffa1ae06e9c411e79597add630c9e564736f6c634300080d0033",
      "opcodes": "PUSH1 0xE0 PUSH1 0x40 MSTORE PUSH9 0xC328093E61EE400000 PUSH1 0x1 SSTORE CALLVALUE DUP1 ISZERO PUSH2 0x1D JUMPI PUSH1 0x0 DUP1 REVERT JUMPDEST POP PUSH1 0x40 MLOAD PUSH3 0x1475 CODESIZE SUB DUP1 PUSH3 0x1475 DUP4 CODECOPY DUP2 ADD PUSH1 0x40 DUP2 SWAP1 MSTORE PUSH2 0x3E SWAP2 PUSH2 0x78 JUMP JUMPDEST PUSH1 0x1 PUSH1 0x0 SSTORE PUSH1 0x1 PUSH1 0x1 PUSH1 0xA0 SHL SUB SWAP3 DUP4 AND PUSH1 0xA0 MSTORE SWAP1 DUP3 AND PUSH1 0x80 MSTORE AND PUSH1 0xC0 MSTORE PUSH2 0xC5 JUMP JUMPDEST PUSH1 0x1 PUSH1 0x1 PUSH1 0xA0 SHL SUB DUP2 AND DUP2 EQ PUSH2 0x75 JUMPI PUSH1 0x0 DUP1 REVERT JUMPDEST POP JUMP JUMPDEST PUSH1 0x0 DUP1 PUSH1 0x0 PUSH1 0x60 DUP5 DUP7 SUB SLT ISZERO PUSH2 0x8D JUMPI PUSH1 0x0 DUP1 REVERT JUMPDEST DUP4 MLOAD PUSH2 0x98 DUP2 PUSH2 0x60 JUMP JUMPDEST PUSH1 0x20 DUP6 ADD MLOAD SWAP1 SWAP4 POP PUSH2 0xA9 DUP2 PUSH2 0x60 JUMP JUMPDEST PUSH1 0x40 DUP6 ADD MLOAD SWAP1 SWAP3 POP PUSH2 0xBA DUP2 PUSH2 0x60 JUMP JUMPDEST DUP1 SWAP2 POP POP SWAP3 POP SWAP3 POP SWAP3 JUMP JUMPDEST PUSH1 0x80 MLOAD PUSH1 0xA0 MLOAD PUSH1 0xC0 MLOAD PUSH2 0x1357 PUSH3 0x11E PUSH1 0x0 CODECOPY PUSH1 0x0 DUP2 DUP2 PUSH1 0xE5 ADD MSTORE DUP2 DUP2 PUSH2 0xB62 ADD MSTORE PUSH2 0xBF6 ADD MSTORE PUSH1 0x0 DUP2 DUP2 PUSH2 0x149 ADD MSTORE DUP2 DUP2 PUSH2 0x502 ADD MSTORE DUP2 DUP2 PUSH2 0x90A ADD MSTORE PUSH2 0x9ED ADD MSTORE PUSH1 0x0 DUP2 DUP2 PUSH2 0x1F5 ADD MSTORE PUSH2 0x619 ADD MSTORE PUSH2 0x1357 PUSH1 0x0 RETURN INVALID PUSH1 0x80 PUSH1 0x40 MSTORE CALLVALUE DUP1 ISZERO PUSH2 0x10 JUMPI PUSH1 0x0 DUP1 REVERT JUMPDEST POP PUSH1 0x4 CALLDATASIZE LT PUSH2 0xBE JUMPI PUSH1 0x0 CALLDATALOAD PUSH1 0xE0 SHR DUP1 PUSH4 0x9168AE72 GT PUSH2 0x76 JUMPI DUP1 PUSH4 0xA694FC3A GT PUSH2 0x5B JUMPI DUP1 PUSH4 0xA694FC3A EQ PUSH2 0x1DD JUMPI DUP1 PUSH4 0xD1AF0C7D EQ PUSH2 0x1F0 JUMPI DUP1 PUSH4 0xF854A27F EQ PUSH2 0x217 JUMPI PUSH1 0x0 DUP1 REVERT JUMPDEST DUP1 PUSH4 0x9168AE72 EQ PUSH2 0x16B JUMPI DUP1 PUSH4 0x94067045 EQ PUSH2 0x1B4 JUMPI PUSH1 0x0 DUP1 REVERT JUMPDEST DUP1 PUSH4 0x4D2E03A0 GT PUSH2 0xA7 JUMPI DUP1 PUSH4 0x4D2E03A0 EQ PUSH2 0xE0 JUMPI DUP1 PUSH4 0x63C28DB1 EQ PUSH2 0x124 JUMPI DUP1 PUSH4 0x6588103B EQ PUSH2 0x144 JUMPI PUSH1 0x0 DUP1 REVERT JUMPDEST DUP1 PUSH4 0x2E1A7D4D EQ PUSH2 0xC3 JUMPI DUP1 PUSH4 0x372500AB EQ PUSH2 0xD8 JUMPI JUMPDEST PUSH1 0x0 DUP1 REVERT JUMPDEST PUSH2 0xD6 PUSH2 0xD1 CALLDATASIZE PUSH1 0x4 PUSH2 0x1020 JUMP JUMPDEST PUSH2 0x238 JUMP JUMPDEST STOP JUMPDEST PUSH2 0xD6 PUSH2 0x57C JUMP JUMPDEST PUSH2 0x107 PUSH32 0x0 DUP2 JUMP JUMPDEST PUSH1 0x40 MLOAD PUSH1 0x1 PUSH1 0x1 PUSH1 0xA0 SHL SUB SWAP1 SWAP2 AND DUP2 MSTORE PUSH1 0x20 ADD JUMPDEST PUSH1 0x40 MLOAD DUP1 SWAP2 SUB SWAP1 RETURN JUMPDEST PUSH2 0x137 PUSH2 0x132 CALLDATASIZE PUSH1 0x4 PUSH2 0x104E JUMP JUMPDEST PUSH2 0x64B JUMP JUMPDEST PUSH1 0x40 MLOAD PUSH2 0x11B SWAP2 SWAP1 PUSH2 0x106B JUMP JUMPDEST PUSH2 0x107 PUSH32 0x0 DUP2 JUMP JUMPDEST PUSH2 0x199 PUSH2 0x179 CALLDATASIZE PUSH1 0x4 PUSH2 0x104E JUMP JUMPDEST PUSH1 0x2 PUSH1 0x20 DUP2 SWAP1 MSTORE PUSH1 0x0 SWAP2 DUP3 MSTORE PUSH1 0x40 SWAP1 SWAP2 KECCAK256 DUP1 SLOAD SWAP2 DUP2 ADD SLOAD PUSH1 0x3 SWAP1 SWAP2 ADD SLOAD DUP4 JUMP JUMPDEST PUSH1 0x40 DUP1 MLOAD SWAP4 DUP5 MSTORE PUSH1 0x20 DUP5 ADD SWAP3 SWAP1 SWAP3 MSTORE SWAP1 DUP3 ADD MSTORE PUSH1 0x60 ADD PUSH2 0x11B JUMP JUMPDEST PUSH2 0x107 PUSH2 0x1C2 CALLDATASIZE PUSH1 0x4 PUSH2 0x1020 JUMP JUMPDEST PUSH1 0x3 PUSH1 0x20 MSTORE PUSH1 0x0 SWAP1 DUP2 MSTORE PUSH1 0x40 SWAP1 KECCAK256 SLOAD PUSH1 0x1 PUSH1 0x1 PUSH1 0xA0 SHL SUB AND DUP2 JUMP JUMPDEST PUSH2 0xD6 PUSH2 0x1EB CALLDATASIZE PUSH1 0x4 PUSH2 0x1020 JUMP JUMPDEST PUSH2 0x845 JUMP JUMPDEST PUSH2 0x107 PUSH32 0x0 DUP2 JUMP JUMPDEST PUSH2 0x22A PUSH2 0x225 CALLDATASIZE PUSH1 0x4 PUSH2 0x104E JUMP JUMPDEST PUSH2 0xB06 JUMP JUMPDEST PUSH1 0x40 MLOAD SWAP1 DUP2 MSTORE PUSH1 0x20 ADD PUSH2 0x11B JUMP JUMPDEST PUSH1 0x2 PUSH1 0x0 SLOAD SUB PUSH2 0x28F JUMPI PUSH1 0x40 MLOAD PUSH3 0x461BCD PUSH1 0xE5 SHL DUP2 MSTORE PUSH1 0x20 PUSH1 0x4 DUP3 ADD MSTORE PUSH1 0x1F PUSH1 0x24 DUP3 ADD MSTORE PUSH32 0x5265656E7472616E637947756172643A207265656E7472616E742063616C6C00 PUSH1 0x44 DUP3 ADD MSTORE PUSH1 0x64 ADD JUMPDEST PUSH1 0x40 MLOAD DUP1 SWAP2 SUB SWAP1 REVERT JUMPDEST PUSH1 0x2 PUSH1 0x0 DUP2 DUP2 SSTORE CALLER DUP2 MSTORE PUSH1 0x20 SWAP2 SWAP1 SWAP2 MSTORE PUSH1 0x40 SWAP1 KECCAK256 SLOAD PUSH2 0x2F0 JUMPI PUSH1 0x40 MLOAD PUSH3 0x461BCD PUSH1 0xE5 SHL DUP2 MSTORE PUSH1 0x20 PUSH1 0x4 DUP3 ADD MSTORE PUSH1 0x19 PUSH1 0x24 DUP3 ADD MSTORE PUSH32 0x596F752068617665206E6F20746F6B656E73207374616B656400000000000000 PUSH1 0x44 DUP3 ADD MSTORE PUSH1 0x64 ADD PUSH2 0x286 JUMP JUMPDEST PUSH1 0x0 DUP2 DUP2 MSTORE PUSH1 0x3 PUSH1 0x20 MSTORE PUSH1 0x40 SWAP1 KECCAK256 SLOAD PUSH1 0x1 PUSH1 0x1 PUSH1 0xA0 SHL SUB AND CALLER EQ PUSH2 0x356 JUMPI PUSH1 0x40 MLOAD PUSH3 0x461BCD PUSH1 0xE5 SHL DUP2 MSTORE PUSH1 0x20 PUSH1 0x4 DUP3 ADD MSTORE PUSH1 0x19 PUSH1 0x24 DUP3 ADD MSTORE PUSH32 0x596F7520646F6E2774206F776E207468697320746F6B656E2100000000000000 PUSH1 0x44 DUP3 ADD MSTORE PUSH1 0x64 ADD PUSH2 0x286 JUMP JUMPDEST PUSH1 0x0 PUSH2 0x361 CALLER PUSH2 0xB3E JUMP JUMPDEST CALLER PUSH1 0x0 SWAP1 DUP2 MSTORE PUSH1 0x2 PUSH1 0x20 MSTORE PUSH1 0x40 DUP2 KECCAK256 PUSH1 0x3 ADD DUP1 SLOAD SWAP3 SWAP4 POP DUP4 SWAP3 SWAP1 SWAP2 SWAP1 PUSH2 0x388 SWAP1 DUP5 SWAP1 PUSH2 0x10D9 JUMP JUMPDEST SWAP1 SWAP2 SSTORE POP PUSH1 0x0 SWAP1 POP DUP1 JUMPDEST CALLER PUSH1 0x0 SWAP1 DUP2 MSTORE PUSH1 0x2 PUSH1 0x20 MSTORE PUSH1 0x40 SWAP1 KECCAK256 PUSH1 0x1 ADD SLOAD DUP2 LT ISZERO PUSH2 0x44D JUMPI CALLER PUSH1 0x0 SWAP1 DUP2 MSTORE PUSH1 0x2 PUSH1 0x20 MSTORE PUSH1 0x40 SWAP1 KECCAK256 PUSH1 0x1 ADD DUP1 SLOAD DUP6 SWAP2 SWAP1 DUP4 SWAP1 DUP2 LT PUSH2 0x3D3 JUMPI PUSH2 0x3D3 PUSH2 0x10F1 JUMP JUMPDEST SWAP1 PUSH1 0x0 MSTORE PUSH1 0x20 PUSH1 0x0 KECCAK256 SWAP1 PUSH1 0x2 MUL ADD PUSH1 0x1 ADD SLOAD EQ DUP1 ISZERO PUSH2 0x42E JUMPI POP CALLER PUSH1 0x0 SWAP1 DUP2 MSTORE PUSH1 0x2 PUSH1 0x20 MSTORE PUSH1 0x40 DUP2 KECCAK256 PUSH1 0x1 ADD DUP1 SLOAD DUP4 SWAP1 DUP2 LT PUSH2 0x411 JUMPI PUSH2 0x411 PUSH2 0x10F1 JUMP JUMPDEST PUSH1 0x0 SWAP2 DUP3 MSTORE PUSH1 0x20 SWAP1 SWAP2 KECCAK256 PUSH1 0x2 SWAP1 SWAP2 MUL ADD SLOAD PUSH1 0x1 PUSH1 0x1 PUSH1 0xA0 SHL SUB AND EQ ISZERO JUMPDEST ISZERO PUSH2 0x43B JUMPI DUP1 SWAP2 POP PUSH2 0x44D JUMP JUMPDEST DUP1 PUSH2 0x445 DUP2 PUSH2 0x1107 JUMP JUMPDEST SWAP2 POP POP PUSH2 0x392 JUMP JUMPDEST POP CALLER PUSH1 0x0 SWAP1 DUP2 MSTORE PUSH1 0x2 PUSH1 0x20 MSTORE PUSH1 0x40 DUP2 KECCAK256 PUSH1 0x1 ADD DUP1 SLOAD DUP4 SWAP1 DUP2 LT PUSH2 0x472 JUMPI PUSH2 0x472 PUSH2 0x10F1 JUMP JUMPDEST PUSH1 0x0 SWAP2 DUP3 MSTORE PUSH1 0x20 DUP1 DUP4 KECCAK256 PUSH1 0x2 SWAP3 DUP4 MUL ADD DUP1 SLOAD PUSH1 0x1 PUSH1 0x1 PUSH1 0xA0 SHL SUB NOT AND PUSH1 0x1 PUSH1 0x1 PUSH1 0xA0 SHL SUB SWAP6 SWAP1 SWAP6 AND SWAP5 SWAP1 SWAP5 OR SWAP1 SWAP4 SSTORE CALLER DUP3 MSTORE SWAP1 SWAP2 MSTORE PUSH1 0x40 DUP2 KECCAK256 DUP1 SLOAD SWAP2 PUSH2 0x4B7 DUP4 PUSH2 0x1120 JUMP JUMPDEST SWAP1 SWAP2 SSTORE POP POP PUSH1 0x0 DUP4 DUP2 MSTORE PUSH1 0x3 PUSH1 0x20 MSTORE PUSH1 0x40 SWAP1 DUP2 SWAP1 KECCAK256 DUP1 SLOAD PUSH1 0x1 PUSH1 0x1 PUSH1 0xA0 SHL SUB NOT AND SWAP1 SSTORE MLOAD PUSH4 0x23B872DD PUSH1 0xE0 SHL DUP2 MSTORE ADDRESS PUSH1 0x4 DUP3 ADD MSTORE CALLER PUSH1 0x24 DUP3 ADD MSTORE PUSH1 0x44 DUP2 ADD DUP5 SWAP1 MSTORE PUSH1 0x1 PUSH1 0x1 PUSH1 0xA0 SHL SUB PUSH32 0x0 AND SWAP1 PUSH4 0x23B872DD SWAP1 PUSH1 0x64 ADD PUSH1 0x0 PUSH1 0x40 MLOAD DUP1 DUP4 SUB DUP2 PUSH1 0x0 DUP8 DUP1 EXTCODESIZE ISZERO DUP1 ISZERO PUSH2 0x546 JUMPI PUSH1 0x0 DUP1 REVERT JUMPDEST POP GAS CALL ISZERO DUP1 ISZERO PUSH2 0x55A JUMPI RETURNDATASIZE PUSH1 0x0 DUP1 RETURNDATACOPY RETURNDATASIZE PUSH1 0x0 REVERT JUMPDEST POP POP CALLER PUSH1 0x0 SWAP1 DUP2 MSTORE PUSH1 0x2 PUSH1 0x20 DUP2 SWAP1 MSTORE PUSH1 0x40 DUP3 KECCAK256 TIMESTAMP SWAP2 ADD SSTORE PUSH1 0x1 SWAP1 SSTORE POP POP POP POP POP JUMP JUMPDEST CALLER PUSH1 0x0 DUP2 DUP2 MSTORE PUSH1 0x2 PUSH1 0x20 MSTORE PUSH1 0x40 DUP2 KECCAK256 PUSH1 0x3 ADD SLOAD SWAP1 SWAP2 PUSH2 0x59A SWAP1 PUSH2 0xB3E JUMP JUMPDEST PUSH2 0x5A4 SWAP2 SWAP1 PUSH2 0x10D9 JUMP JUMPDEST SWAP1 POP PUSH1 0x0 DUP2 GT PUSH2 0x5F6 JUMPI PUSH1 0x40 MLOAD PUSH3 0x461BCD PUSH1 0xE5 SHL DUP2 MSTORE PUSH1 0x20 PUSH1 0x4 DUP3 ADD MSTORE PUSH1 0x1C PUSH1 0x24 DUP3 ADD MSTORE PUSH32 0x596F752068617665206E6F207265776172647320746F20636C61696D00000000 PUSH1 0x44 DUP3 ADD MSTORE PUSH1 0x64 ADD PUSH2 0x286 JUMP JUMPDEST CALLER PUSH1 0x0 DUP2 DUP2 MSTORE PUSH1 0x2 PUSH1 0x20 DUP2 SWAP1 MSTORE PUSH1 0x40 DUP3 KECCAK256 TIMESTAMP SWAP2 DUP2 ADD SWAP2 SWAP1 SWAP2 SSTORE PUSH1 0x3 ADD SSTORE PUSH2 0x648 SWAP1 PUSH32 0x0 PUSH1 0x1 PUSH1 0x1 PUSH1 0xA0 SHL SUB AND SWAP1 DUP4 PUSH2 0xD37 JUMP JUMPDEST POP JUMP JUMPDEST PUSH1 0x1 PUSH1 0x1 PUSH1 0xA0 SHL SUB DUP2 AND PUSH1 0x0 SWAP1 DUP2 MSTORE PUSH1 0x2 PUSH1 0x20 MSTORE PUSH1 0x40 SWAP1 KECCAK256 SLOAD PUSH1 0x60 SWAP1 ISZERO PUSH2 0x801 JUMPI PUSH1 0x1 PUSH1 0x1 PUSH1 0xA0 SHL SUB DUP3 AND PUSH1 0x0 SWAP1 DUP2 MSTORE PUSH1 0x2 PUSH1 0x20 MSTORE PUSH1 0x40 DUP2 KECCAK256 SLOAD PUSH8 0xFFFFFFFFFFFFFFFF DUP2 GT ISZERO PUSH2 0x69D JUMPI PUSH2 0x69D PUSH2 0x1137 JUMP JUMPDEST PUSH1 0x40 MLOAD SWAP1 DUP1 DUP3 MSTORE DUP1 PUSH1 0x20 MUL PUSH1 0x20 ADD DUP3 ADD PUSH1 0x40 MSTORE DUP1 ISZERO PUSH2 0x6E2 JUMPI DUP2 PUSH1 0x20 ADD JUMPDEST PUSH1 0x40 DUP1 MLOAD DUP1 DUP3 ADD SWAP1 SWAP2 MSTORE PUSH1 0x0 DUP1 DUP3 MSTORE PUSH1 0x20 DUP3 ADD MSTORE DUP2 MSTORE PUSH1 0x20 ADD SWAP1 PUSH1 0x1 SWAP1 SUB SWAP1 DUP2 PUSH2 0x6BB JUMPI SWAP1 POP JUMPDEST POP SWAP1 POP PUSH1 0x0 DUP1 JUMPDEST PUSH1 0x1 PUSH1 0x1 PUSH1 0xA0 SHL SUB DUP6 AND PUSH1 0x0 SWAP1 DUP2 MSTORE PUSH1 0x2 PUSH1 0x20 MSTORE PUSH1 0x40 SWAP1 KECCAK256 PUSH1 0x1 ADD SLOAD DUP2 LT ISZERO PUSH2 0x7F8 JUMPI PUSH1 0x1 PUSH1 0x1 PUSH1 0xA0 SHL SUB DUP6 AND PUSH1 0x0 SWAP1 DUP2 MSTORE PUSH1 0x2 PUSH1 0x20 MSTORE PUSH1 0x40 DUP2 KECCAK256 PUSH1 0x1 ADD DUP1 SLOAD DUP4 SWAP1 DUP2 LT PUSH2 0x739 JUMPI PUSH2 0x739 PUSH2 0x10F1 JUMP JUMPDEST PUSH1 0x0 SWAP2 DUP3 MSTORE PUSH1 0x20 SWAP1 SWAP2 KECCAK256 PUSH1 0x2 SWAP1 SWAP2 MUL ADD SLOAD PUSH1 0x1 PUSH1 0x1 PUSH1 0xA0 SHL SUB AND EQ PUSH2 0x7E6 JUMPI PUSH1 0x1 PUSH1 0x1 PUSH1 0xA0 SHL SUB DUP6 AND PUSH1 0x0 SWAP1 DUP2 MSTORE PUSH1 0x2 PUSH1 0x20 MSTORE PUSH1 0x40 SWAP1 KECCAK256 PUSH1 0x1 ADD DUP1 SLOAD DUP3 SWAP1 DUP2 LT PUSH2 0x785 JUMPI PUSH2 0x785 PUSH2 0x10F1 JUMP JUMPDEST PUSH1 0x0 SWAP2 DUP3 MSTORE PUSH1 0x20 SWAP2 DUP3 SWAP1 KECCAK256 PUSH1 0x40 DUP1 MLOAD DUP1 DUP3 ADD SWAP1 SWAP2 MSTORE PUSH1 0x2 SWAP1 SWAP3 MUL ADD DUP1 SLOAD PUSH1 0x1 PUSH1 0x1 PUSH1 0xA0 SHL SUB AND DUP3 MSTORE PUSH1 0x1 ADD SLOAD SWAP2 DUP2 ADD SWAP2 SWAP1 SWAP2 MSTORE DUP4 MLOAD DUP5 SWAP1 DUP5 SWAP1 DUP2 LT PUSH2 0x7CC JUMPI PUSH2 0x7CC PUSH2 0x10F1 JUMP JUMPDEST PUSH1 0x20 MUL PUSH1 0x20 ADD ADD DUP2 SWAP1 MSTORE POP DUP2 DUP1 PUSH2 0x7E2 SWAP1 PUSH2 0x1107 JUMP JUMPDEST SWAP3 POP POP JUMPDEST DUP1 PUSH2 0x7F0 DUP2 PUSH2 0x1107 JUMP JUMPDEST SWAP2 POP POP PUSH2 0x6E9 JUMP JUMPDEST POP SWAP1 SWAP4 SWAP3 POP POP POP JUMP JUMPDEST PUSH1 0x40 DUP1 MLOAD PUSH1 0x0 DUP1 DUP3 MSTORE PUSH1 0x20 DUP3 ADD SWAP1 SWAP3 MSTORE SWAP1 PUSH2 0x83E JUMP JUMPDEST PUSH1 0x40 DUP1 MLOAD DUP1 DUP3 ADD SWAP1 SWAP2 MSTORE PUSH1 0x0 DUP1 DUP3 MSTORE PUSH1 0x20 DUP3 ADD MSTORE DUP2 MSTORE PUSH1 0x20 ADD SWAP1 PUSH1 0x1 SWAP1 SUB SWAP1 DUP2 PUSH2 0x817 JUMPI SWAP1 POP JUMPDEST POP SWAP3 SWAP2 POP POP JUMP JUMPDEST PUSH1 0x2 PUSH1 0x0 SLOAD SUB PUSH2 0x897 JUMPI PUSH1 0x40 MLOAD PUSH3 0x461BCD PUSH1 0xE5 SHL DUP2 MSTORE PUSH1 0x20 PUSH1 0x4 DUP3 ADD MSTORE PUSH1 0x1F PUSH1 0x24 DUP3 ADD MSTORE PUSH32 0x5265656E7472616E637947756172643A207265656E7472616E742063616C6C00 PUSH1 0x44 DUP3 ADD MSTORE PUSH1 0x64 ADD PUSH2 0x286 JUMP JUMPDEST PUSH1 0x2 PUSH1 0x0 DUP2 DUP2 SSTORE CALLER DUP2 MSTORE PUSH1 0x20 SWAP2 SWAP1 SWAP2 MSTORE PUSH1 0x40 SWAP1 KECCAK256 SLOAD ISZERO PUSH2 0x8EA JUMPI PUSH1 0x0 PUSH2 0x8BC CALLER PUSH2 0xB3E JUMP JUMPDEST CALLER PUSH1 0x0 SWAP1 DUP2 MSTORE PUSH1 0x2 PUSH1 0x20 MSTORE PUSH1 0x40 DUP2 KECCAK256 PUSH1 0x3 ADD DUP1 SLOAD SWAP3 SWAP4 POP DUP4 SWAP3 SWAP1 SWAP2 SWAP1 PUSH2 0x8E3 SWAP1 DUP5 SWAP1 PUSH2 0x10D9 JUMP JUMPDEST SWAP1 SWAP2 SSTORE POP POP POP JUMPDEST PUSH1 0x40 MLOAD PUSH4 0x31A9108F PUSH1 0xE1 SHL DUP2 MSTORE PUSH1 0x4 DUP2 ADD DUP3 SWAP1 MSTORE CALLER SWAP1 PUSH1 0x1 PUSH1 0x1 PUSH1 0xA0 SHL SUB PUSH32 0x0 AND SWAP1 PUSH4 0x6352211E SWAP1 PUSH1 0x24 ADD PUSH1 0x20 PUSH1 0x40 MLOAD DUP1 DUP4 SUB DUP2 DUP7 GAS STATICCALL ISZERO DUP1 ISZERO PUSH2 0x951 JUMPI RETURNDATASIZE PUSH1 0x0 DUP1 RETURNDATACOPY RETURNDATASIZE PUSH1 0x0 REVERT JUMPDEST POP POP POP POP PUSH1 0x40 MLOAD RETURNDATASIZE PUSH1 0x1F NOT PUSH1 0x1F DUP3 ADD AND DUP3 ADD DUP1 PUSH1 0x40 MSTORE POP DUP2 ADD SWAP1 PUSH2 0x975 SWAP2 SWAP1 PUSH2 0x114D JUMP JUMPDEST PUSH1 0x1 PUSH1 0x1 PUSH1 0xA0 SHL SUB AND EQ PUSH2 0x9CB JUMPI PUSH1 0x40 MLOAD PUSH3 0x461BCD PUSH1 0xE5 SHL DUP2 MSTORE PUSH1 0x20 PUSH1 0x4 DUP3 ADD MSTORE PUSH1 0x19 PUSH1 0x24 DUP3 ADD MSTORE PUSH32 0x596F7520646F6E2774206F776E207468697320746F6B656E2100000000000000 PUSH1 0x44 DUP3 ADD MSTORE PUSH1 0x64 ADD PUSH2 0x286 JUMP JUMPDEST PUSH1 0x40 MLOAD PUSH4 0x23B872DD PUSH1 0xE0 SHL DUP2 MSTORE CALLER PUSH1 0x4 DUP3 ADD MSTORE ADDRESS PUSH1 0x24 DUP3 ADD MSTORE PUSH1 0x44 DUP2 ADD DUP3 SWAP1 MSTORE PUSH32 0x0 PUSH1 0x1 PUSH1 0x1 PUSH1 0xA0 SHL SUB AND SWAP1 PUSH4 0x23B872DD SWAP1 PUSH1 0x64 ADD PUSH1 0x0 PUSH1 0x40 MLOAD DUP1 DUP4 SUB DUP2 PUSH1 0x0 DUP8 DUP1 EXTCODESIZE ISZERO DUP1 ISZERO PUSH2 0xA39 JUMPI PUSH1 0x0 DUP1 REVERT JUMPDEST POP GAS CALL ISZERO DUP1 ISZERO PUSH2 0xA4D JUMPI RETURNDATASIZE PUSH1 0x0 DUP1 RETURNDATACOPY RETURNDATASIZE PUSH1 0x0 REVERT JUMPDEST POP POP PUSH1 0x40 DUP1 MLOAD DUP1 DUP3 ADD DUP3 MSTORE CALLER DUP1 DUP3 MSTORE PUSH1 0x20 DUP1 DUP4 ADD DUP8 DUP2 MSTORE PUSH1 0x0 DUP4 DUP2 MSTORE PUSH1 0x2 DUP1 DUP5 MSTORE SWAP6 DUP2 KECCAK256 PUSH1 0x1 DUP1 DUP3 ADD DUP1 SLOAD DUP1 DUP4 ADD DUP3 SSTORE SWAP1 DUP5 MSTORE SWAP5 DUP4 KECCAK256 DUP8 MLOAD SWAP6 SWAP1 SWAP9 MUL SWAP1 SWAP8 ADD DUP1 SLOAD PUSH1 0x1 PUSH1 0x1 PUSH1 0xA0 SHL SUB NOT AND PUSH1 0x1 PUSH1 0x1 PUSH1 0xA0 SHL SUB SWAP1 SWAP6 AND SWAP5 SWAP1 SWAP5 OR DUP5 SSTORE SWAP2 MLOAD SWAP3 SWAP1 SWAP6 ADD SWAP2 SWAP1 SWAP2 SSTORE SWAP1 DUP4 MSTORE DUP1 SLOAD SWAP2 SWAP5 POP SWAP1 SWAP3 POP SWAP1 PUSH2 0xAC8 DUP4 PUSH2 0x1107 JUMP JUMPDEST SWAP1 SWAP2 SSTORE POP POP POP PUSH1 0x0 SWAP1 DUP2 MSTORE PUSH1 0x3 PUSH1 0x20 SWAP1 DUP2 MSTORE PUSH1 0x40 DUP1 DUP4 KECCAK256 DUP1 SLOAD PUSH1 0x1 PUSH1 0x1 PUSH1 0xA0 SHL SUB NOT AND CALLER SWAP1 DUP2 OR SWAP1 SWAP2 SSTORE DUP4 MSTORE PUSH1 0x2 SWAP2 DUP3 SWAP1 MSTORE DUP3 KECCAK256 TIMESTAMP SWAP2 ADD SSTORE PUSH1 0x1 SWAP1 SSTORE JUMP JUMPDEST PUSH1 0x1 PUSH1 0x1 PUSH1 0xA0 SHL SUB DUP2 AND PUSH1 0x0 SWAP1 DUP2 MSTORE PUSH1 0x2 PUSH1 0x20 MSTORE PUSH1 0x40 DUP2 KECCAK256 PUSH1 0x3 ADD SLOAD DUP2 SWAP1 PUSH2 0xB2D DUP5 PUSH2 0xB3E JUMP JUMPDEST PUSH2 0xB37 SWAP2 SWAP1 PUSH2 0x10D9 JUMP JUMPDEST SWAP4 SWAP3 POP POP POP JUMP JUMPDEST PUSH1 0x40 MLOAD PUSH4 0xC6CC5105 PUSH1 0xE0 SHL DUP2 MSTORE PUSH1 0x1 PUSH1 0x1 PUSH1 0xA0 SHL SUB DUP3 DUP2 AND PUSH1 0x4 DUP4 ADD MSTORE PUSH1 0x0 SWAP2 DUP3 SWAP2 PUSH32 0x0 AND SWAP1 PUSH4 0xC6CC5105 SWAP1 PUSH1 0x24 ADD PUSH1 0x0 PUSH1 0x40 MLOAD DUP1 DUP4 SUB DUP2 DUP7 GAS STATICCALL ISZERO DUP1 ISZERO PUSH2 0xBA9 JUMPI RETURNDATASIZE PUSH1 0x0 DUP1 RETURNDATACOPY RETURNDATASIZE PUSH1 0x0 REVERT JUMPDEST POP POP POP POP PUSH1 0x40 MLOAD RETURNDATASIZE PUSH1 0x0 DUP3 RETURNDATACOPY PUSH1 0x1F RETURNDATASIZE SWAP1 DUP2 ADD PUSH1 0x1F NOT AND DUP3 ADD PUSH1 0x40 MSTORE PUSH2 0xBD1 SWAP2 SWAP1 DUP2 ADD SWAP1 PUSH2 0x116A JUMP JUMPDEST PUSH1 0x40 MLOAD PUSH4 0x8572119 PUSH1 0xE0 SHL DUP2 MSTORE PUSH1 0x1 PUSH1 0x1 PUSH1 0xA0 SHL SUB DUP6 DUP2 AND PUSH1 0x4 DUP4 ADD MSTORE SWAP2 SWAP3 POP PUSH1 0x0 SWAP2 PUSH32 0x0 AND SWAP1 PUSH4 0x8572119 SWAP1 PUSH1 0x24 ADD PUSH1 0x0 PUSH1 0x40 MLOAD DUP1 DUP4 SUB DUP2 DUP7 GAS STATICCALL ISZERO DUP1 ISZERO PUSH2 0xC3D JUMPI RETURNDATASIZE PUSH1 0x0 DUP1 RETURNDATACOPY RETURNDATASIZE PUSH1 0x0 REVERT JUMPDEST POP POP POP POP PUSH1 0x40 MLOAD RETURNDATASIZE PUSH1 0x0 DUP3 RETURNDATACOPY PUSH1 0x1F RETURNDATASIZE SWAP1 DUP2 ADD PUSH1 0x1F NOT AND DUP3 ADD PUSH1 0x40 MSTORE PUSH2 0xC65 SWAP2 SWAP1 DUP2 ADD SWAP1 PUSH2 0x116A JUMP JUMPDEST SWAP1 POP PUSH1 0x0 DUP1 JUMPDEST PUSH1 0x3 DUP2 LT ISZERO PUSH2 0xCD0 JUMPI DUP3 DUP2 DUP2 MLOAD DUP2 LT PUSH2 0xC86 JUMPI PUSH2 0xC86 PUSH2 0x10F1 JUMP JUMPDEST PUSH1 0x20 MUL PUSH1 0x20 ADD ADD MLOAD DUP5 DUP3 DUP2 MLOAD DUP2 LT PUSH2 0xCA0 JUMPI PUSH2 0xCA0 PUSH2 0x10F1 JUMP JUMPDEST PUSH1 0x20 MUL PUSH1 0x20 ADD ADD MLOAD PUSH2 0xCB2 SWAP2 SWAP1 PUSH2 0x1228 JUMP JUMPDEST PUSH2 0xCBC SWAP1 DUP4 PUSH2 0x10D9 JUMP JUMPDEST SWAP2 POP DUP1 PUSH2 0xCC8 DUP2 PUSH2 0x1107 JUMP JUMPDEST SWAP2 POP POP PUSH2 0xC6B JUMP JUMPDEST POP PUSH1 0x1 SLOAD PUSH1 0x1 PUSH1 0x1 PUSH1 0xA0 SHL SUB DUP7 AND PUSH1 0x0 SWAP1 DUP2 MSTORE PUSH1 0x2 PUSH1 0x20 DUP2 SWAP1 MSTORE PUSH1 0x40 SWAP1 SWAP2 KECCAK256 DUP1 SLOAD SWAP2 ADD SLOAD PUSH2 0xE10 SWAP3 SWAP2 SWAP1 DUP5 SWAP1 PUSH2 0xD06 SWAP1 TIMESTAMP PUSH2 0x1247 JUMP JUMPDEST PUSH2 0xD10 SWAP2 SWAP1 PUSH2 0x1228 JUMP JUMPDEST PUSH2 0xD1A SWAP2 SWAP1 PUSH2 0x1228 JUMP JUMPDEST PUSH2 0xD24 SWAP2 SWAP1 PUSH2 0x1228 JUMP JUMPDEST PUSH2 0xD2E SWAP2 SWAP1 PUSH2 0x125E JUMP JUMPDEST SWAP6 SWAP5 POP POP POP POP POP JUMP JUMPDEST PUSH1 0x40 DUP1 MLOAD PUSH1 0x1 PUSH1 0x1 PUSH1 0xA0 SHL SUB DUP5 AND PUSH1 0x24 DUP3 ADD MSTORE PUSH1 0x44 DUP1 DUP3 ADD DUP5 SWAP1 MSTORE DUP3 MLOAD DUP1 DUP4 SUB SWAP1 SWAP2 ADD DUP2 MSTORE PUSH1 0x64 SWAP1 SWAP2 ADD SWAP1 SWAP2 MSTORE PUSH1 0x20 DUP2 ADD DUP1 MLOAD PUSH28 0xFFFFFFFFFFFFFFFFFFFFFFFFFFFFFFFFFFFFFFFFFFFFFFFFFFFFFFFF AND PUSH4 0xA9059CBB PUSH1 0xE0 SHL OR SWAP1 MSTORE PUSH2 0xD9E SWAP1 DUP5 SWAP1 PUSH2 0xDA3 JUMP JUMPDEST POP POP POP JUMP JUMPDEST PUSH1 0x0 PUSH2 0xDF8 DUP3 PUSH1 0x40 MLOAD DUP1 PUSH1 0x40 ADD PUSH1 0x40 MSTORE DUP1 PUSH1 0x20 DUP2 MSTORE PUSH1 0x20 ADD PUSH32 0x5361666545524332303A206C6F772D6C6576656C2063616C6C206661696C6564 DUP2 MSTORE POP DUP6 PUSH1 0x1 PUSH1 0x1 PUSH1 0xA0 SHL SUB AND PUSH2 0xE88 SWAP1 SWAP3 SWAP2 SWAP1 PUSH4 0xFFFFFFFF AND JUMP JUMPDEST DUP1 MLOAD SWAP1 SWAP2 POP ISZERO PUSH2 0xD9E JUMPI DUP1 DUP1 PUSH1 0x20 ADD SWAP1 MLOAD DUP2 ADD SWAP1 PUSH2 0xE16 SWAP2 SWAP1 PUSH2 0x1280 JUMP JUMPDEST PUSH2 0xD9E JUMPI PUSH1 0x40 MLOAD PUSH3 0x461BCD PUSH1 0xE5 SHL DUP2 MSTORE PUSH1 0x20 PUSH1 0x4 DUP3 ADD MSTORE PUSH1 0x2A PUSH1 0x24 DUP3 ADD MSTORE PUSH32 0x5361666545524332303A204552433230206F7065726174696F6E20646964206E PUSH1 0x44 DUP3 ADD MSTORE PUSH32 0x6F74207375636365656400000000000000000000000000000000000000000000 PUSH1 0x64 DUP3 ADD MSTORE PUSH1 0x84 ADD PUSH2 0x286 JUMP JUMPDEST PUSH1 0x60 PUSH2 0xE97 DUP5 DUP5 PUSH1 0x0 DUP6 PUSH2 0xE9F JUMP JUMPDEST SWAP5 SWAP4 POP POP POP POP JUMP JUMPDEST PUSH1 0x60 DUP3 SELFBALANCE LT ISZERO PUSH2 0xF17 JUMPI PUSH1 0x40 MLOAD PUSH3 0x461BCD PUSH1 0xE5 SHL DUP2 MSTORE PUSH1 0x20 PUSH1 0x4 DUP3 ADD MSTORE PUSH1 0x26 PUSH1 0x24 DUP3 ADD MSTORE PUSH32 0x416464726573733A20696E73756666696369656E742062616C616E636520666F PUSH1 0x44 DUP3 ADD MSTORE PUSH32 0x722063616C6C0000000000000000000000000000000000000000000000000000 PUSH1 0x64 DUP3 ADD MSTORE PUSH1 0x84 ADD PUSH2 0x286 JUMP JUMPDEST PUSH1 0x1 PUSH1 0x1 PUSH1 0xA0 SHL SUB DUP6 AND EXTCODESIZE PUSH2 0xF6E JUMPI PUSH1 0x40 MLOAD PUSH3 0x461BCD PUSH1 0xE5 SHL DUP2 MSTORE PUSH1 0x20 PUSH1 0x4 DUP3 ADD MSTORE PUSH1 0x1D PUSH1 0x24 DUP3 ADD MSTORE PUSH32 0x416464726573733A2063616C6C20746F206E6F6E2D636F6E7472616374000000 PUSH1 0x44 DUP3 ADD MSTORE PUSH1 0x64 ADD PUSH2 0x286 JUMP JUMPDEST PUSH1 0x0 DUP1 DUP7 PUSH1 0x1 PUSH1 0x1 PUSH1 0xA0 SHL SUB AND DUP6 DUP8 PUSH1 0x40 MLOAD PUSH2 0xF8A SWAP2 SWAP1 PUSH2 0x12D2 JUMP JUMPDEST PUSH1 0x0 PUSH1 0x40 MLOAD DUP1 DUP4 SUB DUP2 DUP6 DUP8 GAS CALL SWAP3 POP POP POP RETURNDATASIZE DUP1 PUSH1 0x0 DUP2 EQ PUSH2 0xFC7 JUMPI PUSH1 0x40 MLOAD SWAP2 POP PUSH1 0x1F NOT PUSH1 0x3F RETURNDATASIZE ADD AND DUP3 ADD PUSH1 0x40 MSTORE RETURNDATASIZE DUP3 MSTORE RETURNDATASIZE PUSH1 0x0 PUSH1 0x20 DUP5 ADD RETURNDATACOPY PUSH2 0xFCC JUMP JUMPDEST PUSH1 0x60 SWAP2 POP JUMPDEST POP SWAP2 POP SWAP2 POP PUSH2 0xFDC DUP3 DUP3 DUP7 PUSH2 0xFE7 JUMP JUMPDEST SWAP8 SWAP7 POP POP POP POP POP POP POP JUMP JUMPDEST PUSH1 0x60 DUP4 ISZERO PUSH2 0xFF6 JUMPI POP DUP2 PUSH2 0xB37 JUMP JUMPDEST DUP3 MLOAD ISZERO PUSH2 0x1006 JUMPI DUP3 MLOAD DUP1 DUP5 PUSH1 0x20 ADD REVERT JUMPDEST DUP2 PUSH1 0x40 MLOAD PUSH3 0x461BCD PUSH1 0xE5 SHL DUP2 MSTORE PUSH1 0x4 ADD PUSH2 0x286 SWAP2 SWAP1 PUSH2 0x12EE JUMP JUMPDEST PUSH1 0x0 PUSH1 0x20 DUP3 DUP5 SUB SLT ISZERO PUSH2 0x1032 JUMPI PUSH1 0x0 DUP1 REVERT JUMPDEST POP CALLDATALOAD SWAP2 SWAP1 POP JUMP JUMPDEST PUSH1 0x1 PUSH1 0x1 PUSH1 0xA0 SHL SUB DUP2 AND DUP2 EQ PUSH2 0x648 JUMPI PUSH1 0x0 DUP1 REVERT JUMPDEST PUSH1 0x0 PUSH1 0x20 DUP3 DUP5 SUB SLT ISZERO PUSH2 0x1060 JUMPI PUSH1 0x0 DUP1 REVERT JUMPDEST DUP2 CALLDATALOAD PUSH2 0xB37 DUP2 PUSH2 0x1039 JUMP JUMPDEST PUSH1 0x20 DUP1 DUP3 MSTORE DUP3 MLOAD DUP3 DUP3 ADD DUP2 SWAP1 MSTORE PUSH1 0x0 SWAP2 SWAP1 PUSH1 0x40 SWAP1 DUP2 DUP6 ADD SWAP1 DUP7 DUP5 ADD DUP6 JUMPDEST DUP3 DUP2 LT ISZERO PUSH2 0x10B6 JUMPI DUP2 MLOAD DUP1 MLOAD PUSH1 0x1 PUSH1 0x1 PUSH1 0xA0 SHL SUB AND DUP6 MSTORE DUP7 ADD MLOAD DUP7 DUP6 ADD MSTORE SWAP3 DUP5 ADD SWAP3 SWAP1 DUP6 ADD SWAP1 PUSH1 0x1 ADD PUSH2 0x1088 JUMP JUMPDEST POP SWAP2 SWAP8 SWAP7 POP POP POP POP POP POP POP JUMP JUMPDEST PUSH4 0x4E487B71 PUSH1 0xE0 SHL PUSH1 0x0 MSTORE PUSH1 0x11 PUSH1 0x4 MSTORE PUSH1 0x24 PUSH1 0x0 REVERT JUMPDEST PUSH1 0x0 DUP3 NOT DUP3 GT ISZERO PUSH2 0x10EC JUMPI PUSH2 0x10EC PUSH2 0x10C3 JUMP JUMPDEST POP ADD SWAP1 JUMP JUMPDEST PUSH4 0x4E487B71 PUSH1 0xE0 SHL PUSH1 0x0 MSTORE PUSH1 0x32 PUSH1 0x4 MSTORE PUSH1 0x24 PUSH1 0x0 REVERT JUMPDEST PUSH1 0x0 PUSH1 0x1 DUP3 ADD PUSH2 0x1119 JUMPI PUSH2 0x1119 PUSH2 0x10C3 JUMP JUMPDEST POP PUSH1 0x1 ADD SWAP1 JUMP JUMPDEST PUSH1 0x0 DUP2 PUSH2 0x112F JUMPI PUSH2 0x112F PUSH2 0x10C3 JUMP JUMPDEST POP PUSH1 0x0 NOT ADD SWAP1 JUMP JUMPDEST PUSH4 0x4E487B71 PUSH1 0xE0 SHL PUSH1 0x0 MSTORE PUSH1 0x41 PUSH1 0x4 MSTORE PUSH1 0x24 PUSH1 0x0 REVERT JUMPDEST PUSH1 0x0 PUSH1 0x20 DUP3 DUP5 SUB SLT ISZERO PUSH2 0x115F JUMPI PUSH1 0x0 DUP1 REVERT JUMPDEST DUP2 MLOAD PUSH2 0xB37 DUP2 PUSH2 0x1039 JUMP JUMPDEST PUSH1 0x0 PUSH1 0x20 DUP1 DUP4 DUP6 SUB SLT ISZERO PUSH2 0x117D JUMPI PUSH1 0x0 DUP1 REVERT JUMPDEST DUP3 MLOAD PUSH8 0xFFFFFFFFFFFFFFFF DUP1 DUP3 GT ISZERO PUSH2 0x1195 JUMPI PUSH1 0x0 DUP1 REVERT JUMPDEST DUP2 DUP6 ADD SWAP2 POP DUP6 PUSH1 0x1F DUP4 ADD SLT PUSH2 0x11A9 JUMPI PUSH1 0x0 DUP1 REVERT JUMPDEST DUP2 MLOAD DUP2 DUP2 GT ISZERO PUSH2 0x11BB JUMPI PUSH2 0x11BB PUSH2 0x1137 JUMP JUMPDEST DUP1 PUSH1 0x5 SHL PUSH1 0x40 MLOAD PUSH1 0x1F NOT PUSH1 0x3F DUP4 ADD AND DUP2 ADD DUP2 DUP2 LT DUP6 DUP3 GT OR ISZERO PUSH2 0x11E0 JUMPI PUSH2 0x11E0 PUSH2 0x1137 JUMP JUMPDEST PUSH1 0x40 MSTORE SWAP2 DUP3 MSTORE DUP5 DUP3 ADD SWAP3 POP DUP4 DUP2 ADD DUP6 ADD SWAP2 DUP9 DUP4 GT ISZERO PUSH2 0x11FE JUMPI PUSH1 0x0 DUP1 REVERT JUMPDEST SWAP4 DUP6 ADD SWAP4 JUMPDEST DUP3 DUP6 LT ISZERO PUSH2 0x121C JUMPI DUP5 MLOAD DUP5 MSTORE SWAP4 DUP6 ADD SWAP4 SWAP3 DUP6 ADD SWAP3 PUSH2 0x1203 JUMP JUMPDEST SWAP9 SWAP8 POP POP POP POP POP POP POP POP JUMP JUMPDEST PUSH1 0x0 DUP2 PUSH1 0x0 NOT DIV DUP4 GT DUP3 ISZERO ISZERO AND ISZERO PUSH2 0x1242 JUMPI PUSH2 0x1242 PUSH2 0x10C3 JUMP JUMPDEST POP MUL SWAP1 JUMP JUMPDEST PUSH1 0x0 DUP3 DUP3 LT ISZERO PUSH2 0x1259 JUMPI PUSH2 0x1259 PUSH2 0x10C3 JUMP JUMPDEST POP SUB SWAP1 JUMP JUMPDEST PUSH1 0x0 DUP3 PUSH2 0x127B JUMPI PUSH4 0x4E487B71 PUSH1 0xE0 SHL PUSH1 0x0 MSTORE PUSH1 0x12 PUSH1 0x4 MSTORE PUSH1 0x24 PUSH1 0x0 REVERT JUMPDEST POP DIV SWAP1 JUMP JUMPDEST PUSH1 0x0 PUSH1 0x20 DUP3 DUP5 SUB SLT ISZERO PUSH2 0x1292 JUMPI PUSH1 0x0 DUP1 REVERT JUMPDEST DUP2 MLOAD DUP1 ISZERO ISZERO DUP2 EQ PUSH2 0xB37 JUMPI PUSH1 0x0 DUP1 REVERT JUMPDEST PUSH1 0x0 JUMPDEST DUP4 DUP2 LT ISZERO PUSH2 0x12BD JUMPI DUP2 DUP2 ADD MLOAD DUP4 DUP3 ADD MSTORE PUSH1 0x20 ADD PUSH2 0x12A5 JUMP JUMPDEST DUP4 DUP2 GT ISZERO PUSH2 0x12CC JUMPI PUSH1 0x0 DUP5 DUP5 ADD MSTORE JUMPDEST POP POP POP POP JUMP JUMPDEST PUSH1 0x0 DUP3 MLOAD PUSH2 0x12E4 DUP2 DUP5 PUSH1 0x20 DUP8 ADD PUSH2 0x12A2 JUMP JUMPDEST SWAP2 SWAP1 SWAP2 ADD SWAP3 SWAP2 POP POP JUMP JUMPDEST PUSH1 0x20 DUP2 MSTORE PUSH1 0x0 DUP3 MLOAD DUP1 PUSH1 0x20 DUP5 ADD MSTORE PUSH2 0x130D DUP2 PUSH1 0x40 DUP6 ADD PUSH1 0x20 DUP8 ADD PUSH2 0x12A2 JUMP JUMPDEST PUSH1 0x1F ADD PUSH1 0x1F NOT AND SWAP2 SWAP1 SWAP2 ADD PUSH1 0x40 ADD SWAP3 SWAP2 POP POP JUMP INVALID LOG2 PUSH5 0x6970667358 0x22 SLT KECCAK256 0x23 0xEA 0xEB 0xE8 DUP1 SWAP1 0xB6 SLOAD SAR JUMP SSTORE MLOAD SWAP15 0xE5 CHAINID 0xE0 PC SELFDESTRUCT LOG1 0xAE MOD 0xE9 0xC4 GT 0xE7 SWAP6 SWAP8 0xAD 0xD6 ADDRESS 0xC9 0xE5 PUSH5 0x736F6C6343 STOP ADDMOD 0xD STOP CALLER "
    },
    "gasEstimates": {
      "creation": {
        "codeDepositCost": "990200",
        "executionCost": "infinite",
        "totalCost": "infinite"
      },
      "external": {
        "availableRewards(address)": "infinite",
        "character()": "infinite",
        "claimRewards()": "infinite",
        "getStakedTokens(address)": "infinite",
        "nftCollection()": "infinite",
        "rewardsToken()": "infinite",
        "stake(uint256)": "infinite",
        "stakerAddress(uint256)": "2511",
        "stakers(address)": "6811",
        "withdraw(uint256)": "infinite"
      },
      "internal": {
        "calculateRewards(address)": "infinite"
      }
    },
    "methodIdentifiers": {
      "availableRewards(address)": "f854a27f",
      "character()": "4d2e03a0",
      "claimRewards()": "372500ab",
      "getStakedTokens(address)": "63c28db1",
      "nftCollection()": "6588103b",
      "rewardsToken()": "d1af0c7d",
      "stake(uint256)": "a694fc3a",
      "stakerAddress(uint256)": "94067045",
      "stakers(address)": "9168ae72",
      "withdraw(uint256)": "2e1a7d4d"
    }
  },
  "storageLayout": {
    "storage": [
      {
        "astId": 2723,
        "contract": "StakingContract.sol:ERC721Staking",
        "label": "_status",
        "offset": 0,
        "slot": "0",
        "type": "t_uint256"
      },
      {
        "astId": 578,
        "contract": "StakingContract.sol:ERC721Staking",
        "label": "rewardsPerHour",
        "offset": 0,
        "slot": "1",
        "type": "t_uint256"
      },
      {
        "astId": 583,
        "contract": "StakingContract.sol:ERC721Staking",
        "label": "stakers",
        "offset": 0,
        "slot": "2",
        "type": "t_mapping(t_address,t_struct(Staker)575_storage)"
      },
      {
        "astId": 587,
        "contract": "StakingContract.sol:ERC721Staking",
        "label": "stakerAddress",
        "offset": 0,
        "slot": "3",
        "type": "t_mapping(t_uint256,t_address)"
      }
    ],
    "types": {
      "t_address": {
        "encoding": "inplace",
        "label": "address",
        "numberOfBytes": "20"
      },
      "t_array(t_struct(StakedToken)564_storage)dyn_storage": {
        "base": "t_struct(StakedToken)564_storage",
        "encoding": "dynamic_array",
        "label": "struct ERC721Staking.StakedToken[]",
        "numberOfBytes": "32"
      },
      "t_mapping(t_address,t_struct(Staker)575_storage)": {
        "encoding": "mapping",
        "key": "t_address",
        "label": "mapping(address => struct ERC721Staking.Staker)",
        "numberOfBytes": "32",
        "value": "t_struct(Staker)575_storage"
      },
      "t_mapping(t_uint256,t_address)": {
        "encoding": "mapping",
        "key": "t_uint256",
        "label": "mapping(uint256 => address)",
        "numberOfBytes": "32",
        "value": "t_address"
      },
      "t_struct(StakedToken)564_storage": {
        "encoding": "inplace",
        "label": "struct ERC721Staking.StakedToken",
        "members": [
          {
            "astId": 561,
            "contract": "StakingContract.sol:ERC721Staking",
            "label": "staker",
            "offset": 0,
            "slot": "0",
            "type": "t_address"
          },
          {
            "astId": 563,
            "contract": "StakingContract.sol:ERC721Staking",
            "label": "tokenId",
            "offset": 0,
            "slot": "1",
            "type": "t_uint256"
          }
        ],
        "numberOfBytes": "64"
      },
      "t_struct(Staker)575_storage": {
        "encoding": "inplace",
        "label": "struct ERC721Staking.Staker",
        "members": [
          {
            "astId": 566,
            "contract": "StakingContract.sol:ERC721Staking",
            "label": "amountStaked",
            "offset": 0,
            "slot": "0",
            "type": "t_uint256"
          },
          {
            "astId": 570,
            "contract": "StakingContract.sol:ERC721Staking",
            "label": "stakedTokens",
            "offset": 0,
            "slot": "1",
            "type": "t_array(t_struct(StakedToken)564_storage)dyn_storage"
          },
          {
            "astId": 572,
            "contract": "StakingContract.sol:ERC721Staking",
            "label": "timeOfLastUpdate",
            "offset": 0,
            "slot": "2",
            "type": "t_uint256"
          },
          {
            "astId": 574,
            "contract": "StakingContract.sol:ERC721Staking",
            "label": "unclaimedRewards",
            "offset": 0,
            "slot": "3",
            "type": "t_uint256"
          }
        ],
        "numberOfBytes": "128"
      },
      "t_uint256": {
        "encoding": "inplace",
        "label": "uint256",
        "numberOfBytes": "32"
      }
    }
  },
  "userdoc": {
    "kind": "user",
    "methods": {},
    "version": 1
  }
}