{
  "abi": [
    {
      "inputs": [],
      "name": "fireball",
      "outputs": [
        {
          "internalType": "uint256",
          "name": "id",
          "type": "uint256"
        },
        {
          "internalType": "string",
          "name": "name",
          "type": "string"
        },
        {
          "internalType": "string",
          "name": "trait_type",
          "type": "string"
        },
        {
          "internalType": "string",
          "name": "trait_value",
          "type": "string"
        },
        {
          "internalType": "uint256",
          "name": "multiple",
          "type": "uint256"
        }
      ],
      "stateMutability": "pure",
      "type": "function"
    },
    {
      "inputs": [],
      "name": "fireblast",
      "outputs": [
        {
          "internalType": "uint256",
          "name": "id",
          "type": "uint256"
        },
        {
          "internalType": "string",
          "name": "name",
          "type": "string"
        },
        {
          "internalType": "string",
          "name": "trait_type",
          "type": "string"
        },
        {
          "internalType": "string",
          "name": "trait_value",
          "type": "string"
        },
        {
          "internalType": "uint256",
          "name": "multiple",
          "type": "uint256"
        }
      ],
      "stateMutability": "pure",
      "type": "function"
    },
    {
      "inputs": [],
      "name": "pyroblast",
      "outputs": [
        {
          "internalType": "uint256",
          "name": "id",
          "type": "uint256"
        },
        {
          "internalType": "string",
          "name": "name",
          "type": "string"
        },
        {
          "internalType": "string",
          "name": "trait_type",
          "type": "string"
        },
        {
          "internalType": "string",
          "name": "trait_value",
          "type": "string"
        },
        {
          "internalType": "uint256",
          "name": "multiple",
          "type": "uint256"
        }
      ],
      "stateMutability": "pure",
      "type": "function"
    },
    {
      "inputs": [
        {
          "internalType": "uint256",
          "name": "_id",
          "type": "uint256"
        }
      ],
      "name": "skill_by_id",
      "outputs": [
        {
          "internalType": "uint256",
          "name": "id",
          "type": "uint256"
        },
        {
          "internalType": "string",
          "name": "name",
          "type": "string"
        },
        {
          "internalType": "string",
          "name": "trait_type",
          "type": "string"
        },
        {
          "internalType": "string",
          "name": "trait_value",
          "type": "string"
        },
        {
          "internalType": "uint256",
          "name": "multiple",
          "type": "uint256"
        }
      ],
      "stateMutability": "pure",
      "type": "function"
    }
  ],
  "devdoc": {
    "kind": "dev",
    "methods": {},
    "version": 1
  },
  "evm": {
    "assembly": "    /* \"Skills.sol\":60:1867  contract Skills {... */\n  mstore(0x40, 0x80)\n  callvalue\n  dup1\n  iszero\n  tag_1\n  jumpi\n  0x00\n  dup1\n  revert\ntag_1:\n  pop\n  dataSize(sub_0)\n  dup1\n  dataOffset(sub_0)\n  0x00\n  codecopy\n  0x00\n  return\nstop\n\nsub_0: assembly {\n        /* \"Skills.sol\":60:1867  contract Skills {... */\n      mstore(0x40, 0x80)\n      callvalue\n      dup1\n      iszero\n      tag_1\n      jumpi\n      0x00\n      dup1\n      revert\n    tag_1:\n      pop\n      jumpi(tag_2, lt(calldatasize, 0x04))\n      shr(0xe0, calldataload(0x00))\n      dup1\n      0x335dd05f\n      eq\n      tag_3\n      jumpi\n      dup1\n      0x540fcde0\n      eq\n      tag_4\n      jumpi\n      dup1\n      0x880d4a10\n      eq\n      tag_5\n      jumpi\n      dup1\n      0x907dbd9e\n      eq\n      tag_6\n      jumpi\n    tag_2:\n      0x00\n      dup1\n      revert\n        /* \"Skills.sol\":187:652  function skill_by_id(uint _id)... */\n    tag_3:\n      tag_7\n      tag_8\n      calldatasize\n      0x04\n      tag_9\n      jump\t// in\n    tag_8:\n      tag_10\n      jump\t// in\n    tag_7:\n      mload(0x40)\n      tag_11\n      swap6\n      swap5\n      swap4\n      swap3\n      swap2\n      swap1\n      tag_12\n      jump\t// in\n    tag_11:\n      mload(0x40)\n      dup1\n      swap2\n      sub\n      swap1\n      return\n        /* \"Skills.sol\":1060:1457  function fireball()... */\n    tag_4:\n        /* \"Skills.sol\":1334:1352  name = \"Fire Ball\" */\n      0x40\n      dup1\n      mload\n      dup1\n      dup3\n      add\n      dup3\n      mstore\n      0x09\n      dup2\n      mstore\n      shl(0xba, 0x119a5c994810985b1b)\n      0x20\n      dup1\n      dup4\n      add\n      swap2\n      swap1\n      swap2\n      mstore\n        /* \"Skills.sol\":1363:1389  trait_type = \"Accessories\" */\n      dup3\n      mload\n      dup1\n      dup5\n      add\n      dup5\n      mstore\n      0x0b\n      dup2\n      mstore\n      shl(0xa8, 0x4163636573736f72696573)\n      dup2\n      dup4\n      add\n      mstore\n        /* \"Skills.sol\":1400:1426  trait_value = \"Gold Chain\" */\n      dup4\n      mload\n      dup1\n      dup6\n      add\n      swap1\n      swap5\n      mstore\n      0x0a\n      dup5\n      mstore\n      shl(0xb1, 0x23b7b6321021b430b4b7)\n      swap2\n      dup5\n      add\n      swap2\n      swap1\n      swap2\n      mstore\n        /* \"Skills.sol\":1322:1323  1 */\n      0x01\n      swap3\n        /* \"Skills.sol\":1448:1449  5 */\n      0x05\n        /* \"Skills.sol\":1060:1457  function fireball()... */\n      jump(tag_7)\n        /* \"Skills.sol\":1465:1864  function pyroblast()... */\n    tag_5:\n        /* \"Skills.sol\":1740:1758  name = \"Pyroblast\" */\n      0x40\n      dup1\n      mload\n      dup1\n      dup3\n      add\n      dup3\n      mstore\n      0x09\n      dup2\n      mstore\n      shl(0xba, 0x141e5c9bd89b185cdd)\n      0x20\n      dup1\n      dup4\n      add\n      swap2\n      swap1\n      swap2\n      mstore\n        /* \"Skills.sol\":1769:1795  trait_type = \"Accessories\" */\n      dup3\n      mload\n      dup1\n      dup5\n      add\n      dup5\n      mstore\n      0x0b\n      dup2\n      mstore\n      shl(0xa8, 0x4163636573736f72696573)\n      dup2\n      dup4\n      add\n      mstore\n        /* \"Skills.sol\":1806:1832  trait_value = \"Gold Rolex\" */\n      dup4\n      mload\n      dup1\n      dup6\n      add\n      swap1\n      swap5\n      mstore\n      0x0a\n      dup1\n      dup6\n      mstore\n      shl(0xb3, 0x08eded8c840a4ded8caf)\n      swap3\n      dup6\n      add\n      swap3\n      swap1\n      swap3\n      mstore\n        /* \"Skills.sol\":1728:1729  2 */\n      0x02\n      swap4\n        /* \"Skills.sol\":1769:1795  trait_type = \"Accessories\" */\n      swap1\n      swap2\n        /* \"Skills.sol\":1465:1864  function pyroblast()... */\n      jump(tag_7)\n        /* \"Skills.sol\":660:1052  function fireblast()... */\n    tag_6:\n        /* \"Skills.sol\":935:954  name = \"Fire Blast\" */\n      0x40\n      dup1\n      mload\n      dup1\n      dup3\n      add\n      dup3\n      mstore\n      0x0a\n      dup2\n      mstore\n      shl(0xb2, 0x119a5c9948109b185cdd)\n      0x20\n      dup1\n      dup4\n      add\n      swap2\n      swap1\n      swap2\n      mstore\n        /* \"Skills.sol\":965:991  trait_type = \"Accessories\" */\n      dup3\n      mload\n      dup1\n      dup5\n      add\n      dup5\n      mstore\n      0x0b\n      dup2\n      mstore\n      shl(0xa8, 0x4163636573736f72696573)\n      dup2\n      dup4\n      add\n      mstore\n        /* \"Skills.sol\":1002:1021  trait_value = \"Bat\" */\n      dup4\n      mload\n      dup1\n      dup6\n      add\n      swap1\n      swap5\n      mstore\n      0x03\n      dup5\n      mstore\n      shl(0xea, 0x10985d)\n      swap2\n      dup5\n      add\n      swap2\n      swap1\n      swap2\n      mstore\n      0x00\n      swap3\n        /* \"Skills.sol\":1043:1044  2 */\n      0x02\n        /* \"Skills.sol\":660:1052  function fireblast()... */\n      jump(tag_7)\n        /* \"Skills.sol\":187:652  function skill_by_id(uint _id)... */\n    tag_10:\n        /* \"Skills.sol\":282:289  uint id */\n      0x00\n        /* \"Skills.sol\":304:322  string memory name */\n      0x60\n        /* \"Skills.sol\":337:361  string memory trait_type */\n      dup1\n        /* \"Skills.sol\":376:401  string memory trait_value */\n      0x60\n        /* \"Skills.sol\":416:429  uint multiple */\n      0x00\n        /* \"Skills.sol\":461:464  _id */\n      dup6\n        /* \"Skills.sol\":468:469  0 */\n      0x00\n        /* \"Skills.sol\":461:469  _id == 0 */\n      sub\n        /* \"Skills.sol\":457:645  if (_id == 0) {... */\n      tag_23\n      jumpi\n        /* \"Skills.sol\":935:954  name = \"Fire Blast\" */\n      0x40\n      dup1\n      mload\n      dup1\n      dup3\n      add\n      dup3\n      mstore\n      0x0a\n      dup2\n      mstore\n      shl(0xb2, 0x119a5c9948109b185cdd)\n      0x20\n      dup1\n      dup4\n      add\n      swap2\n      swap1\n      swap2\n      mstore\n        /* \"Skills.sol\":965:991  trait_type = \"Accessories\" */\n      dup3\n      mload\n      dup1\n      dup5\n      add\n      dup5\n      mstore\n      0x0b\n      dup2\n      mstore\n      shl(0xa8, 0x4163636573736f72696573)\n      dup2\n      dup4\n      add\n      mstore\n        /* \"Skills.sol\":1002:1021  trait_value = \"Bat\" */\n      dup4\n      mload\n      dup1\n      dup6\n      add\n      swap1\n      swap5\n      mstore\n      0x03\n      dup5\n      mstore\n      shl(0xea, 0x10985d)\n      swap2\n      dup5\n      add\n      swap2\n      swap1\n      swap2\n      mstore\n      0x00\n      swap3\n        /* \"Skills.sol\":1043:1044  2 */\n      0x02\n        /* \"Skills.sol\":493:504  fireblast() */\n    tag_24:\n        /* \"Skills.sol\":486:504  return fireblast() */\n      swap5\n      pop\n      swap5\n      pop\n      swap5\n      pop\n      swap5\n      pop\n      swap5\n      pop\n      jump(tag_29)\n        /* \"Skills.sol\":457:645  if (_id == 0) {... */\n    tag_23:\n        /* \"Skills.sol\":526:529  _id */\n      dup6\n        /* \"Skills.sol\":533:534  1 */\n      0x01\n        /* \"Skills.sol\":526:534  _id == 1 */\n      sub\n        /* \"Skills.sol\":522:645  if (_id == 1) {... */\n      tag_26\n      jumpi\n        /* \"Skills.sol\":1334:1352  name = \"Fire Ball\" */\n      0x40\n      dup1\n      mload\n      dup1\n      dup3\n      add\n      dup3\n      mstore\n      0x09\n      dup2\n      mstore\n      shl(0xba, 0x119a5c994810985b1b)\n      0x20\n      dup1\n      dup4\n      add\n      swap2\n      swap1\n      swap2\n      mstore\n        /* \"Skills.sol\":1363:1389  trait_type = \"Accessories\" */\n      dup3\n      mload\n      dup1\n      dup5\n      add\n      dup5\n      mstore\n      0x0b\n      dup2\n      mstore\n      shl(0xa8, 0x4163636573736f72696573)\n      dup2\n      dup4\n      add\n      mstore\n        /* \"Skills.sol\":1400:1426  trait_value = \"Gold Chain\" */\n      dup4\n      mload\n      dup1\n      dup6\n      add\n      swap1\n      swap5\n      mstore\n      0x0a\n      dup5\n      mstore\n      shl(0xb1, 0x23b7b6321021b430b4b7)\n      swap2\n      dup5\n      add\n      swap2\n      swap1\n      swap2\n      mstore\n        /* \"Skills.sol\":1322:1323  1 */\n      0x01\n      swap3\n        /* \"Skills.sol\":1448:1449  5 */\n      0x05\n        /* \"Skills.sol\":558:568  fireball() */\n      tag_24\n        /* \"Skills.sol\":1060:1457  function fireball()... */\n      jump\n        /* \"Skills.sol\":522:645  if (_id == 1) {... */\n    tag_26:\n        /* \"Skills.sol\":590:593  _id */\n      dup6\n        /* \"Skills.sol\":597:598  2 */\n      0x02\n        /* \"Skills.sol\":590:598  _id == 2 */\n      sub\n        /* \"Skills.sol\":586:645  if (_id == 2) {... */\n      tag_29\n      jumpi\n        /* \"Skills.sol\":1740:1758  name = \"Pyroblast\" */\n      0x40\n      dup1\n      mload\n      dup1\n      dup3\n      add\n      dup3\n      mstore\n      0x09\n      dup2\n      mstore\n      shl(0xba, 0x141e5c9bd89b185cdd)\n      0x20\n      dup1\n      dup4\n      add\n      swap2\n      swap1\n      swap2\n      mstore\n        /* \"Skills.sol\":1769:1795  trait_type = \"Accessories\" */\n      dup3\n      mload\n      dup1\n      dup5\n      add\n      dup5\n      mstore\n      0x0b\n      dup2\n      mstore\n      shl(0xa8, 0x4163636573736f72696573)\n      dup2\n      dup4\n      add\n      mstore\n        /* \"Skills.sol\":1806:1832  trait_value = \"Gold Rolex\" */\n      dup4\n      mload\n      dup1\n      dup6\n      add\n      swap1\n      swap5\n      mstore\n      0x0a\n      dup1\n      dup6\n      mstore\n      shl(0xb3, 0x08eded8c840a4ded8caf)\n      swap3\n      dup6\n      add\n      swap3\n      swap1\n      swap3\n      mstore\n        /* \"Skills.sol\":1728:1729  2 */\n      0x02\n      swap4\n        /* \"Skills.sol\":1769:1795  trait_type = \"Accessories\" */\n      swap1\n      swap2\n        /* \"Skills.sol\":622:633  pyroblast() */\n      tag_24\n        /* \"Skills.sol\":1465:1864  function pyroblast()... */\n      jump\n        /* \"Skills.sol\":586:645  if (_id == 2) {... */\n    tag_29:\n        /* \"Skills.sol\":187:652  function skill_by_id(uint _id)... */\n      swap2\n      swap4\n      swap6\n      swap1\n      swap3\n      swap5\n      pop\n      jump\t// out\n        /* \"#utility.yul\":14:194   */\n    tag_9:\n        /* \"#utility.yul\":73:79   */\n      0x00\n        /* \"#utility.yul\":126:128   */\n      0x20\n        /* \"#utility.yul\":114:123   */\n      dup3\n        /* \"#utility.yul\":105:112   */\n      dup5\n        /* \"#utility.yul\":101:124   */\n      sub\n        /* \"#utility.yul\":97:129   */\n      slt\n        /* \"#utility.yul\":94:146   */\n      iszero\n      tag_37\n      jumpi\n        /* \"#utility.yul\":142:143   */\n      0x00\n        /* \"#utility.yul\":139:140   */\n      dup1\n        /* \"#utility.yul\":132:144   */\n      revert\n        /* \"#utility.yul\":94:146   */\n    tag_37:\n      pop\n        /* \"#utility.yul\":165:188   */\n      calldataload\n      swap2\n        /* \"#utility.yul\":14:194   */\n      swap1\n      pop\n      jump\t// out\n        /* \"#utility.yul\":199:671   */\n    tag_34:\n        /* \"#utility.yul\":241:244   */\n      0x00\n        /* \"#utility.yul\":279:284   */\n      dup2\n        /* \"#utility.yul\":273:285   */\n      mload\n        /* \"#utility.yul\":306:312   */\n      dup1\n        /* \"#utility.yul\":301:304   */\n      dup5\n        /* \"#utility.yul\":294:313   */\n      mstore\n        /* \"#utility.yul\":331:332   */\n      0x00\n        /* \"#utility.yul\":341:503   */\n    tag_39:\n        /* \"#utility.yul\":355:361   */\n      dup2\n        /* \"#utility.yul\":352:353   */\n      dup2\n        /* \"#utility.yul\":349:362   */\n      lt\n        /* \"#utility.yul\":341:503   */\n      iszero\n      tag_41\n      jumpi\n        /* \"#utility.yul\":417:421   */\n      0x20\n        /* \"#utility.yul\":473:486   */\n      dup2\n      dup6\n      add\n        /* \"#utility.yul\":469:491   */\n      dup2\n      add\n        /* \"#utility.yul\":463:492   */\n      mload\n        /* \"#utility.yul\":445:456   */\n      dup7\n      dup4\n      add\n        /* \"#utility.yul\":441:461   */\n      dup3\n      add\n        /* \"#utility.yul\":434:493   */\n      mstore\n        /* \"#utility.yul\":370:382   */\n      add\n        /* \"#utility.yul\":341:503   */\n      jump(tag_39)\n    tag_41:\n        /* \"#utility.yul\":521:527   */\n      dup2\n        /* \"#utility.yul\":518:519   */\n      dup2\n        /* \"#utility.yul\":515:528   */\n      gt\n        /* \"#utility.yul\":512:599   */\n      iszero\n      tag_42\n      jumpi\n        /* \"#utility.yul\":587:588   */\n      0x00\n        /* \"#utility.yul\":580:584   */\n      0x20\n        /* \"#utility.yul\":571:577   */\n      dup4\n        /* \"#utility.yul\":566:569   */\n      dup8\n        /* \"#utility.yul\":562:578   */\n      add\n        /* \"#utility.yul\":558:585   */\n      add\n        /* \"#utility.yul\":551:589   */\n      mstore\n        /* \"#utility.yul\":512:599   */\n    tag_42:\n      pop\n        /* \"#utility.yul\":653:655   */\n      0x1f\n        /* \"#utility.yul\":632:647   */\n      add\n      not(0x1f)\n        /* \"#utility.yul\":628:657   */\n      and\n        /* \"#utility.yul\":619:658   */\n      swap3\n      swap1\n      swap3\n      add\n        /* \"#utility.yul\":660:664   */\n      0x20\n        /* \"#utility.yul\":615:665   */\n      add\n      swap3\n        /* \"#utility.yul\":199:671   */\n      swap2\n      pop\n      pop\n      jump\t// out\n        /* \"#utility.yul\":676:1367   */\n    tag_12:\n        /* \"#utility.yul\":977:983   */\n      dup6\n        /* \"#utility.yul\":966:975   */\n      dup2\n        /* \"#utility.yul\":959:984   */\n      mstore\n        /* \"#utility.yul\":1020:1023   */\n      0xa0\n        /* \"#utility.yul\":1015:1017   */\n      0x20\n        /* \"#utility.yul\":1004:1013   */\n      dup3\n        /* \"#utility.yul\":1000:1018   */\n      add\n        /* \"#utility.yul\":993:1024   */\n      mstore\n        /* \"#utility.yul\":940:944   */\n      0x00\n        /* \"#utility.yul\":1047:1093   */\n      tag_44\n        /* \"#utility.yul\":1088:1091   */\n      0xa0\n        /* \"#utility.yul\":1077:1086   */\n      dup4\n        /* \"#utility.yul\":1073:1092   */\n      add\n        /* \"#utility.yul\":1065:1071   */\n      dup8\n        /* \"#utility.yul\":1047:1093   */\n      tag_34\n      jump\t// in\n    tag_44:\n        /* \"#utility.yul\":1141:1150   */\n      dup3\n        /* \"#utility.yul\":1133:1139   */\n      dup2\n        /* \"#utility.yul\":1129:1151   */\n      sub\n        /* \"#utility.yul\":1124:1126   */\n      0x40\n        /* \"#utility.yul\":1113:1122   */\n      dup5\n        /* \"#utility.yul\":1109:1127   */\n      add\n        /* \"#utility.yul\":1102:1152   */\n      mstore\n        /* \"#utility.yul\":1175:1208   */\n      tag_45\n        /* \"#utility.yul\":1201:1207   */\n      dup2\n        /* \"#utility.yul\":1193:1199   */\n      dup8\n        /* \"#utility.yul\":1175:1208   */\n      tag_34\n      jump\t// in\n    tag_45:\n        /* \"#utility.yul\":1161:1208   */\n      swap1\n      pop\n        /* \"#utility.yul\":1256:1265   */\n      dup3\n        /* \"#utility.yul\":1248:1254   */\n      dup2\n        /* \"#utility.yul\":1244:1266   */\n      sub\n        /* \"#utility.yul\":1239:1241   */\n      0x60\n        /* \"#utility.yul\":1228:1237   */\n      dup5\n        /* \"#utility.yul\":1224:1242   */\n      add\n        /* \"#utility.yul\":1217:1267   */\n      mstore\n        /* \"#utility.yul\":1284:1317   */\n      tag_46\n        /* \"#utility.yul\":1310:1316   */\n      dup2\n        /* \"#utility.yul\":1302:1308   */\n      dup7\n        /* \"#utility.yul\":1284:1317   */\n      tag_34\n      jump\t// in\n    tag_46:\n        /* \"#utility.yul\":1276:1317   */\n      swap2\n      pop\n      pop\n        /* \"#utility.yul\":1354:1360   */\n      dup3\n        /* \"#utility.yul\":1348:1351   */\n      0x80\n        /* \"#utility.yul\":1337:1346   */\n      dup4\n        /* \"#utility.yul\":1333:1352   */\n      add\n        /* \"#utility.yul\":1326:1361   */\n      mstore\n        /* \"#utility.yul\":676:1367   */\n      swap7\n      swap6\n      pop\n      pop\n      pop\n      pop\n      pop\n      pop\n      jump\t// out\n\n    auxdata: 0xa2646970667358221220b59b4db2795e11cb8e611c4e52657cdaeb6acb7aa45cf5067f95c1541a526cfa64736f6c634300080d0033\n}\n",
    "bytecode": {
      "linkReferences": {},
      "object": "608060405234801561001057600080fd5b5061041f806100206000396000f3fe608060405234801561001057600080fd5b506004361061004c5760003560e01c8063335dd05f14610051578063540fcde01461007e578063880d4a10146100ea578063907dbd9e14610157575b600080fd5b61006461005f366004610331565b6101bd565b604051610075959493929190610397565b60405180910390f35b6040805180820182526009815268119a5c994810985b1b60ba1b60208083019190915282518084018452600b81526a4163636573736f7269657360a81b818301528351808501909452600a84526923b7b6321021b430b4b760b11b918401919091526001926005610064565b6040805180820182526009815268141e5c9bd89b185cdd60ba1b60208083019190915282518084018452600b81526a4163636573736f7269657360a81b818301528351808501909452600a8085526908eded8c840a4ded8caf60b31b928501929092526002939091610064565b604080518082018252600a815269119a5c9948109b185cdd60b21b60208083019190915282518084018452600b81526a4163636573736f7269657360a81b818301528351808501909452600384526210985d60ea1b918401919091526000926002610064565b6000606080606060008560000361023f57604080518082018252600a815269119a5c9948109b185cdd60b21b60208083019190915282518084018452600b81526a4163636573736f7269657360a81b818301528351808501909452600384526210985d60ea1b9184019190915260009260025b94509450945094509450610328565b856001036102b3576040805180820182526009815268119a5c994810985b1b60ba1b60208083019190915282518084018452600b81526a4163636573736f7269657360a81b818301528351808501909452600a84526923b7b6321021b430b4b760b11b918401919091526001926005610230565b85600203610328576040805180820182526009815268141e5c9bd89b185cdd60ba1b60208083019190915282518084018452600b81526a4163636573736f7269657360a81b818301528351808501909452600a8085526908eded8c840a4ded8caf60b31b928501929092526002939091610230565b91939590929450565b60006020828403121561034357600080fd5b5035919050565b6000815180845260005b8181101561037057602081850181015186830182015201610354565b81811115610382576000602083870101525b50601f01601f19169290920160200192915050565b85815260a0602082015260006103b060a083018761034a565b82810360408401526103c2818761034a565b905082810360608401526103d6818661034a565b915050826080830152969550505050505056fea2646970667358221220b59b4db2795e11cb8e611c4e52657cdaeb6acb7aa45cf5067f95c1541a526cfa64736f6c634300080d0033",
      "opcodes": "PUSH1 0x80 PUSH1 0x40 MSTORE CALLVALUE DUP1 ISZERO PUSH2 0x10 JUMPI PUSH1 0x0 DUP1 REVERT JUMPDEST POP PUSH2 0x41F DUP1 PUSH2 0x20 PUSH1 0x0 CODECOPY PUSH1 0x0 RETURN INVALID PUSH1 0x80 PUSH1 0x40 MSTORE CALLVALUE DUP1 ISZERO PUSH2 0x10 JUMPI PUSH1 0x0 DUP1 REVERT JUMPDEST POP PUSH1 0x4 CALLDATASIZE LT PUSH2 0x4C JUMPI PUSH1 0x0 CALLDATALOAD PUSH1 0xE0 SHR DUP1 PUSH4 0x335DD05F EQ PUSH2 0x51 JUMPI DUP1 PUSH4 0x540FCDE0 EQ PUSH2 0x7E JUMPI DUP1 PUSH4 0x880D4A10 EQ PUSH2 0xEA JUMPI DUP1 PUSH4 0x907DBD9E EQ PUSH2 0x157 JUMPI JUMPDEST PUSH1 0x0 DUP1 REVERT JUMPDEST PUSH2 0x64 PUSH2 0x5F CALLDATASIZE PUSH1 0x4 PUSH2 0x331 JUMP JUMPDEST PUSH2 0x1BD JUMP JUMPDEST PUSH1 0x40 MLOAD PUSH2 0x75 SWAP6 SWAP5 SWAP4 SWAP3 SWAP2 SWAP1 PUSH2 0x397 JUMP JUMPDEST PUSH1 0x40 MLOAD DUP1 SWAP2 SUB SWAP1 RETURN JUMPDEST PUSH1 0x40 DUP1 MLOAD DUP1 DUP3 ADD DUP3 MSTORE PUSH1 0x9 DUP2 MSTORE PUSH9 0x119A5C994810985B1B PUSH1 0xBA SHL PUSH1 0x20 DUP1 DUP4 ADD SWAP2 SWAP1 SWAP2 MSTORE DUP3 MLOAD DUP1 DUP5 ADD DUP5 MSTORE PUSH1 0xB DUP2 MSTORE PUSH11 0x4163636573736F72696573 PUSH1 0xA8 SHL DUP2 DUP4 ADD MSTORE DUP4 MLOAD DUP1 DUP6 ADD SWAP1 SWAP5 MSTORE PUSH1 0xA DUP5 MSTORE PUSH10 0x23B7B6321021B430B4B7 PUSH1 0xB1 SHL SWAP2 DUP5 ADD SWAP2 SWAP1 SWAP2 MSTORE PUSH1 0x1 SWAP3 PUSH1 0x5 PUSH2 0x64 JUMP JUMPDEST PUSH1 0x40 DUP1 MLOAD DUP1 DUP3 ADD DUP3 MSTORE PUSH1 0x9 DUP2 MSTORE PUSH9 0x141E5C9BD89B185CDD PUSH1 0xBA SHL PUSH1 0x20 DUP1 DUP4 ADD SWAP2 SWAP1 SWAP2 MSTORE DUP3 MLOAD DUP1 DUP5 ADD DUP5 MSTORE PUSH1 0xB DUP2 MSTORE PUSH11 0x4163636573736F72696573 PUSH1 0xA8 SHL DUP2 DUP4 ADD MSTORE DUP4 MLOAD DUP1 DUP6 ADD SWAP1 SWAP5 MSTORE PUSH1 0xA DUP1 DUP6 MSTORE PUSH10 0x8EDED8C840A4DED8CAF PUSH1 0xB3 SHL SWAP3 DUP6 ADD SWAP3 SWAP1 SWAP3 MSTORE PUSH1 0x2 SWAP4 SWAP1 SWAP2 PUSH2 0x64 JUMP JUMPDEST PUSH1 0x40 DUP1 MLOAD DUP1 DUP3 ADD DUP3 MSTORE PUSH1 0xA DUP2 MSTORE PUSH10 0x119A5C9948109B185CDD PUSH1 0xB2 SHL PUSH1 0x20 DUP1 DUP4 ADD SWAP2 SWAP1 SWAP2 MSTORE DUP3 MLOAD DUP1 DUP5 ADD DUP5 MSTORE PUSH1 0xB DUP2 MSTORE PUSH11 0x4163636573736F72696573 PUSH1 0xA8 SHL DUP2 DUP4 ADD MSTORE DUP4 MLOAD DUP1 DUP6 ADD SWAP1 SWAP5 MSTORE PUSH1 0x3 DUP5 MSTORE PUSH3 0x10985D PUSH1 0xEA SHL SWAP2 DUP5 ADD SWAP2 SWAP1 SWAP2 MSTORE PUSH1 0x0 SWAP3 PUSH1 0x2 PUSH2 0x64 JUMP JUMPDEST PUSH1 0x0 PUSH1 0x60 DUP1 PUSH1 0x60 PUSH1 0x0 DUP6 PUSH1 0x0 SUB PUSH2 0x23F JUMPI PUSH1 0x40 DUP1 MLOAD DUP1 DUP3 ADD DUP3 MSTORE PUSH1 0xA DUP2 MSTORE PUSH10 0x119A5C9948109B185CDD PUSH1 0xB2 SHL PUSH1 0x20 DUP1 DUP4 ADD SWAP2 SWAP1 SWAP2 MSTORE DUP3 MLOAD DUP1 DUP5 ADD DUP5 MSTORE PUSH1 0xB DUP2 MSTORE PUSH11 0x4163636573736F72696573 PUSH1 0xA8 SHL DUP2 DUP4 ADD MSTORE DUP4 MLOAD DUP1 DUP6 ADD SWAP1 SWAP5 MSTORE PUSH1 0x3 DUP5 MSTORE PUSH3 0x10985D PUSH1 0xEA SHL SWAP2 DUP5 ADD SWAP2 SWAP1 SWAP2 MSTORE PUSH1 0x0 SWAP3 PUSH1 0x2 JUMPDEST SWAP5 POP SWAP5 POP SWAP5 POP SWAP5 POP SWAP5 POP PUSH2 0x328 JUMP JUMPDEST DUP6 PUSH1 0x1 SUB PUSH2 0x2B3 JUMPI PUSH1 0x40 DUP1 MLOAD DUP1 DUP3 ADD DUP3 MSTORE PUSH1 0x9 DUP2 MSTORE PUSH9 0x119A5C994810985B1B PUSH1 0xBA SHL PUSH1 0x20 DUP1 DUP4 ADD SWAP2 SWAP1 SWAP2 MSTORE DUP3 MLOAD DUP1 DUP5 ADD DUP5 MSTORE PUSH1 0xB DUP2 MSTORE PUSH11 0x4163636573736F72696573 PUSH1 0xA8 SHL DUP2 DUP4 ADD MSTORE DUP4 MLOAD DUP1 DUP6 ADD SWAP1 SWAP5 MSTORE PUSH1 0xA DUP5 MSTORE PUSH10 0x23B7B6321021B430B4B7 PUSH1 0xB1 SHL SWAP2 DUP5 ADD SWAP2 SWAP1 SWAP2 MSTORE PUSH1 0x1 SWAP3 PUSH1 0x5 PUSH2 0x230 JUMP JUMPDEST DUP6 PUSH1 0x2 SUB PUSH2 0x328 JUMPI PUSH1 0x40 DUP1 MLOAD DUP1 DUP3 ADD DUP3 MSTORE PUSH1 0x9 DUP2 MSTORE PUSH9 0x141E5C9BD89B185CDD PUSH1 0xBA SHL PUSH1 0x20 DUP1 DUP4 ADD SWAP2 SWAP1 SWAP2 MSTORE DUP3 MLOAD DUP1 DUP5 ADD DUP5 MSTORE PUSH1 0xB DUP2 MSTORE PUSH11 0x4163636573736F72696573 PUSH1 0xA8 SHL DUP2 DUP4 ADD MSTORE DUP4 MLOAD DUP1 DUP6 ADD SWAP1 SWAP5 MSTORE PUSH1 0xA DUP1 DUP6 MSTORE PUSH10 0x8EDED8C840A4DED8CAF PUSH1 0xB3 SHL SWAP3 DUP6 ADD SWAP3 SWAP1 SWAP3 MSTORE PUSH1 0x2 SWAP4 SWAP1 SWAP2 PUSH2 0x230 JUMP JUMPDEST SWAP2 SWAP4 SWAP6 SWAP1 SWAP3 SWAP5 POP JUMP JUMPDEST PUSH1 0x0 PUSH1 0x20 DUP3 DUP5 SUB SLT ISZERO PUSH2 0x343 JUMPI PUSH1 0x0 DUP1 REVERT JUMPDEST POP CALLDATALOAD SWAP2 SWAP1 POP JUMP JUMPDEST PUSH1 0x0 DUP2 MLOAD DUP1 DUP5 MSTORE PUSH1 0x0 JUMPDEST DUP2 DUP2 LT ISZERO PUSH2 0x370 JUMPI PUSH1 0x20 DUP2 DUP6 ADD DUP2 ADD MLOAD DUP7 DUP4 ADD DUP3 ADD MSTORE ADD PUSH2 0x354 JUMP JUMPDEST DUP2 DUP2 GT ISZERO PUSH2 0x382 JUMPI PUSH1 0x0 PUSH1 0x20 DUP4 DUP8 ADD ADD MSTORE JUMPDEST POP PUSH1 0x1F ADD PUSH1 0x1F NOT AND SWAP3 SWAP1 SWAP3 ADD PUSH1 0x20 ADD SWAP3 SWAP2 POP POP JUMP JUMPDEST DUP6 DUP2 MSTORE PUSH1 0xA0 PUSH1 0x20 DUP3 ADD MSTORE PUSH1 0x0 PUSH2 0x3B0 PUSH1 0xA0 DUP4 ADD DUP8 PUSH2 0x34A JUMP JUMPDEST DUP3 DUP2 SUB PUSH1 0x40 DUP5 ADD MSTORE PUSH2 0x3C2 DUP2 DUP8 PUSH2 0x34A JUMP JUMPDEST SWAP1 POP DUP3 DUP2 SUB PUSH1 0x60 DUP5 ADD MSTORE PUSH2 0x3D6 DUP2 DUP7 PUSH2 0x34A JUMP JUMPDEST SWAP2 POP POP DUP3 PUSH1 0x80 DUP4 ADD MSTORE SWAP7 SWAP6 POP POP POP POP POP POP JUMP INVALID LOG2 PUSH5 0x6970667358 0x22 SLT KECCAK256 0xB5 SWAP12 0x4D 0xB2 PUSH26 0x5E11CB8E611C4E52657CDAEB6ACB7AA45CF5067F95C1541A526C STATICCALL PUSH5 0x736F6C6343 STOP ADDMOD 0xD STOP CALLER "
    },
    "gasEstimates": {
      "creation": {
        "codeDepositCost": "211000",
        "executionCost": "251",
        "totalCost": "211251"
      },
      "external": {
        "fireball()": "infinite",
        "fireblast()": "infinite",
        "pyroblast()": "infinite",
        "skill_by_id(uint256)": "infinite"
      }
    },
    "methodIdentifiers": {
      "fireball()": "540fcde0",
      "fireblast()": "907dbd9e",
      "pyroblast()": "880d4a10",
      "skill_by_id(uint256)": "335dd05f"
    }
  },
  "storageLayout": {
    "storage": [],
    "types": null
  },
  "userdoc": {
    "kind": "user",
    "methods": {},
    "version": 1
  }
}