{
  "abi": [
    {
      "inputs": [
        {
          "internalType": "contract IERC20",
          "name": "_coin",
          "type": "address"
        },
        {
          "internalType": "address",
          "name": "_skillInfo",
          "type": "address"
        }
      ],
      "stateMutability": "nonpayable",
      "type": "constructor"
    },
    {
      "anonymous": false,
      "inputs": [
        {
          "indexed": true,
          "internalType": "address",
          "name": "owner",
          "type": "address"
        },
        {
          "indexed": true,
          "internalType": "address",
          "name": "approved",
          "type": "address"
        },
        {
          "indexed": true,
          "internalType": "uint256",
          "name": "tokenId",
          "type": "uint256"
        }
      ],
      "name": "Approval",
      "type": "event"
    },
    {
      "anonymous": false,
      "inputs": [
        {
          "indexed": true,
          "internalType": "address",
          "name": "owner",
          "type": "address"
        },
        {
          "indexed": true,
          "internalType": "address",
          "name": "operator",
          "type": "address"
        },
        {
          "indexed": false,
          "internalType": "bool",
          "name": "approved",
          "type": "bool"
        }
      ],
      "name": "ApprovalForAll",
      "type": "event"
    },
    {
      "anonymous": false,
      "inputs": [
        {
          "indexed": true,
          "internalType": "address",
          "name": "previousOwner",
          "type": "address"
        },
        {
          "indexed": true,
          "internalType": "address",
          "name": "newOwner",
          "type": "address"
        }
      ],
      "name": "OwnershipTransferred",
      "type": "event"
    },
    {
      "anonymous": false,
      "inputs": [
        {
          "indexed": true,
          "internalType": "address",
          "name": "from",
          "type": "address"
        },
        {
          "indexed": true,
          "internalType": "address",
          "name": "to",
          "type": "address"
        },
        {
          "indexed": true,
          "internalType": "uint256",
          "name": "tokenId",
          "type": "uint256"
        }
      ],
      "name": "Transfer",
      "type": "event"
    },
    {
      "anonymous": false,
      "inputs": [
        {
          "indexed": true,
          "internalType": "address",
          "name": "owner",
          "type": "address"
        },
        {
          "indexed": false,
          "internalType": "string",
          "name": "name",
          "type": "string"
        },
        {
          "indexed": false,
          "internalType": "uint256",
          "name": "hunter",
          "type": "uint256"
        }
      ],
      "name": "named",
      "type": "event"
    },
    {
      "anonymous": false,
      "inputs": [
        {
          "indexed": true,
          "internalType": "address",
          "name": "owner",
          "type": "address"
        },
        {
          "indexed": false,
          "internalType": "uint256",
          "name": "skill",
          "type": "uint256"
        },
        {
          "indexed": false,
          "internalType": "uint256",
          "name": "hunter",
          "type": "uint256"
        }
      ],
      "name": "skilled",
      "type": "event"
    },
    {
      "anonymous": false,
      "inputs": [
        {
          "indexed": true,
          "internalType": "address",
          "name": "owner",
          "type": "address"
        },
        {
          "indexed": false,
          "internalType": "uint256",
          "name": "hunter",
          "type": "uint256"
        }
      ],
      "name": "summoned",
      "type": "event"
    },
    {
      "inputs": [
        {
          "internalType": "address",
          "name": "",
          "type": "address"
        }
      ],
      "name": "address_tokenId",
      "outputs": [
        {
          "internalType": "uint256",
          "name": "",
          "type": "uint256"
        }
      ],
      "stateMutability": "view",
      "type": "function"
    },
    {
      "inputs": [
        {
          "internalType": "address",
          "name": "to",
          "type": "address"
        },
        {
          "internalType": "uint256",
          "name": "tokenId",
          "type": "uint256"
        }
      ],
      "name": "approve",
      "outputs": [],
      "stateMutability": "nonpayable",
      "type": "function"
    },
    {
      "inputs": [
        {
          "internalType": "address",
          "name": "owner",
          "type": "address"
        }
      ],
      "name": "balanceOf",
      "outputs": [
        {
          "internalType": "uint256",
          "name": "",
          "type": "uint256"
        }
      ],
      "stateMutability": "view",
      "type": "function"
    },
    {
      "inputs": [
        {
          "internalType": "uint256",
          "name": "_hunter",
          "type": "uint256"
        },
        {
          "internalType": "string",
          "name": "_name",
          "type": "string"
        }
      ],
      "name": "change_name",
      "outputs": [],
      "stateMutability": "nonpayable",
      "type": "function"
    },
    {
      "inputs": [],
      "name": "coin",
      "outputs": [
        {
          "internalType": "contract IERC20",
          "name": "",
          "type": "address"
        }
      ],
      "stateMutability": "view",
      "type": "function"
    },
    {
      "inputs": [
        {
          "internalType": "uint256",
          "name": "curent_skill",
          "type": "uint256"
        }
      ],
      "name": "coin_required",
      "outputs": [
        {
          "internalType": "uint256",
          "name": "coin_to_next_skill",
          "type": "uint256"
        }
      ],
      "stateMutability": "pure",
      "type": "function"
    },
    {
      "inputs": [
        {
          "internalType": "uint256",
          "name": "tokenId",
          "type": "uint256"
        }
      ],
      "name": "getApproved",
      "outputs": [
        {
          "internalType": "address",
          "name": "",
          "type": "address"
        }
      ],
      "stateMutability": "view",
      "type": "function"
    },
    {
      "inputs": [
        {
          "internalType": "address",
          "name": "_hunter",
          "type": "address"
        }
      ],
      "name": "hunter_skill",
      "outputs": [
        {
          "internalType": "uint256[]",
          "name": "_skill",
          "type": "uint256[]"
        }
      ],
      "stateMutability": "view",
      "type": "function"
    },
    {
      "inputs": [
        {
          "internalType": "address",
          "name": "_hunter",
          "type": "address"
        }
      ],
      "name": "hunter_skill_multiple",
      "outputs": [
        {
          "internalType": "uint256[]",
          "name": "_multiple",
          "type": "uint256[]"
        }
      ],
      "stateMutability": "view",
      "type": "function"
    },
    {
      "inputs": [
        {
          "internalType": "address",
          "name": "owner",
          "type": "address"
        },
        {
          "internalType": "address",
          "name": "operator",
          "type": "address"
        }
      ],
      "name": "isApprovedForAll",
      "outputs": [
        {
          "internalType": "bool",
          "name": "",
          "type": "bool"
        }
      ],
      "stateMutability": "view",
      "type": "function"
    },
    {
      "inputs": [
        {
          "internalType": "address",
          "name": "",
          "type": "address"
        }
      ],
      "name": "minted_address",
      "outputs": [
        {
          "internalType": "bool",
          "name": "",
          "type": "bool"
        }
      ],
      "stateMutability": "view",
      "type": "function"
    },
    {
      "inputs": [
        {
          "internalType": "uint256",
          "name": "",
          "type": "uint256"
        }
      ],
      "name": "name",
      "outputs": [
        {
          "internalType": "string",
          "name": "",
          "type": "string"
        }
      ],
      "stateMutability": "view",
      "type": "function"
    },
    {
      "inputs": [],
      "name": "name",
      "outputs": [
        {
          "internalType": "string",
          "name": "",
          "type": "string"
        }
      ],
      "stateMutability": "view",
      "type": "function"
    },
    {
      "inputs": [],
      "name": "owner",
      "outputs": [
        {
          "internalType": "address",
          "name": "",
          "type": "address"
        }
      ],
      "stateMutability": "view",
      "type": "function"
    },
    {
      "inputs": [
        {
          "internalType": "uint256",
          "name": "tokenId",
          "type": "uint256"
        }
      ],
      "name": "ownerOf",
      "outputs": [
        {
          "internalType": "address",
          "name": "",
          "type": "address"
        }
      ],
      "stateMutability": "view",
      "type": "function"
    },
    {
      "inputs": [],
      "name": "renounceOwnership",
      "outputs": [],
      "stateMutability": "nonpayable",
      "type": "function"
    },
    {
      "inputs": [
        {
          "internalType": "address",
          "name": "from",
          "type": "address"
        },
        {
          "internalType": "address",
          "name": "to",
          "type": "address"
        },
        {
          "internalType": "uint256",
          "name": "tokenId",
          "type": "uint256"
        }
      ],
      "name": "safeTransferFrom",
      "outputs": [],
      "stateMutability": "nonpayable",
      "type": "function"
    },
    {
      "inputs": [
        {
          "internalType": "address",
          "name": "from",
          "type": "address"
        },
        {
          "internalType": "address",
          "name": "to",
          "type": "address"
        },
        {
          "internalType": "uint256",
          "name": "tokenId",
          "type": "uint256"
        },
        {
          "internalType": "bytes",
          "name": "data",
          "type": "bytes"
        }
      ],
      "name": "safeTransferFrom",
      "outputs": [],
      "stateMutability": "nonpayable",
      "type": "function"
    },
    {
      "inputs": [
        {
          "internalType": "address",
          "name": "operator",
          "type": "address"
        },
        {
          "internalType": "bool",
          "name": "approved",
          "type": "bool"
        }
      ],
      "name": "setApprovalForAll",
      "outputs": [],
      "stateMutability": "nonpayable",
      "type": "function"
    },
    {
      "inputs": [
        {
          "internalType": "uint256",
          "name": "",
          "type": "uint256"
        },
        {
          "internalType": "uint256",
          "name": "",
          "type": "uint256"
        }
      ],
      "name": "skill",
      "outputs": [
        {
          "internalType": "uint256",
          "name": "",
          "type": "uint256"
        }
      ],
      "stateMutability": "view",
      "type": "function"
    },
    {
      "inputs": [],
      "name": "skillInfo",
      "outputs": [
        {
          "internalType": "contract Skills",
          "name": "",
          "type": "address"
        }
      ],
      "stateMutability": "view",
      "type": "function"
    },
    {
      "inputs": [
        {
          "internalType": "uint256",
          "name": "_hunter",
          "type": "uint256"
        },
        {
          "internalType": "uint256",
          "name": "_skill_index",
          "type": "uint256"
        }
      ],
      "name": "skill_up",
      "outputs": [],
      "stateMutability": "nonpayable",
      "type": "function"
    },
    {
      "inputs": [],
      "name": "summon",
      "outputs": [],
      "stateMutability": "nonpayable",
      "type": "function"
    },
    {
      "inputs": [
        {
          "internalType": "bytes4",
          "name": "interfaceId",
          "type": "bytes4"
        }
      ],
      "name": "supportsInterface",
      "outputs": [
        {
          "internalType": "bool",
          "name": "",
          "type": "bool"
        }
      ],
      "stateMutability": "view",
      "type": "function"
    },
    {
      "inputs": [],
      "name": "symbol",
      "outputs": [
        {
          "internalType": "string",
          "name": "",
          "type": "string"
        }
      ],
      "stateMutability": "view",
      "type": "function"
    },
    {
      "inputs": [
        {
          "internalType": "uint256",
          "name": "tokenId",
          "type": "uint256"
        }
      ],
      "name": "tokenURI",
      "outputs": [
        {
          "internalType": "string",
          "name": "",
          "type": "string"
        }
      ],
      "stateMutability": "view",
      "type": "function"
    },
    {
      "inputs": [
        {
          "internalType": "address",
          "name": "from",
          "type": "address"
        },
        {
          "internalType": "address",
          "name": "to",
          "type": "address"
        },
        {
          "internalType": "uint256",
          "name": "tokenId",
          "type": "uint256"
        }
      ],
      "name": "transferFrom",
      "outputs": [],
      "stateMutability": "nonpayable",
      "type": "function"
    },
    {
      "inputs": [
        {
          "internalType": "address",
          "name": "newOwner",
          "type": "address"
        }
      ],
      "name": "transferOwnership",
      "outputs": [],
      "stateMutability": "nonpayable",
      "type": "function"
    }
  ],
  "devdoc": {
    "kind": "dev",
    "methods": {
      "approve(address,uint256)": {
        "details": "See {IERC721-approve}."
      },
      "balanceOf(address)": {
        "details": "See {IERC721-balanceOf}."
      },
      "getApproved(uint256)": {
        "details": "See {IERC721-getApproved}."
      },
      "isApprovedForAll(address,address)": {
        "details": "See {IERC721-isApprovedForAll}."
      },
      "name()": {
        "details": "See {IERC721Metadata-name}."
      },
      "owner()": {
        "details": "Returns the address of the current owner."
      },
      "ownerOf(uint256)": {
        "details": "See {IERC721-ownerOf}."
      },
      "renounceOwnership()": {
        "details": "Leaves the contract without owner. It will not be possible to call `onlyOwner` functions anymore. Can only be called by the current owner. NOTE: Renouncing ownership will leave the contract without an owner, thereby removing any functionality that is only available to the owner."
      },
      "safeTransferFrom(address,address,uint256)": {
        "details": "See {IERC721-safeTransferFrom}."
      },
      "safeTransferFrom(address,address,uint256,bytes)": {
        "details": "See {IERC721-safeTransferFrom}."
      },
      "setApprovalForAll(address,bool)": {
        "details": "See {IERC721-setApprovalForAll}."
      },
      "supportsInterface(bytes4)": {
        "details": "See {IERC165-supportsInterface}."
      },
      "symbol()": {
        "details": "See {IERC721Metadata-symbol}."
      },
      "tokenURI(uint256)": {
        "details": "See {IERC721Metadata-tokenURI}."
      },
      "transferFrom(address,address,uint256)": {
        "details": "See {IERC721-transferFrom}."
      },
      "transferOwnership(address)": {
        "details": "Transfers ownership of the contract to a new account (`newOwner`). Can only be called by the current owner."
      }
    },
    "version": 1
  },
  "evm": {
    "assembly": "    /* \"Character.sol\":692:3841  contract Character is ERC721, Ownable {... */\n  mstore(0x40, 0xc0)\n    /* \"Character.sol\":1420:1582  constructor(IERC20 _coin, address _skillInfo)... */\n  callvalue\n  dup1\n  iszero\n  tag_1\n  jumpi\n  0x00\n  dup1\n  revert\ntag_1:\n  pop\n  mload(0x40)\n  sub(codesize, bytecodeSize)\n  dup1\n  bytecodeSize\n  dup4\n  codecopy\n  dup2\n  add\n  0x40\n  dup2\n  swap1\n  mstore\n  tag_2\n  swap2\n  tag_3\n  jump\t// in\ntag_2:\n    /* \"@openzeppelin/contracts/token/ERC721/ERC721.sol\":1390:1503   */\n  0x40\n  dup1\n  mload\n  dup1\n  dup3\n  add\n  dup3\n  mstore\n  0x09\n  dup2\n  mstore\n  shl(0xb9, 0x21b430b930b1ba32b9)\n  0x20\n  dup1\n  dup4\n  add\n  swap2\n  dup3\n  mstore\n  dup4\n  mload\n  dup1\n  dup6\n  add\n  swap1\n  swap5\n  mstore\n  0x06\n  dup5\n  mstore\n  shl(0xd1, 0x242aa72a22a9)\n  swap1\n  dup5\n  add\n  mstore\n    /* \"@openzeppelin/contracts/token/ERC721/ERC721.sol\":1456:1469   */\n  dup2\n  mload\n    /* \"@openzeppelin/contracts/token/ERC721/ERC721.sol\":1390:1503   */\n  swap2\n  swap3\n  swap2\n    /* \"@openzeppelin/contracts/token/ERC721/ERC721.sol\":1456:1469   */\n  tag_8\n  swap2\n  0x00\n  swap2\n  tag_9\n  jump\t// in\ntag_8:\n  pop\n    /* \"@openzeppelin/contracts/token/ERC721/ERC721.sol\":1479:1496   */\n  dup1\n  mload\n  tag_10\n  swap1\n    /* \"@openzeppelin/contracts/token/ERC721/ERC721.sol\":1479:1486   */\n  0x01\n  swap1\n    /* \"@openzeppelin/contracts/token/ERC721/ERC721.sol\":1479:1496   */\n  0x20\n  dup5\n  add\n  swap1\n  tag_9\n  jump\t// in\ntag_10:\n  pop\n    /* \"@openzeppelin/contracts/token/ERC721/ERC721.sol\":1390:1503   */\n  pop\n  pop\n    /* \"@openzeppelin/contracts/access/Ownable.sol\":936:968   */\n  tag_12\n    /* \"@openzeppelin/contracts/access/Ownable.sol\":955:967   */\n  tag_13\n    /* \"@openzeppelin/contracts/access/Ownable.sol\":955:965   */\n  shl(0x20, tag_14)\n    /* \"@openzeppelin/contracts/access/Ownable.sol\":955:967   */\n  0x20\n  shr\n  jump\t// in\ntag_13:\n    /* \"@openzeppelin/contracts/access/Ownable.sol\":936:954   */\n  tag_15\n    /* \"@openzeppelin/contracts/access/Ownable.sol\":936:968   */\n  jump\t// in\ntag_12:\n  sub(shl(0xa0, 0x01), 0x01)\n    /* \"Character.sol\":1521:1533  coin = _coin */\n  swap2\n  dup3\n  and\n  0x80\n  mstore\n    /* \"Character.sol\":1544:1574  skillInfo = Skills(_skillInfo) */\n  and\n  0xa0\n  mstore\n    /* \"Character.sol\":692:3841  contract Character is ERC721, Ownable {... */\n  jump(tag_32)\n    /* \"@openzeppelin/contracts/utils/Context.sol\":640:736   */\ntag_14:\n    /* \"@openzeppelin/contracts/utils/Context.sol\":719:729   */\n  caller\n  swap1\n    /* \"@openzeppelin/contracts/utils/Context.sol\":640:736   */\n  jump\t// out\n    /* \"@openzeppelin/contracts/access/Ownable.sol\":2433:2620   */\ntag_15:\n    /* \"@openzeppelin/contracts/access/Ownable.sol\":2525:2531   */\n  0x06\n  dup1\n  sload\n  sub(shl(0xa0, 0x01), 0x01)\n    /* \"@openzeppelin/contracts/access/Ownable.sol\":2541:2558   */\n  dup4\n  dup2\n  and\n  not(sub(shl(0xa0, 0x01), 0x01))\n  dup4\n  and\n  dup2\n  or\n  swap1\n  swap4\n  sstore\n    /* \"@openzeppelin/contracts/access/Ownable.sol\":2573:2613   */\n  mload(0x40)\n    /* \"@openzeppelin/contracts/access/Ownable.sol\":2525:2531   */\n  swap2\n  and\n  swap2\n    /* \"@openzeppelin/contracts/access/Ownable.sol\":2541:2558   */\n  swap1\n    /* \"@openzeppelin/contracts/access/Ownable.sol\":2525:2531   */\n  dup3\n  swap1\n    /* \"@openzeppelin/contracts/access/Ownable.sol\":2573:2613   */\n  0x8be0079c531659141344cd1fd0a4f28419497f9722a3daafe3b4186f6b6457e0\n  swap1\n    /* \"@openzeppelin/contracts/access/Ownable.sol\":2506:2522   */\n  0x00\n  swap1\n    /* \"@openzeppelin/contracts/access/Ownable.sol\":2573:2613   */\n  log3\n    /* \"@openzeppelin/contracts/access/Ownable.sol\":2496:2620   */\n  pop\n    /* \"@openzeppelin/contracts/access/Ownable.sol\":2433:2620   */\n  pop\n  jump\t// out\n    /* \"Character.sol\":692:3841  contract Character is ERC721, Ownable {... */\ntag_9:\n  dup3\n  dup1\n  sload\n  tag_20\n  swap1\n  tag_21\n  jump\t// in\ntag_20:\n  swap1\n  0x00\n  mstore\n  keccak256(0x00, 0x20)\n  swap1\n  0x1f\n  add\n  0x20\n  swap1\n  div\n  dup2\n  add\n  swap3\n  dup3\n  tag_23\n  jumpi\n  0x00\n  dup6\n  sstore\n  jump(tag_26)\ntag_23:\n  dup3\n  0x1f\n  lt\n  tag_24\n  jumpi\n  dup1\n  mload\n  not(0xff)\n  and\n  dup4\n  dup1\n  add\n  or\n  dup6\n  sstore\n  jump(tag_26)\ntag_24:\n  dup3\n  dup1\n  add\n  0x01\n  add\n  dup6\n  sstore\n  dup3\n  iszero\n  tag_26\n  jumpi\n  swap2\n  dup3\n  add\ntag_25:\n  dup3\n  dup2\n  gt\n  iszero\n  tag_26\n  jumpi\n  dup3\n  mload\n  dup3\n  sstore\n  swap2\n  0x20\n  add\n  swap2\n  swap1\n  0x01\n  add\n  swap1\n  jump(tag_25)\ntag_26:\n  pop\n  tag_27\n  swap3\n  swap2\n  pop\n  tag_28\n  jump\t// in\ntag_27:\n  pop\n  swap1\n  jump\t// out\ntag_28:\ntag_29:\n  dup1\n  dup3\n  gt\n  iszero\n  tag_27\n  jumpi\n  0x00\n  dup2\n  sstore\n  0x01\n  add\n  jump(tag_29)\n    /* \"#utility.yul\":14:153   */\ntag_31:\n  sub(shl(0xa0, 0x01), 0x01)\n    /* \"#utility.yul\":97:128   */\n  dup2\n  and\n    /* \"#utility.yul\":87:129   */\n  dup2\n  eq\n    /* \"#utility.yul\":77:147   */\n  tag_34\n  jumpi\n    /* \"#utility.yul\":143:144   */\n  0x00\n    /* \"#utility.yul\":140:141   */\n  dup1\n    /* \"#utility.yul\":133:145   */\n  revert\n    /* \"#utility.yul\":77:147   */\ntag_34:\n    /* \"#utility.yul\":14:153   */\n  pop\n  jump\t// out\n    /* \"#utility.yul\":158:574   */\ntag_3:\n    /* \"#utility.yul\":252:258   */\n  0x00\n    /* \"#utility.yul\":260:266   */\n  dup1\n    /* \"#utility.yul\":313:315   */\n  0x40\n    /* \"#utility.yul\":301:310   */\n  dup4\n    /* \"#utility.yul\":292:299   */\n  dup6\n    /* \"#utility.yul\":288:311   */\n  sub\n    /* \"#utility.yul\":284:316   */\n  slt\n    /* \"#utility.yul\":281:333   */\n  iszero\n  tag_36\n  jumpi\n    /* \"#utility.yul\":329:330   */\n  0x00\n    /* \"#utility.yul\":326:327   */\n  dup1\n    /* \"#utility.yul\":319:331   */\n  revert\n    /* \"#utility.yul\":281:333   */\ntag_36:\n    /* \"#utility.yul\":361:370   */\n  dup3\n    /* \"#utility.yul\":355:371   */\n  mload\n    /* \"#utility.yul\":380:419   */\n  tag_37\n    /* \"#utility.yul\":413:418   */\n  dup2\n    /* \"#utility.yul\":380:419   */\n  tag_31\n  jump\t// in\ntag_37:\n    /* \"#utility.yul\":488:490   */\n  0x20\n    /* \"#utility.yul\":473:491   */\n  dup5\n  add\n    /* \"#utility.yul\":467:492   */\n  mload\n    /* \"#utility.yul\":438:443   */\n  swap1\n  swap3\n  pop\n    /* \"#utility.yul\":501:542   */\n  tag_38\n    /* \"#utility.yul\":467:492   */\n  dup2\n    /* \"#utility.yul\":501:542   */\n  tag_31\n  jump\t// in\ntag_38:\n    /* \"#utility.yul\":561:568   */\n  dup1\n    /* \"#utility.yul\":551:568   */\n  swap2\n  pop\n  pop\n    /* \"#utility.yul\":158:574   */\n  swap3\n  pop\n  swap3\n  swap1\n  pop\n  jump\t// out\n    /* \"#utility.yul\":579:959   */\ntag_21:\n    /* \"#utility.yul\":658:659   */\n  0x01\n    /* \"#utility.yul\":654:666   */\n  dup2\n  dup2\n  shr\n  swap1\n    /* \"#utility.yul\":701:713   */\n  dup3\n  and\n  dup1\n    /* \"#utility.yul\":722:783   */\n  tag_40\n  jumpi\n    /* \"#utility.yul\":776:780   */\n  0x7f\n    /* \"#utility.yul\":768:774   */\n  dup3\n    /* \"#utility.yul\":764:781   */\n  and\n    /* \"#utility.yul\":754:781   */\n  swap2\n  pop\n    /* \"#utility.yul\":722:783   */\ntag_40:\n    /* \"#utility.yul\":829:831   */\n  0x20\n    /* \"#utility.yul\":821:827   */\n  dup3\n    /* \"#utility.yul\":818:832   */\n  lt\n    /* \"#utility.yul\":798:816   */\n  dup2\n    /* \"#utility.yul\":795:833   */\n  sub\n    /* \"#utility.yul\":792:953   */\n  tag_41\n  jumpi\n    /* \"#utility.yul\":875:885   */\n  0x4e487b71\n    /* \"#utility.yul\":870:873   */\n  0xe0\n    /* \"#utility.yul\":866:886   */\n  shl\n    /* \"#utility.yul\":863:864   */\n  0x00\n    /* \"#utility.yul\":856:887   */\n  mstore\n    /* \"#utility.yul\":910:914   */\n  0x22\n    /* \"#utility.yul\":907:908   */\n  0x04\n    /* \"#utility.yul\":900:915   */\n  mstore\n    /* \"#utility.yul\":938:942   */\n  0x24\n    /* \"#utility.yul\":935:936   */\n  0x00\n    /* \"#utility.yul\":928:943   */\n  revert\n    /* \"#utility.yul\":792:953   */\ntag_41:\n  pop\n    /* \"#utility.yul\":579:959   */\n  swap2\n  swap1\n  pop\n  jump\t// out\ntag_32:\n    /* \"Character.sol\":692:3841  contract Character is ERC721, Ownable {... */\n  mload(0x80)\n  mload(0xa0)\n  codecopy(0x00, dataOffset(sub_0), dataSize(sub_0))\n  0x00\n  assignImmutable(\"0x6bcaf047ba4c8ac400fca43393035242dd1aabda2d6068a0c51242b97224de8d\")\n  0x00\n  assignImmutable(\"0xd67d834462ca31eaef1f30157e31659f60355143b7441e6fc7d9eae1fa79f3f8\")\n  return(0x00, dataSize(sub_0))\nstop\n\nsub_0: assembly {\n        /* \"Character.sol\":692:3841  contract Character is ERC721, Ownable {... */\n      mstore(0x40, 0x80)\n      callvalue\n      dup1\n      iszero\n      tag_1\n      jumpi\n      0x00\n      dup1\n      revert\n    tag_1:\n      pop\n      jumpi(tag_2, lt(calldatasize, 0x04))\n      shr(0xe0, calldataload(0x00))\n      dup1\n      0x70a08231\n      gt\n      tag_31\n      jumpi\n      dup1\n      0xadf448d8\n      gt\n      tag_32\n      jumpi\n      dup1\n      0xc87b56dd\n      gt\n      tag_33\n      jumpi\n      dup1\n      0xc87b56dd\n      eq\n      tag_27\n      jumpi\n      dup1\n      0xe51c4ecc\n      eq\n      tag_28\n      jumpi\n      dup1\n      0xe985e9c5\n      eq\n      tag_29\n      jumpi\n      dup1\n      0xf2fde38b\n      eq\n      tag_30\n      jumpi\n      0x00\n      dup1\n      revert\n    tag_33:\n      dup1\n      0xadf448d8\n      eq\n      tag_24\n      jumpi\n      dup1\n      0xb88d4fde\n      eq\n      tag_25\n      jumpi\n      dup1\n      0xc6cc5105\n      eq\n      tag_26\n      jumpi\n      0x00\n      dup1\n      revert\n    tag_32:\n      dup1\n      0x8da5cb5b\n      gt\n      tag_34\n      jumpi\n      dup1\n      0x8da5cb5b\n      eq\n      tag_20\n      jumpi\n      dup1\n      0x941db000\n      eq\n      tag_21\n      jumpi\n      dup1\n      0x95d89b41\n      eq\n      tag_22\n      jumpi\n      dup1\n      0xa22cb465\n      eq\n      tag_23\n      jumpi\n      0x00\n      dup1\n      revert\n    tag_34:\n      dup1\n      0x70a08231\n      eq\n      tag_17\n      jumpi\n      dup1\n      0x715018a6\n      eq\n      tag_18\n      jumpi\n      dup1\n      0x7ae27560\n      eq\n      tag_19\n      jumpi\n      0x00\n      dup1\n      revert\n    tag_31:\n      dup1\n      0x23b872dd\n      gt\n      tag_35\n      jumpi\n      dup1\n      0x3b092f39\n      gt\n      tag_36\n      jumpi\n      dup1\n      0x3b092f39\n      eq\n      tag_13\n      jumpi\n      dup1\n      0x42842e0e\n      eq\n      tag_14\n      jumpi\n      dup1\n      0x4f068da7\n      eq\n      tag_15\n      jumpi\n      dup1\n      0x6352211e\n      eq\n      tag_16\n      jumpi\n      0x00\n      dup1\n      revert\n    tag_36:\n      dup1\n      0x23b872dd\n      eq\n      tag_10\n      jumpi\n      dup1\n      0x34451530\n      eq\n      tag_11\n      jumpi\n      dup1\n      0x363dd19e\n      eq\n      tag_12\n      jumpi\n      0x00\n      dup1\n      revert\n    tag_35:\n      dup1\n      0x081812fc\n      gt\n      tag_37\n      jumpi\n      dup1\n      0x081812fc\n      eq\n      tag_6\n      jumpi\n      dup1\n      0x08572119\n      eq\n      tag_7\n      jumpi\n      dup1\n      0x095ea7b3\n      eq\n      tag_8\n      jumpi\n      dup1\n      0x11df9995\n      eq\n      tag_9\n      jumpi\n      0x00\n      dup1\n      revert\n    tag_37:\n      dup1\n      0xad800c\n      eq\n      tag_3\n      jumpi\n      dup1\n      0x01ffc9a7\n      eq\n      tag_4\n      jumpi\n      dup1\n      0x06fdde03\n      eq\n      tag_5\n      jumpi\n    tag_2:\n      0x00\n      dup1\n      revert\n        /* \"Character.sol\":1107:1142  mapping(uint => string) public name */\n    tag_3:\n      tag_38\n      tag_39\n      calldatasize\n      0x04\n      tag_40\n      jump\t// in\n    tag_39:\n      tag_41\n      jump\t// in\n    tag_38:\n      mload(0x40)\n      tag_42\n      swap2\n      swap1\n      tag_43\n      jump\t// in\n    tag_42:\n      mload(0x40)\n      dup1\n      swap2\n      sub\n      swap1\n      return\n        /* \"@openzeppelin/contracts/token/ERC721/ERC721.sol\":1570:1870   */\n    tag_4:\n      tag_44\n      tag_45\n      calldatasize\n      0x04\n      tag_46\n      jump\t// in\n    tag_45:\n      tag_47\n      jump\t// in\n    tag_44:\n      mload(0x40)\n        /* \"#utility.yul\":1501:1515   */\n      swap1\n      iszero\n        /* \"#utility.yul\":1494:1516   */\n      iszero\n        /* \"#utility.yul\":1476:1517   */\n      dup2\n      mstore\n        /* \"#utility.yul\":1464:1466   */\n      0x20\n        /* \"#utility.yul\":1449:1467   */\n      add\n        /* \"@openzeppelin/contracts/token/ERC721/ERC721.sol\":1570:1870   */\n      tag_42\n        /* \"#utility.yul\":1336:1523   */\n      jump\n        /* \"@openzeppelin/contracts/token/ERC721/ERC721.sol\":2470:2568   */\n    tag_5:\n      tag_38\n      tag_51\n      jump\t// in\n        /* \"@openzeppelin/contracts/token/ERC721/ERC721.sol\":3935:4102   */\n    tag_6:\n      tag_53\n      tag_54\n      calldatasize\n      0x04\n      tag_40\n      jump\t// in\n    tag_54:\n      tag_55\n      jump\t// in\n    tag_53:\n      mload(0x40)\n      sub(shl(0xa0, 0x01), 0x01)\n        /* \"#utility.yul\":1692:1747   */\n      swap1\n      swap2\n      and\n        /* \"#utility.yul\":1674:1748   */\n      dup2\n      mstore\n        /* \"#utility.yul\":1662:1664   */\n      0x20\n        /* \"#utility.yul\":1647:1665   */\n      add\n        /* \"@openzeppelin/contracts/token/ERC721/ERC721.sol\":3935:4102   */\n      tag_42\n        /* \"#utility.yul\":1528:1754   */\n      jump\n        /* \"Character.sol\":3433:3838  function hunter_skill_multiple(address _hunter)... */\n    tag_7:\n      tag_58\n      tag_59\n      calldatasize\n      0x04\n      tag_60\n      jump\t// in\n    tag_59:\n      tag_61\n      jump\t// in\n    tag_58:\n      mload(0x40)\n      tag_42\n      swap2\n      swap1\n      tag_63\n      jump\t// in\n        /* \"@openzeppelin/contracts/token/ERC721/ERC721.sol\":3467:3874   */\n    tag_8:\n      tag_64\n      tag_65\n      calldatasize\n      0x04\n      tag_66\n      jump\t// in\n    tag_65:\n      tag_67\n      jump\t// in\n    tag_64:\n      stop\n        /* \"Character.sol\":862:890  IERC20 public immutable coin */\n    tag_9:\n      tag_53\n      immutable(\"0xd67d834462ca31eaef1f30157e31659f60355143b7441e6fc7d9eae1fa79f3f8\")\n      dup2\n      jump\n        /* \"@openzeppelin/contracts/token/ERC721/ERC721.sol\":4612:4939   */\n    tag_10:\n      tag_64\n      tag_73\n      calldatasize\n      0x04\n      tag_74\n      jump\t// in\n    tag_73:\n      tag_75\n      jump\t// in\n        /* \"Character.sol\":1168:1204  mapping(uint => uint[]) public skill */\n    tag_11:\n      tag_76\n      tag_77\n      calldatasize\n      0x04\n      tag_78\n      jump\t// in\n    tag_77:\n      tag_79\n      jump\t// in\n    tag_76:\n      mload(0x40)\n        /* \"#utility.yul\":4025:4050   */\n      swap1\n      dup2\n      mstore\n        /* \"#utility.yul\":4013:4015   */\n      0x20\n        /* \"#utility.yul\":3998:4016   */\n      add\n        /* \"Character.sol\":1168:1204  mapping(uint => uint[]) public skill */\n      tag_42\n        /* \"#utility.yul\":3879:4056   */\n      jump\n        /* \"Character.sol\":1590:2092  function summon() external {... */\n    tag_12:\n      tag_64\n      tag_83\n      jump\t// in\n        /* \"Character.sol\":1053:1100  mapping(address => uint) public address_tokenId */\n    tag_13:\n      tag_76\n      tag_85\n      calldatasize\n      0x04\n      tag_60\n      jump\t// in\n    tag_85:\n      mstore(0x20, 0x09)\n      0x00\n      swap1\n      dup2\n      mstore\n      0x40\n      swap1\n      keccak256\n      sload\n      dup2\n      jump\n        /* \"@openzeppelin/contracts/token/ERC721/ERC721.sol\":5005:5184   */\n    tag_14:\n      tag_64\n      tag_89\n      calldatasize\n      0x04\n      tag_74\n      jump\t// in\n    tag_89:\n      tag_90\n      jump\t// in\n        /* \"Character.sol\":2951:3203  function coin_required(uint curent_skill)... */\n    tag_15:\n      tag_76\n      tag_92\n      calldatasize\n      0x04\n      tag_40\n      jump\t// in\n    tag_92:\n      tag_93\n      jump\t// in\n        /* \"@openzeppelin/contracts/token/ERC721/ERC721.sol\":2190:2408   */\n    tag_16:\n      tag_53\n      tag_96\n      calldatasize\n      0x04\n      tag_40\n      jump\t// in\n    tag_96:\n      tag_97\n      jump\t// in\n        /* \"@openzeppelin/contracts/token/ERC721/ERC721.sol\":1929:2133   */\n    tag_17:\n      tag_76\n      tag_100\n      calldatasize\n      0x04\n      tag_60\n      jump\t// in\n    tag_100:\n      tag_101\n      jump\t// in\n        /* \"@openzeppelin/contracts/access/Ownable.sol\":1831:1932   */\n    tag_18:\n      tag_64\n      tag_104\n      jump\t// in\n        /* \"Character.sol\":2100:2709  function skill_up(uint _hunter, uint _skill_index) external onlyOwner {... */\n    tag_19:\n      tag_64\n      tag_106\n      calldatasize\n      0x04\n      tag_78\n      jump\t// in\n    tag_106:\n      tag_107\n      jump\t// in\n        /* \"@openzeppelin/contracts/access/Ownable.sol\":1201:1286   */\n    tag_20:\n        /* \"@openzeppelin/contracts/access/Ownable.sol\":1273:1279   */\n      and(sub(shl(0xa0, 0x01), 0x01), sload(0x06))\n        /* \"@openzeppelin/contracts/access/Ownable.sol\":1201:1286   */\n      jump(tag_53)\n        /* \"Character.sol\":897:930  Skills public immutable skillInfo */\n    tag_21:\n      tag_53\n      immutable(\"0x6bcaf047ba4c8ac400fca43393035242dd1aabda2d6068a0c51242b97224de8d\")\n      dup2\n      jump\n        /* \"@openzeppelin/contracts/token/ERC721/ERC721.sol\":2632:2734   */\n    tag_22:\n      tag_38\n      tag_116\n      jump\t// in\n        /* \"@openzeppelin/contracts/token/ERC721/ERC721.sol\":4169:4322   */\n    tag_23:\n      tag_64\n      tag_119\n      calldatasize\n      0x04\n      tag_120\n      jump\t// in\n    tag_119:\n      tag_121\n      jump\t// in\n        /* \"Character.sol\":1000:1046  mapping(address => bool) public minted_address */\n    tag_24:\n      tag_44\n      tag_123\n      calldatasize\n      0x04\n      tag_60\n      jump\t// in\n    tag_123:\n      mstore(0x20, 0x08)\n      0x00\n      swap1\n      dup2\n      mstore\n      0x40\n      swap1\n      keccak256\n      sload\n      0xff\n      and\n      dup2\n      jump\n        /* \"@openzeppelin/contracts/token/ERC721/ERC721.sol\":5250:5565   */\n    tag_25:\n      tag_64\n      tag_127\n      calldatasize\n      0x04\n      tag_128\n      jump\t// in\n    tag_127:\n      tag_129\n      jump\t// in\n        /* \"Character.sol\":3211:3425  function hunter_skill(address _hunter)... */\n    tag_26:\n      tag_58\n      tag_131\n      calldatasize\n      0x04\n      tag_60\n      jump\t// in\n    tag_131:\n      tag_132\n      jump\t// in\n        /* \"@openzeppelin/contracts/token/ERC721/ERC721.sol\":2800:3076   */\n    tag_27:\n      tag_38\n      tag_135\n      calldatasize\n      0x04\n      tag_40\n      jump\t// in\n    tag_135:\n      tag_136\n      jump\t// in\n        /* \"Character.sol\":2717:2943  function change_name(uint _hunter, string memory _name) external onlyOwner {... */\n    tag_28:\n      tag_64\n      tag_139\n      calldatasize\n      0x04\n      tag_140\n      jump\t// in\n    tag_139:\n      tag_141\n      jump\t// in\n        /* \"@openzeppelin/contracts/token/ERC721/ERC721.sol\":4388:4550   */\n    tag_29:\n      tag_44\n      tag_143\n      calldatasize\n      0x04\n      tag_144\n      jump\t// in\n    tag_143:\n      sub(shl(0xa0, 0x01), 0x01)\n        /* \"@openzeppelin/contracts/token/ERC721/ERC721.sol\":4508:4533   */\n      swap2\n      dup3\n      and\n        /* \"@openzeppelin/contracts/token/ERC721/ERC721.sol\":4485:4489   */\n      0x00\n        /* \"@openzeppelin/contracts/token/ERC721/ERC721.sol\":4508:4533   */\n      swap1\n      dup2\n      mstore\n        /* \"@openzeppelin/contracts/token/ERC721/ERC721.sol\":4508:4526   */\n      0x05\n        /* \"@openzeppelin/contracts/token/ERC721/ERC721.sol\":4508:4533   */\n      0x20\n      swap1\n      dup2\n      mstore\n      0x40\n      dup1\n      dup4\n      keccak256\n        /* \"@openzeppelin/contracts/token/ERC721/ERC721.sol\":4508:4543   */\n      swap4\n      swap1\n      swap5\n      and\n      dup3\n      mstore\n      swap2\n      swap1\n      swap2\n      mstore\n      keccak256\n      sload\n      0xff\n      and\n      swap1\n        /* \"@openzeppelin/contracts/token/ERC721/ERC721.sol\":4388:4550   */\n      jump\n        /* \"@openzeppelin/contracts/access/Ownable.sol\":2081:2279   */\n    tag_30:\n      tag_64\n      tag_148\n      calldatasize\n      0x04\n      tag_60\n      jump\t// in\n    tag_148:\n      tag_149\n      jump\t// in\n        /* \"Character.sol\":1107:1142  mapping(uint => string) public name */\n    tag_41:\n      mstore(0x20, 0x0a)\n      0x00\n      swap1\n      dup2\n      mstore\n      0x40\n      swap1\n      keccak256\n      dup1\n      sload\n      tag_150\n      swap1\n      tag_151\n      jump\t// in\n    tag_150:\n      dup1\n      0x1f\n      add\n      0x20\n      dup1\n      swap2\n      div\n      mul\n      0x20\n      add\n      mload(0x40)\n      swap1\n      dup2\n      add\n      0x40\n      mstore\n      dup1\n      swap3\n      swap2\n      swap1\n      dup2\n      dup2\n      mstore\n      0x20\n      add\n      dup3\n      dup1\n      sload\n      tag_152\n      swap1\n      tag_151\n      jump\t// in\n    tag_152:\n      dup1\n      iszero\n      tag_153\n      jumpi\n      dup1\n      0x1f\n      lt\n      tag_154\n      jumpi\n      0x0100\n      dup1\n      dup4\n      sload\n      div\n      mul\n      dup4\n      mstore\n      swap2\n      0x20\n      add\n      swap2\n      jump(tag_153)\n    tag_154:\n      dup3\n      add\n      swap2\n      swap1\n      0x00\n      mstore\n      keccak256(0x00, 0x20)\n      swap1\n    tag_155:\n      dup2\n      sload\n      dup2\n      mstore\n      swap1\n      0x01\n      add\n      swap1\n      0x20\n      add\n      dup1\n      dup4\n      gt\n      tag_155\n      jumpi\n      dup3\n      swap1\n      sub\n      0x1f\n      and\n      dup3\n      add\n      swap2\n    tag_153:\n      pop\n      pop\n      pop\n      pop\n      pop\n      dup2\n      jump\t// out\n        /* \"@openzeppelin/contracts/token/ERC721/ERC721.sol\":1570:1870   */\n    tag_47:\n        /* \"@openzeppelin/contracts/token/ERC721/ERC721.sol\":1672:1676   */\n      0x00\n      not(sub(shl(0xe0, 0x01), 0x01))\n        /* \"@openzeppelin/contracts/token/ERC721/ERC721.sol\":1707:1747   */\n      dup3\n      and\n      shl(0xe0, 0x80ac58cd)\n      eq\n      dup1\n        /* \"@openzeppelin/contracts/token/ERC721/ERC721.sol\":1707:1811   */\n      tag_157\n      jumpi\n      pop\n      not(sub(shl(0xe0, 0x01), 0x01))\n        /* \"@openzeppelin/contracts/token/ERC721/ERC721.sol\":1763:1811   */\n      dup3\n      and\n      shl(0xe0, 0x5b5e139f)\n      eq\n        /* \"@openzeppelin/contracts/token/ERC721/ERC721.sol\":1707:1811   */\n    tag_157:\n        /* \"@openzeppelin/contracts/token/ERC721/ERC721.sol\":1707:1863   */\n      dup1\n      tag_159\n      jumpi\n      pop\n      shl(0xe0, 0x01ffc9a7)\n      not(sub(shl(0xe0, 0x01), 0x01))\n        /* \"@openzeppelin/contracts/utils/introspection/ERC165.sol\":937:977   */\n      dup4\n      and\n      eq\n        /* \"@openzeppelin/contracts/token/ERC721/ERC721.sol\":1827:1863   */\n    tag_159:\n        /* \"@openzeppelin/contracts/token/ERC721/ERC721.sol\":1688:1863   */\n      swap3\n        /* \"@openzeppelin/contracts/token/ERC721/ERC721.sol\":1570:1870   */\n      swap2\n      pop\n      pop\n      jump\t// out\n        /* \"@openzeppelin/contracts/token/ERC721/ERC721.sol\":2470:2568   */\n    tag_51:\n        /* \"@openzeppelin/contracts/token/ERC721/ERC721.sol\":2524:2537   */\n      0x60\n        /* \"@openzeppelin/contracts/token/ERC721/ERC721.sol\":2556:2561   */\n      0x00\n        /* \"@openzeppelin/contracts/token/ERC721/ERC721.sol\":2549:2561   */\n      dup1\n      sload\n      tag_162\n      swap1\n      tag_151\n      jump\t// in\n    tag_162:\n      dup1\n      0x1f\n      add\n      0x20\n      dup1\n      swap2\n      div\n      mul\n      0x20\n      add\n      mload(0x40)\n      swap1\n      dup2\n      add\n      0x40\n      mstore\n      dup1\n      swap3\n      swap2\n      swap1\n      dup2\n      dup2\n      mstore\n      0x20\n      add\n      dup3\n      dup1\n      sload\n      tag_163\n      swap1\n      tag_151\n      jump\t// in\n    tag_163:\n      dup1\n      iszero\n      tag_164\n      jumpi\n      dup1\n      0x1f\n      lt\n      tag_165\n      jumpi\n      0x0100\n      dup1\n      dup4\n      sload\n      div\n      mul\n      dup4\n      mstore\n      swap2\n      0x20\n      add\n      swap2\n      jump(tag_164)\n    tag_165:\n      dup3\n      add\n      swap2\n      swap1\n      0x00\n      mstore\n      keccak256(0x00, 0x20)\n      swap1\n    tag_166:\n      dup2\n      sload\n      dup2\n      mstore\n      swap1\n      0x01\n      add\n      swap1\n      0x20\n      add\n      dup1\n      dup4\n      gt\n      tag_166\n      jumpi\n      dup3\n      swap1\n      sub\n      0x1f\n      and\n      dup3\n      add\n      swap2\n    tag_164:\n      pop\n      pop\n      pop\n      pop\n      pop\n      swap1\n      pop\n        /* \"@openzeppelin/contracts/token/ERC721/ERC721.sol\":2470:2568   */\n      swap1\n      jump\t// out\n        /* \"@openzeppelin/contracts/token/ERC721/ERC721.sol\":3935:4102   */\n    tag_55:\n        /* \"@openzeppelin/contracts/token/ERC721/ERC721.sol\":4011:4018   */\n      0x00\n        /* \"@openzeppelin/contracts/token/ERC721/ERC721.sol\":4030:4053   */\n      tag_168\n        /* \"@openzeppelin/contracts/token/ERC721/ERC721.sol\":4045:4052   */\n      dup3\n        /* \"@openzeppelin/contracts/token/ERC721/ERC721.sol\":4030:4044   */\n      tag_169\n        /* \"@openzeppelin/contracts/token/ERC721/ERC721.sol\":4030:4053   */\n      jump\t// in\n    tag_168:\n      pop\n        /* \"@openzeppelin/contracts/token/ERC721/ERC721.sol\":4071:4095   */\n      0x00\n      swap1\n      dup2\n      mstore\n        /* \"@openzeppelin/contracts/token/ERC721/ERC721.sol\":4071:4086   */\n      0x04\n        /* \"@openzeppelin/contracts/token/ERC721/ERC721.sol\":4071:4095   */\n      0x20\n      mstore\n      0x40\n      swap1\n      keccak256\n      sload\n      sub(shl(0xa0, 0x01), 0x01)\n      and\n      swap1\n        /* \"@openzeppelin/contracts/token/ERC721/ERC721.sol\":3935:4102   */\n      jump\t// out\n        /* \"Character.sol\":3433:3838  function hunter_skill_multiple(address _hunter)... */\n    tag_61:\n      sub(shl(0xa0, 0x01), 0x01)\n        /* \"Character.sol\":3590:3614  address_tokenId[_hunter] */\n      dup2\n      and\n        /* \"Character.sol\":3572:3587  uint _hunter_id */\n      0x00\n        /* \"Character.sol\":3590:3614  address_tokenId[_hunter] */\n      swap1\n      dup2\n      mstore\n        /* \"Character.sol\":3590:3605  address_tokenId */\n      0x09\n        /* \"Character.sol\":3590:3614  address_tokenId[_hunter] */\n      0x20\n      mstore\n      0x40\n      swap1\n      dup2\n      swap1\n      keccak256\n      sload\n        /* \"Character.sol\":3637:3650  new uint[](3) */\n      dup2\n      mload\n        /* \"Character.sol\":3648:3649  3 */\n      0x03\n        /* \"Character.sol\":3637:3650  new uint[](3) */\n      dup1\n      dup3\n      mstore\n      0x80\n      dup3\n      add\n      swap1\n      swap4\n      mstore\n        /* \"Character.sol\":3531:3554  uint[] memory _multiple */\n      0x60\n      swap3\n        /* \"Character.sol\":3637:3650  new uint[](3) */\n      dup2\n      0x20\n      add\n      0x20\n      dup3\n      mul\n      dup1\n      calldatasize\n      dup4\n      calldatacopy\n      add\n      swap1\n      pop\n      pop\n        /* \"Character.sol\":3625:3650  _multiple = new uint[](3) */\n      swap2\n      pop\n        /* \"Character.sol\":3666:3675  uint256 i */\n      0x00\n        /* \"Character.sol\":3661:3831  for (uint256 i = 0; i < skill[_hunter_id].length; i++) {... */\n    tag_175:\n        /* \"Character.sol\":3685:3702  skill[_hunter_id] */\n      0x00\n      dup3\n      dup2\n      mstore\n        /* \"Character.sol\":3685:3690  skill */\n      0x0b\n        /* \"Character.sol\":3685:3702  skill[_hunter_id] */\n      0x20\n      mstore\n      0x40\n      swap1\n      keccak256\n        /* \"Character.sol\":3685:3709  skill[_hunter_id].length */\n      sload\n        /* \"Character.sol\":3681:3709  i < skill[_hunter_id].length */\n      dup2\n      lt\n        /* \"Character.sol\":3661:3831  for (uint256 i = 0; i < skill[_hunter_id].length; i++) {... */\n      iszero\n      tag_176\n      jumpi\n        /* \"Character.sol\":3757:3781  skillInfo.skill_by_id(i) */\n      mload(0x40)\n      shl(0xe0, 0x335dd05f)\n      dup2\n      mstore\n      0x04\n      dup2\n      add\n        /* \"#utility.yul\":4025:4050   */\n      dup3\n      swap1\n      mstore\n        /* \"Character.sol\":3740:3753  uint multiple */\n      0x00\n      swap1\n        /* \"Character.sol\":3757:3766  skillInfo */\n      immutable(\"0x6bcaf047ba4c8ac400fca43393035242dd1aabda2d6068a0c51242b97224de8d\")\n      sub(shl(0xa0, 0x01), 0x01)\n        /* \"Character.sol\":3757:3778  skillInfo.skill_by_id */\n      and\n      swap1\n      0x335dd05f\n      swap1\n        /* \"#utility.yul\":3998:4016   */\n      0x24\n      add\n        /* \"Character.sol\":3757:3781  skillInfo.skill_by_id(i) */\n      0x00\n      mload(0x40)\n      dup1\n      dup4\n      sub\n      dup2\n      dup7\n      gas\n      staticcall\n      iszero\n      dup1\n      iszero\n      tag_180\n      jumpi\n      returndatasize\n      0x00\n      dup1\n      returndatacopy\n      revert(0x00, returndatasize)\n    tag_180:\n      pop\n      pop\n      pop\n      pop\n      mload(0x40)\n      returndatasize\n      0x00\n      dup3\n      returndatacopy\n      0x1f\n      returndatasize\n      swap1\n      dup2\n      add\n      not(0x1f)\n      and\n      dup3\n      add\n      0x40\n      mstore\n      tag_181\n      swap2\n      swap1\n      dup2\n      add\n      swap1\n      tag_182\n      jump\t// in\n    tag_181:\n        /* \"Character.sol\":3731:3781  (, , , , uint multiple) = skillInfo.skill_by_id(i) */\n      swap5\n      pop\n      pop\n      pop\n      pop\n      pop\n        /* \"Character.sol\":3811:3819  multiple */\n      dup1\n        /* \"Character.sol\":3796:3805  _multiple */\n      dup5\n        /* \"Character.sol\":3806:3807  i */\n      dup4\n        /* \"Character.sol\":3796:3808  _multiple[i] */\n      dup2\n      mload\n      dup2\n      lt\n      tag_184\n      jumpi\n      tag_184\n      tag_185\n      jump\t// in\n    tag_184:\n      0x20\n      swap1\n      dup2\n      mul\n      swap2\n      swap1\n      swap2\n      add\n      add\n        /* \"Character.sol\":3796:3819  _multiple[i] = multiple */\n      mstore\n      pop\n        /* \"Character.sol\":3711:3714  i++ */\n      dup1\n      tag_186\n      dup2\n      tag_187\n      jump\t// in\n    tag_186:\n      swap2\n      pop\n      pop\n        /* \"Character.sol\":3661:3831  for (uint256 i = 0; i < skill[_hunter_id].length; i++) {... */\n      jump(tag_175)\n    tag_176:\n      pop\n        /* \"Character.sol\":3561:3838  {... */\n      pop\n        /* \"Character.sol\":3433:3838  function hunter_skill_multiple(address _hunter)... */\n      swap2\n      swap1\n      pop\n      jump\t// out\n        /* \"@openzeppelin/contracts/token/ERC721/ERC721.sol\":3467:3874   */\n    tag_67:\n        /* \"@openzeppelin/contracts/token/ERC721/ERC721.sol\":3547:3560   */\n      0x00\n        /* \"@openzeppelin/contracts/token/ERC721/ERC721.sol\":3563:3586   */\n      tag_189\n        /* \"@openzeppelin/contracts/token/ERC721/ERC721.sol\":3578:3585   */\n      dup3\n        /* \"@openzeppelin/contracts/token/ERC721/ERC721.sol\":3563:3577   */\n      tag_97\n        /* \"@openzeppelin/contracts/token/ERC721/ERC721.sol\":3563:3586   */\n      jump\t// in\n    tag_189:\n        /* \"@openzeppelin/contracts/token/ERC721/ERC721.sol\":3547:3586   */\n      swap1\n      pop\n        /* \"@openzeppelin/contracts/token/ERC721/ERC721.sol\":3610:3615   */\n      dup1\n      sub(shl(0xa0, 0x01), 0x01)\n        /* \"@openzeppelin/contracts/token/ERC721/ERC721.sol\":3604:3615   */\n      and\n        /* \"@openzeppelin/contracts/token/ERC721/ERC721.sol\":3604:3606   */\n      dup4\n      sub(shl(0xa0, 0x01), 0x01)\n        /* \"@openzeppelin/contracts/token/ERC721/ERC721.sol\":3604:3615   */\n      and\n      sub\n        /* \"@openzeppelin/contracts/token/ERC721/ERC721.sol\":3596:3653   */\n      tag_190\n      jumpi\n      mload(0x40)\n      shl(0xe5, 0x461bcd)\n      dup2\n      mstore\n        /* \"#utility.yul\":9471:9473   */\n      0x20\n        /* \"@openzeppelin/contracts/token/ERC721/ERC721.sol\":3596:3653   */\n      0x04\n      dup3\n      add\n        /* \"#utility.yul\":9453:9474   */\n      mstore\n        /* \"#utility.yul\":9510:9512   */\n      0x21\n        /* \"#utility.yul\":9490:9508   */\n      0x24\n      dup3\n      add\n        /* \"#utility.yul\":9483:9513   */\n      mstore\n        /* \"#utility.yul\":9549:9583   */\n      0x4552433732313a20617070726f76616c20746f2063757272656e74206f776e65\n        /* \"#utility.yul\":9529:9547   */\n      0x44\n      dup3\n      add\n        /* \"#utility.yul\":9522:9584   */\n      mstore\n      shl(0xf9, 0x39)\n        /* \"#utility.yul\":9600:9618   */\n      0x64\n      dup3\n      add\n        /* \"#utility.yul\":9593:9624   */\n      mstore\n        /* \"#utility.yul\":9641:9660   */\n      0x84\n      add\n        /* \"@openzeppelin/contracts/token/ERC721/ERC721.sol\":3596:3653   */\n    tag_191:\n      mload(0x40)\n      dup1\n      swap2\n      sub\n      swap1\n      revert\n    tag_190:\n        /* \"@openzeppelin/contracts/utils/Context.sol\":719:729   */\n      caller\n      sub(shl(0xa0, 0x01), 0x01)\n        /* \"@openzeppelin/contracts/token/ERC721/ERC721.sol\":3685:3706   */\n      dup3\n      and\n      eq\n      dup1\n        /* \"@openzeppelin/contracts/token/ERC721/ERC721.sol\":3685:3747   */\n      tag_196\n      jumpi\n      pop\n        /* \"@openzeppelin/contracts/token/ERC721/ERC721.sol\":3710:3747   */\n      tag_196\n        /* \"@openzeppelin/contracts/token/ERC721/ERC721.sol\":3727:3732   */\n      dup2\n        /* \"@openzeppelin/contracts/utils/Context.sol\":719:729   */\n      caller\n        /* \"@openzeppelin/contracts/token/ERC721/ERC721.sol\":4388:4550   */\n      tag_143\n      jump\t// in\n        /* \"@openzeppelin/contracts/token/ERC721/ERC721.sol\":3710:3747   */\n    tag_196:\n        /* \"@openzeppelin/contracts/token/ERC721/ERC721.sol\":3664:3835   */\n      tag_198\n      jumpi\n      mload(0x40)\n      shl(0xe5, 0x461bcd)\n      dup2\n      mstore\n        /* \"#utility.yul\":9873:9875   */\n      0x20\n        /* \"@openzeppelin/contracts/token/ERC721/ERC721.sol\":3664:3835   */\n      0x04\n      dup3\n      add\n        /* \"#utility.yul\":9855:9876   */\n      mstore\n        /* \"#utility.yul\":9912:9914   */\n      0x3e\n        /* \"#utility.yul\":9892:9910   */\n      0x24\n      dup3\n      add\n        /* \"#utility.yul\":9885:9915   */\n      mstore\n        /* \"#utility.yul\":9951:9985   */\n      0x4552433732313a20617070726f76652063616c6c6572206973206e6f7420746f\n        /* \"#utility.yul\":9931:9949   */\n      0x44\n      dup3\n      add\n        /* \"#utility.yul\":9924:9986   */\n      mstore\n        /* \"#utility.yul\":10022:10054   */\n      0x6b656e206f776e6572206e6f7220617070726f76656420666f7220616c6c0000\n        /* \"#utility.yul\":10002:10020   */\n      0x64\n      dup3\n      add\n        /* \"#utility.yul\":9995:10055   */\n      mstore\n        /* \"#utility.yul\":10072:10091   */\n      0x84\n      add\n        /* \"@openzeppelin/contracts/token/ERC721/ERC721.sol\":3664:3835   */\n      tag_191\n        /* \"#utility.yul\":9671:10097   */\n      jump\n        /* \"@openzeppelin/contracts/token/ERC721/ERC721.sol\":3664:3835   */\n    tag_198:\n        /* \"@openzeppelin/contracts/token/ERC721/ERC721.sol\":3846:3867   */\n      tag_201\n        /* \"@openzeppelin/contracts/token/ERC721/ERC721.sol\":3855:3857   */\n      dup4\n        /* \"@openzeppelin/contracts/token/ERC721/ERC721.sol\":3859:3866   */\n      dup4\n        /* \"@openzeppelin/contracts/token/ERC721/ERC721.sol\":3846:3854   */\n      tag_202\n        /* \"@openzeppelin/contracts/token/ERC721/ERC721.sol\":3846:3867   */\n      jump\t// in\n    tag_201:\n        /* \"@openzeppelin/contracts/token/ERC721/ERC721.sol\":3537:3874   */\n      pop\n        /* \"@openzeppelin/contracts/token/ERC721/ERC721.sol\":3467:3874   */\n      pop\n      pop\n      jump\t// out\n        /* \"@openzeppelin/contracts/token/ERC721/ERC721.sol\":4612:4939   */\n    tag_75:\n        /* \"@openzeppelin/contracts/token/ERC721/ERC721.sol\":4801:4842   */\n      tag_204\n        /* \"@openzeppelin/contracts/utils/Context.sol\":719:729   */\n      caller\n        /* \"@openzeppelin/contracts/token/ERC721/ERC721.sol\":4834:4841   */\n      dup3\n        /* \"@openzeppelin/contracts/token/ERC721/ERC721.sol\":4801:4819   */\n      tag_206\n        /* \"@openzeppelin/contracts/token/ERC721/ERC721.sol\":4801:4842   */\n      jump\t// in\n    tag_204:\n        /* \"@openzeppelin/contracts/token/ERC721/ERC721.sol\":4793:4893   */\n      tag_207\n      jumpi\n      mload(0x40)\n      shl(0xe5, 0x461bcd)\n      dup2\n      mstore\n        /* \"#utility.yul\":10304:10306   */\n      0x20\n        /* \"@openzeppelin/contracts/token/ERC721/ERC721.sol\":4793:4893   */\n      0x04\n      dup3\n      add\n        /* \"#utility.yul\":10286:10307   */\n      mstore\n        /* \"#utility.yul\":10343:10345   */\n      0x2e\n        /* \"#utility.yul\":10323:10341   */\n      0x24\n      dup3\n      add\n        /* \"#utility.yul\":10316:10346   */\n      mstore\n        /* \"#utility.yul\":10382:10416   */\n      0x4552433732313a2063616c6c6572206973206e6f7420746f6b656e206f776e65\n        /* \"#utility.yul\":10362:10380   */\n      0x44\n      dup3\n      add\n        /* \"#utility.yul\":10355:10417   */\n      mstore\n      shl(0x92, 0x1c881b9bdc88185c1c1c9bdd9959)\n        /* \"#utility.yul\":10433:10451   */\n      0x64\n      dup3\n      add\n        /* \"#utility.yul\":10426:10470   */\n      mstore\n        /* \"#utility.yul\":10487:10506   */\n      0x84\n      add\n        /* \"@openzeppelin/contracts/token/ERC721/ERC721.sol\":4793:4893   */\n      tag_191\n        /* \"#utility.yul\":10102:10512   */\n      jump\n        /* \"@openzeppelin/contracts/token/ERC721/ERC721.sol\":4793:4893   */\n    tag_207:\n        /* \"@openzeppelin/contracts/token/ERC721/ERC721.sol\":4904:4932   */\n      tag_201\n        /* \"@openzeppelin/contracts/token/ERC721/ERC721.sol\":4914:4918   */\n      dup4\n        /* \"@openzeppelin/contracts/token/ERC721/ERC721.sol\":4920:4922   */\n      dup4\n        /* \"@openzeppelin/contracts/token/ERC721/ERC721.sol\":4924:4931   */\n      dup4\n        /* \"@openzeppelin/contracts/token/ERC721/ERC721.sol\":4904:4913   */\n      tag_211\n        /* \"@openzeppelin/contracts/token/ERC721/ERC721.sol\":4904:4932   */\n      jump\t// in\n        /* \"Character.sol\":1168:1204  mapping(uint => uint[]) public skill */\n    tag_79:\n      mstore(0x20, 0x0b)\n      dup2\n      0x00\n      mstore\n      keccak256(0x00, 0x40)\n      dup2\n      dup2\n      sload\n      dup2\n      lt\n      tag_212\n      jumpi\n      0x00\n      dup1\n      revert\n    tag_212:\n      swap1\n      0x00\n      mstore\n      keccak256(0x00, 0x20)\n      add\n      0x00\n      swap2\n      pop\n      swap2\n      pop\n      pop\n      sload\n      dup2\n      jump\t// out\n        /* \"Character.sol\":1590:2092  function summon() external {... */\n    tag_83:\n        /* \"Character.sol\":1651:1661  msg.sender */\n      caller\n        /* \"Character.sol\":1636:1662  minted_address[msg.sender] */\n      0x00\n      swap1\n      dup2\n      mstore\n        /* \"Character.sol\":1636:1650  minted_address */\n      0x08\n        /* \"Character.sol\":1636:1662  minted_address[msg.sender] */\n      0x20\n      mstore\n      0x40\n      swap1\n      keccak256\n      sload\n      0xff\n      and\n        /* \"Character.sol\":1636:1671  minted_address[msg.sender] == false */\n      iszero\n        /* \"Character.sol\":1628:1692  require(minted_address[msg.sender] == false, \"Already summoned\") */\n      tag_215\n      jumpi\n      mload(0x40)\n      shl(0xe5, 0x461bcd)\n      dup2\n      mstore\n        /* \"#utility.yul\":10719:10721   */\n      0x20\n        /* \"Character.sol\":1628:1692  require(minted_address[msg.sender] == false, \"Already summoned\") */\n      0x04\n      dup3\n      add\n        /* \"#utility.yul\":10701:10722   */\n      mstore\n        /* \"#utility.yul\":10758:10760   */\n      0x10\n        /* \"#utility.yul\":10738:10756   */\n      0x24\n      dup3\n      add\n        /* \"#utility.yul\":10731:10761   */\n      mstore\n        /* \"#utility.yul\":10797:10815   */\n      0x416c72656164792073756d6d6f6e656400000000000000000000000000000000\n        /* \"#utility.yul\":10777:10795   */\n      0x44\n      dup3\n      add\n        /* \"#utility.yul\":10770:10816   */\n      mstore\n        /* \"#utility.yul\":10833:10851   */\n      0x64\n      add\n        /* \"Character.sol\":1628:1692  require(minted_address[msg.sender] == false, \"Already summoned\") */\n      tag_191\n        /* \"#utility.yul\":10517:10857   */\n      jump\n        /* \"Character.sol\":1628:1692  require(minted_address[msg.sender] == false, \"Already summoned\") */\n    tag_215:\n        /* \"Character.sol\":1703:1730  _tokenIdCounter.increment() */\n      tag_218\n        /* \"Character.sol\":1703:1718  _tokenIdCounter */\n      0x07\n        /* \"@openzeppelin/contracts/utils/Counters.sol\":1032:1051   */\n      dup1\n      sload\n        /* \"@openzeppelin/contracts/utils/Counters.sol\":1050:1051   */\n      0x01\n        /* \"@openzeppelin/contracts/utils/Counters.sol\":1032:1051   */\n      add\n      swap1\n      sstore\n        /* \"@openzeppelin/contracts/utils/Counters.sol\":945:1068   */\n      jump\n        /* \"Character.sol\":1703:1730  _tokenIdCounter.increment() */\n    tag_218:\n        /* \"Character.sol\":1741:1758  uint _next_hunter */\n      0x00\n        /* \"Character.sol\":1761:1786  _tokenIdCounter.current() */\n      tag_220\n        /* \"Character.sol\":1761:1776  _tokenIdCounter */\n      0x07\n        /* \"@openzeppelin/contracts/utils/Counters.sol\":918:932   */\n      sload\n      swap1\n        /* \"@openzeppelin/contracts/utils/Counters.sol\":827:939   */\n      jump\n        /* \"Character.sol\":1761:1786  _tokenIdCounter.current() */\n    tag_220:\n        /* \"Character.sol\":1741:1786  uint _next_hunter = _tokenIdCounter.current() */\n      swap1\n      pop\n        /* \"Character.sol\":1818:1849  Strings.toHexString(msg.sender) */\n      tag_222\n        /* \"Character.sol\":1838:1848  msg.sender */\n      caller\n        /* \"Character.sol\":1818:1837  Strings.toHexString */\n      tag_223\n        /* \"Character.sol\":1818:1849  Strings.toHexString(msg.sender) */\n      jump\t// in\n    tag_222:\n        /* \"Character.sol\":1797:1815  name[_next_hunter] */\n      0x00\n      dup3\n      dup2\n      mstore\n        /* \"Character.sol\":1797:1801  name */\n      0x0a\n        /* \"Character.sol\":1797:1815  name[_next_hunter] */\n      0x20\n      swap1\n      dup2\n      mstore\n      0x40\n      swap1\n      swap2\n      keccak256\n        /* \"Character.sol\":1797:1849  name[_next_hunter] = Strings.toHexString(msg.sender) */\n      dup3\n      mload\n      tag_224\n      swap4\n        /* \"Character.sol\":1797:1815  name[_next_hunter] */\n      swap2\n      swap3\n        /* \"Character.sol\":1797:1849  name[_next_hunter] = Strings.toHexString(msg.sender) */\n      swap2\n      swap1\n      swap2\n      add\n      swap1\n      tag_225\n      jump\t// in\n    tag_224:\n      pop\n        /* \"Character.sol\":1860:1891  skill[_next_hunter] = [1, 0, 0] */\n      0x40\n      dup1\n      mload\n      0x60\n      dup2\n      add\n      dup3\n      mstore\n        /* \"Character.sol\":1883:1884  1 */\n      0x01\n        /* \"Character.sol\":1860:1891  skill[_next_hunter] = [1, 0, 0] */\n      dup2\n      mstore\n      0x00\n      0x20\n      dup1\n      dup4\n      add\n      dup3\n      swap1\n      mstore\n      dup3\n      dup5\n      add\n      dup3\n      swap1\n      mstore\n        /* \"Character.sol\":1860:1879  skill[_next_hunter] */\n      dup5\n      dup3\n      mstore\n        /* \"Character.sol\":1860:1865  skill */\n      0x0b\n        /* \"Character.sol\":1860:1879  skill[_next_hunter] */\n      swap1\n      mstore\n      swap2\n      swap1\n      swap2\n      keccak256\n        /* \"Character.sol\":1860:1891  skill[_next_hunter] = [1, 0, 0] */\n      tag_226\n      swap2\n      0x03\n      tag_227\n      jump\t// in\n    tag_226:\n      pop\n        /* \"Character.sol\":1917:1927  msg.sender */\n      caller\n        /* \"Character.sol\":1902:1928  minted_address[msg.sender] */\n      0x00\n      dup2\n      dup2\n      mstore\n        /* \"Character.sol\":1902:1916  minted_address */\n      0x08\n        /* \"Character.sol\":1902:1928  minted_address[msg.sender] */\n      0x20\n      swap1\n      dup2\n      mstore\n      0x40\n      dup1\n      dup4\n      keccak256\n        /* \"Character.sol\":1902:1935  minted_address[msg.sender] = true */\n      dup1\n      sload\n      not(0xff)\n      and\n        /* \"Character.sol\":1931:1935  true */\n      0x01\n        /* \"Character.sol\":1902:1935  minted_address[msg.sender] = true */\n      or\n      swap1\n      sstore\n        /* \"Character.sol\":1946:1961  address_tokenId */\n      0x09\n        /* \"Character.sol\":1946:1973  address_tokenId[msg.sender] */\n      swap1\n      swap2\n      mstore\n      swap1\n      keccak256\n        /* \"Character.sol\":1946:1988  address_tokenId[msg.sender] = _next_hunter */\n      dup3\n      swap1\n      sstore\n        /* \"Character.sol\":1999:2034  _safeMint(msg.sender, _next_hunter) */\n      tag_228\n      swap1\n        /* \"Character.sol\":1976:1988  _next_hunter */\n      dup3\n        /* \"Character.sol\":1999:2008  _safeMint */\n      tag_229\n        /* \"Character.sol\":1999:2034  _safeMint(msg.sender, _next_hunter) */\n      jump\t// in\n    tag_228:\n        /* \"Character.sol\":2050:2084  summoned(msg.sender, _next_hunter) */\n      mload(0x40)\n        /* \"#utility.yul\":4025:4050   */\n      dup2\n      dup2\n      mstore\n        /* \"Character.sol\":2059:2069  msg.sender */\n      caller\n      swap1\n        /* \"Character.sol\":2050:2084  summoned(msg.sender, _next_hunter) */\n      0xbbb46266402c42849573c27abc27dd180e2b8ec8f33840ca8b0919227659e399\n      swap1\n        /* \"#utility.yul\":4013:4015   */\n      0x20\n        /* \"#utility.yul\":3998:4016   */\n      add\n        /* \"Character.sol\":2050:2084  summoned(msg.sender, _next_hunter) */\n      mload(0x40)\n      dup1\n      swap2\n      sub\n      swap1\n      log2\n        /* \"Character.sol\":1617:2092  {... */\n      pop\n        /* \"Character.sol\":1590:2092  function summon() external {... */\n      jump\t// out\n        /* \"@openzeppelin/contracts/token/ERC721/ERC721.sol\":5005:5184   */\n    tag_90:\n        /* \"@openzeppelin/contracts/token/ERC721/ERC721.sol\":5138:5177   */\n      tag_201\n        /* \"@openzeppelin/contracts/token/ERC721/ERC721.sol\":5155:5159   */\n      dup4\n        /* \"@openzeppelin/contracts/token/ERC721/ERC721.sol\":5161:5163   */\n      dup4\n        /* \"@openzeppelin/contracts/token/ERC721/ERC721.sol\":5165:5172   */\n      dup4\n        /* \"@openzeppelin/contracts/token/ERC721/ERC721.sol\":5138:5177   */\n      mload(0x40)\n      dup1\n      0x20\n      add\n      0x40\n      mstore\n      dup1\n      0x00\n      dup2\n      mstore\n      pop\n        /* \"@openzeppelin/contracts/token/ERC721/ERC721.sol\":5138:5154   */\n      tag_129\n        /* \"@openzeppelin/contracts/token/ERC721/ERC721.sol\":5138:5177   */\n      jump\t// in\n        /* \"Character.sol\":2951:3203  function coin_required(uint curent_skill)... */\n    tag_93:\n        /* \"Character.sol\":3041:3064  uint coin_to_next_skill */\n      0x00\n        /* \"Character.sol\":3097:3098  0 */\n      dup1\n        /* \"Character.sol\":3082:3094  curent_skill */\n      dup3\n        /* \"Character.sol\":3082:3098  curent_skill > 0 */\n      gt\n        /* \"Character.sol\":3082:3195  curent_skill > 0... */\n      tag_234\n      jumpi\n      pop\n        /* \"Character.sol\":3191:3195  1e18 */\n      0x0de0b6b3a7640000\n      dup1\n        /* \"Character.sol\":3082:3195  curent_skill > 0... */\n      jump(tag_235)\n    tag_234:\n        /* \"Character.sol\":3135:3154  curent_skill * 1e18 */\n      tag_236\n        /* \"Character.sol\":3135:3147  curent_skill */\n      dup3\n        /* \"Character.sol\":3150:3154  1e18 */\n      0x0de0b6b3a7640000\n        /* \"Character.sol\":3135:3154  curent_skill * 1e18 */\n      tag_237\n      jump\t// in\n    tag_236:\n        /* \"Character.sol\":3114:3154  coin_to_next_skill = curent_skill * 1e18 */\n      swap1\n      pop\n      dup1\n        /* \"Character.sol\":3082:3195  curent_skill > 0... */\n    tag_235:\n      pop\n        /* \"Character.sol\":2951:3203  function coin_required(uint curent_skill)... */\n      swap2\n      swap1\n      pop\n      jump\t// out\n        /* \"@openzeppelin/contracts/token/ERC721/ERC721.sol\":2190:2408   */\n    tag_97:\n        /* \"@openzeppelin/contracts/token/ERC721/ERC721.sol\":2262:2269   */\n      0x00\n        /* \"@openzeppelin/contracts/token/ERC721/ERC721.sol\":2297:2313   */\n      dup2\n      dup2\n      mstore\n        /* \"@openzeppelin/contracts/token/ERC721/ERC721.sol\":2297:2304   */\n      0x02\n        /* \"@openzeppelin/contracts/token/ERC721/ERC721.sol\":2297:2313   */\n      0x20\n      mstore\n      0x40\n      dup2\n      keccak256\n      sload\n      sub(shl(0xa0, 0x01), 0x01)\n      and\n      dup1\n        /* \"@openzeppelin/contracts/token/ERC721/ERC721.sol\":2323:2379   */\n      tag_159\n      jumpi\n      mload(0x40)\n      shl(0xe5, 0x461bcd)\n      dup2\n      mstore\n        /* \"#utility.yul\":11237:11239   */\n      0x20\n        /* \"@openzeppelin/contracts/token/ERC721/ERC721.sol\":2323:2379   */\n      0x04\n      dup3\n      add\n        /* \"#utility.yul\":11219:11240   */\n      mstore\n        /* \"#utility.yul\":11276:11278   */\n      0x18\n        /* \"#utility.yul\":11256:11274   */\n      0x24\n      dup3\n      add\n        /* \"#utility.yul\":11249:11279   */\n      mstore\n        /* \"#utility.yul\":11315:11341   */\n      0x4552433732313a20696e76616c696420746f6b656e2049440000000000000000\n        /* \"#utility.yul\":11295:11313   */\n      0x44\n      dup3\n      add\n        /* \"#utility.yul\":11288:11342   */\n      mstore\n        /* \"#utility.yul\":11359:11377   */\n      0x64\n      add\n        /* \"@openzeppelin/contracts/token/ERC721/ERC721.sol\":2323:2379   */\n      tag_191\n        /* \"#utility.yul\":11035:11383   */\n      jump\n        /* \"@openzeppelin/contracts/token/ERC721/ERC721.sol\":1929:2133   */\n    tag_101:\n        /* \"@openzeppelin/contracts/token/ERC721/ERC721.sol\":2001:2008   */\n      0x00\n      sub(shl(0xa0, 0x01), 0x01)\n        /* \"@openzeppelin/contracts/token/ERC721/ERC721.sol\":2028:2047   */\n      dup3\n      and\n        /* \"@openzeppelin/contracts/token/ERC721/ERC721.sol\":2020:2093   */\n      tag_243\n      jumpi\n      mload(0x40)\n      shl(0xe5, 0x461bcd)\n      dup2\n      mstore\n        /* \"#utility.yul\":11590:11592   */\n      0x20\n        /* \"@openzeppelin/contracts/token/ERC721/ERC721.sol\":2020:2093   */\n      0x04\n      dup3\n      add\n        /* \"#utility.yul\":11572:11593   */\n      mstore\n        /* \"#utility.yul\":11629:11631   */\n      0x29\n        /* \"#utility.yul\":11609:11627   */\n      0x24\n      dup3\n      add\n        /* \"#utility.yul\":11602:11632   */\n      mstore\n        /* \"#utility.yul\":11668:11702   */\n      0x4552433732313a2061646472657373207a65726f206973206e6f742061207661\n        /* \"#utility.yul\":11648:11666   */\n      0x44\n      dup3\n      add\n        /* \"#utility.yul\":11641:11703   */\n      mstore\n        /* \"#utility.yul\":11739:11750   */\n      0x6c6964206f776e65720000000000000000000000000000000000000000000000\n        /* \"#utility.yul\":11719:11737   */\n      0x64\n      dup3\n      add\n        /* \"#utility.yul\":11712:11751   */\n      mstore\n        /* \"#utility.yul\":11768:11787   */\n      0x84\n      add\n        /* \"@openzeppelin/contracts/token/ERC721/ERC721.sol\":2020:2093   */\n      tag_191\n        /* \"#utility.yul\":11388:11793   */\n      jump\n        /* \"@openzeppelin/contracts/token/ERC721/ERC721.sol\":2020:2093   */\n    tag_243:\n      pop\n      sub(shl(0xa0, 0x01), 0x01)\n        /* \"@openzeppelin/contracts/token/ERC721/ERC721.sol\":2110:2126   */\n      and\n      0x00\n      swap1\n      dup2\n      mstore\n        /* \"@openzeppelin/contracts/token/ERC721/ERC721.sol\":2110:2119   */\n      0x03\n        /* \"@openzeppelin/contracts/token/ERC721/ERC721.sol\":2110:2126   */\n      0x20\n      mstore\n      0x40\n      swap1\n      keccak256\n      sload\n      swap1\n        /* \"@openzeppelin/contracts/token/ERC721/ERC721.sol\":1929:2133   */\n      jump\t// out\n        /* \"@openzeppelin/contracts/access/Ownable.sol\":1831:1932   */\n    tag_104:\n        /* \"@openzeppelin/contracts/access/Ownable.sol\":1094:1107   */\n      tag_247\n        /* \"@openzeppelin/contracts/access/Ownable.sol\":1094:1105   */\n      tag_248\n        /* \"@openzeppelin/contracts/access/Ownable.sol\":1094:1107   */\n      jump\t// in\n    tag_247:\n        /* \"@openzeppelin/contracts/access/Ownable.sol\":1895:1925   */\n      tag_250\n        /* \"@openzeppelin/contracts/access/Ownable.sol\":1922:1923   */\n      0x00\n        /* \"@openzeppelin/contracts/access/Ownable.sol\":1895:1913   */\n      tag_251\n        /* \"@openzeppelin/contracts/access/Ownable.sol\":1895:1925   */\n      jump\t// in\n    tag_250:\n        /* \"@openzeppelin/contracts/access/Ownable.sol\":1831:1932   */\n      jump\t// out\n        /* \"Character.sol\":2100:2709  function skill_up(uint _hunter, uint _skill_index) external onlyOwner {... */\n    tag_107:\n        /* \"@openzeppelin/contracts/access/Ownable.sol\":1094:1107   */\n      tag_253\n        /* \"@openzeppelin/contracts/access/Ownable.sol\":1094:1105   */\n      tag_248\n        /* \"@openzeppelin/contracts/access/Ownable.sol\":1094:1107   */\n      jump\t// in\n    tag_253:\n        /* \"Character.sol\":2243:2260  uint _skill_level */\n      0x00\n        /* \"Character.sol\":2263:2277  skill[_hunter] */\n      dup3\n      dup2\n      mstore\n        /* \"Character.sol\":2263:2268  skill */\n      0x0b\n        /* \"Character.sol\":2263:2277  skill[_hunter] */\n      0x20\n      mstore\n      0x40\n      dup2\n      keccak256\n        /* \"Character.sol\":2263:2291  skill[_hunter][_skill_index] */\n      dup1\n      sload\n        /* \"Character.sol\":2278:2290  _skill_index */\n      dup4\n      swap1\n        /* \"Character.sol\":2263:2291  skill[_hunter][_skill_index] */\n      dup2\n      lt\n      tag_256\n      jumpi\n      tag_256\n      tag_185\n      jump\t// in\n    tag_256:\n      swap1\n      0x00\n      mstore\n      keccak256(0x00, 0x20)\n      add\n      sload\n        /* \"Character.sol\":2243:2291  uint _skill_level = skill[_hunter][_skill_index] */\n      swap1\n      pop\n        /* \"Character.sol\":2302:2321  uint _coin_required */\n      0x00\n        /* \"Character.sol\":2324:2351  coin_required(_skill_level) */\n      tag_258\n        /* \"Character.sol\":2338:2350  _skill_level */\n      dup3\n        /* \"Character.sol\":2324:2337  coin_required */\n      tag_93\n        /* \"Character.sol\":2324:2351  coin_required(_skill_level) */\n      jump\t// in\n    tag_258:\n        /* \"Character.sol\":2302:2351  uint _coin_required = coin_required(_skill_level) */\n      swap1\n      pop\n        /* \"Character.sol\":2463:2524  coin.safeTransferFrom(msg.sender, address(1), _coin_required) */\n      tag_259\n      sub(shl(0xa0, 0x01), 0x01)\n        /* \"Character.sol\":2463:2467  coin */\n      immutable(\"0xd67d834462ca31eaef1f30157e31659f60355143b7441e6fc7d9eae1fa79f3f8\")\n        /* \"Character.sol\":2463:2484  coin.safeTransferFrom */\n      and\n        /* \"Character.sol\":2485:2495  msg.sender */\n      caller\n        /* \"Character.sol\":2505:2506  1 */\n      0x01\n        /* \"Character.sol\":2302:2351  uint _coin_required = coin_required(_skill_level) */\n      dup5\n        /* \"Character.sol\":2463:2484  coin.safeTransferFrom */\n      tag_260\n        /* \"Character.sol\":2463:2524  coin.safeTransferFrom(msg.sender, address(1), _coin_required) */\n      jump\t// in\n    tag_259:\n        /* \"Character.sol\":2611:2627  _skill_level + 1 */\n      tag_261\n        /* \"Character.sol\":2611:2623  _skill_level */\n      dup3\n        /* \"Character.sol\":2626:2627  1 */\n      0x01\n        /* \"Character.sol\":2611:2627  _skill_level + 1 */\n      tag_262\n      jump\t// in\n    tag_261:\n        /* \"Character.sol\":2580:2594  skill[_hunter] */\n      0x00\n      dup6\n      dup2\n      mstore\n        /* \"Character.sol\":2580:2585  skill */\n      0x0b\n        /* \"Character.sol\":2580:2594  skill[_hunter] */\n      0x20\n      mstore\n      0x40\n      swap1\n      keccak256\n        /* \"Character.sol\":2580:2608  skill[_hunter][_skill_index] */\n      dup1\n      sload\n        /* \"Character.sol\":2595:2607  _skill_index */\n      dup6\n      swap1\n        /* \"Character.sol\":2580:2608  skill[_hunter][_skill_index] */\n      dup2\n      lt\n      tag_264\n      jumpi\n      tag_264\n      tag_185\n      jump\t// in\n    tag_264:\n      swap1\n      0x00\n      mstore\n      keccak256(0x00, 0x20)\n      add\n        /* \"Character.sol\":2580:2627  skill[_hunter][_skill_index] = _skill_level + 1 */\n      dup2\n      swap1\n      sstore\n      pop\n        /* \"Character.sol\":2651:2661  msg.sender */\n      caller\n      sub(shl(0xa0, 0x01), 0x01)\n        /* \"Character.sol\":2643:2701  skilled(msg.sender, skill[_hunter][_skill_index], _hunter) */\n      and\n      0xaa4e97eeb4fd5355c649ee3f0c8a2bb57442a5d8d81b7af85422d800a4bbe24e\n        /* \"Character.sol\":2663:2668  skill */\n      0x0b\n        /* \"Character.sol\":2663:2677  skill[_hunter] */\n      0x00\n        /* \"Character.sol\":2669:2676  _hunter */\n      dup8\n        /* \"Character.sol\":2663:2677  skill[_hunter] */\n      dup2\n      mstore\n      0x20\n      add\n      swap1\n      dup2\n      mstore\n      0x20\n      add\n      0x00\n      keccak256\n        /* \"Character.sol\":2678:2690  _skill_index */\n      dup6\n        /* \"Character.sol\":2663:2691  skill[_hunter][_skill_index] */\n      dup2\n      sload\n      dup2\n      lt\n      tag_267\n      jumpi\n      tag_267\n      tag_185\n      jump\t// in\n    tag_267:\n      swap1\n      0x00\n      mstore\n      keccak256(0x00, 0x20)\n      add\n      sload\n        /* \"Character.sol\":2693:2700  _hunter */\n      dup7\n        /* \"Character.sol\":2643:2701  skilled(msg.sender, skill[_hunter][_skill_index], _hunter) */\n      mload(0x40)\n      tag_269\n      swap3\n      swap2\n      swap1\n        /* \"#utility.yul\":12105:12130   */\n      swap2\n      dup3\n      mstore\n        /* \"#utility.yul\":12161:12163   */\n      0x20\n        /* \"#utility.yul\":12146:12164   */\n      dup3\n      add\n        /* \"#utility.yul\":12139:12173   */\n      mstore\n        /* \"#utility.yul\":12093:12095   */\n      0x40\n        /* \"#utility.yul\":12078:12096   */\n      add\n      swap1\n        /* \"#utility.yul\":11931:12179   */\n      jump\n        /* \"Character.sol\":2643:2701  skilled(msg.sender, skill[_hunter][_skill_index], _hunter) */\n    tag_269:\n      mload(0x40)\n      dup1\n      swap2\n      sub\n      swap1\n      log2\n        /* \"Character.sol\":2170:2709  {... */\n      pop\n      pop\n        /* \"Character.sol\":2100:2709  function skill_up(uint _hunter, uint _skill_index) external onlyOwner {... */\n      pop\n      pop\n      jump\t// out\n        /* \"@openzeppelin/contracts/token/ERC721/ERC721.sol\":2632:2734   */\n    tag_116:\n        /* \"@openzeppelin/contracts/token/ERC721/ERC721.sol\":2688:2701   */\n      0x60\n        /* \"@openzeppelin/contracts/token/ERC721/ERC721.sol\":2720:2727   */\n      0x01\n        /* \"@openzeppelin/contracts/token/ERC721/ERC721.sol\":2713:2727   */\n      dup1\n      sload\n      tag_162\n      swap1\n      tag_151\n      jump\t// in\n        /* \"@openzeppelin/contracts/token/ERC721/ERC721.sol\":4169:4322   */\n    tag_121:\n        /* \"@openzeppelin/contracts/token/ERC721/ERC721.sol\":4263:4315   */\n      tag_279\n        /* \"@openzeppelin/contracts/utils/Context.sol\":719:729   */\n      caller\n        /* \"@openzeppelin/contracts/token/ERC721/ERC721.sol\":4296:4304   */\n      dup4\n        /* \"@openzeppelin/contracts/token/ERC721/ERC721.sol\":4306:4314   */\n      dup4\n        /* \"@openzeppelin/contracts/token/ERC721/ERC721.sol\":4263:4281   */\n      tag_281\n        /* \"@openzeppelin/contracts/token/ERC721/ERC721.sol\":4263:4315   */\n      jump\t// in\n    tag_279:\n        /* \"@openzeppelin/contracts/token/ERC721/ERC721.sol\":4169:4322   */\n      pop\n      pop\n      jump\t// out\n        /* \"@openzeppelin/contracts/token/ERC721/ERC721.sol\":5250:5565   */\n    tag_129:\n        /* \"@openzeppelin/contracts/token/ERC721/ERC721.sol\":5418:5459   */\n      tag_283\n        /* \"@openzeppelin/contracts/utils/Context.sol\":719:729   */\n      caller\n        /* \"@openzeppelin/contracts/token/ERC721/ERC721.sol\":5451:5458   */\n      dup4\n        /* \"@openzeppelin/contracts/token/ERC721/ERC721.sol\":5418:5436   */\n      tag_206\n        /* \"@openzeppelin/contracts/token/ERC721/ERC721.sol\":5418:5459   */\n      jump\t// in\n    tag_283:\n        /* \"@openzeppelin/contracts/token/ERC721/ERC721.sol\":5410:5510   */\n      tag_285\n      jumpi\n      mload(0x40)\n      shl(0xe5, 0x461bcd)\n      dup2\n      mstore\n        /* \"#utility.yul\":10304:10306   */\n      0x20\n        /* \"@openzeppelin/contracts/token/ERC721/ERC721.sol\":5410:5510   */\n      0x04\n      dup3\n      add\n        /* \"#utility.yul\":10286:10307   */\n      mstore\n        /* \"#utility.yul\":10343:10345   */\n      0x2e\n        /* \"#utility.yul\":10323:10341   */\n      0x24\n      dup3\n      add\n        /* \"#utility.yul\":10316:10346   */\n      mstore\n        /* \"#utility.yul\":10382:10416   */\n      0x4552433732313a2063616c6c6572206973206e6f7420746f6b656e206f776e65\n        /* \"#utility.yul\":10362:10380   */\n      0x44\n      dup3\n      add\n        /* \"#utility.yul\":10355:10417   */\n      mstore\n      shl(0x92, 0x1c881b9bdc88185c1c1c9bdd9959)\n        /* \"#utility.yul\":10433:10451   */\n      0x64\n      dup3\n      add\n        /* \"#utility.yul\":10426:10470   */\n      mstore\n        /* \"#utility.yul\":10487:10506   */\n      0x84\n      add\n        /* \"@openzeppelin/contracts/token/ERC721/ERC721.sol\":5410:5510   */\n      tag_191\n        /* \"#utility.yul\":10102:10512   */\n      jump\n        /* \"@openzeppelin/contracts/token/ERC721/ERC721.sol\":5410:5510   */\n    tag_285:\n        /* \"@openzeppelin/contracts/token/ERC721/ERC721.sol\":5520:5558   */\n      tag_287\n        /* \"@openzeppelin/contracts/token/ERC721/ERC721.sol\":5534:5538   */\n      dup5\n        /* \"@openzeppelin/contracts/token/ERC721/ERC721.sol\":5540:5542   */\n      dup5\n        /* \"@openzeppelin/contracts/token/ERC721/ERC721.sol\":5544:5551   */\n      dup5\n        /* \"@openzeppelin/contracts/token/ERC721/ERC721.sol\":5553:5557   */\n      dup5\n        /* \"@openzeppelin/contracts/token/ERC721/ERC721.sol\":5520:5533   */\n      tag_288\n        /* \"@openzeppelin/contracts/token/ERC721/ERC721.sol\":5520:5558   */\n      jump\t// in\n    tag_287:\n        /* \"@openzeppelin/contracts/token/ERC721/ERC721.sol\":5250:5565   */\n      pop\n      pop\n      pop\n      pop\n      jump\t// out\n        /* \"Character.sol\":3211:3425  function hunter_skill(address _hunter)... */\n    tag_132:\n      sub(shl(0xa0, 0x01), 0x01)\n        /* \"Character.sol\":3356:3380  address_tokenId[_hunter] */\n      dup2\n      and\n        /* \"Character.sol\":3338:3353  uint _hunter_id */\n      0x00\n        /* \"Character.sol\":3356:3380  address_tokenId[_hunter] */\n      swap1\n      dup2\n      mstore\n        /* \"Character.sol\":3356:3371  address_tokenId */\n      0x09\n        /* \"Character.sol\":3356:3380  address_tokenId[_hunter] */\n      0x20\n      swap1\n      dup2\n      mstore\n      0x40\n      dup1\n      dup4\n      keccak256\n      sload\n        /* \"Character.sol\":3400:3417  skill[_hunter_id] */\n      dup1\n      dup5\n      mstore\n        /* \"Character.sol\":3400:3405  skill */\n      0x0b\n        /* \"Character.sol\":3400:3417  skill[_hunter_id] */\n      dup4\n      mstore\n      swap3\n      dup2\n      swap1\n      keccak256\n        /* \"Character.sol\":3391:3417  _skill = skill[_hunter_id] */\n      dup1\n      sload\n      dup3\n      mload\n      dup2\n      dup6\n      mul\n      dup2\n      add\n      dup6\n      add\n      swap1\n      swap4\n      mstore\n      dup1\n      dup4\n      mstore\n        /* \"Character.sol\":3300:3320  uint[] memory _skill */\n      0x60\n      swap5\n        /* \"Character.sol\":3356:3380  address_tokenId[_hunter] */\n      swap4\n        /* \"Character.sol\":3391:3417  _skill = skill[_hunter_id] */\n      dup4\n      add\n        /* \"Character.sol\":3400:3417  skill[_hunter_id] */\n      dup3\n        /* \"Character.sol\":3391:3417  _skill = skill[_hunter_id] */\n      dup3\n      dup1\n      iszero\n      tag_290\n      jumpi\n      0x20\n      mul\n      dup3\n      add\n      swap2\n      swap1\n      0x00\n      mstore\n      keccak256(0x00, 0x20)\n      swap1\n    tag_291:\n      dup2\n      sload\n      dup2\n      mstore\n      0x20\n      add\n      swap1\n      0x01\n      add\n      swap1\n      dup1\n      dup4\n      gt\n      tag_291\n      jumpi\n    tag_290:\n      pop\n      pop\n      pop\n      pop\n      pop\n      swap2\n      pop\n        /* \"Character.sol\":3327:3425  {... */\n      pop\n        /* \"Character.sol\":3211:3425  function hunter_skill(address _hunter)... */\n      swap2\n      swap1\n      pop\n      jump\t// out\n        /* \"@openzeppelin/contracts/token/ERC721/ERC721.sol\":2800:3076   */\n    tag_136:\n        /* \"@openzeppelin/contracts/token/ERC721/ERC721.sol\":2873:2886   */\n      0x60\n        /* \"@openzeppelin/contracts/token/ERC721/ERC721.sol\":2898:2921   */\n      tag_293\n        /* \"@openzeppelin/contracts/token/ERC721/ERC721.sol\":2913:2920   */\n      dup3\n        /* \"@openzeppelin/contracts/token/ERC721/ERC721.sol\":2898:2912   */\n      tag_169\n        /* \"@openzeppelin/contracts/token/ERC721/ERC721.sol\":2898:2921   */\n      jump\t// in\n    tag_293:\n        /* \"@openzeppelin/contracts/token/ERC721/ERC721.sol\":2932:2953   */\n      0x00\n        /* \"@openzeppelin/contracts/token/ERC721/ERC721.sol\":2956:2966   */\n      tag_294\n        /* \"@openzeppelin/contracts/token/ERC721/ERC721.sol\":3394:3403   */\n      0x40\n      dup1\n      mload\n      0x20\n      dup2\n      add\n      swap1\n      swap2\n      mstore\n      0x00\n      dup2\n      mstore\n      swap1\n        /* \"@openzeppelin/contracts/token/ERC721/ERC721.sol\":3318:3410   */\n      jump\n        /* \"@openzeppelin/contracts/token/ERC721/ERC721.sol\":2956:2966   */\n    tag_294:\n        /* \"@openzeppelin/contracts/token/ERC721/ERC721.sol\":2932:2966   */\n      swap1\n      pop\n        /* \"@openzeppelin/contracts/token/ERC721/ERC721.sol\":3007:3008   */\n      0x00\n        /* \"@openzeppelin/contracts/token/ERC721/ERC721.sol\":2989:2996   */\n      dup2\n        /* \"@openzeppelin/contracts/token/ERC721/ERC721.sol\":2983:3004   */\n      mload\n        /* \"@openzeppelin/contracts/token/ERC721/ERC721.sol\":2983:3008   */\n      gt\n        /* \"@openzeppelin/contracts/token/ERC721/ERC721.sol\":2983:3069   */\n      tag_296\n      jumpi\n      mload(0x40)\n      dup1\n      0x20\n      add\n      0x40\n      mstore\n      dup1\n      0x00\n      dup2\n      mstore\n      pop\n      jump(tag_297)\n    tag_296:\n        /* \"@openzeppelin/contracts/token/ERC721/ERC721.sol\":3035:3042   */\n      dup1\n        /* \"@openzeppelin/contracts/token/ERC721/ERC721.sol\":3044:3062   */\n      tag_298\n        /* \"@openzeppelin/contracts/token/ERC721/ERC721.sol\":3044:3051   */\n      dup5\n        /* \"@openzeppelin/contracts/token/ERC721/ERC721.sol\":3044:3060   */\n      tag_299\n        /* \"@openzeppelin/contracts/token/ERC721/ERC721.sol\":3044:3062   */\n      jump\t// in\n    tag_298:\n        /* \"@openzeppelin/contracts/token/ERC721/ERC721.sol\":3018:3063   */\n      add(0x20, mload(0x40))\n      tag_300\n      swap3\n      swap2\n      swap1\n      tag_301\n      jump\t// in\n    tag_300:\n      mload(0x40)\n      0x20\n      dup2\n      dup4\n      sub\n      sub\n      dup2\n      mstore\n      swap1\n      0x40\n      mstore\n        /* \"@openzeppelin/contracts/token/ERC721/ERC721.sol\":2983:3069   */\n    tag_297:\n        /* \"@openzeppelin/contracts/token/ERC721/ERC721.sol\":2976:3069   */\n      swap4\n        /* \"@openzeppelin/contracts/token/ERC721/ERC721.sol\":2800:3076   */\n      swap3\n      pop\n      pop\n      pop\n      jump\t// out\n        /* \"Character.sol\":2717:2943  function change_name(uint _hunter, string memory _name) external onlyOwner {... */\n    tag_141:\n        /* \"@openzeppelin/contracts/access/Ownable.sol\":1094:1107   */\n      tag_303\n        /* \"@openzeppelin/contracts/access/Ownable.sol\":1094:1105   */\n      tag_248\n        /* \"@openzeppelin/contracts/access/Ownable.sol\":1094:1107   */\n      jump\t// in\n    tag_303:\n        /* \"Character.sol\":2865:2878  name[_hunter] */\n      0x00\n      dup3\n      dup2\n      mstore\n        /* \"Character.sol\":2865:2869  name */\n      0x0a\n        /* \"Character.sol\":2865:2878  name[_hunter] */\n      0x20\n      swap1\n      dup2\n      mstore\n      0x40\n      swap1\n      swap2\n      keccak256\n        /* \"Character.sol\":2865:2886  name[_hunter] = _name */\n      dup3\n      mload\n      tag_305\n      swap3\n      dup5\n      add\n      swap1\n      tag_225\n      jump\t// in\n    tag_305:\n      pop\n        /* \"Character.sol\":2908:2918  msg.sender */\n      caller\n      sub(shl(0xa0, 0x01), 0x01)\n        /* \"Character.sol\":2902:2935  named(msg.sender, _name, _hunter) */\n      and\n      0x68a7f81800258a01d20fc5c11938b8d2251d25ffb372e6c11b1c83fa7d421db0\n        /* \"Character.sol\":2920:2925  _name */\n      dup3\n        /* \"Character.sol\":2927:2934  _hunter */\n      dup5\n        /* \"Character.sol\":2902:2935  named(msg.sender, _name, _hunter) */\n      mload(0x40)\n      tag_306\n      swap3\n      swap2\n      swap1\n      tag_307\n      jump\t// in\n    tag_306:\n      mload(0x40)\n      dup1\n      swap2\n      sub\n      swap1\n      log2\n        /* \"Character.sol\":2717:2943  function change_name(uint _hunter, string memory _name) external onlyOwner {... */\n      pop\n      pop\n      jump\t// out\n        /* \"@openzeppelin/contracts/access/Ownable.sol\":2081:2279   */\n    tag_149:\n        /* \"@openzeppelin/contracts/access/Ownable.sol\":1094:1107   */\n      tag_310\n        /* \"@openzeppelin/contracts/access/Ownable.sol\":1094:1105   */\n      tag_248\n        /* \"@openzeppelin/contracts/access/Ownable.sol\":1094:1107   */\n      jump\t// in\n    tag_310:\n      sub(shl(0xa0, 0x01), 0x01)\n        /* \"@openzeppelin/contracts/access/Ownable.sol\":2169:2191   */\n      dup2\n      and\n        /* \"@openzeppelin/contracts/access/Ownable.sol\":2161:2234   */\n      tag_312\n      jumpi\n      mload(0x40)\n      shl(0xe5, 0x461bcd)\n      dup2\n      mstore\n        /* \"#utility.yul\":13157:13159   */\n      0x20\n        /* \"@openzeppelin/contracts/access/Ownable.sol\":2161:2234   */\n      0x04\n      dup3\n      add\n        /* \"#utility.yul\":13139:13160   */\n      mstore\n        /* \"#utility.yul\":13196:13198   */\n      0x26\n        /* \"#utility.yul\":13176:13194   */\n      0x24\n      dup3\n      add\n        /* \"#utility.yul\":13169:13199   */\n      mstore\n        /* \"#utility.yul\":13235:13269   */\n      0x4f776e61626c653a206e6577206f776e657220697320746865207a65726f2061\n        /* \"#utility.yul\":13215:13233   */\n      0x44\n      dup3\n      add\n        /* \"#utility.yul\":13208:13270   */\n      mstore\n        /* \"#utility.yul\":13306:13314   */\n      0x6464726573730000000000000000000000000000000000000000000000000000\n        /* \"#utility.yul\":13286:13304   */\n      0x64\n      dup3\n      add\n        /* \"#utility.yul\":13279:13315   */\n      mstore\n        /* \"#utility.yul\":13332:13351   */\n      0x84\n      add\n        /* \"@openzeppelin/contracts/access/Ownable.sol\":2161:2234   */\n      tag_191\n        /* \"#utility.yul\":12955:13357   */\n      jump\n        /* \"@openzeppelin/contracts/access/Ownable.sol\":2161:2234   */\n    tag_312:\n        /* \"@openzeppelin/contracts/access/Ownable.sol\":2244:2272   */\n      tag_315\n        /* \"@openzeppelin/contracts/access/Ownable.sol\":2263:2271   */\n      dup2\n        /* \"@openzeppelin/contracts/access/Ownable.sol\":2244:2262   */\n      tag_251\n        /* \"@openzeppelin/contracts/access/Ownable.sol\":2244:2272   */\n      jump\t// in\n    tag_315:\n        /* \"@openzeppelin/contracts/access/Ownable.sol\":2081:2279   */\n      pop\n      jump\t// out\n        /* \"@openzeppelin/contracts/token/ERC721/ERC721.sol\":11657:11790   */\n    tag_169:\n        /* \"@openzeppelin/contracts/token/ERC721/ERC721.sol\":7099:7103   */\n      0x00\n        /* \"@openzeppelin/contracts/token/ERC721/ERC721.sol\":7122:7138   */\n      dup2\n      dup2\n      mstore\n        /* \"@openzeppelin/contracts/token/ERC721/ERC721.sol\":7122:7129   */\n      0x02\n        /* \"@openzeppelin/contracts/token/ERC721/ERC721.sol\":7122:7138   */\n      0x20\n      mstore\n      0x40\n      swap1\n      keccak256\n      sload\n      sub(shl(0xa0, 0x01), 0x01)\n      and\n        /* \"@openzeppelin/contracts/token/ERC721/ERC721.sol\":11730:11783   */\n      tag_315\n      jumpi\n      mload(0x40)\n      shl(0xe5, 0x461bcd)\n      dup2\n      mstore\n        /* \"#utility.yul\":11237:11239   */\n      0x20\n        /* \"@openzeppelin/contracts/token/ERC721/ERC721.sol\":11730:11783   */\n      0x04\n      dup3\n      add\n        /* \"#utility.yul\":11219:11240   */\n      mstore\n        /* \"#utility.yul\":11276:11278   */\n      0x18\n        /* \"#utility.yul\":11256:11274   */\n      0x24\n      dup3\n      add\n        /* \"#utility.yul\":11249:11279   */\n      mstore\n        /* \"#utility.yul\":11315:11341   */\n      0x4552433732313a20696e76616c696420746f6b656e2049440000000000000000\n        /* \"#utility.yul\":11295:11313   */\n      0x44\n      dup3\n      add\n        /* \"#utility.yul\":11288:11342   */\n      mstore\n        /* \"#utility.yul\":11359:11377   */\n      0x64\n      add\n        /* \"@openzeppelin/contracts/token/ERC721/ERC721.sol\":11730:11783   */\n      tag_191\n        /* \"#utility.yul\":11035:11383   */\n      jump\n        /* \"@openzeppelin/contracts/token/ERC721/ERC721.sol\":10959:11130   */\n    tag_202:\n        /* \"@openzeppelin/contracts/token/ERC721/ERC721.sol\":11033:11057   */\n      0x00\n      dup2\n      dup2\n      mstore\n        /* \"@openzeppelin/contracts/token/ERC721/ERC721.sol\":11033:11048   */\n      0x04\n        /* \"@openzeppelin/contracts/token/ERC721/ERC721.sol\":11033:11057   */\n      0x20\n      mstore\n      0x40\n      swap1\n      keccak256\n        /* \"@openzeppelin/contracts/token/ERC721/ERC721.sol\":11033:11062   */\n      dup1\n      sload\n      not(sub(shl(0xa0, 0x01), 0x01))\n      and\n      sub(shl(0xa0, 0x01), 0x01)\n      dup5\n      and\n      swap1\n      dup2\n      or\n      swap1\n      swap2\n      sstore\n        /* \"@openzeppelin/contracts/token/ERC721/ERC721.sol\":11033:11057   */\n      dup2\n      swap1\n        /* \"@openzeppelin/contracts/token/ERC721/ERC721.sol\":11086:11109   */\n      tag_324\n        /* \"@openzeppelin/contracts/token/ERC721/ERC721.sol\":11033:11057   */\n      dup3\n        /* \"@openzeppelin/contracts/token/ERC721/ERC721.sol\":11086:11100   */\n      tag_97\n        /* \"@openzeppelin/contracts/token/ERC721/ERC721.sol\":11086:11109   */\n      jump\t// in\n    tag_324:\n      sub(shl(0xa0, 0x01), 0x01)\n        /* \"@openzeppelin/contracts/token/ERC721/ERC721.sol\":11077:11123   */\n      and\n      0x8c5be1e5ebec7d5bd14f71427d1e84f3dd0314c0f7b2291e5b200ac8c7c3b925\n      mload(0x40)\n      mload(0x40)\n      dup1\n      swap2\n      sub\n      swap1\n      log4\n        /* \"@openzeppelin/contracts/token/ERC721/ERC721.sol\":10959:11130   */\n      pop\n      pop\n      jump\t// out\n        /* \"@openzeppelin/contracts/token/ERC721/ERC721.sol\":7317:7578   */\n    tag_206:\n        /* \"@openzeppelin/contracts/token/ERC721/ERC721.sol\":7410:7414   */\n      0x00\n        /* \"@openzeppelin/contracts/token/ERC721/ERC721.sol\":7426:7439   */\n      dup1\n        /* \"@openzeppelin/contracts/token/ERC721/ERC721.sol\":7442:7465   */\n      tag_326\n        /* \"@openzeppelin/contracts/token/ERC721/ERC721.sol\":7457:7464   */\n      dup4\n        /* \"@openzeppelin/contracts/token/ERC721/ERC721.sol\":7442:7456   */\n      tag_97\n        /* \"@openzeppelin/contracts/token/ERC721/ERC721.sol\":7442:7465   */\n      jump\t// in\n    tag_326:\n        /* \"@openzeppelin/contracts/token/ERC721/ERC721.sol\":7426:7465   */\n      swap1\n      pop\n        /* \"@openzeppelin/contracts/token/ERC721/ERC721.sol\":7494:7499   */\n      dup1\n      sub(shl(0xa0, 0x01), 0x01)\n        /* \"@openzeppelin/contracts/token/ERC721/ERC721.sol\":7483:7499   */\n      and\n        /* \"@openzeppelin/contracts/token/ERC721/ERC721.sol\":7483:7490   */\n      dup5\n      sub(shl(0xa0, 0x01), 0x01)\n        /* \"@openzeppelin/contracts/token/ERC721/ERC721.sol\":7483:7499   */\n      and\n      eq\n        /* \"@openzeppelin/contracts/token/ERC721/ERC721.sol\":7483:7535   */\n      dup1\n      tag_328\n      jumpi\n      pop\n      sub(shl(0xa0, 0x01), 0x01)\n        /* \"@openzeppelin/contracts/token/ERC721/ERC721.sol\":4508:4533   */\n      dup1\n      dup3\n      and\n        /* \"@openzeppelin/contracts/token/ERC721/ERC721.sol\":4485:4489   */\n      0x00\n        /* \"@openzeppelin/contracts/token/ERC721/ERC721.sol\":4508:4533   */\n      swap1\n      dup2\n      mstore\n        /* \"@openzeppelin/contracts/token/ERC721/ERC721.sol\":4508:4526   */\n      0x05\n        /* \"@openzeppelin/contracts/token/ERC721/ERC721.sol\":4508:4533   */\n      0x20\n      swap1\n      dup2\n      mstore\n      0x40\n      dup1\n      dup4\n      keccak256\n        /* \"@openzeppelin/contracts/token/ERC721/ERC721.sol\":4508:4543   */\n      swap4\n      dup9\n      and\n      dup4\n      mstore\n      swap3\n      swap1\n      mstore\n      keccak256\n      sload\n      0xff\n      and\n        /* \"@openzeppelin/contracts/token/ERC721/ERC721.sol\":7503:7535   */\n    tag_328:\n        /* \"@openzeppelin/contracts/token/ERC721/ERC721.sol\":7483:7570   */\n      dup1\n      tag_329\n      jumpi\n      pop\n        /* \"@openzeppelin/contracts/token/ERC721/ERC721.sol\":7563:7570   */\n      dup4\n      sub(shl(0xa0, 0x01), 0x01)\n        /* \"@openzeppelin/contracts/token/ERC721/ERC721.sol\":7539:7570   */\n      and\n        /* \"@openzeppelin/contracts/token/ERC721/ERC721.sol\":7539:7559   */\n      tag_330\n        /* \"@openzeppelin/contracts/token/ERC721/ERC721.sol\":7551:7558   */\n      dup5\n        /* \"@openzeppelin/contracts/token/ERC721/ERC721.sol\":7539:7550   */\n      tag_55\n        /* \"@openzeppelin/contracts/token/ERC721/ERC721.sol\":7539:7559   */\n      jump\t// in\n    tag_330:\n      sub(shl(0xa0, 0x01), 0x01)\n        /* \"@openzeppelin/contracts/token/ERC721/ERC721.sol\":7539:7570   */\n      and\n      eq\n        /* \"@openzeppelin/contracts/token/ERC721/ERC721.sol\":7483:7570   */\n    tag_329:\n        /* \"@openzeppelin/contracts/token/ERC721/ERC721.sol\":7475:7571   */\n      swap5\n        /* \"@openzeppelin/contracts/token/ERC721/ERC721.sol\":7317:7578   */\n      swap4\n      pop\n      pop\n      pop\n      pop\n      jump\t// out\n        /* \"@openzeppelin/contracts/token/ERC721/ERC721.sol\":10242:10847   */\n    tag_211:\n        /* \"@openzeppelin/contracts/token/ERC721/ERC721.sol\":10396:10400   */\n      dup3\n      sub(shl(0xa0, 0x01), 0x01)\n        /* \"@openzeppelin/contracts/token/ERC721/ERC721.sol\":10369:10400   */\n      and\n        /* \"@openzeppelin/contracts/token/ERC721/ERC721.sol\":10369:10392   */\n      tag_332\n        /* \"@openzeppelin/contracts/token/ERC721/ERC721.sol\":10384:10391   */\n      dup3\n        /* \"@openzeppelin/contracts/token/ERC721/ERC721.sol\":10369:10383   */\n      tag_97\n        /* \"@openzeppelin/contracts/token/ERC721/ERC721.sol\":10369:10392   */\n      jump\t// in\n    tag_332:\n      sub(shl(0xa0, 0x01), 0x01)\n        /* \"@openzeppelin/contracts/token/ERC721/ERC721.sol\":10369:10400   */\n      and\n      eq\n        /* \"@openzeppelin/contracts/token/ERC721/ERC721.sol\":10361:10442   */\n      tag_333\n      jumpi\n      mload(0x40)\n      shl(0xe5, 0x461bcd)\n      dup2\n      mstore\n        /* \"#utility.yul\":13564:13566   */\n      0x20\n        /* \"@openzeppelin/contracts/token/ERC721/ERC721.sol\":10361:10442   */\n      0x04\n      dup3\n      add\n        /* \"#utility.yul\":13546:13567   */\n      mstore\n        /* \"#utility.yul\":13603:13605   */\n      0x25\n        /* \"#utility.yul\":13583:13601   */\n      0x24\n      dup3\n      add\n        /* \"#utility.yul\":13576:13606   */\n      mstore\n        /* \"#utility.yul\":13642:13676   */\n      0x4552433732313a207472616e736665722066726f6d20696e636f727265637420\n        /* \"#utility.yul\":13622:13640   */\n      0x44\n      dup3\n      add\n        /* \"#utility.yul\":13615:13677   */\n      mstore\n        /* \"#utility.yul\":13713:13720   */\n      0x6f776e6572000000000000000000000000000000000000000000000000000000\n        /* \"#utility.yul\":13693:13711   */\n      0x64\n      dup3\n      add\n        /* \"#utility.yul\":13686:13721   */\n      mstore\n        /* \"#utility.yul\":13738:13757   */\n      0x84\n      add\n        /* \"@openzeppelin/contracts/token/ERC721/ERC721.sol\":10361:10442   */\n      tag_191\n        /* \"#utility.yul\":13362:13763   */\n      jump\n        /* \"@openzeppelin/contracts/token/ERC721/ERC721.sol\":10361:10442   */\n    tag_333:\n      sub(shl(0xa0, 0x01), 0x01)\n        /* \"@openzeppelin/contracts/token/ERC721/ERC721.sol\":10460:10476   */\n      dup3\n      and\n        /* \"@openzeppelin/contracts/token/ERC721/ERC721.sol\":10452:10517   */\n      tag_336\n      jumpi\n      mload(0x40)\n      shl(0xe5, 0x461bcd)\n      dup2\n      mstore\n        /* \"#utility.yul\":13970:13972   */\n      0x20\n        /* \"@openzeppelin/contracts/token/ERC721/ERC721.sol\":10452:10517   */\n      0x04\n      dup3\n      add\n        /* \"#utility.yul\":13952:13973   */\n      mstore\n        /* \"#utility.yul\":14009:14011   */\n      0x24\n        /* \"#utility.yul\":13989:14007   */\n      dup1\n      dup3\n      add\n        /* \"#utility.yul\":13982:14012   */\n      mstore\n        /* \"#utility.yul\":14048:14082   */\n      0x4552433732313a207472616e7366657220746f20746865207a65726f20616464\n        /* \"#utility.yul\":14028:14046   */\n      0x44\n      dup3\n      add\n        /* \"#utility.yul\":14021:14083   */\n      mstore\n      shl(0xe0, 0x72657373)\n        /* \"#utility.yul\":14099:14117   */\n      0x64\n      dup3\n      add\n        /* \"#utility.yul\":14092:14126   */\n      mstore\n        /* \"#utility.yul\":14143:14162   */\n      0x84\n      add\n        /* \"@openzeppelin/contracts/token/ERC721/ERC721.sol\":10452:10517   */\n      tag_191\n        /* \"#utility.yul\":13768:14168   */\n      jump\n        /* \"@openzeppelin/contracts/token/ERC721/ERC721.sol\":10452:10517   */\n    tag_336:\n        /* \"@openzeppelin/contracts/token/ERC721/ERC721.sol\":10629:10658   */\n      tag_341\n        /* \"@openzeppelin/contracts/token/ERC721/ERC721.sol\":10646:10647   */\n      0x00\n        /* \"@openzeppelin/contracts/token/ERC721/ERC721.sol\":10650:10657   */\n      dup3\n        /* \"@openzeppelin/contracts/token/ERC721/ERC721.sol\":10629:10637   */\n      tag_202\n        /* \"@openzeppelin/contracts/token/ERC721/ERC721.sol\":10629:10658   */\n      jump\t// in\n    tag_341:\n      sub(shl(0xa0, 0x01), 0x01)\n        /* \"@openzeppelin/contracts/token/ERC721/ERC721.sol\":10669:10684   */\n      dup4\n      and\n      0x00\n      swap1\n      dup2\n      mstore\n        /* \"@openzeppelin/contracts/token/ERC721/ERC721.sol\":10669:10678   */\n      0x03\n        /* \"@openzeppelin/contracts/token/ERC721/ERC721.sol\":10669:10684   */\n      0x20\n      mstore\n      0x40\n      dup2\n      keccak256\n        /* \"@openzeppelin/contracts/token/ERC721/ERC721.sol\":10669:10689   */\n      dup1\n      sload\n        /* \"@openzeppelin/contracts/token/ERC721/ERC721.sol\":10688:10689   */\n      0x01\n      swap3\n        /* \"@openzeppelin/contracts/token/ERC721/ERC721.sol\":10669:10684   */\n      swap1\n        /* \"@openzeppelin/contracts/token/ERC721/ERC721.sol\":10669:10689   */\n      tag_342\n      swap1\n        /* \"@openzeppelin/contracts/token/ERC721/ERC721.sol\":10688:10689   */\n      dup5\n      swap1\n        /* \"@openzeppelin/contracts/token/ERC721/ERC721.sol\":10669:10689   */\n      tag_343\n      jump\t// in\n    tag_342:\n      swap1\n      swap2\n      sstore\n      pop\n      pop\n      sub(shl(0xa0, 0x01), 0x01)\n        /* \"@openzeppelin/contracts/token/ERC721/ERC721.sol\":10699:10712   */\n      dup3\n      and\n      0x00\n      swap1\n      dup2\n      mstore\n        /* \"@openzeppelin/contracts/token/ERC721/ERC721.sol\":10699:10708   */\n      0x03\n        /* \"@openzeppelin/contracts/token/ERC721/ERC721.sol\":10699:10712   */\n      0x20\n      mstore\n      0x40\n      dup2\n      keccak256\n        /* \"@openzeppelin/contracts/token/ERC721/ERC721.sol\":10699:10717   */\n      dup1\n      sload\n        /* \"@openzeppelin/contracts/token/ERC721/ERC721.sol\":10716:10717   */\n      0x01\n      swap3\n        /* \"@openzeppelin/contracts/token/ERC721/ERC721.sol\":10699:10712   */\n      swap1\n        /* \"@openzeppelin/contracts/token/ERC721/ERC721.sol\":10699:10717   */\n      tag_344\n      swap1\n        /* \"@openzeppelin/contracts/token/ERC721/ERC721.sol\":10716:10717   */\n      dup5\n      swap1\n        /* \"@openzeppelin/contracts/token/ERC721/ERC721.sol\":10699:10717   */\n      tag_262\n      jump\t// in\n    tag_344:\n      swap1\n      swap2\n      sstore\n      pop\n      pop\n        /* \"@openzeppelin/contracts/token/ERC721/ERC721.sol\":10727:10743   */\n      0x00\n      dup2\n      dup2\n      mstore\n        /* \"@openzeppelin/contracts/token/ERC721/ERC721.sol\":10727:10734   */\n      0x02\n        /* \"@openzeppelin/contracts/token/ERC721/ERC721.sol\":10727:10743   */\n      0x20\n      mstore\n      0x40\n      dup1\n      dup3\n      keccak256\n        /* \"@openzeppelin/contracts/token/ERC721/ERC721.sol\":10727:10748   */\n      dup1\n      sload\n      not(sub(shl(0xa0, 0x01), 0x01))\n      and\n      sub(shl(0xa0, 0x01), 0x01)\n      dup7\n      dup2\n      and\n      swap2\n      dup3\n      or\n      swap1\n      swap3\n      sstore\n        /* \"@openzeppelin/contracts/token/ERC721/ERC721.sol\":10764:10791   */\n      swap2\n      mload\n        /* \"@openzeppelin/contracts/token/ERC721/ERC721.sol\":10727:10743   */\n      dup5\n      swap4\n        /* \"@openzeppelin/contracts/token/ERC721/ERC721.sol\":10764:10791   */\n      swap2\n      dup8\n      and\n      swap2\n      0xddf252ad1be2c89b69c2b068fc378daa952ba7f163c4a11628f55a4df523b3ef\n      swap2\n      log4\n        /* \"@openzeppelin/contracts/token/ERC721/ERC721.sol\":3537:3874   */\n      pop\n        /* \"@openzeppelin/contracts/token/ERC721/ERC721.sol\":3467:3874   */\n      pop\n      pop\n      jump\t// out\n        /* \"@openzeppelin/contracts/utils/Strings.sol\":2245:2394   */\n    tag_223:\n        /* \"@openzeppelin/contracts/utils/Strings.sol\":2303:2316   */\n      0x60\n        /* \"@openzeppelin/contracts/utils/Strings.sol\":2335:2387   */\n      tag_159\n      sub(shl(0xa0, 0x01), 0x01)\n        /* \"@openzeppelin/contracts/utils/Strings.sol\":2347:2369   */\n      dup4\n      and\n        /* \"@openzeppelin/contracts/utils/Strings.sol\":288:290   */\n      0x14\n        /* \"@openzeppelin/contracts/utils/Strings.sol\":2335:2346   */\n      tag_351\n        /* \"@openzeppelin/contracts/utils/Strings.sol\":2335:2387   */\n      jump\t// in\n        /* \"@openzeppelin/contracts/token/ERC721/ERC721.sol\":7908:8016   */\n    tag_229:\n        /* \"@openzeppelin/contracts/token/ERC721/ERC721.sol\":7983:8009   */\n      tag_279\n        /* \"@openzeppelin/contracts/token/ERC721/ERC721.sol\":7993:7995   */\n      dup3\n        /* \"@openzeppelin/contracts/token/ERC721/ERC721.sol\":7997:8004   */\n      dup3\n        /* \"@openzeppelin/contracts/token/ERC721/ERC721.sol\":7983:8009   */\n      mload(0x40)\n      dup1\n      0x20\n      add\n      0x40\n      mstore\n      dup1\n      0x00\n      dup2\n      mstore\n      pop\n        /* \"@openzeppelin/contracts/token/ERC721/ERC721.sol\":7983:7992   */\n      tag_354\n        /* \"@openzeppelin/contracts/token/ERC721/ERC721.sol\":7983:8009   */\n      jump\t// in\n        /* \"@openzeppelin/contracts/access/Ownable.sol\":1359:1489   */\n    tag_248:\n        /* \"@openzeppelin/contracts/access/Ownable.sol\":1273:1279   */\n      and(sub(shl(0xa0, 0x01), 0x01), sload(0x06))\n        /* \"@openzeppelin/contracts/utils/Context.sol\":719:729   */\n      caller\n        /* \"@openzeppelin/contracts/access/Ownable.sol\":1422:1445   */\n      eq\n        /* \"@openzeppelin/contracts/access/Ownable.sol\":1414:1482   */\n      tag_250\n      jumpi\n      mload(0x40)\n      shl(0xe5, 0x461bcd)\n      dup2\n      mstore\n        /* \"#utility.yul\":14505:14507   */\n      0x20\n        /* \"@openzeppelin/contracts/access/Ownable.sol\":1414:1482   */\n      0x04\n      dup3\n      add\n        /* \"#utility.yul\":14487:14508   */\n      dup2\n      swap1\n      mstore\n        /* \"#utility.yul\":14524:14542   */\n      0x24\n      dup3\n      add\n        /* \"#utility.yul\":14517:14547   */\n      mstore\n        /* \"#utility.yul\":14583:14617   */\n      0x4f776e61626c653a2063616c6c6572206973206e6f7420746865206f776e6572\n        /* \"#utility.yul\":14563:14581   */\n      0x44\n      dup3\n      add\n        /* \"#utility.yul\":14556:14618   */\n      mstore\n        /* \"#utility.yul\":14635:14653   */\n      0x64\n      add\n        /* \"@openzeppelin/contracts/access/Ownable.sol\":1414:1482   */\n      tag_191\n        /* \"#utility.yul\":14303:14659   */\n      jump\n        /* \"@openzeppelin/contracts/access/Ownable.sol\":2433:2620   */\n    tag_251:\n        /* \"@openzeppelin/contracts/access/Ownable.sol\":2525:2531   */\n      0x06\n      dup1\n      sload\n      sub(shl(0xa0, 0x01), 0x01)\n        /* \"@openzeppelin/contracts/access/Ownable.sol\":2541:2558   */\n      dup4\n      dup2\n      and\n      not(sub(shl(0xa0, 0x01), 0x01))\n      dup4\n      and\n      dup2\n      or\n      swap1\n      swap4\n      sstore\n        /* \"@openzeppelin/contracts/access/Ownable.sol\":2573:2613   */\n      mload(0x40)\n        /* \"@openzeppelin/contracts/access/Ownable.sol\":2525:2531   */\n      swap2\n      and\n      swap2\n        /* \"@openzeppelin/contracts/access/Ownable.sol\":2541:2558   */\n      swap1\n        /* \"@openzeppelin/contracts/access/Ownable.sol\":2525:2531   */\n      dup3\n      swap1\n        /* \"@openzeppelin/contracts/access/Ownable.sol\":2573:2613   */\n      0x8be0079c531659141344cd1fd0a4f28419497f9722a3daafe3b4186f6b6457e0\n      swap1\n        /* \"@openzeppelin/contracts/access/Ownable.sol\":2506:2522   */\n      0x00\n      swap1\n        /* \"@openzeppelin/contracts/access/Ownable.sol\":2573:2613   */\n      log3\n        /* \"@openzeppelin/contracts/access/Ownable.sol\":2496:2620   */\n      pop\n        /* \"@openzeppelin/contracts/access/Ownable.sol\":2433:2620   */\n      pop\n      jump\t// out\n        /* \"@openzeppelin/contracts/token/ERC20/utils/SafeERC20.sol\":974:1215   */\n    tag_260:\n        /* \"@openzeppelin/contracts/token/ERC20/utils/SafeERC20.sol\":1139:1207   */\n      0x40\n      dup1\n      mload\n      sub(shl(0xa0, 0x01), 0x01)\n        /* \"#utility.yul\":14945:14960   */\n      dup6\n      dup2\n      and\n        /* \"@openzeppelin/contracts/token/ERC20/utils/SafeERC20.sol\":1139:1207   */\n      0x24\n      dup4\n      add\n        /* \"#utility.yul\":14927:14961   */\n      mstore\n        /* \"#utility.yul\":14997:15012   */\n      dup5\n      and\n        /* \"#utility.yul\":14977:14995   */\n      0x44\n      dup3\n      add\n        /* \"#utility.yul\":14970:15013   */\n      mstore\n        /* \"#utility.yul\":15029:15047   */\n      0x64\n      dup1\n      dup3\n      add\n        /* \"#utility.yul\":15022:15056   */\n      dup5\n      swap1\n      mstore\n        /* \"@openzeppelin/contracts/token/ERC20/utils/SafeERC20.sol\":1139:1207   */\n      dup3\n      mload\n      dup1\n      dup4\n      sub\n      swap1\n      swap2\n      add\n      dup2\n      mstore\n        /* \"#utility.yul\":14839:14857   */\n      0x84\n      swap1\n      swap2\n      add\n        /* \"@openzeppelin/contracts/token/ERC20/utils/SafeERC20.sol\":1139:1207   */\n      swap1\n      swap2\n      mstore\n      0x20\n      dup2\n      add\n      dup1\n      mload\n      0xffffffffffffffffffffffffffffffffffffffffffffffffffffffff\n      and\n      shl(0xe0, 0x23b872dd)\n      or\n      swap1\n      mstore\n        /* \"@openzeppelin/contracts/token/ERC20/utils/SafeERC20.sol\":1112:1208   */\n      tag_287\n      swap1\n        /* \"@openzeppelin/contracts/token/ERC20/utils/SafeERC20.sol\":1132:1137   */\n      dup6\n      swap1\n        /* \"@openzeppelin/contracts/token/ERC20/utils/SafeERC20.sol\":1112:1131   */\n      tag_366\n        /* \"@openzeppelin/contracts/token/ERC20/utils/SafeERC20.sol\":1112:1208   */\n      jump\t// in\n        /* \"@openzeppelin/contracts/token/ERC721/ERC721.sol\":11266:11573   */\n    tag_281:\n        /* \"@openzeppelin/contracts/token/ERC721/ERC721.sol\":11416:11424   */\n      dup2\n      sub(shl(0xa0, 0x01), 0x01)\n        /* \"@openzeppelin/contracts/token/ERC721/ERC721.sol\":11407:11424   */\n      and\n        /* \"@openzeppelin/contracts/token/ERC721/ERC721.sol\":11407:11412   */\n      dup4\n      sub(shl(0xa0, 0x01), 0x01)\n        /* \"@openzeppelin/contracts/token/ERC721/ERC721.sol\":11407:11424   */\n      and\n      sub\n        /* \"@openzeppelin/contracts/token/ERC721/ERC721.sol\":11399:11454   */\n      tag_368\n      jumpi\n      mload(0x40)\n      shl(0xe5, 0x461bcd)\n      dup2\n      mstore\n        /* \"#utility.yul\":15269:15271   */\n      0x20\n        /* \"@openzeppelin/contracts/token/ERC721/ERC721.sol\":11399:11454   */\n      0x04\n      dup3\n      add\n        /* \"#utility.yul\":15251:15272   */\n      mstore\n        /* \"#utility.yul\":15308:15310   */\n      0x19\n        /* \"#utility.yul\":15288:15306   */\n      0x24\n      dup3\n      add\n        /* \"#utility.yul\":15281:15311   */\n      mstore\n        /* \"#utility.yul\":15347:15374   */\n      0x4552433732313a20617070726f766520746f2063616c6c657200000000000000\n        /* \"#utility.yul\":15327:15345   */\n      0x44\n      dup3\n      add\n        /* \"#utility.yul\":15320:15375   */\n      mstore\n        /* \"#utility.yul\":15392:15410   */\n      0x64\n      add\n        /* \"@openzeppelin/contracts/token/ERC721/ERC721.sol\":11399:11454   */\n      tag_191\n        /* \"#utility.yul\":15067:15416   */\n      jump\n        /* \"@openzeppelin/contracts/token/ERC721/ERC721.sol\":11399:11454   */\n    tag_368:\n      sub(shl(0xa0, 0x01), 0x01)\n        /* \"@openzeppelin/contracts/token/ERC721/ERC721.sol\":11464:11489   */\n      dup4\n      dup2\n      and\n      0x00\n      dup2\n      dup2\n      mstore\n        /* \"@openzeppelin/contracts/token/ERC721/ERC721.sol\":11464:11482   */\n      0x05\n        /* \"@openzeppelin/contracts/token/ERC721/ERC721.sol\":11464:11489   */\n      0x20\n      swap1\n      dup2\n      mstore\n      0x40\n      dup1\n      dup4\n      keccak256\n        /* \"@openzeppelin/contracts/token/ERC721/ERC721.sol\":11464:11499   */\n      swap5\n      dup8\n      and\n      dup1\n      dup5\n      mstore\n      swap5\n      dup3\n      mstore\n      swap2\n      dup3\n      swap1\n      keccak256\n        /* \"@openzeppelin/contracts/token/ERC721/ERC721.sol\":11464:11510   */\n      dup1\n      sload\n      not(0xff)\n      and\n      dup7\n      iszero\n      iszero\n      swap1\n      dup2\n      or\n      swap1\n      swap2\n      sstore\n        /* \"@openzeppelin/contracts/token/ERC721/ERC721.sol\":11525:11566   */\n      swap2\n      mload\n        /* \"#utility.yul\":1476:1517   */\n      swap2\n      dup3\n      mstore\n        /* \"@openzeppelin/contracts/token/ERC721/ERC721.sol\":11525:11566   */\n      0x17307eab39ab6107e8899845ad3d59bd9653f200f220920489ca2b5937696c31\n      swap2\n        /* \"#utility.yul\":1449:1467   */\n      add\n        /* \"@openzeppelin/contracts/token/ERC721/ERC721.sol\":11525:11566   */\n      mload(0x40)\n      dup1\n      swap2\n      sub\n      swap1\n      log3\n        /* \"@openzeppelin/contracts/token/ERC721/ERC721.sol\":11266:11573   */\n      pop\n      pop\n      pop\n      jump\t// out\n        /* \"@openzeppelin/contracts/token/ERC721/ERC721.sol\":6426:6731   */\n    tag_288:\n        /* \"@openzeppelin/contracts/token/ERC721/ERC721.sol\":6576:6604   */\n      tag_373\n        /* \"@openzeppelin/contracts/token/ERC721/ERC721.sol\":6586:6590   */\n      dup5\n        /* \"@openzeppelin/contracts/token/ERC721/ERC721.sol\":6592:6594   */\n      dup5\n        /* \"@openzeppelin/contracts/token/ERC721/ERC721.sol\":6596:6603   */\n      dup5\n        /* \"@openzeppelin/contracts/token/ERC721/ERC721.sol\":6576:6585   */\n      tag_211\n        /* \"@openzeppelin/contracts/token/ERC721/ERC721.sol\":6576:6604   */\n      jump\t// in\n    tag_373:\n        /* \"@openzeppelin/contracts/token/ERC721/ERC721.sol\":6622:6669   */\n      tag_374\n        /* \"@openzeppelin/contracts/token/ERC721/ERC721.sol\":6645:6649   */\n      dup5\n        /* \"@openzeppelin/contracts/token/ERC721/ERC721.sol\":6651:6653   */\n      dup5\n        /* \"@openzeppelin/contracts/token/ERC721/ERC721.sol\":6655:6662   */\n      dup5\n        /* \"@openzeppelin/contracts/token/ERC721/ERC721.sol\":6664:6668   */\n      dup5\n        /* \"@openzeppelin/contracts/token/ERC721/ERC721.sol\":6622:6644   */\n      tag_375\n        /* \"@openzeppelin/contracts/token/ERC721/ERC721.sol\":6622:6669   */\n      jump\t// in\n    tag_374:\n        /* \"@openzeppelin/contracts/token/ERC721/ERC721.sol\":6614:6724   */\n      tag_287\n      jumpi\n      mload(0x40)\n      shl(0xe5, 0x461bcd)\n      dup2\n      mstore\n        /* \"#utility.yul\":15623:15625   */\n      0x20\n        /* \"@openzeppelin/contracts/token/ERC721/ERC721.sol\":6614:6724   */\n      0x04\n      dup3\n      add\n        /* \"#utility.yul\":15605:15626   */\n      mstore\n        /* \"#utility.yul\":15662:15664   */\n      0x32\n        /* \"#utility.yul\":15642:15660   */\n      0x24\n      dup3\n      add\n        /* \"#utility.yul\":15635:15665   */\n      mstore\n        /* \"#utility.yul\":15701:15735   */\n      0x4552433732313a207472616e7366657220746f206e6f6e204552433732315265\n        /* \"#utility.yul\":15681:15699   */\n      0x44\n      dup3\n      add\n        /* \"#utility.yul\":15674:15736   */\n      mstore\n      shl(0x71, 0x31b2b4bb32b91034b6b83632b6b2b73a32b9)\n        /* \"#utility.yul\":15752:15770   */\n      0x64\n      dup3\n      add\n        /* \"#utility.yul\":15745:15793   */\n      mstore\n        /* \"#utility.yul\":15810:15829   */\n      0x84\n      add\n        /* \"@openzeppelin/contracts/token/ERC721/ERC721.sol\":6614:6724   */\n      tag_191\n        /* \"#utility.yul\":15421:15835   */\n      jump\n        /* \"@openzeppelin/contracts/utils/Strings.sol\":392:1095   */\n    tag_299:\n        /* \"@openzeppelin/contracts/utils/Strings.sol\":448:461   */\n      0x60\n        /* \"@openzeppelin/contracts/utils/Strings.sol\":665:670   */\n      dup2\n        /* \"@openzeppelin/contracts/utils/Strings.sol\":674:675   */\n      0x00\n        /* \"@openzeppelin/contracts/utils/Strings.sol\":665:675   */\n      sub\n        /* \"@openzeppelin/contracts/utils/Strings.sol\":661:712   */\n      tag_381\n      jumpi\n      pop\n      pop\n        /* \"@openzeppelin/contracts/utils/Strings.sol\":691:701   */\n      0x40\n      dup1\n      mload\n      dup1\n      dup3\n      add\n      swap1\n      swap2\n      mstore\n      0x01\n      dup2\n      mstore\n      shl(0xfc, 0x03)\n      0x20\n      dup3\n      add\n      mstore\n      swap1\n        /* \"@openzeppelin/contracts/utils/Strings.sol\":392:1095   */\n      jump\t// out\n        /* \"@openzeppelin/contracts/utils/Strings.sol\":661:712   */\n    tag_381:\n        /* \"@openzeppelin/contracts/utils/Strings.sol\":736:741   */\n      dup2\n        /* \"@openzeppelin/contracts/utils/Strings.sol\":721:733   */\n      0x00\n        /* \"@openzeppelin/contracts/utils/Strings.sol\":775:850   */\n    tag_382:\n        /* \"@openzeppelin/contracts/utils/Strings.sol\":782:791   */\n      dup2\n      iszero\n        /* \"@openzeppelin/contracts/utils/Strings.sol\":775:850   */\n      tag_383\n      jumpi\n        /* \"@openzeppelin/contracts/utils/Strings.sol\":807:815   */\n      dup1\n      tag_384\n      dup2\n      tag_187\n      jump\t// in\n    tag_384:\n      swap2\n      pop\n        /* \"@openzeppelin/contracts/utils/Strings.sol\":829:839   */\n      tag_385\n      swap1\n      pop\n        /* \"@openzeppelin/contracts/utils/Strings.sol\":837:839   */\n      0x0a\n        /* \"@openzeppelin/contracts/utils/Strings.sol\":829:839   */\n      dup4\n      tag_386\n      jump\t// in\n    tag_385:\n      swap2\n      pop\n        /* \"@openzeppelin/contracts/utils/Strings.sol\":775:850   */\n      jump(tag_382)\n    tag_383:\n        /* \"@openzeppelin/contracts/utils/Strings.sol\":859:878   */\n      0x00\n        /* \"@openzeppelin/contracts/utils/Strings.sol\":891:897   */\n      dup2\n        /* \"@openzeppelin/contracts/utils/Strings.sol\":881:898   */\n      0xffffffffffffffff\n      dup2\n      gt\n      iszero\n      tag_388\n      jumpi\n      tag_388\n      tag_173\n      jump\t// in\n    tag_388:\n      mload(0x40)\n      swap1\n      dup1\n      dup3\n      mstore\n      dup1\n      0x1f\n      add\n      not(0x1f)\n      and\n      0x20\n      add\n      dup3\n      add\n      0x40\n      mstore\n      dup1\n      iszero\n      tag_389\n      jumpi\n      0x20\n      dup3\n      add\n      dup2\n      dup1\n      calldatasize\n      dup4\n      calldatacopy\n      add\n      swap1\n      pop\n    tag_389:\n      pop\n        /* \"@openzeppelin/contracts/utils/Strings.sol\":859:898   */\n      swap1\n      pop\n        /* \"@openzeppelin/contracts/utils/Strings.sol\":908:1058   */\n    tag_390:\n        /* \"@openzeppelin/contracts/utils/Strings.sol\":915:925   */\n      dup5\n      iszero\n        /* \"@openzeppelin/contracts/utils/Strings.sol\":908:1058   */\n      tag_329\n      jumpi\n        /* \"@openzeppelin/contracts/utils/Strings.sol\":941:952   */\n      tag_392\n        /* \"@openzeppelin/contracts/utils/Strings.sol\":951:952   */\n      0x01\n        /* \"@openzeppelin/contracts/utils/Strings.sol\":941:952   */\n      dup4\n      tag_343\n      jump\t// in\n    tag_392:\n      swap2\n      pop\n        /* \"@openzeppelin/contracts/utils/Strings.sol\":1009:1019   */\n      tag_393\n        /* \"@openzeppelin/contracts/utils/Strings.sol\":1017:1019   */\n      0x0a\n        /* \"@openzeppelin/contracts/utils/Strings.sol\":1009:1014   */\n      dup7\n        /* \"@openzeppelin/contracts/utils/Strings.sol\":1009:1019   */\n      tag_394\n      jump\t// in\n    tag_393:\n        /* \"@openzeppelin/contracts/utils/Strings.sol\":996:1020   */\n      tag_395\n      swap1\n        /* \"@openzeppelin/contracts/utils/Strings.sol\":996:998   */\n      0x30\n        /* \"@openzeppelin/contracts/utils/Strings.sol\":996:1020   */\n      tag_262\n      jump\t// in\n    tag_395:\n        /* \"@openzeppelin/contracts/utils/Strings.sol\":983:1022   */\n      0xf8\n      shl\n        /* \"@openzeppelin/contracts/utils/Strings.sol\":966:972   */\n      dup2\n        /* \"@openzeppelin/contracts/utils/Strings.sol\":973:979   */\n      dup4\n        /* \"@openzeppelin/contracts/utils/Strings.sol\":966:980   */\n      dup2\n      mload\n      dup2\n      lt\n      tag_397\n      jumpi\n      tag_397\n      tag_185\n      jump\t// in\n    tag_397:\n      0x20\n      add\n      add\n        /* \"@openzeppelin/contracts/utils/Strings.sol\":966:1022   */\n      swap1\n      not(sub(shl(0xf8, 0x01), 0x01))\n      and\n      swap1\n      dup2\n      0x00\n      byte\n      swap1\n      mstore8\n      pop\n        /* \"@openzeppelin/contracts/utils/Strings.sol\":1036:1047   */\n      tag_398\n        /* \"@openzeppelin/contracts/utils/Strings.sol\":1045:1047   */\n      0x0a\n        /* \"@openzeppelin/contracts/utils/Strings.sol\":1036:1047   */\n      dup7\n      tag_386\n      jump\t// in\n    tag_398:\n      swap5\n      pop\n        /* \"@openzeppelin/contracts/utils/Strings.sol\":908:1058   */\n      jump(tag_390)\n        /* \"@openzeppelin/contracts/utils/Strings.sol\":1652:2093   */\n    tag_351:\n        /* \"@openzeppelin/contracts/utils/Strings.sol\":1727:1740   */\n      0x60\n        /* \"@openzeppelin/contracts/utils/Strings.sol\":1752:1771   */\n      0x00\n        /* \"@openzeppelin/contracts/utils/Strings.sol\":1784:1794   */\n      tag_403\n        /* \"@openzeppelin/contracts/utils/Strings.sol\":1788:1794   */\n      dup4\n        /* \"@openzeppelin/contracts/utils/Strings.sol\":1784:1785   */\n      0x02\n        /* \"@openzeppelin/contracts/utils/Strings.sol\":1784:1794   */\n      tag_237\n      jump\t// in\n    tag_403:\n        /* \"@openzeppelin/contracts/utils/Strings.sol\":1784:1798   */\n      tag_404\n      swap1\n        /* \"@openzeppelin/contracts/utils/Strings.sol\":1797:1798   */\n      0x02\n        /* \"@openzeppelin/contracts/utils/Strings.sol\":1784:1798   */\n      tag_262\n      jump\t// in\n    tag_404:\n        /* \"@openzeppelin/contracts/utils/Strings.sol\":1774:1799   */\n      0xffffffffffffffff\n      dup2\n      gt\n      iszero\n      tag_406\n      jumpi\n      tag_406\n      tag_173\n      jump\t// in\n    tag_406:\n      mload(0x40)\n      swap1\n      dup1\n      dup3\n      mstore\n      dup1\n      0x1f\n      add\n      not(0x1f)\n      and\n      0x20\n      add\n      dup3\n      add\n      0x40\n      mstore\n      dup1\n      iszero\n      tag_407\n      jumpi\n      0x20\n      dup3\n      add\n      dup2\n      dup1\n      calldatasize\n      dup4\n      calldatacopy\n      add\n      swap1\n      pop\n    tag_407:\n      pop\n        /* \"@openzeppelin/contracts/utils/Strings.sol\":1752:1799   */\n      swap1\n      pop\n      shl(0xfc, 0x03)\n        /* \"@openzeppelin/contracts/utils/Strings.sol\":1809:1815   */\n      dup2\n        /* \"@openzeppelin/contracts/utils/Strings.sol\":1816:1817   */\n      0x00\n        /* \"@openzeppelin/contracts/utils/Strings.sol\":1809:1818   */\n      dup2\n      mload\n      dup2\n      lt\n      tag_409\n      jumpi\n      tag_409\n      tag_185\n      jump\t// in\n    tag_409:\n      0x20\n      add\n      add\n        /* \"@openzeppelin/contracts/utils/Strings.sol\":1809:1824   */\n      swap1\n      not(sub(shl(0xf8, 0x01), 0x01))\n      and\n      swap1\n      dup2\n      0x00\n      byte\n      swap1\n      mstore8\n      pop\n      shl(0xfb, 0x0f)\n        /* \"@openzeppelin/contracts/utils/Strings.sol\":1834:1840   */\n      dup2\n        /* \"@openzeppelin/contracts/utils/Strings.sol\":1841:1842   */\n      0x01\n        /* \"@openzeppelin/contracts/utils/Strings.sol\":1834:1843   */\n      dup2\n      mload\n      dup2\n      lt\n      tag_411\n      jumpi\n      tag_411\n      tag_185\n      jump\t// in\n    tag_411:\n      0x20\n      add\n      add\n        /* \"@openzeppelin/contracts/utils/Strings.sol\":1834:1849   */\n      swap1\n      not(sub(shl(0xf8, 0x01), 0x01))\n      and\n      swap1\n      dup2\n      0x00\n      byte\n      swap1\n      mstore8\n      pop\n        /* \"@openzeppelin/contracts/utils/Strings.sol\":1864:1873   */\n      0x00\n        /* \"@openzeppelin/contracts/utils/Strings.sol\":1876:1886   */\n      tag_415\n        /* \"@openzeppelin/contracts/utils/Strings.sol\":1880:1886   */\n      dup5\n        /* \"@openzeppelin/contracts/utils/Strings.sol\":1876:1877   */\n      0x02\n        /* \"@openzeppelin/contracts/utils/Strings.sol\":1876:1886   */\n      tag_237\n      jump\t// in\n    tag_415:\n        /* \"@openzeppelin/contracts/utils/Strings.sol\":1876:1890   */\n      tag_416\n      swap1\n        /* \"@openzeppelin/contracts/utils/Strings.sol\":1889:1890   */\n      0x01\n        /* \"@openzeppelin/contracts/utils/Strings.sol\":1876:1890   */\n      tag_262\n      jump\t// in\n    tag_416:\n        /* \"@openzeppelin/contracts/utils/Strings.sol\":1864:1890   */\n      swap1\n      pop\n        /* \"@openzeppelin/contracts/utils/Strings.sol\":1859:1991   */\n    tag_412:\n        /* \"@openzeppelin/contracts/utils/Strings.sol\":1896:1897   */\n      0x01\n        /* \"@openzeppelin/contracts/utils/Strings.sol\":1892:1893   */\n      dup2\n        /* \"@openzeppelin/contracts/utils/Strings.sol\":1892:1897   */\n      gt\n        /* \"@openzeppelin/contracts/utils/Strings.sol\":1859:1991   */\n      iszero\n      tag_413\n      jumpi\n        /* \"@openzeppelin/contracts/utils/Strings.sol\":1930:1942   */\n      0x3031323334353637383961626364656600000000000000000000000000000000\n        /* \"@openzeppelin/contracts/utils/Strings.sol\":1943:1948   */\n      dup6\n        /* \"@openzeppelin/contracts/utils/Strings.sol\":1951:1954   */\n      0x0f\n        /* \"@openzeppelin/contracts/utils/Strings.sol\":1943:1954   */\n      and\n        /* \"@openzeppelin/contracts/utils/Strings.sol\":1930:1955   */\n      0x10\n      dup2\n      lt\n      tag_418\n      jumpi\n      tag_418\n      tag_185\n      jump\t// in\n    tag_418:\n      byte\n      0xf8\n      shl\n        /* \"@openzeppelin/contracts/utils/Strings.sol\":1918:1924   */\n      dup3\n        /* \"@openzeppelin/contracts/utils/Strings.sol\":1925:1926   */\n      dup3\n        /* \"@openzeppelin/contracts/utils/Strings.sol\":1918:1927   */\n      dup2\n      mload\n      dup2\n      lt\n      tag_420\n      jumpi\n      tag_420\n      tag_185\n      jump\t// in\n    tag_420:\n      0x20\n      add\n      add\n        /* \"@openzeppelin/contracts/utils/Strings.sol\":1918:1955   */\n      swap1\n      not(sub(shl(0xf8, 0x01), 0x01))\n      and\n      swap1\n      dup2\n      0x00\n      byte\n      swap1\n      mstore8\n      pop\n        /* \"@openzeppelin/contracts/utils/Strings.sol\":1979:1980   */\n      0x04\n        /* \"@openzeppelin/contracts/utils/Strings.sol\":1969:1980   */\n      swap5\n      swap1\n      swap5\n      shr\n      swap4\n        /* \"@openzeppelin/contracts/utils/Strings.sol\":1899:1902   */\n      tag_421\n      dup2\n      tag_422\n      jump\t// in\n    tag_421:\n      swap1\n      pop\n        /* \"@openzeppelin/contracts/utils/Strings.sol\":1859:1991   */\n      jump(tag_412)\n    tag_413:\n      pop\n        /* \"@openzeppelin/contracts/utils/Strings.sol\":2008:2018   */\n      dup4\n      iszero\n        /* \"@openzeppelin/contracts/utils/Strings.sol\":2000:2055   */\n      tag_297\n      jumpi\n      mload(0x40)\n      shl(0xe5, 0x461bcd)\n      dup2\n      mstore\n        /* \"#utility.yul\":16557:16559   */\n      0x20\n        /* \"@openzeppelin/contracts/utils/Strings.sol\":2000:2055   */\n      0x04\n      dup3\n      add\n        /* \"#utility.yul\":16539:16560   */\n      dup2\n      swap1\n      mstore\n        /* \"#utility.yul\":16576:16594   */\n      0x24\n      dup3\n      add\n        /* \"#utility.yul\":16569:16599   */\n      mstore\n        /* \"#utility.yul\":16635:16669   */\n      0x537472696e67733a20686578206c656e67746820696e73756666696369656e74\n        /* \"#utility.yul\":16615:16633   */\n      0x44\n      dup3\n      add\n        /* \"#utility.yul\":16608:16670   */\n      mstore\n        /* \"#utility.yul\":16687:16705   */\n      0x64\n      add\n        /* \"@openzeppelin/contracts/utils/Strings.sol\":2000:2055   */\n      tag_191\n        /* \"#utility.yul\":16355:16711   */\n      jump\n        /* \"@openzeppelin/contracts/token/ERC721/ERC721.sol\":8237:8546   */\n    tag_354:\n        /* \"@openzeppelin/contracts/token/ERC721/ERC721.sol\":8361:8379   */\n      tag_427\n        /* \"@openzeppelin/contracts/token/ERC721/ERC721.sol\":8367:8369   */\n      dup4\n        /* \"@openzeppelin/contracts/token/ERC721/ERC721.sol\":8371:8378   */\n      dup4\n        /* \"@openzeppelin/contracts/token/ERC721/ERC721.sol\":8361:8366   */\n      tag_428\n        /* \"@openzeppelin/contracts/token/ERC721/ERC721.sol\":8361:8379   */\n      jump\t// in\n    tag_427:\n        /* \"@openzeppelin/contracts/token/ERC721/ERC721.sol\":8410:8463   */\n      tag_429\n        /* \"@openzeppelin/contracts/token/ERC721/ERC721.sol\":8441:8442   */\n      0x00\n        /* \"@openzeppelin/contracts/token/ERC721/ERC721.sol\":8445:8447   */\n      dup5\n        /* \"@openzeppelin/contracts/token/ERC721/ERC721.sol\":8449:8456   */\n      dup5\n        /* \"@openzeppelin/contracts/token/ERC721/ERC721.sol\":8458:8462   */\n      dup5\n        /* \"@openzeppelin/contracts/token/ERC721/ERC721.sol\":8410:8432   */\n      tag_375\n        /* \"@openzeppelin/contracts/token/ERC721/ERC721.sol\":8410:8463   */\n      jump\t// in\n    tag_429:\n        /* \"@openzeppelin/contracts/token/ERC721/ERC721.sol\":8389:8539   */\n      tag_201\n      jumpi\n      mload(0x40)\n      shl(0xe5, 0x461bcd)\n      dup2\n      mstore\n        /* \"#utility.yul\":15623:15625   */\n      0x20\n        /* \"@openzeppelin/contracts/token/ERC721/ERC721.sol\":8389:8539   */\n      0x04\n      dup3\n      add\n        /* \"#utility.yul\":15605:15626   */\n      mstore\n        /* \"#utility.yul\":15662:15664   */\n      0x32\n        /* \"#utility.yul\":15642:15660   */\n      0x24\n      dup3\n      add\n        /* \"#utility.yul\":15635:15665   */\n      mstore\n        /* \"#utility.yul\":15701:15735   */\n      0x4552433732313a207472616e7366657220746f206e6f6e204552433732315265\n        /* \"#utility.yul\":15681:15699   */\n      0x44\n      dup3\n      add\n        /* \"#utility.yul\":15674:15736   */\n      mstore\n      shl(0x71, 0x31b2b4bb32b91034b6b83632b6b2b73a32b9)\n        /* \"#utility.yul\":15752:15770   */\n      0x64\n      dup3\n      add\n        /* \"#utility.yul\":15745:15793   */\n      mstore\n        /* \"#utility.yul\":15810:15829   */\n      0x84\n      add\n        /* \"@openzeppelin/contracts/token/ERC721/ERC721.sol\":8389:8539   */\n      tag_191\n        /* \"#utility.yul\":15421:15835   */\n      jump\n        /* \"@openzeppelin/contracts/token/ERC20/utils/SafeERC20.sol\":3747:4453   */\n    tag_366:\n        /* \"@openzeppelin/contracts/token/ERC20/utils/SafeERC20.sol\":4166:4189   */\n      0x00\n        /* \"@openzeppelin/contracts/token/ERC20/utils/SafeERC20.sol\":4192:4261   */\n      tag_433\n        /* \"@openzeppelin/contracts/token/ERC20/utils/SafeERC20.sol\":4220:4224   */\n      dup3\n        /* \"@openzeppelin/contracts/token/ERC20/utils/SafeERC20.sol\":4192:4261   */\n      mload(0x40)\n      dup1\n      0x40\n      add\n      0x40\n      mstore\n      dup1\n      0x20\n      dup2\n      mstore\n      0x20\n      add\n      0x5361666545524332303a206c6f772d6c6576656c2063616c6c206661696c6564\n      dup2\n      mstore\n      pop\n        /* \"@openzeppelin/contracts/token/ERC20/utils/SafeERC20.sol\":4200:4205   */\n      dup6\n      sub(shl(0xa0, 0x01), 0x01)\n        /* \"@openzeppelin/contracts/token/ERC20/utils/SafeERC20.sol\":4192:4219   */\n      and\n      tag_434\n      swap1\n        /* \"@openzeppelin/contracts/token/ERC20/utils/SafeERC20.sol\":4192:4261   */\n      swap3\n      swap2\n      swap1\n      0xffffffff\n      and\n      jump\t// in\n    tag_433:\n        /* \"@openzeppelin/contracts/token/ERC20/utils/SafeERC20.sol\":4275:4292   */\n      dup1\n      mload\n        /* \"@openzeppelin/contracts/token/ERC20/utils/SafeERC20.sol\":4166:4261   */\n      swap1\n      swap2\n      pop\n        /* \"@openzeppelin/contracts/token/ERC20/utils/SafeERC20.sol\":4275:4296   */\n      iszero\n        /* \"@openzeppelin/contracts/token/ERC20/utils/SafeERC20.sol\":4271:4447   */\n      tag_201\n      jumpi\n        /* \"@openzeppelin/contracts/token/ERC20/utils/SafeERC20.sol\":4370:4380   */\n      dup1\n        /* \"@openzeppelin/contracts/token/ERC20/utils/SafeERC20.sol\":4359:4389   */\n      dup1\n      0x20\n      add\n      swap1\n      mload\n      dup2\n      add\n      swap1\n      tag_436\n      swap2\n      swap1\n      tag_437\n      jump\t// in\n    tag_436:\n        /* \"@openzeppelin/contracts/token/ERC20/utils/SafeERC20.sol\":4351:4436   */\n      tag_201\n      jumpi\n      mload(0x40)\n      shl(0xe5, 0x461bcd)\n      dup2\n      mstore\n        /* \"#utility.yul\":17168:17170   */\n      0x20\n        /* \"@openzeppelin/contracts/token/ERC20/utils/SafeERC20.sol\":4351:4436   */\n      0x04\n      dup3\n      add\n        /* \"#utility.yul\":17150:17171   */\n      mstore\n        /* \"#utility.yul\":17207:17209   */\n      0x2a\n        /* \"#utility.yul\":17187:17205   */\n      0x24\n      dup3\n      add\n        /* \"#utility.yul\":17180:17210   */\n      mstore\n        /* \"#utility.yul\":17246:17280   */\n      0x5361666545524332303a204552433230206f7065726174696f6e20646964206e\n        /* \"#utility.yul\":17226:17244   */\n      0x44\n      dup3\n      add\n        /* \"#utility.yul\":17219:17281   */\n      mstore\n        /* \"#utility.yul\":17317:17329   */\n      0x6f74207375636365656400000000000000000000000000000000000000000000\n        /* \"#utility.yul\":17297:17315   */\n      0x64\n      dup3\n      add\n        /* \"#utility.yul\":17290:17330   */\n      mstore\n        /* \"#utility.yul\":17347:17366   */\n      0x84\n      add\n        /* \"@openzeppelin/contracts/token/ERC20/utils/SafeERC20.sol\":4351:4436   */\n      tag_191\n        /* \"#utility.yul\":16966:17372   */\n      jump\n        /* \"@openzeppelin/contracts/token/ERC721/ERC721.sol\":12342:13173   */\n    tag_375:\n        /* \"@openzeppelin/contracts/token/ERC721/ERC721.sol\":12491:12495   */\n      0x00\n      sub(shl(0xa0, 0x01), 0x01)\n        /* \"@openzeppelin/contracts/token/ERC721/ERC721.sol\":12511:12524   */\n      dup5\n      and\n        /* \"@openzeppelin/contracts/utils/Address.sol\":1465:1484   */\n      extcodesize\n        /* \"@openzeppelin/contracts/utils/Address.sol\":1465:1488   */\n      iszero\n        /* \"@openzeppelin/contracts/token/ERC721/ERC721.sol\":12507:13167   */\n      tag_444\n      jumpi\n        /* \"@openzeppelin/contracts/token/ERC721/ERC721.sol\":12546:12617   */\n      mload(0x40)\n      shl(0xe1, 0x0a85bd01)\n      dup2\n      mstore\n      sub(shl(0xa0, 0x01), 0x01)\n        /* \"@openzeppelin/contracts/token/ERC721/ERC721.sol\":12546:12582   */\n      dup6\n      and\n      swap1\n      0x150b7a02\n      swap1\n        /* \"@openzeppelin/contracts/token/ERC721/ERC721.sol\":12546:12617   */\n      tag_446\n      swap1\n        /* \"@openzeppelin/contracts/utils/Context.sol\":719:729   */\n      caller\n      swap1\n        /* \"@openzeppelin/contracts/token/ERC721/ERC721.sol\":12597:12601   */\n      dup10\n      swap1\n        /* \"@openzeppelin/contracts/token/ERC721/ERC721.sol\":12603:12610   */\n      dup9\n      swap1\n        /* \"@openzeppelin/contracts/token/ERC721/ERC721.sol\":12612:12616   */\n      dup9\n      swap1\n        /* \"@openzeppelin/contracts/token/ERC721/ERC721.sol\":12546:12617   */\n      0x04\n      add\n      tag_447\n      jump\t// in\n    tag_446:\n      0x20\n      mload(0x40)\n      dup1\n      dup4\n      sub\n      dup2\n      0x00\n      dup8\n      gas\n      call\n      swap3\n      pop\n      pop\n      pop\n      dup1\n      iszero\n      tag_448\n      jumpi\n      pop\n      0x40\n      dup1\n      mload\n      0x1f\n      returndatasize\n      swap1\n      dup2\n      add\n      not(0x1f)\n      and\n      dup3\n      add\n      swap1\n      swap3\n      mstore\n      tag_449\n      swap2\n      dup2\n      add\n      swap1\n      tag_450\n      jump\t// in\n    tag_449:\n      0x01\n    tag_448:\n        /* \"@openzeppelin/contracts/token/ERC721/ERC721.sol\":12542:13115   */\n      tag_451\n      jumpi\n      returndatasize\n      dup1\n      dup1\n      iszero\n      tag_456\n      jumpi\n      mload(0x40)\n      swap2\n      pop\n      and(add(returndatasize, 0x3f), not(0x1f))\n      dup3\n      add\n      0x40\n      mstore\n      returndatasize\n      dup3\n      mstore\n      returndatasize\n      0x00\n      0x20\n      dup5\n      add\n      returndatacopy\n      jump(tag_455)\n    tag_456:\n      0x60\n      swap2\n      pop\n    tag_455:\n      pop\n        /* \"@openzeppelin/contracts/token/ERC721/ERC721.sol\":12784:12790   */\n      dup1\n        /* \"@openzeppelin/contracts/token/ERC721/ERC721.sol\":12784:12797   */\n      mload\n        /* \"@openzeppelin/contracts/token/ERC721/ERC721.sol\":12801:12802   */\n      0x00\n        /* \"@openzeppelin/contracts/token/ERC721/ERC721.sol\":12784:12802   */\n      sub\n        /* \"@openzeppelin/contracts/token/ERC721/ERC721.sol\":12780:13101   */\n      tag_457\n      jumpi\n        /* \"@openzeppelin/contracts/token/ERC721/ERC721.sol\":12826:12886   */\n      mload(0x40)\n      shl(0xe5, 0x461bcd)\n      dup2\n      mstore\n        /* \"#utility.yul\":15623:15625   */\n      0x20\n        /* \"@openzeppelin/contracts/token/ERC721/ERC721.sol\":12826:12886   */\n      0x04\n      dup3\n      add\n        /* \"#utility.yul\":15605:15626   */\n      mstore\n        /* \"#utility.yul\":15662:15664   */\n      0x32\n        /* \"#utility.yul\":15642:15660   */\n      0x24\n      dup3\n      add\n        /* \"#utility.yul\":15635:15665   */\n      mstore\n        /* \"#utility.yul\":15701:15735   */\n      0x4552433732313a207472616e7366657220746f206e6f6e204552433732315265\n        /* \"#utility.yul\":15681:15699   */\n      0x44\n      dup3\n      add\n        /* \"#utility.yul\":15674:15736   */\n      mstore\n      shl(0x71, 0x31b2b4bb32b91034b6b83632b6b2b73a32b9)\n        /* \"#utility.yul\":15752:15770   */\n      0x64\n      dup3\n      add\n        /* \"#utility.yul\":15745:15793   */\n      mstore\n        /* \"#utility.yul\":15810:15829   */\n      0x84\n      add\n        /* \"@openzeppelin/contracts/token/ERC721/ERC721.sol\":12826:12886   */\n      tag_191\n        /* \"#utility.yul\":15421:15835   */\n      jump\n        /* \"@openzeppelin/contracts/token/ERC721/ERC721.sol\":12780:13101   */\n    tag_457:\n        /* \"@openzeppelin/contracts/token/ERC721/ERC721.sol\":13053:13059   */\n      dup1\n        /* \"@openzeppelin/contracts/token/ERC721/ERC721.sol\":13047:13060   */\n      mload\n        /* \"@openzeppelin/contracts/token/ERC721/ERC721.sol\":13038:13044   */\n      dup2\n        /* \"@openzeppelin/contracts/token/ERC721/ERC721.sol\":13034:13036   */\n      0x20\n        /* \"@openzeppelin/contracts/token/ERC721/ERC721.sol\":13030:13045   */\n      add\n        /* \"@openzeppelin/contracts/token/ERC721/ERC721.sol\":13023:13061   */\n      revert\n        /* \"@openzeppelin/contracts/token/ERC721/ERC721.sol\":12542:13115   */\n    tag_451:\n      not(sub(shl(0xe0, 0x01), 0x01))\n        /* \"@openzeppelin/contracts/token/ERC721/ERC721.sol\":12667:12718   */\n      and\n      shl(0xe1, 0x0a85bd01)\n      eq\n      swap1\n      pop\n        /* \"@openzeppelin/contracts/token/ERC721/ERC721.sol\":12660:12718   */\n      jump(tag_329)\n        /* \"@openzeppelin/contracts/token/ERC721/ERC721.sol\":12507:13167   */\n    tag_444:\n      pop\n        /* \"@openzeppelin/contracts/token/ERC721/ERC721.sol\":13152:13156   */\n      0x01\n        /* \"@openzeppelin/contracts/token/ERC721/ERC721.sol\":12342:13173   */\n      swap5\n      swap4\n      pop\n      pop\n      pop\n      pop\n      jump\t// out\n        /* \"@openzeppelin/contracts/token/ERC721/ERC721.sol\":8868:9295   */\n    tag_428:\n      sub(shl(0xa0, 0x01), 0x01)\n        /* \"@openzeppelin/contracts/token/ERC721/ERC721.sol\":8947:8963   */\n      dup3\n      and\n        /* \"@openzeppelin/contracts/token/ERC721/ERC721.sol\":8939:9000   */\n      tag_463\n      jumpi\n      mload(0x40)\n      shl(0xe5, 0x461bcd)\n      dup2\n      mstore\n        /* \"#utility.yul\":18350:18352   */\n      0x20\n        /* \"@openzeppelin/contracts/token/ERC721/ERC721.sol\":8939:9000   */\n      0x04\n      dup3\n      add\n        /* \"#utility.yul\":18332:18353   */\n      dup2\n      swap1\n      mstore\n        /* \"#utility.yul\":18369:18387   */\n      0x24\n      dup3\n      add\n        /* \"#utility.yul\":18362:18392   */\n      mstore\n        /* \"#utility.yul\":18428:18462   */\n      0x4552433732313a206d696e7420746f20746865207a65726f2061646472657373\n        /* \"#utility.yul\":18408:18426   */\n      0x44\n      dup3\n      add\n        /* \"#utility.yul\":18401:18463   */\n      mstore\n        /* \"#utility.yul\":18480:18498   */\n      0x64\n      add\n        /* \"@openzeppelin/contracts/token/ERC721/ERC721.sol\":8939:9000   */\n      tag_191\n        /* \"#utility.yul\":18148:18504   */\n      jump\n        /* \"@openzeppelin/contracts/token/ERC721/ERC721.sol\":8939:9000   */\n    tag_463:\n        /* \"@openzeppelin/contracts/token/ERC721/ERC721.sol\":7099:7103   */\n      0x00\n        /* \"@openzeppelin/contracts/token/ERC721/ERC721.sol\":7122:7138   */\n      dup2\n      dup2\n      mstore\n        /* \"@openzeppelin/contracts/token/ERC721/ERC721.sol\":7122:7129   */\n      0x02\n        /* \"@openzeppelin/contracts/token/ERC721/ERC721.sol\":7122:7138   */\n      0x20\n      mstore\n      0x40\n      swap1\n      keccak256\n      sload\n      sub(shl(0xa0, 0x01), 0x01)\n      and\n        /* \"@openzeppelin/contracts/token/ERC721/ERC721.sol\":7122:7152   */\n      iszero\n        /* \"@openzeppelin/contracts/token/ERC721/ERC721.sol\":9010:9068   */\n      tag_467\n      jumpi\n      mload(0x40)\n      shl(0xe5, 0x461bcd)\n      dup2\n      mstore\n        /* \"#utility.yul\":18711:18713   */\n      0x20\n        /* \"@openzeppelin/contracts/token/ERC721/ERC721.sol\":9010:9068   */\n      0x04\n      dup3\n      add\n        /* \"#utility.yul\":18693:18714   */\n      mstore\n        /* \"#utility.yul\":18750:18752   */\n      0x1c\n        /* \"#utility.yul\":18730:18748   */\n      0x24\n      dup3\n      add\n        /* \"#utility.yul\":18723:18753   */\n      mstore\n        /* \"#utility.yul\":18789:18819   */\n      0x4552433732313a20746f6b656e20616c7265616479206d696e74656400000000\n        /* \"#utility.yul\":18769:18787   */\n      0x44\n      dup3\n      add\n        /* \"#utility.yul\":18762:18820   */\n      mstore\n        /* \"#utility.yul\":18837:18855   */\n      0x64\n      add\n        /* \"@openzeppelin/contracts/token/ERC721/ERC721.sol\":9010:9068   */\n      tag_191\n        /* \"#utility.yul\":18509:18861   */\n      jump\n        /* \"@openzeppelin/contracts/token/ERC721/ERC721.sol\":9010:9068   */\n    tag_467:\n      sub(shl(0xa0, 0x01), 0x01)\n        /* \"@openzeppelin/contracts/token/ERC721/ERC721.sol\":9135:9148   */\n      dup3\n      and\n      0x00\n      swap1\n      dup2\n      mstore\n        /* \"@openzeppelin/contracts/token/ERC721/ERC721.sol\":9135:9144   */\n      0x03\n        /* \"@openzeppelin/contracts/token/ERC721/ERC721.sol\":9135:9148   */\n      0x20\n      mstore\n      0x40\n      dup2\n      keccak256\n        /* \"@openzeppelin/contracts/token/ERC721/ERC721.sol\":9135:9153   */\n      dup1\n      sload\n        /* \"@openzeppelin/contracts/token/ERC721/ERC721.sol\":9152:9153   */\n      0x01\n      swap3\n        /* \"@openzeppelin/contracts/token/ERC721/ERC721.sol\":9135:9148   */\n      swap1\n        /* \"@openzeppelin/contracts/token/ERC721/ERC721.sol\":9135:9153   */\n      tag_471\n      swap1\n        /* \"@openzeppelin/contracts/token/ERC721/ERC721.sol\":9152:9153   */\n      dup5\n      swap1\n        /* \"@openzeppelin/contracts/token/ERC721/ERC721.sol\":9135:9153   */\n      tag_262\n      jump\t// in\n    tag_471:\n      swap1\n      swap2\n      sstore\n      pop\n      pop\n        /* \"@openzeppelin/contracts/token/ERC721/ERC721.sol\":9163:9179   */\n      0x00\n      dup2\n      dup2\n      mstore\n        /* \"@openzeppelin/contracts/token/ERC721/ERC721.sol\":9163:9170   */\n      0x02\n        /* \"@openzeppelin/contracts/token/ERC721/ERC721.sol\":9163:9179   */\n      0x20\n      mstore\n      0x40\n      dup1\n      dup3\n      keccak256\n        /* \"@openzeppelin/contracts/token/ERC721/ERC721.sol\":9163:9184   */\n      dup1\n      sload\n      not(sub(shl(0xa0, 0x01), 0x01))\n      and\n      sub(shl(0xa0, 0x01), 0x01)\n      dup7\n      and\n      swap1\n      dup2\n      or\n      swap1\n      swap2\n      sstore\n        /* \"@openzeppelin/contracts/token/ERC721/ERC721.sol\":9200:9233   */\n      swap1\n      mload\n        /* \"@openzeppelin/contracts/token/ERC721/ERC721.sol\":9163:9179   */\n      dup4\n      swap3\n      swap1\n        /* \"@openzeppelin/contracts/token/ERC721/ERC721.sol\":9200:9233   */\n      0xddf252ad1be2c89b69c2b068fc378daa952ba7f163c4a11628f55a4df523b3ef\n      swap1\n        /* \"@openzeppelin/contracts/token/ERC721/ERC721.sol\":9163:9179   */\n      dup3\n      swap1\n        /* \"@openzeppelin/contracts/token/ERC721/ERC721.sol\":9200:9233   */\n      log4\n        /* \"@openzeppelin/contracts/token/ERC721/ERC721.sol\":4169:4322   */\n      pop\n      pop\n      jump\t// out\n        /* \"@openzeppelin/contracts/utils/Address.sol\":3861:4084   */\n    tag_434:\n        /* \"@openzeppelin/contracts/utils/Address.sol\":3994:4006   */\n      0x60\n        /* \"@openzeppelin/contracts/utils/Address.sol\":4025:4077   */\n      tag_329\n        /* \"@openzeppelin/contracts/utils/Address.sol\":4047:4053   */\n      dup5\n        /* \"@openzeppelin/contracts/utils/Address.sol\":4055:4059   */\n      dup5\n        /* \"@openzeppelin/contracts/utils/Address.sol\":4061:4062   */\n      0x00\n        /* \"@openzeppelin/contracts/utils/Address.sol\":4064:4076   */\n      dup6\n        /* \"@openzeppelin/contracts/utils/Address.sol\":3994:4006   */\n      dup6\n      sub(shl(0xa0, 0x01), 0x01)\n        /* \"@openzeppelin/contracts/utils/Address.sol\":1465:1484   */\n      dup6\n      and\n      extcodesize\n        /* \"@openzeppelin/contracts/utils/Address.sol\":5228:5288   */\n      tag_482\n      jumpi\n      mload(0x40)\n      shl(0xe5, 0x461bcd)\n      dup2\n      mstore\n        /* \"#utility.yul\":19475:19477   */\n      0x20\n        /* \"@openzeppelin/contracts/utils/Address.sol\":5228:5288   */\n      0x04\n      dup3\n      add\n        /* \"#utility.yul\":19457:19478   */\n      mstore\n        /* \"#utility.yul\":19514:19516   */\n      0x1d\n        /* \"#utility.yul\":19494:19512   */\n      0x24\n      dup3\n      add\n        /* \"#utility.yul\":19487:19517   */\n      mstore\n        /* \"#utility.yul\":19553:19584   */\n      0x416464726573733a2063616c6c20746f206e6f6e2d636f6e7472616374000000\n        /* \"#utility.yul\":19533:19551   */\n      0x44\n      dup3\n      add\n        /* \"#utility.yul\":19526:19585   */\n      mstore\n        /* \"#utility.yul\":19602:19620   */\n      0x64\n      add\n        /* \"@openzeppelin/contracts/utils/Address.sol\":5228:5288   */\n      tag_191\n        /* \"#utility.yul\":19273:19626   */\n      jump\n        /* \"@openzeppelin/contracts/utils/Address.sol\":5228:5288   */\n    tag_482:\n        /* \"@openzeppelin/contracts/utils/Address.sol\":5300:5312   */\n      0x00\n        /* \"@openzeppelin/contracts/utils/Address.sol\":5314:5337   */\n      dup1\n        /* \"@openzeppelin/contracts/utils/Address.sol\":5341:5347   */\n      dup7\n      sub(shl(0xa0, 0x01), 0x01)\n        /* \"@openzeppelin/contracts/utils/Address.sol\":5341:5352   */\n      and\n        /* \"@openzeppelin/contracts/utils/Address.sol\":5360:5365   */\n      dup6\n        /* \"@openzeppelin/contracts/utils/Address.sol\":5367:5371   */\n      dup8\n        /* \"@openzeppelin/contracts/utils/Address.sol\":5341:5372   */\n      mload(0x40)\n      tag_485\n      swap2\n      swap1\n      tag_486\n      jump\t// in\n    tag_485:\n      0x00\n      mload(0x40)\n      dup1\n      dup4\n      sub\n      dup2\n      dup6\n      dup8\n      gas\n      call\n      swap3\n      pop\n      pop\n      pop\n      returndatasize\n      dup1\n      0x00\n      dup2\n      eq\n      tag_489\n      jumpi\n      mload(0x40)\n      swap2\n      pop\n      and(add(returndatasize, 0x3f), not(0x1f))\n      dup3\n      add\n      0x40\n      mstore\n      returndatasize\n      dup3\n      mstore\n      returndatasize\n      0x00\n      0x20\n      dup5\n      add\n      returndatacopy\n      jump(tag_488)\n    tag_489:\n      0x60\n      swap2\n      pop\n    tag_488:\n      pop\n        /* \"@openzeppelin/contracts/utils/Address.sol\":5299:5372   */\n      swap2\n      pop\n      swap2\n      pop\n        /* \"@openzeppelin/contracts/utils/Address.sol\":5389:5440   */\n      tag_490\n        /* \"@openzeppelin/contracts/utils/Address.sol\":5406:5413   */\n      dup3\n        /* \"@openzeppelin/contracts/utils/Address.sol\":5415:5425   */\n      dup3\n        /* \"@openzeppelin/contracts/utils/Address.sol\":5427:5439   */\n      dup7\n        /* \"@openzeppelin/contracts/utils/Address.sol\":5389:5405   */\n      tag_491\n        /* \"@openzeppelin/contracts/utils/Address.sol\":5389:5440   */\n      jump\t// in\n    tag_490:\n        /* \"@openzeppelin/contracts/utils/Address.sol\":5382:5440   */\n      swap8\n        /* \"@openzeppelin/contracts/utils/Address.sol\":4948:5447   */\n      swap7\n      pop\n      pop\n      pop\n      pop\n      pop\n      pop\n      pop\n      jump\t// out\n        /* \"@openzeppelin/contracts/utils/Address.sol\":7561:8303   */\n    tag_491:\n        /* \"@openzeppelin/contracts/utils/Address.sol\":7707:7719   */\n      0x60\n        /* \"@openzeppelin/contracts/utils/Address.sol\":7735:7742   */\n      dup4\n        /* \"@openzeppelin/contracts/utils/Address.sol\":7731:8297   */\n      iszero\n      tag_493\n      jumpi\n      pop\n        /* \"@openzeppelin/contracts/utils/Address.sol\":7765:7775   */\n      dup2\n        /* \"@openzeppelin/contracts/utils/Address.sol\":7758:7775   */\n      jump(tag_297)\n        /* \"@openzeppelin/contracts/utils/Address.sol\":7731:8297   */\n    tag_493:\n        /* \"@openzeppelin/contracts/utils/Address.sol\":7876:7893   */\n      dup3\n      mload\n        /* \"@openzeppelin/contracts/utils/Address.sol\":7876:7897   */\n      iszero\n        /* \"@openzeppelin/contracts/utils/Address.sol\":7872:8287   */\n      tag_495\n      jumpi\n        /* \"@openzeppelin/contracts/utils/Address.sol\":8120:8130   */\n      dup3\n        /* \"@openzeppelin/contracts/utils/Address.sol\":8114:8131   */\n      mload\n        /* \"@openzeppelin/contracts/utils/Address.sol\":8180:8195   */\n      dup1\n        /* \"@openzeppelin/contracts/utils/Address.sol\":8167:8177   */\n      dup5\n        /* \"@openzeppelin/contracts/utils/Address.sol\":8163:8165   */\n      0x20\n        /* \"@openzeppelin/contracts/utils/Address.sol\":8159:8178   */\n      add\n        /* \"@openzeppelin/contracts/utils/Address.sol\":8152:8196   */\n      revert\n        /* \"@openzeppelin/contracts/utils/Address.sol\":7872:8287   */\n    tag_495:\n        /* \"@openzeppelin/contracts/utils/Address.sol\":8259:8271   */\n      dup2\n        /* \"@openzeppelin/contracts/utils/Address.sol\":8252:8272   */\n      mload(0x40)\n      shl(0xe5, 0x461bcd)\n      dup2\n      mstore\n      0x04\n      add\n      tag_191\n      swap2\n      swap1\n      tag_43\n      jump\t// in\n    tag_225:\n      dup3\n      dup1\n      sload\n      tag_498\n      swap1\n      tag_151\n      jump\t// in\n    tag_498:\n      swap1\n      0x00\n      mstore\n      keccak256(0x00, 0x20)\n      swap1\n      0x1f\n      add\n      0x20\n      swap1\n      div\n      dup2\n      add\n      swap3\n      dup3\n      tag_500\n      jumpi\n      0x00\n      dup6\n      sstore\n      jump(tag_503)\n    tag_500:\n      dup3\n      0x1f\n      lt\n      tag_501\n      jumpi\n      dup1\n      mload\n      not(0xff)\n      and\n      dup4\n      dup1\n      add\n      or\n      dup6\n      sstore\n      jump(tag_503)\n    tag_501:\n      dup3\n      dup1\n      add\n      0x01\n      add\n      dup6\n      sstore\n      dup3\n      iszero\n      tag_503\n      jumpi\n      swap2\n      dup3\n      add\n    tag_502:\n      dup3\n      dup2\n      gt\n      iszero\n      tag_503\n      jumpi\n      dup3\n      mload\n      dup3\n      sstore\n      swap2\n      0x20\n      add\n      swap2\n      swap1\n      0x01\n      add\n      swap1\n      jump(tag_502)\n    tag_503:\n      pop\n      tag_504\n      swap3\n      swap2\n      pop\n      tag_505\n      jump\t// in\n    tag_504:\n      pop\n      swap1\n      jump\t// out\n    tag_227:\n      dup3\n      dup1\n      sload\n      dup3\n      dup3\n      sstore\n      swap1\n      0x00\n      mstore\n      keccak256(0x00, 0x20)\n      swap1\n      dup2\n      add\n      swap3\n      dup3\n      iszero\n      tag_503\n      jumpi\n      swap2\n      0x20\n      mul\n      dup3\n      add\n    tag_507:\n      dup3\n      dup2\n      gt\n      iszero\n      tag_503\n      jumpi\n      dup3\n      mload\n      dup3\n      swap1\n      0xff\n      and\n      swap1\n      sstore\n      swap2\n      0x20\n      add\n      swap2\n      swap1\n      0x01\n      add\n      swap1\n      jump(tag_507)\n    tag_505:\n    tag_510:\n      dup1\n      dup3\n      gt\n      iszero\n      tag_504\n      jumpi\n      0x00\n      dup2\n      sstore\n      0x01\n      add\n      jump(tag_510)\n        /* \"#utility.yul\":14:194   */\n    tag_40:\n        /* \"#utility.yul\":73:79   */\n      0x00\n        /* \"#utility.yul\":126:128   */\n      0x20\n        /* \"#utility.yul\":114:123   */\n      dup3\n        /* \"#utility.yul\":105:112   */\n      dup5\n        /* \"#utility.yul\":101:124   */\n      sub\n        /* \"#utility.yul\":97:129   */\n      slt\n        /* \"#utility.yul\":94:146   */\n      iszero\n      tag_525\n      jumpi\n        /* \"#utility.yul\":142:143   */\n      0x00\n        /* \"#utility.yul\":139:140   */\n      dup1\n        /* \"#utility.yul\":132:144   */\n      revert\n        /* \"#utility.yul\":94:146   */\n    tag_525:\n      pop\n        /* \"#utility.yul\":165:188   */\n      calldataload\n      swap2\n        /* \"#utility.yul\":14:194   */\n      swap1\n      pop\n      jump\t// out\n        /* \"#utility.yul\":199:457   */\n    tag_512:\n        /* \"#utility.yul\":271:272   */\n      0x00\n        /* \"#utility.yul\":281:394   */\n    tag_527:\n        /* \"#utility.yul\":295:301   */\n      dup4\n        /* \"#utility.yul\":292:293   */\n      dup2\n        /* \"#utility.yul\":289:302   */\n      lt\n        /* \"#utility.yul\":281:394   */\n      iszero\n      tag_529\n      jumpi\n        /* \"#utility.yul\":371:382   */\n      dup2\n      dup2\n      add\n        /* \"#utility.yul\":365:383   */\n      mload\n        /* \"#utility.yul\":352:363   */\n      dup4\n      dup3\n      add\n        /* \"#utility.yul\":345:384   */\n      mstore\n        /* \"#utility.yul\":317:319   */\n      0x20\n        /* \"#utility.yul\":310:320   */\n      add\n        /* \"#utility.yul\":281:394   */\n      jump(tag_527)\n    tag_529:\n        /* \"#utility.yul\":412:418   */\n      dup4\n        /* \"#utility.yul\":409:410   */\n      dup2\n        /* \"#utility.yul\":406:419   */\n      gt\n        /* \"#utility.yul\":403:451   */\n      iszero\n      tag_287\n      jumpi\n      pop\n      pop\n        /* \"#utility.yul\":447:448   */\n      0x00\n        /* \"#utility.yul\":429:445   */\n      swap2\n      add\n        /* \"#utility.yul\":422:449   */\n      mstore\n        /* \"#utility.yul\":199:457   */\n      jump\t// out\n        /* \"#utility.yul\":462:720   */\n    tag_513:\n        /* \"#utility.yul\":504:507   */\n      0x00\n        /* \"#utility.yul\":542:547   */\n      dup2\n        /* \"#utility.yul\":536:548   */\n      mload\n        /* \"#utility.yul\":569:575   */\n      dup1\n        /* \"#utility.yul\":564:567   */\n      dup5\n        /* \"#utility.yul\":557:576   */\n      mstore\n        /* \"#utility.yul\":585:648   */\n      tag_532\n        /* \"#utility.yul\":641:647   */\n      dup2\n        /* \"#utility.yul\":634:638   */\n      0x20\n        /* \"#utility.yul\":629:632   */\n      dup7\n        /* \"#utility.yul\":625:639   */\n      add\n        /* \"#utility.yul\":618:622   */\n      0x20\n        /* \"#utility.yul\":611:616   */\n      dup7\n        /* \"#utility.yul\":607:623   */\n      add\n        /* \"#utility.yul\":585:648   */\n      tag_512\n      jump\t// in\n    tag_532:\n        /* \"#utility.yul\":702:704   */\n      0x1f\n        /* \"#utility.yul\":681:696   */\n      add\n      not(0x1f)\n        /* \"#utility.yul\":677:706   */\n      and\n        /* \"#utility.yul\":668:707   */\n      swap3\n      swap1\n      swap3\n      add\n        /* \"#utility.yul\":709:713   */\n      0x20\n        /* \"#utility.yul\":664:714   */\n      add\n      swap3\n        /* \"#utility.yul\":462:720   */\n      swap2\n      pop\n      pop\n      jump\t// out\n        /* \"#utility.yul\":725:945   */\n    tag_43:\n        /* \"#utility.yul\":874:876   */\n      0x20\n        /* \"#utility.yul\":863:872   */\n      dup2\n        /* \"#utility.yul\":856:877   */\n      mstore\n        /* \"#utility.yul\":837:841   */\n      0x00\n        /* \"#utility.yul\":894:939   */\n      tag_297\n        /* \"#utility.yul\":935:937   */\n      0x20\n        /* \"#utility.yul\":924:933   */\n      dup4\n        /* \"#utility.yul\":920:938   */\n      add\n        /* \"#utility.yul\":912:918   */\n      dup5\n        /* \"#utility.yul\":894:939   */\n      tag_513\n      jump\t// in\n        /* \"#utility.yul\":950:1081   */\n    tag_514:\n      not(sub(shl(0xe0, 0x01), 0x01))\n        /* \"#utility.yul\":1024:1056   */\n      dup2\n      and\n        /* \"#utility.yul\":1014:1057   */\n      dup2\n      eq\n        /* \"#utility.yul\":1004:1075   */\n      tag_315\n      jumpi\n        /* \"#utility.yul\":1071:1072   */\n      0x00\n        /* \"#utility.yul\":1068:1069   */\n      dup1\n        /* \"#utility.yul\":1061:1073   */\n      revert\n        /* \"#utility.yul\":1086:1331   */\n    tag_46:\n        /* \"#utility.yul\":1144:1150   */\n      0x00\n        /* \"#utility.yul\":1197:1199   */\n      0x20\n        /* \"#utility.yul\":1185:1194   */\n      dup3\n        /* \"#utility.yul\":1176:1183   */\n      dup5\n        /* \"#utility.yul\":1172:1195   */\n      sub\n        /* \"#utility.yul\":1168:1200   */\n      slt\n        /* \"#utility.yul\":1165:1217   */\n      iszero\n      tag_538\n      jumpi\n        /* \"#utility.yul\":1213:1214   */\n      0x00\n        /* \"#utility.yul\":1210:1211   */\n      dup1\n        /* \"#utility.yul\":1203:1215   */\n      revert\n        /* \"#utility.yul\":1165:1217   */\n    tag_538:\n        /* \"#utility.yul\":1252:1261   */\n      dup2\n        /* \"#utility.yul\":1239:1262   */\n      calldataload\n        /* \"#utility.yul\":1271:1301   */\n      tag_297\n        /* \"#utility.yul\":1295:1300   */\n      dup2\n        /* \"#utility.yul\":1271:1301   */\n      tag_514\n      jump\t// in\n        /* \"#utility.yul\":1759:1955   */\n    tag_515:\n        /* \"#utility.yul\":1827:1847   */\n      dup1\n      calldataload\n      sub(shl(0xa0, 0x01), 0x01)\n        /* \"#utility.yul\":1876:1930   */\n      dup2\n      and\n        /* \"#utility.yul\":1866:1931   */\n      dup2\n      eq\n        /* \"#utility.yul\":1856:1949   */\n      tag_543\n      jumpi\n        /* \"#utility.yul\":1945:1946   */\n      0x00\n        /* \"#utility.yul\":1942:1943   */\n      dup1\n        /* \"#utility.yul\":1935:1947   */\n      revert\n        /* \"#utility.yul\":1856:1949   */\n    tag_543:\n        /* \"#utility.yul\":1759:1955   */\n      swap2\n      swap1\n      pop\n      jump\t// out\n        /* \"#utility.yul\":1960:2146   */\n    tag_60:\n        /* \"#utility.yul\":2019:2025   */\n      0x00\n        /* \"#utility.yul\":2072:2074   */\n      0x20\n        /* \"#utility.yul\":2060:2069   */\n      dup3\n        /* \"#utility.yul\":2051:2058   */\n      dup5\n        /* \"#utility.yul\":2047:2070   */\n      sub\n        /* \"#utility.yul\":2043:2075   */\n      slt\n        /* \"#utility.yul\":2040:2092   */\n      iszero\n      tag_545\n      jumpi\n        /* \"#utility.yul\":2088:2089   */\n      0x00\n        /* \"#utility.yul\":2085:2086   */\n      dup1\n        /* \"#utility.yul\":2078:2090   */\n      revert\n        /* \"#utility.yul\":2040:2092   */\n    tag_545:\n        /* \"#utility.yul\":2111:2140   */\n      tag_297\n        /* \"#utility.yul\":2130:2139   */\n      dup3\n        /* \"#utility.yul\":2111:2140   */\n      tag_515\n      jump\t// in\n        /* \"#utility.yul\":2151:2783   */\n    tag_63:\n        /* \"#utility.yul\":2322:2324   */\n      0x20\n        /* \"#utility.yul\":2374:2395   */\n      dup1\n      dup3\n      mstore\n        /* \"#utility.yul\":2444:2457   */\n      dup3\n      mload\n        /* \"#utility.yul\":2347:2365   */\n      dup3\n      dup3\n      add\n        /* \"#utility.yul\":2466:2488   */\n      dup2\n      swap1\n      mstore\n        /* \"#utility.yul\":2293:2297   */\n      0x00\n      swap2\n        /* \"#utility.yul\":2322:2324   */\n      swap1\n        /* \"#utility.yul\":2545:2560   */\n      dup5\n      dup3\n      add\n      swap1\n        /* \"#utility.yul\":2519:2521   */\n      0x40\n        /* \"#utility.yul\":2504:2522   */\n      dup6\n      add\n      swap1\n        /* \"#utility.yul\":2293:2297   */\n      dup5\n        /* \"#utility.yul\":2588:2757   */\n    tag_548:\n        /* \"#utility.yul\":2602:2608   */\n      dup2\n        /* \"#utility.yul\":2599:2600   */\n      dup2\n        /* \"#utility.yul\":2596:2609   */\n      lt\n        /* \"#utility.yul\":2588:2757   */\n      iszero\n      tag_550\n      jumpi\n        /* \"#utility.yul\":2663:2676   */\n      dup4\n      mload\n        /* \"#utility.yul\":2651:2677   */\n      dup4\n      mstore\n        /* \"#utility.yul\":2732:2747   */\n      swap3\n      dup5\n      add\n      swap3\n        /* \"#utility.yul\":2697:2709   */\n      swap2\n      dup5\n      add\n      swap2\n        /* \"#utility.yul\":2624:2625   */\n      0x01\n        /* \"#utility.yul\":2617:2626   */\n      add\n        /* \"#utility.yul\":2588:2757   */\n      jump(tag_548)\n    tag_550:\n      pop\n        /* \"#utility.yul\":2774:2777   */\n      swap1\n      swap7\n        /* \"#utility.yul\":2151:2783   */\n      swap6\n      pop\n      pop\n      pop\n      pop\n      pop\n      pop\n      jump\t// out\n        /* \"#utility.yul\":2788:3042   */\n    tag_66:\n        /* \"#utility.yul\":2856:2862   */\n      0x00\n        /* \"#utility.yul\":2864:2870   */\n      dup1\n        /* \"#utility.yul\":2917:2919   */\n      0x40\n        /* \"#utility.yul\":2905:2914   */\n      dup4\n        /* \"#utility.yul\":2896:2903   */\n      dup6\n        /* \"#utility.yul\":2892:2915   */\n      sub\n        /* \"#utility.yul\":2888:2920   */\n      slt\n        /* \"#utility.yul\":2885:2937   */\n      iszero\n      tag_552\n      jumpi\n        /* \"#utility.yul\":2933:2934   */\n      0x00\n        /* \"#utility.yul\":2930:2931   */\n      dup1\n        /* \"#utility.yul\":2923:2935   */\n      revert\n        /* \"#utility.yul\":2885:2937   */\n    tag_552:\n        /* \"#utility.yul\":2956:2985   */\n      tag_553\n        /* \"#utility.yul\":2975:2984   */\n      dup4\n        /* \"#utility.yul\":2956:2985   */\n      tag_515\n      jump\t// in\n    tag_553:\n        /* \"#utility.yul\":2946:2985   */\n      swap5\n        /* \"#utility.yul\":3032:3034   */\n      0x20\n        /* \"#utility.yul\":3017:3035   */\n      swap4\n      swap1\n      swap4\n      add\n        /* \"#utility.yul\":3004:3036   */\n      calldataload\n      swap4\n      pop\n      pop\n      pop\n        /* \"#utility.yul\":2788:3042   */\n      jump\t// out\n        /* \"#utility.yul\":3293:3621   */\n    tag_74:\n        /* \"#utility.yul\":3370:3376   */\n      0x00\n        /* \"#utility.yul\":3378:3384   */\n      dup1\n        /* \"#utility.yul\":3386:3392   */\n      0x00\n        /* \"#utility.yul\":3439:3441   */\n      0x60\n        /* \"#utility.yul\":3427:3436   */\n      dup5\n        /* \"#utility.yul\":3418:3425   */\n      dup7\n        /* \"#utility.yul\":3414:3437   */\n      sub\n        /* \"#utility.yul\":3410:3442   */\n      slt\n        /* \"#utility.yul\":3407:3459   */\n      iszero\n      tag_556\n      jumpi\n        /* \"#utility.yul\":3455:3456   */\n      0x00\n        /* \"#utility.yul\":3452:3453   */\n      dup1\n        /* \"#utility.yul\":3445:3457   */\n      revert\n        /* \"#utility.yul\":3407:3459   */\n    tag_556:\n        /* \"#utility.yul\":3478:3507   */\n      tag_557\n        /* \"#utility.yul\":3497:3506   */\n      dup5\n        /* \"#utility.yul\":3478:3507   */\n      tag_515\n      jump\t// in\n    tag_557:\n        /* \"#utility.yul\":3468:3507   */\n      swap3\n      pop\n        /* \"#utility.yul\":3526:3564   */\n      tag_558\n        /* \"#utility.yul\":3560:3562   */\n      0x20\n        /* \"#utility.yul\":3549:3558   */\n      dup6\n        /* \"#utility.yul\":3545:3563   */\n      add\n        /* \"#utility.yul\":3526:3564   */\n      tag_515\n      jump\t// in\n    tag_558:\n        /* \"#utility.yul\":3516:3564   */\n      swap2\n      pop\n        /* \"#utility.yul\":3611:3613   */\n      0x40\n        /* \"#utility.yul\":3600:3609   */\n      dup5\n        /* \"#utility.yul\":3596:3614   */\n      add\n        /* \"#utility.yul\":3583:3615   */\n      calldataload\n        /* \"#utility.yul\":3573:3615   */\n      swap1\n      pop\n        /* \"#utility.yul\":3293:3621   */\n      swap3\n      pop\n      swap3\n      pop\n      swap3\n      jump\t// out\n        /* \"#utility.yul\":3626:3874   */\n    tag_78:\n        /* \"#utility.yul\":3694:3700   */\n      0x00\n        /* \"#utility.yul\":3702:3708   */\n      dup1\n        /* \"#utility.yul\":3755:3757   */\n      0x40\n        /* \"#utility.yul\":3743:3752   */\n      dup4\n        /* \"#utility.yul\":3734:3741   */\n      dup6\n        /* \"#utility.yul\":3730:3753   */\n      sub\n        /* \"#utility.yul\":3726:3758   */\n      slt\n        /* \"#utility.yul\":3723:3775   */\n      iszero\n      tag_560\n      jumpi\n        /* \"#utility.yul\":3771:3772   */\n      0x00\n        /* \"#utility.yul\":3768:3769   */\n      dup1\n        /* \"#utility.yul\":3761:3773   */\n      revert\n        /* \"#utility.yul\":3723:3775   */\n    tag_560:\n      pop\n      pop\n        /* \"#utility.yul\":3794:3817   */\n      dup1\n      calldataload\n      swap3\n        /* \"#utility.yul\":3864:3866   */\n      0x20\n        /* \"#utility.yul\":3849:3867   */\n      swap1\n      swap2\n      add\n        /* \"#utility.yul\":3836:3868   */\n      calldataload\n      swap2\n      pop\n        /* \"#utility.yul\":3626:3874   */\n      jump\t// out\n        /* \"#utility.yul\":4305:4423   */\n    tag_516:\n        /* \"#utility.yul\":4391:4396   */\n      dup1\n        /* \"#utility.yul\":4384:4397   */\n      iszero\n        /* \"#utility.yul\":4377:4398   */\n      iszero\n        /* \"#utility.yul\":4370:4375   */\n      dup2\n        /* \"#utility.yul\":4367:4399   */\n      eq\n        /* \"#utility.yul\":4357:4417   */\n      tag_315\n      jumpi\n        /* \"#utility.yul\":4413:4414   */\n      0x00\n        /* \"#utility.yul\":4410:4411   */\n      dup1\n        /* \"#utility.yul\":4403:4415   */\n      revert\n        /* \"#utility.yul\":4428:4743   */\n    tag_120:\n        /* \"#utility.yul\":4493:4499   */\n      0x00\n        /* \"#utility.yul\":4501:4507   */\n      dup1\n        /* \"#utility.yul\":4554:4556   */\n      0x40\n        /* \"#utility.yul\":4542:4551   */\n      dup4\n        /* \"#utility.yul\":4533:4540   */\n      dup6\n        /* \"#utility.yul\":4529:4552   */\n      sub\n        /* \"#utility.yul\":4525:4557   */\n      slt\n        /* \"#utility.yul\":4522:4574   */\n      iszero\n      tag_566\n      jumpi\n        /* \"#utility.yul\":4570:4571   */\n      0x00\n        /* \"#utility.yul\":4567:4568   */\n      dup1\n        /* \"#utility.yul\":4560:4572   */\n      revert\n        /* \"#utility.yul\":4522:4574   */\n    tag_566:\n        /* \"#utility.yul\":4593:4622   */\n      tag_567\n        /* \"#utility.yul\":4612:4621   */\n      dup4\n        /* \"#utility.yul\":4593:4622   */\n      tag_515\n      jump\t// in\n    tag_567:\n        /* \"#utility.yul\":4583:4622   */\n      swap2\n      pop\n        /* \"#utility.yul\":4672:4674   */\n      0x20\n        /* \"#utility.yul\":4661:4670   */\n      dup4\n        /* \"#utility.yul\":4657:4675   */\n      add\n        /* \"#utility.yul\":4644:4676   */\n      calldataload\n        /* \"#utility.yul\":4685:4713   */\n      tag_568\n        /* \"#utility.yul\":4707:4712   */\n      dup2\n        /* \"#utility.yul\":4685:4713   */\n      tag_516\n      jump\t// in\n    tag_568:\n        /* \"#utility.yul\":4732:4737   */\n      dup1\n        /* \"#utility.yul\":4722:4737   */\n      swap2\n      pop\n      pop\n        /* \"#utility.yul\":4428:4743   */\n      swap3\n      pop\n      swap3\n      swap1\n      pop\n      jump\t// out\n        /* \"#utility.yul\":4748:4875   */\n    tag_173:\n        /* \"#utility.yul\":4809:4819   */\n      0x4e487b71\n        /* \"#utility.yul\":4804:4807   */\n      0xe0\n        /* \"#utility.yul\":4800:4820   */\n      shl\n        /* \"#utility.yul\":4797:4798   */\n      0x00\n        /* \"#utility.yul\":4790:4821   */\n      mstore\n        /* \"#utility.yul\":4840:4844   */\n      0x41\n        /* \"#utility.yul\":4837:4838   */\n      0x04\n        /* \"#utility.yul\":4830:4845   */\n      mstore\n        /* \"#utility.yul\":4864:4868   */\n      0x24\n        /* \"#utility.yul\":4861:4862   */\n      0x00\n        /* \"#utility.yul\":4854:4869   */\n      revert\n        /* \"#utility.yul\":4880:5155   */\n    tag_517:\n        /* \"#utility.yul\":4951:4953   */\n      0x40\n        /* \"#utility.yul\":4945:4954   */\n      mload\n        /* \"#utility.yul\":5016:5018   */\n      0x1f\n        /* \"#utility.yul\":4997:5010   */\n      dup3\n      add\n      not(0x1f)\n        /* \"#utility.yul\":4993:5020   */\n      and\n        /* \"#utility.yul\":4981:5021   */\n      dup2\n      add\n        /* \"#utility.yul\":5051:5069   */\n      0xffffffffffffffff\n        /* \"#utility.yul\":5036:5070   */\n      dup2\n      gt\n        /* \"#utility.yul\":5072:5094   */\n      dup3\n      dup3\n      lt\n        /* \"#utility.yul\":5033:5095   */\n      or\n        /* \"#utility.yul\":5030:5118   */\n      iszero\n      tag_572\n      jumpi\n        /* \"#utility.yul\":5098:5116   */\n      tag_572\n      tag_173\n      jump\t// in\n    tag_572:\n        /* \"#utility.yul\":5134:5136   */\n      0x40\n        /* \"#utility.yul\":5127:5149   */\n      mstore\n        /* \"#utility.yul\":4880:5155   */\n      swap2\n      swap1\n      pop\n      jump\t// out\n        /* \"#utility.yul\":5160:5346   */\n    tag_518:\n        /* \"#utility.yul\":5208:5212   */\n      0x00\n        /* \"#utility.yul\":5241:5259   */\n      0xffffffffffffffff\n        /* \"#utility.yul\":5233:5239   */\n      dup3\n        /* \"#utility.yul\":5230:5260   */\n      gt\n        /* \"#utility.yul\":5227:5283   */\n      iszero\n      tag_575\n      jumpi\n        /* \"#utility.yul\":5263:5281   */\n      tag_575\n      tag_173\n      jump\t// in\n    tag_575:\n      pop\n        /* \"#utility.yul\":5329:5331   */\n      0x1f\n        /* \"#utility.yul\":5308:5323   */\n      add\n      not(0x1f)\n        /* \"#utility.yul\":5304:5333   */\n      and\n        /* \"#utility.yul\":5335:5339   */\n      0x20\n        /* \"#utility.yul\":5300:5340   */\n      add\n      swap1\n        /* \"#utility.yul\":5160:5346   */\n      jump\t// out\n        /* \"#utility.yul\":5351:5687   */\n    tag_519:\n        /* \"#utility.yul\":5415:5420   */\n      0x00\n        /* \"#utility.yul\":5444:5496   */\n      tag_577\n        /* \"#utility.yul\":5460:5495   */\n      tag_578\n        /* \"#utility.yul\":5488:5494   */\n      dup5\n        /* \"#utility.yul\":5460:5495   */\n      tag_518\n      jump\t// in\n    tag_578:\n        /* \"#utility.yul\":5444:5496   */\n      tag_517\n      jump\t// in\n    tag_577:\n        /* \"#utility.yul\":5435:5496   */\n      swap1\n      pop\n        /* \"#utility.yul\":5519:5525   */\n      dup3\n        /* \"#utility.yul\":5512:5517   */\n      dup2\n        /* \"#utility.yul\":5505:5526   */\n      mstore\n        /* \"#utility.yul\":5559:5562   */\n      dup4\n        /* \"#utility.yul\":5550:5556   */\n      dup4\n        /* \"#utility.yul\":5545:5548   */\n      dup4\n        /* \"#utility.yul\":5541:5557   */\n      add\n        /* \"#utility.yul\":5538:5563   */\n      gt\n        /* \"#utility.yul\":5535:5580   */\n      iszero\n      tag_579\n      jumpi\n        /* \"#utility.yul\":5576:5577   */\n      0x00\n        /* \"#utility.yul\":5573:5574   */\n      dup1\n        /* \"#utility.yul\":5566:5578   */\n      revert\n        /* \"#utility.yul\":5535:5580   */\n    tag_579:\n        /* \"#utility.yul\":5625:5631   */\n      dup3\n        /* \"#utility.yul\":5620:5623   */\n      dup3\n        /* \"#utility.yul\":5613:5617   */\n      0x20\n        /* \"#utility.yul\":5606:5611   */\n      dup4\n        /* \"#utility.yul\":5602:5618   */\n      add\n        /* \"#utility.yul\":5589:5632   */\n      calldatacopy\n        /* \"#utility.yul\":5679:5680   */\n      0x00\n        /* \"#utility.yul\":5672:5676   */\n      0x20\n        /* \"#utility.yul\":5663:5669   */\n      dup5\n        /* \"#utility.yul\":5656:5661   */\n      dup4\n        /* \"#utility.yul\":5652:5670   */\n      add\n        /* \"#utility.yul\":5648:5677   */\n      add\n        /* \"#utility.yul\":5641:5681   */\n      mstore\n        /* \"#utility.yul\":5351:5687   */\n      swap4\n      swap3\n      pop\n      pop\n      pop\n      jump\t// out\n        /* \"#utility.yul\":5692:6358   */\n    tag_128:\n        /* \"#utility.yul\":5787:5793   */\n      0x00\n        /* \"#utility.yul\":5795:5801   */\n      dup1\n        /* \"#utility.yul\":5803:5809   */\n      0x00\n        /* \"#utility.yul\":5811:5817   */\n      dup1\n        /* \"#utility.yul\":5864:5867   */\n      0x80\n        /* \"#utility.yul\":5852:5861   */\n      dup6\n        /* \"#utility.yul\":5843:5850   */\n      dup8\n        /* \"#utility.yul\":5839:5862   */\n      sub\n        /* \"#utility.yul\":5835:5868   */\n      slt\n        /* \"#utility.yul\":5832:5885   */\n      iszero\n      tag_581\n      jumpi\n        /* \"#utility.yul\":5881:5882   */\n      0x00\n        /* \"#utility.yul\":5878:5879   */\n      dup1\n        /* \"#utility.yul\":5871:5883   */\n      revert\n        /* \"#utility.yul\":5832:5885   */\n    tag_581:\n        /* \"#utility.yul\":5904:5933   */\n      tag_582\n        /* \"#utility.yul\":5923:5932   */\n      dup6\n        /* \"#utility.yul\":5904:5933   */\n      tag_515\n      jump\t// in\n    tag_582:\n        /* \"#utility.yul\":5894:5933   */\n      swap4\n      pop\n        /* \"#utility.yul\":5952:5990   */\n      tag_583\n        /* \"#utility.yul\":5986:5988   */\n      0x20\n        /* \"#utility.yul\":5975:5984   */\n      dup7\n        /* \"#utility.yul\":5971:5989   */\n      add\n        /* \"#utility.yul\":5952:5990   */\n      tag_515\n      jump\t// in\n    tag_583:\n        /* \"#utility.yul\":5942:5990   */\n      swap3\n      pop\n        /* \"#utility.yul\":6037:6039   */\n      0x40\n        /* \"#utility.yul\":6026:6035   */\n      dup6\n        /* \"#utility.yul\":6022:6040   */\n      add\n        /* \"#utility.yul\":6009:6041   */\n      calldataload\n        /* \"#utility.yul\":5999:6041   */\n      swap2\n      pop\n        /* \"#utility.yul\":6092:6094   */\n      0x60\n        /* \"#utility.yul\":6081:6090   */\n      dup6\n        /* \"#utility.yul\":6077:6095   */\n      add\n        /* \"#utility.yul\":6064:6096   */\n      calldataload\n        /* \"#utility.yul\":6119:6137   */\n      0xffffffffffffffff\n        /* \"#utility.yul\":6111:6117   */\n      dup2\n        /* \"#utility.yul\":6108:6138   */\n      gt\n        /* \"#utility.yul\":6105:6155   */\n      iszero\n      tag_584\n      jumpi\n        /* \"#utility.yul\":6151:6152   */\n      0x00\n        /* \"#utility.yul\":6148:6149   */\n      dup1\n        /* \"#utility.yul\":6141:6153   */\n      revert\n        /* \"#utility.yul\":6105:6155   */\n    tag_584:\n        /* \"#utility.yul\":6174:6196   */\n      dup6\n      add\n        /* \"#utility.yul\":6227:6231   */\n      0x1f\n        /* \"#utility.yul\":6219:6232   */\n      dup2\n      add\n        /* \"#utility.yul\":6215:6242   */\n      dup8\n      sgt\n        /* \"#utility.yul\":6205:6260   */\n      tag_585\n      jumpi\n        /* \"#utility.yul\":6256:6257   */\n      0x00\n        /* \"#utility.yul\":6253:6254   */\n      dup1\n        /* \"#utility.yul\":6246:6258   */\n      revert\n        /* \"#utility.yul\":6205:6260   */\n    tag_585:\n        /* \"#utility.yul\":6279:6352   */\n      tag_586\n        /* \"#utility.yul\":6344:6351   */\n      dup8\n        /* \"#utility.yul\":6339:6341   */\n      dup3\n        /* \"#utility.yul\":6326:6342   */\n      calldataload\n        /* \"#utility.yul\":6321:6323   */\n      0x20\n        /* \"#utility.yul\":6317:6319   */\n      dup5\n        /* \"#utility.yul\":6313:6324   */\n      add\n        /* \"#utility.yul\":6279:6352   */\n      tag_519\n      jump\t// in\n    tag_586:\n        /* \"#utility.yul\":6269:6352   */\n      swap2\n      pop\n      pop\n        /* \"#utility.yul\":5692:6358   */\n      swap3\n      swap6\n      swap2\n      swap5\n      pop\n      swap3\n      pop\n      jump\t// out\n        /* \"#utility.yul\":6363:6881   */\n    tag_140:\n        /* \"#utility.yul\":6441:6447   */\n      0x00\n        /* \"#utility.yul\":6449:6455   */\n      dup1\n        /* \"#utility.yul\":6502:6504   */\n      0x40\n        /* \"#utility.yul\":6490:6499   */\n      dup4\n        /* \"#utility.yul\":6481:6488   */\n      dup6\n        /* \"#utility.yul\":6477:6500   */\n      sub\n        /* \"#utility.yul\":6473:6505   */\n      slt\n        /* \"#utility.yul\":6470:6522   */\n      iszero\n      tag_588\n      jumpi\n        /* \"#utility.yul\":6518:6519   */\n      0x00\n        /* \"#utility.yul\":6515:6516   */\n      dup1\n        /* \"#utility.yul\":6508:6520   */\n      revert\n        /* \"#utility.yul\":6470:6522   */\n    tag_588:\n        /* \"#utility.yul\":6554:6563   */\n      dup3\n        /* \"#utility.yul\":6541:6564   */\n      calldataload\n        /* \"#utility.yul\":6531:6564   */\n      swap2\n      pop\n        /* \"#utility.yul\":6615:6617   */\n      0x20\n        /* \"#utility.yul\":6604:6613   */\n      dup4\n        /* \"#utility.yul\":6600:6618   */\n      add\n        /* \"#utility.yul\":6587:6619   */\n      calldataload\n        /* \"#utility.yul\":6642:6660   */\n      0xffffffffffffffff\n        /* \"#utility.yul\":6634:6640   */\n      dup2\n        /* \"#utility.yul\":6631:6661   */\n      gt\n        /* \"#utility.yul\":6628:6678   */\n      iszero\n      tag_589\n      jumpi\n        /* \"#utility.yul\":6674:6675   */\n      0x00\n        /* \"#utility.yul\":6671:6672   */\n      dup1\n        /* \"#utility.yul\":6664:6676   */\n      revert\n        /* \"#utility.yul\":6628:6678   */\n    tag_589:\n        /* \"#utility.yul\":6697:6719   */\n      dup4\n      add\n        /* \"#utility.yul\":6750:6754   */\n      0x1f\n        /* \"#utility.yul\":6742:6755   */\n      dup2\n      add\n        /* \"#utility.yul\":6738:6765   */\n      dup6\n      sgt\n        /* \"#utility.yul\":6728:6783   */\n      tag_590\n      jumpi\n        /* \"#utility.yul\":6779:6780   */\n      0x00\n        /* \"#utility.yul\":6776:6777   */\n      dup1\n        /* \"#utility.yul\":6769:6781   */\n      revert\n        /* \"#utility.yul\":6728:6783   */\n    tag_590:\n        /* \"#utility.yul\":6802:6875   */\n      tag_591\n        /* \"#utility.yul\":6867:6874   */\n      dup6\n        /* \"#utility.yul\":6862:6864   */\n      dup3\n        /* \"#utility.yul\":6849:6865   */\n      calldataload\n        /* \"#utility.yul\":6844:6846   */\n      0x20\n        /* \"#utility.yul\":6840:6842   */\n      dup5\n        /* \"#utility.yul\":6836:6847   */\n      add\n        /* \"#utility.yul\":6802:6875   */\n      tag_519\n      jump\t// in\n    tag_591:\n        /* \"#utility.yul\":6792:6875   */\n      swap2\n      pop\n      pop\n        /* \"#utility.yul\":6363:6881   */\n      swap3\n      pop\n      swap3\n      swap1\n      pop\n      jump\t// out\n        /* \"#utility.yul\":6886:7146   */\n    tag_144:\n        /* \"#utility.yul\":6954:6960   */\n      0x00\n        /* \"#utility.yul\":6962:6968   */\n      dup1\n        /* \"#utility.yul\":7015:7017   */\n      0x40\n        /* \"#utility.yul\":7003:7012   */\n      dup4\n        /* \"#utility.yul\":6994:7001   */\n      dup6\n        /* \"#utility.yul\":6990:7013   */\n      sub\n        /* \"#utility.yul\":6986:7018   */\n      slt\n        /* \"#utility.yul\":6983:7035   */\n      iszero\n      tag_593\n      jumpi\n        /* \"#utility.yul\":7031:7032   */\n      0x00\n        /* \"#utility.yul\":7028:7029   */\n      dup1\n        /* \"#utility.yul\":7021:7033   */\n      revert\n        /* \"#utility.yul\":6983:7035   */\n    tag_593:\n        /* \"#utility.yul\":7054:7083   */\n      tag_594\n        /* \"#utility.yul\":7073:7082   */\n      dup4\n        /* \"#utility.yul\":7054:7083   */\n      tag_515\n      jump\t// in\n    tag_594:\n        /* \"#utility.yul\":7044:7083   */\n      swap2\n      pop\n        /* \"#utility.yul\":7102:7140   */\n      tag_595\n        /* \"#utility.yul\":7136:7138   */\n      0x20\n        /* \"#utility.yul\":7125:7134   */\n      dup5\n        /* \"#utility.yul\":7121:7139   */\n      add\n        /* \"#utility.yul\":7102:7140   */\n      tag_515\n      jump\t// in\n    tag_595:\n        /* \"#utility.yul\":7092:7140   */\n      swap1\n      pop\n        /* \"#utility.yul\":6886:7146   */\n      swap3\n      pop\n      swap3\n      swap1\n      pop\n      jump\t// out\n        /* \"#utility.yul\":7151:7531   */\n    tag_151:\n        /* \"#utility.yul\":7230:7231   */\n      0x01\n        /* \"#utility.yul\":7226:7238   */\n      dup2\n      dup2\n      shr\n      swap1\n        /* \"#utility.yul\":7273:7285   */\n      dup3\n      and\n      dup1\n        /* \"#utility.yul\":7294:7355   */\n      tag_597\n      jumpi\n        /* \"#utility.yul\":7348:7352   */\n      0x7f\n        /* \"#utility.yul\":7340:7346   */\n      dup3\n        /* \"#utility.yul\":7336:7353   */\n      and\n        /* \"#utility.yul\":7326:7353   */\n      swap2\n      pop\n        /* \"#utility.yul\":7294:7355   */\n    tag_597:\n        /* \"#utility.yul\":7401:7403   */\n      0x20\n        /* \"#utility.yul\":7393:7399   */\n      dup3\n        /* \"#utility.yul\":7390:7404   */\n      lt\n        /* \"#utility.yul\":7370:7388   */\n      dup2\n        /* \"#utility.yul\":7367:7405   */\n      sub\n        /* \"#utility.yul\":7364:7525   */\n      tag_235\n      jumpi\n        /* \"#utility.yul\":7447:7457   */\n      0x4e487b71\n        /* \"#utility.yul\":7442:7445   */\n      0xe0\n        /* \"#utility.yul\":7438:7458   */\n      shl\n        /* \"#utility.yul\":7435:7436   */\n      0x00\n        /* \"#utility.yul\":7428:7459   */\n      mstore\n        /* \"#utility.yul\":7482:7486   */\n      0x22\n        /* \"#utility.yul\":7479:7480   */\n      0x04\n        /* \"#utility.yul\":7472:7487   */\n      mstore\n        /* \"#utility.yul\":7510:7514   */\n      0x24\n        /* \"#utility.yul\":7507:7508   */\n      0x00\n        /* \"#utility.yul\":7500:7515   */\n      revert\n        /* \"#utility.yul\":7536:7965   */\n    tag_520:\n        /* \"#utility.yul\":7590:7595   */\n      0x00\n        /* \"#utility.yul\":7643:7646   */\n      dup3\n        /* \"#utility.yul\":7636:7640   */\n      0x1f\n        /* \"#utility.yul\":7628:7634   */\n      dup4\n        /* \"#utility.yul\":7624:7641   */\n      add\n        /* \"#utility.yul\":7620:7647   */\n      slt\n        /* \"#utility.yul\":7610:7665   */\n      tag_600\n      jumpi\n        /* \"#utility.yul\":7661:7662   */\n      0x00\n        /* \"#utility.yul\":7658:7659   */\n      dup1\n        /* \"#utility.yul\":7651:7663   */\n      revert\n        /* \"#utility.yul\":7610:7665   */\n    tag_600:\n        /* \"#utility.yul\":7690:7696   */\n      dup2\n        /* \"#utility.yul\":7684:7697   */\n      mload\n        /* \"#utility.yul\":7721:7769   */\n      tag_601\n        /* \"#utility.yul\":7737:7768   */\n      tag_578\n        /* \"#utility.yul\":7765:7767   */\n      dup3\n        /* \"#utility.yul\":7737:7768   */\n      tag_518\n      jump\t// in\n        /* \"#utility.yul\":7721:7769   */\n    tag_601:\n        /* \"#utility.yul\":7794:7796   */\n      dup2\n        /* \"#utility.yul\":7785:7792   */\n      dup2\n        /* \"#utility.yul\":7778:7797   */\n      mstore\n        /* \"#utility.yul\":7840:7843   */\n      dup5\n        /* \"#utility.yul\":7833:7837   */\n      0x20\n        /* \"#utility.yul\":7828:7830   */\n      dup4\n        /* \"#utility.yul\":7820:7826   */\n      dup7\n        /* \"#utility.yul\":7816:7831   */\n      add\n        /* \"#utility.yul\":7812:7838   */\n      add\n        /* \"#utility.yul\":7809:7844   */\n      gt\n        /* \"#utility.yul\":7806:7861   */\n      iszero\n      tag_603\n      jumpi\n        /* \"#utility.yul\":7857:7858   */\n      0x00\n        /* \"#utility.yul\":7854:7855   */\n      dup1\n        /* \"#utility.yul\":7847:7859   */\n      revert\n        /* \"#utility.yul\":7806:7861   */\n    tag_603:\n        /* \"#utility.yul\":7870:7934   */\n      tag_329\n        /* \"#utility.yul\":7931:7933   */\n      dup3\n        /* \"#utility.yul\":7924:7928   */\n      0x20\n        /* \"#utility.yul\":7915:7922   */\n      dup4\n        /* \"#utility.yul\":7911:7929   */\n      add\n        /* \"#utility.yul\":7904:7908   */\n      0x20\n        /* \"#utility.yul\":7896:7902   */\n      dup8\n        /* \"#utility.yul\":7892:7909   */\n      add\n        /* \"#utility.yul\":7870:7934   */\n      tag_512\n      jump\t// in\n        /* \"#utility.yul\":7970:8860   */\n    tag_182:\n        /* \"#utility.yul\":8106:8112   */\n      0x00\n        /* \"#utility.yul\":8114:8120   */\n      dup1\n        /* \"#utility.yul\":8122:8128   */\n      0x00\n        /* \"#utility.yul\":8130:8136   */\n      dup1\n        /* \"#utility.yul\":8138:8144   */\n      0x00\n        /* \"#utility.yul\":8191:8194   */\n      0xa0\n        /* \"#utility.yul\":8179:8188   */\n      dup7\n        /* \"#utility.yul\":8170:8177   */\n      dup9\n        /* \"#utility.yul\":8166:8189   */\n      sub\n        /* \"#utility.yul\":8162:8195   */\n      slt\n        /* \"#utility.yul\":8159:8212   */\n      iszero\n      tag_606\n      jumpi\n        /* \"#utility.yul\":8208:8209   */\n      0x00\n        /* \"#utility.yul\":8205:8206   */\n      dup1\n        /* \"#utility.yul\":8198:8210   */\n      revert\n        /* \"#utility.yul\":8159:8212   */\n    tag_606:\n        /* \"#utility.yul\":8237:8246   */\n      dup6\n        /* \"#utility.yul\":8231:8247   */\n      mload\n        /* \"#utility.yul\":8221:8247   */\n      swap5\n      pop\n        /* \"#utility.yul\":8291:8293   */\n      0x20\n        /* \"#utility.yul\":8280:8289   */\n      dup7\n        /* \"#utility.yul\":8276:8294   */\n      add\n        /* \"#utility.yul\":8270:8295   */\n      mload\n        /* \"#utility.yul\":8314:8332   */\n      0xffffffffffffffff\n        /* \"#utility.yul\":8355:8357   */\n      dup1\n        /* \"#utility.yul\":8347:8353   */\n      dup3\n        /* \"#utility.yul\":8344:8358   */\n      gt\n        /* \"#utility.yul\":8341:8375   */\n      iszero\n      tag_607\n      jumpi\n        /* \"#utility.yul\":8371:8372   */\n      0x00\n        /* \"#utility.yul\":8368:8369   */\n      dup1\n        /* \"#utility.yul\":8361:8373   */\n      revert\n        /* \"#utility.yul\":8341:8375   */\n    tag_607:\n        /* \"#utility.yul\":8394:8455   */\n      tag_608\n        /* \"#utility.yul\":8447:8454   */\n      dup10\n        /* \"#utility.yul\":8438:8444   */\n      dup4\n        /* \"#utility.yul\":8427:8436   */\n      dup11\n        /* \"#utility.yul\":8423:8445   */\n      add\n        /* \"#utility.yul\":8394:8455   */\n      tag_520\n      jump\t// in\n    tag_608:\n        /* \"#utility.yul\":8384:8455   */\n      swap6\n      pop\n        /* \"#utility.yul\":8501:8503   */\n      0x40\n        /* \"#utility.yul\":8490:8499   */\n      dup9\n        /* \"#utility.yul\":8486:8504   */\n      add\n        /* \"#utility.yul\":8480:8505   */\n      mload\n        /* \"#utility.yul\":8464:8505   */\n      swap2\n      pop\n        /* \"#utility.yul\":8530:8532   */\n      dup1\n        /* \"#utility.yul\":8520:8528   */\n      dup3\n        /* \"#utility.yul\":8517:8533   */\n      gt\n        /* \"#utility.yul\":8514:8550   */\n      iszero\n      tag_609\n      jumpi\n        /* \"#utility.yul\":8546:8547   */\n      0x00\n        /* \"#utility.yul\":8543:8544   */\n      dup1\n        /* \"#utility.yul\":8536:8548   */\n      revert\n        /* \"#utility.yul\":8514:8550   */\n    tag_609:\n        /* \"#utility.yul\":8569:8632   */\n      tag_610\n        /* \"#utility.yul\":8624:8631   */\n      dup10\n        /* \"#utility.yul\":8613:8621   */\n      dup4\n        /* \"#utility.yul\":8602:8611   */\n      dup11\n        /* \"#utility.yul\":8598:8622   */\n      add\n        /* \"#utility.yul\":8569:8632   */\n      tag_520\n      jump\t// in\n    tag_610:\n        /* \"#utility.yul\":8559:8632   */\n      swap5\n      pop\n        /* \"#utility.yul\":8678:8680   */\n      0x60\n        /* \"#utility.yul\":8667:8676   */\n      dup9\n        /* \"#utility.yul\":8663:8681   */\n      add\n        /* \"#utility.yul\":8657:8682   */\n      mload\n        /* \"#utility.yul\":8641:8682   */\n      swap2\n      pop\n        /* \"#utility.yul\":8707:8709   */\n      dup1\n        /* \"#utility.yul\":8697:8705   */\n      dup3\n        /* \"#utility.yul\":8694:8710   */\n      gt\n        /* \"#utility.yul\":8691:8727   */\n      iszero\n      tag_611\n      jumpi\n        /* \"#utility.yul\":8723:8724   */\n      0x00\n        /* \"#utility.yul\":8720:8721   */\n      dup1\n        /* \"#utility.yul\":8713:8725   */\n      revert\n        /* \"#utility.yul\":8691:8727   */\n    tag_611:\n      pop\n        /* \"#utility.yul\":8746:8809   */\n      tag_612\n        /* \"#utility.yul\":8801:8808   */\n      dup9\n        /* \"#utility.yul\":8790:8798   */\n      dup3\n        /* \"#utility.yul\":8779:8788   */\n      dup10\n        /* \"#utility.yul\":8775:8799   */\n      add\n        /* \"#utility.yul\":8746:8809   */\n      tag_520\n      jump\t// in\n    tag_612:\n        /* \"#utility.yul\":8736:8809   */\n      swap3\n      pop\n      pop\n        /* \"#utility.yul\":8849:8852   */\n      0x80\n        /* \"#utility.yul\":8838:8847   */\n      dup7\n        /* \"#utility.yul\":8834:8853   */\n      add\n        /* \"#utility.yul\":8828:8854   */\n      mload\n        /* \"#utility.yul\":8818:8854   */\n      swap1\n      pop\n        /* \"#utility.yul\":7970:8860   */\n      swap3\n      swap6\n      pop\n      swap3\n      swap6\n      swap1\n      swap4\n      pop\n      jump\t// out\n        /* \"#utility.yul\":8865:8992   */\n    tag_185:\n        /* \"#utility.yul\":8926:8936   */\n      0x4e487b71\n        /* \"#utility.yul\":8921:8924   */\n      0xe0\n        /* \"#utility.yul\":8917:8937   */\n      shl\n        /* \"#utility.yul\":8914:8915   */\n      0x00\n        /* \"#utility.yul\":8907:8938   */\n      mstore\n        /* \"#utility.yul\":8957:8961   */\n      0x32\n        /* \"#utility.yul\":8954:8955   */\n      0x04\n        /* \"#utility.yul\":8947:8962   */\n      mstore\n        /* \"#utility.yul\":8981:8985   */\n      0x24\n        /* \"#utility.yul\":8978:8979   */\n      0x00\n        /* \"#utility.yul\":8971:8986   */\n      revert\n        /* \"#utility.yul\":8997:9124   */\n    tag_521:\n        /* \"#utility.yul\":9058:9068   */\n      0x4e487b71\n        /* \"#utility.yul\":9053:9056   */\n      0xe0\n        /* \"#utility.yul\":9049:9069   */\n      shl\n        /* \"#utility.yul\":9046:9047   */\n      0x00\n        /* \"#utility.yul\":9039:9070   */\n      mstore\n        /* \"#utility.yul\":9089:9093   */\n      0x11\n        /* \"#utility.yul\":9086:9087   */\n      0x04\n        /* \"#utility.yul\":9079:9094   */\n      mstore\n        /* \"#utility.yul\":9113:9117   */\n      0x24\n        /* \"#utility.yul\":9110:9111   */\n      0x00\n        /* \"#utility.yul\":9103:9118   */\n      revert\n        /* \"#utility.yul\":9129:9264   */\n    tag_187:\n        /* \"#utility.yul\":9168:9171   */\n      0x00\n        /* \"#utility.yul\":9189:9206   */\n      0x01\n      dup3\n      add\n        /* \"#utility.yul\":9186:9229   */\n      tag_617\n      jumpi\n        /* \"#utility.yul\":9209:9227   */\n      tag_617\n      tag_521\n      jump\t// in\n    tag_617:\n      pop\n        /* \"#utility.yul\":9256:9257   */\n      0x01\n        /* \"#utility.yul\":9245:9258   */\n      add\n      swap1\n        /* \"#utility.yul\":9129:9264   */\n      jump\t// out\n        /* \"#utility.yul\":10862:11030   */\n    tag_237:\n        /* \"#utility.yul\":10902:10909   */\n      0x00\n        /* \"#utility.yul\":10968:10969   */\n      dup2\n        /* \"#utility.yul\":10964:10965   */\n      0x00\n        /* \"#utility.yul\":10960:10966   */\n      not\n        /* \"#utility.yul\":10956:10970   */\n      div\n        /* \"#utility.yul\":10953:10954   */\n      dup4\n        /* \"#utility.yul\":10950:10971   */\n      gt\n        /* \"#utility.yul\":10945:10946   */\n      dup3\n        /* \"#utility.yul\":10938:10947   */\n      iszero\n        /* \"#utility.yul\":10931:10948   */\n      iszero\n        /* \"#utility.yul\":10927:10972   */\n      and\n        /* \"#utility.yul\":10924:10995   */\n      iszero\n      tag_624\n      jumpi\n        /* \"#utility.yul\":10975:10993   */\n      tag_624\n      tag_521\n      jump\t// in\n    tag_624:\n      pop\n        /* \"#utility.yul\":11015:11024   */\n      mul\n      swap1\n        /* \"#utility.yul\":10862:11030   */\n      jump\t// out\n        /* \"#utility.yul\":11798:11926   */\n    tag_262:\n        /* \"#utility.yul\":11838:11841   */\n      0x00\n        /* \"#utility.yul\":11869:11870   */\n      dup3\n        /* \"#utility.yul\":11865:11871   */\n      not\n        /* \"#utility.yul\":11862:11863   */\n      dup3\n        /* \"#utility.yul\":11859:11872   */\n      gt\n        /* \"#utility.yul\":11856:11895   */\n      iszero\n      tag_629\n      jumpi\n        /* \"#utility.yul\":11875:11893   */\n      tag_629\n      tag_521\n      jump\t// in\n    tag_629:\n      pop\n        /* \"#utility.yul\":11911:11920   */\n      add\n      swap1\n        /* \"#utility.yul\":11798:11926   */\n      jump\t// out\n        /* \"#utility.yul\":12184:12654   */\n    tag_301:\n        /* \"#utility.yul\":12363:12366   */\n      0x00\n        /* \"#utility.yul\":12401:12407   */\n      dup4\n        /* \"#utility.yul\":12395:12408   */\n      mload\n        /* \"#utility.yul\":12417:12470   */\n      tag_632\n        /* \"#utility.yul\":12463:12469   */\n      dup2\n        /* \"#utility.yul\":12458:12461   */\n      dup5\n        /* \"#utility.yul\":12451:12455   */\n      0x20\n        /* \"#utility.yul\":12443:12449   */\n      dup9\n        /* \"#utility.yul\":12439:12456   */\n      add\n        /* \"#utility.yul\":12417:12470   */\n      tag_512\n      jump\t// in\n    tag_632:\n        /* \"#utility.yul\":12533:12546   */\n      dup4\n      mload\n        /* \"#utility.yul\":12492:12508   */\n      swap1\n      dup4\n      add\n      swap1\n        /* \"#utility.yul\":12555:12612   */\n      tag_633\n        /* \"#utility.yul\":12533:12546   */\n      dup2\n        /* \"#utility.yul\":12492:12508   */\n      dup4\n        /* \"#utility.yul\":12589:12593   */\n      0x20\n        /* \"#utility.yul\":12577:12594   */\n      dup9\n      add\n        /* \"#utility.yul\":12555:12612   */\n      tag_512\n      jump\t// in\n    tag_633:\n        /* \"#utility.yul\":12628:12648   */\n      add\n      swap5\n        /* \"#utility.yul\":12184:12654   */\n      swap4\n      pop\n      pop\n      pop\n      pop\n      jump\t// out\n        /* \"#utility.yul\":12659:12950   */\n    tag_307:\n        /* \"#utility.yul\":12836:12838   */\n      0x40\n        /* \"#utility.yul\":12825:12834   */\n      dup2\n        /* \"#utility.yul\":12818:12839   */\n      mstore\n        /* \"#utility.yul\":12799:12803   */\n      0x00\n        /* \"#utility.yul\":12856:12901   */\n      tag_635\n        /* \"#utility.yul\":12897:12899   */\n      0x40\n        /* \"#utility.yul\":12886:12895   */\n      dup4\n        /* \"#utility.yul\":12882:12900   */\n      add\n        /* \"#utility.yul\":12874:12880   */\n      dup6\n        /* \"#utility.yul\":12856:12901   */\n      tag_513\n      jump\t// in\n    tag_635:\n        /* \"#utility.yul\":12848:12901   */\n      swap1\n      pop\n        /* \"#utility.yul\":12937:12943   */\n      dup3\n        /* \"#utility.yul\":12932:12934   */\n      0x20\n        /* \"#utility.yul\":12921:12930   */\n      dup4\n        /* \"#utility.yul\":12917:12935   */\n      add\n        /* \"#utility.yul\":12910:12944   */\n      mstore\n        /* \"#utility.yul\":12659:12950   */\n      swap4\n      swap3\n      pop\n      pop\n      pop\n      jump\t// out\n        /* \"#utility.yul\":14173:14298   */\n    tag_343:\n        /* \"#utility.yul\":14213:14217   */\n      0x00\n        /* \"#utility.yul\":14241:14242   */\n      dup3\n        /* \"#utility.yul\":14238:14239   */\n      dup3\n        /* \"#utility.yul\":14235:14243   */\n      lt\n        /* \"#utility.yul\":14232:14266   */\n      iszero\n      tag_641\n      jumpi\n        /* \"#utility.yul\":14246:14264   */\n      tag_641\n      tag_521\n      jump\t// in\n    tag_641:\n      pop\n        /* \"#utility.yul\":14283:14292   */\n      sub\n      swap1\n        /* \"#utility.yul\":14173:14298   */\n      jump\t// out\n        /* \"#utility.yul\":15840:15967   */\n    tag_522:\n        /* \"#utility.yul\":15901:15911   */\n      0x4e487b71\n        /* \"#utility.yul\":15896:15899   */\n      0xe0\n        /* \"#utility.yul\":15892:15912   */\n      shl\n        /* \"#utility.yul\":15889:15890   */\n      0x00\n        /* \"#utility.yul\":15882:15913   */\n      mstore\n        /* \"#utility.yul\":15932:15936   */\n      0x12\n        /* \"#utility.yul\":15929:15930   */\n      0x04\n        /* \"#utility.yul\":15922:15937   */\n      mstore\n        /* \"#utility.yul\":15956:15960   */\n      0x24\n        /* \"#utility.yul\":15953:15954   */\n      0x00\n        /* \"#utility.yul\":15946:15961   */\n      revert\n        /* \"#utility.yul\":15972:16092   */\n    tag_386:\n        /* \"#utility.yul\":16012:16013   */\n      0x00\n        /* \"#utility.yul\":16038:16039   */\n      dup3\n        /* \"#utility.yul\":16028:16063   */\n      tag_649\n      jumpi\n        /* \"#utility.yul\":16043:16061   */\n      tag_649\n      tag_522\n      jump\t// in\n    tag_649:\n      pop\n        /* \"#utility.yul\":16077:16086   */\n      div\n      swap1\n        /* \"#utility.yul\":15972:16092   */\n      jump\t// out\n        /* \"#utility.yul\":16097:16209   */\n    tag_394:\n        /* \"#utility.yul\":16129:16130   */\n      0x00\n        /* \"#utility.yul\":16155:16156   */\n      dup3\n        /* \"#utility.yul\":16145:16180   */\n      tag_652\n      jumpi\n        /* \"#utility.yul\":16160:16178   */\n      tag_652\n      tag_522\n      jump\t// in\n    tag_652:\n      pop\n        /* \"#utility.yul\":16194:16203   */\n      mod\n      swap1\n        /* \"#utility.yul\":16097:16209   */\n      jump\t// out\n        /* \"#utility.yul\":16214:16350   */\n    tag_422:\n        /* \"#utility.yul\":16253:16256   */\n      0x00\n        /* \"#utility.yul\":16281:16286   */\n      dup2\n        /* \"#utility.yul\":16271:16310   */\n      tag_655\n      jumpi\n        /* \"#utility.yul\":16290:16308   */\n      tag_655\n      tag_521\n      jump\t// in\n    tag_655:\n      pop\n      not(0x00)\n        /* \"#utility.yul\":16326:16344   */\n      add\n      swap1\n        /* \"#utility.yul\":16214:16350   */\n      jump\t// out\n        /* \"#utility.yul\":16716:16961   */\n    tag_437:\n        /* \"#utility.yul\":16783:16789   */\n      0x00\n        /* \"#utility.yul\":16836:16838   */\n      0x20\n        /* \"#utility.yul\":16824:16833   */\n      dup3\n        /* \"#utility.yul\":16815:16822   */\n      dup5\n        /* \"#utility.yul\":16811:16834   */\n      sub\n        /* \"#utility.yul\":16807:16839   */\n      slt\n        /* \"#utility.yul\":16804:16856   */\n      iszero\n      tag_658\n      jumpi\n        /* \"#utility.yul\":16852:16853   */\n      0x00\n        /* \"#utility.yul\":16849:16850   */\n      dup1\n        /* \"#utility.yul\":16842:16854   */\n      revert\n        /* \"#utility.yul\":16804:16856   */\n    tag_658:\n        /* \"#utility.yul\":16884:16893   */\n      dup2\n        /* \"#utility.yul\":16878:16894   */\n      mload\n        /* \"#utility.yul\":16903:16931   */\n      tag_297\n        /* \"#utility.yul\":16925:16930   */\n      dup2\n        /* \"#utility.yul\":16903:16931   */\n      tag_516\n      jump\t// in\n        /* \"#utility.yul\":17377:17889   */\n    tag_447:\n        /* \"#utility.yul\":17571:17575   */\n      0x00\n      sub(shl(0xa0, 0x01), 0x01)\n        /* \"#utility.yul\":17681:17683   */\n      dup1\n        /* \"#utility.yul\":17673:17679   */\n      dup8\n        /* \"#utility.yul\":17669:17684   */\n      and\n        /* \"#utility.yul\":17658:17667   */\n      dup4\n        /* \"#utility.yul\":17651:17685   */\n      mstore\n        /* \"#utility.yul\":17733:17735   */\n      dup1\n        /* \"#utility.yul\":17725:17731   */\n      dup7\n        /* \"#utility.yul\":17721:17736   */\n      and\n        /* \"#utility.yul\":17716:17718   */\n      0x20\n        /* \"#utility.yul\":17705:17714   */\n      dup5\n        /* \"#utility.yul\":17701:17719   */\n      add\n        /* \"#utility.yul\":17694:17737   */\n      mstore\n      pop\n        /* \"#utility.yul\":17773:17779   */\n      dup4\n        /* \"#utility.yul\":17768:17770   */\n      0x40\n        /* \"#utility.yul\":17757:17766   */\n      dup4\n        /* \"#utility.yul\":17753:17771   */\n      add\n        /* \"#utility.yul\":17746:17780   */\n      mstore\n        /* \"#utility.yul\":17816:17819   */\n      0x80\n        /* \"#utility.yul\":17811:17813   */\n      0x60\n        /* \"#utility.yul\":17800:17809   */\n      dup4\n        /* \"#utility.yul\":17796:17814   */\n      add\n        /* \"#utility.yul\":17789:17820   */\n      mstore\n        /* \"#utility.yul\":17837:17883   */\n      tag_662\n        /* \"#utility.yul\":17878:17881   */\n      0x80\n        /* \"#utility.yul\":17867:17876   */\n      dup4\n        /* \"#utility.yul\":17863:17882   */\n      add\n        /* \"#utility.yul\":17855:17861   */\n      dup5\n        /* \"#utility.yul\":17837:17883   */\n      tag_513\n      jump\t// in\n    tag_662:\n        /* \"#utility.yul\":17829:17883   */\n      swap7\n        /* \"#utility.yul\":17377:17889   */\n      swap6\n      pop\n      pop\n      pop\n      pop\n      pop\n      pop\n      jump\t// out\n        /* \"#utility.yul\":17894:18143   */\n    tag_450:\n        /* \"#utility.yul\":17963:17969   */\n      0x00\n        /* \"#utility.yul\":18016:18018   */\n      0x20\n        /* \"#utility.yul\":18004:18013   */\n      dup3\n        /* \"#utility.yul\":17995:18002   */\n      dup5\n        /* \"#utility.yul\":17991:18014   */\n      sub\n        /* \"#utility.yul\":17987:18019   */\n      slt\n        /* \"#utility.yul\":17984:18036   */\n      iszero\n      tag_664\n      jumpi\n        /* \"#utility.yul\":18032:18033   */\n      0x00\n        /* \"#utility.yul\":18029:18030   */\n      dup1\n        /* \"#utility.yul\":18022:18034   */\n      revert\n        /* \"#utility.yul\":17984:18036   */\n    tag_664:\n        /* \"#utility.yul\":18064:18073   */\n      dup2\n        /* \"#utility.yul\":18058:18074   */\n      mload\n        /* \"#utility.yul\":18083:18113   */\n      tag_297\n        /* \"#utility.yul\":18107:18112   */\n      dup2\n        /* \"#utility.yul\":18083:18113   */\n      tag_514\n      jump\t// in\n        /* \"#utility.yul\":19631:19905   */\n    tag_486:\n        /* \"#utility.yul\":19760:19763   */\n      0x00\n        /* \"#utility.yul\":19798:19804   */\n      dup3\n        /* \"#utility.yul\":19792:19805   */\n      mload\n        /* \"#utility.yul\":19814:19867   */\n      tag_671\n        /* \"#utility.yul\":19860:19866   */\n      dup2\n        /* \"#utility.yul\":19855:19858   */\n      dup5\n        /* \"#utility.yul\":19848:19852   */\n      0x20\n        /* \"#utility.yul\":19840:19846   */\n      dup8\n        /* \"#utility.yul\":19836:19853   */\n      add\n        /* \"#utility.yul\":19814:19867   */\n      tag_512\n      jump\t// in\n    tag_671:\n        /* \"#utility.yul\":19883:19899   */\n      swap2\n      swap1\n      swap2\n      add\n      swap3\n        /* \"#utility.yul\":19631:19905   */\n      swap2\n      pop\n      pop\n      jump\t// out\n\n    auxdata: 0xa2646970667358221220e33f2f2897212504c1abea71bafe153e1081476543d10e3f2c757f09ae72249164736f6c634300080d0033\n}\n",
    "bytecode": {
      "linkReferences": {},
      "object": "60c06040523480156200001157600080fd5b50604051620026e8380380620026e88339810160408190526200003491620001e3565b604080518082018252600981526821b430b930b1ba32b960b91b602080830191825283518085019094526006845265242aa72a22a960d11b908401528151919291620000839160009162000124565b5080516200009990600190602084019062000124565b505050620000b6620000b0620000ce60201b60201c565b620000d2565b6001600160a01b039182166080521660a0526200025e565b3390565b600680546001600160a01b038381166001600160a01b0319831681179093556040519116919082907f8be0079c531659141344cd1fd0a4f28419497f9722a3daafe3b4186f6b6457e090600090a35050565b828054620001329062000222565b90600052602060002090601f016020900481019282620001565760008555620001a1565b82601f106200017157805160ff1916838001178555620001a1565b82800160010185558215620001a1579182015b82811115620001a157825182559160200191906001019062000184565b50620001af929150620001b3565b5090565b5b80821115620001af5760008155600101620001b4565b6001600160a01b0381168114620001e057600080fd5b50565b60008060408385031215620001f757600080fd5b82516200020481620001ca565b60208401519092506200021781620001ca565b809150509250929050565b600181811c908216806200023757607f821691505b6020821081036200025857634e487b7160e01b600052602260045260246000fd5b50919050565b60805160a051612456620002926000396000818161037c015261068c0152600081816102810152610bfc01526124566000f3fe608060405234801561001057600080fd5b50600436106101c35760003560e01c806370a08231116100f9578063adf448d811610097578063c87b56dd11610071578063c87b56dd14610402578063e51c4ecc14610415578063e985e9c514610428578063f2fde38b1461046457600080fd5b8063adf448d8146103b9578063b88d4fde146103dc578063c6cc5105146103ef57600080fd5b80638da5cb5b116100d35780638da5cb5b14610366578063941db0001461037757806395d89b411461039e578063a22cb465146103a657600080fd5b806370a0823114610338578063715018a61461034b5780637ae275601461035357600080fd5b806323b872dd116101665780633b092f39116101405780633b092f39146102df57806342842e0e146102ff5780634f068da7146103125780636352211e1461032557600080fd5b806323b872dd146102a357806334451530146102b6578063363dd19e146102d757600080fd5b8063081812fc116101a2578063081812fc1461021c5780630857211914610247578063095ea7b31461026757806311df99951461027c57600080fd5b8062ad800c146101c857806301ffc9a7146101f157806306fdde0314610214575b600080fd5b6101db6101d6366004611d8a565b610477565b6040516101e89190611dfb565b60405180910390f35b6102046101ff366004611e24565b610511565b60405190151581526020016101e8565b6101db610563565b61022f61022a366004611d8a565b6105f5565b6040516001600160a01b0390911681526020016101e8565b61025a610255366004611e5d565b61061c565b6040516101e89190611e78565b61027a610275366004611ebc565b610741565b005b61022f7f000000000000000000000000000000000000000000000000000000000000000081565b61027a6102b1366004611ee6565b61085b565b6102c96102c4366004611f22565b6108d3565b6040519081526020016101e8565b61027a610904565b6102c96102ed366004611e5d565b60096020526000908152604090205481565b61027a61030d366004611ee6565b610a4a565b6102c9610320366004611d8a565b610a65565b61022f610333366004611d8a565b610a9a565b6102c9610346366004611e5d565b610aff565b61027a610b99565b61027a610361366004611f22565b610bad565b6006546001600160a01b031661022f565b61022f7f000000000000000000000000000000000000000000000000000000000000000081565b6101db610cde565b61027a6103b4366004611f52565b610ced565b6102046103c7366004611e5d565b60086020526000908152604090205460ff1681565b61027a6103ea366004612036565b610cfc565b61025a6103fd366004611e5d565b610d7b565b6101db610410366004611d8a565b610df3565b61027a6104233660046120b2565b610e67565b61020461043636600461210d565b6001600160a01b03918216600090815260056020908152604080832093909416825291909152205460ff1690565b61027a610472366004611e5d565b610ed6565b600a602052600090815260409020805461049090612140565b80601f01602080910402602001604051908101604052809291908181526020018280546104bc90612140565b80156105095780601f106104de57610100808354040283529160200191610509565b820191906000526020600020905b8154815290600101906020018083116104ec57829003601f168201915b505050505081565b60006001600160e01b031982166380ac58cd60e01b148061054257506001600160e01b03198216635b5e139f60e01b145b8061055d57506301ffc9a760e01b6001600160e01b03198316145b92915050565b60606000805461057290612140565b80601f016020809104026020016040519081016040528092919081815260200182805461059e90612140565b80156105eb5780601f106105c0576101008083540402835291602001916105eb565b820191906000526020600020905b8154815290600101906020018083116105ce57829003601f168201915b5050505050905090565b600061060082610f66565b506000908152600460205260409020546001600160a01b031690565b6001600160a01b0381166000908152600960205260409081902054815160038082526080820190935260609281602001602082028036833701905050915060005b6000828152600b602052604090205481101561073a5760405163335dd05f60e01b8152600481018290526000907f00000000000000000000000000000000000000000000000000000000000000006001600160a01b03169063335dd05f90602401600060405180830381865afa1580156106db573d6000803e3d6000fd5b505050506040513d6000823e601f3d908101601f1916820160405261070391908101906121b9565b9450505050508084838151811061071c5761071c612255565b6020908102919091010152508061073281612281565b91505061065d565b5050919050565b600061074c82610a9a565b9050806001600160a01b0316836001600160a01b0316036107be5760405162461bcd60e51b815260206004820152602160248201527f4552433732313a20617070726f76616c20746f2063757272656e74206f776e656044820152603960f91b60648201526084015b60405180910390fd5b336001600160a01b03821614806107da57506107da8133610436565b61084c5760405162461bcd60e51b815260206004820152603e60248201527f4552433732313a20617070726f76652063616c6c6572206973206e6f7420746f60448201527f6b656e206f776e6572206e6f7220617070726f76656420666f7220616c6c000060648201526084016107b5565b6108568383610fca565b505050565b6108653382611038565b6108c85760405162461bcd60e51b815260206004820152602e60248201527f4552433732313a2063616c6c6572206973206e6f7420746f6b656e206f776e6560448201526d1c881b9bdc88185c1c1c9bdd995960921b60648201526084016107b5565b6108568383836110b7565b600b60205281600052604060002081815481106108ef57600080fd5b90600052602060002001600091509150505481565b3360009081526008602052604090205460ff16156109645760405162461bcd60e51b815260206004820152601060248201527f416c72656164792073756d6d6f6e65640000000000000000000000000000000060448201526064016107b5565b610972600780546001019055565b600061097d60075490565b90506109883361126b565b6000828152600a6020908152604090912082516109ab9391929190910190611cb1565b50604080516060810182526001815260006020808301829052828401829052848252600b9052919091206109e0916003611d35565b50336000818152600860209081526040808320805460ff1916600117905560099091529020829055610a129082611281565b60405181815233907fbbb46266402c42849573c27abc27dd180e2b8ec8f33840ca8b0919227659e3999060200160405180910390a250565b61085683838360405180602001604052806000815250610cfc565b6000808211610a7e5750670de0b6b3a764000080610a94565b610a9082670de0b6b3a764000061229a565b9050805b50919050565b6000818152600260205260408120546001600160a01b03168061055d5760405162461bcd60e51b815260206004820152601860248201527f4552433732313a20696e76616c696420746f6b656e204944000000000000000060448201526064016107b5565b60006001600160a01b038216610b7d5760405162461bcd60e51b815260206004820152602960248201527f4552433732313a2061646472657373207a65726f206973206e6f74206120766160448201527f6c6964206f776e6572000000000000000000000000000000000000000000000060648201526084016107b5565b506001600160a01b031660009081526003602052604090205490565b610ba161129b565b610bab60006112f5565b565b610bb561129b565b6000828152600b60205260408120805483908110610bd557610bd5612255565b906000526020600020015490506000610bed82610a65565b9050610c256001600160a01b037f00000000000000000000000000000000000000000000000000000000000000001633600184611347565b610c308260016122b9565b6000858152600b60205260409020805485908110610c5057610c50612255565b9060005260206000200181905550336001600160a01b03167faa4e97eeb4fd5355c649ee3f0c8a2bb57442a5d8d81b7af85422d800a4bbe24e600b60008781526020019081526020016000208581548110610cad57610cad612255565b906000526020600020015486604051610cd0929190918252602082015260400190565b60405180910390a250505050565b60606001805461057290612140565b610cf83383836113b6565b5050565b610d063383611038565b610d695760405162461bcd60e51b815260206004820152602e60248201527f4552433732313a2063616c6c6572206973206e6f7420746f6b656e206f776e6560448201526d1c881b9bdc88185c1c1c9bdd995960921b60648201526084016107b5565b610d7584848484611484565b50505050565b6001600160a01b038116600090815260096020908152604080832054808452600b835292819020805482518185028101850190935280835260609493830182828015610de657602002820191906000526020600020905b815481526020019060010190808311610dd2575b5050505050915050919050565b6060610dfe82610f66565b6000610e1560408051602081019091526000815290565b90506000815111610e355760405180602001604052806000815250610e60565b80610e3f84611502565b604051602001610e509291906122d1565b6040516020818303038152906040525b9392505050565b610e6f61129b565b6000828152600a602090815260409091208251610e8e92840190611cb1565b50336001600160a01b03167f68a7f81800258a01d20fc5c11938b8d2251d25ffb372e6c11b1c83fa7d421db08284604051610eca929190612300565b60405180910390a25050565b610ede61129b565b6001600160a01b038116610f5a5760405162461bcd60e51b815260206004820152602660248201527f4f776e61626c653a206e6577206f776e657220697320746865207a65726f206160448201527f646472657373000000000000000000000000000000000000000000000000000060648201526084016107b5565b610f63816112f5565b50565b6000818152600260205260409020546001600160a01b0316610f635760405162461bcd60e51b815260206004820152601860248201527f4552433732313a20696e76616c696420746f6b656e204944000000000000000060448201526064016107b5565b600081815260046020526040902080546001600160a01b0319166001600160a01b0384169081179091558190610fff82610a9a565b6001600160a01b03167f8c5be1e5ebec7d5bd14f71427d1e84f3dd0314c0f7b2291e5b200ac8c7c3b92560405160405180910390a45050565b60008061104483610a9a565b9050806001600160a01b0316846001600160a01b0316148061108b57506001600160a01b0380821660009081526005602090815260408083209388168352929052205460ff165b806110af5750836001600160a01b03166110a4846105f5565b6001600160a01b0316145b949350505050565b826001600160a01b03166110ca82610a9a565b6001600160a01b0316146111465760405162461bcd60e51b815260206004820152602560248201527f4552433732313a207472616e736665722066726f6d20696e636f72726563742060448201527f6f776e657200000000000000000000000000000000000000000000000000000060648201526084016107b5565b6001600160a01b0382166111a85760405162461bcd60e51b8152602060048201526024808201527f4552433732313a207472616e7366657220746f20746865207a65726f206164646044820152637265737360e01b60648201526084016107b5565b6111b3600082610fca565b6001600160a01b03831660009081526003602052604081208054600192906111dc908490612322565b90915550506001600160a01b038216600090815260036020526040812080546001929061120a9084906122b9565b909155505060008181526002602052604080822080546001600160a01b0319166001600160a01b0386811691821790925591518493918716917fddf252ad1be2c89b69c2b068fc378daa952ba7f163c4a11628f55a4df523b3ef91a4505050565b606061055d6001600160a01b0383166014611603565b610cf88282604051806020016040528060008152506117ac565b6006546001600160a01b03163314610bab5760405162461bcd60e51b815260206004820181905260248201527f4f776e61626c653a2063616c6c6572206973206e6f7420746865206f776e657260448201526064016107b5565b600680546001600160a01b038381166001600160a01b0319831681179093556040519116919082907f8be0079c531659141344cd1fd0a4f28419497f9722a3daafe3b4186f6b6457e090600090a35050565b604080516001600160a01b0385811660248301528416604482015260648082018490528251808303909101815260849091019091526020810180517bffffffffffffffffffffffffffffffffffffffffffffffffffffffff166323b872dd60e01b179052610d7590859061182a565b816001600160a01b0316836001600160a01b0316036114175760405162461bcd60e51b815260206004820152601960248201527f4552433732313a20617070726f766520746f2063616c6c65720000000000000060448201526064016107b5565b6001600160a01b03838116600081815260056020908152604080832094871680845294825291829020805460ff191686151590811790915591519182527f17307eab39ab6107e8899845ad3d59bd9653f200f220920489ca2b5937696c31910160405180910390a3505050565b61148f8484846110b7565b61149b8484848461190f565b610d755760405162461bcd60e51b815260206004820152603260248201527f4552433732313a207472616e7366657220746f206e6f6e20455243373231526560448201527131b2b4bb32b91034b6b83632b6b2b73a32b960711b60648201526084016107b5565b6060816000036115295750506040805180820190915260018152600360fc1b602082015290565b8160005b8115611553578061153d81612281565b915061154c9050600a8361234f565b915061152d565b60008167ffffffffffffffff81111561156e5761156e611f89565b6040519080825280601f01601f191660200182016040528015611598576020820181803683370190505b5090505b84156110af576115ad600183612322565b91506115ba600a86612363565b6115c59060306122b9565b60f81b8183815181106115da576115da612255565b60200101906001600160f81b031916908160001a9053506115fc600a8661234f565b945061159c565b6060600061161283600261229a565b61161d9060026122b9565b67ffffffffffffffff81111561163557611635611f89565b6040519080825280601f01601f19166020018201604052801561165f576020820181803683370190505b509050600360fc1b8160008151811061167a5761167a612255565b60200101906001600160f81b031916908160001a905350600f60fb1b816001815181106116a9576116a9612255565b60200101906001600160f81b031916908160001a90535060006116cd84600261229a565b6116d89060016122b9565b90505b600181111561175d577f303132333435363738396162636465660000000000000000000000000000000085600f166010811061171957611719612255565b1a60f81b82828151811061172f5761172f612255565b60200101906001600160f81b031916908160001a90535060049490941c9361175681612377565b90506116db565b508315610e605760405162461bcd60e51b815260206004820181905260248201527f537472696e67733a20686578206c656e67746820696e73756666696369656e7460448201526064016107b5565b6117b68383611a5b565b6117c3600084848461190f565b6108565760405162461bcd60e51b815260206004820152603260248201527f4552433732313a207472616e7366657220746f206e6f6e20455243373231526560448201527131b2b4bb32b91034b6b83632b6b2b73a32b960711b60648201526084016107b5565b600061187f826040518060400160405280602081526020017f5361666545524332303a206c6f772d6c6576656c2063616c6c206661696c6564815250856001600160a01b0316611b9d9092919063ffffffff16565b805190915015610856578080602001905181019061189d919061238e565b6108565760405162461bcd60e51b815260206004820152602a60248201527f5361666545524332303a204552433230206f7065726174696f6e20646964206e60448201527f6f7420737563636565640000000000000000000000000000000000000000000060648201526084016107b5565b60006001600160a01b0384163b15611a5057604051630a85bd0160e11b81526001600160a01b0385169063150b7a02906119539033908990889088906004016123ab565b6020604051808303816000875af192505050801561198e575060408051601f3d908101601f1916820190925261198b918101906123e7565b60015b611a36573d8080156119bc576040519150601f19603f3d011682016040523d82523d6000602084013e6119c1565b606091505b508051600003611a2e5760405162461bcd60e51b815260206004820152603260248201527f4552433732313a207472616e7366657220746f206e6f6e20455243373231526560448201527131b2b4bb32b91034b6b83632b6b2b73a32b960711b60648201526084016107b5565b805181602001fd5b6001600160e01b031916630a85bd0160e11b1490506110af565b506001949350505050565b6001600160a01b038216611ab15760405162461bcd60e51b815260206004820181905260248201527f4552433732313a206d696e7420746f20746865207a65726f206164647265737360448201526064016107b5565b6000818152600260205260409020546001600160a01b031615611b165760405162461bcd60e51b815260206004820152601c60248201527f4552433732313a20746f6b656e20616c7265616479206d696e7465640000000060448201526064016107b5565b6001600160a01b0382166000908152600360205260408120805460019290611b3f9084906122b9565b909155505060008181526002602052604080822080546001600160a01b0319166001600160a01b03861690811790915590518392907fddf252ad1be2c89b69c2b068fc378daa952ba7f163c4a11628f55a4df523b3ef908290a45050565b60606110af8484600085856001600160a01b0385163b611bff5760405162461bcd60e51b815260206004820152601d60248201527f416464726573733a2063616c6c20746f206e6f6e2d636f6e747261637400000060448201526064016107b5565b600080866001600160a01b03168587604051611c1b9190612404565b60006040518083038185875af1925050503d8060008114611c58576040519150601f19603f3d011682016040523d82523d6000602084013e611c5d565b606091505b5091509150611c6d828286611c78565b979650505050505050565b60608315611c87575081610e60565b825115611c975782518084602001fd5b8160405162461bcd60e51b81526004016107b59190611dfb565b828054611cbd90612140565b90600052602060002090601f016020900481019282611cdf5760008555611d25565b82601f10611cf857805160ff1916838001178555611d25565b82800160010185558215611d25579182015b82811115611d25578251825591602001919060010190611d0a565b50611d31929150611d75565b5090565b828054828255906000526020600020908101928215611d25579160200282015b82811115611d25578251829060ff16905591602001919060010190611d55565b5b80821115611d315760008155600101611d76565b600060208284031215611d9c57600080fd5b5035919050565b60005b83811015611dbe578181015183820152602001611da6565b83811115610d755750506000910152565b60008151808452611de7816020860160208601611da3565b601f01601f19169290920160200192915050565b602081526000610e606020830184611dcf565b6001600160e01b031981168114610f6357600080fd5b600060208284031215611e3657600080fd5b8135610e6081611e0e565b80356001600160a01b0381168114611e5857600080fd5b919050565b600060208284031215611e6f57600080fd5b610e6082611e41565b6020808252825182820181905260009190848201906040850190845b81811015611eb057835183529284019291840191600101611e94565b50909695505050505050565b60008060408385031215611ecf57600080fd5b611ed883611e41565b946020939093013593505050565b600080600060608486031215611efb57600080fd5b611f0484611e41565b9250611f1260208501611e41565b9150604084013590509250925092565b60008060408385031215611f3557600080fd5b50508035926020909101359150565b8015158114610f6357600080fd5b60008060408385031215611f6557600080fd5b611f6e83611e41565b91506020830135611f7e81611f44565b809150509250929050565b634e487b7160e01b600052604160045260246000fd5b604051601f8201601f1916810167ffffffffffffffff81118282101715611fc857611fc8611f89565b604052919050565b600067ffffffffffffffff821115611fea57611fea611f89565b50601f01601f191660200190565b600061200b61200684611fd0565b611f9f565b905082815283838301111561201f57600080fd5b828260208301376000602084830101529392505050565b6000806000806080858703121561204c57600080fd5b61205585611e41565b935061206360208601611e41565b925060408501359150606085013567ffffffffffffffff81111561208657600080fd5b8501601f8101871361209757600080fd5b6120a687823560208401611ff8565b91505092959194509250565b600080604083850312156120c557600080fd5b82359150602083013567ffffffffffffffff8111156120e357600080fd5b8301601f810185136120f457600080fd5b61210385823560208401611ff8565b9150509250929050565b6000806040838503121561212057600080fd5b61212983611e41565b915061213760208401611e41565b90509250929050565b600181811c9082168061215457607f821691505b602082108103610a9457634e487b7160e01b600052602260045260246000fd5b600082601f83011261218557600080fd5b815161219361200682611fd0565b8181528460208386010111156121a857600080fd5b6110af826020830160208701611da3565b600080600080600060a086880312156121d157600080fd5b85519450602086015167ffffffffffffffff808211156121f057600080fd5b6121fc89838a01612174565b9550604088015191508082111561221257600080fd5b61221e89838a01612174565b9450606088015191508082111561223457600080fd5b5061224188828901612174565b925050608086015190509295509295909350565b634e487b7160e01b600052603260045260246000fd5b634e487b7160e01b600052601160045260246000fd5b6000600182016122935761229361226b565b5060010190565b60008160001904831182151516156122b4576122b461226b565b500290565b600082198211156122cc576122cc61226b565b500190565b600083516122e3818460208801611da3565b8351908301906122f7818360208801611da3565b01949350505050565b6040815260006123136040830185611dcf565b90508260208301529392505050565b6000828210156123345761233461226b565b500390565b634e487b7160e01b600052601260045260246000fd5b60008261235e5761235e612339565b500490565b60008261237257612372612339565b500690565b6000816123865761238661226b565b506000190190565b6000602082840312156123a057600080fd5b8151610e6081611f44565b60006001600160a01b038087168352808616602084015250836040830152608060608301526123dd6080830184611dcf565b9695505050505050565b6000602082840312156123f957600080fd5b8151610e6081611e0e565b60008251612416818460208701611da3565b919091019291505056fea2646970667358221220e33f2f2897212504c1abea71bafe153e1081476543d10e3f2c757f09ae72249164736f6c634300080d0033",
      "opcodes": "PUSH1 0xC0 PUSH1 0x40 MSTORE CALLVALUE DUP1 ISZERO PUSH3 0x11 JUMPI PUSH1 0x0 DUP1 REVERT JUMPDEST POP PUSH1 0x40 MLOAD PUSH3 0x26E8 CODESIZE SUB DUP1 PUSH3 0x26E8 DUP4 CODECOPY DUP2 ADD PUSH1 0x40 DUP2 SWAP1 MSTORE PUSH3 0x34 SWAP2 PUSH3 0x1E3 JUMP JUMPDEST PUSH1 0x40 DUP1 MLOAD DUP1 DUP3 ADD DUP3 MSTORE PUSH1 0x9 DUP2 MSTORE PUSH9 0x21B430B930B1BA32B9 PUSH1 0xB9 SHL PUSH1 0x20 DUP1 DUP4 ADD SWAP2 DUP3 MSTORE DUP4 MLOAD DUP1 DUP6 ADD SWAP1 SWAP5 MSTORE PUSH1 0x6 DUP5 MSTORE PUSH6 0x242AA72A22A9 PUSH1 0xD1 SHL SWAP1 DUP5 ADD MSTORE DUP2 MLOAD SWAP2 SWAP3 SWAP2 PUSH3 0x83 SWAP2 PUSH1 0x0 SWAP2 PUSH3 0x124 JUMP JUMPDEST POP DUP1 MLOAD PUSH3 0x99 SWAP1 PUSH1 0x1 SWAP1 PUSH1 0x20 DUP5 ADD SWAP1 PUSH3 0x124 JUMP JUMPDEST POP POP POP PUSH3 0xB6 PUSH3 0xB0 PUSH3 0xCE PUSH1 0x20 SHL PUSH1 0x20 SHR JUMP JUMPDEST PUSH3 0xD2 JUMP JUMPDEST PUSH1 0x1 PUSH1 0x1 PUSH1 0xA0 SHL SUB SWAP2 DUP3 AND PUSH1 0x80 MSTORE AND PUSH1 0xA0 MSTORE PUSH3 0x25E JUMP JUMPDEST CALLER SWAP1 JUMP JUMPDEST PUSH1 0x6 DUP1 SLOAD PUSH1 0x1 PUSH1 0x1 PUSH1 0xA0 SHL SUB DUP4 DUP2 AND PUSH1 0x1 PUSH1 0x1 PUSH1 0xA0 SHL SUB NOT DUP4 AND DUP2 OR SWAP1 SWAP4 SSTORE PUSH1 0x40 MLOAD SWAP2 AND SWAP2 SWAP1 DUP3 SWAP1 PUSH32 0x8BE0079C531659141344CD1FD0A4F28419497F9722A3DAAFE3B4186F6B6457E0 SWAP1 PUSH1 0x0 SWAP1 LOG3 POP POP JUMP JUMPDEST DUP3 DUP1 SLOAD PUSH3 0x132 SWAP1 PUSH3 0x222 JUMP JUMPDEST SWAP1 PUSH1 0x0 MSTORE PUSH1 0x20 PUSH1 0x0 KECCAK256 SWAP1 PUSH1 0x1F ADD PUSH1 0x20 SWAP1 DIV DUP2 ADD SWAP3 DUP3 PUSH3 0x156 JUMPI PUSH1 0x0 DUP6 SSTORE PUSH3 0x1A1 JUMP JUMPDEST DUP3 PUSH1 0x1F LT PUSH3 0x171 JUMPI DUP1 MLOAD PUSH1 0xFF NOT AND DUP4 DUP1 ADD OR DUP6 SSTORE PUSH3 0x1A1 JUMP JUMPDEST DUP3 DUP1 ADD PUSH1 0x1 ADD DUP6 SSTORE DUP3 ISZERO PUSH3 0x1A1 JUMPI SWAP2 DUP3 ADD JUMPDEST DUP3 DUP2 GT ISZERO PUSH3 0x1A1 JUMPI DUP3 MLOAD DUP3 SSTORE SWAP2 PUSH1 0x20 ADD SWAP2 SWAP1 PUSH1 0x1 ADD SWAP1 PUSH3 0x184 JUMP JUMPDEST POP PUSH3 0x1AF SWAP3 SWAP2 POP PUSH3 0x1B3 JUMP JUMPDEST POP SWAP1 JUMP JUMPDEST JUMPDEST DUP1 DUP3 GT ISZERO PUSH3 0x1AF JUMPI PUSH1 0x0 DUP2 SSTORE PUSH1 0x1 ADD PUSH3 0x1B4 JUMP JUMPDEST PUSH1 0x1 PUSH1 0x1 PUSH1 0xA0 SHL SUB DUP2 AND DUP2 EQ PUSH3 0x1E0 JUMPI PUSH1 0x0 DUP1 REVERT JUMPDEST POP JUMP JUMPDEST PUSH1 0x0 DUP1 PUSH1 0x40 DUP4 DUP6 SUB SLT ISZERO PUSH3 0x1F7 JUMPI PUSH1 0x0 DUP1 REVERT JUMPDEST DUP3 MLOAD PUSH3 0x204 DUP2 PUSH3 0x1CA JUMP JUMPDEST PUSH1 0x20 DUP5 ADD MLOAD SWAP1 SWAP3 POP PUSH3 0x217 DUP2 PUSH3 0x1CA JUMP JUMPDEST DUP1 SWAP2 POP POP SWAP3 POP SWAP3 SWAP1 POP JUMP JUMPDEST PUSH1 0x1 DUP2 DUP2 SHR SWAP1 DUP3 AND DUP1 PUSH3 0x237 JUMPI PUSH1 0x7F DUP3 AND SWAP2 POP JUMPDEST PUSH1 0x20 DUP3 LT DUP2 SUB PUSH3 0x258 JUMPI PUSH4 0x4E487B71 PUSH1 0xE0 SHL PUSH1 0x0 MSTORE PUSH1 0x22 PUSH1 0x4 MSTORE PUSH1 0x24 PUSH1 0x0 REVERT JUMPDEST POP SWAP2 SWAP1 POP JUMP JUMPDEST PUSH1 0x80 MLOAD PUSH1 0xA0 MLOAD PUSH2 0x2456 PUSH3 0x292 PUSH1 0x0 CODECOPY PUSH1 0x0 DUP2 DUP2 PUSH2 0x37C ADD MSTORE PUSH2 0x68C ADD MSTORE PUSH1 0x0 DUP2 DUP2 PUSH2 0x281 ADD MSTORE PUSH2 0xBFC ADD MSTORE PUSH2 0x2456 PUSH1 0x0 RETURN INVALID PUSH1 0x80 PUSH1 0x40 MSTORE CALLVALUE DUP1 ISZERO PUSH2 0x10 JUMPI PUSH1 0x0 DUP1 REVERT JUMPDEST POP PUSH1 0x4 CALLDATASIZE LT PUSH2 0x1C3 JUMPI PUSH1 0x0 CALLDATALOAD PUSH1 0xE0 SHR DUP1 PUSH4 0x70A08231 GT PUSH2 0xF9 JUMPI DUP1 PUSH4 0xADF448D8 GT PUSH2 0x97 JUMPI DUP1 PUSH4 0xC87B56DD GT PUSH2 0x71 JUMPI DUP1 PUSH4 0xC87B56DD EQ PUSH2 0x402 JUMPI DUP1 PUSH4 0xE51C4ECC EQ PUSH2 0x415 JUMPI DUP1 PUSH4 0xE985E9C5 EQ PUSH2 0x428 JUMPI DUP1 PUSH4 0xF2FDE38B EQ PUSH2 0x464 JUMPI PUSH1 0x0 DUP1 REVERT JUMPDEST DUP1 PUSH4 0xADF448D8 EQ PUSH2 0x3B9 JUMPI DUP1 PUSH4 0xB88D4FDE EQ PUSH2 0x3DC JUMPI DUP1 PUSH4 0xC6CC5105 EQ PUSH2 0x3EF JUMPI PUSH1 0x0 DUP1 REVERT JUMPDEST DUP1 PUSH4 0x8DA5CB5B GT PUSH2 0xD3 JUMPI DUP1 PUSH4 0x8DA5CB5B EQ PUSH2 0x366 JUMPI DUP1 PUSH4 0x941DB000 EQ PUSH2 0x377 JUMPI DUP1 PUSH4 0x95D89B41 EQ PUSH2 0x39E JUMPI DUP1 PUSH4 0xA22CB465 EQ PUSH2 0x3A6 JUMPI PUSH1 0x0 DUP1 REVERT JUMPDEST DUP1 PUSH4 0x70A08231 EQ PUSH2 0x338 JUMPI DUP1 PUSH4 0x715018A6 EQ PUSH2 0x34B JUMPI DUP1 PUSH4 0x7AE27560 EQ PUSH2 0x353 JUMPI PUSH1 0x0 DUP1 REVERT JUMPDEST DUP1 PUSH4 0x23B872DD GT PUSH2 0x166 JUMPI DUP1 PUSH4 0x3B092F39 GT PUSH2 0x140 JUMPI DUP1 PUSH4 0x3B092F39 EQ PUSH2 0x2DF JUMPI DUP1 PUSH4 0x42842E0E EQ PUSH2 0x2FF JUMPI DUP1 PUSH4 0x4F068DA7 EQ PUSH2 0x312 JUMPI DUP1 PUSH4 0x6352211E EQ PUSH2 0x325 JUMPI PUSH1 0x0 DUP1 REVERT JUMPDEST DUP1 PUSH4 0x23B872DD EQ PUSH2 0x2A3 JUMPI DUP1 PUSH4 0x34451530 EQ PUSH2 0x2B6 JUMPI DUP1 PUSH4 0x363DD19E EQ PUSH2 0x2D7 JUMPI PUSH1 0x0 DUP1 REVERT JUMPDEST DUP1 PUSH4 0x81812FC GT PUSH2 0x1A2 JUMPI DUP1 PUSH4 0x81812FC EQ PUSH2 0x21C JUMPI DUP1 PUSH4 0x8572119 EQ PUSH2 0x247 JUMPI DUP1 PUSH4 0x95EA7B3 EQ PUSH2 0x267 JUMPI DUP1 PUSH4 0x11DF9995 EQ PUSH2 0x27C JUMPI PUSH1 0x0 DUP1 REVERT JUMPDEST DUP1 PUSH3 0xAD800C EQ PUSH2 0x1C8 JUMPI DUP1 PUSH4 0x1FFC9A7 EQ PUSH2 0x1F1 JUMPI DUP1 PUSH4 0x6FDDE03 EQ PUSH2 0x214 JUMPI JUMPDEST PUSH1 0x0 DUP1 REVERT JUMPDEST PUSH2 0x1DB PUSH2 0x1D6 CALLDATASIZE PUSH1 0x4 PUSH2 0x1D8A JUMP JUMPDEST PUSH2 0x477 JUMP JUMPDEST PUSH1 0x40 MLOAD PUSH2 0x1E8 SWAP2 SWAP1 PUSH2 0x1DFB JUMP JUMPDEST PUSH1 0x40 MLOAD DUP1 SWAP2 SUB SWAP1 RETURN JUMPDEST PUSH2 0x204 PUSH2 0x1FF CALLDATASIZE PUSH1 0x4 PUSH2 0x1E24 JUMP JUMPDEST PUSH2 0x511 JUMP JUMPDEST PUSH1 0x40 MLOAD SWAP1 ISZERO ISZERO DUP2 MSTORE PUSH1 0x20 ADD PUSH2 0x1E8 JUMP JUMPDEST PUSH2 0x1DB PUSH2 0x563 JUMP JUMPDEST PUSH2 0x22F PUSH2 0x22A CALLDATASIZE PUSH1 0x4 PUSH2 0x1D8A JUMP JUMPDEST PUSH2 0x5F5 JUMP JUMPDEST PUSH1 0x40 MLOAD PUSH1 0x1 PUSH1 0x1 PUSH1 0xA0 SHL SUB SWAP1 SWAP2 AND DUP2 MSTORE PUSH1 0x20 ADD PUSH2 0x1E8 JUMP JUMPDEST PUSH2 0x25A PUSH2 0x255 CALLDATASIZE PUSH1 0x4 PUSH2 0x1E5D JUMP JUMPDEST PUSH2 0x61C JUMP JUMPDEST PUSH1 0x40 MLOAD PUSH2 0x1E8 SWAP2 SWAP1 PUSH2 0x1E78 JUMP JUMPDEST PUSH2 0x27A PUSH2 0x275 CALLDATASIZE PUSH1 0x4 PUSH2 0x1EBC JUMP JUMPDEST PUSH2 0x741 JUMP JUMPDEST STOP JUMPDEST PUSH2 0x22F PUSH32 0x0 DUP2 JUMP JUMPDEST PUSH2 0x27A PUSH2 0x2B1 CALLDATASIZE PUSH1 0x4 PUSH2 0x1EE6 JUMP JUMPDEST PUSH2 0x85B JUMP JUMPDEST PUSH2 0x2C9 PUSH2 0x2C4 CALLDATASIZE PUSH1 0x4 PUSH2 0x1F22 JUMP JUMPDEST PUSH2 0x8D3 JUMP JUMPDEST PUSH1 0x40 MLOAD SWAP1 DUP2 MSTORE PUSH1 0x20 ADD PUSH2 0x1E8 JUMP JUMPDEST PUSH2 0x27A PUSH2 0x904 JUMP JUMPDEST PUSH2 0x2C9 PUSH2 0x2ED CALLDATASIZE PUSH1 0x4 PUSH2 0x1E5D JUMP JUMPDEST PUSH1 0x9 PUSH1 0x20 MSTORE PUSH1 0x0 SWAP1 DUP2 MSTORE PUSH1 0x40 SWAP1 KECCAK256 SLOAD DUP2 JUMP JUMPDEST PUSH2 0x27A PUSH2 0x30D CALLDATASIZE PUSH1 0x4 PUSH2 0x1EE6 JUMP JUMPDEST PUSH2 0xA4A JUMP JUMPDEST PUSH2 0x2C9 PUSH2 0x320 CALLDATASIZE PUSH1 0x4 PUSH2 0x1D8A JUMP JUMPDEST PUSH2 0xA65 JUMP JUMPDEST PUSH2 0x22F PUSH2 0x333 CALLDATASIZE PUSH1 0x4 PUSH2 0x1D8A JUMP JUMPDEST PUSH2 0xA9A JUMP JUMPDEST PUSH2 0x2C9 PUSH2 0x346 CALLDATASIZE PUSH1 0x4 PUSH2 0x1E5D JUMP JUMPDEST PUSH2 0xAFF JUMP JUMPDEST PUSH2 0x27A PUSH2 0xB99 JUMP JUMPDEST PUSH2 0x27A PUSH2 0x361 CALLDATASIZE PUSH1 0x4 PUSH2 0x1F22 JUMP JUMPDEST PUSH2 0xBAD JUMP JUMPDEST PUSH1 0x6 SLOAD PUSH1 0x1 PUSH1 0x1 PUSH1 0xA0 SHL SUB AND PUSH2 0x22F JUMP JUMPDEST PUSH2 0x22F PUSH32 0x0 DUP2 JUMP JUMPDEST PUSH2 0x1DB PUSH2 0xCDE JUMP JUMPDEST PUSH2 0x27A PUSH2 0x3B4 CALLDATASIZE PUSH1 0x4 PUSH2 0x1F52 JUMP JUMPDEST PUSH2 0xCED JUMP JUMPDEST PUSH2 0x204 PUSH2 0x3C7 CALLDATASIZE PUSH1 0x4 PUSH2 0x1E5D JUMP JUMPDEST PUSH1 0x8 PUSH1 0x20 MSTORE PUSH1 0x0 SWAP1 DUP2 MSTORE PUSH1 0x40 SWAP1 KECCAK256 SLOAD PUSH1 0xFF AND DUP2 JUMP JUMPDEST PUSH2 0x27A PUSH2 0x3EA CALLDATASIZE PUSH1 0x4 PUSH2 0x2036 JUMP JUMPDEST PUSH2 0xCFC JUMP JUMPDEST PUSH2 0x25A PUSH2 0x3FD CALLDATASIZE PUSH1 0x4 PUSH2 0x1E5D JUMP JUMPDEST PUSH2 0xD7B JUMP JUMPDEST PUSH2 0x1DB PUSH2 0x410 CALLDATASIZE PUSH1 0x4 PUSH2 0x1D8A JUMP JUMPDEST PUSH2 0xDF3 JUMP JUMPDEST PUSH2 0x27A PUSH2 0x423 CALLDATASIZE PUSH1 0x4 PUSH2 0x20B2 JUMP JUMPDEST PUSH2 0xE67 JUMP JUMPDEST PUSH2 0x204 PUSH2 0x436 CALLDATASIZE PUSH1 0x4 PUSH2 0x210D JUMP JUMPDEST PUSH1 0x1 PUSH1 0x1 PUSH1 0xA0 SHL SUB SWAP2 DUP3 AND PUSH1 0x0 SWAP1 DUP2 MSTORE PUSH1 0x5 PUSH1 0x20 SWAP1 DUP2 MSTORE PUSH1 0x40 DUP1 DUP4 KECCAK256 SWAP4 SWAP1 SWAP5 AND DUP3 MSTORE SWAP2 SWAP1 SWAP2 MSTORE KECCAK256 SLOAD PUSH1 0xFF AND SWAP1 JUMP JUMPDEST PUSH2 0x27A PUSH2 0x472 CALLDATASIZE PUSH1 0x4 PUSH2 0x1E5D JUMP JUMPDEST PUSH2 0xED6 JUMP JUMPDEST PUSH1 0xA PUSH1 0x20 MSTORE PUSH1 0x0 SWAP1 DUP2 MSTORE PUSH1 0x40 SWAP1 KECCAK256 DUP1 SLOAD PUSH2 0x490 SWAP1 PUSH2 0x2140 JUMP JUMPDEST DUP1 PUSH1 0x1F ADD PUSH1 0x20 DUP1 SWAP2 DIV MUL PUSH1 0x20 ADD PUSH1 0x40 MLOAD SWAP1 DUP2 ADD PUSH1 0x40 MSTORE DUP1 SWAP3 SWAP2 SWAP1 DUP2 DUP2 MSTORE PUSH1 0x20 ADD DUP3 DUP1 SLOAD PUSH2 0x4BC SWAP1 PUSH2 0x2140 JUMP JUMPDEST DUP1 ISZERO PUSH2 0x509 JUMPI DUP1 PUSH1 0x1F LT PUSH2 0x4DE JUMPI PUSH2 0x100 DUP1 DUP4 SLOAD DIV MUL DUP4 MSTORE SWAP2 PUSH1 0x20 ADD SWAP2 PUSH2 0x509 JUMP JUMPDEST DUP3 ADD SWAP2 SWAP1 PUSH1 0x0 MSTORE PUSH1 0x20 PUSH1 0x0 KECCAK256 SWAP1 JUMPDEST DUP2 SLOAD DUP2 MSTORE SWAP1 PUSH1 0x1 ADD SWAP1 PUSH1 0x20 ADD DUP1 DUP4 GT PUSH2 0x4EC JUMPI DUP3 SWAP1 SUB PUSH1 0x1F AND DUP3 ADD SWAP2 JUMPDEST POP POP POP POP POP DUP2 JUMP JUMPDEST PUSH1 0x0 PUSH1 0x1 PUSH1 0x1 PUSH1 0xE0 SHL SUB NOT DUP3 AND PUSH4 0x80AC58CD PUSH1 0xE0 SHL EQ DUP1 PUSH2 0x542 JUMPI POP PUSH1 0x1 PUSH1 0x1 PUSH1 0xE0 SHL SUB NOT DUP3 AND PUSH4 0x5B5E139F PUSH1 0xE0 SHL EQ JUMPDEST DUP1 PUSH2 0x55D JUMPI POP PUSH4 0x1FFC9A7 PUSH1 0xE0 SHL PUSH1 0x1 PUSH1 0x1 PUSH1 0xE0 SHL SUB NOT DUP4 AND EQ JUMPDEST SWAP3 SWAP2 POP POP JUMP JUMPDEST PUSH1 0x60 PUSH1 0x0 DUP1 SLOAD PUSH2 0x572 SWAP1 PUSH2 0x2140 JUMP JUMPDEST DUP1 PUSH1 0x1F ADD PUSH1 0x20 DUP1 SWAP2 DIV MUL PUSH1 0x20 ADD PUSH1 0x40 MLOAD SWAP1 DUP2 ADD PUSH1 0x40 MSTORE DUP1 SWAP3 SWAP2 SWAP1 DUP2 DUP2 MSTORE PUSH1 0x20 ADD DUP3 DUP1 SLOAD PUSH2 0x59E SWAP1 PUSH2 0x2140 JUMP JUMPDEST DUP1 ISZERO PUSH2 0x5EB JUMPI DUP1 PUSH1 0x1F LT PUSH2 0x5C0 JUMPI PUSH2 0x100 DUP1 DUP4 SLOAD DIV MUL DUP4 MSTORE SWAP2 PUSH1 0x20 ADD SWAP2 PUSH2 0x5EB JUMP JUMPDEST DUP3 ADD SWAP2 SWAP1 PUSH1 0x0 MSTORE PUSH1 0x20 PUSH1 0x0 KECCAK256 SWAP1 JUMPDEST DUP2 SLOAD DUP2 MSTORE SWAP1 PUSH1 0x1 ADD SWAP1 PUSH1 0x20 ADD DUP1 DUP4 GT PUSH2 0x5CE JUMPI DUP3 SWAP1 SUB PUSH1 0x1F AND DUP3 ADD SWAP2 JUMPDEST POP POP POP POP POP SWAP1 POP SWAP1 JUMP JUMPDEST PUSH1 0x0 PUSH2 0x600 DUP3 PUSH2 0xF66 JUMP JUMPDEST POP PUSH1 0x0 SWAP1 DUP2 MSTORE PUSH1 0x4 PUSH1 0x20 MSTORE PUSH1 0x40 SWAP1 KECCAK256 SLOAD PUSH1 0x1 PUSH1 0x1 PUSH1 0xA0 SHL SUB AND SWAP1 JUMP JUMPDEST PUSH1 0x1 PUSH1 0x1 PUSH1 0xA0 SHL SUB DUP2 AND PUSH1 0x0 SWAP1 DUP2 MSTORE PUSH1 0x9 PUSH1 0x20 MSTORE PUSH1 0x40 SWAP1 DUP2 SWAP1 KECCAK256 SLOAD DUP2 MLOAD PUSH1 0x3 DUP1 DUP3 MSTORE PUSH1 0x80 DUP3 ADD SWAP1 SWAP4 MSTORE PUSH1 0x60 SWAP3 DUP2 PUSH1 0x20 ADD PUSH1 0x20 DUP3 MUL DUP1 CALLDATASIZE DUP4 CALLDATACOPY ADD SWAP1 POP POP SWAP2 POP PUSH1 0x0 JUMPDEST PUSH1 0x0 DUP3 DUP2 MSTORE PUSH1 0xB PUSH1 0x20 MSTORE PUSH1 0x40 SWAP1 KECCAK256 SLOAD DUP2 LT ISZERO PUSH2 0x73A JUMPI PUSH1 0x40 MLOAD PUSH4 0x335DD05F PUSH1 0xE0 SHL DUP2 MSTORE PUSH1 0x4 DUP2 ADD DUP3 SWAP1 MSTORE PUSH1 0x0 SWAP1 PUSH32 0x0 PUSH1 0x1 PUSH1 0x1 PUSH1 0xA0 SHL SUB AND SWAP1 PUSH4 0x335DD05F SWAP1 PUSH1 0x24 ADD PUSH1 0x0 PUSH1 0x40 MLOAD DUP1 DUP4 SUB DUP2 DUP7 GAS STATICCALL ISZERO DUP1 ISZERO PUSH2 0x6DB JUMPI RETURNDATASIZE PUSH1 0x0 DUP1 RETURNDATACOPY RETURNDATASIZE PUSH1 0x0 REVERT JUMPDEST POP POP POP POP PUSH1 0x40 MLOAD RETURNDATASIZE PUSH1 0x0 DUP3 RETURNDATACOPY PUSH1 0x1F RETURNDATASIZE SWAP1 DUP2 ADD PUSH1 0x1F NOT AND DUP3 ADD PUSH1 0x40 MSTORE PUSH2 0x703 SWAP2 SWAP1 DUP2 ADD SWAP1 PUSH2 0x21B9 JUMP JUMPDEST SWAP5 POP POP POP POP POP DUP1 DUP5 DUP4 DUP2 MLOAD DUP2 LT PUSH2 0x71C JUMPI PUSH2 0x71C PUSH2 0x2255 JUMP JUMPDEST PUSH1 0x20 SWAP1 DUP2 MUL SWAP2 SWAP1 SWAP2 ADD ADD MSTORE POP DUP1 PUSH2 0x732 DUP2 PUSH2 0x2281 JUMP JUMPDEST SWAP2 POP POP PUSH2 0x65D JUMP JUMPDEST POP POP SWAP2 SWAP1 POP JUMP JUMPDEST PUSH1 0x0 PUSH2 0x74C DUP3 PUSH2 0xA9A JUMP JUMPDEST SWAP1 POP DUP1 PUSH1 0x1 PUSH1 0x1 PUSH1 0xA0 SHL SUB AND DUP4 PUSH1 0x1 PUSH1 0x1 PUSH1 0xA0 SHL SUB AND SUB PUSH2 0x7BE JUMPI PUSH1 0x40 MLOAD PUSH3 0x461BCD PUSH1 0xE5 SHL DUP2 MSTORE PUSH1 0x20 PUSH1 0x4 DUP3 ADD MSTORE PUSH1 0x21 PUSH1 0x24 DUP3 ADD MSTORE PUSH32 0x4552433732313A20617070726F76616C20746F2063757272656E74206F776E65 PUSH1 0x44 DUP3 ADD MSTORE PUSH1 0x39 PUSH1 0xF9 SHL PUSH1 0x64 DUP3 ADD MSTORE PUSH1 0x84 ADD JUMPDEST PUSH1 0x40 MLOAD DUP1 SWAP2 SUB SWAP1 REVERT JUMPDEST CALLER PUSH1 0x1 PUSH1 0x1 PUSH1 0xA0 SHL SUB DUP3 AND EQ DUP1 PUSH2 0x7DA JUMPI POP PUSH2 0x7DA DUP2 CALLER PUSH2 0x436 JUMP JUMPDEST PUSH2 0x84C JUMPI PUSH1 0x40 MLOAD PUSH3 0x461BCD PUSH1 0xE5 SHL DUP2 MSTORE PUSH1 0x20 PUSH1 0x4 DUP3 ADD MSTORE PUSH1 0x3E PUSH1 0x24 DUP3 ADD MSTORE PUSH32 0x4552433732313A20617070726F76652063616C6C6572206973206E6F7420746F PUSH1 0x44 DUP3 ADD MSTORE PUSH32 0x6B656E206F776E6572206E6F7220617070726F76656420666F7220616C6C0000 PUSH1 0x64 DUP3 ADD MSTORE PUSH1 0x84 ADD PUSH2 0x7B5 JUMP JUMPDEST PUSH2 0x856 DUP4 DUP4 PUSH2 0xFCA JUMP JUMPDEST POP POP POP JUMP JUMPDEST PUSH2 0x865 CALLER DUP3 PUSH2 0x1038 JUMP JUMPDEST PUSH2 0x8C8 JUMPI PUSH1 0x40 MLOAD PUSH3 0x461BCD PUSH1 0xE5 SHL DUP2 MSTORE PUSH1 0x20 PUSH1 0x4 DUP3 ADD MSTORE PUSH1 0x2E PUSH1 0x24 DUP3 ADD MSTORE PUSH32 0x4552433732313A2063616C6C6572206973206E6F7420746F6B656E206F776E65 PUSH1 0x44 DUP3 ADD MSTORE PUSH14 0x1C881B9BDC88185C1C1C9BDD9959 PUSH1 0x92 SHL PUSH1 0x64 DUP3 ADD MSTORE PUSH1 0x84 ADD PUSH2 0x7B5 JUMP JUMPDEST PUSH2 0x856 DUP4 DUP4 DUP4 PUSH2 0x10B7 JUMP JUMPDEST PUSH1 0xB PUSH1 0x20 MSTORE DUP2 PUSH1 0x0 MSTORE PUSH1 0x40 PUSH1 0x0 KECCAK256 DUP2 DUP2 SLOAD DUP2 LT PUSH2 0x8EF JUMPI PUSH1 0x0 DUP1 REVERT JUMPDEST SWAP1 PUSH1 0x0 MSTORE PUSH1 0x20 PUSH1 0x0 KECCAK256 ADD PUSH1 0x0 SWAP2 POP SWAP2 POP POP SLOAD DUP2 JUMP JUMPDEST CALLER PUSH1 0x0 SWAP1 DUP2 MSTORE PUSH1 0x8 PUSH1 0x20 MSTORE PUSH1 0x40 SWAP1 KECCAK256 SLOAD PUSH1 0xFF AND ISZERO PUSH2 0x964 JUMPI PUSH1 0x40 MLOAD PUSH3 0x461BCD PUSH1 0xE5 SHL DUP2 MSTORE PUSH1 0x20 PUSH1 0x4 DUP3 ADD MSTORE PUSH1 0x10 PUSH1 0x24 DUP3 ADD MSTORE PUSH32 0x416C72656164792073756D6D6F6E656400000000000000000000000000000000 PUSH1 0x44 DUP3 ADD MSTORE PUSH1 0x64 ADD PUSH2 0x7B5 JUMP JUMPDEST PUSH2 0x972 PUSH1 0x7 DUP1 SLOAD PUSH1 0x1 ADD SWAP1 SSTORE JUMP JUMPDEST PUSH1 0x0 PUSH2 0x97D PUSH1 0x7 SLOAD SWAP1 JUMP JUMPDEST SWAP1 POP PUSH2 0x988 CALLER PUSH2 0x126B JUMP JUMPDEST PUSH1 0x0 DUP3 DUP2 MSTORE PUSH1 0xA PUSH1 0x20 SWAP1 DUP2 MSTORE PUSH1 0x40 SWAP1 SWAP2 KECCAK256 DUP3 MLOAD PUSH2 0x9AB SWAP4 SWAP2 SWAP3 SWAP2 SWAP1 SWAP2 ADD SWAP1 PUSH2 0x1CB1 JUMP JUMPDEST POP PUSH1 0x40 DUP1 MLOAD PUSH1 0x60 DUP2 ADD DUP3 MSTORE PUSH1 0x1 DUP2 MSTORE PUSH1 0x0 PUSH1 0x20 DUP1 DUP4 ADD DUP3 SWAP1 MSTORE DUP3 DUP5 ADD DUP3 SWAP1 MSTORE DUP5 DUP3 MSTORE PUSH1 0xB SWAP1 MSTORE SWAP2 SWAP1 SWAP2 KECCAK256 PUSH2 0x9E0 SWAP2 PUSH1 0x3 PUSH2 0x1D35 JUMP JUMPDEST POP CALLER PUSH1 0x0 DUP2 DUP2 MSTORE PUSH1 0x8 PUSH1 0x20 SWAP1 DUP2 MSTORE PUSH1 0x40 DUP1 DUP4 KECCAK256 DUP1 SLOAD PUSH1 0xFF NOT AND PUSH1 0x1 OR SWAP1 SSTORE PUSH1 0x9 SWAP1 SWAP2 MSTORE SWAP1 KECCAK256 DUP3 SWAP1 SSTORE PUSH2 0xA12 SWAP1 DUP3 PUSH2 0x1281 JUMP JUMPDEST PUSH1 0x40 MLOAD DUP2 DUP2 MSTORE CALLER SWAP1 PUSH32 0xBBB46266402C42849573C27ABC27DD180E2B8EC8F33840CA8B0919227659E399 SWAP1 PUSH1 0x20 ADD PUSH1 0x40 MLOAD DUP1 SWAP2 SUB SWAP1 LOG2 POP JUMP JUMPDEST PUSH2 0x856 DUP4 DUP4 DUP4 PUSH1 0x40 MLOAD DUP1 PUSH1 0x20 ADD PUSH1 0x40 MSTORE DUP1 PUSH1 0x0 DUP2 MSTORE POP PUSH2 0xCFC JUMP JUMPDEST PUSH1 0x0 DUP1 DUP3 GT PUSH2 0xA7E JUMPI POP PUSH8 0xDE0B6B3A7640000 DUP1 PUSH2 0xA94 JUMP JUMPDEST PUSH2 0xA90 DUP3 PUSH8 0xDE0B6B3A7640000 PUSH2 0x229A JUMP JUMPDEST SWAP1 POP DUP1 JUMPDEST POP SWAP2 SWAP1 POP JUMP JUMPDEST PUSH1 0x0 DUP2 DUP2 MSTORE PUSH1 0x2 PUSH1 0x20 MSTORE PUSH1 0x40 DUP2 KECCAK256 SLOAD PUSH1 0x1 PUSH1 0x1 PUSH1 0xA0 SHL SUB AND DUP1 PUSH2 0x55D JUMPI PUSH1 0x40 MLOAD PUSH3 0x461BCD PUSH1 0xE5 SHL DUP2 MSTORE PUSH1 0x20 PUSH1 0x4 DUP3 ADD MSTORE PUSH1 0x18 PUSH1 0x24 DUP3 ADD MSTORE PUSH32 0x4552433732313A20696E76616C696420746F6B656E2049440000000000000000 PUSH1 0x44 DUP3 ADD MSTORE PUSH1 0x64 ADD PUSH2 0x7B5 JUMP JUMPDEST PUSH1 0x0 PUSH1 0x1 PUSH1 0x1 PUSH1 0xA0 SHL SUB DUP3 AND PUSH2 0xB7D JUMPI PUSH1 0x40 MLOAD PUSH3 0x461BCD PUSH1 0xE5 SHL DUP2 MSTORE PUSH1 0x20 PUSH1 0x4 DUP3 ADD MSTORE PUSH1 0x29 PUSH1 0x24 DUP3 ADD MSTORE PUSH32 0x4552433732313A2061646472657373207A65726F206973206E6F742061207661 PUSH1 0x44 DUP3 ADD MSTORE PUSH32 0x6C6964206F776E65720000000000000000000000000000000000000000000000 PUSH1 0x64 DUP3 ADD MSTORE PUSH1 0x84 ADD PUSH2 0x7B5 JUMP JUMPDEST POP PUSH1 0x1 PUSH1 0x1 PUSH1 0xA0 SHL SUB AND PUSH1 0x0 SWAP1 DUP2 MSTORE PUSH1 0x3 PUSH1 0x20 MSTORE PUSH1 0x40 SWAP1 KECCAK256 SLOAD SWAP1 JUMP JUMPDEST PUSH2 0xBA1 PUSH2 0x129B JUMP JUMPDEST PUSH2 0xBAB PUSH1 0x0 PUSH2 0x12F5 JUMP JUMPDEST JUMP JUMPDEST PUSH2 0xBB5 PUSH2 0x129B JUMP JUMPDEST PUSH1 0x0 DUP3 DUP2 MSTORE PUSH1 0xB PUSH1 0x20 MSTORE PUSH1 0x40 DUP2 KECCAK256 DUP1 SLOAD DUP4 SWAP1 DUP2 LT PUSH2 0xBD5 JUMPI PUSH2 0xBD5 PUSH2 0x2255 JUMP JUMPDEST SWAP1 PUSH1 0x0 MSTORE PUSH1 0x20 PUSH1 0x0 KECCAK256 ADD SLOAD SWAP1 POP PUSH1 0x0 PUSH2 0xBED DUP3 PUSH2 0xA65 JUMP JUMPDEST SWAP1 POP PUSH2 0xC25 PUSH1 0x1 PUSH1 0x1 PUSH1 0xA0 SHL SUB PUSH32 0x0 AND CALLER PUSH1 0x1 DUP5 PUSH2 0x1347 JUMP JUMPDEST PUSH2 0xC30 DUP3 PUSH1 0x1 PUSH2 0x22B9 JUMP JUMPDEST PUSH1 0x0 DUP6 DUP2 MSTORE PUSH1 0xB PUSH1 0x20 MSTORE PUSH1 0x40 SWAP1 KECCAK256 DUP1 SLOAD DUP6 SWAP1 DUP2 LT PUSH2 0xC50 JUMPI PUSH2 0xC50 PUSH2 0x2255 JUMP JUMPDEST SWAP1 PUSH1 0x0 MSTORE PUSH1 0x20 PUSH1 0x0 KECCAK256 ADD DUP2 SWAP1 SSTORE POP CALLER PUSH1 0x1 PUSH1 0x1 PUSH1 0xA0 SHL SUB AND PUSH32 0xAA4E97EEB4FD5355C649EE3F0C8A2BB57442A5D8D81B7AF85422D800A4BBE24E PUSH1 0xB PUSH1 0x0 DUP8 DUP2 MSTORE PUSH1 0x20 ADD SWAP1 DUP2 MSTORE PUSH1 0x20 ADD PUSH1 0x0 KECCAK256 DUP6 DUP2 SLOAD DUP2 LT PUSH2 0xCAD JUMPI PUSH2 0xCAD PUSH2 0x2255 JUMP JUMPDEST SWAP1 PUSH1 0x0 MSTORE PUSH1 0x20 PUSH1 0x0 KECCAK256 ADD SLOAD DUP7 PUSH1 0x40 MLOAD PUSH2 0xCD0 SWAP3 SWAP2 SWAP1 SWAP2 DUP3 MSTORE PUSH1 0x20 DUP3 ADD MSTORE PUSH1 0x40 ADD SWAP1 JUMP JUMPDEST PUSH1 0x40 MLOAD DUP1 SWAP2 SUB SWAP1 LOG2 POP POP POP POP JUMP JUMPDEST PUSH1 0x60 PUSH1 0x1 DUP1 SLOAD PUSH2 0x572 SWAP1 PUSH2 0x2140 JUMP JUMPDEST PUSH2 0xCF8 CALLER DUP4 DUP4 PUSH2 0x13B6 JUMP JUMPDEST POP POP JUMP JUMPDEST PUSH2 0xD06 CALLER DUP4 PUSH2 0x1038 JUMP JUMPDEST PUSH2 0xD69 JUMPI PUSH1 0x40 MLOAD PUSH3 0x461BCD PUSH1 0xE5 SHL DUP2 MSTORE PUSH1 0x20 PUSH1 0x4 DUP3 ADD MSTORE PUSH1 0x2E PUSH1 0x24 DUP3 ADD MSTORE PUSH32 0x4552433732313A2063616C6C6572206973206E6F7420746F6B656E206F776E65 PUSH1 0x44 DUP3 ADD MSTORE PUSH14 0x1C881B9BDC88185C1C1C9BDD9959 PUSH1 0x92 SHL PUSH1 0x64 DUP3 ADD MSTORE PUSH1 0x84 ADD PUSH2 0x7B5 JUMP JUMPDEST PUSH2 0xD75 DUP5 DUP5 DUP5 DUP5 PUSH2 0x1484 JUMP JUMPDEST POP POP POP POP JUMP JUMPDEST PUSH1 0x1 PUSH1 0x1 PUSH1 0xA0 SHL SUB DUP2 AND PUSH1 0x0 SWAP1 DUP2 MSTORE PUSH1 0x9 PUSH1 0x20 SWAP1 DUP2 MSTORE PUSH1 0x40 DUP1 DUP4 KECCAK256 SLOAD DUP1 DUP5 MSTORE PUSH1 0xB DUP4 MSTORE SWAP3 DUP2 SWAP1 KECCAK256 DUP1 SLOAD DUP3 MLOAD DUP2 DUP6 MUL DUP2 ADD DUP6 ADD SWAP1 SWAP4 MSTORE DUP1 DUP4 MSTORE PUSH1 0x60 SWAP5 SWAP4 DUP4 ADD DUP3 DUP3 DUP1 ISZERO PUSH2 0xDE6 JUMPI PUSH1 0x20 MUL DUP3 ADD SWAP2 SWAP1 PUSH1 0x0 MSTORE PUSH1 0x20 PUSH1 0x0 KECCAK256 SWAP1 JUMPDEST DUP2 SLOAD DUP2 MSTORE PUSH1 0x20 ADD SWAP1 PUSH1 0x1 ADD SWAP1 DUP1 DUP4 GT PUSH2 0xDD2 JUMPI JUMPDEST POP POP POP POP POP SWAP2 POP POP SWAP2 SWAP1 POP JUMP JUMPDEST PUSH1 0x60 PUSH2 0xDFE DUP3 PUSH2 0xF66 JUMP JUMPDEST PUSH1 0x0 PUSH2 0xE15 PUSH1 0x40 DUP1 MLOAD PUSH1 0x20 DUP2 ADD SWAP1 SWAP2 MSTORE PUSH1 0x0 DUP2 MSTORE SWAP1 JUMP JUMPDEST SWAP1 POP PUSH1 0x0 DUP2 MLOAD GT PUSH2 0xE35 JUMPI PUSH1 0x40 MLOAD DUP1 PUSH1 0x20 ADD PUSH1 0x40 MSTORE DUP1 PUSH1 0x0 DUP2 MSTORE POP PUSH2 0xE60 JUMP JUMPDEST DUP1 PUSH2 0xE3F DUP5 PUSH2 0x1502 JUMP JUMPDEST PUSH1 0x40 MLOAD PUSH1 0x20 ADD PUSH2 0xE50 SWAP3 SWAP2 SWAP1 PUSH2 0x22D1 JUMP JUMPDEST PUSH1 0x40 MLOAD PUSH1 0x20 DUP2 DUP4 SUB SUB DUP2 MSTORE SWAP1 PUSH1 0x40 MSTORE JUMPDEST SWAP4 SWAP3 POP POP POP JUMP JUMPDEST PUSH2 0xE6F PUSH2 0x129B JUMP JUMPDEST PUSH1 0x0 DUP3 DUP2 MSTORE PUSH1 0xA PUSH1 0x20 SWAP1 DUP2 MSTORE PUSH1 0x40 SWAP1 SWAP2 KECCAK256 DUP3 MLOAD PUSH2 0xE8E SWAP3 DUP5 ADD SWAP1 PUSH2 0x1CB1 JUMP JUMPDEST POP CALLER PUSH1 0x1 PUSH1 0x1 PUSH1 0xA0 SHL SUB AND PUSH32 0x68A7F81800258A01D20FC5C11938B8D2251D25FFB372E6C11B1C83FA7D421DB0 DUP3 DUP5 PUSH1 0x40 MLOAD PUSH2 0xECA SWAP3 SWAP2 SWAP1 PUSH2 0x2300 JUMP JUMPDEST PUSH1 0x40 MLOAD DUP1 SWAP2 SUB SWAP1 LOG2 POP POP JUMP JUMPDEST PUSH2 0xEDE PUSH2 0x129B JUMP JUMPDEST PUSH1 0x1 PUSH1 0x1 PUSH1 0xA0 SHL SUB DUP2 AND PUSH2 0xF5A JUMPI PUSH1 0x40 MLOAD PUSH3 0x461BCD PUSH1 0xE5 SHL DUP2 MSTORE PUSH1 0x20 PUSH1 0x4 DUP3 ADD MSTORE PUSH1 0x26 PUSH1 0x24 DUP3 ADD MSTORE PUSH32 0x4F776E61626C653A206E6577206F776E657220697320746865207A65726F2061 PUSH1 0x44 DUP3 ADD MSTORE PUSH32 0x6464726573730000000000000000000000000000000000000000000000000000 PUSH1 0x64 DUP3 ADD MSTORE PUSH1 0x84 ADD PUSH2 0x7B5 JUMP JUMPDEST PUSH2 0xF63 DUP2 PUSH2 0x12F5 JUMP JUMPDEST POP JUMP JUMPDEST PUSH1 0x0 DUP2 DUP2 MSTORE PUSH1 0x2 PUSH1 0x20 MSTORE PUSH1 0x40 SWAP1 KECCAK256 SLOAD PUSH1 0x1 PUSH1 0x1 PUSH1 0xA0 SHL SUB AND PUSH2 0xF63 JUMPI PUSH1 0x40 MLOAD PUSH3 0x461BCD PUSH1 0xE5 SHL DUP2 MSTORE PUSH1 0x20 PUSH1 0x4 DUP3 ADD MSTORE PUSH1 0x18 PUSH1 0x24 DUP3 ADD MSTORE PUSH32 0x4552433732313A20696E76616C696420746F6B656E2049440000000000000000 PUSH1 0x44 DUP3 ADD MSTORE PUSH1 0x64 ADD PUSH2 0x7B5 JUMP JUMPDEST PUSH1 0x0 DUP2 DUP2 MSTORE PUSH1 0x4 PUSH1 0x20 MSTORE PUSH1 0x40 SWAP1 KECCAK256 DUP1 SLOAD PUSH1 0x1 PUSH1 0x1 PUSH1 0xA0 SHL SUB NOT AND PUSH1 0x1 PUSH1 0x1 PUSH1 0xA0 SHL SUB DUP5 AND SWAP1 DUP2 OR SWAP1 SWAP2 SSTORE DUP2 SWAP1 PUSH2 0xFFF DUP3 PUSH2 0xA9A JUMP JUMPDEST PUSH1 0x1 PUSH1 0x1 PUSH1 0xA0 SHL SUB AND PUSH32 0x8C5BE1E5EBEC7D5BD14F71427D1E84F3DD0314C0F7B2291E5B200AC8C7C3B925 PUSH1 0x40 MLOAD PUSH1 0x40 MLOAD DUP1 SWAP2 SUB SWAP1 LOG4 POP POP JUMP JUMPDEST PUSH1 0x0 DUP1 PUSH2 0x1044 DUP4 PUSH2 0xA9A JUMP JUMPDEST SWAP1 POP DUP1 PUSH1 0x1 PUSH1 0x1 PUSH1 0xA0 SHL SUB AND DUP5 PUSH1 0x1 PUSH1 0x1 PUSH1 0xA0 SHL SUB AND EQ DUP1 PUSH2 0x108B JUMPI POP PUSH1 0x1 PUSH1 0x1 PUSH1 0xA0 SHL SUB DUP1 DUP3 AND PUSH1 0x0 SWAP1 DUP2 MSTORE PUSH1 0x5 PUSH1 0x20 SWAP1 DUP2 MSTORE PUSH1 0x40 DUP1 DUP4 KECCAK256 SWAP4 DUP9 AND DUP4 MSTORE SWAP3 SWAP1 MSTORE KECCAK256 SLOAD PUSH1 0xFF AND JUMPDEST DUP1 PUSH2 0x10AF JUMPI POP DUP4 PUSH1 0x1 PUSH1 0x1 PUSH1 0xA0 SHL SUB AND PUSH2 0x10A4 DUP5 PUSH2 0x5F5 JUMP JUMPDEST PUSH1 0x1 PUSH1 0x1 PUSH1 0xA0 SHL SUB AND EQ JUMPDEST SWAP5 SWAP4 POP POP POP POP JUMP JUMPDEST DUP3 PUSH1 0x1 PUSH1 0x1 PUSH1 0xA0 SHL SUB AND PUSH2 0x10CA DUP3 PUSH2 0xA9A JUMP JUMPDEST PUSH1 0x1 PUSH1 0x1 PUSH1 0xA0 SHL SUB AND EQ PUSH2 0x1146 JUMPI PUSH1 0x40 MLOAD PUSH3 0x461BCD PUSH1 0xE5 SHL DUP2 MSTORE PUSH1 0x20 PUSH1 0x4 DUP3 ADD MSTORE PUSH1 0x25 PUSH1 0x24 DUP3 ADD MSTORE PUSH32 0x4552433732313A207472616E736665722066726F6D20696E636F727265637420 PUSH1 0x44 DUP3 ADD MSTORE PUSH32 0x6F776E6572000000000000000000000000000000000000000000000000000000 PUSH1 0x64 DUP3 ADD MSTORE PUSH1 0x84 ADD PUSH2 0x7B5 JUMP JUMPDEST PUSH1 0x1 PUSH1 0x1 PUSH1 0xA0 SHL SUB DUP3 AND PUSH2 0x11A8 JUMPI PUSH1 0x40 MLOAD PUSH3 0x461BCD PUSH1 0xE5 SHL DUP2 MSTORE PUSH1 0x20 PUSH1 0x4 DUP3 ADD MSTORE PUSH1 0x24 DUP1 DUP3 ADD MSTORE PUSH32 0x4552433732313A207472616E7366657220746F20746865207A65726F20616464 PUSH1 0x44 DUP3 ADD MSTORE PUSH4 0x72657373 PUSH1 0xE0 SHL PUSH1 0x64 DUP3 ADD MSTORE PUSH1 0x84 ADD PUSH2 0x7B5 JUMP JUMPDEST PUSH2 0x11B3 PUSH1 0x0 DUP3 PUSH2 0xFCA JUMP JUMPDEST PUSH1 0x1 PUSH1 0x1 PUSH1 0xA0 SHL SUB DUP4 AND PUSH1 0x0 SWAP1 DUP2 MSTORE PUSH1 0x3 PUSH1 0x20 MSTORE PUSH1 0x40 DUP2 KECCAK256 DUP1 SLOAD PUSH1 0x1 SWAP3 SWAP1 PUSH2 0x11DC SWAP1 DUP5 SWAP1 PUSH2 0x2322 JUMP JUMPDEST SWAP1 SWAP2 SSTORE POP POP PUSH1 0x1 PUSH1 0x1 PUSH1 0xA0 SHL SUB DUP3 AND PUSH1 0x0 SWAP1 DUP2 MSTORE PUSH1 0x3 PUSH1 0x20 MSTORE PUSH1 0x40 DUP2 KECCAK256 DUP1 SLOAD PUSH1 0x1 SWAP3 SWAP1 PUSH2 0x120A SWAP1 DUP5 SWAP1 PUSH2 0x22B9 JUMP JUMPDEST SWAP1 SWAP2 SSTORE POP POP PUSH1 0x0 DUP2 DUP2 MSTORE PUSH1 0x2 PUSH1 0x20 MSTORE PUSH1 0x40 DUP1 DUP3 KECCAK256 DUP1 SLOAD PUSH1 0x1 PUSH1 0x1 PUSH1 0xA0 SHL SUB NOT AND PUSH1 0x1 PUSH1 0x1 PUSH1 0xA0 SHL SUB DUP7 DUP2 AND SWAP2 DUP3 OR SWAP1 SWAP3 SSTORE SWAP2 MLOAD DUP5 SWAP4 SWAP2 DUP8 AND SWAP2 PUSH32 0xDDF252AD1BE2C89B69C2B068FC378DAA952BA7F163C4A11628F55A4DF523B3EF SWAP2 LOG4 POP POP POP JUMP JUMPDEST PUSH1 0x60 PUSH2 0x55D PUSH1 0x1 PUSH1 0x1 PUSH1 0xA0 SHL SUB DUP4 AND PUSH1 0x14 PUSH2 0x1603 JUMP JUMPDEST PUSH2 0xCF8 DUP3 DUP3 PUSH1 0x40 MLOAD DUP1 PUSH1 0x20 ADD PUSH1 0x40 MSTORE DUP1 PUSH1 0x0 DUP2 MSTORE POP PUSH2 0x17AC JUMP JUMPDEST PUSH1 0x6 SLOAD PUSH1 0x1 PUSH1 0x1 PUSH1 0xA0 SHL SUB AND CALLER EQ PUSH2 0xBAB JUMPI PUSH1 0x40 MLOAD PUSH3 0x461BCD PUSH1 0xE5 SHL DUP2 MSTORE PUSH1 0x20 PUSH1 0x4 DUP3 ADD DUP2 SWAP1 MSTORE PUSH1 0x24 DUP3 ADD MSTORE PUSH32 0x4F776E61626C653A2063616C6C6572206973206E6F7420746865206F776E6572 PUSH1 0x44 DUP3 ADD MSTORE PUSH1 0x64 ADD PUSH2 0x7B5 JUMP JUMPDEST PUSH1 0x6 DUP1 SLOAD PUSH1 0x1 PUSH1 0x1 PUSH1 0xA0 SHL SUB DUP4 DUP2 AND PUSH1 0x1 PUSH1 0x1 PUSH1 0xA0 SHL SUB NOT DUP4 AND DUP2 OR SWAP1 SWAP4 SSTORE PUSH1 0x40 MLOAD SWAP2 AND SWAP2 SWAP1 DUP3 SWAP1 PUSH32 0x8BE0079C531659141344CD1FD0A4F28419497F9722A3DAAFE3B4186F6B6457E0 SWAP1 PUSH1 0x0 SWAP1 LOG3 POP POP JUMP JUMPDEST PUSH1 0x40 DUP1 MLOAD PUSH1 0x1 PUSH1 0x1 PUSH1 0xA0 SHL SUB DUP6 DUP2 AND PUSH1 0x24 DUP4 ADD MSTORE DUP5 AND PUSH1 0x44 DUP3 ADD MSTORE PUSH1 0x64 DUP1 DUP3 ADD DUP5 SWAP1 MSTORE DUP3 MLOAD DUP1 DUP4 SUB SWAP1 SWAP2 ADD DUP2 MSTORE PUSH1 0x84 SWAP1 SWAP2 ADD SWAP1 SWAP2 MSTORE PUSH1 0x20 DUP2 ADD DUP1 MLOAD PUSH28 0xFFFFFFFFFFFFFFFFFFFFFFFFFFFFFFFFFFFFFFFFFFFFFFFFFFFFFFFF AND PUSH4 0x23B872DD PUSH1 0xE0 SHL OR SWAP1 MSTORE PUSH2 0xD75 SWAP1 DUP6 SWAP1 PUSH2 0x182A JUMP JUMPDEST DUP2 PUSH1 0x1 PUSH1 0x1 PUSH1 0xA0 SHL SUB AND DUP4 PUSH1 0x1 PUSH1 0x1 PUSH1 0xA0 SHL SUB AND SUB PUSH2 0x1417 JUMPI PUSH1 0x40 MLOAD PUSH3 0x461BCD PUSH1 0xE5 SHL DUP2 MSTORE PUSH1 0x20 PUSH1 0x4 DUP3 ADD MSTORE PUSH1 0x19 PUSH1 0x24 DUP3 ADD MSTORE PUSH32 0x4552433732313A20617070726F766520746F2063616C6C657200000000000000 PUSH1 0x44 DUP3 ADD MSTORE PUSH1 0x64 ADD PUSH2 0x7B5 JUMP JUMPDEST PUSH1 0x1 PUSH1 0x1 PUSH1 0xA0 SHL SUB DUP4 DUP2 AND PUSH1 0x0 DUP2 DUP2 MSTORE PUSH1 0x5 PUSH1 0x20 SWAP1 DUP2 MSTORE PUSH1 0x40 DUP1 DUP4 KECCAK256 SWAP5 DUP8 AND DUP1 DUP5 MSTORE SWAP5 DUP3 MSTORE SWAP2 DUP3 SWAP1 KECCAK256 DUP1 SLOAD PUSH1 0xFF NOT AND DUP7 ISZERO ISZERO SWAP1 DUP2 OR SWAP1 SWAP2 SSTORE SWAP2 MLOAD SWAP2 DUP3 MSTORE PUSH32 0x17307EAB39AB6107E8899845AD3D59BD9653F200F220920489CA2B5937696C31 SWAP2 ADD PUSH1 0x40 MLOAD DUP1 SWAP2 SUB SWAP1 LOG3 POP POP POP JUMP JUMPDEST PUSH2 0x148F DUP5 DUP5 DUP5 PUSH2 0x10B7 JUMP JUMPDEST PUSH2 0x149B DUP5 DUP5 DUP5 DUP5 PUSH2 0x190F JUMP JUMPDEST PUSH2 0xD75 JUMPI PUSH1 0x40 MLOAD PUSH3 0x461BCD PUSH1 0xE5 SHL DUP2 MSTORE PUSH1 0x20 PUSH1 0x4 DUP3 ADD MSTORE PUSH1 0x32 PUSH1 0x24 DUP3 ADD MSTORE PUSH32 0x4552433732313A207472616E7366657220746F206E6F6E204552433732315265 PUSH1 0x44 DUP3 ADD MSTORE PUSH18 0x31B2B4BB32B91034B6B83632B6B2B73A32B9 PUSH1 0x71 SHL PUSH1 0x64 DUP3 ADD MSTORE PUSH1 0x84 ADD PUSH2 0x7B5 JUMP JUMPDEST PUSH1 0x60 DUP2 PUSH1 0x0 SUB PUSH2 0x1529 JUMPI POP POP PUSH1 0x40 DUP1 MLOAD DUP1 DUP3 ADD SWAP1 SWAP2 MSTORE PUSH1 0x1 DUP2 MSTORE PUSH1 0x3 PUSH1 0xFC SHL PUSH1 0x20 DUP3 ADD MSTORE SWAP1 JUMP JUMPDEST DUP2 PUSH1 0x0 JUMPDEST DUP2 ISZERO PUSH2 0x1553 JUMPI DUP1 PUSH2 0x153D DUP2 PUSH2 0x2281 JUMP JUMPDEST SWAP2 POP PUSH2 0x154C SWAP1 POP PUSH1 0xA DUP4 PUSH2 0x234F JUMP JUMPDEST SWAP2 POP PUSH2 0x152D JUMP JUMPDEST PUSH1 0x0 DUP2 PUSH8 0xFFFFFFFFFFFFFFFF DUP2 GT ISZERO PUSH2 0x156E JUMPI PUSH2 0x156E PUSH2 0x1F89 JUMP JUMPDEST PUSH1 0x40 MLOAD SWAP1 DUP1 DUP3 MSTORE DUP1 PUSH1 0x1F ADD PUSH1 0x1F NOT AND PUSH1 0x20 ADD DUP3 ADD PUSH1 0x40 MSTORE DUP1 ISZERO PUSH2 0x1598 JUMPI PUSH1 0x20 DUP3 ADD DUP2 DUP1 CALLDATASIZE DUP4 CALLDATACOPY ADD SWAP1 POP JUMPDEST POP SWAP1 POP JUMPDEST DUP5 ISZERO PUSH2 0x10AF JUMPI PUSH2 0x15AD PUSH1 0x1 DUP4 PUSH2 0x2322 JUMP JUMPDEST SWAP2 POP PUSH2 0x15BA PUSH1 0xA DUP7 PUSH2 0x2363 JUMP JUMPDEST PUSH2 0x15C5 SWAP1 PUSH1 0x30 PUSH2 0x22B9 JUMP JUMPDEST PUSH1 0xF8 SHL DUP2 DUP4 DUP2 MLOAD DUP2 LT PUSH2 0x15DA JUMPI PUSH2 0x15DA PUSH2 0x2255 JUMP JUMPDEST PUSH1 0x20 ADD ADD SWAP1 PUSH1 0x1 PUSH1 0x1 PUSH1 0xF8 SHL SUB NOT AND SWAP1 DUP2 PUSH1 0x0 BYTE SWAP1 MSTORE8 POP PUSH2 0x15FC PUSH1 0xA DUP7 PUSH2 0x234F JUMP JUMPDEST SWAP5 POP PUSH2 0x159C JUMP JUMPDEST PUSH1 0x60 PUSH1 0x0 PUSH2 0x1612 DUP4 PUSH1 0x2 PUSH2 0x229A JUMP JUMPDEST PUSH2 0x161D SWAP1 PUSH1 0x2 PUSH2 0x22B9 JUMP JUMPDEST PUSH8 0xFFFFFFFFFFFFFFFF DUP2 GT ISZERO PUSH2 0x1635 JUMPI PUSH2 0x1635 PUSH2 0x1F89 JUMP JUMPDEST PUSH1 0x40 MLOAD SWAP1 DUP1 DUP3 MSTORE DUP1 PUSH1 0x1F ADD PUSH1 0x1F NOT AND PUSH1 0x20 ADD DUP3 ADD PUSH1 0x40 MSTORE DUP1 ISZERO PUSH2 0x165F JUMPI PUSH1 0x20 DUP3 ADD DUP2 DUP1 CALLDATASIZE DUP4 CALLDATACOPY ADD SWAP1 POP JUMPDEST POP SWAP1 POP PUSH1 0x3 PUSH1 0xFC SHL DUP2 PUSH1 0x0 DUP2 MLOAD DUP2 LT PUSH2 0x167A JUMPI PUSH2 0x167A PUSH2 0x2255 JUMP JUMPDEST PUSH1 0x20 ADD ADD SWAP1 PUSH1 0x1 PUSH1 0x1 PUSH1 0xF8 SHL SUB NOT AND SWAP1 DUP2 PUSH1 0x0 BYTE SWAP1 MSTORE8 POP PUSH1 0xF PUSH1 0xFB SHL DUP2 PUSH1 0x1 DUP2 MLOAD DUP2 LT PUSH2 0x16A9 JUMPI PUSH2 0x16A9 PUSH2 0x2255 JUMP JUMPDEST PUSH1 0x20 ADD ADD SWAP1 PUSH1 0x1 PUSH1 0x1 PUSH1 0xF8 SHL SUB NOT AND SWAP1 DUP2 PUSH1 0x0 BYTE SWAP1 MSTORE8 POP PUSH1 0x0 PUSH2 0x16CD DUP5 PUSH1 0x2 PUSH2 0x229A JUMP JUMPDEST PUSH2 0x16D8 SWAP1 PUSH1 0x1 PUSH2 0x22B9 JUMP JUMPDEST SWAP1 POP JUMPDEST PUSH1 0x1 DUP2 GT ISZERO PUSH2 0x175D JUMPI PUSH32 0x3031323334353637383961626364656600000000000000000000000000000000 DUP6 PUSH1 0xF AND PUSH1 0x10 DUP2 LT PUSH2 0x1719 JUMPI PUSH2 0x1719 PUSH2 0x2255 JUMP JUMPDEST BYTE PUSH1 0xF8 SHL DUP3 DUP3 DUP2 MLOAD DUP2 LT PUSH2 0x172F JUMPI PUSH2 0x172F PUSH2 0x2255 JUMP JUMPDEST PUSH1 0x20 ADD ADD SWAP1 PUSH1 0x1 PUSH1 0x1 PUSH1 0xF8 SHL SUB NOT AND SWAP1 DUP2 PUSH1 0x0 BYTE SWAP1 MSTORE8 POP PUSH1 0x4 SWAP5 SWAP1 SWAP5 SHR SWAP4 PUSH2 0x1756 DUP2 PUSH2 0x2377 JUMP JUMPDEST SWAP1 POP PUSH2 0x16DB JUMP JUMPDEST POP DUP4 ISZERO PUSH2 0xE60 JUMPI PUSH1 0x40 MLOAD PUSH3 0x461BCD PUSH1 0xE5 SHL DUP2 MSTORE PUSH1 0x20 PUSH1 0x4 DUP3 ADD DUP2 SWAP1 MSTORE PUSH1 0x24 DUP3 ADD MSTORE PUSH32 0x537472696E67733A20686578206C656E67746820696E73756666696369656E74 PUSH1 0x44 DUP3 ADD MSTORE PUSH1 0x64 ADD PUSH2 0x7B5 JUMP JUMPDEST PUSH2 0x17B6 DUP4 DUP4 PUSH2 0x1A5B JUMP JUMPDEST PUSH2 0x17C3 PUSH1 0x0 DUP5 DUP5 DUP5 PUSH2 0x190F JUMP JUMPDEST PUSH2 0x856 JUMPI PUSH1 0x40 MLOAD PUSH3 0x461BCD PUSH1 0xE5 SHL DUP2 MSTORE PUSH1 0x20 PUSH1 0x4 DUP3 ADD MSTORE PUSH1 0x32 PUSH1 0x24 DUP3 ADD MSTORE PUSH32 0x4552433732313A207472616E7366657220746F206E6F6E204552433732315265 PUSH1 0x44 DUP3 ADD MSTORE PUSH18 0x31B2B4BB32B91034B6B83632B6B2B73A32B9 PUSH1 0x71 SHL PUSH1 0x64 DUP3 ADD MSTORE PUSH1 0x84 ADD PUSH2 0x7B5 JUMP JUMPDEST PUSH1 0x0 PUSH2 0x187F DUP3 PUSH1 0x40 MLOAD DUP1 PUSH1 0x40 ADD PUSH1 0x40 MSTORE DUP1 PUSH1 0x20 DUP2 MSTORE PUSH1 0x20 ADD PUSH32 0x5361666545524332303A206C6F772D6C6576656C2063616C6C206661696C6564 DUP2 MSTORE POP DUP6 PUSH1 0x1 PUSH1 0x1 PUSH1 0xA0 SHL SUB AND PUSH2 0x1B9D SWAP1 SWAP3 SWAP2 SWAP1 PUSH4 0xFFFFFFFF AND JUMP JUMPDEST DUP1 MLOAD SWAP1 SWAP2 POP ISZERO PUSH2 0x856 JUMPI DUP1 DUP1 PUSH1 0x20 ADD SWAP1 MLOAD DUP2 ADD SWAP1 PUSH2 0x189D SWAP2 SWAP1 PUSH2 0x238E JUMP JUMPDEST PUSH2 0x856 JUMPI PUSH1 0x40 MLOAD PUSH3 0x461BCD PUSH1 0xE5 SHL DUP2 MSTORE PUSH1 0x20 PUSH1 0x4 DUP3 ADD MSTORE PUSH1 0x2A PUSH1 0x24 DUP3 ADD MSTORE PUSH32 0x5361666545524332303A204552433230206F7065726174696F6E20646964206E PUSH1 0x44 DUP3 ADD MSTORE PUSH32 0x6F74207375636365656400000000000000000000000000000000000000000000 PUSH1 0x64 DUP3 ADD MSTORE PUSH1 0x84 ADD PUSH2 0x7B5 JUMP JUMPDEST PUSH1 0x0 PUSH1 0x1 PUSH1 0x1 PUSH1 0xA0 SHL SUB DUP5 AND EXTCODESIZE ISZERO PUSH2 0x1A50 JUMPI PUSH1 0x40 MLOAD PUSH4 0xA85BD01 PUSH1 0xE1 SHL DUP2 MSTORE PUSH1 0x1 PUSH1 0x1 PUSH1 0xA0 SHL SUB DUP6 AND SWAP1 PUSH4 0x150B7A02 SWAP1 PUSH2 0x1953 SWAP1 CALLER SWAP1 DUP10 SWAP1 DUP9 SWAP1 DUP9 SWAP1 PUSH1 0x4 ADD PUSH2 0x23AB JUMP JUMPDEST PUSH1 0x20 PUSH1 0x40 MLOAD DUP1 DUP4 SUB DUP2 PUSH1 0x0 DUP8 GAS CALL SWAP3 POP POP POP DUP1 ISZERO PUSH2 0x198E JUMPI POP PUSH1 0x40 DUP1 MLOAD PUSH1 0x1F RETURNDATASIZE SWAP1 DUP2 ADD PUSH1 0x1F NOT AND DUP3 ADD SWAP1 SWAP3 MSTORE PUSH2 0x198B SWAP2 DUP2 ADD SWAP1 PUSH2 0x23E7 JUMP JUMPDEST PUSH1 0x1 JUMPDEST PUSH2 0x1A36 JUMPI RETURNDATASIZE DUP1 DUP1 ISZERO PUSH2 0x19BC JUMPI PUSH1 0x40 MLOAD SWAP2 POP PUSH1 0x1F NOT PUSH1 0x3F RETURNDATASIZE ADD AND DUP3 ADD PUSH1 0x40 MSTORE RETURNDATASIZE DUP3 MSTORE RETURNDATASIZE PUSH1 0x0 PUSH1 0x20 DUP5 ADD RETURNDATACOPY PUSH2 0x19C1 JUMP JUMPDEST PUSH1 0x60 SWAP2 POP JUMPDEST POP DUP1 MLOAD PUSH1 0x0 SUB PUSH2 0x1A2E JUMPI PUSH1 0x40 MLOAD PUSH3 0x461BCD PUSH1 0xE5 SHL DUP2 MSTORE PUSH1 0x20 PUSH1 0x4 DUP3 ADD MSTORE PUSH1 0x32 PUSH1 0x24 DUP3 ADD MSTORE PUSH32 0x4552433732313A207472616E7366657220746F206E6F6E204552433732315265 PUSH1 0x44 DUP3 ADD MSTORE PUSH18 0x31B2B4BB32B91034B6B83632B6B2B73A32B9 PUSH1 0x71 SHL PUSH1 0x64 DUP3 ADD MSTORE PUSH1 0x84 ADD PUSH2 0x7B5 JUMP JUMPDEST DUP1 MLOAD DUP2 PUSH1 0x20 ADD REVERT JUMPDEST PUSH1 0x1 PUSH1 0x1 PUSH1 0xE0 SHL SUB NOT AND PUSH4 0xA85BD01 PUSH1 0xE1 SHL EQ SWAP1 POP PUSH2 0x10AF JUMP JUMPDEST POP PUSH1 0x1 SWAP5 SWAP4 POP POP POP POP JUMP JUMPDEST PUSH1 0x1 PUSH1 0x1 PUSH1 0xA0 SHL SUB DUP3 AND PUSH2 0x1AB1 JUMPI PUSH1 0x40 MLOAD PUSH3 0x461BCD PUSH1 0xE5 SHL DUP2 MSTORE PUSH1 0x20 PUSH1 0x4 DUP3 ADD DUP2 SWAP1 MSTORE PUSH1 0x24 DUP3 ADD MSTORE PUSH32 0x4552433732313A206D696E7420746F20746865207A65726F2061646472657373 PUSH1 0x44 DUP3 ADD MSTORE PUSH1 0x64 ADD PUSH2 0x7B5 JUMP JUMPDEST PUSH1 0x0 DUP2 DUP2 MSTORE PUSH1 0x2 PUSH1 0x20 MSTORE PUSH1 0x40 SWAP1 KECCAK256 SLOAD PUSH1 0x1 PUSH1 0x1 PUSH1 0xA0 SHL SUB AND ISZERO PUSH2 0x1B16 JUMPI PUSH1 0x40 MLOAD PUSH3 0x461BCD PUSH1 0xE5 SHL DUP2 MSTORE PUSH1 0x20 PUSH1 0x4 DUP3 ADD MSTORE PUSH1 0x1C PUSH1 0x24 DUP3 ADD MSTORE PUSH32 0x4552433732313A20746F6B656E20616C7265616479206D696E74656400000000 PUSH1 0x44 DUP3 ADD MSTORE PUSH1 0x64 ADD PUSH2 0x7B5 JUMP JUMPDEST PUSH1 0x1 PUSH1 0x1 PUSH1 0xA0 SHL SUB DUP3 AND PUSH1 0x0 SWAP1 DUP2 MSTORE PUSH1 0x3 PUSH1 0x20 MSTORE PUSH1 0x40 DUP2 KECCAK256 DUP1 SLOAD PUSH1 0x1 SWAP3 SWAP1 PUSH2 0x1B3F SWAP1 DUP5 SWAP1 PUSH2 0x22B9 JUMP JUMPDEST SWAP1 SWAP2 SSTORE POP POP PUSH1 0x0 DUP2 DUP2 MSTORE PUSH1 0x2 PUSH1 0x20 MSTORE PUSH1 0x40 DUP1 DUP3 KECCAK256 DUP1 SLOAD PUSH1 0x1 PUSH1 0x1 PUSH1 0xA0 SHL SUB NOT AND PUSH1 0x1 PUSH1 0x1 PUSH1 0xA0 SHL SUB DUP7 AND SWAP1 DUP2 OR SWAP1 SWAP2 SSTORE SWAP1 MLOAD DUP4 SWAP3 SWAP1 PUSH32 0xDDF252AD1BE2C89B69C2B068FC378DAA952BA7F163C4A11628F55A4DF523B3EF SWAP1 DUP3 SWAP1 LOG4 POP POP JUMP JUMPDEST PUSH1 0x60 PUSH2 0x10AF DUP5 DUP5 PUSH1 0x0 DUP6 DUP6 PUSH1 0x1 PUSH1 0x1 PUSH1 0xA0 SHL SUB DUP6 AND EXTCODESIZE PUSH2 0x1BFF JUMPI PUSH1 0x40 MLOAD PUSH3 0x461BCD PUSH1 0xE5 SHL DUP2 MSTORE PUSH1 0x20 PUSH1 0x4 DUP3 ADD MSTORE PUSH1 0x1D PUSH1 0x24 DUP3 ADD MSTORE PUSH32 0x416464726573733A2063616C6C20746F206E6F6E2D636F6E7472616374000000 PUSH1 0x44 DUP3 ADD MSTORE PUSH1 0x64 ADD PUSH2 0x7B5 JUMP JUMPDEST PUSH1 0x0 DUP1 DUP7 PUSH1 0x1 PUSH1 0x1 PUSH1 0xA0 SHL SUB AND DUP6 DUP8 PUSH1 0x40 MLOAD PUSH2 0x1C1B SWAP2 SWAP1 PUSH2 0x2404 JUMP JUMPDEST PUSH1 0x0 PUSH1 0x40 MLOAD DUP1 DUP4 SUB DUP2 DUP6 DUP8 GAS CALL SWAP3 POP POP POP RETURNDATASIZE DUP1 PUSH1 0x0 DUP2 EQ PUSH2 0x1C58 JUMPI PUSH1 0x40 MLOAD SWAP2 POP PUSH1 0x1F NOT PUSH1 0x3F RETURNDATASIZE ADD AND DUP3 ADD PUSH1 0x40 MSTORE RETURNDATASIZE DUP3 MSTORE RETURNDATASIZE PUSH1 0x0 PUSH1 0x20 DUP5 ADD RETURNDATACOPY PUSH2 0x1C5D JUMP JUMPDEST PUSH1 0x60 SWAP2 POP JUMPDEST POP SWAP2 POP SWAP2 POP PUSH2 0x1C6D DUP3 DUP3 DUP7 PUSH2 0x1C78 JUMP JUMPDEST SWAP8 SWAP7 POP POP POP POP POP POP POP JUMP JUMPDEST PUSH1 0x60 DUP4 ISZERO PUSH2 0x1C87 JUMPI POP DUP2 PUSH2 0xE60 JUMP JUMPDEST DUP3 MLOAD ISZERO PUSH2 0x1C97 JUMPI DUP3 MLOAD DUP1 DUP5 PUSH1 0x20 ADD REVERT JUMPDEST DUP2 PUSH1 0x40 MLOAD PUSH3 0x461BCD PUSH1 0xE5 SHL DUP2 MSTORE PUSH1 0x4 ADD PUSH2 0x7B5 SWAP2 SWAP1 PUSH2 0x1DFB JUMP JUMPDEST DUP3 DUP1 SLOAD PUSH2 0x1CBD SWAP1 PUSH2 0x2140 JUMP JUMPDEST SWAP1 PUSH1 0x0 MSTORE PUSH1 0x20 PUSH1 0x0 KECCAK256 SWAP1 PUSH1 0x1F ADD PUSH1 0x20 SWAP1 DIV DUP2 ADD SWAP3 DUP3 PUSH2 0x1CDF JUMPI PUSH1 0x0 DUP6 SSTORE PUSH2 0x1D25 JUMP JUMPDEST DUP3 PUSH1 0x1F LT PUSH2 0x1CF8 JUMPI DUP1 MLOAD PUSH1 0xFF NOT AND DUP4 DUP1 ADD OR DUP6 SSTORE PUSH2 0x1D25 JUMP JUMPDEST DUP3 DUP1 ADD PUSH1 0x1 ADD DUP6 SSTORE DUP3 ISZERO PUSH2 0x1D25 JUMPI SWAP2 DUP3 ADD JUMPDEST DUP3 DUP2 GT ISZERO PUSH2 0x1D25 JUMPI DUP3 MLOAD DUP3 SSTORE SWAP2 PUSH1 0x20 ADD SWAP2 SWAP1 PUSH1 0x1 ADD SWAP1 PUSH2 0x1D0A JUMP JUMPDEST POP PUSH2 0x1D31 SWAP3 SWAP2 POP PUSH2 0x1D75 JUMP JUMPDEST POP SWAP1 JUMP JUMPDEST DUP3 DUP1 SLOAD DUP3 DUP3 SSTORE SWAP1 PUSH1 0x0 MSTORE PUSH1 0x20 PUSH1 0x0 KECCAK256 SWAP1 DUP2 ADD SWAP3 DUP3 ISZERO PUSH2 0x1D25 JUMPI SWAP2 PUSH1 0x20 MUL DUP3 ADD JUMPDEST DUP3 DUP2 GT ISZERO PUSH2 0x1D25 JUMPI DUP3 MLOAD DUP3 SWAP1 PUSH1 0xFF AND SWAP1 SSTORE SWAP2 PUSH1 0x20 ADD SWAP2 SWAP1 PUSH1 0x1 ADD SWAP1 PUSH2 0x1D55 JUMP JUMPDEST JUMPDEST DUP1 DUP3 GT ISZERO PUSH2 0x1D31 JUMPI PUSH1 0x0 DUP2 SSTORE PUSH1 0x1 ADD PUSH2 0x1D76 JUMP JUMPDEST PUSH1 0x0 PUSH1 0x20 DUP3 DUP5 SUB SLT ISZERO PUSH2 0x1D9C JUMPI PUSH1 0x0 DUP1 REVERT JUMPDEST POP CALLDATALOAD SWAP2 SWAP1 POP JUMP JUMPDEST PUSH1 0x0 JUMPDEST DUP4 DUP2 LT ISZERO PUSH2 0x1DBE JUMPI DUP2 DUP2 ADD MLOAD DUP4 DUP3 ADD MSTORE PUSH1 0x20 ADD PUSH2 0x1DA6 JUMP JUMPDEST DUP4 DUP2 GT ISZERO PUSH2 0xD75 JUMPI POP POP PUSH1 0x0 SWAP2 ADD MSTORE JUMP JUMPDEST PUSH1 0x0 DUP2 MLOAD DUP1 DUP5 MSTORE PUSH2 0x1DE7 DUP2 PUSH1 0x20 DUP7 ADD PUSH1 0x20 DUP7 ADD PUSH2 0x1DA3 JUMP JUMPDEST PUSH1 0x1F ADD PUSH1 0x1F NOT AND SWAP3 SWAP1 SWAP3 ADD PUSH1 0x20 ADD SWAP3 SWAP2 POP POP JUMP JUMPDEST PUSH1 0x20 DUP2 MSTORE PUSH1 0x0 PUSH2 0xE60 PUSH1 0x20 DUP4 ADD DUP5 PUSH2 0x1DCF JUMP JUMPDEST PUSH1 0x1 PUSH1 0x1 PUSH1 0xE0 SHL SUB NOT DUP2 AND DUP2 EQ PUSH2 0xF63 JUMPI PUSH1 0x0 DUP1 REVERT JUMPDEST PUSH1 0x0 PUSH1 0x20 DUP3 DUP5 SUB SLT ISZERO PUSH2 0x1E36 JUMPI PUSH1 0x0 DUP1 REVERT JUMPDEST DUP2 CALLDATALOAD PUSH2 0xE60 DUP2 PUSH2 0x1E0E JUMP JUMPDEST DUP1 CALLDATALOAD PUSH1 0x1 PUSH1 0x1 PUSH1 0xA0 SHL SUB DUP2 AND DUP2 EQ PUSH2 0x1E58 JUMPI PUSH1 0x0 DUP1 REVERT JUMPDEST SWAP2 SWAP1 POP JUMP JUMPDEST PUSH1 0x0 PUSH1 0x20 DUP3 DUP5 SUB SLT ISZERO PUSH2 0x1E6F JUMPI PUSH1 0x0 DUP1 REVERT JUMPDEST PUSH2 0xE60 DUP3 PUSH2 0x1E41 JUMP JUMPDEST PUSH1 0x20 DUP1 DUP3 MSTORE DUP3 MLOAD DUP3 DUP3 ADD DUP2 SWAP1 MSTORE PUSH1 0x0 SWAP2 SWAP1 DUP5 DUP3 ADD SWAP1 PUSH1 0x40 DUP6 ADD SWAP1 DUP5 JUMPDEST DUP2 DUP2 LT ISZERO PUSH2 0x1EB0 JUMPI DUP4 MLOAD DUP4 MSTORE SWAP3 DUP5 ADD SWAP3 SWAP2 DUP5 ADD SWAP2 PUSH1 0x1 ADD PUSH2 0x1E94 JUMP JUMPDEST POP SWAP1 SWAP7 SWAP6 POP POP POP POP POP POP JUMP JUMPDEST PUSH1 0x0 DUP1 PUSH1 0x40 DUP4 DUP6 SUB SLT ISZERO PUSH2 0x1ECF JUMPI PUSH1 0x0 DUP1 REVERT JUMPDEST PUSH2 0x1ED8 DUP4 PUSH2 0x1E41 JUMP JUMPDEST SWAP5 PUSH1 0x20 SWAP4 SWAP1 SWAP4 ADD CALLDATALOAD SWAP4 POP POP POP JUMP JUMPDEST PUSH1 0x0 DUP1 PUSH1 0x0 PUSH1 0x60 DUP5 DUP7 SUB SLT ISZERO PUSH2 0x1EFB JUMPI PUSH1 0x0 DUP1 REVERT JUMPDEST PUSH2 0x1F04 DUP5 PUSH2 0x1E41 JUMP JUMPDEST SWAP3 POP PUSH2 0x1F12 PUSH1 0x20 DUP6 ADD PUSH2 0x1E41 JUMP JUMPDEST SWAP2 POP PUSH1 0x40 DUP5 ADD CALLDATALOAD SWAP1 POP SWAP3 POP SWAP3 POP SWAP3 JUMP JUMPDEST PUSH1 0x0 DUP1 PUSH1 0x40 DUP4 DUP6 SUB SLT ISZERO PUSH2 0x1F35 JUMPI PUSH1 0x0 DUP1 REVERT JUMPDEST POP POP DUP1 CALLDATALOAD SWAP3 PUSH1 0x20 SWAP1 SWAP2 ADD CALLDATALOAD SWAP2 POP JUMP JUMPDEST DUP1 ISZERO ISZERO DUP2 EQ PUSH2 0xF63 JUMPI PUSH1 0x0 DUP1 REVERT JUMPDEST PUSH1 0x0 DUP1 PUSH1 0x40 DUP4 DUP6 SUB SLT ISZERO PUSH2 0x1F65 JUMPI PUSH1 0x0 DUP1 REVERT JUMPDEST PUSH2 0x1F6E DUP4 PUSH2 0x1E41 JUMP JUMPDEST SWAP2 POP PUSH1 0x20 DUP4 ADD CALLDATALOAD PUSH2 0x1F7E DUP2 PUSH2 0x1F44 JUMP JUMPDEST DUP1 SWAP2 POP POP SWAP3 POP SWAP3 SWAP1 POP JUMP JUMPDEST PUSH4 0x4E487B71 PUSH1 0xE0 SHL PUSH1 0x0 MSTORE PUSH1 0x41 PUSH1 0x4 MSTORE PUSH1 0x24 PUSH1 0x0 REVERT JUMPDEST PUSH1 0x40 MLOAD PUSH1 0x1F DUP3 ADD PUSH1 0x1F NOT AND DUP2 ADD PUSH8 0xFFFFFFFFFFFFFFFF DUP2 GT DUP3 DUP3 LT OR ISZERO PUSH2 0x1FC8 JUMPI PUSH2 0x1FC8 PUSH2 0x1F89 JUMP JUMPDEST PUSH1 0x40 MSTORE SWAP2 SWAP1 POP JUMP JUMPDEST PUSH1 0x0 PUSH8 0xFFFFFFFFFFFFFFFF DUP3 GT ISZERO PUSH2 0x1FEA JUMPI PUSH2 0x1FEA PUSH2 0x1F89 JUMP JUMPDEST POP PUSH1 0x1F ADD PUSH1 0x1F NOT AND PUSH1 0x20 ADD SWAP1 JUMP JUMPDEST PUSH1 0x0 PUSH2 0x200B PUSH2 0x2006 DUP5 PUSH2 0x1FD0 JUMP JUMPDEST PUSH2 0x1F9F JUMP JUMPDEST SWAP1 POP DUP3 DUP2 MSTORE DUP4 DUP4 DUP4 ADD GT ISZERO PUSH2 0x201F JUMPI PUSH1 0x0 DUP1 REVERT JUMPDEST DUP3 DUP3 PUSH1 0x20 DUP4 ADD CALLDATACOPY PUSH1 0x0 PUSH1 0x20 DUP5 DUP4 ADD ADD MSTORE SWAP4 SWAP3 POP POP POP JUMP JUMPDEST PUSH1 0x0 DUP1 PUSH1 0x0 DUP1 PUSH1 0x80 DUP6 DUP8 SUB SLT ISZERO PUSH2 0x204C JUMPI PUSH1 0x0 DUP1 REVERT JUMPDEST PUSH2 0x2055 DUP6 PUSH2 0x1E41 JUMP JUMPDEST SWAP4 POP PUSH2 0x2063 PUSH1 0x20 DUP7 ADD PUSH2 0x1E41 JUMP JUMPDEST SWAP3 POP PUSH1 0x40 DUP6 ADD CALLDATALOAD SWAP2 POP PUSH1 0x60 DUP6 ADD CALLDATALOAD PUSH8 0xFFFFFFFFFFFFFFFF DUP2 GT ISZERO PUSH2 0x2086 JUMPI PUSH1 0x0 DUP1 REVERT JUMPDEST DUP6 ADD PUSH1 0x1F DUP2 ADD DUP8 SGT PUSH2 0x2097 JUMPI PUSH1 0x0 DUP1 REVERT JUMPDEST PUSH2 0x20A6 DUP8 DUP3 CALLDATALOAD PUSH1 0x20 DUP5 ADD PUSH2 0x1FF8 JUMP JUMPDEST SWAP2 POP POP SWAP3 SWAP6 SWAP2 SWAP5 POP SWAP3 POP JUMP JUMPDEST PUSH1 0x0 DUP1 PUSH1 0x40 DUP4 DUP6 SUB SLT ISZERO PUSH2 0x20C5 JUMPI PUSH1 0x0 DUP1 REVERT JUMPDEST DUP3 CALLDATALOAD SWAP2 POP PUSH1 0x20 DUP4 ADD CALLDATALOAD PUSH8 0xFFFFFFFFFFFFFFFF DUP2 GT ISZERO PUSH2 0x20E3 JUMPI PUSH1 0x0 DUP1 REVERT JUMPDEST DUP4 ADD PUSH1 0x1F DUP2 ADD DUP6 SGT PUSH2 0x20F4 JUMPI PUSH1 0x0 DUP1 REVERT JUMPDEST PUSH2 0x2103 DUP6 DUP3 CALLDATALOAD PUSH1 0x20 DUP5 ADD PUSH2 0x1FF8 JUMP JUMPDEST SWAP2 POP POP SWAP3 POP SWAP3 SWAP1 POP JUMP JUMPDEST PUSH1 0x0 DUP1 PUSH1 0x40 DUP4 DUP6 SUB SLT ISZERO PUSH2 0x2120 JUMPI PUSH1 0x0 DUP1 REVERT JUMPDEST PUSH2 0x2129 DUP4 PUSH2 0x1E41 JUMP JUMPDEST SWAP2 POP PUSH2 0x2137 PUSH1 0x20 DUP5 ADD PUSH2 0x1E41 JUMP JUMPDEST SWAP1 POP SWAP3 POP SWAP3 SWAP1 POP JUMP JUMPDEST PUSH1 0x1 DUP2 DUP2 SHR SWAP1 DUP3 AND DUP1 PUSH2 0x2154 JUMPI PUSH1 0x7F DUP3 AND SWAP2 POP JUMPDEST PUSH1 0x20 DUP3 LT DUP2 SUB PUSH2 0xA94 JUMPI PUSH4 0x4E487B71 PUSH1 0xE0 SHL PUSH1 0x0 MSTORE PUSH1 0x22 PUSH1 0x4 MSTORE PUSH1 0x24 PUSH1 0x0 REVERT JUMPDEST PUSH1 0x0 DUP3 PUSH1 0x1F DUP4 ADD SLT PUSH2 0x2185 JUMPI PUSH1 0x0 DUP1 REVERT JUMPDEST DUP2 MLOAD PUSH2 0x2193 PUSH2 0x2006 DUP3 PUSH2 0x1FD0 JUMP JUMPDEST DUP2 DUP2 MSTORE DUP5 PUSH1 0x20 DUP4 DUP7 ADD ADD GT ISZERO PUSH2 0x21A8 JUMPI PUSH1 0x0 DUP1 REVERT JUMPDEST PUSH2 0x10AF DUP3 PUSH1 0x20 DUP4 ADD PUSH1 0x20 DUP8 ADD PUSH2 0x1DA3 JUMP JUMPDEST PUSH1 0x0 DUP1 PUSH1 0x0 DUP1 PUSH1 0x0 PUSH1 0xA0 DUP7 DUP9 SUB SLT ISZERO PUSH2 0x21D1 JUMPI PUSH1 0x0 DUP1 REVERT JUMPDEST DUP6 MLOAD SWAP5 POP PUSH1 0x20 DUP7 ADD MLOAD PUSH8 0xFFFFFFFFFFFFFFFF DUP1 DUP3 GT ISZERO PUSH2 0x21F0 JUMPI PUSH1 0x0 DUP1 REVERT JUMPDEST PUSH2 0x21FC DUP10 DUP4 DUP11 ADD PUSH2 0x2174 JUMP JUMPDEST SWAP6 POP PUSH1 0x40 DUP9 ADD MLOAD SWAP2 POP DUP1 DUP3 GT ISZERO PUSH2 0x2212 JUMPI PUSH1 0x0 DUP1 REVERT JUMPDEST PUSH2 0x221E DUP10 DUP4 DUP11 ADD PUSH2 0x2174 JUMP JUMPDEST SWAP5 POP PUSH1 0x60 DUP9 ADD MLOAD SWAP2 POP DUP1 DUP3 GT ISZERO PUSH2 0x2234 JUMPI PUSH1 0x0 DUP1 REVERT JUMPDEST POP PUSH2 0x2241 DUP9 DUP3 DUP10 ADD PUSH2 0x2174 JUMP JUMPDEST SWAP3 POP POP PUSH1 0x80 DUP7 ADD MLOAD SWAP1 POP SWAP3 SWAP6 POP SWAP3 SWAP6 SWAP1 SWAP4 POP JUMP JUMPDEST PUSH4 0x4E487B71 PUSH1 0xE0 SHL PUSH1 0x0 MSTORE PUSH1 0x32 PUSH1 0x4 MSTORE PUSH1 0x24 PUSH1 0x0 REVERT JUMPDEST PUSH4 0x4E487B71 PUSH1 0xE0 SHL PUSH1 0x0 MSTORE PUSH1 0x11 PUSH1 0x4 MSTORE PUSH1 0x24 PUSH1 0x0 REVERT JUMPDEST PUSH1 0x0 PUSH1 0x1 DUP3 ADD PUSH2 0x2293 JUMPI PUSH2 0x2293 PUSH2 0x226B JUMP JUMPDEST POP PUSH1 0x1 ADD SWAP1 JUMP JUMPDEST PUSH1 0x0 DUP2 PUSH1 0x0 NOT DIV DUP4 GT DUP3 ISZERO ISZERO AND ISZERO PUSH2 0x22B4 JUMPI PUSH2 0x22B4 PUSH2 0x226B JUMP JUMPDEST POP MUL SWAP1 JUMP JUMPDEST PUSH1 0x0 DUP3 NOT DUP3 GT ISZERO PUSH2 0x22CC JUMPI PUSH2 0x22CC PUSH2 0x226B JUMP JUMPDEST POP ADD SWAP1 JUMP JUMPDEST PUSH1 0x0 DUP4 MLOAD PUSH2 0x22E3 DUP2 DUP5 PUSH1 0x20 DUP9 ADD PUSH2 0x1DA3 JUMP JUMPDEST DUP4 MLOAD SWAP1 DUP4 ADD SWAP1 PUSH2 0x22F7 DUP2 DUP4 PUSH1 0x20 DUP9 ADD PUSH2 0x1DA3 JUMP JUMPDEST ADD SWAP5 SWAP4 POP POP POP POP JUMP JUMPDEST PUSH1 0x40 DUP2 MSTORE PUSH1 0x0 PUSH2 0x2313 PUSH1 0x40 DUP4 ADD DUP6 PUSH2 0x1DCF JUMP JUMPDEST SWAP1 POP DUP3 PUSH1 0x20 DUP4 ADD MSTORE SWAP4 SWAP3 POP POP POP JUMP JUMPDEST PUSH1 0x0 DUP3 DUP3 LT ISZERO PUSH2 0x2334 JUMPI PUSH2 0x2334 PUSH2 0x226B JUMP JUMPDEST POP SUB SWAP1 JUMP JUMPDEST PUSH4 0x4E487B71 PUSH1 0xE0 SHL PUSH1 0x0 MSTORE PUSH1 0x12 PUSH1 0x4 MSTORE PUSH1 0x24 PUSH1 0x0 REVERT JUMPDEST PUSH1 0x0 DUP3 PUSH2 0x235E JUMPI PUSH2 0x235E PUSH2 0x2339 JUMP JUMPDEST POP DIV SWAP1 JUMP JUMPDEST PUSH1 0x0 DUP3 PUSH2 0x2372 JUMPI PUSH2 0x2372 PUSH2 0x2339 JUMP JUMPDEST POP MOD SWAP1 JUMP JUMPDEST PUSH1 0x0 DUP2 PUSH2 0x2386 JUMPI PUSH2 0x2386 PUSH2 0x226B JUMP JUMPDEST POP PUSH1 0x0 NOT ADD SWAP1 JUMP JUMPDEST PUSH1 0x0 PUSH1 0x20 DUP3 DUP5 SUB SLT ISZERO PUSH2 0x23A0 JUMPI PUSH1 0x0 DUP1 REVERT JUMPDEST DUP2 MLOAD PUSH2 0xE60 DUP2 PUSH2 0x1F44 JUMP JUMPDEST PUSH1 0x0 PUSH1 0x1 PUSH1 0x1 PUSH1 0xA0 SHL SUB DUP1 DUP8 AND DUP4 MSTORE DUP1 DUP7 AND PUSH1 0x20 DUP5 ADD MSTORE POP DUP4 PUSH1 0x40 DUP4 ADD MSTORE PUSH1 0x80 PUSH1 0x60 DUP4 ADD MSTORE PUSH2 0x23DD PUSH1 0x80 DUP4 ADD DUP5 PUSH2 0x1DCF JUMP JUMPDEST SWAP7 SWAP6 POP POP POP POP POP POP JUMP JUMPDEST PUSH1 0x0 PUSH1 0x20 DUP3 DUP5 SUB SLT ISZERO PUSH2 0x23F9 JUMPI PUSH1 0x0 DUP1 REVERT JUMPDEST DUP2 MLOAD PUSH2 0xE60 DUP2 PUSH2 0x1E0E JUMP JUMPDEST PUSH1 0x0 DUP3 MLOAD PUSH2 0x2416 DUP2 DUP5 PUSH1 0x20 DUP8 ADD PUSH2 0x1DA3 JUMP JUMPDEST SWAP2 SWAP1 SWAP2 ADD SWAP3 SWAP2 POP POP JUMP INVALID LOG2 PUSH5 0x6970667358 0x22 SLT KECCAK256 0xE3 EXTCODEHASH 0x2F 0x28 SWAP8 0x21 0x25 DIV 0xC1 0xAB 0xEA PUSH18 0xBAFE153E1081476543D10E3F2C757F09AE72 0x24 SWAP2 PUSH5 0x736F6C6343 STOP ADDMOD 0xD STOP CALLER "
    },
    "gasEstimates": {
      "creation": {
        "codeDepositCost": "1860400",
        "executionCost": "infinite",
        "totalCost": "infinite"
      },
      "external": {
        "address_tokenId(address)": "2564",
        "approve(address,uint256)": "infinite",
        "balanceOf(address)": "2635",
        "change_name(uint256,string)": "infinite",
        "coin()": "infinite",
        "coin_required(uint256)": "504",
        "getApproved(uint256)": "4770",
        "hunter_skill(address)": "infinite",
        "hunter_skill_multiple(address)": "infinite",
        "isApprovedForAll(address,address)": "infinite",
        "minted_address(address)": "2576",
        "name()": "infinite",
        "name(uint256)": "infinite",
        "owner()": "2376",
        "ownerOf(uint256)": "2643",
        "renounceOwnership()": "infinite",
        "safeTransferFrom(address,address,uint256)": "infinite",
        "safeTransferFrom(address,address,uint256,bytes)": "infinite",
        "setApprovalForAll(address,bool)": "26823",
        "skill(uint256,uint256)": "4733",
        "skillInfo()": "infinite",
        "skill_up(uint256,uint256)": "infinite",
        "summon()": "infinite",
        "supportsInterface(bytes4)": "590",
        "symbol()": "infinite",
        "tokenURI(uint256)": "infinite",
        "transferFrom(address,address,uint256)": "infinite",
        "transferOwnership(address)": "28446"
      }
    },
    "methodIdentifiers": {
      "address_tokenId(address)": "3b092f39",
      "approve(address,uint256)": "095ea7b3",
      "balanceOf(address)": "70a08231",
      "change_name(uint256,string)": "e51c4ecc",
      "coin()": "11df9995",
      "coin_required(uint256)": "4f068da7",
      "getApproved(uint256)": "081812fc",
      "hunter_skill(address)": "c6cc5105",
      "hunter_skill_multiple(address)": "08572119",
      "isApprovedForAll(address,address)": "e985e9c5",
      "minted_address(address)": "adf448d8",
      "name()": "06fdde03",
      "name(uint256)": "00ad800c",
      "owner()": "8da5cb5b",
      "ownerOf(uint256)": "6352211e",
      "renounceOwnership()": "715018a6",
      "safeTransferFrom(address,address,uint256)": "42842e0e",
      "safeTransferFrom(address,address,uint256,bytes)": "b88d4fde",
      "setApprovalForAll(address,bool)": "a22cb465",
      "skill(uint256,uint256)": "34451530",
      "skillInfo()": "941db000",
      "skill_up(uint256,uint256)": "7ae27560",
      "summon()": "363dd19e",
      "supportsInterface(bytes4)": "01ffc9a7",
      "symbol()": "95d89b41",
      "tokenURI(uint256)": "c87b56dd",
      "transferFrom(address,address,uint256)": "23b872dd",
      "transferOwnership(address)": "f2fde38b"
    }
  },
  "storageLayout": {
    "storage": [
      {
        "astId": 1571,
        "contract": "Character.sol:Character",
        "label": "_name",
        "offset": 0,
        "slot": "0",
        "type": "t_string_storage"
      },
      {
        "astId": 1573,
        "contract": "Character.sol:Character",
        "label": "_symbol",
        "offset": 0,
        "slot": "1",
        "type": "t_string_storage"
      },
      {
        "astId": 1577,
        "contract": "Character.sol:Character",
        "label": "_owners",
        "offset": 0,
        "slot": "2",
        "type": "t_mapping(t_uint256,t_address)"
      },
      {
        "astId": 1581,
        "contract": "Character.sol:Character",
        "label": "_balances",
        "offset": 0,
        "slot": "3",
        "type": "t_mapping(t_address,t_uint256)"
      },
      {
        "astId": 1585,
        "contract": "Character.sol:Character",
        "label": "_tokenApprovals",
        "offset": 0,
        "slot": "4",
        "type": "t_mapping(t_uint256,t_address)"
      },
      {
        "astId": 1591,
        "contract": "Character.sol:Character",
        "label": "_operatorApprovals",
        "offset": 0,
        "slot": "5",
        "type": "t_mapping(t_address,t_mapping(t_address,t_bool))"
      },
      {
        "astId": 1081,
        "contract": "Character.sol:Character",
        "label": "_owner",
        "offset": 0,
        "slot": "6",
        "type": "t_address"
      },
      {
        "astId": 44,
        "contract": "Character.sol:Character",
        "label": "_tokenIdCounter",
        "offset": 0,
        "slot": "7",
        "type": "t_struct(Counter)2418_storage"
      },
      {
        "astId": 48,
        "contract": "Character.sol:Character",
        "label": "minted_address",
        "offset": 0,
        "slot": "8",
        "type": "t_mapping(t_address,t_bool)"
      },
      {
        "astId": 52,
        "contract": "Character.sol:Character",
        "label": "address_tokenId",
        "offset": 0,
        "slot": "9",
        "type": "t_mapping(t_address,t_uint256)"
      },
      {
        "astId": 56,
        "contract": "Character.sol:Character",
        "label": "name",
        "offset": 0,
        "slot": "10",
        "type": "t_mapping(t_uint256,t_string_storage)"
      },
      {
        "astId": 61,
        "contract": "Character.sol:Character",
        "label": "skill",
        "offset": 0,
        "slot": "11",
        "type": "t_mapping(t_uint256,t_array(t_uint256)dyn_storage)"
      }
    ],
    "types": {
      "t_address": {
        "encoding": "inplace",
        "label": "address",
        "numberOfBytes": "20"
      },
      "t_array(t_uint256)dyn_storage": {
        "base": "t_uint256",
        "encoding": "dynamic_array",
        "label": "uint256[]",
        "numberOfBytes": "32"
      },
      "t_bool": {
        "encoding": "inplace",
        "label": "bool",
        "numberOfBytes": "1"
      },
      "t_mapping(t_address,t_bool)": {
        "encoding": "mapping",
        "key": "t_address",
        "label": "mapping(address => bool)",
        "numberOfBytes": "32",
        "value": "t_bool"
      },
      "t_mapping(t_address,t_mapping(t_address,t_bool))": {
        "encoding": "mapping",
        "key": "t_address",
        "label": "mapping(address => mapping(address => bool))",
        "numberOfBytes": "32",
        "value": "t_mapping(t_address,t_bool)"
      },
      "t_mapping(t_address,t_uint256)": {
        "encoding": "mapping",
        "key": "t_address",
        "label": "mapping(address => uint256)",
        "numberOfBytes": "32",
        "value": "t_uint256"
      },
      "t_mapping(t_uint256,t_address)": {
        "encoding": "mapping",
        "key": "t_uint256",
        "label": "mapping(uint256 => address)",
        "numberOfBytes": "32",
        "value": "t_address"
      },
      "t_mapping(t_uint256,t_array(t_uint256)dyn_storage)": {
        "encoding": "mapping",
        "key": "t_uint256",
        "label": "mapping(uint256 => uint256[])",
        "numberOfBytes": "32",
        "value": "t_array(t_uint256)dyn_storage"
      },
      "t_mapping(t_uint256,t_string_storage)": {
        "encoding": "mapping",
        "key": "t_uint256",
        "label": "mapping(uint256 => string)",
        "numberOfBytes": "32",
        "value": "t_string_storage"
      },
      "t_string_storage": {
        "encoding": "bytes",
        "label": "string",
        "numberOfBytes": "32"
      },
      "t_struct(Counter)2418_storage": {
        "encoding": "inplace",
        "label": "struct Counters.Counter",
        "members": [
          {
            "astId": 2417,
            "contract": "Character.sol:Character",
            "label": "_value",
            "offset": 0,
            "slot": "0",
            "type": "t_uint256"
          }
        ],
        "numberOfBytes": "32"
      },
      "t_uint256": {
        "encoding": "inplace",
        "label": "uint256",
        "numberOfBytes": "32"
      }
    }
  },
  "userdoc": {
    "kind": "user",
    "methods": {},
    "version": 1
  }
}