{
  "abi": [
    {
      "inputs": [
        {
          "internalType": "contract IERC20",
          "name": "_coin",
          "type": "address"
        },
        {
          "internalType": "address",
          "name": "_skillInfo",
          "type": "address"
        }
      ],
      "stateMutability": "nonpayable",
      "type": "constructor"
    },
    {
      "anonymous": false,
      "inputs": [
        {
          "indexed": true,
          "internalType": "address",
          "name": "owner",
          "type": "address"
        },
        {
          "indexed": true,
          "internalType": "address",
          "name": "approved",
          "type": "address"
        },
        {
          "indexed": true,
          "internalType": "uint256",
          "name": "tokenId",
          "type": "uint256"
        }
      ],
      "name": "Approval",
      "type": "event"
    },
    {
      "anonymous": false,
      "inputs": [
        {
          "indexed": true,
          "internalType": "address",
          "name": "owner",
          "type": "address"
        },
        {
          "indexed": true,
          "internalType": "address",
          "name": "operator",
          "type": "address"
        },
        {
          "indexed": false,
          "internalType": "bool",
          "name": "approved",
          "type": "bool"
        }
      ],
      "name": "ApprovalForAll",
      "type": "event"
    },
    {
      "anonymous": false,
      "inputs": [
        {
          "indexed": true,
          "internalType": "address",
          "name": "previousOwner",
          "type": "address"
        },
        {
          "indexed": true,
          "internalType": "address",
          "name": "newOwner",
          "type": "address"
        }
      ],
      "name": "OwnershipTransferred",
      "type": "event"
    },
    {
      "anonymous": false,
      "inputs": [
        {
          "indexed": true,
          "internalType": "address",
          "name": "from",
          "type": "address"
        },
        {
          "indexed": true,
          "internalType": "address",
          "name": "to",
          "type": "address"
        },
        {
          "indexed": true,
          "internalType": "uint256",
          "name": "tokenId",
          "type": "uint256"
        }
      ],
      "name": "Transfer",
      "type": "event"
    },
    {
      "anonymous": false,
      "inputs": [
        {
          "indexed": true,
          "internalType": "address",
          "name": "owner",
          "type": "address"
        },
        {
          "indexed": false,
          "internalType": "string",
          "name": "name",
          "type": "string"
        },
        {
          "indexed": false,
          "internalType": "uint256",
          "name": "hunter",
          "type": "uint256"
        }
      ],
      "name": "named",
      "type": "event"
    },
    {
      "anonymous": false,
      "inputs": [
        {
          "indexed": true,
          "internalType": "address",
          "name": "owner",
          "type": "address"
        },
        {
          "indexed": false,
          "internalType": "uint256",
          "name": "skill",
          "type": "uint256"
        },
        {
          "indexed": false,
          "internalType": "uint256",
          "name": "hunter",
          "type": "uint256"
        }
      ],
      "name": "skilled",
      "type": "event"
    },
    {
      "anonymous": false,
      "inputs": [
        {
          "indexed": true,
          "internalType": "address",
          "name": "owner",
          "type": "address"
        },
        {
          "indexed": false,
          "internalType": "uint256",
          "name": "hunter",
          "type": "uint256"
        }
      ],
      "name": "summoned",
      "type": "event"
    },
    {
      "inputs": [
        {
          "internalType": "address",
          "name": "",
          "type": "address"
        }
      ],
      "name": "address_tokenId",
      "outputs": [
        {
          "internalType": "uint256",
          "name": "",
          "type": "uint256"
        }
      ],
      "stateMutability": "view",
      "type": "function"
    },
    {
      "inputs": [
        {
          "internalType": "address",
          "name": "to",
          "type": "address"
        },
        {
          "internalType": "uint256",
          "name": "tokenId",
          "type": "uint256"
        }
      ],
      "name": "approve",
      "outputs": [],
      "stateMutability": "nonpayable",
      "type": "function"
    },
    {
      "inputs": [
        {
          "internalType": "address",
          "name": "owner",
          "type": "address"
        }
      ],
      "name": "balanceOf",
      "outputs": [
        {
          "internalType": "uint256",
          "name": "",
          "type": "uint256"
        }
      ],
      "stateMutability": "view",
      "type": "function"
    },
    {
      "inputs": [
        {
          "internalType": "uint256",
          "name": "_hunter",
          "type": "uint256"
        },
        {
          "internalType": "string",
          "name": "_name",
          "type": "string"
        }
      ],
      "name": "change_name",
      "outputs": [],
      "stateMutability": "nonpayable",
      "type": "function"
    },
    {
      "inputs": [],
      "name": "coin",
      "outputs": [
        {
          "internalType": "contract IERC20",
          "name": "",
          "type": "address"
        }
      ],
      "stateMutability": "view",
      "type": "function"
    },
    {
      "inputs": [
        {
          "internalType": "uint256",
          "name": "curent_skill",
          "type": "uint256"
        }
      ],
      "name": "coin_required",
      "outputs": [
        {
          "internalType": "uint256",
          "name": "coin_to_next_skill",
          "type": "uint256"
        }
      ],
      "stateMutability": "pure",
      "type": "function"
    },
    {
      "inputs": [
        {
          "internalType": "uint256",
          "name": "tokenId",
          "type": "uint256"
        }
      ],
      "name": "getApproved",
      "outputs": [
        {
          "internalType": "address",
          "name": "",
          "type": "address"
        }
      ],
      "stateMutability": "view",
      "type": "function"
    },
    {
      "inputs": [
        {
          "internalType": "address",
          "name": "_hunter",
          "type": "address"
        }
      ],
      "name": "hunter_skill",
      "outputs": [
        {
          "internalType": "uint256[]",
          "name": "_skill",
          "type": "uint256[]"
        }
      ],
      "stateMutability": "view",
      "type": "function"
    },
    {
      "inputs": [
        {
          "internalType": "address",
          "name": "_hunter",
          "type": "address"
        }
      ],
      "name": "hunter_skill_multiple",
      "outputs": [
        {
          "internalType": "uint256[]",
          "name": "_multiple",
          "type": "uint256[]"
        }
      ],
      "stateMutability": "view",
      "type": "function"
    },
    {
      "inputs": [
        {
          "internalType": "address",
          "name": "owner",
          "type": "address"
        },
        {
          "internalType": "address",
          "name": "operator",
          "type": "address"
        }
      ],
      "name": "isApprovedForAll",
      "outputs": [
        {
          "internalType": "bool",
          "name": "",
          "type": "bool"
        }
      ],
      "stateMutability": "view",
      "type": "function"
    },
    {
      "inputs": [
        {
          "internalType": "address",
          "name": "",
          "type": "address"
        }
      ],
      "name": "minted_address",
      "outputs": [
        {
          "internalType": "bool",
          "name": "",
          "type": "bool"
        }
      ],
      "stateMutability": "view",
      "type": "function"
    },
    {
      "inputs": [
        {
          "internalType": "uint256",
          "name": "",
          "type": "uint256"
        }
      ],
      "name": "name",
      "outputs": [
        {
          "internalType": "string",
          "name": "",
          "type": "string"
        }
      ],
      "stateMutability": "view",
      "type": "function"
    },
    {
      "inputs": [],
      "name": "name",
      "outputs": [
        {
          "internalType": "string",
          "name": "",
          "type": "string"
        }
      ],
      "stateMutability": "view",
      "type": "function"
    },
    {
      "inputs": [],
      "name": "owner",
      "outputs": [
        {
          "internalType": "address",
          "name": "",
          "type": "address"
        }
      ],
      "stateMutability": "view",
      "type": "function"
    },
    {
      "inputs": [
        {
          "internalType": "uint256",
          "name": "tokenId",
          "type": "uint256"
        }
      ],
      "name": "ownerOf",
      "outputs": [
        {
          "internalType": "address",
          "name": "",
          "type": "address"
        }
      ],
      "stateMutability": "view",
      "type": "function"
    },
    {
      "inputs": [],
      "name": "renounceOwnership",
      "outputs": [],
      "stateMutability": "nonpayable",
      "type": "function"
    },
    {
      "inputs": [
        {
          "internalType": "address",
          "name": "from",
          "type": "address"
        },
        {
          "internalType": "address",
          "name": "to",
          "type": "address"
        },
        {
          "internalType": "uint256",
          "name": "tokenId",
          "type": "uint256"
        }
      ],
      "name": "safeTransferFrom",
      "outputs": [],
      "stateMutability": "nonpayable",
      "type": "function"
    },
    {
      "inputs": [
        {
          "internalType": "address",
          "name": "from",
          "type": "address"
        },
        {
          "internalType": "address",
          "name": "to",
          "type": "address"
        },
        {
          "internalType": "uint256",
          "name": "tokenId",
          "type": "uint256"
        },
        {
          "internalType": "bytes",
          "name": "data",
          "type": "bytes"
        }
      ],
      "name": "safeTransferFrom",
      "outputs": [],
      "stateMutability": "nonpayable",
      "type": "function"
    },
    {
      "inputs": [
        {
          "internalType": "address",
          "name": "operator",
          "type": "address"
        },
        {
          "internalType": "bool",
          "name": "approved",
          "type": "bool"
        }
      ],
      "name": "setApprovalForAll",
      "outputs": [],
      "stateMutability": "nonpayable",
      "type": "function"
    },
    {
      "inputs": [
        {
          "internalType": "uint256",
          "name": "",
          "type": "uint256"
        },
        {
          "internalType": "uint256",
          "name": "",
          "type": "uint256"
        }
      ],
      "name": "skill",
      "outputs": [
        {
          "internalType": "uint256",
          "name": "",
          "type": "uint256"
        }
      ],
      "stateMutability": "view",
      "type": "function"
    },
    {
      "inputs": [],
      "name": "skillInfo",
      "outputs": [
        {
          "internalType": "contract Skills",
          "name": "",
          "type": "address"
        }
      ],
      "stateMutability": "view",
      "type": "function"
    },
    {
      "inputs": [
        {
          "internalType": "uint256",
          "name": "_hunter",
          "type": "uint256"
        },
        {
          "internalType": "uint256",
          "name": "_skill_index",
          "type": "uint256"
        }
      ],
      "name": "skill_up",
      "outputs": [],
      "stateMutability": "nonpayable",
      "type": "function"
    },
    {
      "inputs": [],
      "name": "summon",
      "outputs": [],
      "stateMutability": "nonpayable",
      "type": "function"
    },
    {
      "inputs": [
        {
          "internalType": "bytes4",
          "name": "interfaceId",
          "type": "bytes4"
        }
      ],
      "name": "supportsInterface",
      "outputs": [
        {
          "internalType": "bool",
          "name": "",
          "type": "bool"
        }
      ],
      "stateMutability": "view",
      "type": "function"
    },
    {
      "inputs": [],
      "name": "symbol",
      "outputs": [
        {
          "internalType": "string",
          "name": "",
          "type": "string"
        }
      ],
      "stateMutability": "view",
      "type": "function"
    },
    {
      "inputs": [
        {
          "internalType": "uint256",
          "name": "tokenId",
          "type": "uint256"
        }
      ],
      "name": "tokenURI",
      "outputs": [
        {
          "internalType": "string",
          "name": "",
          "type": "string"
        }
      ],
      "stateMutability": "view",
      "type": "function"
    },
    {
      "inputs": [
        {
          "internalType": "address",
          "name": "from",
          "type": "address"
        },
        {
          "internalType": "address",
          "name": "to",
          "type": "address"
        },
        {
          "internalType": "uint256",
          "name": "tokenId",
          "type": "uint256"
        }
      ],
      "name": "transferFrom",
      "outputs": [],
      "stateMutability": "nonpayable",
      "type": "function"
    },
    {
      "inputs": [
        {
          "internalType": "address",
          "name": "newOwner",
          "type": "address"
        }
      ],
      "name": "transferOwnership",
      "outputs": [],
      "stateMutability": "nonpayable",
      "type": "function"
    }
  ],
  "devdoc": {
    "kind": "dev",
    "methods": {
      "approve(address,uint256)": {
        "details": "See {IERC721-approve}."
      },
      "balanceOf(address)": {
        "details": "See {IERC721-balanceOf}."
      },
      "getApproved(uint256)": {
        "details": "See {IERC721-getApproved}."
      },
      "isApprovedForAll(address,address)": {
        "details": "See {IERC721-isApprovedForAll}."
      },
      "name()": {
        "details": "See {IERC721Metadata-name}."
      },
      "owner()": {
        "details": "Returns the address of the current owner."
      },
      "ownerOf(uint256)": {
        "details": "See {IERC721-ownerOf}."
      },
      "renounceOwnership()": {
        "details": "Leaves the contract without owner. It will not be possible to call `onlyOwner` functions anymore. Can only be called by the current owner. NOTE: Renouncing ownership will leave the contract without an owner, thereby removing any functionality that is only available to the owner."
      },
      "safeTransferFrom(address,address,uint256)": {
        "details": "See {IERC721-safeTransferFrom}."
      },
      "safeTransferFrom(address,address,uint256,bytes)": {
        "details": "See {IERC721-safeTransferFrom}."
      },
      "setApprovalForAll(address,bool)": {
        "details": "See {IERC721-setApprovalForAll}."
      },
      "supportsInterface(bytes4)": {
        "details": "See {IERC165-supportsInterface}."
      },
      "symbol()": {
        "details": "See {IERC721Metadata-symbol}."
      },
      "tokenURI(uint256)": {
        "details": "See {IERC721Metadata-tokenURI}."
      },
      "transferFrom(address,address,uint256)": {
        "details": "See {IERC721-transferFrom}."
      },
      "transferOwnership(address)": {
        "details": "Transfers ownership of the contract to a new account (`newOwner`). Can only be called by the current owner."
      }
    },
    "version": 1
  },
  "evm": {
    "assembly": "    /* \"Character.sol\":692:4277  contract Character is ERC721, Ownable {... */\n  mstore(0x40, 0xc0)\n    /* \"Character.sol\":1420:1582  constructor(IERC20 _coin, address _skillInfo)... */\n  callvalue\n  dup1\n  iszero\n  tag_1\n  jumpi\n  0x00\n  dup1\n  revert\ntag_1:\n  pop\n  mload(0x40)\n  sub(codesize, bytecodeSize)\n  dup1\n  bytecodeSize\n  dup4\n  codecopy\n  dup2\n  add\n  0x40\n  dup2\n  swap1\n  mstore\n  tag_2\n  swap2\n  tag_3\n  jump\t// in\ntag_2:\n    /* \"@openzeppelin/contracts/token/ERC721/ERC721.sol\":1390:1503   */\n  0x40\n  dup1\n  mload\n  dup1\n  dup3\n  add\n  dup3\n  mstore\n  0x09\n  dup2\n  mstore\n  shl(0xb9, 0x21b430b930b1ba32b9)\n  0x20\n  dup1\n  dup4\n  add\n  swap2\n  dup3\n  mstore\n  dup4\n  mload\n  dup1\n  dup6\n  add\n  swap1\n  swap5\n  mstore\n  0x06\n  dup5\n  mstore\n  shl(0xd1, 0x242aa72a22a9)\n  swap1\n  dup5\n  add\n  mstore\n    /* \"@openzeppelin/contracts/token/ERC721/ERC721.sol\":1456:1469   */\n  dup2\n  mload\n    /* \"@openzeppelin/contracts/token/ERC721/ERC721.sol\":1390:1503   */\n  swap2\n  swap3\n  swap2\n    /* \"@openzeppelin/contracts/token/ERC721/ERC721.sol\":1456:1469   */\n  tag_8\n  swap2\n  0x00\n  swap2\n  tag_9\n  jump\t// in\ntag_8:\n  pop\n    /* \"@openzeppelin/contracts/token/ERC721/ERC721.sol\":1479:1496   */\n  dup1\n  mload\n  tag_10\n  swap1\n    /* \"@openzeppelin/contracts/token/ERC721/ERC721.sol\":1479:1486   */\n  0x01\n  swap1\n    /* \"@openzeppelin/contracts/token/ERC721/ERC721.sol\":1479:1496   */\n  0x20\n  dup5\n  add\n  swap1\n  tag_9\n  jump\t// in\ntag_10:\n  pop\n    /* \"@openzeppelin/contracts/token/ERC721/ERC721.sol\":1390:1503   */\n  pop\n  pop\n    /* \"@openzeppelin/contracts/access/Ownable.sol\":936:968   */\n  tag_12\n    /* \"@openzeppelin/contracts/access/Ownable.sol\":955:967   */\n  tag_13\n    /* \"@openzeppelin/contracts/access/Ownable.sol\":955:965   */\n  shl(0x20, tag_14)\n    /* \"@openzeppelin/contracts/access/Ownable.sol\":955:967   */\n  0x20\n  shr\n  jump\t// in\ntag_13:\n    /* \"@openzeppelin/contracts/access/Ownable.sol\":936:954   */\n  tag_15\n    /* \"@openzeppelin/contracts/access/Ownable.sol\":936:968   */\n  jump\t// in\ntag_12:\n  sub(shl(0xa0, 0x01), 0x01)\n    /* \"Character.sol\":1521:1533  coin = _coin */\n  swap2\n  dup3\n  and\n  0x80\n  mstore\n    /* \"Character.sol\":1544:1574  skillInfo = Skills(_skillInfo) */\n  and\n  0xa0\n  mstore\n    /* \"Character.sol\":692:4277  contract Character is ERC721, Ownable {... */\n  jump(tag_32)\n    /* \"@openzeppelin/contracts/utils/Context.sol\":640:736   */\ntag_14:\n    /* \"@openzeppelin/contracts/utils/Context.sol\":719:729   */\n  caller\n  swap1\n    /* \"@openzeppelin/contracts/utils/Context.sol\":640:736   */\n  jump\t// out\n    /* \"@openzeppelin/contracts/access/Ownable.sol\":2433:2620   */\ntag_15:\n    /* \"@openzeppelin/contracts/access/Ownable.sol\":2525:2531   */\n  0x06\n  dup1\n  sload\n  sub(shl(0xa0, 0x01), 0x01)\n    /* \"@openzeppelin/contracts/access/Ownable.sol\":2541:2558   */\n  dup4\n  dup2\n  and\n  not(sub(shl(0xa0, 0x01), 0x01))\n  dup4\n  and\n  dup2\n  or\n  swap1\n  swap4\n  sstore\n    /* \"@openzeppelin/contracts/access/Ownable.sol\":2573:2613   */\n  mload(0x40)\n    /* \"@openzeppelin/contracts/access/Ownable.sol\":2525:2531   */\n  swap2\n  and\n  swap2\n    /* \"@openzeppelin/contracts/access/Ownable.sol\":2541:2558   */\n  swap1\n    /* \"@openzeppelin/contracts/access/Ownable.sol\":2525:2531   */\n  dup3\n  swap1\n    /* \"@openzeppelin/contracts/access/Ownable.sol\":2573:2613   */\n  0x8be0079c531659141344cd1fd0a4f28419497f9722a3daafe3b4186f6b6457e0\n  swap1\n    /* \"@openzeppelin/contracts/access/Ownable.sol\":2506:2522   */\n  0x00\n  swap1\n    /* \"@openzeppelin/contracts/access/Ownable.sol\":2573:2613   */\n  log3\n    /* \"@openzeppelin/contracts/access/Ownable.sol\":2496:2620   */\n  pop\n    /* \"@openzeppelin/contracts/access/Ownable.sol\":2433:2620   */\n  pop\n  jump\t// out\n    /* \"Character.sol\":692:4277  contract Character is ERC721, Ownable {... */\ntag_9:\n  dup3\n  dup1\n  sload\n  tag_20\n  swap1\n  tag_21\n  jump\t// in\ntag_20:\n  swap1\n  0x00\n  mstore\n  keccak256(0x00, 0x20)\n  swap1\n  0x1f\n  add\n  0x20\n  swap1\n  div\n  dup2\n  add\n  swap3\n  dup3\n  tag_23\n  jumpi\n  0x00\n  dup6\n  sstore\n  jump(tag_26)\ntag_23:\n  dup3\n  0x1f\n  lt\n  tag_24\n  jumpi\n  dup1\n  mload\n  not(0xff)\n  and\n  dup4\n  dup1\n  add\n  or\n  dup6\n  sstore\n  jump(tag_26)\ntag_24:\n  dup3\n  dup1\n  add\n  0x01\n  add\n  dup6\n  sstore\n  dup3\n  iszero\n  tag_26\n  jumpi\n  swap2\n  dup3\n  add\ntag_25:\n  dup3\n  dup2\n  gt\n  iszero\n  tag_26\n  jumpi\n  dup3\n  mload\n  dup3\n  sstore\n  swap2\n  0x20\n  add\n  swap2\n  swap1\n  0x01\n  add\n  swap1\n  jump(tag_25)\ntag_26:\n  pop\n  tag_27\n  swap3\n  swap2\n  pop\n  tag_28\n  jump\t// in\ntag_27:\n  pop\n  swap1\n  jump\t// out\ntag_28:\ntag_29:\n  dup1\n  dup3\n  gt\n  iszero\n  tag_27\n  jumpi\n  0x00\n  dup2\n  sstore\n  0x01\n  add\n  jump(tag_29)\n    /* \"#utility.yul\":14:153   */\ntag_31:\n  sub(shl(0xa0, 0x01), 0x01)\n    /* \"#utility.yul\":97:128   */\n  dup2\n  and\n    /* \"#utility.yul\":87:129   */\n  dup2\n  eq\n    /* \"#utility.yul\":77:147   */\n  tag_34\n  jumpi\n    /* \"#utility.yul\":143:144   */\n  0x00\n    /* \"#utility.yul\":140:141   */\n  dup1\n    /* \"#utility.yul\":133:145   */\n  revert\n    /* \"#utility.yul\":77:147   */\ntag_34:\n    /* \"#utility.yul\":14:153   */\n  pop\n  jump\t// out\n    /* \"#utility.yul\":158:574   */\ntag_3:\n    /* \"#utility.yul\":252:258   */\n  0x00\n    /* \"#utility.yul\":260:266   */\n  dup1\n    /* \"#utility.yul\":313:315   */\n  0x40\n    /* \"#utility.yul\":301:310   */\n  dup4\n    /* \"#utility.yul\":292:299   */\n  dup6\n    /* \"#utility.yul\":288:311   */\n  sub\n    /* \"#utility.yul\":284:316   */\n  slt\n    /* \"#utility.yul\":281:333   */\n  iszero\n  tag_36\n  jumpi\n    /* \"#utility.yul\":329:330   */\n  0x00\n    /* \"#utility.yul\":326:327   */\n  dup1\n    /* \"#utility.yul\":319:331   */\n  revert\n    /* \"#utility.yul\":281:333   */\ntag_36:\n    /* \"#utility.yul\":361:370   */\n  dup3\n    /* \"#utility.yul\":355:371   */\n  mload\n    /* \"#utility.yul\":380:419   */\n  tag_37\n    /* \"#utility.yul\":413:418   */\n  dup2\n    /* \"#utility.yul\":380:419   */\n  tag_31\n  jump\t// in\ntag_37:\n    /* \"#utility.yul\":488:490   */\n  0x20\n    /* \"#utility.yul\":473:491   */\n  dup5\n  add\n    /* \"#utility.yul\":467:492   */\n  mload\n    /* \"#utility.yul\":438:443   */\n  swap1\n  swap3\n  pop\n    /* \"#utility.yul\":501:542   */\n  tag_38\n    /* \"#utility.yul\":467:492   */\n  dup2\n    /* \"#utility.yul\":501:542   */\n  tag_31\n  jump\t// in\ntag_38:\n    /* \"#utility.yul\":561:568   */\n  dup1\n    /* \"#utility.yul\":551:568   */\n  swap2\n  pop\n  pop\n    /* \"#utility.yul\":158:574   */\n  swap3\n  pop\n  swap3\n  swap1\n  pop\n  jump\t// out\n    /* \"#utility.yul\":579:959   */\ntag_21:\n    /* \"#utility.yul\":658:659   */\n  0x01\n    /* \"#utility.yul\":654:666   */\n  dup2\n  dup2\n  shr\n  swap1\n    /* \"#utility.yul\":701:713   */\n  dup3\n  and\n  dup1\n    /* \"#utility.yul\":722:783   */\n  tag_40\n  jumpi\n    /* \"#utility.yul\":776:780   */\n  0x7f\n    /* \"#utility.yul\":768:774   */\n  dup3\n    /* \"#utility.yul\":764:781   */\n  and\n    /* \"#utility.yul\":754:781   */\n  swap2\n  pop\n    /* \"#utility.yul\":722:783   */\ntag_40:\n    /* \"#utility.yul\":829:831   */\n  0x20\n    /* \"#utility.yul\":821:827   */\n  dup3\n    /* \"#utility.yul\":818:832   */\n  lt\n    /* \"#utility.yul\":798:816   */\n  dup2\n    /* \"#utility.yul\":795:833   */\n  sub\n    /* \"#utility.yul\":792:953   */\n  tag_41\n  jumpi\n    /* \"#utility.yul\":875:885   */\n  0x4e487b71\n    /* \"#utility.yul\":870:873   */\n  0xe0\n    /* \"#utility.yul\":866:886   */\n  shl\n    /* \"#utility.yul\":863:864   */\n  0x00\n    /* \"#utility.yul\":856:887   */\n  mstore\n    /* \"#utility.yul\":910:914   */\n  0x22\n    /* \"#utility.yul\":907:908   */\n  0x04\n    /* \"#utility.yul\":900:915   */\n  mstore\n    /* \"#utility.yul\":938:942   */\n  0x24\n    /* \"#utility.yul\":935:936   */\n  0x00\n    /* \"#utility.yul\":928:943   */\n  revert\n    /* \"#utility.yul\":792:953   */\ntag_41:\n  pop\n    /* \"#utility.yul\":579:959   */\n  swap2\n  swap1\n  pop\n  jump\t// out\ntag_32:\n    /* \"Character.sol\":692:4277  contract Character is ERC721, Ownable {... */\n  mload(0x80)\n  mload(0xa0)\n  codecopy(0x00, dataOffset(sub_0), dataSize(sub_0))\n  0x00\n  assignImmutable(\"0x6bcaf047ba4c8ac400fca43393035242dd1aabda2d6068a0c51242b97224de8d\")\n  0x00\n  assignImmutable(\"0xd67d834462ca31eaef1f30157e31659f60355143b7441e6fc7d9eae1fa79f3f8\")\n  return(0x00, dataSize(sub_0))\nstop\n\nsub_0: assembly {\n        /* \"Character.sol\":692:4277  contract Character is ERC721, Ownable {... */\n      mstore(0x40, 0x80)\n      callvalue\n      dup1\n      iszero\n      tag_1\n      jumpi\n      0x00\n      dup1\n      revert\n    tag_1:\n      pop\n      jumpi(tag_2, lt(calldatasize, 0x04))\n      shr(0xe0, calldataload(0x00))\n      dup1\n      0x70a08231\n      gt\n      tag_31\n      jumpi\n      dup1\n      0xadf448d8\n      gt\n      tag_32\n      jumpi\n      dup1\n      0xc87b56dd\n      gt\n      tag_33\n      jumpi\n      dup1\n      0xc87b56dd\n      eq\n      tag_27\n      jumpi\n      dup1\n      0xe51c4ecc\n      eq\n      tag_28\n      jumpi\n      dup1\n      0xe985e9c5\n      eq\n      tag_29\n      jumpi\n      dup1\n      0xf2fde38b\n      eq\n      tag_30\n      jumpi\n      0x00\n      dup1\n      revert\n    tag_33:\n      dup1\n      0xadf448d8\n      eq\n      tag_24\n      jumpi\n      dup1\n      0xb88d4fde\n      eq\n      tag_25\n      jumpi\n      dup1\n      0xc6cc5105\n      eq\n      tag_26\n      jumpi\n      0x00\n      dup1\n      revert\n    tag_32:\n      dup1\n      0x8da5cb5b\n      gt\n      tag_34\n      jumpi\n      dup1\n      0x8da5cb5b\n      eq\n      tag_20\n      jumpi\n      dup1\n      0x941db000\n      eq\n      tag_21\n      jumpi\n      dup1\n      0x95d89b41\n      eq\n      tag_22\n      jumpi\n      dup1\n      0xa22cb465\n      eq\n      tag_23\n      jumpi\n      0x00\n      dup1\n      revert\n    tag_34:\n      dup1\n      0x70a08231\n      eq\n      tag_17\n      jumpi\n      dup1\n      0x715018a6\n      eq\n      tag_18\n      jumpi\n      dup1\n      0x7ae27560\n      eq\n      tag_19\n      jumpi\n      0x00\n      dup1\n      revert\n    tag_31:\n      dup1\n      0x23b872dd\n      gt\n      tag_35\n      jumpi\n      dup1\n      0x3b092f39\n      gt\n      tag_36\n      jumpi\n      dup1\n      0x3b092f39\n      eq\n      tag_13\n      jumpi\n      dup1\n      0x42842e0e\n      eq\n      tag_14\n      jumpi\n      dup1\n      0x4f068da7\n      eq\n      tag_15\n      jumpi\n      dup1\n      0x6352211e\n      eq\n      tag_16\n      jumpi\n      0x00\n      dup1\n      revert\n    tag_36:\n      dup1\n      0x23b872dd\n      eq\n      tag_10\n      jumpi\n      dup1\n      0x34451530\n      eq\n      tag_11\n      jumpi\n      dup1\n      0x363dd19e\n      eq\n      tag_12\n      jumpi\n      0x00\n      dup1\n      revert\n    tag_35:\n      dup1\n      0x081812fc\n      gt\n      tag_37\n      jumpi\n      dup1\n      0x081812fc\n      eq\n      tag_6\n      jumpi\n      dup1\n      0x08572119\n      eq\n      tag_7\n      jumpi\n      dup1\n      0x095ea7b3\n      eq\n      tag_8\n      jumpi\n      dup1\n      0x11df9995\n      eq\n      tag_9\n      jumpi\n      0x00\n      dup1\n      revert\n    tag_37:\n      dup1\n      0xad800c\n      eq\n      tag_3\n      jumpi\n      dup1\n      0x01ffc9a7\n      eq\n      tag_4\n      jumpi\n      dup1\n      0x06fdde03\n      eq\n      tag_5\n      jumpi\n    tag_2:\n      0x00\n      dup1\n      revert\n        /* \"Character.sol\":1107:1142  mapping(uint => string) public name */\n    tag_3:\n      tag_38\n      tag_39\n      calldatasize\n      0x04\n      tag_40\n      jump\t// in\n    tag_39:\n      tag_41\n      jump\t// in\n    tag_38:\n      mload(0x40)\n      tag_42\n      swap2\n      swap1\n      tag_43\n      jump\t// in\n    tag_42:\n      mload(0x40)\n      dup1\n      swap2\n      sub\n      swap1\n      return\n        /* \"@openzeppelin/contracts/token/ERC721/ERC721.sol\":1570:1870   */\n    tag_4:\n      tag_44\n      tag_45\n      calldatasize\n      0x04\n      tag_46\n      jump\t// in\n    tag_45:\n      tag_47\n      jump\t// in\n    tag_44:\n      mload(0x40)\n        /* \"#utility.yul\":1501:1515   */\n      swap1\n      iszero\n        /* \"#utility.yul\":1494:1516   */\n      iszero\n        /* \"#utility.yul\":1476:1517   */\n      dup2\n      mstore\n        /* \"#utility.yul\":1464:1466   */\n      0x20\n        /* \"#utility.yul\":1449:1467   */\n      add\n        /* \"@openzeppelin/contracts/token/ERC721/ERC721.sol\":1570:1870   */\n      tag_42\n        /* \"#utility.yul\":1336:1523   */\n      jump\n        /* \"@openzeppelin/contracts/token/ERC721/ERC721.sol\":2470:2568   */\n    tag_5:\n      tag_38\n      tag_51\n      jump\t// in\n        /* \"@openzeppelin/contracts/token/ERC721/ERC721.sol\":3935:4102   */\n    tag_6:\n      tag_53\n      tag_54\n      calldatasize\n      0x04\n      tag_40\n      jump\t// in\n    tag_54:\n      tag_55\n      jump\t// in\n    tag_53:\n      mload(0x40)\n      sub(shl(0xa0, 0x01), 0x01)\n        /* \"#utility.yul\":1692:1747   */\n      swap1\n      swap2\n      and\n        /* \"#utility.yul\":1674:1748   */\n      dup2\n      mstore\n        /* \"#utility.yul\":1662:1664   */\n      0x20\n        /* \"#utility.yul\":1647:1665   */\n      add\n        /* \"@openzeppelin/contracts/token/ERC721/ERC721.sol\":3935:4102   */\n      tag_42\n        /* \"#utility.yul\":1528:1754   */\n      jump\n        /* \"Character.sol\":3602:4007  function hunter_skill_multiple(address _hunter)... */\n    tag_7:\n      tag_58\n      tag_59\n      calldatasize\n      0x04\n      tag_60\n      jump\t// in\n    tag_59:\n      tag_61\n      jump\t// in\n    tag_58:\n      mload(0x40)\n      tag_42\n      swap2\n      swap1\n      tag_63\n      jump\t// in\n        /* \"@openzeppelin/contracts/token/ERC721/ERC721.sol\":3467:3874   */\n    tag_8:\n      tag_64\n      tag_65\n      calldatasize\n      0x04\n      tag_66\n      jump\t// in\n    tag_65:\n      tag_67\n      jump\t// in\n    tag_64:\n      stop\n        /* \"Character.sol\":862:890  IERC20 public immutable coin */\n    tag_9:\n      tag_53\n      immutable(\"0xd67d834462ca31eaef1f30157e31659f60355143b7441e6fc7d9eae1fa79f3f8\")\n      dup2\n      jump\n        /* \"@openzeppelin/contracts/token/ERC721/ERC721.sol\":4612:4939   */\n    tag_10:\n      tag_64\n      tag_73\n      calldatasize\n      0x04\n      tag_74\n      jump\t// in\n    tag_73:\n      tag_75\n      jump\t// in\n        /* \"Character.sol\":1168:1204  mapping(uint => uint[]) public skill */\n    tag_11:\n      tag_76\n      tag_77\n      calldatasize\n      0x04\n      tag_78\n      jump\t// in\n    tag_77:\n      tag_79\n      jump\t// in\n    tag_76:\n      mload(0x40)\n        /* \"#utility.yul\":4025:4050   */\n      swap1\n      dup2\n      mstore\n        /* \"#utility.yul\":4013:4015   */\n      0x20\n        /* \"#utility.yul\":3998:4016   */\n      add\n        /* \"Character.sol\":1168:1204  mapping(uint => uint[]) public skill */\n      tag_42\n        /* \"#utility.yul\":3879:4056   */\n      jump\n        /* \"Character.sol\":1590:2092  function summon() external {... */\n    tag_12:\n      tag_64\n      tag_83\n      jump\t// in\n        /* \"Character.sol\":1053:1100  mapping(address => uint) public address_tokenId */\n    tag_13:\n      tag_76\n      tag_85\n      calldatasize\n      0x04\n      tag_60\n      jump\t// in\n    tag_85:\n      mstore(0x20, 0x09)\n      0x00\n      swap1\n      dup2\n      mstore\n      0x40\n      swap1\n      keccak256\n      sload\n      dup2\n      jump\n        /* \"@openzeppelin/contracts/token/ERC721/ERC721.sol\":5005:5184   */\n    tag_14:\n      tag_64\n      tag_89\n      calldatasize\n      0x04\n      tag_74\n      jump\t// in\n    tag_89:\n      tag_90\n      jump\t// in\n        /* \"Character.sol\":3120:3372  function coin_required(uint curent_skill)... */\n    tag_15:\n      tag_76\n      tag_92\n      calldatasize\n      0x04\n      tag_40\n      jump\t// in\n    tag_92:\n      tag_93\n      jump\t// in\n        /* \"@openzeppelin/contracts/token/ERC721/ERC721.sol\":2190:2408   */\n    tag_16:\n      tag_53\n      tag_96\n      calldatasize\n      0x04\n      tag_40\n      jump\t// in\n    tag_96:\n      tag_97\n      jump\t// in\n        /* \"@openzeppelin/contracts/token/ERC721/ERC721.sol\":1929:2133   */\n    tag_17:\n      tag_76\n      tag_100\n      calldatasize\n      0x04\n      tag_60\n      jump\t// in\n    tag_100:\n      tag_101\n      jump\t// in\n        /* \"@openzeppelin/contracts/access/Ownable.sol\":1831:1932   */\n    tag_18:\n      tag_64\n      tag_104\n      jump\t// in\n        /* \"Character.sol\":2100:2878  function skill_up(uint _hunter, uint _skill_index) external onlyOwner {... */\n    tag_19:\n      tag_64\n      tag_106\n      calldatasize\n      0x04\n      tag_78\n      jump\t// in\n    tag_106:\n      tag_107\n      jump\t// in\n        /* \"@openzeppelin/contracts/access/Ownable.sol\":1201:1286   */\n    tag_20:\n        /* \"@openzeppelin/contracts/access/Ownable.sol\":1273:1279   */\n      and(sub(shl(0xa0, 0x01), 0x01), sload(0x06))\n        /* \"@openzeppelin/contracts/access/Ownable.sol\":1201:1286   */\n      jump(tag_53)\n        /* \"Character.sol\":897:930  Skills public immutable skillInfo */\n    tag_21:\n      tag_53\n      immutable(\"0x6bcaf047ba4c8ac400fca43393035242dd1aabda2d6068a0c51242b97224de8d\")\n      dup2\n      jump\n        /* \"@openzeppelin/contracts/token/ERC721/ERC721.sol\":2632:2734   */\n    tag_22:\n      tag_38\n      tag_116\n      jump\t// in\n        /* \"@openzeppelin/contracts/token/ERC721/ERC721.sol\":4169:4322   */\n    tag_23:\n      tag_64\n      tag_119\n      calldatasize\n      0x04\n      tag_120\n      jump\t// in\n    tag_119:\n      tag_121\n      jump\t// in\n        /* \"Character.sol\":1000:1046  mapping(address => bool) public minted_address */\n    tag_24:\n      tag_44\n      tag_123\n      calldatasize\n      0x04\n      tag_60\n      jump\t// in\n    tag_123:\n      mstore(0x20, 0x08)\n      0x00\n      swap1\n      dup2\n      mstore\n      0x40\n      swap1\n      keccak256\n      sload\n      0xff\n      and\n      dup2\n      jump\n        /* \"@openzeppelin/contracts/token/ERC721/ERC721.sol\":5250:5565   */\n    tag_25:\n      tag_64\n      tag_127\n      calldatasize\n      0x04\n      tag_128\n      jump\t// in\n    tag_127:\n      tag_129\n      jump\t// in\n        /* \"Character.sol\":3380:3594  function hunter_skill(address _hunter)... */\n    tag_26:\n      tag_58\n      tag_131\n      calldatasize\n      0x04\n      tag_60\n      jump\t// in\n    tag_131:\n      tag_132\n      jump\t// in\n        /* \"@openzeppelin/contracts/token/ERC721/ERC721.sol\":2800:3076   */\n    tag_27:\n      tag_38\n      tag_135\n      calldatasize\n      0x04\n      tag_40\n      jump\t// in\n    tag_135:\n      tag_136\n      jump\t// in\n        /* \"Character.sol\":2886:3112  function change_name(uint _hunter, string memory _name) external onlyOwner {... */\n    tag_28:\n      tag_64\n      tag_139\n      calldatasize\n      0x04\n      tag_140\n      jump\t// in\n    tag_139:\n      tag_141\n      jump\t// in\n        /* \"@openzeppelin/contracts/token/ERC721/ERC721.sol\":4388:4550   */\n    tag_29:\n      tag_44\n      tag_143\n      calldatasize\n      0x04\n      tag_144\n      jump\t// in\n    tag_143:\n      sub(shl(0xa0, 0x01), 0x01)\n        /* \"@openzeppelin/contracts/token/ERC721/ERC721.sol\":4508:4533   */\n      swap2\n      dup3\n      and\n        /* \"@openzeppelin/contracts/token/ERC721/ERC721.sol\":4485:4489   */\n      0x00\n        /* \"@openzeppelin/contracts/token/ERC721/ERC721.sol\":4508:4533   */\n      swap1\n      dup2\n      mstore\n        /* \"@openzeppelin/contracts/token/ERC721/ERC721.sol\":4508:4526   */\n      0x05\n        /* \"@openzeppelin/contracts/token/ERC721/ERC721.sol\":4508:4533   */\n      0x20\n      swap1\n      dup2\n      mstore\n      0x40\n      dup1\n      dup4\n      keccak256\n        /* \"@openzeppelin/contracts/token/ERC721/ERC721.sol\":4508:4543   */\n      swap4\n      swap1\n      swap5\n      and\n      dup3\n      mstore\n      swap2\n      swap1\n      swap2\n      mstore\n      keccak256\n      sload\n      0xff\n      and\n      swap1\n        /* \"@openzeppelin/contracts/token/ERC721/ERC721.sol\":4388:4550   */\n      jump\n        /* \"@openzeppelin/contracts/access/Ownable.sol\":2081:2279   */\n    tag_30:\n      tag_64\n      tag_148\n      calldatasize\n      0x04\n      tag_60\n      jump\t// in\n    tag_148:\n      tag_149\n      jump\t// in\n        /* \"Character.sol\":1107:1142  mapping(uint => string) public name */\n    tag_41:\n      mstore(0x20, 0x0a)\n      0x00\n      swap1\n      dup2\n      mstore\n      0x40\n      swap1\n      keccak256\n      dup1\n      sload\n      tag_150\n      swap1\n      tag_151\n      jump\t// in\n    tag_150:\n      dup1\n      0x1f\n      add\n      0x20\n      dup1\n      swap2\n      div\n      mul\n      0x20\n      add\n      mload(0x40)\n      swap1\n      dup2\n      add\n      0x40\n      mstore\n      dup1\n      swap3\n      swap2\n      swap1\n      dup2\n      dup2\n      mstore\n      0x20\n      add\n      dup3\n      dup1\n      sload\n      tag_152\n      swap1\n      tag_151\n      jump\t// in\n    tag_152:\n      dup1\n      iszero\n      tag_153\n      jumpi\n      dup1\n      0x1f\n      lt\n      tag_154\n      jumpi\n      0x0100\n      dup1\n      dup4\n      sload\n      div\n      mul\n      dup4\n      mstore\n      swap2\n      0x20\n      add\n      swap2\n      jump(tag_153)\n    tag_154:\n      dup3\n      add\n      swap2\n      swap1\n      0x00\n      mstore\n      keccak256(0x00, 0x20)\n      swap1\n    tag_155:\n      dup2\n      sload\n      dup2\n      mstore\n      swap1\n      0x01\n      add\n      swap1\n      0x20\n      add\n      dup1\n      dup4\n      gt\n      tag_155\n      jumpi\n      dup3\n      swap1\n      sub\n      0x1f\n      and\n      dup3\n      add\n      swap2\n    tag_153:\n      pop\n      pop\n      pop\n      pop\n      pop\n      dup2\n      jump\t// out\n        /* \"@openzeppelin/contracts/token/ERC721/ERC721.sol\":1570:1870   */\n    tag_47:\n        /* \"@openzeppelin/contracts/token/ERC721/ERC721.sol\":1672:1676   */\n      0x00\n      not(sub(shl(0xe0, 0x01), 0x01))\n        /* \"@openzeppelin/contracts/token/ERC721/ERC721.sol\":1707:1747   */\n      dup3\n      and\n      shl(0xe0, 0x80ac58cd)\n      eq\n      dup1\n        /* \"@openzeppelin/contracts/token/ERC721/ERC721.sol\":1707:1811   */\n      tag_157\n      jumpi\n      pop\n      not(sub(shl(0xe0, 0x01), 0x01))\n        /* \"@openzeppelin/contracts/token/ERC721/ERC721.sol\":1763:1811   */\n      dup3\n      and\n      shl(0xe0, 0x5b5e139f)\n      eq\n        /* \"@openzeppelin/contracts/token/ERC721/ERC721.sol\":1707:1811   */\n    tag_157:\n        /* \"@openzeppelin/contracts/token/ERC721/ERC721.sol\":1707:1863   */\n      dup1\n      tag_159\n      jumpi\n      pop\n      shl(0xe0, 0x01ffc9a7)\n      not(sub(shl(0xe0, 0x01), 0x01))\n        /* \"@openzeppelin/contracts/utils/introspection/ERC165.sol\":937:977   */\n      dup4\n      and\n      eq\n        /* \"@openzeppelin/contracts/token/ERC721/ERC721.sol\":1827:1863   */\n    tag_159:\n        /* \"@openzeppelin/contracts/token/ERC721/ERC721.sol\":1688:1863   */\n      swap3\n        /* \"@openzeppelin/contracts/token/ERC721/ERC721.sol\":1570:1870   */\n      swap2\n      pop\n      pop\n      jump\t// out\n        /* \"@openzeppelin/contracts/token/ERC721/ERC721.sol\":2470:2568   */\n    tag_51:\n        /* \"@openzeppelin/contracts/token/ERC721/ERC721.sol\":2524:2537   */\n      0x60\n        /* \"@openzeppelin/contracts/token/ERC721/ERC721.sol\":2556:2561   */\n      0x00\n        /* \"@openzeppelin/contracts/token/ERC721/ERC721.sol\":2549:2561   */\n      dup1\n      sload\n      tag_162\n      swap1\n      tag_151\n      jump\t// in\n    tag_162:\n      dup1\n      0x1f\n      add\n      0x20\n      dup1\n      swap2\n      div\n      mul\n      0x20\n      add\n      mload(0x40)\n      swap1\n      dup2\n      add\n      0x40\n      mstore\n      dup1\n      swap3\n      swap2\n      swap1\n      dup2\n      dup2\n      mstore\n      0x20\n      add\n      dup3\n      dup1\n      sload\n      tag_163\n      swap1\n      tag_151\n      jump\t// in\n    tag_163:\n      dup1\n      iszero\n      tag_164\n      jumpi\n      dup1\n      0x1f\n      lt\n      tag_165\n      jumpi\n      0x0100\n      dup1\n      dup4\n      sload\n      div\n      mul\n      dup4\n      mstore\n      swap2\n      0x20\n      add\n      swap2\n      jump(tag_164)\n    tag_165:\n      dup3\n      add\n      swap2\n      swap1\n      0x00\n      mstore\n      keccak256(0x00, 0x20)\n      swap1\n    tag_166:\n      dup2\n      sload\n      dup2\n      mstore\n      swap1\n      0x01\n      add\n      swap1\n      0x20\n      add\n      dup1\n      dup4\n      gt\n      tag_166\n      jumpi\n      dup3\n      swap1\n      sub\n      0x1f\n      and\n      dup3\n      add\n      swap2\n    tag_164:\n      pop\n      pop\n      pop\n      pop\n      pop\n      swap1\n      pop\n        /* \"@openzeppelin/contracts/token/ERC721/ERC721.sol\":2470:2568   */\n      swap1\n      jump\t// out\n        /* \"@openzeppelin/contracts/token/ERC721/ERC721.sol\":3935:4102   */\n    tag_55:\n        /* \"@openzeppelin/contracts/token/ERC721/ERC721.sol\":4011:4018   */\n      0x00\n        /* \"@openzeppelin/contracts/token/ERC721/ERC721.sol\":4030:4053   */\n      tag_168\n        /* \"@openzeppelin/contracts/token/ERC721/ERC721.sol\":4045:4052   */\n      dup3\n        /* \"@openzeppelin/contracts/token/ERC721/ERC721.sol\":4030:4044   */\n      tag_169\n        /* \"@openzeppelin/contracts/token/ERC721/ERC721.sol\":4030:4053   */\n      jump\t// in\n    tag_168:\n      pop\n        /* \"@openzeppelin/contracts/token/ERC721/ERC721.sol\":4071:4095   */\n      0x00\n      swap1\n      dup2\n      mstore\n        /* \"@openzeppelin/contracts/token/ERC721/ERC721.sol\":4071:4086   */\n      0x04\n        /* \"@openzeppelin/contracts/token/ERC721/ERC721.sol\":4071:4095   */\n      0x20\n      mstore\n      0x40\n      swap1\n      keccak256\n      sload\n      sub(shl(0xa0, 0x01), 0x01)\n      and\n      swap1\n        /* \"@openzeppelin/contracts/token/ERC721/ERC721.sol\":3935:4102   */\n      jump\t// out\n        /* \"Character.sol\":3602:4007  function hunter_skill_multiple(address _hunter)... */\n    tag_61:\n      sub(shl(0xa0, 0x01), 0x01)\n        /* \"Character.sol\":3759:3783  address_tokenId[_hunter] */\n      dup2\n      and\n        /* \"Character.sol\":3741:3756  uint _hunter_id */\n      0x00\n        /* \"Character.sol\":3759:3783  address_tokenId[_hunter] */\n      swap1\n      dup2\n      mstore\n        /* \"Character.sol\":3759:3774  address_tokenId */\n      0x09\n        /* \"Character.sol\":3759:3783  address_tokenId[_hunter] */\n      0x20\n      mstore\n      0x40\n      swap1\n      dup2\n      swap1\n      keccak256\n      sload\n        /* \"Character.sol\":3806:3819  new uint[](3) */\n      dup2\n      mload\n        /* \"Character.sol\":3817:3818  3 */\n      0x03\n        /* \"Character.sol\":3806:3819  new uint[](3) */\n      dup1\n      dup3\n      mstore\n      0x80\n      dup3\n      add\n      swap1\n      swap4\n      mstore\n        /* \"Character.sol\":3700:3723  uint[] memory _multiple */\n      0x60\n      swap3\n        /* \"Character.sol\":3806:3819  new uint[](3) */\n      dup2\n      0x20\n      add\n      0x20\n      dup3\n      mul\n      dup1\n      calldatasize\n      dup4\n      calldatacopy\n      add\n      swap1\n      pop\n      pop\n        /* \"Character.sol\":3794:3819  _multiple = new uint[](3) */\n      swap2\n      pop\n        /* \"Character.sol\":3835:3844  uint256 i */\n      0x00\n        /* \"Character.sol\":3830:4000  for (uint256 i = 0; i < skill[_hunter_id].length; i++) {... */\n    tag_175:\n        /* \"Character.sol\":3854:3871  skill[_hunter_id] */\n      0x00\n      dup3\n      dup2\n      mstore\n        /* \"Character.sol\":3854:3859  skill */\n      0x0b\n        /* \"Character.sol\":3854:3871  skill[_hunter_id] */\n      0x20\n      mstore\n      0x40\n      swap1\n      keccak256\n        /* \"Character.sol\":3854:3878  skill[_hunter_id].length */\n      sload\n        /* \"Character.sol\":3850:3878  i < skill[_hunter_id].length */\n      dup2\n      lt\n        /* \"Character.sol\":3830:4000  for (uint256 i = 0; i < skill[_hunter_id].length; i++) {... */\n      iszero\n      tag_176\n      jumpi\n        /* \"Character.sol\":3926:3950  skillInfo.skill_by_id(i) */\n      mload(0x40)\n      shl(0xe0, 0x335dd05f)\n      dup2\n      mstore\n      0x04\n      dup2\n      add\n        /* \"#utility.yul\":4025:4050   */\n      dup3\n      swap1\n      mstore\n        /* \"Character.sol\":3909:3922  uint multiple */\n      0x00\n      swap1\n        /* \"Character.sol\":3926:3935  skillInfo */\n      immutable(\"0x6bcaf047ba4c8ac400fca43393035242dd1aabda2d6068a0c51242b97224de8d\")\n      sub(shl(0xa0, 0x01), 0x01)\n        /* \"Character.sol\":3926:3947  skillInfo.skill_by_id */\n      and\n      swap1\n      0x335dd05f\n      swap1\n        /* \"#utility.yul\":3998:4016   */\n      0x24\n      add\n        /* \"Character.sol\":3926:3950  skillInfo.skill_by_id(i) */\n      0x00\n      mload(0x40)\n      dup1\n      dup4\n      sub\n      dup2\n      dup7\n      gas\n      staticcall\n      iszero\n      dup1\n      iszero\n      tag_180\n      jumpi\n      returndatasize\n      0x00\n      dup1\n      returndatacopy\n      revert(0x00, returndatasize)\n    tag_180:\n      pop\n      pop\n      pop\n      pop\n      mload(0x40)\n      returndatasize\n      0x00\n      dup3\n      returndatacopy\n      0x1f\n      returndatasize\n      swap1\n      dup2\n      add\n      not(0x1f)\n      and\n      dup3\n      add\n      0x40\n      mstore\n      tag_181\n      swap2\n      swap1\n      dup2\n      add\n      swap1\n      tag_182\n      jump\t// in\n    tag_181:\n        /* \"Character.sol\":3900:3950  (, , , , uint multiple) = skillInfo.skill_by_id(i) */\n      swap5\n      pop\n      pop\n      pop\n      pop\n      pop\n        /* \"Character.sol\":3980:3988  multiple */\n      dup1\n        /* \"Character.sol\":3965:3974  _multiple */\n      dup5\n        /* \"Character.sol\":3975:3976  i */\n      dup4\n        /* \"Character.sol\":3965:3977  _multiple[i] */\n      dup2\n      mload\n      dup2\n      lt\n      tag_184\n      jumpi\n      tag_184\n      tag_185\n      jump\t// in\n    tag_184:\n      0x20\n      swap1\n      dup2\n      mul\n      swap2\n      swap1\n      swap2\n      add\n      add\n        /* \"Character.sol\":3965:3988  _multiple[i] = multiple */\n      mstore\n      pop\n        /* \"Character.sol\":3880:3883  i++ */\n      dup1\n      tag_186\n      dup2\n      tag_187\n      jump\t// in\n    tag_186:\n      swap2\n      pop\n      pop\n        /* \"Character.sol\":3830:4000  for (uint256 i = 0; i < skill[_hunter_id].length; i++) {... */\n      jump(tag_175)\n    tag_176:\n      pop\n        /* \"Character.sol\":3730:4007  {... */\n      pop\n        /* \"Character.sol\":3602:4007  function hunter_skill_multiple(address _hunter)... */\n      swap2\n      swap1\n      pop\n      jump\t// out\n        /* \"@openzeppelin/contracts/token/ERC721/ERC721.sol\":3467:3874   */\n    tag_67:\n        /* \"@openzeppelin/contracts/token/ERC721/ERC721.sol\":3547:3560   */\n      0x00\n        /* \"@openzeppelin/contracts/token/ERC721/ERC721.sol\":3563:3586   */\n      tag_189\n        /* \"@openzeppelin/contracts/token/ERC721/ERC721.sol\":3578:3585   */\n      dup3\n        /* \"@openzeppelin/contracts/token/ERC721/ERC721.sol\":3563:3577   */\n      tag_97\n        /* \"@openzeppelin/contracts/token/ERC721/ERC721.sol\":3563:3586   */\n      jump\t// in\n    tag_189:\n        /* \"@openzeppelin/contracts/token/ERC721/ERC721.sol\":3547:3586   */\n      swap1\n      pop\n        /* \"@openzeppelin/contracts/token/ERC721/ERC721.sol\":3610:3615   */\n      dup1\n      sub(shl(0xa0, 0x01), 0x01)\n        /* \"@openzeppelin/contracts/token/ERC721/ERC721.sol\":3604:3615   */\n      and\n        /* \"@openzeppelin/contracts/token/ERC721/ERC721.sol\":3604:3606   */\n      dup4\n      sub(shl(0xa0, 0x01), 0x01)\n        /* \"@openzeppelin/contracts/token/ERC721/ERC721.sol\":3604:3615   */\n      and\n      sub\n        /* \"@openzeppelin/contracts/token/ERC721/ERC721.sol\":3596:3653   */\n      tag_190\n      jumpi\n      mload(0x40)\n      shl(0xe5, 0x461bcd)\n      dup2\n      mstore\n        /* \"#utility.yul\":9380:9382   */\n      0x20\n        /* \"@openzeppelin/contracts/token/ERC721/ERC721.sol\":3596:3653   */\n      0x04\n      dup3\n      add\n        /* \"#utility.yul\":9362:9383   */\n      mstore\n        /* \"#utility.yul\":9419:9421   */\n      0x21\n        /* \"#utility.yul\":9399:9417   */\n      0x24\n      dup3\n      add\n        /* \"#utility.yul\":9392:9422   */\n      mstore\n        /* \"#utility.yul\":9458:9492   */\n      0x4552433732313a20617070726f76616c20746f2063757272656e74206f776e65\n        /* \"#utility.yul\":9438:9456   */\n      0x44\n      dup3\n      add\n        /* \"#utility.yul\":9431:9493   */\n      mstore\n      shl(0xf9, 0x39)\n        /* \"#utility.yul\":9509:9527   */\n      0x64\n      dup3\n      add\n        /* \"#utility.yul\":9502:9533   */\n      mstore\n        /* \"#utility.yul\":9550:9569   */\n      0x84\n      add\n        /* \"@openzeppelin/contracts/token/ERC721/ERC721.sol\":3596:3653   */\n    tag_191:\n      mload(0x40)\n      dup1\n      swap2\n      sub\n      swap1\n      revert\n    tag_190:\n        /* \"@openzeppelin/contracts/utils/Context.sol\":719:729   */\n      caller\n      sub(shl(0xa0, 0x01), 0x01)\n        /* \"@openzeppelin/contracts/token/ERC721/ERC721.sol\":3685:3706   */\n      dup3\n      and\n      eq\n      dup1\n        /* \"@openzeppelin/contracts/token/ERC721/ERC721.sol\":3685:3747   */\n      tag_196\n      jumpi\n      pop\n        /* \"@openzeppelin/contracts/token/ERC721/ERC721.sol\":3710:3747   */\n      tag_196\n        /* \"@openzeppelin/contracts/token/ERC721/ERC721.sol\":3727:3732   */\n      dup2\n        /* \"@openzeppelin/contracts/utils/Context.sol\":719:729   */\n      caller\n        /* \"@openzeppelin/contracts/token/ERC721/ERC721.sol\":4388:4550   */\n      tag_143\n      jump\t// in\n        /* \"@openzeppelin/contracts/token/ERC721/ERC721.sol\":3710:3747   */\n    tag_196:\n        /* \"@openzeppelin/contracts/token/ERC721/ERC721.sol\":3664:3835   */\n      tag_198\n      jumpi\n      mload(0x40)\n      shl(0xe5, 0x461bcd)\n      dup2\n      mstore\n        /* \"#utility.yul\":9782:9784   */\n      0x20\n        /* \"@openzeppelin/contracts/token/ERC721/ERC721.sol\":3664:3835   */\n      0x04\n      dup3\n      add\n        /* \"#utility.yul\":9764:9785   */\n      mstore\n        /* \"#utility.yul\":9821:9823   */\n      0x3e\n        /* \"#utility.yul\":9801:9819   */\n      0x24\n      dup3\n      add\n        /* \"#utility.yul\":9794:9824   */\n      mstore\n        /* \"#utility.yul\":9860:9894   */\n      0x4552433732313a20617070726f76652063616c6c6572206973206e6f7420746f\n        /* \"#utility.yul\":9840:9858   */\n      0x44\n      dup3\n      add\n        /* \"#utility.yul\":9833:9895   */\n      mstore\n        /* \"#utility.yul\":9931:9963   */\n      0x6b656e206f776e6572206e6f7220617070726f76656420666f7220616c6c0000\n        /* \"#utility.yul\":9911:9929   */\n      0x64\n      dup3\n      add\n        /* \"#utility.yul\":9904:9964   */\n      mstore\n        /* \"#utility.yul\":9981:10000   */\n      0x84\n      add\n        /* \"@openzeppelin/contracts/token/ERC721/ERC721.sol\":3664:3835   */\n      tag_191\n        /* \"#utility.yul\":9580:10006   */\n      jump\n        /* \"@openzeppelin/contracts/token/ERC721/ERC721.sol\":3664:3835   */\n    tag_198:\n        /* \"@openzeppelin/contracts/token/ERC721/ERC721.sol\":3846:3867   */\n      tag_201\n        /* \"@openzeppelin/contracts/token/ERC721/ERC721.sol\":3855:3857   */\n      dup4\n        /* \"@openzeppelin/contracts/token/ERC721/ERC721.sol\":3859:3866   */\n      dup4\n        /* \"@openzeppelin/contracts/token/ERC721/ERC721.sol\":3846:3854   */\n      tag_202\n        /* \"@openzeppelin/contracts/token/ERC721/ERC721.sol\":3846:3867   */\n      jump\t// in\n    tag_201:\n        /* \"@openzeppelin/contracts/token/ERC721/ERC721.sol\":3537:3874   */\n      pop\n        /* \"@openzeppelin/contracts/token/ERC721/ERC721.sol\":3467:3874   */\n      pop\n      pop\n      jump\t// out\n        /* \"@openzeppelin/contracts/token/ERC721/ERC721.sol\":4612:4939   */\n    tag_75:\n        /* \"@openzeppelin/contracts/token/ERC721/ERC721.sol\":4801:4842   */\n      tag_204\n        /* \"@openzeppelin/contracts/utils/Context.sol\":719:729   */\n      caller\n        /* \"@openzeppelin/contracts/token/ERC721/ERC721.sol\":4834:4841   */\n      dup3\n        /* \"@openzeppelin/contracts/token/ERC721/ERC721.sol\":4801:4819   */\n      tag_206\n        /* \"@openzeppelin/contracts/token/ERC721/ERC721.sol\":4801:4842   */\n      jump\t// in\n    tag_204:\n        /* \"@openzeppelin/contracts/token/ERC721/ERC721.sol\":4793:4893   */\n      tag_207\n      jumpi\n      mload(0x40)\n      shl(0xe5, 0x461bcd)\n      dup2\n      mstore\n        /* \"#utility.yul\":10213:10215   */\n      0x20\n        /* \"@openzeppelin/contracts/token/ERC721/ERC721.sol\":4793:4893   */\n      0x04\n      dup3\n      add\n        /* \"#utility.yul\":10195:10216   */\n      mstore\n        /* \"#utility.yul\":10252:10254   */\n      0x2e\n        /* \"#utility.yul\":10232:10250   */\n      0x24\n      dup3\n      add\n        /* \"#utility.yul\":10225:10255   */\n      mstore\n        /* \"#utility.yul\":10291:10325   */\n      0x4552433732313a2063616c6c6572206973206e6f7420746f6b656e206f776e65\n        /* \"#utility.yul\":10271:10289   */\n      0x44\n      dup3\n      add\n        /* \"#utility.yul\":10264:10326   */\n      mstore\n      shl(0x92, 0x1c881b9bdc88185c1c1c9bdd9959)\n        /* \"#utility.yul\":10342:10360   */\n      0x64\n      dup3\n      add\n        /* \"#utility.yul\":10335:10379   */\n      mstore\n        /* \"#utility.yul\":10396:10415   */\n      0x84\n      add\n        /* \"@openzeppelin/contracts/token/ERC721/ERC721.sol\":4793:4893   */\n      tag_191\n        /* \"#utility.yul\":10011:10421   */\n      jump\n        /* \"@openzeppelin/contracts/token/ERC721/ERC721.sol\":4793:4893   */\n    tag_207:\n        /* \"@openzeppelin/contracts/token/ERC721/ERC721.sol\":4904:4932   */\n      tag_201\n        /* \"@openzeppelin/contracts/token/ERC721/ERC721.sol\":4914:4918   */\n      dup4\n        /* \"@openzeppelin/contracts/token/ERC721/ERC721.sol\":4920:4922   */\n      dup4\n        /* \"@openzeppelin/contracts/token/ERC721/ERC721.sol\":4924:4931   */\n      dup4\n        /* \"@openzeppelin/contracts/token/ERC721/ERC721.sol\":4904:4913   */\n      tag_211\n        /* \"@openzeppelin/contracts/token/ERC721/ERC721.sol\":4904:4932   */\n      jump\t// in\n        /* \"Character.sol\":1168:1204  mapping(uint => uint[]) public skill */\n    tag_79:\n      mstore(0x20, 0x0b)\n      dup2\n      0x00\n      mstore\n      keccak256(0x00, 0x40)\n      dup2\n      dup2\n      sload\n      dup2\n      lt\n      tag_212\n      jumpi\n      0x00\n      dup1\n      revert\n    tag_212:\n      swap1\n      0x00\n      mstore\n      keccak256(0x00, 0x20)\n      add\n      0x00\n      swap2\n      pop\n      swap2\n      pop\n      pop\n      sload\n      dup2\n      jump\t// out\n        /* \"Character.sol\":1590:2092  function summon() external {... */\n    tag_83:\n        /* \"Character.sol\":1651:1661  msg.sender */\n      caller\n        /* \"Character.sol\":1636:1662  minted_address[msg.sender] */\n      0x00\n      swap1\n      dup2\n      mstore\n        /* \"Character.sol\":1636:1650  minted_address */\n      0x08\n        /* \"Character.sol\":1636:1662  minted_address[msg.sender] */\n      0x20\n      mstore\n      0x40\n      swap1\n      keccak256\n      sload\n      0xff\n      and\n        /* \"Character.sol\":1636:1671  minted_address[msg.sender] == false */\n      iszero\n        /* \"Character.sol\":1628:1692  require(minted_address[msg.sender] == false, \"Already summoned\") */\n      tag_215\n      jumpi\n      mload(0x40)\n      shl(0xe5, 0x461bcd)\n      dup2\n      mstore\n        /* \"#utility.yul\":10628:10630   */\n      0x20\n        /* \"Character.sol\":1628:1692  require(minted_address[msg.sender] == false, \"Already summoned\") */\n      0x04\n      dup3\n      add\n        /* \"#utility.yul\":10610:10631   */\n      mstore\n        /* \"#utility.yul\":10667:10669   */\n      0x10\n        /* \"#utility.yul\":10647:10665   */\n      0x24\n      dup3\n      add\n        /* \"#utility.yul\":10640:10670   */\n      mstore\n        /* \"#utility.yul\":10706:10724   */\n      0x416c72656164792073756d6d6f6e656400000000000000000000000000000000\n        /* \"#utility.yul\":10686:10704   */\n      0x44\n      dup3\n      add\n        /* \"#utility.yul\":10679:10725   */\n      mstore\n        /* \"#utility.yul\":10742:10760   */\n      0x64\n      add\n        /* \"Character.sol\":1628:1692  require(minted_address[msg.sender] == false, \"Already summoned\") */\n      tag_191\n        /* \"#utility.yul\":10426:10766   */\n      jump\n        /* \"Character.sol\":1628:1692  require(minted_address[msg.sender] == false, \"Already summoned\") */\n    tag_215:\n        /* \"Character.sol\":1703:1730  _tokenIdCounter.increment() */\n      tag_218\n        /* \"Character.sol\":1703:1718  _tokenIdCounter */\n      0x07\n        /* \"@openzeppelin/contracts/utils/Counters.sol\":1032:1051   */\n      dup1\n      sload\n        /* \"@openzeppelin/contracts/utils/Counters.sol\":1050:1051   */\n      0x01\n        /* \"@openzeppelin/contracts/utils/Counters.sol\":1032:1051   */\n      add\n      swap1\n      sstore\n        /* \"@openzeppelin/contracts/utils/Counters.sol\":945:1068   */\n      jump\n        /* \"Character.sol\":1703:1730  _tokenIdCounter.increment() */\n    tag_218:\n        /* \"Character.sol\":1741:1758  uint _next_hunter */\n      0x00\n        /* \"Character.sol\":1761:1786  _tokenIdCounter.current() */\n      tag_220\n        /* \"Character.sol\":1761:1776  _tokenIdCounter */\n      0x07\n        /* \"@openzeppelin/contracts/utils/Counters.sol\":918:932   */\n      sload\n      swap1\n        /* \"@openzeppelin/contracts/utils/Counters.sol\":827:939   */\n      jump\n        /* \"Character.sol\":1761:1786  _tokenIdCounter.current() */\n    tag_220:\n        /* \"Character.sol\":1741:1786  uint _next_hunter = _tokenIdCounter.current() */\n      swap1\n      pop\n        /* \"Character.sol\":1818:1849  Strings.toHexString(msg.sender) */\n      tag_222\n        /* \"Character.sol\":1838:1848  msg.sender */\n      caller\n        /* \"Character.sol\":1818:1837  Strings.toHexString */\n      tag_223\n        /* \"Character.sol\":1818:1849  Strings.toHexString(msg.sender) */\n      jump\t// in\n    tag_222:\n        /* \"Character.sol\":1797:1815  name[_next_hunter] */\n      0x00\n      dup3\n      dup2\n      mstore\n        /* \"Character.sol\":1797:1801  name */\n      0x0a\n        /* \"Character.sol\":1797:1815  name[_next_hunter] */\n      0x20\n      swap1\n      dup2\n      mstore\n      0x40\n      swap1\n      swap2\n      keccak256\n        /* \"Character.sol\":1797:1849  name[_next_hunter] = Strings.toHexString(msg.sender) */\n      dup3\n      mload\n      tag_224\n      swap4\n        /* \"Character.sol\":1797:1815  name[_next_hunter] */\n      swap2\n      swap3\n        /* \"Character.sol\":1797:1849  name[_next_hunter] = Strings.toHexString(msg.sender) */\n      swap2\n      swap1\n      swap2\n      add\n      swap1\n      tag_225\n      jump\t// in\n    tag_224:\n      pop\n        /* \"Character.sol\":1860:1891  skill[_next_hunter] = [1, 0, 0] */\n      0x40\n      dup1\n      mload\n      0x60\n      dup2\n      add\n      dup3\n      mstore\n        /* \"Character.sol\":1883:1884  1 */\n      0x01\n        /* \"Character.sol\":1860:1891  skill[_next_hunter] = [1, 0, 0] */\n      dup2\n      mstore\n      0x00\n      0x20\n      dup1\n      dup4\n      add\n      dup3\n      swap1\n      mstore\n      dup3\n      dup5\n      add\n      dup3\n      swap1\n      mstore\n        /* \"Character.sol\":1860:1879  skill[_next_hunter] */\n      dup5\n      dup3\n      mstore\n        /* \"Character.sol\":1860:1865  skill */\n      0x0b\n        /* \"Character.sol\":1860:1879  skill[_next_hunter] */\n      swap1\n      mstore\n      swap2\n      swap1\n      swap2\n      keccak256\n        /* \"Character.sol\":1860:1891  skill[_next_hunter] = [1, 0, 0] */\n      tag_226\n      swap2\n      0x03\n      tag_227\n      jump\t// in\n    tag_226:\n      pop\n        /* \"Character.sol\":1917:1927  msg.sender */\n      caller\n        /* \"Character.sol\":1902:1928  minted_address[msg.sender] */\n      0x00\n      dup2\n      dup2\n      mstore\n        /* \"Character.sol\":1902:1916  minted_address */\n      0x08\n        /* \"Character.sol\":1902:1928  minted_address[msg.sender] */\n      0x20\n      swap1\n      dup2\n      mstore\n      0x40\n      dup1\n      dup4\n      keccak256\n        /* \"Character.sol\":1902:1935  minted_address[msg.sender] = true */\n      dup1\n      sload\n      not(0xff)\n      and\n        /* \"Character.sol\":1931:1935  true */\n      0x01\n        /* \"Character.sol\":1902:1935  minted_address[msg.sender] = true */\n      or\n      swap1\n      sstore\n        /* \"Character.sol\":1946:1961  address_tokenId */\n      0x09\n        /* \"Character.sol\":1946:1973  address_tokenId[msg.sender] */\n      swap1\n      swap2\n      mstore\n      swap1\n      keccak256\n        /* \"Character.sol\":1946:1988  address_tokenId[msg.sender] = _next_hunter */\n      dup3\n      swap1\n      sstore\n        /* \"Character.sol\":1999:2034  _safeMint(msg.sender, _next_hunter) */\n      tag_228\n      swap1\n        /* \"Character.sol\":1976:1988  _next_hunter */\n      dup3\n        /* \"Character.sol\":1999:2008  _safeMint */\n      tag_229\n        /* \"Character.sol\":1999:2034  _safeMint(msg.sender, _next_hunter) */\n      jump\t// in\n    tag_228:\n        /* \"Character.sol\":2050:2084  summoned(msg.sender, _next_hunter) */\n      mload(0x40)\n        /* \"#utility.yul\":4025:4050   */\n      dup2\n      dup2\n      mstore\n        /* \"Character.sol\":2059:2069  msg.sender */\n      caller\n      swap1\n        /* \"Character.sol\":2050:2084  summoned(msg.sender, _next_hunter) */\n      0xbbb46266402c42849573c27abc27dd180e2b8ec8f33840ca8b0919227659e399\n      swap1\n        /* \"#utility.yul\":4013:4015   */\n      0x20\n        /* \"#utility.yul\":3998:4016   */\n      add\n        /* \"Character.sol\":2050:2084  summoned(msg.sender, _next_hunter) */\n      mload(0x40)\n      dup1\n      swap2\n      sub\n      swap1\n      log2\n        /* \"Character.sol\":1617:2092  {... */\n      pop\n        /* \"Character.sol\":1590:2092  function summon() external {... */\n      jump\t// out\n        /* \"@openzeppelin/contracts/token/ERC721/ERC721.sol\":5005:5184   */\n    tag_90:\n        /* \"@openzeppelin/contracts/token/ERC721/ERC721.sol\":5138:5177   */\n      tag_201\n        /* \"@openzeppelin/contracts/token/ERC721/ERC721.sol\":5155:5159   */\n      dup4\n        /* \"@openzeppelin/contracts/token/ERC721/ERC721.sol\":5161:5163   */\n      dup4\n        /* \"@openzeppelin/contracts/token/ERC721/ERC721.sol\":5165:5172   */\n      dup4\n        /* \"@openzeppelin/contracts/token/ERC721/ERC721.sol\":5138:5177   */\n      mload(0x40)\n      dup1\n      0x20\n      add\n      0x40\n      mstore\n      dup1\n      0x00\n      dup2\n      mstore\n      pop\n        /* \"@openzeppelin/contracts/token/ERC721/ERC721.sol\":5138:5154   */\n      tag_129\n        /* \"@openzeppelin/contracts/token/ERC721/ERC721.sol\":5138:5177   */\n      jump\t// in\n        /* \"Character.sol\":3120:3372  function coin_required(uint curent_skill)... */\n    tag_93:\n        /* \"Character.sol\":3210:3233  uint coin_to_next_skill */\n      0x00\n        /* \"Character.sol\":3266:3267  0 */\n      dup1\n        /* \"Character.sol\":3251:3263  curent_skill */\n      dup3\n        /* \"Character.sol\":3251:3267  curent_skill > 0 */\n      gt\n        /* \"Character.sol\":3251:3364  curent_skill > 0... */\n      tag_234\n      jumpi\n      pop\n        /* \"Character.sol\":3360:3364  1e18 */\n      0x0de0b6b3a7640000\n      dup1\n        /* \"Character.sol\":3251:3364  curent_skill > 0... */\n      jump(tag_235)\n    tag_234:\n        /* \"Character.sol\":3304:3323  curent_skill * 1e18 */\n      tag_236\n        /* \"Character.sol\":3304:3316  curent_skill */\n      dup3\n        /* \"Character.sol\":3319:3323  1e18 */\n      0x0de0b6b3a7640000\n        /* \"Character.sol\":3304:3323  curent_skill * 1e18 */\n      tag_237\n      jump\t// in\n    tag_236:\n        /* \"Character.sol\":3283:3323  coin_to_next_skill = curent_skill * 1e18 */\n      swap1\n      pop\n      dup1\n        /* \"Character.sol\":3251:3364  curent_skill > 0... */\n    tag_235:\n      pop\n        /* \"Character.sol\":3120:3372  function coin_required(uint curent_skill)... */\n      swap2\n      swap1\n      pop\n      jump\t// out\n        /* \"@openzeppelin/contracts/token/ERC721/ERC721.sol\":2190:2408   */\n    tag_97:\n        /* \"@openzeppelin/contracts/token/ERC721/ERC721.sol\":2262:2269   */\n      0x00\n        /* \"@openzeppelin/contracts/token/ERC721/ERC721.sol\":2297:2313   */\n      dup2\n      dup2\n      mstore\n        /* \"@openzeppelin/contracts/token/ERC721/ERC721.sol\":2297:2304   */\n      0x02\n        /* \"@openzeppelin/contracts/token/ERC721/ERC721.sol\":2297:2313   */\n      0x20\n      mstore\n      0x40\n      dup2\n      keccak256\n      sload\n      sub(shl(0xa0, 0x01), 0x01)\n      and\n      dup1\n        /* \"@openzeppelin/contracts/token/ERC721/ERC721.sol\":2323:2379   */\n      tag_159\n      jumpi\n      mload(0x40)\n      shl(0xe5, 0x461bcd)\n      dup2\n      mstore\n        /* \"#utility.yul\":11146:11148   */\n      0x20\n        /* \"@openzeppelin/contracts/token/ERC721/ERC721.sol\":2323:2379   */\n      0x04\n      dup3\n      add\n        /* \"#utility.yul\":11128:11149   */\n      mstore\n        /* \"#utility.yul\":11185:11187   */\n      0x18\n        /* \"#utility.yul\":11165:11183   */\n      0x24\n      dup3\n      add\n        /* \"#utility.yul\":11158:11188   */\n      mstore\n        /* \"#utility.yul\":11224:11250   */\n      0x4552433732313a20696e76616c696420746f6b656e2049440000000000000000\n        /* \"#utility.yul\":11204:11222   */\n      0x44\n      dup3\n      add\n        /* \"#utility.yul\":11197:11251   */\n      mstore\n        /* \"#utility.yul\":11268:11286   */\n      0x64\n      add\n        /* \"@openzeppelin/contracts/token/ERC721/ERC721.sol\":2323:2379   */\n      tag_191\n        /* \"#utility.yul\":10944:11292   */\n      jump\n        /* \"@openzeppelin/contracts/token/ERC721/ERC721.sol\":1929:2133   */\n    tag_101:\n        /* \"@openzeppelin/contracts/token/ERC721/ERC721.sol\":2001:2008   */\n      0x00\n      sub(shl(0xa0, 0x01), 0x01)\n        /* \"@openzeppelin/contracts/token/ERC721/ERC721.sol\":2028:2047   */\n      dup3\n      and\n        /* \"@openzeppelin/contracts/token/ERC721/ERC721.sol\":2020:2093   */\n      tag_243\n      jumpi\n      mload(0x40)\n      shl(0xe5, 0x461bcd)\n      dup2\n      mstore\n        /* \"#utility.yul\":11499:11501   */\n      0x20\n        /* \"@openzeppelin/contracts/token/ERC721/ERC721.sol\":2020:2093   */\n      0x04\n      dup3\n      add\n        /* \"#utility.yul\":11481:11502   */\n      mstore\n        /* \"#utility.yul\":11538:11540   */\n      0x29\n        /* \"#utility.yul\":11518:11536   */\n      0x24\n      dup3\n      add\n        /* \"#utility.yul\":11511:11541   */\n      mstore\n        /* \"#utility.yul\":11577:11611   */\n      0x4552433732313a2061646472657373207a65726f206973206e6f742061207661\n        /* \"#utility.yul\":11557:11575   */\n      0x44\n      dup3\n      add\n        /* \"#utility.yul\":11550:11612   */\n      mstore\n        /* \"#utility.yul\":11648:11659   */\n      0x6c6964206f776e65720000000000000000000000000000000000000000000000\n        /* \"#utility.yul\":11628:11646   */\n      0x64\n      dup3\n      add\n        /* \"#utility.yul\":11621:11660   */\n      mstore\n        /* \"#utility.yul\":11677:11696   */\n      0x84\n      add\n        /* \"@openzeppelin/contracts/token/ERC721/ERC721.sol\":2020:2093   */\n      tag_191\n        /* \"#utility.yul\":11297:11702   */\n      jump\n        /* \"@openzeppelin/contracts/token/ERC721/ERC721.sol\":2020:2093   */\n    tag_243:\n      pop\n      sub(shl(0xa0, 0x01), 0x01)\n        /* \"@openzeppelin/contracts/token/ERC721/ERC721.sol\":2110:2126   */\n      and\n      0x00\n      swap1\n      dup2\n      mstore\n        /* \"@openzeppelin/contracts/token/ERC721/ERC721.sol\":2110:2119   */\n      0x03\n        /* \"@openzeppelin/contracts/token/ERC721/ERC721.sol\":2110:2126   */\n      0x20\n      mstore\n      0x40\n      swap1\n      keccak256\n      sload\n      swap1\n        /* \"@openzeppelin/contracts/token/ERC721/ERC721.sol\":1929:2133   */\n      jump\t// out\n        /* \"@openzeppelin/contracts/access/Ownable.sol\":1831:1932   */\n    tag_104:\n        /* \"@openzeppelin/contracts/access/Ownable.sol\":1094:1107   */\n      tag_247\n        /* \"@openzeppelin/contracts/access/Ownable.sol\":1094:1105   */\n      tag_248\n        /* \"@openzeppelin/contracts/access/Ownable.sol\":1094:1107   */\n      jump\t// in\n    tag_247:\n        /* \"@openzeppelin/contracts/access/Ownable.sol\":1895:1925   */\n      tag_250\n        /* \"@openzeppelin/contracts/access/Ownable.sol\":1922:1923   */\n      0x00\n        /* \"@openzeppelin/contracts/access/Ownable.sol\":1895:1913   */\n      tag_251\n        /* \"@openzeppelin/contracts/access/Ownable.sol\":1895:1925   */\n      jump\t// in\n    tag_250:\n        /* \"@openzeppelin/contracts/access/Ownable.sol\":1831:1932   */\n      jump\t// out\n        /* \"Character.sol\":2100:2878  function skill_up(uint _hunter, uint _skill_index) external onlyOwner {... */\n    tag_107:\n        /* \"@openzeppelin/contracts/access/Ownable.sol\":1094:1107   */\n      tag_253\n        /* \"@openzeppelin/contracts/access/Ownable.sol\":1094:1105   */\n      tag_248\n        /* \"@openzeppelin/contracts/access/Ownable.sol\":1094:1107   */\n      jump\t// in\n    tag_253:\n        /* \"Character.sol\":2243:2260  uint _skill_level */\n      0x00\n        /* \"Character.sol\":2263:2277  skill[_hunter] */\n      dup3\n      dup2\n      mstore\n        /* \"Character.sol\":2263:2268  skill */\n      0x0b\n        /* \"Character.sol\":2263:2277  skill[_hunter] */\n      0x20\n      mstore\n      0x40\n      dup2\n      keccak256\n        /* \"Character.sol\":2263:2291  skill[_hunter][_skill_index] */\n      dup1\n      sload\n        /* \"Character.sol\":2278:2290  _skill_index */\n      dup4\n      swap1\n        /* \"Character.sol\":2263:2291  skill[_hunter][_skill_index] */\n      dup2\n      lt\n      tag_256\n      jumpi\n      tag_256\n      tag_185\n      jump\t// in\n    tag_256:\n      swap1\n      0x00\n      mstore\n      keccak256(0x00, 0x20)\n      add\n      sload\n        /* \"Character.sol\":2243:2291  uint _skill_level = skill[_hunter][_skill_index] */\n      swap1\n      pop\n        /* \"Character.sol\":2302:2321  uint _coin_required */\n      0x00\n        /* \"Character.sol\":2324:2351  coin_required(_skill_level) */\n      tag_258\n        /* \"Character.sol\":2338:2350  _skill_level */\n      dup3\n        /* \"Character.sol\":2324:2337  coin_required */\n      tag_93\n        /* \"Character.sol\":2324:2351  coin_required(_skill_level) */\n      jump\t// in\n    tag_258:\n        /* \"Character.sol\":2302:2351  uint _coin_required = coin_required(_skill_level) */\n      swap1\n      pop\n        /* \"Character.sol\":2546:2693  safeTransferFrom(... */\n      tag_259\n        /* \"Character.sol\":2577:2587  msg.sender */\n      caller\n        /* \"Character.sol\":2610:2652  0x90b21481A2641eDEE5171033fb5B089c5358B7E0 */\n      0x90b21481a2641edee5171033fb5b089c5358b7e0\n        /* \"Character.sol\":2668:2682  _coin_required */\n      dup4\n        /* \"Character.sol\":2546:2562  safeTransferFrom */\n      tag_90\n        /* \"Character.sol\":2546:2693  safeTransferFrom(... */\n      jump\t// in\n    tag_259:\n        /* \"Character.sol\":2780:2796  _skill_level + 1 */\n      tag_260\n        /* \"Character.sol\":2780:2792  _skill_level */\n      dup3\n        /* \"Character.sol\":2795:2796  1 */\n      0x01\n        /* \"Character.sol\":2780:2796  _skill_level + 1 */\n      tag_261\n      jump\t// in\n    tag_260:\n        /* \"Character.sol\":2749:2763  skill[_hunter] */\n      0x00\n      dup6\n      dup2\n      mstore\n        /* \"Character.sol\":2749:2754  skill */\n      0x0b\n        /* \"Character.sol\":2749:2763  skill[_hunter] */\n      0x20\n      mstore\n      0x40\n      swap1\n      keccak256\n        /* \"Character.sol\":2749:2777  skill[_hunter][_skill_index] */\n      dup1\n      sload\n        /* \"Character.sol\":2764:2776  _skill_index */\n      dup6\n      swap1\n        /* \"Character.sol\":2749:2777  skill[_hunter][_skill_index] */\n      dup2\n      lt\n      tag_263\n      jumpi\n      tag_263\n      tag_185\n      jump\t// in\n    tag_263:\n      swap1\n      0x00\n      mstore\n      keccak256(0x00, 0x20)\n      add\n        /* \"Character.sol\":2749:2796  skill[_hunter][_skill_index] = _skill_level + 1 */\n      dup2\n      swap1\n      sstore\n      pop\n        /* \"Character.sol\":2820:2830  msg.sender */\n      caller\n      sub(shl(0xa0, 0x01), 0x01)\n        /* \"Character.sol\":2812:2870  skilled(msg.sender, skill[_hunter][_skill_index], _hunter) */\n      and\n      0xaa4e97eeb4fd5355c649ee3f0c8a2bb57442a5d8d81b7af85422d800a4bbe24e\n        /* \"Character.sol\":2832:2837  skill */\n      0x0b\n        /* \"Character.sol\":2832:2846  skill[_hunter] */\n      0x00\n        /* \"Character.sol\":2838:2845  _hunter */\n      dup8\n        /* \"Character.sol\":2832:2846  skill[_hunter] */\n      dup2\n      mstore\n      0x20\n      add\n      swap1\n      dup2\n      mstore\n      0x20\n      add\n      0x00\n      keccak256\n        /* \"Character.sol\":2847:2859  _skill_index */\n      dup6\n        /* \"Character.sol\":2832:2860  skill[_hunter][_skill_index] */\n      dup2\n      sload\n      dup2\n      lt\n      tag_266\n      jumpi\n      tag_266\n      tag_185\n      jump\t// in\n    tag_266:\n      swap1\n      0x00\n      mstore\n      keccak256(0x00, 0x20)\n      add\n      sload\n        /* \"Character.sol\":2862:2869  _hunter */\n      dup7\n        /* \"Character.sol\":2812:2870  skilled(msg.sender, skill[_hunter][_skill_index], _hunter) */\n      mload(0x40)\n      tag_268\n      swap3\n      swap2\n      swap1\n        /* \"#utility.yul\":12014:12039   */\n      swap2\n      dup3\n      mstore\n        /* \"#utility.yul\":12070:12072   */\n      0x20\n        /* \"#utility.yul\":12055:12073   */\n      dup3\n      add\n        /* \"#utility.yul\":12048:12082   */\n      mstore\n        /* \"#utility.yul\":12002:12004   */\n      0x40\n        /* \"#utility.yul\":11987:12005   */\n      add\n      swap1\n        /* \"#utility.yul\":11840:12088   */\n      jump\n        /* \"Character.sol\":2812:2870  skilled(msg.sender, skill[_hunter][_skill_index], _hunter) */\n    tag_268:\n      mload(0x40)\n      dup1\n      swap2\n      sub\n      swap1\n      log2\n        /* \"Character.sol\":2170:2878  {... */\n      pop\n      pop\n        /* \"Character.sol\":2100:2878  function skill_up(uint _hunter, uint _skill_index) external onlyOwner {... */\n      pop\n      pop\n      jump\t// out\n        /* \"@openzeppelin/contracts/token/ERC721/ERC721.sol\":2632:2734   */\n    tag_116:\n        /* \"@openzeppelin/contracts/token/ERC721/ERC721.sol\":2688:2701   */\n      0x60\n        /* \"@openzeppelin/contracts/token/ERC721/ERC721.sol\":2720:2727   */\n      0x01\n        /* \"@openzeppelin/contracts/token/ERC721/ERC721.sol\":2713:2727   */\n      dup1\n      sload\n      tag_162\n      swap1\n      tag_151\n      jump\t// in\n        /* \"@openzeppelin/contracts/token/ERC721/ERC721.sol\":4169:4322   */\n    tag_121:\n        /* \"@openzeppelin/contracts/token/ERC721/ERC721.sol\":4263:4315   */\n      tag_278\n        /* \"@openzeppelin/contracts/utils/Context.sol\":719:729   */\n      caller\n        /* \"@openzeppelin/contracts/token/ERC721/ERC721.sol\":4296:4304   */\n      dup4\n        /* \"@openzeppelin/contracts/token/ERC721/ERC721.sol\":4306:4314   */\n      dup4\n        /* \"@openzeppelin/contracts/token/ERC721/ERC721.sol\":4263:4281   */\n      tag_280\n        /* \"@openzeppelin/contracts/token/ERC721/ERC721.sol\":4263:4315   */\n      jump\t// in\n    tag_278:\n        /* \"@openzeppelin/contracts/token/ERC721/ERC721.sol\":4169:4322   */\n      pop\n      pop\n      jump\t// out\n        /* \"@openzeppelin/contracts/token/ERC721/ERC721.sol\":5250:5565   */\n    tag_129:\n        /* \"@openzeppelin/contracts/token/ERC721/ERC721.sol\":5418:5459   */\n      tag_282\n        /* \"@openzeppelin/contracts/utils/Context.sol\":719:729   */\n      caller\n        /* \"@openzeppelin/contracts/token/ERC721/ERC721.sol\":5451:5458   */\n      dup4\n        /* \"@openzeppelin/contracts/token/ERC721/ERC721.sol\":5418:5436   */\n      tag_206\n        /* \"@openzeppelin/contracts/token/ERC721/ERC721.sol\":5418:5459   */\n      jump\t// in\n    tag_282:\n        /* \"@openzeppelin/contracts/token/ERC721/ERC721.sol\":5410:5510   */\n      tag_284\n      jumpi\n      mload(0x40)\n      shl(0xe5, 0x461bcd)\n      dup2\n      mstore\n        /* \"#utility.yul\":10213:10215   */\n      0x20\n        /* \"@openzeppelin/contracts/token/ERC721/ERC721.sol\":5410:5510   */\n      0x04\n      dup3\n      add\n        /* \"#utility.yul\":10195:10216   */\n      mstore\n        /* \"#utility.yul\":10252:10254   */\n      0x2e\n        /* \"#utility.yul\":10232:10250   */\n      0x24\n      dup3\n      add\n        /* \"#utility.yul\":10225:10255   */\n      mstore\n        /* \"#utility.yul\":10291:10325   */\n      0x4552433732313a2063616c6c6572206973206e6f7420746f6b656e206f776e65\n        /* \"#utility.yul\":10271:10289   */\n      0x44\n      dup3\n      add\n        /* \"#utility.yul\":10264:10326   */\n      mstore\n      shl(0x92, 0x1c881b9bdc88185c1c1c9bdd9959)\n        /* \"#utility.yul\":10342:10360   */\n      0x64\n      dup3\n      add\n        /* \"#utility.yul\":10335:10379   */\n      mstore\n        /* \"#utility.yul\":10396:10415   */\n      0x84\n      add\n        /* \"@openzeppelin/contracts/token/ERC721/ERC721.sol\":5410:5510   */\n      tag_191\n        /* \"#utility.yul\":10011:10421   */\n      jump\n        /* \"@openzeppelin/contracts/token/ERC721/ERC721.sol\":5410:5510   */\n    tag_284:\n        /* \"@openzeppelin/contracts/token/ERC721/ERC721.sol\":5520:5558   */\n      tag_286\n        /* \"@openzeppelin/contracts/token/ERC721/ERC721.sol\":5534:5538   */\n      dup5\n        /* \"@openzeppelin/contracts/token/ERC721/ERC721.sol\":5540:5542   */\n      dup5\n        /* \"@openzeppelin/contracts/token/ERC721/ERC721.sol\":5544:5551   */\n      dup5\n        /* \"@openzeppelin/contracts/token/ERC721/ERC721.sol\":5553:5557   */\n      dup5\n        /* \"@openzeppelin/contracts/token/ERC721/ERC721.sol\":5520:5533   */\n      tag_287\n        /* \"@openzeppelin/contracts/token/ERC721/ERC721.sol\":5520:5558   */\n      jump\t// in\n    tag_286:\n        /* \"@openzeppelin/contracts/token/ERC721/ERC721.sol\":5250:5565   */\n      pop\n      pop\n      pop\n      pop\n      jump\t// out\n        /* \"Character.sol\":3380:3594  function hunter_skill(address _hunter)... */\n    tag_132:\n      sub(shl(0xa0, 0x01), 0x01)\n        /* \"Character.sol\":3525:3549  address_tokenId[_hunter] */\n      dup2\n      and\n        /* \"Character.sol\":3507:3522  uint _hunter_id */\n      0x00\n        /* \"Character.sol\":3525:3549  address_tokenId[_hunter] */\n      swap1\n      dup2\n      mstore\n        /* \"Character.sol\":3525:3540  address_tokenId */\n      0x09\n        /* \"Character.sol\":3525:3549  address_tokenId[_hunter] */\n      0x20\n      swap1\n      dup2\n      mstore\n      0x40\n      dup1\n      dup4\n      keccak256\n      sload\n        /* \"Character.sol\":3569:3586  skill[_hunter_id] */\n      dup1\n      dup5\n      mstore\n        /* \"Character.sol\":3569:3574  skill */\n      0x0b\n        /* \"Character.sol\":3569:3586  skill[_hunter_id] */\n      dup4\n      mstore\n      swap3\n      dup2\n      swap1\n      keccak256\n        /* \"Character.sol\":3560:3586  _skill = skill[_hunter_id] */\n      dup1\n      sload\n      dup3\n      mload\n      dup2\n      dup6\n      mul\n      dup2\n      add\n      dup6\n      add\n      swap1\n      swap4\n      mstore\n      dup1\n      dup4\n      mstore\n        /* \"Character.sol\":3469:3489  uint[] memory _skill */\n      0x60\n      swap5\n        /* \"Character.sol\":3525:3549  address_tokenId[_hunter] */\n      swap4\n        /* \"Character.sol\":3560:3586  _skill = skill[_hunter_id] */\n      dup4\n      add\n        /* \"Character.sol\":3569:3586  skill[_hunter_id] */\n      dup3\n        /* \"Character.sol\":3560:3586  _skill = skill[_hunter_id] */\n      dup3\n      dup1\n      iszero\n      tag_289\n      jumpi\n      0x20\n      mul\n      dup3\n      add\n      swap2\n      swap1\n      0x00\n      mstore\n      keccak256(0x00, 0x20)\n      swap1\n    tag_290:\n      dup2\n      sload\n      dup2\n      mstore\n      0x20\n      add\n      swap1\n      0x01\n      add\n      swap1\n      dup1\n      dup4\n      gt\n      tag_290\n      jumpi\n    tag_289:\n      pop\n      pop\n      pop\n      pop\n      pop\n      swap2\n      pop\n        /* \"Character.sol\":3496:3594  {... */\n      pop\n        /* \"Character.sol\":3380:3594  function hunter_skill(address _hunter)... */\n      swap2\n      swap1\n      pop\n      jump\t// out\n        /* \"@openzeppelin/contracts/token/ERC721/ERC721.sol\":2800:3076   */\n    tag_136:\n        /* \"@openzeppelin/contracts/token/ERC721/ERC721.sol\":2873:2886   */\n      0x60\n        /* \"@openzeppelin/contracts/token/ERC721/ERC721.sol\":2898:2921   */\n      tag_292\n        /* \"@openzeppelin/contracts/token/ERC721/ERC721.sol\":2913:2920   */\n      dup3\n        /* \"@openzeppelin/contracts/token/ERC721/ERC721.sol\":2898:2912   */\n      tag_169\n        /* \"@openzeppelin/contracts/token/ERC721/ERC721.sol\":2898:2921   */\n      jump\t// in\n    tag_292:\n        /* \"@openzeppelin/contracts/token/ERC721/ERC721.sol\":2932:2953   */\n      0x00\n        /* \"@openzeppelin/contracts/token/ERC721/ERC721.sol\":2956:2966   */\n      tag_293\n        /* \"@openzeppelin/contracts/token/ERC721/ERC721.sol\":3394:3403   */\n      0x40\n      dup1\n      mload\n      0x20\n      dup2\n      add\n      swap1\n      swap2\n      mstore\n      0x00\n      dup2\n      mstore\n      swap1\n        /* \"@openzeppelin/contracts/token/ERC721/ERC721.sol\":3318:3410   */\n      jump\n        /* \"@openzeppelin/contracts/token/ERC721/ERC721.sol\":2956:2966   */\n    tag_293:\n        /* \"@openzeppelin/contracts/token/ERC721/ERC721.sol\":2932:2966   */\n      swap1\n      pop\n        /* \"@openzeppelin/contracts/token/ERC721/ERC721.sol\":3007:3008   */\n      0x00\n        /* \"@openzeppelin/contracts/token/ERC721/ERC721.sol\":2989:2996   */\n      dup2\n        /* \"@openzeppelin/contracts/token/ERC721/ERC721.sol\":2983:3004   */\n      mload\n        /* \"@openzeppelin/contracts/token/ERC721/ERC721.sol\":2983:3008   */\n      gt\n        /* \"@openzeppelin/contracts/token/ERC721/ERC721.sol\":2983:3069   */\n      tag_295\n      jumpi\n      mload(0x40)\n      dup1\n      0x20\n      add\n      0x40\n      mstore\n      dup1\n      0x00\n      dup2\n      mstore\n      pop\n      jump(tag_296)\n    tag_295:\n        /* \"@openzeppelin/contracts/token/ERC721/ERC721.sol\":3035:3042   */\n      dup1\n        /* \"@openzeppelin/contracts/token/ERC721/ERC721.sol\":3044:3062   */\n      tag_297\n        /* \"@openzeppelin/contracts/token/ERC721/ERC721.sol\":3044:3051   */\n      dup5\n        /* \"@openzeppelin/contracts/token/ERC721/ERC721.sol\":3044:3060   */\n      tag_298\n        /* \"@openzeppelin/contracts/token/ERC721/ERC721.sol\":3044:3062   */\n      jump\t// in\n    tag_297:\n        /* \"@openzeppelin/contracts/token/ERC721/ERC721.sol\":3018:3063   */\n      add(0x20, mload(0x40))\n      tag_299\n      swap3\n      swap2\n      swap1\n      tag_300\n      jump\t// in\n    tag_299:\n      mload(0x40)\n      0x20\n      dup2\n      dup4\n      sub\n      sub\n      dup2\n      mstore\n      swap1\n      0x40\n      mstore\n        /* \"@openzeppelin/contracts/token/ERC721/ERC721.sol\":2983:3069   */\n    tag_296:\n        /* \"@openzeppelin/contracts/token/ERC721/ERC721.sol\":2976:3069   */\n      swap4\n        /* \"@openzeppelin/contracts/token/ERC721/ERC721.sol\":2800:3076   */\n      swap3\n      pop\n      pop\n      pop\n      jump\t// out\n        /* \"Character.sol\":2886:3112  function change_name(uint _hunter, string memory _name) external onlyOwner {... */\n    tag_141:\n        /* \"@openzeppelin/contracts/access/Ownable.sol\":1094:1107   */\n      tag_302\n        /* \"@openzeppelin/contracts/access/Ownable.sol\":1094:1105   */\n      tag_248\n        /* \"@openzeppelin/contracts/access/Ownable.sol\":1094:1107   */\n      jump\t// in\n    tag_302:\n        /* \"Character.sol\":3034:3047  name[_hunter] */\n      0x00\n      dup3\n      dup2\n      mstore\n        /* \"Character.sol\":3034:3038  name */\n      0x0a\n        /* \"Character.sol\":3034:3047  name[_hunter] */\n      0x20\n      swap1\n      dup2\n      mstore\n      0x40\n      swap1\n      swap2\n      keccak256\n        /* \"Character.sol\":3034:3055  name[_hunter] = _name */\n      dup3\n      mload\n      tag_304\n      swap3\n      dup5\n      add\n      swap1\n      tag_225\n      jump\t// in\n    tag_304:\n      pop\n        /* \"Character.sol\":3077:3087  msg.sender */\n      caller\n      sub(shl(0xa0, 0x01), 0x01)\n        /* \"Character.sol\":3071:3104  named(msg.sender, _name, _hunter) */\n      and\n      0x68a7f81800258a01d20fc5c11938b8d2251d25ffb372e6c11b1c83fa7d421db0\n        /* \"Character.sol\":3089:3094  _name */\n      dup3\n        /* \"Character.sol\":3096:3103  _hunter */\n      dup5\n        /* \"Character.sol\":3071:3104  named(msg.sender, _name, _hunter) */\n      mload(0x40)\n      tag_305\n      swap3\n      swap2\n      swap1\n      tag_306\n      jump\t// in\n    tag_305:\n      mload(0x40)\n      dup1\n      swap2\n      sub\n      swap1\n      log2\n        /* \"Character.sol\":2886:3112  function change_name(uint _hunter, string memory _name) external onlyOwner {... */\n      pop\n      pop\n      jump\t// out\n        /* \"@openzeppelin/contracts/access/Ownable.sol\":2081:2279   */\n    tag_149:\n        /* \"@openzeppelin/contracts/access/Ownable.sol\":1094:1107   */\n      tag_309\n        /* \"@openzeppelin/contracts/access/Ownable.sol\":1094:1105   */\n      tag_248\n        /* \"@openzeppelin/contracts/access/Ownable.sol\":1094:1107   */\n      jump\t// in\n    tag_309:\n      sub(shl(0xa0, 0x01), 0x01)\n        /* \"@openzeppelin/contracts/access/Ownable.sol\":2169:2191   */\n      dup2\n      and\n        /* \"@openzeppelin/contracts/access/Ownable.sol\":2161:2234   */\n      tag_311\n      jumpi\n      mload(0x40)\n      shl(0xe5, 0x461bcd)\n      dup2\n      mstore\n        /* \"#utility.yul\":13066:13068   */\n      0x20\n        /* \"@openzeppelin/contracts/access/Ownable.sol\":2161:2234   */\n      0x04\n      dup3\n      add\n        /* \"#utility.yul\":13048:13069   */\n      mstore\n        /* \"#utility.yul\":13105:13107   */\n      0x26\n        /* \"#utility.yul\":13085:13103   */\n      0x24\n      dup3\n      add\n        /* \"#utility.yul\":13078:13108   */\n      mstore\n        /* \"#utility.yul\":13144:13178   */\n      0x4f776e61626c653a206e6577206f776e657220697320746865207a65726f2061\n        /* \"#utility.yul\":13124:13142   */\n      0x44\n      dup3\n      add\n        /* \"#utility.yul\":13117:13179   */\n      mstore\n        /* \"#utility.yul\":13215:13223   */\n      0x6464726573730000000000000000000000000000000000000000000000000000\n        /* \"#utility.yul\":13195:13213   */\n      0x64\n      dup3\n      add\n        /* \"#utility.yul\":13188:13224   */\n      mstore\n        /* \"#utility.yul\":13241:13260   */\n      0x84\n      add\n        /* \"@openzeppelin/contracts/access/Ownable.sol\":2161:2234   */\n      tag_191\n        /* \"#utility.yul\":12864:13266   */\n      jump\n        /* \"@openzeppelin/contracts/access/Ownable.sol\":2161:2234   */\n    tag_311:\n        /* \"@openzeppelin/contracts/access/Ownable.sol\":2244:2272   */\n      tag_314\n        /* \"@openzeppelin/contracts/access/Ownable.sol\":2263:2271   */\n      dup2\n        /* \"@openzeppelin/contracts/access/Ownable.sol\":2244:2262   */\n      tag_251\n        /* \"@openzeppelin/contracts/access/Ownable.sol\":2244:2272   */\n      jump\t// in\n    tag_314:\n        /* \"@openzeppelin/contracts/access/Ownable.sol\":2081:2279   */\n      pop\n      jump\t// out\n        /* \"@openzeppelin/contracts/token/ERC721/ERC721.sol\":11657:11790   */\n    tag_169:\n        /* \"@openzeppelin/contracts/token/ERC721/ERC721.sol\":7099:7103   */\n      0x00\n        /* \"@openzeppelin/contracts/token/ERC721/ERC721.sol\":7122:7138   */\n      dup2\n      dup2\n      mstore\n        /* \"@openzeppelin/contracts/token/ERC721/ERC721.sol\":7122:7129   */\n      0x02\n        /* \"@openzeppelin/contracts/token/ERC721/ERC721.sol\":7122:7138   */\n      0x20\n      mstore\n      0x40\n      swap1\n      keccak256\n      sload\n      sub(shl(0xa0, 0x01), 0x01)\n      and\n        /* \"@openzeppelin/contracts/token/ERC721/ERC721.sol\":11730:11783   */\n      tag_314\n      jumpi\n      mload(0x40)\n      shl(0xe5, 0x461bcd)\n      dup2\n      mstore\n        /* \"#utility.yul\":11146:11148   */\n      0x20\n        /* \"@openzeppelin/contracts/token/ERC721/ERC721.sol\":11730:11783   */\n      0x04\n      dup3\n      add\n        /* \"#utility.yul\":11128:11149   */\n      mstore\n        /* \"#utility.yul\":11185:11187   */\n      0x18\n        /* \"#utility.yul\":11165:11183   */\n      0x24\n      dup3\n      add\n        /* \"#utility.yul\":11158:11188   */\n      mstore\n        /* \"#utility.yul\":11224:11250   */\n      0x4552433732313a20696e76616c696420746f6b656e2049440000000000000000\n        /* \"#utility.yul\":11204:11222   */\n      0x44\n      dup3\n      add\n        /* \"#utility.yul\":11197:11251   */\n      mstore\n        /* \"#utility.yul\":11268:11286   */\n      0x64\n      add\n        /* \"@openzeppelin/contracts/token/ERC721/ERC721.sol\":11730:11783   */\n      tag_191\n        /* \"#utility.yul\":10944:11292   */\n      jump\n        /* \"@openzeppelin/contracts/token/ERC721/ERC721.sol\":10959:11130   */\n    tag_202:\n        /* \"@openzeppelin/contracts/token/ERC721/ERC721.sol\":11033:11057   */\n      0x00\n      dup2\n      dup2\n      mstore\n        /* \"@openzeppelin/contracts/token/ERC721/ERC721.sol\":11033:11048   */\n      0x04\n        /* \"@openzeppelin/contracts/token/ERC721/ERC721.sol\":11033:11057   */\n      0x20\n      mstore\n      0x40\n      swap1\n      keccak256\n        /* \"@openzeppelin/contracts/token/ERC721/ERC721.sol\":11033:11062   */\n      dup1\n      sload\n      not(sub(shl(0xa0, 0x01), 0x01))\n      and\n      sub(shl(0xa0, 0x01), 0x01)\n      dup5\n      and\n      swap1\n      dup2\n      or\n      swap1\n      swap2\n      sstore\n        /* \"@openzeppelin/contracts/token/ERC721/ERC721.sol\":11033:11057   */\n      dup2\n      swap1\n        /* \"@openzeppelin/contracts/token/ERC721/ERC721.sol\":11086:11109   */\n      tag_323\n        /* \"@openzeppelin/contracts/token/ERC721/ERC721.sol\":11033:11057   */\n      dup3\n        /* \"@openzeppelin/contracts/token/ERC721/ERC721.sol\":11086:11100   */\n      tag_97\n        /* \"@openzeppelin/contracts/token/ERC721/ERC721.sol\":11086:11109   */\n      jump\t// in\n    tag_323:\n      sub(shl(0xa0, 0x01), 0x01)\n        /* \"@openzeppelin/contracts/token/ERC721/ERC721.sol\":11077:11123   */\n      and\n      0x8c5be1e5ebec7d5bd14f71427d1e84f3dd0314c0f7b2291e5b200ac8c7c3b925\n      mload(0x40)\n      mload(0x40)\n      dup1\n      swap2\n      sub\n      swap1\n      log4\n        /* \"@openzeppelin/contracts/token/ERC721/ERC721.sol\":10959:11130   */\n      pop\n      pop\n      jump\t// out\n        /* \"@openzeppelin/contracts/token/ERC721/ERC721.sol\":7317:7578   */\n    tag_206:\n        /* \"@openzeppelin/contracts/token/ERC721/ERC721.sol\":7410:7414   */\n      0x00\n        /* \"@openzeppelin/contracts/token/ERC721/ERC721.sol\":7426:7439   */\n      dup1\n        /* \"@openzeppelin/contracts/token/ERC721/ERC721.sol\":7442:7465   */\n      tag_325\n        /* \"@openzeppelin/contracts/token/ERC721/ERC721.sol\":7457:7464   */\n      dup4\n        /* \"@openzeppelin/contracts/token/ERC721/ERC721.sol\":7442:7456   */\n      tag_97\n        /* \"@openzeppelin/contracts/token/ERC721/ERC721.sol\":7442:7465   */\n      jump\t// in\n    tag_325:\n        /* \"@openzeppelin/contracts/token/ERC721/ERC721.sol\":7426:7465   */\n      swap1\n      pop\n        /* \"@openzeppelin/contracts/token/ERC721/ERC721.sol\":7494:7499   */\n      dup1\n      sub(shl(0xa0, 0x01), 0x01)\n        /* \"@openzeppelin/contracts/token/ERC721/ERC721.sol\":7483:7499   */\n      and\n        /* \"@openzeppelin/contracts/token/ERC721/ERC721.sol\":7483:7490   */\n      dup5\n      sub(shl(0xa0, 0x01), 0x01)\n        /* \"@openzeppelin/contracts/token/ERC721/ERC721.sol\":7483:7499   */\n      and\n      eq\n        /* \"@openzeppelin/contracts/token/ERC721/ERC721.sol\":7483:7535   */\n      dup1\n      tag_327\n      jumpi\n      pop\n      sub(shl(0xa0, 0x01), 0x01)\n        /* \"@openzeppelin/contracts/token/ERC721/ERC721.sol\":4508:4533   */\n      dup1\n      dup3\n      and\n        /* \"@openzeppelin/contracts/token/ERC721/ERC721.sol\":4485:4489   */\n      0x00\n        /* \"@openzeppelin/contracts/token/ERC721/ERC721.sol\":4508:4533   */\n      swap1\n      dup2\n      mstore\n        /* \"@openzeppelin/contracts/token/ERC721/ERC721.sol\":4508:4526   */\n      0x05\n        /* \"@openzeppelin/contracts/token/ERC721/ERC721.sol\":4508:4533   */\n      0x20\n      swap1\n      dup2\n      mstore\n      0x40\n      dup1\n      dup4\n      keccak256\n        /* \"@openzeppelin/contracts/token/ERC721/ERC721.sol\":4508:4543   */\n      swap4\n      dup9\n      and\n      dup4\n      mstore\n      swap3\n      swap1\n      mstore\n      keccak256\n      sload\n      0xff\n      and\n        /* \"@openzeppelin/contracts/token/ERC721/ERC721.sol\":7503:7535   */\n    tag_327:\n        /* \"@openzeppelin/contracts/token/ERC721/ERC721.sol\":7483:7570   */\n      dup1\n      tag_328\n      jumpi\n      pop\n        /* \"@openzeppelin/contracts/token/ERC721/ERC721.sol\":7563:7570   */\n      dup4\n      sub(shl(0xa0, 0x01), 0x01)\n        /* \"@openzeppelin/contracts/token/ERC721/ERC721.sol\":7539:7570   */\n      and\n        /* \"@openzeppelin/contracts/token/ERC721/ERC721.sol\":7539:7559   */\n      tag_329\n        /* \"@openzeppelin/contracts/token/ERC721/ERC721.sol\":7551:7558   */\n      dup5\n        /* \"@openzeppelin/contracts/token/ERC721/ERC721.sol\":7539:7550   */\n      tag_55\n        /* \"@openzeppelin/contracts/token/ERC721/ERC721.sol\":7539:7559   */\n      jump\t// in\n    tag_329:\n      sub(shl(0xa0, 0x01), 0x01)\n        /* \"@openzeppelin/contracts/token/ERC721/ERC721.sol\":7539:7570   */\n      and\n      eq\n        /* \"@openzeppelin/contracts/token/ERC721/ERC721.sol\":7483:7570   */\n    tag_328:\n        /* \"@openzeppelin/contracts/token/ERC721/ERC721.sol\":7475:7571   */\n      swap5\n        /* \"@openzeppelin/contracts/token/ERC721/ERC721.sol\":7317:7578   */\n      swap4\n      pop\n      pop\n      pop\n      pop\n      jump\t// out\n        /* \"@openzeppelin/contracts/token/ERC721/ERC721.sol\":10242:10847   */\n    tag_211:\n        /* \"@openzeppelin/contracts/token/ERC721/ERC721.sol\":10396:10400   */\n      dup3\n      sub(shl(0xa0, 0x01), 0x01)\n        /* \"@openzeppelin/contracts/token/ERC721/ERC721.sol\":10369:10400   */\n      and\n        /* \"@openzeppelin/contracts/token/ERC721/ERC721.sol\":10369:10392   */\n      tag_331\n        /* \"@openzeppelin/contracts/token/ERC721/ERC721.sol\":10384:10391   */\n      dup3\n        /* \"@openzeppelin/contracts/token/ERC721/ERC721.sol\":10369:10383   */\n      tag_97\n        /* \"@openzeppelin/contracts/token/ERC721/ERC721.sol\":10369:10392   */\n      jump\t// in\n    tag_331:\n      sub(shl(0xa0, 0x01), 0x01)\n        /* \"@openzeppelin/contracts/token/ERC721/ERC721.sol\":10369:10400   */\n      and\n      eq\n        /* \"@openzeppelin/contracts/token/ERC721/ERC721.sol\":10361:10442   */\n      tag_332\n      jumpi\n      mload(0x40)\n      shl(0xe5, 0x461bcd)\n      dup2\n      mstore\n        /* \"#utility.yul\":13473:13475   */\n      0x20\n        /* \"@openzeppelin/contracts/token/ERC721/ERC721.sol\":10361:10442   */\n      0x04\n      dup3\n      add\n        /* \"#utility.yul\":13455:13476   */\n      mstore\n        /* \"#utility.yul\":13512:13514   */\n      0x25\n        /* \"#utility.yul\":13492:13510   */\n      0x24\n      dup3\n      add\n        /* \"#utility.yul\":13485:13515   */\n      mstore\n        /* \"#utility.yul\":13551:13585   */\n      0x4552433732313a207472616e736665722066726f6d20696e636f727265637420\n        /* \"#utility.yul\":13531:13549   */\n      0x44\n      dup3\n      add\n        /* \"#utility.yul\":13524:13586   */\n      mstore\n        /* \"#utility.yul\":13622:13629   */\n      0x6f776e6572000000000000000000000000000000000000000000000000000000\n        /* \"#utility.yul\":13602:13620   */\n      0x64\n      dup3\n      add\n        /* \"#utility.yul\":13595:13630   */\n      mstore\n        /* \"#utility.yul\":13647:13666   */\n      0x84\n      add\n        /* \"@openzeppelin/contracts/token/ERC721/ERC721.sol\":10361:10442   */\n      tag_191\n        /* \"#utility.yul\":13271:13672   */\n      jump\n        /* \"@openzeppelin/contracts/token/ERC721/ERC721.sol\":10361:10442   */\n    tag_332:\n      sub(shl(0xa0, 0x01), 0x01)\n        /* \"@openzeppelin/contracts/token/ERC721/ERC721.sol\":10460:10476   */\n      dup3\n      and\n        /* \"@openzeppelin/contracts/token/ERC721/ERC721.sol\":10452:10517   */\n      tag_335\n      jumpi\n      mload(0x40)\n      shl(0xe5, 0x461bcd)\n      dup2\n      mstore\n        /* \"#utility.yul\":13879:13881   */\n      0x20\n        /* \"@openzeppelin/contracts/token/ERC721/ERC721.sol\":10452:10517   */\n      0x04\n      dup3\n      add\n        /* \"#utility.yul\":13861:13882   */\n      mstore\n        /* \"#utility.yul\":13918:13920   */\n      0x24\n        /* \"#utility.yul\":13898:13916   */\n      dup1\n      dup3\n      add\n        /* \"#utility.yul\":13891:13921   */\n      mstore\n        /* \"#utility.yul\":13957:13991   */\n      0x4552433732313a207472616e7366657220746f20746865207a65726f20616464\n        /* \"#utility.yul\":13937:13955   */\n      0x44\n      dup3\n      add\n        /* \"#utility.yul\":13930:13992   */\n      mstore\n      shl(0xe0, 0x72657373)\n        /* \"#utility.yul\":14008:14026   */\n      0x64\n      dup3\n      add\n        /* \"#utility.yul\":14001:14035   */\n      mstore\n        /* \"#utility.yul\":14052:14071   */\n      0x84\n      add\n        /* \"@openzeppelin/contracts/token/ERC721/ERC721.sol\":10452:10517   */\n      tag_191\n        /* \"#utility.yul\":13677:14077   */\n      jump\n        /* \"@openzeppelin/contracts/token/ERC721/ERC721.sol\":10452:10517   */\n    tag_335:\n        /* \"@openzeppelin/contracts/token/ERC721/ERC721.sol\":10528:10567   */\n      tag_338\n        /* \"@openzeppelin/contracts/token/ERC721/ERC721.sol\":10549:10553   */\n      dup4\n        /* \"@openzeppelin/contracts/token/ERC721/ERC721.sol\":10555:10557   */\n      dup4\n        /* \"@openzeppelin/contracts/token/ERC721/ERC721.sol\":10559:10566   */\n      dup4\n        /* \"@openzeppelin/contracts/token/ERC721/ERC721.sol\":10528:10548   */\n      tag_339\n        /* \"@openzeppelin/contracts/token/ERC721/ERC721.sol\":10528:10567   */\n      jump\t// in\n    tag_338:\n        /* \"@openzeppelin/contracts/token/ERC721/ERC721.sol\":10629:10658   */\n      tag_340\n        /* \"@openzeppelin/contracts/token/ERC721/ERC721.sol\":10646:10647   */\n      0x00\n        /* \"@openzeppelin/contracts/token/ERC721/ERC721.sol\":10650:10657   */\n      dup3\n        /* \"@openzeppelin/contracts/token/ERC721/ERC721.sol\":10629:10637   */\n      tag_202\n        /* \"@openzeppelin/contracts/token/ERC721/ERC721.sol\":10629:10658   */\n      jump\t// in\n    tag_340:\n      sub(shl(0xa0, 0x01), 0x01)\n        /* \"@openzeppelin/contracts/token/ERC721/ERC721.sol\":10669:10684   */\n      dup4\n      and\n      0x00\n      swap1\n      dup2\n      mstore\n        /* \"@openzeppelin/contracts/token/ERC721/ERC721.sol\":10669:10678   */\n      0x03\n        /* \"@openzeppelin/contracts/token/ERC721/ERC721.sol\":10669:10684   */\n      0x20\n      mstore\n      0x40\n      dup2\n      keccak256\n        /* \"@openzeppelin/contracts/token/ERC721/ERC721.sol\":10669:10689   */\n      dup1\n      sload\n        /* \"@openzeppelin/contracts/token/ERC721/ERC721.sol\":10688:10689   */\n      0x01\n      swap3\n        /* \"@openzeppelin/contracts/token/ERC721/ERC721.sol\":10669:10684   */\n      swap1\n        /* \"@openzeppelin/contracts/token/ERC721/ERC721.sol\":10669:10689   */\n      tag_341\n      swap1\n        /* \"@openzeppelin/contracts/token/ERC721/ERC721.sol\":10688:10689   */\n      dup5\n      swap1\n        /* \"@openzeppelin/contracts/token/ERC721/ERC721.sol\":10669:10689   */\n      tag_342\n      jump\t// in\n    tag_341:\n      swap1\n      swap2\n      sstore\n      pop\n      pop\n      sub(shl(0xa0, 0x01), 0x01)\n        /* \"@openzeppelin/contracts/token/ERC721/ERC721.sol\":10699:10712   */\n      dup3\n      and\n      0x00\n      swap1\n      dup2\n      mstore\n        /* \"@openzeppelin/contracts/token/ERC721/ERC721.sol\":10699:10708   */\n      0x03\n        /* \"@openzeppelin/contracts/token/ERC721/ERC721.sol\":10699:10712   */\n      0x20\n      mstore\n      0x40\n      dup2\n      keccak256\n        /* \"@openzeppelin/contracts/token/ERC721/ERC721.sol\":10699:10717   */\n      dup1\n      sload\n        /* \"@openzeppelin/contracts/token/ERC721/ERC721.sol\":10716:10717   */\n      0x01\n      swap3\n        /* \"@openzeppelin/contracts/token/ERC721/ERC721.sol\":10699:10712   */\n      swap1\n        /* \"@openzeppelin/contracts/token/ERC721/ERC721.sol\":10699:10717   */\n      tag_343\n      swap1\n        /* \"@openzeppelin/contracts/token/ERC721/ERC721.sol\":10716:10717   */\n      dup5\n      swap1\n        /* \"@openzeppelin/contracts/token/ERC721/ERC721.sol\":10699:10717   */\n      tag_261\n      jump\t// in\n    tag_343:\n      swap1\n      swap2\n      sstore\n      pop\n      pop\n        /* \"@openzeppelin/contracts/token/ERC721/ERC721.sol\":10727:10743   */\n      0x00\n      dup2\n      dup2\n      mstore\n        /* \"@openzeppelin/contracts/token/ERC721/ERC721.sol\":10727:10734   */\n      0x02\n        /* \"@openzeppelin/contracts/token/ERC721/ERC721.sol\":10727:10743   */\n      0x20\n      mstore\n      0x40\n      dup1\n      dup3\n      keccak256\n        /* \"@openzeppelin/contracts/token/ERC721/ERC721.sol\":10727:10748   */\n      dup1\n      sload\n      not(sub(shl(0xa0, 0x01), 0x01))\n      and\n      sub(shl(0xa0, 0x01), 0x01)\n      dup7\n      dup2\n      and\n      swap2\n      dup3\n      or\n      swap1\n      swap3\n      sstore\n        /* \"@openzeppelin/contracts/token/ERC721/ERC721.sol\":10764:10791   */\n      swap2\n      mload\n        /* \"@openzeppelin/contracts/token/ERC721/ERC721.sol\":10727:10743   */\n      dup5\n      swap4\n        /* \"@openzeppelin/contracts/token/ERC721/ERC721.sol\":10764:10791   */\n      swap2\n      dup8\n      and\n      swap2\n      0xddf252ad1be2c89b69c2b068fc378daa952ba7f163c4a11628f55a4df523b3ef\n      swap2\n      log4\n        /* \"@openzeppelin/contracts/token/ERC721/ERC721.sol\":3537:3874   */\n      pop\n        /* \"@openzeppelin/contracts/token/ERC721/ERC721.sol\":3467:3874   */\n      pop\n      pop\n      jump\t// out\n        /* \"@openzeppelin/contracts/utils/Strings.sol\":2245:2394   */\n    tag_223:\n        /* \"@openzeppelin/contracts/utils/Strings.sol\":2303:2316   */\n      0x60\n        /* \"@openzeppelin/contracts/utils/Strings.sol\":2335:2387   */\n      tag_159\n      sub(shl(0xa0, 0x01), 0x01)\n        /* \"@openzeppelin/contracts/utils/Strings.sol\":2347:2369   */\n      dup4\n      and\n        /* \"@openzeppelin/contracts/utils/Strings.sol\":288:290   */\n      0x14\n        /* \"@openzeppelin/contracts/utils/Strings.sol\":2335:2346   */\n      tag_350\n        /* \"@openzeppelin/contracts/utils/Strings.sol\":2335:2387   */\n      jump\t// in\n        /* \"@openzeppelin/contracts/token/ERC721/ERC721.sol\":7908:8016   */\n    tag_229:\n        /* \"@openzeppelin/contracts/token/ERC721/ERC721.sol\":7983:8009   */\n      tag_278\n        /* \"@openzeppelin/contracts/token/ERC721/ERC721.sol\":7993:7995   */\n      dup3\n        /* \"@openzeppelin/contracts/token/ERC721/ERC721.sol\":7997:8004   */\n      dup3\n        /* \"@openzeppelin/contracts/token/ERC721/ERC721.sol\":7983:8009   */\n      mload(0x40)\n      dup1\n      0x20\n      add\n      0x40\n      mstore\n      dup1\n      0x00\n      dup2\n      mstore\n      pop\n        /* \"@openzeppelin/contracts/token/ERC721/ERC721.sol\":7983:7992   */\n      tag_353\n        /* \"@openzeppelin/contracts/token/ERC721/ERC721.sol\":7983:8009   */\n      jump\t// in\n        /* \"@openzeppelin/contracts/access/Ownable.sol\":1359:1489   */\n    tag_248:\n        /* \"@openzeppelin/contracts/access/Ownable.sol\":1273:1279   */\n      and(sub(shl(0xa0, 0x01), 0x01), sload(0x06))\n        /* \"@openzeppelin/contracts/utils/Context.sol\":719:729   */\n      caller\n        /* \"@openzeppelin/contracts/access/Ownable.sol\":1422:1445   */\n      eq\n        /* \"@openzeppelin/contracts/access/Ownable.sol\":1414:1482   */\n      tag_250\n      jumpi\n      mload(0x40)\n      shl(0xe5, 0x461bcd)\n      dup2\n      mstore\n        /* \"#utility.yul\":14414:14416   */\n      0x20\n        /* \"@openzeppelin/contracts/access/Ownable.sol\":1414:1482   */\n      0x04\n      dup3\n      add\n        /* \"#utility.yul\":14396:14417   */\n      dup2\n      swap1\n      mstore\n        /* \"#utility.yul\":14433:14451   */\n      0x24\n      dup3\n      add\n        /* \"#utility.yul\":14426:14456   */\n      mstore\n        /* \"#utility.yul\":14492:14526   */\n      0x4f776e61626c653a2063616c6c6572206973206e6f7420746865206f776e6572\n        /* \"#utility.yul\":14472:14490   */\n      0x44\n      dup3\n      add\n        /* \"#utility.yul\":14465:14527   */\n      mstore\n        /* \"#utility.yul\":14544:14562   */\n      0x64\n      add\n        /* \"@openzeppelin/contracts/access/Ownable.sol\":1414:1482   */\n      tag_191\n        /* \"#utility.yul\":14212:14568   */\n      jump\n        /* \"@openzeppelin/contracts/access/Ownable.sol\":2433:2620   */\n    tag_251:\n        /* \"@openzeppelin/contracts/access/Ownable.sol\":2525:2531   */\n      0x06\n      dup1\n      sload\n      sub(shl(0xa0, 0x01), 0x01)\n        /* \"@openzeppelin/contracts/access/Ownable.sol\":2541:2558   */\n      dup4\n      dup2\n      and\n      not(sub(shl(0xa0, 0x01), 0x01))\n      dup4\n      and\n      dup2\n      or\n      swap1\n      swap4\n      sstore\n        /* \"@openzeppelin/contracts/access/Ownable.sol\":2573:2613   */\n      mload(0x40)\n        /* \"@openzeppelin/contracts/access/Ownable.sol\":2525:2531   */\n      swap2\n      and\n      swap2\n        /* \"@openzeppelin/contracts/access/Ownable.sol\":2541:2558   */\n      swap1\n        /* \"@openzeppelin/contracts/access/Ownable.sol\":2525:2531   */\n      dup3\n      swap1\n        /* \"@openzeppelin/contracts/access/Ownable.sol\":2573:2613   */\n      0x8be0079c531659141344cd1fd0a4f28419497f9722a3daafe3b4186f6b6457e0\n      swap1\n        /* \"@openzeppelin/contracts/access/Ownable.sol\":2506:2522   */\n      0x00\n      swap1\n        /* \"@openzeppelin/contracts/access/Ownable.sol\":2573:2613   */\n      log3\n        /* \"@openzeppelin/contracts/access/Ownable.sol\":2496:2620   */\n      pop\n        /* \"@openzeppelin/contracts/access/Ownable.sol\":2433:2620   */\n      pop\n      jump\t// out\n        /* \"@openzeppelin/contracts/token/ERC721/ERC721.sol\":11266:11573   */\n    tag_280:\n        /* \"@openzeppelin/contracts/token/ERC721/ERC721.sol\":11416:11424   */\n      dup2\n      sub(shl(0xa0, 0x01), 0x01)\n        /* \"@openzeppelin/contracts/token/ERC721/ERC721.sol\":11407:11424   */\n      and\n        /* \"@openzeppelin/contracts/token/ERC721/ERC721.sol\":11407:11412   */\n      dup4\n      sub(shl(0xa0, 0x01), 0x01)\n        /* \"@openzeppelin/contracts/token/ERC721/ERC721.sol\":11407:11424   */\n      and\n      sub\n        /* \"@openzeppelin/contracts/token/ERC721/ERC721.sol\":11399:11454   */\n      tag_362\n      jumpi\n      mload(0x40)\n      shl(0xe5, 0x461bcd)\n      dup2\n      mstore\n        /* \"#utility.yul\":14775:14777   */\n      0x20\n        /* \"@openzeppelin/contracts/token/ERC721/ERC721.sol\":11399:11454   */\n      0x04\n      dup3\n      add\n        /* \"#utility.yul\":14757:14778   */\n      mstore\n        /* \"#utility.yul\":14814:14816   */\n      0x19\n        /* \"#utility.yul\":14794:14812   */\n      0x24\n      dup3\n      add\n        /* \"#utility.yul\":14787:14817   */\n      mstore\n        /* \"#utility.yul\":14853:14880   */\n      0x4552433732313a20617070726f766520746f2063616c6c657200000000000000\n        /* \"#utility.yul\":14833:14851   */\n      0x44\n      dup3\n      add\n        /* \"#utility.yul\":14826:14881   */\n      mstore\n        /* \"#utility.yul\":14898:14916   */\n      0x64\n      add\n        /* \"@openzeppelin/contracts/token/ERC721/ERC721.sol\":11399:11454   */\n      tag_191\n        /* \"#utility.yul\":14573:14922   */\n      jump\n        /* \"@openzeppelin/contracts/token/ERC721/ERC721.sol\":11399:11454   */\n    tag_362:\n      sub(shl(0xa0, 0x01), 0x01)\n        /* \"@openzeppelin/contracts/token/ERC721/ERC721.sol\":11464:11489   */\n      dup4\n      dup2\n      and\n      0x00\n      dup2\n      dup2\n      mstore\n        /* \"@openzeppelin/contracts/token/ERC721/ERC721.sol\":11464:11482   */\n      0x05\n        /* \"@openzeppelin/contracts/token/ERC721/ERC721.sol\":11464:11489   */\n      0x20\n      swap1\n      dup2\n      mstore\n      0x40\n      dup1\n      dup4\n      keccak256\n        /* \"@openzeppelin/contracts/token/ERC721/ERC721.sol\":11464:11499   */\n      swap5\n      dup8\n      and\n      dup1\n      dup5\n      mstore\n      swap5\n      dup3\n      mstore\n      swap2\n      dup3\n      swap1\n      keccak256\n        /* \"@openzeppelin/contracts/token/ERC721/ERC721.sol\":11464:11510   */\n      dup1\n      sload\n      not(0xff)\n      and\n      dup7\n      iszero\n      iszero\n      swap1\n      dup2\n      or\n      swap1\n      swap2\n      sstore\n        /* \"@openzeppelin/contracts/token/ERC721/ERC721.sol\":11525:11566   */\n      swap2\n      mload\n        /* \"#utility.yul\":1476:1517   */\n      swap2\n      dup3\n      mstore\n        /* \"@openzeppelin/contracts/token/ERC721/ERC721.sol\":11525:11566   */\n      0x17307eab39ab6107e8899845ad3d59bd9653f200f220920489ca2b5937696c31\n      swap2\n        /* \"#utility.yul\":1449:1467   */\n      add\n        /* \"@openzeppelin/contracts/token/ERC721/ERC721.sol\":11525:11566   */\n      mload(0x40)\n      dup1\n      swap2\n      sub\n      swap1\n      log3\n        /* \"@openzeppelin/contracts/token/ERC721/ERC721.sol\":11266:11573   */\n      pop\n      pop\n      pop\n      jump\t// out\n        /* \"@openzeppelin/contracts/token/ERC721/ERC721.sol\":6426:6731   */\n    tag_287:\n        /* \"@openzeppelin/contracts/token/ERC721/ERC721.sol\":6576:6604   */\n      tag_367\n        /* \"@openzeppelin/contracts/token/ERC721/ERC721.sol\":6586:6590   */\n      dup5\n        /* \"@openzeppelin/contracts/token/ERC721/ERC721.sol\":6592:6594   */\n      dup5\n        /* \"@openzeppelin/contracts/token/ERC721/ERC721.sol\":6596:6603   */\n      dup5\n        /* \"@openzeppelin/contracts/token/ERC721/ERC721.sol\":6576:6585   */\n      tag_211\n        /* \"@openzeppelin/contracts/token/ERC721/ERC721.sol\":6576:6604   */\n      jump\t// in\n    tag_367:\n        /* \"@openzeppelin/contracts/token/ERC721/ERC721.sol\":6622:6669   */\n      tag_368\n        /* \"@openzeppelin/contracts/token/ERC721/ERC721.sol\":6645:6649   */\n      dup5\n        /* \"@openzeppelin/contracts/token/ERC721/ERC721.sol\":6651:6653   */\n      dup5\n        /* \"@openzeppelin/contracts/token/ERC721/ERC721.sol\":6655:6662   */\n      dup5\n        /* \"@openzeppelin/contracts/token/ERC721/ERC721.sol\":6664:6668   */\n      dup5\n        /* \"@openzeppelin/contracts/token/ERC721/ERC721.sol\":6622:6644   */\n      tag_369\n        /* \"@openzeppelin/contracts/token/ERC721/ERC721.sol\":6622:6669   */\n      jump\t// in\n    tag_368:\n        /* \"@openzeppelin/contracts/token/ERC721/ERC721.sol\":6614:6724   */\n      tag_286\n      jumpi\n      mload(0x40)\n      shl(0xe5, 0x461bcd)\n      dup2\n      mstore\n        /* \"#utility.yul\":15129:15131   */\n      0x20\n        /* \"@openzeppelin/contracts/token/ERC721/ERC721.sol\":6614:6724   */\n      0x04\n      dup3\n      add\n        /* \"#utility.yul\":15111:15132   */\n      mstore\n        /* \"#utility.yul\":15168:15170   */\n      0x32\n        /* \"#utility.yul\":15148:15166   */\n      0x24\n      dup3\n      add\n        /* \"#utility.yul\":15141:15171   */\n      mstore\n        /* \"#utility.yul\":15207:15241   */\n      0x4552433732313a207472616e7366657220746f206e6f6e204552433732315265\n        /* \"#utility.yul\":15187:15205   */\n      0x44\n      dup3\n      add\n        /* \"#utility.yul\":15180:15242   */\n      mstore\n      shl(0x71, 0x31b2b4bb32b91034b6b83632b6b2b73a32b9)\n        /* \"#utility.yul\":15258:15276   */\n      0x64\n      dup3\n      add\n        /* \"#utility.yul\":15251:15299   */\n      mstore\n        /* \"#utility.yul\":15316:15335   */\n      0x84\n      add\n        /* \"@openzeppelin/contracts/token/ERC721/ERC721.sol\":6614:6724   */\n      tag_191\n        /* \"#utility.yul\":14927:15341   */\n      jump\n        /* \"@openzeppelin/contracts/utils/Strings.sol\":392:1095   */\n    tag_298:\n        /* \"@openzeppelin/contracts/utils/Strings.sol\":448:461   */\n      0x60\n        /* \"@openzeppelin/contracts/utils/Strings.sol\":665:670   */\n      dup2\n        /* \"@openzeppelin/contracts/utils/Strings.sol\":674:675   */\n      0x00\n        /* \"@openzeppelin/contracts/utils/Strings.sol\":665:675   */\n      sub\n        /* \"@openzeppelin/contracts/utils/Strings.sol\":661:712   */\n      tag_375\n      jumpi\n      pop\n      pop\n        /* \"@openzeppelin/contracts/utils/Strings.sol\":691:701   */\n      0x40\n      dup1\n      mload\n      dup1\n      dup3\n      add\n      swap1\n      swap2\n      mstore\n      0x01\n      dup2\n      mstore\n      shl(0xfc, 0x03)\n      0x20\n      dup3\n      add\n      mstore\n      swap1\n        /* \"@openzeppelin/contracts/utils/Strings.sol\":392:1095   */\n      jump\t// out\n        /* \"@openzeppelin/contracts/utils/Strings.sol\":661:712   */\n    tag_375:\n        /* \"@openzeppelin/contracts/utils/Strings.sol\":736:741   */\n      dup2\n        /* \"@openzeppelin/contracts/utils/Strings.sol\":721:733   */\n      0x00\n        /* \"@openzeppelin/contracts/utils/Strings.sol\":775:850   */\n    tag_376:\n        /* \"@openzeppelin/contracts/utils/Strings.sol\":782:791   */\n      dup2\n      iszero\n        /* \"@openzeppelin/contracts/utils/Strings.sol\":775:850   */\n      tag_377\n      jumpi\n        /* \"@openzeppelin/contracts/utils/Strings.sol\":807:815   */\n      dup1\n      tag_378\n      dup2\n      tag_187\n      jump\t// in\n    tag_378:\n      swap2\n      pop\n        /* \"@openzeppelin/contracts/utils/Strings.sol\":829:839   */\n      tag_379\n      swap1\n      pop\n        /* \"@openzeppelin/contracts/utils/Strings.sol\":837:839   */\n      0x0a\n        /* \"@openzeppelin/contracts/utils/Strings.sol\":829:839   */\n      dup4\n      tag_380\n      jump\t// in\n    tag_379:\n      swap2\n      pop\n        /* \"@openzeppelin/contracts/utils/Strings.sol\":775:850   */\n      jump(tag_376)\n    tag_377:\n        /* \"@openzeppelin/contracts/utils/Strings.sol\":859:878   */\n      0x00\n        /* \"@openzeppelin/contracts/utils/Strings.sol\":891:897   */\n      dup2\n        /* \"@openzeppelin/contracts/utils/Strings.sol\":881:898   */\n      0xffffffffffffffff\n      dup2\n      gt\n      iszero\n      tag_382\n      jumpi\n      tag_382\n      tag_173\n      jump\t// in\n    tag_382:\n      mload(0x40)\n      swap1\n      dup1\n      dup3\n      mstore\n      dup1\n      0x1f\n      add\n      not(0x1f)\n      and\n      0x20\n      add\n      dup3\n      add\n      0x40\n      mstore\n      dup1\n      iszero\n      tag_383\n      jumpi\n      0x20\n      dup3\n      add\n      dup2\n      dup1\n      calldatasize\n      dup4\n      calldatacopy\n      add\n      swap1\n      pop\n    tag_383:\n      pop\n        /* \"@openzeppelin/contracts/utils/Strings.sol\":859:898   */\n      swap1\n      pop\n        /* \"@openzeppelin/contracts/utils/Strings.sol\":908:1058   */\n    tag_384:\n        /* \"@openzeppelin/contracts/utils/Strings.sol\":915:925   */\n      dup5\n      iszero\n        /* \"@openzeppelin/contracts/utils/Strings.sol\":908:1058   */\n      tag_328\n      jumpi\n        /* \"@openzeppelin/contracts/utils/Strings.sol\":941:952   */\n      tag_386\n        /* \"@openzeppelin/contracts/utils/Strings.sol\":951:952   */\n      0x01\n        /* \"@openzeppelin/contracts/utils/Strings.sol\":941:952   */\n      dup4\n      tag_342\n      jump\t// in\n    tag_386:\n      swap2\n      pop\n        /* \"@openzeppelin/contracts/utils/Strings.sol\":1009:1019   */\n      tag_387\n        /* \"@openzeppelin/contracts/utils/Strings.sol\":1017:1019   */\n      0x0a\n        /* \"@openzeppelin/contracts/utils/Strings.sol\":1009:1014   */\n      dup7\n        /* \"@openzeppelin/contracts/utils/Strings.sol\":1009:1019   */\n      tag_388\n      jump\t// in\n    tag_387:\n        /* \"@openzeppelin/contracts/utils/Strings.sol\":996:1020   */\n      tag_389\n      swap1\n        /* \"@openzeppelin/contracts/utils/Strings.sol\":996:998   */\n      0x30\n        /* \"@openzeppelin/contracts/utils/Strings.sol\":996:1020   */\n      tag_261\n      jump\t// in\n    tag_389:\n        /* \"@openzeppelin/contracts/utils/Strings.sol\":983:1022   */\n      0xf8\n      shl\n        /* \"@openzeppelin/contracts/utils/Strings.sol\":966:972   */\n      dup2\n        /* \"@openzeppelin/contracts/utils/Strings.sol\":973:979   */\n      dup4\n        /* \"@openzeppelin/contracts/utils/Strings.sol\":966:980   */\n      dup2\n      mload\n      dup2\n      lt\n      tag_391\n      jumpi\n      tag_391\n      tag_185\n      jump\t// in\n    tag_391:\n      0x20\n      add\n      add\n        /* \"@openzeppelin/contracts/utils/Strings.sol\":966:1022   */\n      swap1\n      not(sub(shl(0xf8, 0x01), 0x01))\n      and\n      swap1\n      dup2\n      0x00\n      byte\n      swap1\n      mstore8\n      pop\n        /* \"@openzeppelin/contracts/utils/Strings.sol\":1036:1047   */\n      tag_392\n        /* \"@openzeppelin/contracts/utils/Strings.sol\":1045:1047   */\n      0x0a\n        /* \"@openzeppelin/contracts/utils/Strings.sol\":1036:1047   */\n      dup7\n      tag_380\n      jump\t// in\n    tag_392:\n      swap5\n      pop\n        /* \"@openzeppelin/contracts/utils/Strings.sol\":908:1058   */\n      jump(tag_384)\n        /* \"Character.sol\":4015:4274  function _beforeTokenTransfer(... */\n    tag_339:\n      sub(shl(0xa0, 0x01), 0x01)\n        /* \"Character.sol\":4167:4185  from == address(0) */\n      dup4\n      and\n      iszero\n        /* \"Character.sol\":4159:4210  require(from == address(0), \"Token can't transfer\") */\n      tag_201\n      jumpi\n      mload(0x40)\n      shl(0xe5, 0x461bcd)\n      dup2\n      mstore\n        /* \"#utility.yul\":15922:15924   */\n      0x20\n        /* \"Character.sol\":4159:4210  require(from == address(0), \"Token can't transfer\") */\n      0x04\n      dup3\n      add\n        /* \"#utility.yul\":15904:15925   */\n      mstore\n        /* \"#utility.yul\":15961:15963   */\n      0x14\n        /* \"#utility.yul\":15941:15959   */\n      0x24\n      dup3\n      add\n        /* \"#utility.yul\":15934:15964   */\n      mstore\n        /* \"#utility.yul\":16000:16022   */\n      0x546f6b656e2063616e2774207472616e73666572000000000000000000000000\n        /* \"#utility.yul\":15980:15998   */\n      0x44\n      dup3\n      add\n        /* \"#utility.yul\":15973:16023   */\n      mstore\n        /* \"#utility.yul\":16040:16058   */\n      0x64\n      add\n        /* \"Character.sol\":4159:4210  require(from == address(0), \"Token can't transfer\") */\n      tag_191\n        /* \"#utility.yul\":15720:16064   */\n      jump\n        /* \"@openzeppelin/contracts/utils/Strings.sol\":1652:2093   */\n    tag_350:\n        /* \"@openzeppelin/contracts/utils/Strings.sol\":1727:1740   */\n      0x60\n        /* \"@openzeppelin/contracts/utils/Strings.sol\":1752:1771   */\n      0x00\n        /* \"@openzeppelin/contracts/utils/Strings.sol\":1784:1794   */\n      tag_402\n        /* \"@openzeppelin/contracts/utils/Strings.sol\":1788:1794   */\n      dup4\n        /* \"@openzeppelin/contracts/utils/Strings.sol\":1784:1785   */\n      0x02\n        /* \"@openzeppelin/contracts/utils/Strings.sol\":1784:1794   */\n      tag_237\n      jump\t// in\n    tag_402:\n        /* \"@openzeppelin/contracts/utils/Strings.sol\":1784:1798   */\n      tag_403\n      swap1\n        /* \"@openzeppelin/contracts/utils/Strings.sol\":1797:1798   */\n      0x02\n        /* \"@openzeppelin/contracts/utils/Strings.sol\":1784:1798   */\n      tag_261\n      jump\t// in\n    tag_403:\n        /* \"@openzeppelin/contracts/utils/Strings.sol\":1774:1799   */\n      0xffffffffffffffff\n      dup2\n      gt\n      iszero\n      tag_405\n      jumpi\n      tag_405\n      tag_173\n      jump\t// in\n    tag_405:\n      mload(0x40)\n      swap1\n      dup1\n      dup3\n      mstore\n      dup1\n      0x1f\n      add\n      not(0x1f)\n      and\n      0x20\n      add\n      dup3\n      add\n      0x40\n      mstore\n      dup1\n      iszero\n      tag_406\n      jumpi\n      0x20\n      dup3\n      add\n      dup2\n      dup1\n      calldatasize\n      dup4\n      calldatacopy\n      add\n      swap1\n      pop\n    tag_406:\n      pop\n        /* \"@openzeppelin/contracts/utils/Strings.sol\":1752:1799   */\n      swap1\n      pop\n      shl(0xfc, 0x03)\n        /* \"@openzeppelin/contracts/utils/Strings.sol\":1809:1815   */\n      dup2\n        /* \"@openzeppelin/contracts/utils/Strings.sol\":1816:1817   */\n      0x00\n        /* \"@openzeppelin/contracts/utils/Strings.sol\":1809:1818   */\n      dup2\n      mload\n      dup2\n      lt\n      tag_408\n      jumpi\n      tag_408\n      tag_185\n      jump\t// in\n    tag_408:\n      0x20\n      add\n      add\n        /* \"@openzeppelin/contracts/utils/Strings.sol\":1809:1824   */\n      swap1\n      not(sub(shl(0xf8, 0x01), 0x01))\n      and\n      swap1\n      dup2\n      0x00\n      byte\n      swap1\n      mstore8\n      pop\n      shl(0xfb, 0x0f)\n        /* \"@openzeppelin/contracts/utils/Strings.sol\":1834:1840   */\n      dup2\n        /* \"@openzeppelin/contracts/utils/Strings.sol\":1841:1842   */\n      0x01\n        /* \"@openzeppelin/contracts/utils/Strings.sol\":1834:1843   */\n      dup2\n      mload\n      dup2\n      lt\n      tag_410\n      jumpi\n      tag_410\n      tag_185\n      jump\t// in\n    tag_410:\n      0x20\n      add\n      add\n        /* \"@openzeppelin/contracts/utils/Strings.sol\":1834:1849   */\n      swap1\n      not(sub(shl(0xf8, 0x01), 0x01))\n      and\n      swap1\n      dup2\n      0x00\n      byte\n      swap1\n      mstore8\n      pop\n        /* \"@openzeppelin/contracts/utils/Strings.sol\":1864:1873   */\n      0x00\n        /* \"@openzeppelin/contracts/utils/Strings.sol\":1876:1886   */\n      tag_414\n        /* \"@openzeppelin/contracts/utils/Strings.sol\":1880:1886   */\n      dup5\n        /* \"@openzeppelin/contracts/utils/Strings.sol\":1876:1877   */\n      0x02\n        /* \"@openzeppelin/contracts/utils/Strings.sol\":1876:1886   */\n      tag_237\n      jump\t// in\n    tag_414:\n        /* \"@openzeppelin/contracts/utils/Strings.sol\":1876:1890   */\n      tag_415\n      swap1\n        /* \"@openzeppelin/contracts/utils/Strings.sol\":1889:1890   */\n      0x01\n        /* \"@openzeppelin/contracts/utils/Strings.sol\":1876:1890   */\n      tag_261\n      jump\t// in\n    tag_415:\n        /* \"@openzeppelin/contracts/utils/Strings.sol\":1864:1890   */\n      swap1\n      pop\n        /* \"@openzeppelin/contracts/utils/Strings.sol\":1859:1991   */\n    tag_411:\n        /* \"@openzeppelin/contracts/utils/Strings.sol\":1896:1897   */\n      0x01\n        /* \"@openzeppelin/contracts/utils/Strings.sol\":1892:1893   */\n      dup2\n        /* \"@openzeppelin/contracts/utils/Strings.sol\":1892:1897   */\n      gt\n        /* \"@openzeppelin/contracts/utils/Strings.sol\":1859:1991   */\n      iszero\n      tag_412\n      jumpi\n        /* \"@openzeppelin/contracts/utils/Strings.sol\":1930:1942   */\n      0x3031323334353637383961626364656600000000000000000000000000000000\n        /* \"@openzeppelin/contracts/utils/Strings.sol\":1943:1948   */\n      dup6\n        /* \"@openzeppelin/contracts/utils/Strings.sol\":1951:1954   */\n      0x0f\n        /* \"@openzeppelin/contracts/utils/Strings.sol\":1943:1954   */\n      and\n        /* \"@openzeppelin/contracts/utils/Strings.sol\":1930:1955   */\n      0x10\n      dup2\n      lt\n      tag_417\n      jumpi\n      tag_417\n      tag_185\n      jump\t// in\n    tag_417:\n      byte\n      0xf8\n      shl\n        /* \"@openzeppelin/contracts/utils/Strings.sol\":1918:1924   */\n      dup3\n        /* \"@openzeppelin/contracts/utils/Strings.sol\":1925:1926   */\n      dup3\n        /* \"@openzeppelin/contracts/utils/Strings.sol\":1918:1927   */\n      dup2\n      mload\n      dup2\n      lt\n      tag_419\n      jumpi\n      tag_419\n      tag_185\n      jump\t// in\n    tag_419:\n      0x20\n      add\n      add\n        /* \"@openzeppelin/contracts/utils/Strings.sol\":1918:1955   */\n      swap1\n      not(sub(shl(0xf8, 0x01), 0x01))\n      and\n      swap1\n      dup2\n      0x00\n      byte\n      swap1\n      mstore8\n      pop\n        /* \"@openzeppelin/contracts/utils/Strings.sol\":1979:1980   */\n      0x04\n        /* \"@openzeppelin/contracts/utils/Strings.sol\":1969:1980   */\n      swap5\n      swap1\n      swap5\n      shr\n      swap4\n        /* \"@openzeppelin/contracts/utils/Strings.sol\":1899:1902   */\n      tag_420\n      dup2\n      tag_421\n      jump\t// in\n    tag_420:\n      swap1\n      pop\n        /* \"@openzeppelin/contracts/utils/Strings.sol\":1859:1991   */\n      jump(tag_411)\n    tag_412:\n      pop\n        /* \"@openzeppelin/contracts/utils/Strings.sol\":2008:2018   */\n      dup4\n      iszero\n        /* \"@openzeppelin/contracts/utils/Strings.sol\":2000:2055   */\n      tag_296\n      jumpi\n      mload(0x40)\n      shl(0xe5, 0x461bcd)\n      dup2\n      mstore\n        /* \"#utility.yul\":16412:16414   */\n      0x20\n        /* \"@openzeppelin/contracts/utils/Strings.sol\":2000:2055   */\n      0x04\n      dup3\n      add\n        /* \"#utility.yul\":16394:16415   */\n      dup2\n      swap1\n      mstore\n        /* \"#utility.yul\":16431:16449   */\n      0x24\n      dup3\n      add\n        /* \"#utility.yul\":16424:16454   */\n      mstore\n        /* \"#utility.yul\":16490:16524   */\n      0x537472696e67733a20686578206c656e67746820696e73756666696369656e74\n        /* \"#utility.yul\":16470:16488   */\n      0x44\n      dup3\n      add\n        /* \"#utility.yul\":16463:16525   */\n      mstore\n        /* \"#utility.yul\":16542:16560   */\n      0x64\n      add\n        /* \"@openzeppelin/contracts/utils/Strings.sol\":2000:2055   */\n      tag_191\n        /* \"#utility.yul\":16210:16566   */\n      jump\n        /* \"@openzeppelin/contracts/token/ERC721/ERC721.sol\":8237:8546   */\n    tag_353:\n        /* \"@openzeppelin/contracts/token/ERC721/ERC721.sol\":8361:8379   */\n      tag_426\n        /* \"@openzeppelin/contracts/token/ERC721/ERC721.sol\":8367:8369   */\n      dup4\n        /* \"@openzeppelin/contracts/token/ERC721/ERC721.sol\":8371:8378   */\n      dup4\n        /* \"@openzeppelin/contracts/token/ERC721/ERC721.sol\":8361:8366   */\n      tag_427\n        /* \"@openzeppelin/contracts/token/ERC721/ERC721.sol\":8361:8379   */\n      jump\t// in\n    tag_426:\n        /* \"@openzeppelin/contracts/token/ERC721/ERC721.sol\":8410:8463   */\n      tag_428\n        /* \"@openzeppelin/contracts/token/ERC721/ERC721.sol\":8441:8442   */\n      0x00\n        /* \"@openzeppelin/contracts/token/ERC721/ERC721.sol\":8445:8447   */\n      dup5\n        /* \"@openzeppelin/contracts/token/ERC721/ERC721.sol\":8449:8456   */\n      dup5\n        /* \"@openzeppelin/contracts/token/ERC721/ERC721.sol\":8458:8462   */\n      dup5\n        /* \"@openzeppelin/contracts/token/ERC721/ERC721.sol\":8410:8432   */\n      tag_369\n        /* \"@openzeppelin/contracts/token/ERC721/ERC721.sol\":8410:8463   */\n      jump\t// in\n    tag_428:\n        /* \"@openzeppelin/contracts/token/ERC721/ERC721.sol\":8389:8539   */\n      tag_201\n      jumpi\n      mload(0x40)\n      shl(0xe5, 0x461bcd)\n      dup2\n      mstore\n        /* \"#utility.yul\":15129:15131   */\n      0x20\n        /* \"@openzeppelin/contracts/token/ERC721/ERC721.sol\":8389:8539   */\n      0x04\n      dup3\n      add\n        /* \"#utility.yul\":15111:15132   */\n      mstore\n        /* \"#utility.yul\":15168:15170   */\n      0x32\n        /* \"#utility.yul\":15148:15166   */\n      0x24\n      dup3\n      add\n        /* \"#utility.yul\":15141:15171   */\n      mstore\n        /* \"#utility.yul\":15207:15241   */\n      0x4552433732313a207472616e7366657220746f206e6f6e204552433732315265\n        /* \"#utility.yul\":15187:15205   */\n      0x44\n      dup3\n      add\n        /* \"#utility.yul\":15180:15242   */\n      mstore\n      shl(0x71, 0x31b2b4bb32b91034b6b83632b6b2b73a32b9)\n        /* \"#utility.yul\":15258:15276   */\n      0x64\n      dup3\n      add\n        /* \"#utility.yul\":15251:15299   */\n      mstore\n        /* \"#utility.yul\":15316:15335   */\n      0x84\n      add\n        /* \"@openzeppelin/contracts/token/ERC721/ERC721.sol\":8389:8539   */\n      tag_191\n        /* \"#utility.yul\":14927:15341   */\n      jump\n        /* \"@openzeppelin/contracts/token/ERC721/ERC721.sol\":12342:13173   */\n    tag_369:\n        /* \"@openzeppelin/contracts/token/ERC721/ERC721.sol\":12491:12495   */\n      0x00\n      sub(shl(0xa0, 0x01), 0x01)\n        /* \"@openzeppelin/contracts/token/ERC721/ERC721.sol\":12511:12524   */\n      dup5\n      and\n        /* \"@openzeppelin/contracts/utils/Address.sol\":1465:1484   */\n      extcodesize\n        /* \"@openzeppelin/contracts/utils/Address.sol\":1465:1488   */\n      iszero\n        /* \"@openzeppelin/contracts/token/ERC721/ERC721.sol\":12507:13167   */\n      tag_434\n      jumpi\n        /* \"@openzeppelin/contracts/token/ERC721/ERC721.sol\":12546:12617   */\n      mload(0x40)\n      shl(0xe1, 0x0a85bd01)\n      dup2\n      mstore\n      sub(shl(0xa0, 0x01), 0x01)\n        /* \"@openzeppelin/contracts/token/ERC721/ERC721.sol\":12546:12582   */\n      dup6\n      and\n      swap1\n      0x150b7a02\n      swap1\n        /* \"@openzeppelin/contracts/token/ERC721/ERC721.sol\":12546:12617   */\n      tag_436\n      swap1\n        /* \"@openzeppelin/contracts/utils/Context.sol\":719:729   */\n      caller\n      swap1\n        /* \"@openzeppelin/contracts/token/ERC721/ERC721.sol\":12597:12601   */\n      dup10\n      swap1\n        /* \"@openzeppelin/contracts/token/ERC721/ERC721.sol\":12603:12610   */\n      dup9\n      swap1\n        /* \"@openzeppelin/contracts/token/ERC721/ERC721.sol\":12612:12616   */\n      dup9\n      swap1\n        /* \"@openzeppelin/contracts/token/ERC721/ERC721.sol\":12546:12617   */\n      0x04\n      add\n      tag_437\n      jump\t// in\n    tag_436:\n      0x20\n      mload(0x40)\n      dup1\n      dup4\n      sub\n      dup2\n      0x00\n      dup8\n      gas\n      call\n      swap3\n      pop\n      pop\n      pop\n      dup1\n      iszero\n      tag_438\n      jumpi\n      pop\n      0x40\n      dup1\n      mload\n      0x1f\n      returndatasize\n      swap1\n      dup2\n      add\n      not(0x1f)\n      and\n      dup3\n      add\n      swap1\n      swap3\n      mstore\n      tag_439\n      swap2\n      dup2\n      add\n      swap1\n      tag_440\n      jump\t// in\n    tag_439:\n      0x01\n    tag_438:\n        /* \"@openzeppelin/contracts/token/ERC721/ERC721.sol\":12542:13115   */\n      tag_441\n      jumpi\n      returndatasize\n      dup1\n      dup1\n      iszero\n      tag_446\n      jumpi\n      mload(0x40)\n      swap2\n      pop\n      and(add(returndatasize, 0x3f), not(0x1f))\n      dup3\n      add\n      0x40\n      mstore\n      returndatasize\n      dup3\n      mstore\n      returndatasize\n      0x00\n      0x20\n      dup5\n      add\n      returndatacopy\n      jump(tag_445)\n    tag_446:\n      0x60\n      swap2\n      pop\n    tag_445:\n      pop\n        /* \"@openzeppelin/contracts/token/ERC721/ERC721.sol\":12784:12790   */\n      dup1\n        /* \"@openzeppelin/contracts/token/ERC721/ERC721.sol\":12784:12797   */\n      mload\n        /* \"@openzeppelin/contracts/token/ERC721/ERC721.sol\":12801:12802   */\n      0x00\n        /* \"@openzeppelin/contracts/token/ERC721/ERC721.sol\":12784:12802   */\n      sub\n        /* \"@openzeppelin/contracts/token/ERC721/ERC721.sol\":12780:13101   */\n      tag_447\n      jumpi\n        /* \"@openzeppelin/contracts/token/ERC721/ERC721.sol\":12826:12886   */\n      mload(0x40)\n      shl(0xe5, 0x461bcd)\n      dup2\n      mstore\n        /* \"#utility.yul\":15129:15131   */\n      0x20\n        /* \"@openzeppelin/contracts/token/ERC721/ERC721.sol\":12826:12886   */\n      0x04\n      dup3\n      add\n        /* \"#utility.yul\":15111:15132   */\n      mstore\n        /* \"#utility.yul\":15168:15170   */\n      0x32\n        /* \"#utility.yul\":15148:15166   */\n      0x24\n      dup3\n      add\n        /* \"#utility.yul\":15141:15171   */\n      mstore\n        /* \"#utility.yul\":15207:15241   */\n      0x4552433732313a207472616e7366657220746f206e6f6e204552433732315265\n        /* \"#utility.yul\":15187:15205   */\n      0x44\n      dup3\n      add\n        /* \"#utility.yul\":15180:15242   */\n      mstore\n      shl(0x71, 0x31b2b4bb32b91034b6b83632b6b2b73a32b9)\n        /* \"#utility.yul\":15258:15276   */\n      0x64\n      dup3\n      add\n        /* \"#utility.yul\":15251:15299   */\n      mstore\n        /* \"#utility.yul\":15316:15335   */\n      0x84\n      add\n        /* \"@openzeppelin/contracts/token/ERC721/ERC721.sol\":12826:12886   */\n      tag_191\n        /* \"#utility.yul\":14927:15341   */\n      jump\n        /* \"@openzeppelin/contracts/token/ERC721/ERC721.sol\":12780:13101   */\n    tag_447:\n        /* \"@openzeppelin/contracts/token/ERC721/ERC721.sol\":13053:13059   */\n      dup1\n        /* \"@openzeppelin/contracts/token/ERC721/ERC721.sol\":13047:13060   */\n      mload\n        /* \"@openzeppelin/contracts/token/ERC721/ERC721.sol\":13038:13044   */\n      dup2\n        /* \"@openzeppelin/contracts/token/ERC721/ERC721.sol\":13034:13036   */\n      0x20\n        /* \"@openzeppelin/contracts/token/ERC721/ERC721.sol\":13030:13045   */\n      add\n        /* \"@openzeppelin/contracts/token/ERC721/ERC721.sol\":13023:13061   */\n      revert\n        /* \"@openzeppelin/contracts/token/ERC721/ERC721.sol\":12542:13115   */\n    tag_441:\n      not(sub(shl(0xe0, 0x01), 0x01))\n        /* \"@openzeppelin/contracts/token/ERC721/ERC721.sol\":12667:12718   */\n      and\n      shl(0xe1, 0x0a85bd01)\n      eq\n      swap1\n      pop\n        /* \"@openzeppelin/contracts/token/ERC721/ERC721.sol\":12660:12718   */\n      jump(tag_328)\n        /* \"@openzeppelin/contracts/token/ERC721/ERC721.sol\":12507:13167   */\n    tag_434:\n      pop\n        /* \"@openzeppelin/contracts/token/ERC721/ERC721.sol\":13152:13156   */\n      0x01\n        /* \"@openzeppelin/contracts/token/ERC721/ERC721.sol\":12342:13173   */\n      swap5\n      swap4\n      pop\n      pop\n      pop\n      pop\n      jump\t// out\n        /* \"@openzeppelin/contracts/token/ERC721/ERC721.sol\":8868:9295   */\n    tag_427:\n      sub(shl(0xa0, 0x01), 0x01)\n        /* \"@openzeppelin/contracts/token/ERC721/ERC721.sol\":8947:8963   */\n      dup3\n      and\n        /* \"@openzeppelin/contracts/token/ERC721/ERC721.sol\":8939:9000   */\n      tag_454\n      jumpi\n      mload(0x40)\n      shl(0xe5, 0x461bcd)\n      dup2\n      mstore\n        /* \"#utility.yul\":17544:17546   */\n      0x20\n        /* \"@openzeppelin/contracts/token/ERC721/ERC721.sol\":8939:9000   */\n      0x04\n      dup3\n      add\n        /* \"#utility.yul\":17526:17547   */\n      dup2\n      swap1\n      mstore\n        /* \"#utility.yul\":17563:17581   */\n      0x24\n      dup3\n      add\n        /* \"#utility.yul\":17556:17586   */\n      mstore\n        /* \"#utility.yul\":17622:17656   */\n      0x4552433732313a206d696e7420746f20746865207a65726f2061646472657373\n        /* \"#utility.yul\":17602:17620   */\n      0x44\n      dup3\n      add\n        /* \"#utility.yul\":17595:17657   */\n      mstore\n        /* \"#utility.yul\":17674:17692   */\n      0x64\n      add\n        /* \"@openzeppelin/contracts/token/ERC721/ERC721.sol\":8939:9000   */\n      tag_191\n        /* \"#utility.yul\":17342:17698   */\n      jump\n        /* \"@openzeppelin/contracts/token/ERC721/ERC721.sol\":8939:9000   */\n    tag_454:\n        /* \"@openzeppelin/contracts/token/ERC721/ERC721.sol\":7099:7103   */\n      0x00\n        /* \"@openzeppelin/contracts/token/ERC721/ERC721.sol\":7122:7138   */\n      dup2\n      dup2\n      mstore\n        /* \"@openzeppelin/contracts/token/ERC721/ERC721.sol\":7122:7129   */\n      0x02\n        /* \"@openzeppelin/contracts/token/ERC721/ERC721.sol\":7122:7138   */\n      0x20\n      mstore\n      0x40\n      swap1\n      keccak256\n      sload\n      sub(shl(0xa0, 0x01), 0x01)\n      and\n        /* \"@openzeppelin/contracts/token/ERC721/ERC721.sol\":7122:7152   */\n      iszero\n        /* \"@openzeppelin/contracts/token/ERC721/ERC721.sol\":9010:9068   */\n      tag_458\n      jumpi\n      mload(0x40)\n      shl(0xe5, 0x461bcd)\n      dup2\n      mstore\n        /* \"#utility.yul\":17905:17907   */\n      0x20\n        /* \"@openzeppelin/contracts/token/ERC721/ERC721.sol\":9010:9068   */\n      0x04\n      dup3\n      add\n        /* \"#utility.yul\":17887:17908   */\n      mstore\n        /* \"#utility.yul\":17944:17946   */\n      0x1c\n        /* \"#utility.yul\":17924:17942   */\n      0x24\n      dup3\n      add\n        /* \"#utility.yul\":17917:17947   */\n      mstore\n        /* \"#utility.yul\":17983:18013   */\n      0x4552433732313a20746f6b656e20616c7265616479206d696e74656400000000\n        /* \"#utility.yul\":17963:17981   */\n      0x44\n      dup3\n      add\n        /* \"#utility.yul\":17956:18014   */\n      mstore\n        /* \"#utility.yul\":18031:18049   */\n      0x64\n      add\n        /* \"@openzeppelin/contracts/token/ERC721/ERC721.sol\":9010:9068   */\n      tag_191\n        /* \"#utility.yul\":17703:18055   */\n      jump\n        /* \"@openzeppelin/contracts/token/ERC721/ERC721.sol\":9010:9068   */\n    tag_458:\n        /* \"@openzeppelin/contracts/token/ERC721/ERC721.sol\":9079:9124   */\n      tag_461\n        /* \"@openzeppelin/contracts/token/ERC721/ERC721.sol\":9108:9109   */\n      0x00\n        /* \"@openzeppelin/contracts/token/ERC721/ERC721.sol\":9112:9114   */\n      dup4\n        /* \"@openzeppelin/contracts/token/ERC721/ERC721.sol\":9116:9123   */\n      dup4\n        /* \"@openzeppelin/contracts/token/ERC721/ERC721.sol\":9079:9099   */\n      tag_339\n        /* \"@openzeppelin/contracts/token/ERC721/ERC721.sol\":9079:9124   */\n      jump\t// in\n    tag_461:\n      sub(shl(0xa0, 0x01), 0x01)\n        /* \"@openzeppelin/contracts/token/ERC721/ERC721.sol\":9135:9148   */\n      dup3\n      and\n      0x00\n      swap1\n      dup2\n      mstore\n        /* \"@openzeppelin/contracts/token/ERC721/ERC721.sol\":9135:9144   */\n      0x03\n        /* \"@openzeppelin/contracts/token/ERC721/ERC721.sol\":9135:9148   */\n      0x20\n      mstore\n      0x40\n      dup2\n      keccak256\n        /* \"@openzeppelin/contracts/token/ERC721/ERC721.sol\":9135:9153   */\n      dup1\n      sload\n        /* \"@openzeppelin/contracts/token/ERC721/ERC721.sol\":9152:9153   */\n      0x01\n      swap3\n        /* \"@openzeppelin/contracts/token/ERC721/ERC721.sol\":9135:9148   */\n      swap1\n        /* \"@openzeppelin/contracts/token/ERC721/ERC721.sol\":9135:9153   */\n      tag_462\n      swap1\n        /* \"@openzeppelin/contracts/token/ERC721/ERC721.sol\":9152:9153   */\n      dup5\n      swap1\n        /* \"@openzeppelin/contracts/token/ERC721/ERC721.sol\":9135:9153   */\n      tag_261\n      jump\t// in\n    tag_462:\n      swap1\n      swap2\n      sstore\n      pop\n      pop\n        /* \"@openzeppelin/contracts/token/ERC721/ERC721.sol\":9163:9179   */\n      0x00\n      dup2\n      dup2\n      mstore\n        /* \"@openzeppelin/contracts/token/ERC721/ERC721.sol\":9163:9170   */\n      0x02\n        /* \"@openzeppelin/contracts/token/ERC721/ERC721.sol\":9163:9179   */\n      0x20\n      mstore\n      0x40\n      dup1\n      dup3\n      keccak256\n        /* \"@openzeppelin/contracts/token/ERC721/ERC721.sol\":9163:9184   */\n      dup1\n      sload\n      not(sub(shl(0xa0, 0x01), 0x01))\n      and\n      sub(shl(0xa0, 0x01), 0x01)\n      dup7\n      and\n      swap1\n      dup2\n      or\n      swap1\n      swap2\n      sstore\n        /* \"@openzeppelin/contracts/token/ERC721/ERC721.sol\":9200:9233   */\n      swap1\n      mload\n        /* \"@openzeppelin/contracts/token/ERC721/ERC721.sol\":9163:9179   */\n      dup4\n      swap3\n      swap1\n        /* \"@openzeppelin/contracts/token/ERC721/ERC721.sol\":9200:9233   */\n      0xddf252ad1be2c89b69c2b068fc378daa952ba7f163c4a11628f55a4df523b3ef\n      swap1\n        /* \"@openzeppelin/contracts/token/ERC721/ERC721.sol\":9163:9179   */\n      dup3\n      swap1\n        /* \"@openzeppelin/contracts/token/ERC721/ERC721.sol\":9200:9233   */\n      log4\n        /* \"@openzeppelin/contracts/token/ERC721/ERC721.sol\":4169:4322   */\n      pop\n      pop\n      jump\t// out\n    tag_225:\n      dup3\n      dup1\n      sload\n      tag_465\n      swap1\n      tag_151\n      jump\t// in\n    tag_465:\n      swap1\n      0x00\n      mstore\n      keccak256(0x00, 0x20)\n      swap1\n      0x1f\n      add\n      0x20\n      swap1\n      div\n      dup2\n      add\n      swap3\n      dup3\n      tag_467\n      jumpi\n      0x00\n      dup6\n      sstore\n      jump(tag_470)\n    tag_467:\n      dup3\n      0x1f\n      lt\n      tag_468\n      jumpi\n      dup1\n      mload\n      not(0xff)\n      and\n      dup4\n      dup1\n      add\n      or\n      dup6\n      sstore\n      jump(tag_470)\n    tag_468:\n      dup3\n      dup1\n      add\n      0x01\n      add\n      dup6\n      sstore\n      dup3\n      iszero\n      tag_470\n      jumpi\n      swap2\n      dup3\n      add\n    tag_469:\n      dup3\n      dup2\n      gt\n      iszero\n      tag_470\n      jumpi\n      dup3\n      mload\n      dup3\n      sstore\n      swap2\n      0x20\n      add\n      swap2\n      swap1\n      0x01\n      add\n      swap1\n      jump(tag_469)\n    tag_470:\n      pop\n      tag_471\n      swap3\n      swap2\n      pop\n      tag_472\n      jump\t// in\n    tag_471:\n      pop\n      swap1\n      jump\t// out\n    tag_227:\n      dup3\n      dup1\n      sload\n      dup3\n      dup3\n      sstore\n      swap1\n      0x00\n      mstore\n      keccak256(0x00, 0x20)\n      swap1\n      dup2\n      add\n      swap3\n      dup3\n      iszero\n      tag_470\n      jumpi\n      swap2\n      0x20\n      mul\n      dup3\n      add\n    tag_474:\n      dup3\n      dup2\n      gt\n      iszero\n      tag_470\n      jumpi\n      dup3\n      mload\n      dup3\n      swap1\n      0xff\n      and\n      swap1\n      sstore\n      swap2\n      0x20\n      add\n      swap2\n      swap1\n      0x01\n      add\n      swap1\n      jump(tag_474)\n    tag_472:\n    tag_477:\n      dup1\n      dup3\n      gt\n      iszero\n      tag_471\n      jumpi\n      0x00\n      dup2\n      sstore\n      0x01\n      add\n      jump(tag_477)\n        /* \"#utility.yul\":14:194   */\n    tag_40:\n        /* \"#utility.yul\":73:79   */\n      0x00\n        /* \"#utility.yul\":126:128   */\n      0x20\n        /* \"#utility.yul\":114:123   */\n      dup3\n        /* \"#utility.yul\":105:112   */\n      dup5\n        /* \"#utility.yul\":101:124   */\n      sub\n        /* \"#utility.yul\":97:129   */\n      slt\n        /* \"#utility.yul\":94:146   */\n      iszero\n      tag_491\n      jumpi\n        /* \"#utility.yul\":142:143   */\n      0x00\n        /* \"#utility.yul\":139:140   */\n      dup1\n        /* \"#utility.yul\":132:144   */\n      revert\n        /* \"#utility.yul\":94:146   */\n    tag_491:\n      pop\n        /* \"#utility.yul\":165:188   */\n      calldataload\n      swap2\n        /* \"#utility.yul\":14:194   */\n      swap1\n      pop\n      jump\t// out\n        /* \"#utility.yul\":199:457   */\n    tag_479:\n        /* \"#utility.yul\":271:272   */\n      0x00\n        /* \"#utility.yul\":281:394   */\n    tag_493:\n        /* \"#utility.yul\":295:301   */\n      dup4\n        /* \"#utility.yul\":292:293   */\n      dup2\n        /* \"#utility.yul\":289:302   */\n      lt\n        /* \"#utility.yul\":281:394   */\n      iszero\n      tag_495\n      jumpi\n        /* \"#utility.yul\":371:382   */\n      dup2\n      dup2\n      add\n        /* \"#utility.yul\":365:383   */\n      mload\n        /* \"#utility.yul\":352:363   */\n      dup4\n      dup3\n      add\n        /* \"#utility.yul\":345:384   */\n      mstore\n        /* \"#utility.yul\":317:319   */\n      0x20\n        /* \"#utility.yul\":310:320   */\n      add\n        /* \"#utility.yul\":281:394   */\n      jump(tag_493)\n    tag_495:\n        /* \"#utility.yul\":412:418   */\n      dup4\n        /* \"#utility.yul\":409:410   */\n      dup2\n        /* \"#utility.yul\":406:419   */\n      gt\n        /* \"#utility.yul\":403:451   */\n      iszero\n      tag_286\n      jumpi\n      pop\n      pop\n        /* \"#utility.yul\":447:448   */\n      0x00\n        /* \"#utility.yul\":429:445   */\n      swap2\n      add\n        /* \"#utility.yul\":422:449   */\n      mstore\n        /* \"#utility.yul\":199:457   */\n      jump\t// out\n        /* \"#utility.yul\":462:720   */\n    tag_480:\n        /* \"#utility.yul\":504:507   */\n      0x00\n        /* \"#utility.yul\":542:547   */\n      dup2\n        /* \"#utility.yul\":536:548   */\n      mload\n        /* \"#utility.yul\":569:575   */\n      dup1\n        /* \"#utility.yul\":564:567   */\n      dup5\n        /* \"#utility.yul\":557:576   */\n      mstore\n        /* \"#utility.yul\":585:648   */\n      tag_498\n        /* \"#utility.yul\":641:647   */\n      dup2\n        /* \"#utility.yul\":634:638   */\n      0x20\n        /* \"#utility.yul\":629:632   */\n      dup7\n        /* \"#utility.yul\":625:639   */\n      add\n        /* \"#utility.yul\":618:622   */\n      0x20\n        /* \"#utility.yul\":611:616   */\n      dup7\n        /* \"#utility.yul\":607:623   */\n      add\n        /* \"#utility.yul\":585:648   */\n      tag_479\n      jump\t// in\n    tag_498:\n        /* \"#utility.yul\":702:704   */\n      0x1f\n        /* \"#utility.yul\":681:696   */\n      add\n      not(0x1f)\n        /* \"#utility.yul\":677:706   */\n      and\n        /* \"#utility.yul\":668:707   */\n      swap3\n      swap1\n      swap3\n      add\n        /* \"#utility.yul\":709:713   */\n      0x20\n        /* \"#utility.yul\":664:714   */\n      add\n      swap3\n        /* \"#utility.yul\":462:720   */\n      swap2\n      pop\n      pop\n      jump\t// out\n        /* \"#utility.yul\":725:945   */\n    tag_43:\n        /* \"#utility.yul\":874:876   */\n      0x20\n        /* \"#utility.yul\":863:872   */\n      dup2\n        /* \"#utility.yul\":856:877   */\n      mstore\n        /* \"#utility.yul\":837:841   */\n      0x00\n        /* \"#utility.yul\":894:939   */\n      tag_296\n        /* \"#utility.yul\":935:937   */\n      0x20\n        /* \"#utility.yul\":924:933   */\n      dup4\n        /* \"#utility.yul\":920:938   */\n      add\n        /* \"#utility.yul\":912:918   */\n      dup5\n        /* \"#utility.yul\":894:939   */\n      tag_480\n      jump\t// in\n        /* \"#utility.yul\":950:1081   */\n    tag_481:\n      not(sub(shl(0xe0, 0x01), 0x01))\n        /* \"#utility.yul\":1024:1056   */\n      dup2\n      and\n        /* \"#utility.yul\":1014:1057   */\n      dup2\n      eq\n        /* \"#utility.yul\":1004:1075   */\n      tag_314\n      jumpi\n        /* \"#utility.yul\":1071:1072   */\n      0x00\n        /* \"#utility.yul\":1068:1069   */\n      dup1\n        /* \"#utility.yul\":1061:1073   */\n      revert\n        /* \"#utility.yul\":1086:1331   */\n    tag_46:\n        /* \"#utility.yul\":1144:1150   */\n      0x00\n        /* \"#utility.yul\":1197:1199   */\n      0x20\n        /* \"#utility.yul\":1185:1194   */\n      dup3\n        /* \"#utility.yul\":1176:1183   */\n      dup5\n        /* \"#utility.yul\":1172:1195   */\n      sub\n        /* \"#utility.yul\":1168:1200   */\n      slt\n        /* \"#utility.yul\":1165:1217   */\n      iszero\n      tag_504\n      jumpi\n        /* \"#utility.yul\":1213:1214   */\n      0x00\n        /* \"#utility.yul\":1210:1211   */\n      dup1\n        /* \"#utility.yul\":1203:1215   */\n      revert\n        /* \"#utility.yul\":1165:1217   */\n    tag_504:\n        /* \"#utility.yul\":1252:1261   */\n      dup2\n        /* \"#utility.yul\":1239:1262   */\n      calldataload\n        /* \"#utility.yul\":1271:1301   */\n      tag_296\n        /* \"#utility.yul\":1295:1300   */\n      dup2\n        /* \"#utility.yul\":1271:1301   */\n      tag_481\n      jump\t// in\n        /* \"#utility.yul\":1759:1955   */\n    tag_482:\n        /* \"#utility.yul\":1827:1847   */\n      dup1\n      calldataload\n      sub(shl(0xa0, 0x01), 0x01)\n        /* \"#utility.yul\":1876:1930   */\n      dup2\n      and\n        /* \"#utility.yul\":1866:1931   */\n      dup2\n      eq\n        /* \"#utility.yul\":1856:1949   */\n      tag_509\n      jumpi\n        /* \"#utility.yul\":1945:1946   */\n      0x00\n        /* \"#utility.yul\":1942:1943   */\n      dup1\n        /* \"#utility.yul\":1935:1947   */\n      revert\n        /* \"#utility.yul\":1856:1949   */\n    tag_509:\n        /* \"#utility.yul\":1759:1955   */\n      swap2\n      swap1\n      pop\n      jump\t// out\n        /* \"#utility.yul\":1960:2146   */\n    tag_60:\n        /* \"#utility.yul\":2019:2025   */\n      0x00\n        /* \"#utility.yul\":2072:2074   */\n      0x20\n        /* \"#utility.yul\":2060:2069   */\n      dup3\n        /* \"#utility.yul\":2051:2058   */\n      dup5\n        /* \"#utility.yul\":2047:2070   */\n      sub\n        /* \"#utility.yul\":2043:2075   */\n      slt\n        /* \"#utility.yul\":2040:2092   */\n      iszero\n      tag_511\n      jumpi\n        /* \"#utility.yul\":2088:2089   */\n      0x00\n        /* \"#utility.yul\":2085:2086   */\n      dup1\n        /* \"#utility.yul\":2078:2090   */\n      revert\n        /* \"#utility.yul\":2040:2092   */\n    tag_511:\n        /* \"#utility.yul\":2111:2140   */\n      tag_296\n        /* \"#utility.yul\":2130:2139   */\n      dup3\n        /* \"#utility.yul\":2111:2140   */\n      tag_482\n      jump\t// in\n        /* \"#utility.yul\":2151:2783   */\n    tag_63:\n        /* \"#utility.yul\":2322:2324   */\n      0x20\n        /* \"#utility.yul\":2374:2395   */\n      dup1\n      dup3\n      mstore\n        /* \"#utility.yul\":2444:2457   */\n      dup3\n      mload\n        /* \"#utility.yul\":2347:2365   */\n      dup3\n      dup3\n      add\n        /* \"#utility.yul\":2466:2488   */\n      dup2\n      swap1\n      mstore\n        /* \"#utility.yul\":2293:2297   */\n      0x00\n      swap2\n        /* \"#utility.yul\":2322:2324   */\n      swap1\n        /* \"#utility.yul\":2545:2560   */\n      dup5\n      dup3\n      add\n      swap1\n        /* \"#utility.yul\":2519:2521   */\n      0x40\n        /* \"#utility.yul\":2504:2522   */\n      dup6\n      add\n      swap1\n        /* \"#utility.yul\":2293:2297   */\n      dup5\n        /* \"#utility.yul\":2588:2757   */\n    tag_514:\n        /* \"#utility.yul\":2602:2608   */\n      dup2\n        /* \"#utility.yul\":2599:2600   */\n      dup2\n        /* \"#utility.yul\":2596:2609   */\n      lt\n        /* \"#utility.yul\":2588:2757   */\n      iszero\n      tag_516\n      jumpi\n        /* \"#utility.yul\":2663:2676   */\n      dup4\n      mload\n        /* \"#utility.yul\":2651:2677   */\n      dup4\n      mstore\n        /* \"#utility.yul\":2732:2747   */\n      swap3\n      dup5\n      add\n      swap3\n        /* \"#utility.yul\":2697:2709   */\n      swap2\n      dup5\n      add\n      swap2\n        /* \"#utility.yul\":2624:2625   */\n      0x01\n        /* \"#utility.yul\":2617:2626   */\n      add\n        /* \"#utility.yul\":2588:2757   */\n      jump(tag_514)\n    tag_516:\n      pop\n        /* \"#utility.yul\":2774:2777   */\n      swap1\n      swap7\n        /* \"#utility.yul\":2151:2783   */\n      swap6\n      pop\n      pop\n      pop\n      pop\n      pop\n      pop\n      jump\t// out\n        /* \"#utility.yul\":2788:3042   */\n    tag_66:\n        /* \"#utility.yul\":2856:2862   */\n      0x00\n        /* \"#utility.yul\":2864:2870   */\n      dup1\n        /* \"#utility.yul\":2917:2919   */\n      0x40\n        /* \"#utility.yul\":2905:2914   */\n      dup4\n        /* \"#utility.yul\":2896:2903   */\n      dup6\n        /* \"#utility.yul\":2892:2915   */\n      sub\n        /* \"#utility.yul\":2888:2920   */\n      slt\n        /* \"#utility.yul\":2885:2937   */\n      iszero\n      tag_518\n      jumpi\n        /* \"#utility.yul\":2933:2934   */\n      0x00\n        /* \"#utility.yul\":2930:2931   */\n      dup1\n        /* \"#utility.yul\":2923:2935   */\n      revert\n        /* \"#utility.yul\":2885:2937   */\n    tag_518:\n        /* \"#utility.yul\":2956:2985   */\n      tag_519\n        /* \"#utility.yul\":2975:2984   */\n      dup4\n        /* \"#utility.yul\":2956:2985   */\n      tag_482\n      jump\t// in\n    tag_519:\n        /* \"#utility.yul\":2946:2985   */\n      swap5\n        /* \"#utility.yul\":3032:3034   */\n      0x20\n        /* \"#utility.yul\":3017:3035   */\n      swap4\n      swap1\n      swap4\n      add\n        /* \"#utility.yul\":3004:3036   */\n      calldataload\n      swap4\n      pop\n      pop\n      pop\n        /* \"#utility.yul\":2788:3042   */\n      jump\t// out\n        /* \"#utility.yul\":3293:3621   */\n    tag_74:\n        /* \"#utility.yul\":3370:3376   */\n      0x00\n        /* \"#utility.yul\":3378:3384   */\n      dup1\n        /* \"#utility.yul\":3386:3392   */\n      0x00\n        /* \"#utility.yul\":3439:3441   */\n      0x60\n        /* \"#utility.yul\":3427:3436   */\n      dup5\n        /* \"#utility.yul\":3418:3425   */\n      dup7\n        /* \"#utility.yul\":3414:3437   */\n      sub\n        /* \"#utility.yul\":3410:3442   */\n      slt\n        /* \"#utility.yul\":3407:3459   */\n      iszero\n      tag_522\n      jumpi\n        /* \"#utility.yul\":3455:3456   */\n      0x00\n        /* \"#utility.yul\":3452:3453   */\n      dup1\n        /* \"#utility.yul\":3445:3457   */\n      revert\n        /* \"#utility.yul\":3407:3459   */\n    tag_522:\n        /* \"#utility.yul\":3478:3507   */\n      tag_523\n        /* \"#utility.yul\":3497:3506   */\n      dup5\n        /* \"#utility.yul\":3478:3507   */\n      tag_482\n      jump\t// in\n    tag_523:\n        /* \"#utility.yul\":3468:3507   */\n      swap3\n      pop\n        /* \"#utility.yul\":3526:3564   */\n      tag_524\n        /* \"#utility.yul\":3560:3562   */\n      0x20\n        /* \"#utility.yul\":3549:3558   */\n      dup6\n        /* \"#utility.yul\":3545:3563   */\n      add\n        /* \"#utility.yul\":3526:3564   */\n      tag_482\n      jump\t// in\n    tag_524:\n        /* \"#utility.yul\":3516:3564   */\n      swap2\n      pop\n        /* \"#utility.yul\":3611:3613   */\n      0x40\n        /* \"#utility.yul\":3600:3609   */\n      dup5\n        /* \"#utility.yul\":3596:3614   */\n      add\n        /* \"#utility.yul\":3583:3615   */\n      calldataload\n        /* \"#utility.yul\":3573:3615   */\n      swap1\n      pop\n        /* \"#utility.yul\":3293:3621   */\n      swap3\n      pop\n      swap3\n      pop\n      swap3\n      jump\t// out\n        /* \"#utility.yul\":3626:3874   */\n    tag_78:\n        /* \"#utility.yul\":3694:3700   */\n      0x00\n        /* \"#utility.yul\":3702:3708   */\n      dup1\n        /* \"#utility.yul\":3755:3757   */\n      0x40\n        /* \"#utility.yul\":3743:3752   */\n      dup4\n        /* \"#utility.yul\":3734:3741   */\n      dup6\n        /* \"#utility.yul\":3730:3753   */\n      sub\n        /* \"#utility.yul\":3726:3758   */\n      slt\n        /* \"#utility.yul\":3723:3775   */\n      iszero\n      tag_526\n      jumpi\n        /* \"#utility.yul\":3771:3772   */\n      0x00\n        /* \"#utility.yul\":3768:3769   */\n      dup1\n        /* \"#utility.yul\":3761:3773   */\n      revert\n        /* \"#utility.yul\":3723:3775   */\n    tag_526:\n      pop\n      pop\n        /* \"#utility.yul\":3794:3817   */\n      dup1\n      calldataload\n      swap3\n        /* \"#utility.yul\":3864:3866   */\n      0x20\n        /* \"#utility.yul\":3849:3867   */\n      swap1\n      swap2\n      add\n        /* \"#utility.yul\":3836:3868   */\n      calldataload\n      swap2\n      pop\n        /* \"#utility.yul\":3626:3874   */\n      jump\t// out\n        /* \"#utility.yul\":4305:4652   */\n    tag_120:\n        /* \"#utility.yul\":4370:4376   */\n      0x00\n        /* \"#utility.yul\":4378:4384   */\n      dup1\n        /* \"#utility.yul\":4431:4433   */\n      0x40\n        /* \"#utility.yul\":4419:4428   */\n      dup4\n        /* \"#utility.yul\":4410:4417   */\n      dup6\n        /* \"#utility.yul\":4406:4429   */\n      sub\n        /* \"#utility.yul\":4402:4434   */\n      slt\n        /* \"#utility.yul\":4399:4451   */\n      iszero\n      tag_530\n      jumpi\n        /* \"#utility.yul\":4447:4448   */\n      0x00\n        /* \"#utility.yul\":4444:4445   */\n      dup1\n        /* \"#utility.yul\":4437:4449   */\n      revert\n        /* \"#utility.yul\":4399:4451   */\n    tag_530:\n        /* \"#utility.yul\":4470:4499   */\n      tag_531\n        /* \"#utility.yul\":4489:4498   */\n      dup4\n        /* \"#utility.yul\":4470:4499   */\n      tag_482\n      jump\t// in\n    tag_531:\n        /* \"#utility.yul\":4460:4499   */\n      swap2\n      pop\n        /* \"#utility.yul\":4549:4551   */\n      0x20\n        /* \"#utility.yul\":4538:4547   */\n      dup4\n        /* \"#utility.yul\":4534:4552   */\n      add\n        /* \"#utility.yul\":4521:4553   */\n      calldataload\n        /* \"#utility.yul\":4596:4601   */\n      dup1\n        /* \"#utility.yul\":4589:4602   */\n      iszero\n        /* \"#utility.yul\":4582:4603   */\n      iszero\n        /* \"#utility.yul\":4575:4580   */\n      dup2\n        /* \"#utility.yul\":4572:4604   */\n      eq\n        /* \"#utility.yul\":4562:4622   */\n      tag_532\n      jumpi\n        /* \"#utility.yul\":4618:4619   */\n      0x00\n        /* \"#utility.yul\":4615:4616   */\n      dup1\n        /* \"#utility.yul\":4608:4620   */\n      revert\n        /* \"#utility.yul\":4562:4622   */\n    tag_532:\n        /* \"#utility.yul\":4641:4646   */\n      dup1\n        /* \"#utility.yul\":4631:4646   */\n      swap2\n      pop\n      pop\n        /* \"#utility.yul\":4305:4652   */\n      swap3\n      pop\n      swap3\n      swap1\n      pop\n      jump\t// out\n        /* \"#utility.yul\":4657:4784   */\n    tag_173:\n        /* \"#utility.yul\":4718:4728   */\n      0x4e487b71\n        /* \"#utility.yul\":4713:4716   */\n      0xe0\n        /* \"#utility.yul\":4709:4729   */\n      shl\n        /* \"#utility.yul\":4706:4707   */\n      0x00\n        /* \"#utility.yul\":4699:4730   */\n      mstore\n        /* \"#utility.yul\":4749:4753   */\n      0x41\n        /* \"#utility.yul\":4746:4747   */\n      0x04\n        /* \"#utility.yul\":4739:4754   */\n      mstore\n        /* \"#utility.yul\":4773:4777   */\n      0x24\n        /* \"#utility.yul\":4770:4771   */\n      0x00\n        /* \"#utility.yul\":4763:4778   */\n      revert\n        /* \"#utility.yul\":4789:5064   */\n    tag_483:\n        /* \"#utility.yul\":4860:4862   */\n      0x40\n        /* \"#utility.yul\":4854:4863   */\n      mload\n        /* \"#utility.yul\":4925:4927   */\n      0x1f\n        /* \"#utility.yul\":4906:4919   */\n      dup3\n      add\n      not(0x1f)\n        /* \"#utility.yul\":4902:4929   */\n      and\n        /* \"#utility.yul\":4890:4930   */\n      dup2\n      add\n        /* \"#utility.yul\":4960:4978   */\n      0xffffffffffffffff\n        /* \"#utility.yul\":4945:4979   */\n      dup2\n      gt\n        /* \"#utility.yul\":4981:5003   */\n      dup3\n      dup3\n      lt\n        /* \"#utility.yul\":4942:5004   */\n      or\n        /* \"#utility.yul\":4939:5027   */\n      iszero\n      tag_536\n      jumpi\n        /* \"#utility.yul\":5007:5025   */\n      tag_536\n      tag_173\n      jump\t// in\n    tag_536:\n        /* \"#utility.yul\":5043:5045   */\n      0x40\n        /* \"#utility.yul\":5036:5058   */\n      mstore\n        /* \"#utility.yul\":4789:5064   */\n      swap2\n      swap1\n      pop\n      jump\t// out\n        /* \"#utility.yul\":5069:5255   */\n    tag_484:\n        /* \"#utility.yul\":5117:5121   */\n      0x00\n        /* \"#utility.yul\":5150:5168   */\n      0xffffffffffffffff\n        /* \"#utility.yul\":5142:5148   */\n      dup3\n        /* \"#utility.yul\":5139:5169   */\n      gt\n        /* \"#utility.yul\":5136:5192   */\n      iszero\n      tag_539\n      jumpi\n        /* \"#utility.yul\":5172:5190   */\n      tag_539\n      tag_173\n      jump\t// in\n    tag_539:\n      pop\n        /* \"#utility.yul\":5238:5240   */\n      0x1f\n        /* \"#utility.yul\":5217:5232   */\n      add\n      not(0x1f)\n        /* \"#utility.yul\":5213:5242   */\n      and\n        /* \"#utility.yul\":5244:5248   */\n      0x20\n        /* \"#utility.yul\":5209:5249   */\n      add\n      swap1\n        /* \"#utility.yul\":5069:5255   */\n      jump\t// out\n        /* \"#utility.yul\":5260:5596   */\n    tag_485:\n        /* \"#utility.yul\":5324:5329   */\n      0x00\n        /* \"#utility.yul\":5353:5405   */\n      tag_541\n        /* \"#utility.yul\":5369:5404   */\n      tag_542\n        /* \"#utility.yul\":5397:5403   */\n      dup5\n        /* \"#utility.yul\":5369:5404   */\n      tag_484\n      jump\t// in\n    tag_542:\n        /* \"#utility.yul\":5353:5405   */\n      tag_483\n      jump\t// in\n    tag_541:\n        /* \"#utility.yul\":5344:5405   */\n      swap1\n      pop\n        /* \"#utility.yul\":5428:5434   */\n      dup3\n        /* \"#utility.yul\":5421:5426   */\n      dup2\n        /* \"#utility.yul\":5414:5435   */\n      mstore\n        /* \"#utility.yul\":5468:5471   */\n      dup4\n        /* \"#utility.yul\":5459:5465   */\n      dup4\n        /* \"#utility.yul\":5454:5457   */\n      dup4\n        /* \"#utility.yul\":5450:5466   */\n      add\n        /* \"#utility.yul\":5447:5472   */\n      gt\n        /* \"#utility.yul\":5444:5489   */\n      iszero\n      tag_543\n      jumpi\n        /* \"#utility.yul\":5485:5486   */\n      0x00\n        /* \"#utility.yul\":5482:5483   */\n      dup1\n        /* \"#utility.yul\":5475:5487   */\n      revert\n        /* \"#utility.yul\":5444:5489   */\n    tag_543:\n        /* \"#utility.yul\":5534:5540   */\n      dup3\n        /* \"#utility.yul\":5529:5532   */\n      dup3\n        /* \"#utility.yul\":5522:5526   */\n      0x20\n        /* \"#utility.yul\":5515:5520   */\n      dup4\n        /* \"#utility.yul\":5511:5527   */\n      add\n        /* \"#utility.yul\":5498:5541   */\n      calldatacopy\n        /* \"#utility.yul\":5588:5589   */\n      0x00\n        /* \"#utility.yul\":5581:5585   */\n      0x20\n        /* \"#utility.yul\":5572:5578   */\n      dup5\n        /* \"#utility.yul\":5565:5570   */\n      dup4\n        /* \"#utility.yul\":5561:5579   */\n      add\n        /* \"#utility.yul\":5557:5586   */\n      add\n        /* \"#utility.yul\":5550:5590   */\n      mstore\n        /* \"#utility.yul\":5260:5596   */\n      swap4\n      swap3\n      pop\n      pop\n      pop\n      jump\t// out\n        /* \"#utility.yul\":5601:6267   */\n    tag_128:\n        /* \"#utility.yul\":5696:5702   */\n      0x00\n        /* \"#utility.yul\":5704:5710   */\n      dup1\n        /* \"#utility.yul\":5712:5718   */\n      0x00\n        /* \"#utility.yul\":5720:5726   */\n      dup1\n        /* \"#utility.yul\":5773:5776   */\n      0x80\n        /* \"#utility.yul\":5761:5770   */\n      dup6\n        /* \"#utility.yul\":5752:5759   */\n      dup8\n        /* \"#utility.yul\":5748:5771   */\n      sub\n        /* \"#utility.yul\":5744:5777   */\n      slt\n        /* \"#utility.yul\":5741:5794   */\n      iszero\n      tag_545\n      jumpi\n        /* \"#utility.yul\":5790:5791   */\n      0x00\n        /* \"#utility.yul\":5787:5788   */\n      dup1\n        /* \"#utility.yul\":5780:5792   */\n      revert\n        /* \"#utility.yul\":5741:5794   */\n    tag_545:\n        /* \"#utility.yul\":5813:5842   */\n      tag_546\n        /* \"#utility.yul\":5832:5841   */\n      dup6\n        /* \"#utility.yul\":5813:5842   */\n      tag_482\n      jump\t// in\n    tag_546:\n        /* \"#utility.yul\":5803:5842   */\n      swap4\n      pop\n        /* \"#utility.yul\":5861:5899   */\n      tag_547\n        /* \"#utility.yul\":5895:5897   */\n      0x20\n        /* \"#utility.yul\":5884:5893   */\n      dup7\n        /* \"#utility.yul\":5880:5898   */\n      add\n        /* \"#utility.yul\":5861:5899   */\n      tag_482\n      jump\t// in\n    tag_547:\n        /* \"#utility.yul\":5851:5899   */\n      swap3\n      pop\n        /* \"#utility.yul\":5946:5948   */\n      0x40\n        /* \"#utility.yul\":5935:5944   */\n      dup6\n        /* \"#utility.yul\":5931:5949   */\n      add\n        /* \"#utility.yul\":5918:5950   */\n      calldataload\n        /* \"#utility.yul\":5908:5950   */\n      swap2\n      pop\n        /* \"#utility.yul\":6001:6003   */\n      0x60\n        /* \"#utility.yul\":5990:5999   */\n      dup6\n        /* \"#utility.yul\":5986:6004   */\n      add\n        /* \"#utility.yul\":5973:6005   */\n      calldataload\n        /* \"#utility.yul\":6028:6046   */\n      0xffffffffffffffff\n        /* \"#utility.yul\":6020:6026   */\n      dup2\n        /* \"#utility.yul\":6017:6047   */\n      gt\n        /* \"#utility.yul\":6014:6064   */\n      iszero\n      tag_548\n      jumpi\n        /* \"#utility.yul\":6060:6061   */\n      0x00\n        /* \"#utility.yul\":6057:6058   */\n      dup1\n        /* \"#utility.yul\":6050:6062   */\n      revert\n        /* \"#utility.yul\":6014:6064   */\n    tag_548:\n        /* \"#utility.yul\":6083:6105   */\n      dup6\n      add\n        /* \"#utility.yul\":6136:6140   */\n      0x1f\n        /* \"#utility.yul\":6128:6141   */\n      dup2\n      add\n        /* \"#utility.yul\":6124:6151   */\n      dup8\n      sgt\n        /* \"#utility.yul\":6114:6169   */\n      tag_549\n      jumpi\n        /* \"#utility.yul\":6165:6166   */\n      0x00\n        /* \"#utility.yul\":6162:6163   */\n      dup1\n        /* \"#utility.yul\":6155:6167   */\n      revert\n        /* \"#utility.yul\":6114:6169   */\n    tag_549:\n        /* \"#utility.yul\":6188:6261   */\n      tag_550\n        /* \"#utility.yul\":6253:6260   */\n      dup8\n        /* \"#utility.yul\":6248:6250   */\n      dup3\n        /* \"#utility.yul\":6235:6251   */\n      calldataload\n        /* \"#utility.yul\":6230:6232   */\n      0x20\n        /* \"#utility.yul\":6226:6228   */\n      dup5\n        /* \"#utility.yul\":6222:6233   */\n      add\n        /* \"#utility.yul\":6188:6261   */\n      tag_485\n      jump\t// in\n    tag_550:\n        /* \"#utility.yul\":6178:6261   */\n      swap2\n      pop\n      pop\n        /* \"#utility.yul\":5601:6267   */\n      swap3\n      swap6\n      swap2\n      swap5\n      pop\n      swap3\n      pop\n      jump\t// out\n        /* \"#utility.yul\":6272:6790   */\n    tag_140:\n        /* \"#utility.yul\":6350:6356   */\n      0x00\n        /* \"#utility.yul\":6358:6364   */\n      dup1\n        /* \"#utility.yul\":6411:6413   */\n      0x40\n        /* \"#utility.yul\":6399:6408   */\n      dup4\n        /* \"#utility.yul\":6390:6397   */\n      dup6\n        /* \"#utility.yul\":6386:6409   */\n      sub\n        /* \"#utility.yul\":6382:6414   */\n      slt\n        /* \"#utility.yul\":6379:6431   */\n      iszero\n      tag_552\n      jumpi\n        /* \"#utility.yul\":6427:6428   */\n      0x00\n        /* \"#utility.yul\":6424:6425   */\n      dup1\n        /* \"#utility.yul\":6417:6429   */\n      revert\n        /* \"#utility.yul\":6379:6431   */\n    tag_552:\n        /* \"#utility.yul\":6463:6472   */\n      dup3\n        /* \"#utility.yul\":6450:6473   */\n      calldataload\n        /* \"#utility.yul\":6440:6473   */\n      swap2\n      pop\n        /* \"#utility.yul\":6524:6526   */\n      0x20\n        /* \"#utility.yul\":6513:6522   */\n      dup4\n        /* \"#utility.yul\":6509:6527   */\n      add\n        /* \"#utility.yul\":6496:6528   */\n      calldataload\n        /* \"#utility.yul\":6551:6569   */\n      0xffffffffffffffff\n        /* \"#utility.yul\":6543:6549   */\n      dup2\n        /* \"#utility.yul\":6540:6570   */\n      gt\n        /* \"#utility.yul\":6537:6587   */\n      iszero\n      tag_553\n      jumpi\n        /* \"#utility.yul\":6583:6584   */\n      0x00\n        /* \"#utility.yul\":6580:6581   */\n      dup1\n        /* \"#utility.yul\":6573:6585   */\n      revert\n        /* \"#utility.yul\":6537:6587   */\n    tag_553:\n        /* \"#utility.yul\":6606:6628   */\n      dup4\n      add\n        /* \"#utility.yul\":6659:6663   */\n      0x1f\n        /* \"#utility.yul\":6651:6664   */\n      dup2\n      add\n        /* \"#utility.yul\":6647:6674   */\n      dup6\n      sgt\n        /* \"#utility.yul\":6637:6692   */\n      tag_554\n      jumpi\n        /* \"#utility.yul\":6688:6689   */\n      0x00\n        /* \"#utility.yul\":6685:6686   */\n      dup1\n        /* \"#utility.yul\":6678:6690   */\n      revert\n        /* \"#utility.yul\":6637:6692   */\n    tag_554:\n        /* \"#utility.yul\":6711:6784   */\n      tag_555\n        /* \"#utility.yul\":6776:6783   */\n      dup6\n        /* \"#utility.yul\":6771:6773   */\n      dup3\n        /* \"#utility.yul\":6758:6774   */\n      calldataload\n        /* \"#utility.yul\":6753:6755   */\n      0x20\n        /* \"#utility.yul\":6749:6751   */\n      dup5\n        /* \"#utility.yul\":6745:6756   */\n      add\n        /* \"#utility.yul\":6711:6784   */\n      tag_485\n      jump\t// in\n    tag_555:\n        /* \"#utility.yul\":6701:6784   */\n      swap2\n      pop\n      pop\n        /* \"#utility.yul\":6272:6790   */\n      swap3\n      pop\n      swap3\n      swap1\n      pop\n      jump\t// out\n        /* \"#utility.yul\":6795:7055   */\n    tag_144:\n        /* \"#utility.yul\":6863:6869   */\n      0x00\n        /* \"#utility.yul\":6871:6877   */\n      dup1\n        /* \"#utility.yul\":6924:6926   */\n      0x40\n        /* \"#utility.yul\":6912:6921   */\n      dup4\n        /* \"#utility.yul\":6903:6910   */\n      dup6\n        /* \"#utility.yul\":6899:6922   */\n      sub\n        /* \"#utility.yul\":6895:6927   */\n      slt\n        /* \"#utility.yul\":6892:6944   */\n      iszero\n      tag_557\n      jumpi\n        /* \"#utility.yul\":6940:6941   */\n      0x00\n        /* \"#utility.yul\":6937:6938   */\n      dup1\n        /* \"#utility.yul\":6930:6942   */\n      revert\n        /* \"#utility.yul\":6892:6944   */\n    tag_557:\n        /* \"#utility.yul\":6963:6992   */\n      tag_558\n        /* \"#utility.yul\":6982:6991   */\n      dup4\n        /* \"#utility.yul\":6963:6992   */\n      tag_482\n      jump\t// in\n    tag_558:\n        /* \"#utility.yul\":6953:6992   */\n      swap2\n      pop\n        /* \"#utility.yul\":7011:7049   */\n      tag_559\n        /* \"#utility.yul\":7045:7047   */\n      0x20\n        /* \"#utility.yul\":7034:7043   */\n      dup5\n        /* \"#utility.yul\":7030:7048   */\n      add\n        /* \"#utility.yul\":7011:7049   */\n      tag_482\n      jump\t// in\n    tag_559:\n        /* \"#utility.yul\":7001:7049   */\n      swap1\n      pop\n        /* \"#utility.yul\":6795:7055   */\n      swap3\n      pop\n      swap3\n      swap1\n      pop\n      jump\t// out\n        /* \"#utility.yul\":7060:7440   */\n    tag_151:\n        /* \"#utility.yul\":7139:7140   */\n      0x01\n        /* \"#utility.yul\":7135:7147   */\n      dup2\n      dup2\n      shr\n      swap1\n        /* \"#utility.yul\":7182:7194   */\n      dup3\n      and\n      dup1\n        /* \"#utility.yul\":7203:7264   */\n      tag_561\n      jumpi\n        /* \"#utility.yul\":7257:7261   */\n      0x7f\n        /* \"#utility.yul\":7249:7255   */\n      dup3\n        /* \"#utility.yul\":7245:7262   */\n      and\n        /* \"#utility.yul\":7235:7262   */\n      swap2\n      pop\n        /* \"#utility.yul\":7203:7264   */\n    tag_561:\n        /* \"#utility.yul\":7310:7312   */\n      0x20\n        /* \"#utility.yul\":7302:7308   */\n      dup3\n        /* \"#utility.yul\":7299:7313   */\n      lt\n        /* \"#utility.yul\":7279:7297   */\n      dup2\n        /* \"#utility.yul\":7276:7314   */\n      sub\n        /* \"#utility.yul\":7273:7434   */\n      tag_235\n      jumpi\n        /* \"#utility.yul\":7356:7366   */\n      0x4e487b71\n        /* \"#utility.yul\":7351:7354   */\n      0xe0\n        /* \"#utility.yul\":7347:7367   */\n      shl\n        /* \"#utility.yul\":7344:7345   */\n      0x00\n        /* \"#utility.yul\":7337:7368   */\n      mstore\n        /* \"#utility.yul\":7391:7395   */\n      0x22\n        /* \"#utility.yul\":7388:7389   */\n      0x04\n        /* \"#utility.yul\":7381:7396   */\n      mstore\n        /* \"#utility.yul\":7419:7423   */\n      0x24\n        /* \"#utility.yul\":7416:7417   */\n      0x00\n        /* \"#utility.yul\":7409:7424   */\n      revert\n        /* \"#utility.yul\":7445:7874   */\n    tag_486:\n        /* \"#utility.yul\":7499:7504   */\n      0x00\n        /* \"#utility.yul\":7552:7555   */\n      dup3\n        /* \"#utility.yul\":7545:7549   */\n      0x1f\n        /* \"#utility.yul\":7537:7543   */\n      dup4\n        /* \"#utility.yul\":7533:7550   */\n      add\n        /* \"#utility.yul\":7529:7556   */\n      slt\n        /* \"#utility.yul\":7519:7574   */\n      tag_564\n      jumpi\n        /* \"#utility.yul\":7570:7571   */\n      0x00\n        /* \"#utility.yul\":7567:7568   */\n      dup1\n        /* \"#utility.yul\":7560:7572   */\n      revert\n        /* \"#utility.yul\":7519:7574   */\n    tag_564:\n        /* \"#utility.yul\":7599:7605   */\n      dup2\n        /* \"#utility.yul\":7593:7606   */\n      mload\n        /* \"#utility.yul\":7630:7678   */\n      tag_565\n        /* \"#utility.yul\":7646:7677   */\n      tag_542\n        /* \"#utility.yul\":7674:7676   */\n      dup3\n        /* \"#utility.yul\":7646:7677   */\n      tag_484\n      jump\t// in\n        /* \"#utility.yul\":7630:7678   */\n    tag_565:\n        /* \"#utility.yul\":7703:7705   */\n      dup2\n        /* \"#utility.yul\":7694:7701   */\n      dup2\n        /* \"#utility.yul\":7687:7706   */\n      mstore\n        /* \"#utility.yul\":7749:7752   */\n      dup5\n        /* \"#utility.yul\":7742:7746   */\n      0x20\n        /* \"#utility.yul\":7737:7739   */\n      dup4\n        /* \"#utility.yul\":7729:7735   */\n      dup7\n        /* \"#utility.yul\":7725:7740   */\n      add\n        /* \"#utility.yul\":7721:7747   */\n      add\n        /* \"#utility.yul\":7718:7753   */\n      gt\n        /* \"#utility.yul\":7715:7770   */\n      iszero\n      tag_567\n      jumpi\n        /* \"#utility.yul\":7766:7767   */\n      0x00\n        /* \"#utility.yul\":7763:7764   */\n      dup1\n        /* \"#utility.yul\":7756:7768   */\n      revert\n        /* \"#utility.yul\":7715:7770   */\n    tag_567:\n        /* \"#utility.yul\":7779:7843   */\n      tag_328\n        /* \"#utility.yul\":7840:7842   */\n      dup3\n        /* \"#utility.yul\":7833:7837   */\n      0x20\n        /* \"#utility.yul\":7824:7831   */\n      dup4\n        /* \"#utility.yul\":7820:7838   */\n      add\n        /* \"#utility.yul\":7813:7817   */\n      0x20\n        /* \"#utility.yul\":7805:7811   */\n      dup8\n        /* \"#utility.yul\":7801:7818   */\n      add\n        /* \"#utility.yul\":7779:7843   */\n      tag_479\n      jump\t// in\n        /* \"#utility.yul\":7879:8769   */\n    tag_182:\n        /* \"#utility.yul\":8015:8021   */\n      0x00\n        /* \"#utility.yul\":8023:8029   */\n      dup1\n        /* \"#utility.yul\":8031:8037   */\n      0x00\n        /* \"#utility.yul\":8039:8045   */\n      dup1\n        /* \"#utility.yul\":8047:8053   */\n      0x00\n        /* \"#utility.yul\":8100:8103   */\n      0xa0\n        /* \"#utility.yul\":8088:8097   */\n      dup7\n        /* \"#utility.yul\":8079:8086   */\n      dup9\n        /* \"#utility.yul\":8075:8098   */\n      sub\n        /* \"#utility.yul\":8071:8104   */\n      slt\n        /* \"#utility.yul\":8068:8121   */\n      iszero\n      tag_570\n      jumpi\n        /* \"#utility.yul\":8117:8118   */\n      0x00\n        /* \"#utility.yul\":8114:8115   */\n      dup1\n        /* \"#utility.yul\":8107:8119   */\n      revert\n        /* \"#utility.yul\":8068:8121   */\n    tag_570:\n        /* \"#utility.yul\":8146:8155   */\n      dup6\n        /* \"#utility.yul\":8140:8156   */\n      mload\n        /* \"#utility.yul\":8130:8156   */\n      swap5\n      pop\n        /* \"#utility.yul\":8200:8202   */\n      0x20\n        /* \"#utility.yul\":8189:8198   */\n      dup7\n        /* \"#utility.yul\":8185:8203   */\n      add\n        /* \"#utility.yul\":8179:8204   */\n      mload\n        /* \"#utility.yul\":8223:8241   */\n      0xffffffffffffffff\n        /* \"#utility.yul\":8264:8266   */\n      dup1\n        /* \"#utility.yul\":8256:8262   */\n      dup3\n        /* \"#utility.yul\":8253:8267   */\n      gt\n        /* \"#utility.yul\":8250:8284   */\n      iszero\n      tag_571\n      jumpi\n        /* \"#utility.yul\":8280:8281   */\n      0x00\n        /* \"#utility.yul\":8277:8278   */\n      dup1\n        /* \"#utility.yul\":8270:8282   */\n      revert\n        /* \"#utility.yul\":8250:8284   */\n    tag_571:\n        /* \"#utility.yul\":8303:8364   */\n      tag_572\n        /* \"#utility.yul\":8356:8363   */\n      dup10\n        /* \"#utility.yul\":8347:8353   */\n      dup4\n        /* \"#utility.yul\":8336:8345   */\n      dup11\n        /* \"#utility.yul\":8332:8354   */\n      add\n        /* \"#utility.yul\":8303:8364   */\n      tag_486\n      jump\t// in\n    tag_572:\n        /* \"#utility.yul\":8293:8364   */\n      swap6\n      pop\n        /* \"#utility.yul\":8410:8412   */\n      0x40\n        /* \"#utility.yul\":8399:8408   */\n      dup9\n        /* \"#utility.yul\":8395:8413   */\n      add\n        /* \"#utility.yul\":8389:8414   */\n      mload\n        /* \"#utility.yul\":8373:8414   */\n      swap2\n      pop\n        /* \"#utility.yul\":8439:8441   */\n      dup1\n        /* \"#utility.yul\":8429:8437   */\n      dup3\n        /* \"#utility.yul\":8426:8442   */\n      gt\n        /* \"#utility.yul\":8423:8459   */\n      iszero\n      tag_573\n      jumpi\n        /* \"#utility.yul\":8455:8456   */\n      0x00\n        /* \"#utility.yul\":8452:8453   */\n      dup1\n        /* \"#utility.yul\":8445:8457   */\n      revert\n        /* \"#utility.yul\":8423:8459   */\n    tag_573:\n        /* \"#utility.yul\":8478:8541   */\n      tag_574\n        /* \"#utility.yul\":8533:8540   */\n      dup10\n        /* \"#utility.yul\":8522:8530   */\n      dup4\n        /* \"#utility.yul\":8511:8520   */\n      dup11\n        /* \"#utility.yul\":8507:8531   */\n      add\n        /* \"#utility.yul\":8478:8541   */\n      tag_486\n      jump\t// in\n    tag_574:\n        /* \"#utility.yul\":8468:8541   */\n      swap5\n      pop\n        /* \"#utility.yul\":8587:8589   */\n      0x60\n        /* \"#utility.yul\":8576:8585   */\n      dup9\n        /* \"#utility.yul\":8572:8590   */\n      add\n        /* \"#utility.yul\":8566:8591   */\n      mload\n        /* \"#utility.yul\":8550:8591   */\n      swap2\n      pop\n        /* \"#utility.yul\":8616:8618   */\n      dup1\n        /* \"#utility.yul\":8606:8614   */\n      dup3\n        /* \"#utility.yul\":8603:8619   */\n      gt\n        /* \"#utility.yul\":8600:8636   */\n      iszero\n      tag_575\n      jumpi\n        /* \"#utility.yul\":8632:8633   */\n      0x00\n        /* \"#utility.yul\":8629:8630   */\n      dup1\n        /* \"#utility.yul\":8622:8634   */\n      revert\n        /* \"#utility.yul\":8600:8636   */\n    tag_575:\n      pop\n        /* \"#utility.yul\":8655:8718   */\n      tag_576\n        /* \"#utility.yul\":8710:8717   */\n      dup9\n        /* \"#utility.yul\":8699:8707   */\n      dup3\n        /* \"#utility.yul\":8688:8697   */\n      dup10\n        /* \"#utility.yul\":8684:8708   */\n      add\n        /* \"#utility.yul\":8655:8718   */\n      tag_486\n      jump\t// in\n    tag_576:\n        /* \"#utility.yul\":8645:8718   */\n      swap3\n      pop\n      pop\n        /* \"#utility.yul\":8758:8761   */\n      0x80\n        /* \"#utility.yul\":8747:8756   */\n      dup7\n        /* \"#utility.yul\":8743:8762   */\n      add\n        /* \"#utility.yul\":8737:8763   */\n      mload\n        /* \"#utility.yul\":8727:8763   */\n      swap1\n      pop\n        /* \"#utility.yul\":7879:8769   */\n      swap3\n      swap6\n      pop\n      swap3\n      swap6\n      swap1\n      swap4\n      pop\n      jump\t// out\n        /* \"#utility.yul\":8774:8901   */\n    tag_185:\n        /* \"#utility.yul\":8835:8845   */\n      0x4e487b71\n        /* \"#utility.yul\":8830:8833   */\n      0xe0\n        /* \"#utility.yul\":8826:8846   */\n      shl\n        /* \"#utility.yul\":8823:8824   */\n      0x00\n        /* \"#utility.yul\":8816:8847   */\n      mstore\n        /* \"#utility.yul\":8866:8870   */\n      0x32\n        /* \"#utility.yul\":8863:8864   */\n      0x04\n        /* \"#utility.yul\":8856:8871   */\n      mstore\n        /* \"#utility.yul\":8890:8894   */\n      0x24\n        /* \"#utility.yul\":8887:8888   */\n      0x00\n        /* \"#utility.yul\":8880:8895   */\n      revert\n        /* \"#utility.yul\":8906:9033   */\n    tag_487:\n        /* \"#utility.yul\":8967:8977   */\n      0x4e487b71\n        /* \"#utility.yul\":8962:8965   */\n      0xe0\n        /* \"#utility.yul\":8958:8978   */\n      shl\n        /* \"#utility.yul\":8955:8956   */\n      0x00\n        /* \"#utility.yul\":8948:8979   */\n      mstore\n        /* \"#utility.yul\":8998:9002   */\n      0x11\n        /* \"#utility.yul\":8995:8996   */\n      0x04\n        /* \"#utility.yul\":8988:9003   */\n      mstore\n        /* \"#utility.yul\":9022:9026   */\n      0x24\n        /* \"#utility.yul\":9019:9020   */\n      0x00\n        /* \"#utility.yul\":9012:9027   */\n      revert\n        /* \"#utility.yul\":9038:9173   */\n    tag_187:\n        /* \"#utility.yul\":9077:9080   */\n      0x00\n        /* \"#utility.yul\":9098:9115   */\n      0x01\n      dup3\n      add\n        /* \"#utility.yul\":9095:9138   */\n      tag_581\n      jumpi\n        /* \"#utility.yul\":9118:9136   */\n      tag_581\n      tag_487\n      jump\t// in\n    tag_581:\n      pop\n        /* \"#utility.yul\":9165:9166   */\n      0x01\n        /* \"#utility.yul\":9154:9167   */\n      add\n      swap1\n        /* \"#utility.yul\":9038:9173   */\n      jump\t// out\n        /* \"#utility.yul\":10771:10939   */\n    tag_237:\n        /* \"#utility.yul\":10811:10818   */\n      0x00\n        /* \"#utility.yul\":10877:10878   */\n      dup2\n        /* \"#utility.yul\":10873:10874   */\n      0x00\n        /* \"#utility.yul\":10869:10875   */\n      not\n        /* \"#utility.yul\":10865:10879   */\n      div\n        /* \"#utility.yul\":10862:10863   */\n      dup4\n        /* \"#utility.yul\":10859:10880   */\n      gt\n        /* \"#utility.yul\":10854:10855   */\n      dup3\n        /* \"#utility.yul\":10847:10856   */\n      iszero\n        /* \"#utility.yul\":10840:10857   */\n      iszero\n        /* \"#utility.yul\":10836:10881   */\n      and\n        /* \"#utility.yul\":10833:10904   */\n      iszero\n      tag_588\n      jumpi\n        /* \"#utility.yul\":10884:10902   */\n      tag_588\n      tag_487\n      jump\t// in\n    tag_588:\n      pop\n        /* \"#utility.yul\":10924:10933   */\n      mul\n      swap1\n        /* \"#utility.yul\":10771:10939   */\n      jump\t// out\n        /* \"#utility.yul\":11707:11835   */\n    tag_261:\n        /* \"#utility.yul\":11747:11750   */\n      0x00\n        /* \"#utility.yul\":11778:11779   */\n      dup3\n        /* \"#utility.yul\":11774:11780   */\n      not\n        /* \"#utility.yul\":11771:11772   */\n      dup3\n        /* \"#utility.yul\":11768:11781   */\n      gt\n        /* \"#utility.yul\":11765:11804   */\n      iszero\n      tag_593\n      jumpi\n        /* \"#utility.yul\":11784:11802   */\n      tag_593\n      tag_487\n      jump\t// in\n    tag_593:\n      pop\n        /* \"#utility.yul\":11820:11829   */\n      add\n      swap1\n        /* \"#utility.yul\":11707:11835   */\n      jump\t// out\n        /* \"#utility.yul\":12093:12563   */\n    tag_300:\n        /* \"#utility.yul\":12272:12275   */\n      0x00\n        /* \"#utility.yul\":12310:12316   */\n      dup4\n        /* \"#utility.yul\":12304:12317   */\n      mload\n        /* \"#utility.yul\":12326:12379   */\n      tag_596\n        /* \"#utility.yul\":12372:12378   */\n      dup2\n        /* \"#utility.yul\":12367:12370   */\n      dup5\n        /* \"#utility.yul\":12360:12364   */\n      0x20\n        /* \"#utility.yul\":12352:12358   */\n      dup9\n        /* \"#utility.yul\":12348:12365   */\n      add\n        /* \"#utility.yul\":12326:12379   */\n      tag_479\n      jump\t// in\n    tag_596:\n        /* \"#utility.yul\":12442:12455   */\n      dup4\n      mload\n        /* \"#utility.yul\":12401:12417   */\n      swap1\n      dup4\n      add\n      swap1\n        /* \"#utility.yul\":12464:12521   */\n      tag_597\n        /* \"#utility.yul\":12442:12455   */\n      dup2\n        /* \"#utility.yul\":12401:12417   */\n      dup4\n        /* \"#utility.yul\":12498:12502   */\n      0x20\n        /* \"#utility.yul\":12486:12503   */\n      dup9\n      add\n        /* \"#utility.yul\":12464:12521   */\n      tag_479\n      jump\t// in\n    tag_597:\n        /* \"#utility.yul\":12537:12557   */\n      add\n      swap5\n        /* \"#utility.yul\":12093:12563   */\n      swap4\n      pop\n      pop\n      pop\n      pop\n      jump\t// out\n        /* \"#utility.yul\":12568:12859   */\n    tag_306:\n        /* \"#utility.yul\":12745:12747   */\n      0x40\n        /* \"#utility.yul\":12734:12743   */\n      dup2\n        /* \"#utility.yul\":12727:12748   */\n      mstore\n        /* \"#utility.yul\":12708:12712   */\n      0x00\n        /* \"#utility.yul\":12765:12810   */\n      tag_599\n        /* \"#utility.yul\":12806:12808   */\n      0x40\n        /* \"#utility.yul\":12795:12804   */\n      dup4\n        /* \"#utility.yul\":12791:12809   */\n      add\n        /* \"#utility.yul\":12783:12789   */\n      dup6\n        /* \"#utility.yul\":12765:12810   */\n      tag_480\n      jump\t// in\n    tag_599:\n        /* \"#utility.yul\":12757:12810   */\n      swap1\n      pop\n        /* \"#utility.yul\":12846:12852   */\n      dup3\n        /* \"#utility.yul\":12841:12843   */\n      0x20\n        /* \"#utility.yul\":12830:12839   */\n      dup4\n        /* \"#utility.yul\":12826:12844   */\n      add\n        /* \"#utility.yul\":12819:12853   */\n      mstore\n        /* \"#utility.yul\":12568:12859   */\n      swap4\n      swap3\n      pop\n      pop\n      pop\n      jump\t// out\n        /* \"#utility.yul\":14082:14207   */\n    tag_342:\n        /* \"#utility.yul\":14122:14126   */\n      0x00\n        /* \"#utility.yul\":14150:14151   */\n      dup3\n        /* \"#utility.yul\":14147:14148   */\n      dup3\n        /* \"#utility.yul\":14144:14152   */\n      lt\n        /* \"#utility.yul\":14141:14175   */\n      iszero\n      tag_605\n      jumpi\n        /* \"#utility.yul\":14155:14173   */\n      tag_605\n      tag_487\n      jump\t// in\n    tag_605:\n      pop\n        /* \"#utility.yul\":14192:14201   */\n      sub\n      swap1\n        /* \"#utility.yul\":14082:14207   */\n      jump\t// out\n        /* \"#utility.yul\":15346:15473   */\n    tag_488:\n        /* \"#utility.yul\":15407:15417   */\n      0x4e487b71\n        /* \"#utility.yul\":15402:15405   */\n      0xe0\n        /* \"#utility.yul\":15398:15418   */\n      shl\n        /* \"#utility.yul\":15395:15396   */\n      0x00\n        /* \"#utility.yul\":15388:15419   */\n      mstore\n        /* \"#utility.yul\":15438:15442   */\n      0x12\n        /* \"#utility.yul\":15435:15436   */\n      0x04\n        /* \"#utility.yul\":15428:15443   */\n      mstore\n        /* \"#utility.yul\":15462:15466   */\n      0x24\n        /* \"#utility.yul\":15459:15460   */\n      0x00\n        /* \"#utility.yul\":15452:15467   */\n      revert\n        /* \"#utility.yul\":15478:15598   */\n    tag_380:\n        /* \"#utility.yul\":15518:15519   */\n      0x00\n        /* \"#utility.yul\":15544:15545   */\n      dup3\n        /* \"#utility.yul\":15534:15569   */\n      tag_612\n      jumpi\n        /* \"#utility.yul\":15549:15567   */\n      tag_612\n      tag_488\n      jump\t// in\n    tag_612:\n      pop\n        /* \"#utility.yul\":15583:15592   */\n      div\n      swap1\n        /* \"#utility.yul\":15478:15598   */\n      jump\t// out\n        /* \"#utility.yul\":15603:15715   */\n    tag_388:\n        /* \"#utility.yul\":15635:15636   */\n      0x00\n        /* \"#utility.yul\":15661:15662   */\n      dup3\n        /* \"#utility.yul\":15651:15686   */\n      tag_615\n      jumpi\n        /* \"#utility.yul\":15666:15684   */\n      tag_615\n      tag_488\n      jump\t// in\n    tag_615:\n      pop\n        /* \"#utility.yul\":15700:15709   */\n      mod\n      swap1\n        /* \"#utility.yul\":15603:15715   */\n      jump\t// out\n        /* \"#utility.yul\":16069:16205   */\n    tag_421:\n        /* \"#utility.yul\":16108:16111   */\n      0x00\n        /* \"#utility.yul\":16136:16141   */\n      dup2\n        /* \"#utility.yul\":16126:16165   */\n      tag_619\n      jumpi\n        /* \"#utility.yul\":16145:16163   */\n      tag_619\n      tag_487\n      jump\t// in\n    tag_619:\n      pop\n      not(0x00)\n        /* \"#utility.yul\":16181:16199   */\n      add\n      swap1\n        /* \"#utility.yul\":16069:16205   */\n      jump\t// out\n        /* \"#utility.yul\":16571:17083   */\n    tag_437:\n        /* \"#utility.yul\":16765:16769   */\n      0x00\n      sub(shl(0xa0, 0x01), 0x01)\n        /* \"#utility.yul\":16875:16877   */\n      dup1\n        /* \"#utility.yul\":16867:16873   */\n      dup8\n        /* \"#utility.yul\":16863:16878   */\n      and\n        /* \"#utility.yul\":16852:16861   */\n      dup4\n        /* \"#utility.yul\":16845:16879   */\n      mstore\n        /* \"#utility.yul\":16927:16929   */\n      dup1\n        /* \"#utility.yul\":16919:16925   */\n      dup7\n        /* \"#utility.yul\":16915:16930   */\n      and\n        /* \"#utility.yul\":16910:16912   */\n      0x20\n        /* \"#utility.yul\":16899:16908   */\n      dup5\n        /* \"#utility.yul\":16895:16913   */\n      add\n        /* \"#utility.yul\":16888:16931   */\n      mstore\n      pop\n        /* \"#utility.yul\":16967:16973   */\n      dup4\n        /* \"#utility.yul\":16962:16964   */\n      0x40\n        /* \"#utility.yul\":16951:16960   */\n      dup4\n        /* \"#utility.yul\":16947:16965   */\n      add\n        /* \"#utility.yul\":16940:16974   */\n      mstore\n        /* \"#utility.yul\":17010:17013   */\n      0x80\n        /* \"#utility.yul\":17005:17007   */\n      0x60\n        /* \"#utility.yul\":16994:17003   */\n      dup4\n        /* \"#utility.yul\":16990:17008   */\n      add\n        /* \"#utility.yul\":16983:17014   */\n      mstore\n        /* \"#utility.yul\":17031:17077   */\n      tag_622\n        /* \"#utility.yul\":17072:17075   */\n      0x80\n        /* \"#utility.yul\":17061:17070   */\n      dup4\n        /* \"#utility.yul\":17057:17076   */\n      add\n        /* \"#utility.yul\":17049:17055   */\n      dup5\n        /* \"#utility.yul\":17031:17077   */\n      tag_480\n      jump\t// in\n    tag_622:\n        /* \"#utility.yul\":17023:17077   */\n      swap7\n        /* \"#utility.yul\":16571:17083   */\n      swap6\n      pop\n      pop\n      pop\n      pop\n      pop\n      pop\n      jump\t// out\n        /* \"#utility.yul\":17088:17337   */\n    tag_440:\n        /* \"#utility.yul\":17157:17163   */\n      0x00\n        /* \"#utility.yul\":17210:17212   */\n      0x20\n        /* \"#utility.yul\":17198:17207   */\n      dup3\n        /* \"#utility.yul\":17189:17196   */\n      dup5\n        /* \"#utility.yul\":17185:17208   */\n      sub\n        /* \"#utility.yul\":17181:17213   */\n      slt\n        /* \"#utility.yul\":17178:17230   */\n      iszero\n      tag_624\n      jumpi\n        /* \"#utility.yul\":17226:17227   */\n      0x00\n        /* \"#utility.yul\":17223:17224   */\n      dup1\n        /* \"#utility.yul\":17216:17228   */\n      revert\n        /* \"#utility.yul\":17178:17230   */\n    tag_624:\n        /* \"#utility.yul\":17258:17267   */\n      dup2\n        /* \"#utility.yul\":17252:17268   */\n      mload\n        /* \"#utility.yul\":17277:17307   */\n      tag_296\n        /* \"#utility.yul\":17301:17306   */\n      dup2\n        /* \"#utility.yul\":17277:17307   */\n      tag_481\n      jump\t// in\n\n    auxdata: 0xa26469706673582212209e53775ae830ea3866752b599dd544102df96b627b2d644e890cdc04562834c364736f6c634300080d0033\n}\n",
    "bytecode": {
      "linkReferences": {},
      "object": "60c06040523480156200001157600080fd5b506040516200248e3803806200248e8339810160408190526200003491620001e3565b604080518082018252600981526821b430b930b1ba32b960b91b602080830191825283518085019094526006845265242aa72a22a960d11b908401528151919291620000839160009162000124565b5080516200009990600190602084019062000124565b505050620000b6620000b0620000ce60201b60201c565b620000d2565b6001600160a01b039182166080521660a0526200025e565b3390565b600680546001600160a01b038381166001600160a01b0319831681179093556040519116919082907f8be0079c531659141344cd1fd0a4f28419497f9722a3daafe3b4186f6b6457e090600090a35050565b828054620001329062000222565b90600052602060002090601f016020900481019282620001565760008555620001a1565b82601f106200017157805160ff1916838001178555620001a1565b82800160010185558215620001a1579182015b82811115620001a157825182559160200191906001019062000184565b50620001af929150620001b3565b5090565b5b80821115620001af5760008155600101620001b4565b6001600160a01b0381168114620001e057600080fd5b50565b60008060408385031215620001f757600080fd5b82516200020481620001ca565b60208401519092506200021781620001ca565b809150509250929050565b600181811c908216806200023757607f821691505b6020821081036200025857634e487b7160e01b600052602260045260246000fd5b50919050565b60805160a0516122036200028b6000396000818161037c015261068c0152600061028101526122036000f3fe608060405234801561001057600080fd5b50600436106101c35760003560e01c806370a08231116100f9578063adf448d811610097578063c87b56dd11610071578063c87b56dd14610402578063e51c4ecc14610415578063e985e9c514610428578063f2fde38b1461046457600080fd5b8063adf448d8146103b9578063b88d4fde146103dc578063c6cc5105146103ef57600080fd5b80638da5cb5b116100d35780638da5cb5b14610366578063941db0001461037757806395d89b411461039e578063a22cb465146103a657600080fd5b806370a0823114610338578063715018a61461034b5780637ae275601461035357600080fd5b806323b872dd116101665780633b092f39116101405780633b092f39146102df57806342842e0e146102ff5780634f068da7146103125780636352211e1461032557600080fd5b806323b872dd146102a357806334451530146102b6578063363dd19e146102d757600080fd5b8063081812fc116101a2578063081812fc1461021c5780630857211914610247578063095ea7b31461026757806311df99951461027c57600080fd5b8062ad800c146101c857806301ffc9a7146101f157806306fdde0314610214575b600080fd5b6101db6101d6366004611b79565b610477565b6040516101e89190611bea565b60405180910390f35b6102046101ff366004611c13565b610511565b60405190151581526020016101e8565b6101db610563565b61022f61022a366004611b79565b6105f5565b6040516001600160a01b0390911681526020016101e8565b61025a610255366004611c4c565b61061c565b6040516101e89190611c67565b61027a610275366004611cab565b610741565b005b61022f7f000000000000000000000000000000000000000000000000000000000000000081565b61027a6102b1366004611cd5565b61085b565b6102c96102c4366004611d11565b6108d3565b6040519081526020016101e8565b61027a610904565b6102c96102ed366004611c4c565b60096020526000908152604090205481565b61027a61030d366004611cd5565b610a4a565b6102c9610320366004611b79565b610a65565b61022f610333366004611b79565b610a9a565b6102c9610346366004611c4c565b610aff565b61027a610b99565b61027a610361366004611d11565b610bad565b6006546001600160a01b031661022f565b61022f7f000000000000000000000000000000000000000000000000000000000000000081565b6101db610cc7565b61027a6103b4366004611d33565b610cd6565b6102046103c7366004611c4c565b60086020526000908152604090205460ff1681565b61027a6103ea366004611e1c565b610ce5565b61025a6103fd366004611c4c565b610d64565b6101db610410366004611b79565b610ddc565b61027a610423366004611e98565b610e50565b610204610436366004611ef3565b6001600160a01b03918216600090815260056020908152604080832093909416825291909152205460ff1690565b61027a610472366004611c4c565b610ebf565b600a602052600090815260409020805461049090611f26565b80601f01602080910402602001604051908101604052809291908181526020018280546104bc90611f26565b80156105095780601f106104de57610100808354040283529160200191610509565b820191906000526020600020905b8154815290600101906020018083116104ec57829003601f168201915b505050505081565b60006001600160e01b031982166380ac58cd60e01b148061054257506001600160e01b03198216635b5e139f60e01b145b8061055d57506301ffc9a760e01b6001600160e01b03198316145b92915050565b60606000805461057290611f26565b80601f016020809104026020016040519081016040528092919081815260200182805461059e90611f26565b80156105eb5780601f106105c0576101008083540402835291602001916105eb565b820191906000526020600020905b8154815290600101906020018083116105ce57829003601f168201915b5050505050905090565b600061060082610f4f565b506000908152600460205260409020546001600160a01b031690565b6001600160a01b0381166000908152600960205260409081902054815160038082526080820190935260609281602001602082028036833701905050915060005b6000828152600b602052604090205481101561073a5760405163335dd05f60e01b8152600481018290526000907f00000000000000000000000000000000000000000000000000000000000000006001600160a01b03169063335dd05f90602401600060405180830381865afa1580156106db573d6000803e3d6000fd5b505050506040513d6000823e601f3d908101601f191682016040526107039190810190611f9f565b9450505050508084838151811061071c5761071c61203b565b6020908102919091010152508061073281612067565b91505061065d565b5050919050565b600061074c82610a9a565b9050806001600160a01b0316836001600160a01b0316036107be5760405162461bcd60e51b815260206004820152602160248201527f4552433732313a20617070726f76616c20746f2063757272656e74206f776e656044820152603960f91b60648201526084015b60405180910390fd5b336001600160a01b03821614806107da57506107da8133610436565b61084c5760405162461bcd60e51b815260206004820152603e60248201527f4552433732313a20617070726f76652063616c6c6572206973206e6f7420746f60448201527f6b656e206f776e6572206e6f7220617070726f76656420666f7220616c6c000060648201526084016107b5565b6108568383610fb3565b505050565b6108653382611021565b6108c85760405162461bcd60e51b815260206004820152602e60248201527f4552433732313a2063616c6c6572206973206e6f7420746f6b656e206f776e6560448201526d1c881b9bdc88185c1c1c9bdd995960921b60648201526084016107b5565b6108568383836110a0565b600b60205281600052604060002081815481106108ef57600080fd5b90600052602060002001600091509150505481565b3360009081526008602052604090205460ff16156109645760405162461bcd60e51b815260206004820152601060248201527f416c72656164792073756d6d6f6e65640000000000000000000000000000000060448201526064016107b5565b610972600780546001019055565b600061097d60075490565b90506109883361125f565b6000828152600a6020908152604090912082516109ab9391929190910190611aa0565b50604080516060810182526001815260006020808301829052828401829052848252600b9052919091206109e0916003611b24565b50336000818152600860209081526040808320805460ff1916600117905560099091529020829055610a129082611275565b60405181815233907fbbb46266402c42849573c27abc27dd180e2b8ec8f33840ca8b0919227659e3999060200160405180910390a250565b61085683838360405180602001604052806000815250610ce5565b6000808211610a7e5750670de0b6b3a764000080610a94565b610a9082670de0b6b3a7640000612080565b9050805b50919050565b6000818152600260205260408120546001600160a01b03168061055d5760405162461bcd60e51b815260206004820152601860248201527f4552433732313a20696e76616c696420746f6b656e204944000000000000000060448201526064016107b5565b60006001600160a01b038216610b7d5760405162461bcd60e51b815260206004820152602960248201527f4552433732313a2061646472657373207a65726f206973206e6f74206120766160448201527f6c6964206f776e6572000000000000000000000000000000000000000000000060648201526084016107b5565b506001600160a01b031660009081526003602052604090205490565b610ba161128f565b610bab60006112e9565b565b610bb561128f565b6000828152600b60205260408120805483908110610bd557610bd561203b565b906000526020600020015490506000610bed82610a65565b9050610c0e337390b21481a2641edee5171033fb5b089c5358b7e083610a4a565b610c1982600161209f565b6000858152600b60205260409020805485908110610c3957610c3961203b565b9060005260206000200181905550336001600160a01b03167faa4e97eeb4fd5355c649ee3f0c8a2bb57442a5d8d81b7af85422d800a4bbe24e600b60008781526020019081526020016000208581548110610c9657610c9661203b565b906000526020600020015486604051610cb9929190918252602082015260400190565b60405180910390a250505050565b60606001805461057290611f26565b610ce133838361133b565b5050565b610cef3383611021565b610d525760405162461bcd60e51b815260206004820152602e60248201527f4552433732313a2063616c6c6572206973206e6f7420746f6b656e206f776e6560448201526d1c881b9bdc88185c1c1c9bdd995960921b60648201526084016107b5565b610d5e84848484611409565b50505050565b6001600160a01b038116600090815260096020908152604080832054808452600b835292819020805482518185028101850190935280835260609493830182828015610dcf57602002820191906000526020600020905b815481526020019060010190808311610dbb575b5050505050915050919050565b6060610de782610f4f565b6000610dfe60408051602081019091526000815290565b90506000815111610e1e5760405180602001604052806000815250610e49565b80610e2884611487565b604051602001610e399291906120b7565b6040516020818303038152906040525b9392505050565b610e5861128f565b6000828152600a602090815260409091208251610e7792840190611aa0565b50336001600160a01b03167f68a7f81800258a01d20fc5c11938b8d2251d25ffb372e6c11b1c83fa7d421db08284604051610eb39291906120e6565b60405180910390a25050565b610ec761128f565b6001600160a01b038116610f435760405162461bcd60e51b815260206004820152602660248201527f4f776e61626c653a206e6577206f776e657220697320746865207a65726f206160448201527f646472657373000000000000000000000000000000000000000000000000000060648201526084016107b5565b610f4c816112e9565b50565b6000818152600260205260409020546001600160a01b0316610f4c5760405162461bcd60e51b815260206004820152601860248201527f4552433732313a20696e76616c696420746f6b656e204944000000000000000060448201526064016107b5565b600081815260046020526040902080546001600160a01b0319166001600160a01b0384169081179091558190610fe882610a9a565b6001600160a01b03167f8c5be1e5ebec7d5bd14f71427d1e84f3dd0314c0f7b2291e5b200ac8c7c3b92560405160405180910390a45050565b60008061102d83610a9a565b9050806001600160a01b0316846001600160a01b0316148061107457506001600160a01b0380821660009081526005602090815260408083209388168352929052205460ff165b806110985750836001600160a01b031661108d846105f5565b6001600160a01b0316145b949350505050565b826001600160a01b03166110b382610a9a565b6001600160a01b03161461112f5760405162461bcd60e51b815260206004820152602560248201527f4552433732313a207472616e736665722066726f6d20696e636f72726563742060448201527f6f776e657200000000000000000000000000000000000000000000000000000060648201526084016107b5565b6001600160a01b0382166111915760405162461bcd60e51b8152602060048201526024808201527f4552433732313a207472616e7366657220746f20746865207a65726f206164646044820152637265737360e01b60648201526084016107b5565b61119c838383611588565b6111a7600082610fb3565b6001600160a01b03831660009081526003602052604081208054600192906111d0908490612108565b90915550506001600160a01b03821660009081526003602052604081208054600192906111fe90849061209f565b909155505060008181526002602052604080822080546001600160a01b0319166001600160a01b0386811691821790925591518493918716917fddf252ad1be2c89b69c2b068fc378daa952ba7f163c4a11628f55a4df523b3ef91a4505050565b606061055d6001600160a01b03831660146115df565b610ce1828260405180602001604052806000815250611788565b6006546001600160a01b03163314610bab5760405162461bcd60e51b815260206004820181905260248201527f4f776e61626c653a2063616c6c6572206973206e6f7420746865206f776e657260448201526064016107b5565b600680546001600160a01b038381166001600160a01b0319831681179093556040519116919082907f8be0079c531659141344cd1fd0a4f28419497f9722a3daafe3b4186f6b6457e090600090a35050565b816001600160a01b0316836001600160a01b03160361139c5760405162461bcd60e51b815260206004820152601960248201527f4552433732313a20617070726f766520746f2063616c6c65720000000000000060448201526064016107b5565b6001600160a01b03838116600081815260056020908152604080832094871680845294825291829020805460ff191686151590811790915591519182527f17307eab39ab6107e8899845ad3d59bd9653f200f220920489ca2b5937696c31910160405180910390a3505050565b6114148484846110a0565b61142084848484611806565b610d5e5760405162461bcd60e51b815260206004820152603260248201527f4552433732313a207472616e7366657220746f206e6f6e20455243373231526560448201527131b2b4bb32b91034b6b83632b6b2b73a32b960711b60648201526084016107b5565b6060816000036114ae5750506040805180820190915260018152600360fc1b602082015290565b8160005b81156114d857806114c281612067565b91506114d19050600a83612135565b91506114b2565b60008167ffffffffffffffff8111156114f3576114f3611d6f565b6040519080825280601f01601f19166020018201604052801561151d576020820181803683370190505b5090505b841561109857611532600183612108565b915061153f600a86612149565b61154a90603061209f565b60f81b81838151811061155f5761155f61203b565b60200101906001600160f81b031916908160001a905350611581600a86612135565b9450611521565b6001600160a01b038316156108565760405162461bcd60e51b815260206004820152601460248201527f546f6b656e2063616e2774207472616e7366657200000000000000000000000060448201526064016107b5565b606060006115ee836002612080565b6115f990600261209f565b67ffffffffffffffff81111561161157611611611d6f565b6040519080825280601f01601f19166020018201604052801561163b576020820181803683370190505b509050600360fc1b816000815181106116565761165661203b565b60200101906001600160f81b031916908160001a905350600f60fb1b816001815181106116855761168561203b565b60200101906001600160f81b031916908160001a90535060006116a9846002612080565b6116b490600161209f565b90505b6001811115611739577f303132333435363738396162636465660000000000000000000000000000000085600f16601081106116f5576116f561203b565b1a60f81b82828151811061170b5761170b61203b565b60200101906001600160f81b031916908160001a90535060049490941c936117328161215d565b90506116b7565b508315610e495760405162461bcd60e51b815260206004820181905260248201527f537472696e67733a20686578206c656e67746820696e73756666696369656e7460448201526064016107b5565b6117928383611952565b61179f6000848484611806565b6108565760405162461bcd60e51b815260206004820152603260248201527f4552433732313a207472616e7366657220746f206e6f6e20455243373231526560448201527131b2b4bb32b91034b6b83632b6b2b73a32b960711b60648201526084016107b5565b60006001600160a01b0384163b1561194757604051630a85bd0160e11b81526001600160a01b0385169063150b7a029061184a903390899088908890600401612174565b6020604051808303816000875af1925050508015611885575060408051601f3d908101601f19168201909252611882918101906121b0565b60015b61192d573d8080156118b3576040519150601f19603f3d011682016040523d82523d6000602084013e6118b8565b606091505b5080516000036119255760405162461bcd60e51b815260206004820152603260248201527f4552433732313a207472616e7366657220746f206e6f6e20455243373231526560448201527131b2b4bb32b91034b6b83632b6b2b73a32b960711b60648201526084016107b5565b805181602001fd5b6001600160e01b031916630a85bd0160e11b149050611098565b506001949350505050565b6001600160a01b0382166119a85760405162461bcd60e51b815260206004820181905260248201527f4552433732313a206d696e7420746f20746865207a65726f206164647265737360448201526064016107b5565b6000818152600260205260409020546001600160a01b031615611a0d5760405162461bcd60e51b815260206004820152601c60248201527f4552433732313a20746f6b656e20616c7265616479206d696e7465640000000060448201526064016107b5565b611a1960008383611588565b6001600160a01b0382166000908152600360205260408120805460019290611a4290849061209f565b909155505060008181526002602052604080822080546001600160a01b0319166001600160a01b03861690811790915590518392907fddf252ad1be2c89b69c2b068fc378daa952ba7f163c4a11628f55a4df523b3ef908290a45050565b828054611aac90611f26565b90600052602060002090601f016020900481019282611ace5760008555611b14565b82601f10611ae757805160ff1916838001178555611b14565b82800160010185558215611b14579182015b82811115611b14578251825591602001919060010190611af9565b50611b20929150611b64565b5090565b828054828255906000526020600020908101928215611b14579160200282015b82811115611b14578251829060ff16905591602001919060010190611b44565b5b80821115611b205760008155600101611b65565b600060208284031215611b8b57600080fd5b5035919050565b60005b83811015611bad578181015183820152602001611b95565b83811115610d5e5750506000910152565b60008151808452611bd6816020860160208601611b92565b601f01601f19169290920160200192915050565b602081526000610e496020830184611bbe565b6001600160e01b031981168114610f4c57600080fd5b600060208284031215611c2557600080fd5b8135610e4981611bfd565b80356001600160a01b0381168114611c4757600080fd5b919050565b600060208284031215611c5e57600080fd5b610e4982611c30565b6020808252825182820181905260009190848201906040850190845b81811015611c9f57835183529284019291840191600101611c83565b50909695505050505050565b60008060408385031215611cbe57600080fd5b611cc783611c30565b946020939093013593505050565b600080600060608486031215611cea57600080fd5b611cf384611c30565b9250611d0160208501611c30565b9150604084013590509250925092565b60008060408385031215611d2457600080fd5b50508035926020909101359150565b60008060408385031215611d4657600080fd5b611d4f83611c30565b915060208301358015158114611d6457600080fd5b809150509250929050565b634e487b7160e01b600052604160045260246000fd5b604051601f8201601f1916810167ffffffffffffffff81118282101715611dae57611dae611d6f565b604052919050565b600067ffffffffffffffff821115611dd057611dd0611d6f565b50601f01601f191660200190565b6000611df1611dec84611db6565b611d85565b9050828152838383011115611e0557600080fd5b828260208301376000602084830101529392505050565b60008060008060808587031215611e3257600080fd5b611e3b85611c30565b9350611e4960208601611c30565b925060408501359150606085013567ffffffffffffffff811115611e6c57600080fd5b8501601f81018713611e7d57600080fd5b611e8c87823560208401611dde565b91505092959194509250565b60008060408385031215611eab57600080fd5b82359150602083013567ffffffffffffffff811115611ec957600080fd5b8301601f81018513611eda57600080fd5b611ee985823560208401611dde565b9150509250929050565b60008060408385031215611f0657600080fd5b611f0f83611c30565b9150611f1d60208401611c30565b90509250929050565b600181811c90821680611f3a57607f821691505b602082108103610a9457634e487b7160e01b600052602260045260246000fd5b600082601f830112611f6b57600080fd5b8151611f79611dec82611db6565b818152846020838601011115611f8e57600080fd5b611098826020830160208701611b92565b600080600080600060a08688031215611fb757600080fd5b85519450602086015167ffffffffffffffff80821115611fd657600080fd5b611fe289838a01611f5a565b95506040880151915080821115611ff857600080fd5b61200489838a01611f5a565b9450606088015191508082111561201a57600080fd5b5061202788828901611f5a565b925050608086015190509295509295909350565b634e487b7160e01b600052603260045260246000fd5b634e487b7160e01b600052601160045260246000fd5b60006001820161207957612079612051565b5060010190565b600081600019048311821515161561209a5761209a612051565b500290565b600082198211156120b2576120b2612051565b500190565b600083516120c9818460208801611b92565b8351908301906120dd818360208801611b92565b01949350505050565b6040815260006120f96040830185611bbe565b90508260208301529392505050565b60008282101561211a5761211a612051565b500390565b634e487b7160e01b600052601260045260246000fd5b6000826121445761214461211f565b500490565b6000826121585761215861211f565b500690565b60008161216c5761216c612051565b506000190190565b60006001600160a01b038087168352808616602084015250836040830152608060608301526121a66080830184611bbe565b9695505050505050565b6000602082840312156121c257600080fd5b8151610e4981611bfd56fea26469706673582212209e53775ae830ea3866752b599dd544102df96b627b2d644e890cdc04562834c364736f6c634300080d0033",
      "opcodes": "PUSH1 0xC0 PUSH1 0x40 MSTORE CALLVALUE DUP1 ISZERO PUSH3 0x11 JUMPI PUSH1 0x0 DUP1 REVERT JUMPDEST POP PUSH1 0x40 MLOAD PUSH3 0x248E CODESIZE SUB DUP1 PUSH3 0x248E DUP4 CODECOPY DUP2 ADD PUSH1 0x40 DUP2 SWAP1 MSTORE PUSH3 0x34 SWAP2 PUSH3 0x1E3 JUMP JUMPDEST PUSH1 0x40 DUP1 MLOAD DUP1 DUP3 ADD DUP3 MSTORE PUSH1 0x9 DUP2 MSTORE PUSH9 0x21B430B930B1BA32B9 PUSH1 0xB9 SHL PUSH1 0x20 DUP1 DUP4 ADD SWAP2 DUP3 MSTORE DUP4 MLOAD DUP1 DUP6 ADD SWAP1 SWAP5 MSTORE PUSH1 0x6 DUP5 MSTORE PUSH6 0x242AA72A22A9 PUSH1 0xD1 SHL SWAP1 DUP5 ADD MSTORE DUP2 MLOAD SWAP2 SWAP3 SWAP2 PUSH3 0x83 SWAP2 PUSH1 0x0 SWAP2 PUSH3 0x124 JUMP JUMPDEST POP DUP1 MLOAD PUSH3 0x99 SWAP1 PUSH1 0x1 SWAP1 PUSH1 0x20 DUP5 ADD SWAP1 PUSH3 0x124 JUMP JUMPDEST POP POP POP PUSH3 0xB6 PUSH3 0xB0 PUSH3 0xCE PUSH1 0x20 SHL PUSH1 0x20 SHR JUMP JUMPDEST PUSH3 0xD2 JUMP JUMPDEST PUSH1 0x1 PUSH1 0x1 PUSH1 0xA0 SHL SUB SWAP2 DUP3 AND PUSH1 0x80 MSTORE AND PUSH1 0xA0 MSTORE PUSH3 0x25E JUMP JUMPDEST CALLER SWAP1 JUMP JUMPDEST PUSH1 0x6 DUP1 SLOAD PUSH1 0x1 PUSH1 0x1 PUSH1 0xA0 SHL SUB DUP4 DUP2 AND PUSH1 0x1 PUSH1 0x1 PUSH1 0xA0 SHL SUB NOT DUP4 AND DUP2 OR SWAP1 SWAP4 SSTORE PUSH1 0x40 MLOAD SWAP2 AND SWAP2 SWAP1 DUP3 SWAP1 PUSH32 0x8BE0079C531659141344CD1FD0A4F28419497F9722A3DAAFE3B4186F6B6457E0 SWAP1 PUSH1 0x0 SWAP1 LOG3 POP POP JUMP JUMPDEST DUP3 DUP1 SLOAD PUSH3 0x132 SWAP1 PUSH3 0x222 JUMP JUMPDEST SWAP1 PUSH1 0x0 MSTORE PUSH1 0x20 PUSH1 0x0 KECCAK256 SWAP1 PUSH1 0x1F ADD PUSH1 0x20 SWAP1 DIV DUP2 ADD SWAP3 DUP3 PUSH3 0x156 JUMPI PUSH1 0x0 DUP6 SSTORE PUSH3 0x1A1 JUMP JUMPDEST DUP3 PUSH1 0x1F LT PUSH3 0x171 JUMPI DUP1 MLOAD PUSH1 0xFF NOT AND DUP4 DUP1 ADD OR DUP6 SSTORE PUSH3 0x1A1 JUMP JUMPDEST DUP3 DUP1 ADD PUSH1 0x1 ADD DUP6 SSTORE DUP3 ISZERO PUSH3 0x1A1 JUMPI SWAP2 DUP3 ADD JUMPDEST DUP3 DUP2 GT ISZERO PUSH3 0x1A1 JUMPI DUP3 MLOAD DUP3 SSTORE SWAP2 PUSH1 0x20 ADD SWAP2 SWAP1 PUSH1 0x1 ADD SWAP1 PUSH3 0x184 JUMP JUMPDEST POP PUSH3 0x1AF SWAP3 SWAP2 POP PUSH3 0x1B3 JUMP JUMPDEST POP SWAP1 JUMP JUMPDEST JUMPDEST DUP1 DUP3 GT ISZERO PUSH3 0x1AF JUMPI PUSH1 0x0 DUP2 SSTORE PUSH1 0x1 ADD PUSH3 0x1B4 JUMP JUMPDEST PUSH1 0x1 PUSH1 0x1 PUSH1 0xA0 SHL SUB DUP2 AND DUP2 EQ PUSH3 0x1E0 JUMPI PUSH1 0x0 DUP1 REVERT JUMPDEST POP JUMP JUMPDEST PUSH1 0x0 DUP1 PUSH1 0x40 DUP4 DUP6 SUB SLT ISZERO PUSH3 0x1F7 JUMPI PUSH1 0x0 DUP1 REVERT JUMPDEST DUP3 MLOAD PUSH3 0x204 DUP2 PUSH3 0x1CA JUMP JUMPDEST PUSH1 0x20 DUP5 ADD MLOAD SWAP1 SWAP3 POP PUSH3 0x217 DUP2 PUSH3 0x1CA JUMP JUMPDEST DUP1 SWAP2 POP POP SWAP3 POP SWAP3 SWAP1 POP JUMP JUMPDEST PUSH1 0x1 DUP2 DUP2 SHR SWAP1 DUP3 AND DUP1 PUSH3 0x237 JUMPI PUSH1 0x7F DUP3 AND SWAP2 POP JUMPDEST PUSH1 0x20 DUP3 LT DUP2 SUB PUSH3 0x258 JUMPI PUSH4 0x4E487B71 PUSH1 0xE0 SHL PUSH1 0x0 MSTORE PUSH1 0x22 PUSH1 0x4 MSTORE PUSH1 0x24 PUSH1 0x0 REVERT JUMPDEST POP SWAP2 SWAP1 POP JUMP JUMPDEST PUSH1 0x80 MLOAD PUSH1 0xA0 MLOAD PUSH2 0x2203 PUSH3 0x28B PUSH1 0x0 CODECOPY PUSH1 0x0 DUP2 DUP2 PUSH2 0x37C ADD MSTORE PUSH2 0x68C ADD MSTORE PUSH1 0x0 PUSH2 0x281 ADD MSTORE PUSH2 0x2203 PUSH1 0x0 RETURN INVALID PUSH1 0x80 PUSH1 0x40 MSTORE CALLVALUE DUP1 ISZERO PUSH2 0x10 JUMPI PUSH1 0x0 DUP1 REVERT JUMPDEST POP PUSH1 0x4 CALLDATASIZE LT PUSH2 0x1C3 JUMPI PUSH1 0x0 CALLDATALOAD PUSH1 0xE0 SHR DUP1 PUSH4 0x70A08231 GT PUSH2 0xF9 JUMPI DUP1 PUSH4 0xADF448D8 GT PUSH2 0x97 JUMPI DUP1 PUSH4 0xC87B56DD GT PUSH2 0x71 JUMPI DUP1 PUSH4 0xC87B56DD EQ PUSH2 0x402 JUMPI DUP1 PUSH4 0xE51C4ECC EQ PUSH2 0x415 JUMPI DUP1 PUSH4 0xE985E9C5 EQ PUSH2 0x428 JUMPI DUP1 PUSH4 0xF2FDE38B EQ PUSH2 0x464 JUMPI PUSH1 0x0 DUP1 REVERT JUMPDEST DUP1 PUSH4 0xADF448D8 EQ PUSH2 0x3B9 JUMPI DUP1 PUSH4 0xB88D4FDE EQ PUSH2 0x3DC JUMPI DUP1 PUSH4 0xC6CC5105 EQ PUSH2 0x3EF JUMPI PUSH1 0x0 DUP1 REVERT JUMPDEST DUP1 PUSH4 0x8DA5CB5B GT PUSH2 0xD3 JUMPI DUP1 PUSH4 0x8DA5CB5B EQ PUSH2 0x366 JUMPI DUP1 PUSH4 0x941DB000 EQ PUSH2 0x377 JUMPI DUP1 PUSH4 0x95D89B41 EQ PUSH2 0x39E JUMPI DUP1 PUSH4 0xA22CB465 EQ PUSH2 0x3A6 JUMPI PUSH1 0x0 DUP1 REVERT JUMPDEST DUP1 PUSH4 0x70A08231 EQ PUSH2 0x338 JUMPI DUP1 PUSH4 0x715018A6 EQ PUSH2 0x34B JUMPI DUP1 PUSH4 0x7AE27560 EQ PUSH2 0x353 JUMPI PUSH1 0x0 DUP1 REVERT JUMPDEST DUP1 PUSH4 0x23B872DD GT PUSH2 0x166 JUMPI DUP1 PUSH4 0x3B092F39 GT PUSH2 0x140 JUMPI DUP1 PUSH4 0x3B092F39 EQ PUSH2 0x2DF JUMPI DUP1 PUSH4 0x42842E0E EQ PUSH2 0x2FF JUMPI DUP1 PUSH4 0x4F068DA7 EQ PUSH2 0x312 JUMPI DUP1 PUSH4 0x6352211E EQ PUSH2 0x325 JUMPI PUSH1 0x0 DUP1 REVERT JUMPDEST DUP1 PUSH4 0x23B872DD EQ PUSH2 0x2A3 JUMPI DUP1 PUSH4 0x34451530 EQ PUSH2 0x2B6 JUMPI DUP1 PUSH4 0x363DD19E EQ PUSH2 0x2D7 JUMPI PUSH1 0x0 DUP1 REVERT JUMPDEST DUP1 PUSH4 0x81812FC GT PUSH2 0x1A2 JUMPI DUP1 PUSH4 0x81812FC EQ PUSH2 0x21C JUMPI DUP1 PUSH4 0x8572119 EQ PUSH2 0x247 JUMPI DUP1 PUSH4 0x95EA7B3 EQ PUSH2 0x267 JUMPI DUP1 PUSH4 0x11DF9995 EQ PUSH2 0x27C JUMPI PUSH1 0x0 DUP1 REVERT JUMPDEST DUP1 PUSH3 0xAD800C EQ PUSH2 0x1C8 JUMPI DUP1 PUSH4 0x1FFC9A7 EQ PUSH2 0x1F1 JUMPI DUP1 PUSH4 0x6FDDE03 EQ PUSH2 0x214 JUMPI JUMPDEST PUSH1 0x0 DUP1 REVERT JUMPDEST PUSH2 0x1DB PUSH2 0x1D6 CALLDATASIZE PUSH1 0x4 PUSH2 0x1B79 JUMP JUMPDEST PUSH2 0x477 JUMP JUMPDEST PUSH1 0x40 MLOAD PUSH2 0x1E8 SWAP2 SWAP1 PUSH2 0x1BEA JUMP JUMPDEST PUSH1 0x40 MLOAD DUP1 SWAP2 SUB SWAP1 RETURN JUMPDEST PUSH2 0x204 PUSH2 0x1FF CALLDATASIZE PUSH1 0x4 PUSH2 0x1C13 JUMP JUMPDEST PUSH2 0x511 JUMP JUMPDEST PUSH1 0x40 MLOAD SWAP1 ISZERO ISZERO DUP2 MSTORE PUSH1 0x20 ADD PUSH2 0x1E8 JUMP JUMPDEST PUSH2 0x1DB PUSH2 0x563 JUMP JUMPDEST PUSH2 0x22F PUSH2 0x22A CALLDATASIZE PUSH1 0x4 PUSH2 0x1B79 JUMP JUMPDEST PUSH2 0x5F5 JUMP JUMPDEST PUSH1 0x40 MLOAD PUSH1 0x1 PUSH1 0x1 PUSH1 0xA0 SHL SUB SWAP1 SWAP2 AND DUP2 MSTORE PUSH1 0x20 ADD PUSH2 0x1E8 JUMP JUMPDEST PUSH2 0x25A PUSH2 0x255 CALLDATASIZE PUSH1 0x4 PUSH2 0x1C4C JUMP JUMPDEST PUSH2 0x61C JUMP JUMPDEST PUSH1 0x40 MLOAD PUSH2 0x1E8 SWAP2 SWAP1 PUSH2 0x1C67 JUMP JUMPDEST PUSH2 0x27A PUSH2 0x275 CALLDATASIZE PUSH1 0x4 PUSH2 0x1CAB JUMP JUMPDEST PUSH2 0x741 JUMP JUMPDEST STOP JUMPDEST PUSH2 0x22F PUSH32 0x0 DUP2 JUMP JUMPDEST PUSH2 0x27A PUSH2 0x2B1 CALLDATASIZE PUSH1 0x4 PUSH2 0x1CD5 JUMP JUMPDEST PUSH2 0x85B JUMP JUMPDEST PUSH2 0x2C9 PUSH2 0x2C4 CALLDATASIZE PUSH1 0x4 PUSH2 0x1D11 JUMP JUMPDEST PUSH2 0x8D3 JUMP JUMPDEST PUSH1 0x40 MLOAD SWAP1 DUP2 MSTORE PUSH1 0x20 ADD PUSH2 0x1E8 JUMP JUMPDEST PUSH2 0x27A PUSH2 0x904 JUMP JUMPDEST PUSH2 0x2C9 PUSH2 0x2ED CALLDATASIZE PUSH1 0x4 PUSH2 0x1C4C JUMP JUMPDEST PUSH1 0x9 PUSH1 0x20 MSTORE PUSH1 0x0 SWAP1 DUP2 MSTORE PUSH1 0x40 SWAP1 KECCAK256 SLOAD DUP2 JUMP JUMPDEST PUSH2 0x27A PUSH2 0x30D CALLDATASIZE PUSH1 0x4 PUSH2 0x1CD5 JUMP JUMPDEST PUSH2 0xA4A JUMP JUMPDEST PUSH2 0x2C9 PUSH2 0x320 CALLDATASIZE PUSH1 0x4 PUSH2 0x1B79 JUMP JUMPDEST PUSH2 0xA65 JUMP JUMPDEST PUSH2 0x22F PUSH2 0x333 CALLDATASIZE PUSH1 0x4 PUSH2 0x1B79 JUMP JUMPDEST PUSH2 0xA9A JUMP JUMPDEST PUSH2 0x2C9 PUSH2 0x346 CALLDATASIZE PUSH1 0x4 PUSH2 0x1C4C JUMP JUMPDEST PUSH2 0xAFF JUMP JUMPDEST PUSH2 0x27A PUSH2 0xB99 JUMP JUMPDEST PUSH2 0x27A PUSH2 0x361 CALLDATASIZE PUSH1 0x4 PUSH2 0x1D11 JUMP JUMPDEST PUSH2 0xBAD JUMP JUMPDEST PUSH1 0x6 SLOAD PUSH1 0x1 PUSH1 0x1 PUSH1 0xA0 SHL SUB AND PUSH2 0x22F JUMP JUMPDEST PUSH2 0x22F PUSH32 0x0 DUP2 JUMP JUMPDEST PUSH2 0x1DB PUSH2 0xCC7 JUMP JUMPDEST PUSH2 0x27A PUSH2 0x3B4 CALLDATASIZE PUSH1 0x4 PUSH2 0x1D33 JUMP JUMPDEST PUSH2 0xCD6 JUMP JUMPDEST PUSH2 0x204 PUSH2 0x3C7 CALLDATASIZE PUSH1 0x4 PUSH2 0x1C4C JUMP JUMPDEST PUSH1 0x8 PUSH1 0x20 MSTORE PUSH1 0x0 SWAP1 DUP2 MSTORE PUSH1 0x40 SWAP1 KECCAK256 SLOAD PUSH1 0xFF AND DUP2 JUMP JUMPDEST PUSH2 0x27A PUSH2 0x3EA CALLDATASIZE PUSH1 0x4 PUSH2 0x1E1C JUMP JUMPDEST PUSH2 0xCE5 JUMP JUMPDEST PUSH2 0x25A PUSH2 0x3FD CALLDATASIZE PUSH1 0x4 PUSH2 0x1C4C JUMP JUMPDEST PUSH2 0xD64 JUMP JUMPDEST PUSH2 0x1DB PUSH2 0x410 CALLDATASIZE PUSH1 0x4 PUSH2 0x1B79 JUMP JUMPDEST PUSH2 0xDDC JUMP JUMPDEST PUSH2 0x27A PUSH2 0x423 CALLDATASIZE PUSH1 0x4 PUSH2 0x1E98 JUMP JUMPDEST PUSH2 0xE50 JUMP JUMPDEST PUSH2 0x204 PUSH2 0x436 CALLDATASIZE PUSH1 0x4 PUSH2 0x1EF3 JUMP JUMPDEST PUSH1 0x1 PUSH1 0x1 PUSH1 0xA0 SHL SUB SWAP2 DUP3 AND PUSH1 0x0 SWAP1 DUP2 MSTORE PUSH1 0x5 PUSH1 0x20 SWAP1 DUP2 MSTORE PUSH1 0x40 DUP1 DUP4 KECCAK256 SWAP4 SWAP1 SWAP5 AND DUP3 MSTORE SWAP2 SWAP1 SWAP2 MSTORE KECCAK256 SLOAD PUSH1 0xFF AND SWAP1 JUMP JUMPDEST PUSH2 0x27A PUSH2 0x472 CALLDATASIZE PUSH1 0x4 PUSH2 0x1C4C JUMP JUMPDEST PUSH2 0xEBF JUMP JUMPDEST PUSH1 0xA PUSH1 0x20 MSTORE PUSH1 0x0 SWAP1 DUP2 MSTORE PUSH1 0x40 SWAP1 KECCAK256 DUP1 SLOAD PUSH2 0x490 SWAP1 PUSH2 0x1F26 JUMP JUMPDEST DUP1 PUSH1 0x1F ADD PUSH1 0x20 DUP1 SWAP2 DIV MUL PUSH1 0x20 ADD PUSH1 0x40 MLOAD SWAP1 DUP2 ADD PUSH1 0x40 MSTORE DUP1 SWAP3 SWAP2 SWAP1 DUP2 DUP2 MSTORE PUSH1 0x20 ADD DUP3 DUP1 SLOAD PUSH2 0x4BC SWAP1 PUSH2 0x1F26 JUMP JUMPDEST DUP1 ISZERO PUSH2 0x509 JUMPI DUP1 PUSH1 0x1F LT PUSH2 0x4DE JUMPI PUSH2 0x100 DUP1 DUP4 SLOAD DIV MUL DUP4 MSTORE SWAP2 PUSH1 0x20 ADD SWAP2 PUSH2 0x509 JUMP JUMPDEST DUP3 ADD SWAP2 SWAP1 PUSH1 0x0 MSTORE PUSH1 0x20 PUSH1 0x0 KECCAK256 SWAP1 JUMPDEST DUP2 SLOAD DUP2 MSTORE SWAP1 PUSH1 0x1 ADD SWAP1 PUSH1 0x20 ADD DUP1 DUP4 GT PUSH2 0x4EC JUMPI DUP3 SWAP1 SUB PUSH1 0x1F AND DUP3 ADD SWAP2 JUMPDEST POP POP POP POP POP DUP2 JUMP JUMPDEST PUSH1 0x0 PUSH1 0x1 PUSH1 0x1 PUSH1 0xE0 SHL SUB NOT DUP3 AND PUSH4 0x80AC58CD PUSH1 0xE0 SHL EQ DUP1 PUSH2 0x542 JUMPI POP PUSH1 0x1 PUSH1 0x1 PUSH1 0xE0 SHL SUB NOT DUP3 AND PUSH4 0x5B5E139F PUSH1 0xE0 SHL EQ JUMPDEST DUP1 PUSH2 0x55D JUMPI POP PUSH4 0x1FFC9A7 PUSH1 0xE0 SHL PUSH1 0x1 PUSH1 0x1 PUSH1 0xE0 SHL SUB NOT DUP4 AND EQ JUMPDEST SWAP3 SWAP2 POP POP JUMP JUMPDEST PUSH1 0x60 PUSH1 0x0 DUP1 SLOAD PUSH2 0x572 SWAP1 PUSH2 0x1F26 JUMP JUMPDEST DUP1 PUSH1 0x1F ADD PUSH1 0x20 DUP1 SWAP2 DIV MUL PUSH1 0x20 ADD PUSH1 0x40 MLOAD SWAP1 DUP2 ADD PUSH1 0x40 MSTORE DUP1 SWAP3 SWAP2 SWAP1 DUP2 DUP2 MSTORE PUSH1 0x20 ADD DUP3 DUP1 SLOAD PUSH2 0x59E SWAP1 PUSH2 0x1F26 JUMP JUMPDEST DUP1 ISZERO PUSH2 0x5EB JUMPI DUP1 PUSH1 0x1F LT PUSH2 0x5C0 JUMPI PUSH2 0x100 DUP1 DUP4 SLOAD DIV MUL DUP4 MSTORE SWAP2 PUSH1 0x20 ADD SWAP2 PUSH2 0x5EB JUMP JUMPDEST DUP3 ADD SWAP2 SWAP1 PUSH1 0x0 MSTORE PUSH1 0x20 PUSH1 0x0 KECCAK256 SWAP1 JUMPDEST DUP2 SLOAD DUP2 MSTORE SWAP1 PUSH1 0x1 ADD SWAP1 PUSH1 0x20 ADD DUP1 DUP4 GT PUSH2 0x5CE JUMPI DUP3 SWAP1 SUB PUSH1 0x1F AND DUP3 ADD SWAP2 JUMPDEST POP POP POP POP POP SWAP1 POP SWAP1 JUMP JUMPDEST PUSH1 0x0 PUSH2 0x600 DUP3 PUSH2 0xF4F JUMP JUMPDEST POP PUSH1 0x0 SWAP1 DUP2 MSTORE PUSH1 0x4 PUSH1 0x20 MSTORE PUSH1 0x40 SWAP1 KECCAK256 SLOAD PUSH1 0x1 PUSH1 0x1 PUSH1 0xA0 SHL SUB AND SWAP1 JUMP JUMPDEST PUSH1 0x1 PUSH1 0x1 PUSH1 0xA0 SHL SUB DUP2 AND PUSH1 0x0 SWAP1 DUP2 MSTORE PUSH1 0x9 PUSH1 0x20 MSTORE PUSH1 0x40 SWAP1 DUP2 SWAP1 KECCAK256 SLOAD DUP2 MLOAD PUSH1 0x3 DUP1 DUP3 MSTORE PUSH1 0x80 DUP3 ADD SWAP1 SWAP4 MSTORE PUSH1 0x60 SWAP3 DUP2 PUSH1 0x20 ADD PUSH1 0x20 DUP3 MUL DUP1 CALLDATASIZE DUP4 CALLDATACOPY ADD SWAP1 POP POP SWAP2 POP PUSH1 0x0 JUMPDEST PUSH1 0x0 DUP3 DUP2 MSTORE PUSH1 0xB PUSH1 0x20 MSTORE PUSH1 0x40 SWAP1 KECCAK256 SLOAD DUP2 LT ISZERO PUSH2 0x73A JUMPI PUSH1 0x40 MLOAD PUSH4 0x335DD05F PUSH1 0xE0 SHL DUP2 MSTORE PUSH1 0x4 DUP2 ADD DUP3 SWAP1 MSTORE PUSH1 0x0 SWAP1 PUSH32 0x0 PUSH1 0x1 PUSH1 0x1 PUSH1 0xA0 SHL SUB AND SWAP1 PUSH4 0x335DD05F SWAP1 PUSH1 0x24 ADD PUSH1 0x0 PUSH1 0x40 MLOAD DUP1 DUP4 SUB DUP2 DUP7 GAS STATICCALL ISZERO DUP1 ISZERO PUSH2 0x6DB JUMPI RETURNDATASIZE PUSH1 0x0 DUP1 RETURNDATACOPY RETURNDATASIZE PUSH1 0x0 REVERT JUMPDEST POP POP POP POP PUSH1 0x40 MLOAD RETURNDATASIZE PUSH1 0x0 DUP3 RETURNDATACOPY PUSH1 0x1F RETURNDATASIZE SWAP1 DUP2 ADD PUSH1 0x1F NOT AND DUP3 ADD PUSH1 0x40 MSTORE PUSH2 0x703 SWAP2 SWAP1 DUP2 ADD SWAP1 PUSH2 0x1F9F JUMP JUMPDEST SWAP5 POP POP POP POP POP DUP1 DUP5 DUP4 DUP2 MLOAD DUP2 LT PUSH2 0x71C JUMPI PUSH2 0x71C PUSH2 0x203B JUMP JUMPDEST PUSH1 0x20 SWAP1 DUP2 MUL SWAP2 SWAP1 SWAP2 ADD ADD MSTORE POP DUP1 PUSH2 0x732 DUP2 PUSH2 0x2067 JUMP JUMPDEST SWAP2 POP POP PUSH2 0x65D JUMP JUMPDEST POP POP SWAP2 SWAP1 POP JUMP JUMPDEST PUSH1 0x0 PUSH2 0x74C DUP3 PUSH2 0xA9A JUMP JUMPDEST SWAP1 POP DUP1 PUSH1 0x1 PUSH1 0x1 PUSH1 0xA0 SHL SUB AND DUP4 PUSH1 0x1 PUSH1 0x1 PUSH1 0xA0 SHL SUB AND SUB PUSH2 0x7BE JUMPI PUSH1 0x40 MLOAD PUSH3 0x461BCD PUSH1 0xE5 SHL DUP2 MSTORE PUSH1 0x20 PUSH1 0x4 DUP3 ADD MSTORE PUSH1 0x21 PUSH1 0x24 DUP3 ADD MSTORE PUSH32 0x4552433732313A20617070726F76616C20746F2063757272656E74206F776E65 PUSH1 0x44 DUP3 ADD MSTORE PUSH1 0x39 PUSH1 0xF9 SHL PUSH1 0x64 DUP3 ADD MSTORE PUSH1 0x84 ADD JUMPDEST PUSH1 0x40 MLOAD DUP1 SWAP2 SUB SWAP1 REVERT JUMPDEST CALLER PUSH1 0x1 PUSH1 0x1 PUSH1 0xA0 SHL SUB DUP3 AND EQ DUP1 PUSH2 0x7DA JUMPI POP PUSH2 0x7DA DUP2 CALLER PUSH2 0x436 JUMP JUMPDEST PUSH2 0x84C JUMPI PUSH1 0x40 MLOAD PUSH3 0x461BCD PUSH1 0xE5 SHL DUP2 MSTORE PUSH1 0x20 PUSH1 0x4 DUP3 ADD MSTORE PUSH1 0x3E PUSH1 0x24 DUP3 ADD MSTORE PUSH32 0x4552433732313A20617070726F76652063616C6C6572206973206E6F7420746F PUSH1 0x44 DUP3 ADD MSTORE PUSH32 0x6B656E206F776E6572206E6F7220617070726F76656420666F7220616C6C0000 PUSH1 0x64 DUP3 ADD MSTORE PUSH1 0x84 ADD PUSH2 0x7B5 JUMP JUMPDEST PUSH2 0x856 DUP4 DUP4 PUSH2 0xFB3 JUMP JUMPDEST POP POP POP JUMP JUMPDEST PUSH2 0x865 CALLER DUP3 PUSH2 0x1021 JUMP JUMPDEST PUSH2 0x8C8 JUMPI PUSH1 0x40 MLOAD PUSH3 0x461BCD PUSH1 0xE5 SHL DUP2 MSTORE PUSH1 0x20 PUSH1 0x4 DUP3 ADD MSTORE PUSH1 0x2E PUSH1 0x24 DUP3 ADD MSTORE PUSH32 0x4552433732313A2063616C6C6572206973206E6F7420746F6B656E206F776E65 PUSH1 0x44 DUP3 ADD MSTORE PUSH14 0x1C881B9BDC88185C1C1C9BDD9959 PUSH1 0x92 SHL PUSH1 0x64 DUP3 ADD MSTORE PUSH1 0x84 ADD PUSH2 0x7B5 JUMP JUMPDEST PUSH2 0x856 DUP4 DUP4 DUP4 PUSH2 0x10A0 JUMP JUMPDEST PUSH1 0xB PUSH1 0x20 MSTORE DUP2 PUSH1 0x0 MSTORE PUSH1 0x40 PUSH1 0x0 KECCAK256 DUP2 DUP2 SLOAD DUP2 LT PUSH2 0x8EF JUMPI PUSH1 0x0 DUP1 REVERT JUMPDEST SWAP1 PUSH1 0x0 MSTORE PUSH1 0x20 PUSH1 0x0 KECCAK256 ADD PUSH1 0x0 SWAP2 POP SWAP2 POP POP SLOAD DUP2 JUMP JUMPDEST CALLER PUSH1 0x0 SWAP1 DUP2 MSTORE PUSH1 0x8 PUSH1 0x20 MSTORE PUSH1 0x40 SWAP1 KECCAK256 SLOAD PUSH1 0xFF AND ISZERO PUSH2 0x964 JUMPI PUSH1 0x40 MLOAD PUSH3 0x461BCD PUSH1 0xE5 SHL DUP2 MSTORE PUSH1 0x20 PUSH1 0x4 DUP3 ADD MSTORE PUSH1 0x10 PUSH1 0x24 DUP3 ADD MSTORE PUSH32 0x416C72656164792073756D6D6F6E656400000000000000000000000000000000 PUSH1 0x44 DUP3 ADD MSTORE PUSH1 0x64 ADD PUSH2 0x7B5 JUMP JUMPDEST PUSH2 0x972 PUSH1 0x7 DUP1 SLOAD PUSH1 0x1 ADD SWAP1 SSTORE JUMP JUMPDEST PUSH1 0x0 PUSH2 0x97D PUSH1 0x7 SLOAD SWAP1 JUMP JUMPDEST SWAP1 POP PUSH2 0x988 CALLER PUSH2 0x125F JUMP JUMPDEST PUSH1 0x0 DUP3 DUP2 MSTORE PUSH1 0xA PUSH1 0x20 SWAP1 DUP2 MSTORE PUSH1 0x40 SWAP1 SWAP2 KECCAK256 DUP3 MLOAD PUSH2 0x9AB SWAP4 SWAP2 SWAP3 SWAP2 SWAP1 SWAP2 ADD SWAP1 PUSH2 0x1AA0 JUMP JUMPDEST POP PUSH1 0x40 DUP1 MLOAD PUSH1 0x60 DUP2 ADD DUP3 MSTORE PUSH1 0x1 DUP2 MSTORE PUSH1 0x0 PUSH1 0x20 DUP1 DUP4 ADD DUP3 SWAP1 MSTORE DUP3 DUP5 ADD DUP3 SWAP1 MSTORE DUP5 DUP3 MSTORE PUSH1 0xB SWAP1 MSTORE SWAP2 SWAP1 SWAP2 KECCAK256 PUSH2 0x9E0 SWAP2 PUSH1 0x3 PUSH2 0x1B24 JUMP JUMPDEST POP CALLER PUSH1 0x0 DUP2 DUP2 MSTORE PUSH1 0x8 PUSH1 0x20 SWAP1 DUP2 MSTORE PUSH1 0x40 DUP1 DUP4 KECCAK256 DUP1 SLOAD PUSH1 0xFF NOT AND PUSH1 0x1 OR SWAP1 SSTORE PUSH1 0x9 SWAP1 SWAP2 MSTORE SWAP1 KECCAK256 DUP3 SWAP1 SSTORE PUSH2 0xA12 SWAP1 DUP3 PUSH2 0x1275 JUMP JUMPDEST PUSH1 0x40 MLOAD DUP2 DUP2 MSTORE CALLER SWAP1 PUSH32 0xBBB46266402C42849573C27ABC27DD180E2B8EC8F33840CA8B0919227659E399 SWAP1 PUSH1 0x20 ADD PUSH1 0x40 MLOAD DUP1 SWAP2 SUB SWAP1 LOG2 POP JUMP JUMPDEST PUSH2 0x856 DUP4 DUP4 DUP4 PUSH1 0x40 MLOAD DUP1 PUSH1 0x20 ADD PUSH1 0x40 MSTORE DUP1 PUSH1 0x0 DUP2 MSTORE POP PUSH2 0xCE5 JUMP JUMPDEST PUSH1 0x0 DUP1 DUP3 GT PUSH2 0xA7E JUMPI POP PUSH8 0xDE0B6B3A7640000 DUP1 PUSH2 0xA94 JUMP JUMPDEST PUSH2 0xA90 DUP3 PUSH8 0xDE0B6B3A7640000 PUSH2 0x2080 JUMP JUMPDEST SWAP1 POP DUP1 JUMPDEST POP SWAP2 SWAP1 POP JUMP JUMPDEST PUSH1 0x0 DUP2 DUP2 MSTORE PUSH1 0x2 PUSH1 0x20 MSTORE PUSH1 0x40 DUP2 KECCAK256 SLOAD PUSH1 0x1 PUSH1 0x1 PUSH1 0xA0 SHL SUB AND DUP1 PUSH2 0x55D JUMPI PUSH1 0x40 MLOAD PUSH3 0x461BCD PUSH1 0xE5 SHL DUP2 MSTORE PUSH1 0x20 PUSH1 0x4 DUP3 ADD MSTORE PUSH1 0x18 PUSH1 0x24 DUP3 ADD MSTORE PUSH32 0x4552433732313A20696E76616C696420746F6B656E2049440000000000000000 PUSH1 0x44 DUP3 ADD MSTORE PUSH1 0x64 ADD PUSH2 0x7B5 JUMP JUMPDEST PUSH1 0x0 PUSH1 0x1 PUSH1 0x1 PUSH1 0xA0 SHL SUB DUP3 AND PUSH2 0xB7D JUMPI PUSH1 0x40 MLOAD PUSH3 0x461BCD PUSH1 0xE5 SHL DUP2 MSTORE PUSH1 0x20 PUSH1 0x4 DUP3 ADD MSTORE PUSH1 0x29 PUSH1 0x24 DUP3 ADD MSTORE PUSH32 0x4552433732313A2061646472657373207A65726F206973206E6F742061207661 PUSH1 0x44 DUP3 ADD MSTORE PUSH32 0x6C6964206F776E65720000000000000000000000000000000000000000000000 PUSH1 0x64 DUP3 ADD MSTORE PUSH1 0x84 ADD PUSH2 0x7B5 JUMP JUMPDEST POP PUSH1 0x1 PUSH1 0x1 PUSH1 0xA0 SHL SUB AND PUSH1 0x0 SWAP1 DUP2 MSTORE PUSH1 0x3 PUSH1 0x20 MSTORE PUSH1 0x40 SWAP1 KECCAK256 SLOAD SWAP1 JUMP JUMPDEST PUSH2 0xBA1 PUSH2 0x128F JUMP JUMPDEST PUSH2 0xBAB PUSH1 0x0 PUSH2 0x12E9 JUMP JUMPDEST JUMP JUMPDEST PUSH2 0xBB5 PUSH2 0x128F JUMP JUMPDEST PUSH1 0x0 DUP3 DUP2 MSTORE PUSH1 0xB PUSH1 0x20 MSTORE PUSH1 0x40 DUP2 KECCAK256 DUP1 SLOAD DUP4 SWAP1 DUP2 LT PUSH2 0xBD5 JUMPI PUSH2 0xBD5 PUSH2 0x203B JUMP JUMPDEST SWAP1 PUSH1 0x0 MSTORE PUSH1 0x20 PUSH1 0x0 KECCAK256 ADD SLOAD SWAP1 POP PUSH1 0x0 PUSH2 0xBED DUP3 PUSH2 0xA65 JUMP JUMPDEST SWAP1 POP PUSH2 0xC0E CALLER PUSH20 0x90B21481A2641EDEE5171033FB5B089C5358B7E0 DUP4 PUSH2 0xA4A JUMP JUMPDEST PUSH2 0xC19 DUP3 PUSH1 0x1 PUSH2 0x209F JUMP JUMPDEST PUSH1 0x0 DUP6 DUP2 MSTORE PUSH1 0xB PUSH1 0x20 MSTORE PUSH1 0x40 SWAP1 KECCAK256 DUP1 SLOAD DUP6 SWAP1 DUP2 LT PUSH2 0xC39 JUMPI PUSH2 0xC39 PUSH2 0x203B JUMP JUMPDEST SWAP1 PUSH1 0x0 MSTORE PUSH1 0x20 PUSH1 0x0 KECCAK256 ADD DUP2 SWAP1 SSTORE POP CALLER PUSH1 0x1 PUSH1 0x1 PUSH1 0xA0 SHL SUB AND PUSH32 0xAA4E97EEB4FD5355C649EE3F0C8A2BB57442A5D8D81B7AF85422D800A4BBE24E PUSH1 0xB PUSH1 0x0 DUP8 DUP2 MSTORE PUSH1 0x20 ADD SWAP1 DUP2 MSTORE PUSH1 0x20 ADD PUSH1 0x0 KECCAK256 DUP6 DUP2 SLOAD DUP2 LT PUSH2 0xC96 JUMPI PUSH2 0xC96 PUSH2 0x203B JUMP JUMPDEST SWAP1 PUSH1 0x0 MSTORE PUSH1 0x20 PUSH1 0x0 KECCAK256 ADD SLOAD DUP7 PUSH1 0x40 MLOAD PUSH2 0xCB9 SWAP3 SWAP2 SWAP1 SWAP2 DUP3 MSTORE PUSH1 0x20 DUP3 ADD MSTORE PUSH1 0x40 ADD SWAP1 JUMP JUMPDEST PUSH1 0x40 MLOAD DUP1 SWAP2 SUB SWAP1 LOG2 POP POP POP POP JUMP JUMPDEST PUSH1 0x60 PUSH1 0x1 DUP1 SLOAD PUSH2 0x572 SWAP1 PUSH2 0x1F26 JUMP JUMPDEST PUSH2 0xCE1 CALLER DUP4 DUP4 PUSH2 0x133B JUMP JUMPDEST POP POP JUMP JUMPDEST PUSH2 0xCEF CALLER DUP4 PUSH2 0x1021 JUMP JUMPDEST PUSH2 0xD52 JUMPI PUSH1 0x40 MLOAD PUSH3 0x461BCD PUSH1 0xE5 SHL DUP2 MSTORE PUSH1 0x20 PUSH1 0x4 DUP3 ADD MSTORE PUSH1 0x2E PUSH1 0x24 DUP3 ADD MSTORE PUSH32 0x4552433732313A2063616C6C6572206973206E6F7420746F6B656E206F776E65 PUSH1 0x44 DUP3 ADD MSTORE PUSH14 0x1C881B9BDC88185C1C1C9BDD9959 PUSH1 0x92 SHL PUSH1 0x64 DUP3 ADD MSTORE PUSH1 0x84 ADD PUSH2 0x7B5 JUMP JUMPDEST PUSH2 0xD5E DUP5 DUP5 DUP5 DUP5 PUSH2 0x1409 JUMP JUMPDEST POP POP POP POP JUMP JUMPDEST PUSH1 0x1 PUSH1 0x1 PUSH1 0xA0 SHL SUB DUP2 AND PUSH1 0x0 SWAP1 DUP2 MSTORE PUSH1 0x9 PUSH1 0x20 SWAP1 DUP2 MSTORE PUSH1 0x40 DUP1 DUP4 KECCAK256 SLOAD DUP1 DUP5 MSTORE PUSH1 0xB DUP4 MSTORE SWAP3 DUP2 SWAP1 KECCAK256 DUP1 SLOAD DUP3 MLOAD DUP2 DUP6 MUL DUP2 ADD DUP6 ADD SWAP1 SWAP4 MSTORE DUP1 DUP4 MSTORE PUSH1 0x60 SWAP5 SWAP4 DUP4 ADD DUP3 DUP3 DUP1 ISZERO PUSH2 0xDCF JUMPI PUSH1 0x20 MUL DUP3 ADD SWAP2 SWAP1 PUSH1 0x0 MSTORE PUSH1 0x20 PUSH1 0x0 KECCAK256 SWAP1 JUMPDEST DUP2 SLOAD DUP2 MSTORE PUSH1 0x20 ADD SWAP1 PUSH1 0x1 ADD SWAP1 DUP1 DUP4 GT PUSH2 0xDBB JUMPI JUMPDEST POP POP POP POP POP SWAP2 POP POP SWAP2 SWAP1 POP JUMP JUMPDEST PUSH1 0x60 PUSH2 0xDE7 DUP3 PUSH2 0xF4F JUMP JUMPDEST PUSH1 0x0 PUSH2 0xDFE PUSH1 0x40 DUP1 MLOAD PUSH1 0x20 DUP2 ADD SWAP1 SWAP2 MSTORE PUSH1 0x0 DUP2 MSTORE SWAP1 JUMP JUMPDEST SWAP1 POP PUSH1 0x0 DUP2 MLOAD GT PUSH2 0xE1E JUMPI PUSH1 0x40 MLOAD DUP1 PUSH1 0x20 ADD PUSH1 0x40 MSTORE DUP1 PUSH1 0x0 DUP2 MSTORE POP PUSH2 0xE49 JUMP JUMPDEST DUP1 PUSH2 0xE28 DUP5 PUSH2 0x1487 JUMP JUMPDEST PUSH1 0x40 MLOAD PUSH1 0x20 ADD PUSH2 0xE39 SWAP3 SWAP2 SWAP1 PUSH2 0x20B7 JUMP JUMPDEST PUSH1 0x40 MLOAD PUSH1 0x20 DUP2 DUP4 SUB SUB DUP2 MSTORE SWAP1 PUSH1 0x40 MSTORE JUMPDEST SWAP4 SWAP3 POP POP POP JUMP JUMPDEST PUSH2 0xE58 PUSH2 0x128F JUMP JUMPDEST PUSH1 0x0 DUP3 DUP2 MSTORE PUSH1 0xA PUSH1 0x20 SWAP1 DUP2 MSTORE PUSH1 0x40 SWAP1 SWAP2 KECCAK256 DUP3 MLOAD PUSH2 0xE77 SWAP3 DUP5 ADD SWAP1 PUSH2 0x1AA0 JUMP JUMPDEST POP CALLER PUSH1 0x1 PUSH1 0x1 PUSH1 0xA0 SHL SUB AND PUSH32 0x68A7F81800258A01D20FC5C11938B8D2251D25FFB372E6C11B1C83FA7D421DB0 DUP3 DUP5 PUSH1 0x40 MLOAD PUSH2 0xEB3 SWAP3 SWAP2 SWAP1 PUSH2 0x20E6 JUMP JUMPDEST PUSH1 0x40 MLOAD DUP1 SWAP2 SUB SWAP1 LOG2 POP POP JUMP JUMPDEST PUSH2 0xEC7 PUSH2 0x128F JUMP JUMPDEST PUSH1 0x1 PUSH1 0x1 PUSH1 0xA0 SHL SUB DUP2 AND PUSH2 0xF43 JUMPI PUSH1 0x40 MLOAD PUSH3 0x461BCD PUSH1 0xE5 SHL DUP2 MSTORE PUSH1 0x20 PUSH1 0x4 DUP3 ADD MSTORE PUSH1 0x26 PUSH1 0x24 DUP3 ADD MSTORE PUSH32 0x4F776E61626C653A206E6577206F776E657220697320746865207A65726F2061 PUSH1 0x44 DUP3 ADD MSTORE PUSH32 0x6464726573730000000000000000000000000000000000000000000000000000 PUSH1 0x64 DUP3 ADD MSTORE PUSH1 0x84 ADD PUSH2 0x7B5 JUMP JUMPDEST PUSH2 0xF4C DUP2 PUSH2 0x12E9 JUMP JUMPDEST POP JUMP JUMPDEST PUSH1 0x0 DUP2 DUP2 MSTORE PUSH1 0x2 PUSH1 0x20 MSTORE PUSH1 0x40 SWAP1 KECCAK256 SLOAD PUSH1 0x1 PUSH1 0x1 PUSH1 0xA0 SHL SUB AND PUSH2 0xF4C JUMPI PUSH1 0x40 MLOAD PUSH3 0x461BCD PUSH1 0xE5 SHL DUP2 MSTORE PUSH1 0x20 PUSH1 0x4 DUP3 ADD MSTORE PUSH1 0x18 PUSH1 0x24 DUP3 ADD MSTORE PUSH32 0x4552433732313A20696E76616C696420746F6B656E2049440000000000000000 PUSH1 0x44 DUP3 ADD MSTORE PUSH1 0x64 ADD PUSH2 0x7B5 JUMP JUMPDEST PUSH1 0x0 DUP2 DUP2 MSTORE PUSH1 0x4 PUSH1 0x20 MSTORE PUSH1 0x40 SWAP1 KECCAK256 DUP1 SLOAD PUSH1 0x1 PUSH1 0x1 PUSH1 0xA0 SHL SUB NOT AND PUSH1 0x1 PUSH1 0x1 PUSH1 0xA0 SHL SUB DUP5 AND SWAP1 DUP2 OR SWAP1 SWAP2 SSTORE DUP2 SWAP1 PUSH2 0xFE8 DUP3 PUSH2 0xA9A JUMP JUMPDEST PUSH1 0x1 PUSH1 0x1 PUSH1 0xA0 SHL SUB AND PUSH32 0x8C5BE1E5EBEC7D5BD14F71427D1E84F3DD0314C0F7B2291E5B200AC8C7C3B925 PUSH1 0x40 MLOAD PUSH1 0x40 MLOAD DUP1 SWAP2 SUB SWAP1 LOG4 POP POP JUMP JUMPDEST PUSH1 0x0 DUP1 PUSH2 0x102D DUP4 PUSH2 0xA9A JUMP JUMPDEST SWAP1 POP DUP1 PUSH1 0x1 PUSH1 0x1 PUSH1 0xA0 SHL SUB AND DUP5 PUSH1 0x1 PUSH1 0x1 PUSH1 0xA0 SHL SUB AND EQ DUP1 PUSH2 0x1074 JUMPI POP PUSH1 0x1 PUSH1 0x1 PUSH1 0xA0 SHL SUB DUP1 DUP3 AND PUSH1 0x0 SWAP1 DUP2 MSTORE PUSH1 0x5 PUSH1 0x20 SWAP1 DUP2 MSTORE PUSH1 0x40 DUP1 DUP4 KECCAK256 SWAP4 DUP9 AND DUP4 MSTORE SWAP3 SWAP1 MSTORE KECCAK256 SLOAD PUSH1 0xFF AND JUMPDEST DUP1 PUSH2 0x1098 JUMPI POP DUP4 PUSH1 0x1 PUSH1 0x1 PUSH1 0xA0 SHL SUB AND PUSH2 0x108D DUP5 PUSH2 0x5F5 JUMP JUMPDEST PUSH1 0x1 PUSH1 0x1 PUSH1 0xA0 SHL SUB AND EQ JUMPDEST SWAP5 SWAP4 POP POP POP POP JUMP JUMPDEST DUP3 PUSH1 0x1 PUSH1 0x1 PUSH1 0xA0 SHL SUB AND PUSH2 0x10B3 DUP3 PUSH2 0xA9A JUMP JUMPDEST PUSH1 0x1 PUSH1 0x1 PUSH1 0xA0 SHL SUB AND EQ PUSH2 0x112F JUMPI PUSH1 0x40 MLOAD PUSH3 0x461BCD PUSH1 0xE5 SHL DUP2 MSTORE PUSH1 0x20 PUSH1 0x4 DUP3 ADD MSTORE PUSH1 0x25 PUSH1 0x24 DUP3 ADD MSTORE PUSH32 0x4552433732313A207472616E736665722066726F6D20696E636F727265637420 PUSH1 0x44 DUP3 ADD MSTORE PUSH32 0x6F776E6572000000000000000000000000000000000000000000000000000000 PUSH1 0x64 DUP3 ADD MSTORE PUSH1 0x84 ADD PUSH2 0x7B5 JUMP JUMPDEST PUSH1 0x1 PUSH1 0x1 PUSH1 0xA0 SHL SUB DUP3 AND PUSH2 0x1191 JUMPI PUSH1 0x40 MLOAD PUSH3 0x461BCD PUSH1 0xE5 SHL DUP2 MSTORE PUSH1 0x20 PUSH1 0x4 DUP3 ADD MSTORE PUSH1 0x24 DUP1 DUP3 ADD MSTORE PUSH32 0x4552433732313A207472616E7366657220746F20746865207A65726F20616464 PUSH1 0x44 DUP3 ADD MSTORE PUSH4 0x72657373 PUSH1 0xE0 SHL PUSH1 0x64 DUP3 ADD MSTORE PUSH1 0x84 ADD PUSH2 0x7B5 JUMP JUMPDEST PUSH2 0x119C DUP4 DUP4 DUP4 PUSH2 0x1588 JUMP JUMPDEST PUSH2 0x11A7 PUSH1 0x0 DUP3 PUSH2 0xFB3 JUMP JUMPDEST PUSH1 0x1 PUSH1 0x1 PUSH1 0xA0 SHL SUB DUP4 AND PUSH1 0x0 SWAP1 DUP2 MSTORE PUSH1 0x3 PUSH1 0x20 MSTORE PUSH1 0x40 DUP2 KECCAK256 DUP1 SLOAD PUSH1 0x1 SWAP3 SWAP1 PUSH2 0x11D0 SWAP1 DUP5 SWAP1 PUSH2 0x2108 JUMP JUMPDEST SWAP1 SWAP2 SSTORE POP POP PUSH1 0x1 PUSH1 0x1 PUSH1 0xA0 SHL SUB DUP3 AND PUSH1 0x0 SWAP1 DUP2 MSTORE PUSH1 0x3 PUSH1 0x20 MSTORE PUSH1 0x40 DUP2 KECCAK256 DUP1 SLOAD PUSH1 0x1 SWAP3 SWAP1 PUSH2 0x11FE SWAP1 DUP5 SWAP1 PUSH2 0x209F JUMP JUMPDEST SWAP1 SWAP2 SSTORE POP POP PUSH1 0x0 DUP2 DUP2 MSTORE PUSH1 0x2 PUSH1 0x20 MSTORE PUSH1 0x40 DUP1 DUP3 KECCAK256 DUP1 SLOAD PUSH1 0x1 PUSH1 0x1 PUSH1 0xA0 SHL SUB NOT AND PUSH1 0x1 PUSH1 0x1 PUSH1 0xA0 SHL SUB DUP7 DUP2 AND SWAP2 DUP3 OR SWAP1 SWAP3 SSTORE SWAP2 MLOAD DUP5 SWAP4 SWAP2 DUP8 AND SWAP2 PUSH32 0xDDF252AD1BE2C89B69C2B068FC378DAA952BA7F163C4A11628F55A4DF523B3EF SWAP2 LOG4 POP POP POP JUMP JUMPDEST PUSH1 0x60 PUSH2 0x55D PUSH1 0x1 PUSH1 0x1 PUSH1 0xA0 SHL SUB DUP4 AND PUSH1 0x14 PUSH2 0x15DF JUMP JUMPDEST PUSH2 0xCE1 DUP3 DUP3 PUSH1 0x40 MLOAD DUP1 PUSH1 0x20 ADD PUSH1 0x40 MSTORE DUP1 PUSH1 0x0 DUP2 MSTORE POP PUSH2 0x1788 JUMP JUMPDEST PUSH1 0x6 SLOAD PUSH1 0x1 PUSH1 0x1 PUSH1 0xA0 SHL SUB AND CALLER EQ PUSH2 0xBAB JUMPI PUSH1 0x40 MLOAD PUSH3 0x461BCD PUSH1 0xE5 SHL DUP2 MSTORE PUSH1 0x20 PUSH1 0x4 DUP3 ADD DUP2 SWAP1 MSTORE PUSH1 0x24 DUP3 ADD MSTORE PUSH32 0x4F776E61626C653A2063616C6C6572206973206E6F7420746865206F776E6572 PUSH1 0x44 DUP3 ADD MSTORE PUSH1 0x64 ADD PUSH2 0x7B5 JUMP JUMPDEST PUSH1 0x6 DUP1 SLOAD PUSH1 0x1 PUSH1 0x1 PUSH1 0xA0 SHL SUB DUP4 DUP2 AND PUSH1 0x1 PUSH1 0x1 PUSH1 0xA0 SHL SUB NOT DUP4 AND DUP2 OR SWAP1 SWAP4 SSTORE PUSH1 0x40 MLOAD SWAP2 AND SWAP2 SWAP1 DUP3 SWAP1 PUSH32 0x8BE0079C531659141344CD1FD0A4F28419497F9722A3DAAFE3B4186F6B6457E0 SWAP1 PUSH1 0x0 SWAP1 LOG3 POP POP JUMP JUMPDEST DUP2 PUSH1 0x1 PUSH1 0x1 PUSH1 0xA0 SHL SUB AND DUP4 PUSH1 0x1 PUSH1 0x1 PUSH1 0xA0 SHL SUB AND SUB PUSH2 0x139C JUMPI PUSH1 0x40 MLOAD PUSH3 0x461BCD PUSH1 0xE5 SHL DUP2 MSTORE PUSH1 0x20 PUSH1 0x4 DUP3 ADD MSTORE PUSH1 0x19 PUSH1 0x24 DUP3 ADD MSTORE PUSH32 0x4552433732313A20617070726F766520746F2063616C6C657200000000000000 PUSH1 0x44 DUP3 ADD MSTORE PUSH1 0x64 ADD PUSH2 0x7B5 JUMP JUMPDEST PUSH1 0x1 PUSH1 0x1 PUSH1 0xA0 SHL SUB DUP4 DUP2 AND PUSH1 0x0 DUP2 DUP2 MSTORE PUSH1 0x5 PUSH1 0x20 SWAP1 DUP2 MSTORE PUSH1 0x40 DUP1 DUP4 KECCAK256 SWAP5 DUP8 AND DUP1 DUP5 MSTORE SWAP5 DUP3 MSTORE SWAP2 DUP3 SWAP1 KECCAK256 DUP1 SLOAD PUSH1 0xFF NOT AND DUP7 ISZERO ISZERO SWAP1 DUP2 OR SWAP1 SWAP2 SSTORE SWAP2 MLOAD SWAP2 DUP3 MSTORE PUSH32 0x17307EAB39AB6107E8899845AD3D59BD9653F200F220920489CA2B5937696C31 SWAP2 ADD PUSH1 0x40 MLOAD DUP1 SWAP2 SUB SWAP1 LOG3 POP POP POP JUMP JUMPDEST PUSH2 0x1414 DUP5 DUP5 DUP5 PUSH2 0x10A0 JUMP JUMPDEST PUSH2 0x1420 DUP5 DUP5 DUP5 DUP5 PUSH2 0x1806 JUMP JUMPDEST PUSH2 0xD5E JUMPI PUSH1 0x40 MLOAD PUSH3 0x461BCD PUSH1 0xE5 SHL DUP2 MSTORE PUSH1 0x20 PUSH1 0x4 DUP3 ADD MSTORE PUSH1 0x32 PUSH1 0x24 DUP3 ADD MSTORE PUSH32 0x4552433732313A207472616E7366657220746F206E6F6E204552433732315265 PUSH1 0x44 DUP3 ADD MSTORE PUSH18 0x31B2B4BB32B91034B6B83632B6B2B73A32B9 PUSH1 0x71 SHL PUSH1 0x64 DUP3 ADD MSTORE PUSH1 0x84 ADD PUSH2 0x7B5 JUMP JUMPDEST PUSH1 0x60 DUP2 PUSH1 0x0 SUB PUSH2 0x14AE JUMPI POP POP PUSH1 0x40 DUP1 MLOAD DUP1 DUP3 ADD SWAP1 SWAP2 MSTORE PUSH1 0x1 DUP2 MSTORE PUSH1 0x3 PUSH1 0xFC SHL PUSH1 0x20 DUP3 ADD MSTORE SWAP1 JUMP JUMPDEST DUP2 PUSH1 0x0 JUMPDEST DUP2 ISZERO PUSH2 0x14D8 JUMPI DUP1 PUSH2 0x14C2 DUP2 PUSH2 0x2067 JUMP JUMPDEST SWAP2 POP PUSH2 0x14D1 SWAP1 POP PUSH1 0xA DUP4 PUSH2 0x2135 JUMP JUMPDEST SWAP2 POP PUSH2 0x14B2 JUMP JUMPDEST PUSH1 0x0 DUP2 PUSH8 0xFFFFFFFFFFFFFFFF DUP2 GT ISZERO PUSH2 0x14F3 JUMPI PUSH2 0x14F3 PUSH2 0x1D6F JUMP JUMPDEST PUSH1 0x40 MLOAD SWAP1 DUP1 DUP3 MSTORE DUP1 PUSH1 0x1F ADD PUSH1 0x1F NOT AND PUSH1 0x20 ADD DUP3 ADD PUSH1 0x40 MSTORE DUP1 ISZERO PUSH2 0x151D JUMPI PUSH1 0x20 DUP3 ADD DUP2 DUP1 CALLDATASIZE DUP4 CALLDATACOPY ADD SWAP1 POP JUMPDEST POP SWAP1 POP JUMPDEST DUP5 ISZERO PUSH2 0x1098 JUMPI PUSH2 0x1532 PUSH1 0x1 DUP4 PUSH2 0x2108 JUMP JUMPDEST SWAP2 POP PUSH2 0x153F PUSH1 0xA DUP7 PUSH2 0x2149 JUMP JUMPDEST PUSH2 0x154A SWAP1 PUSH1 0x30 PUSH2 0x209F JUMP JUMPDEST PUSH1 0xF8 SHL DUP2 DUP4 DUP2 MLOAD DUP2 LT PUSH2 0x155F JUMPI PUSH2 0x155F PUSH2 0x203B JUMP JUMPDEST PUSH1 0x20 ADD ADD SWAP1 PUSH1 0x1 PUSH1 0x1 PUSH1 0xF8 SHL SUB NOT AND SWAP1 DUP2 PUSH1 0x0 BYTE SWAP1 MSTORE8 POP PUSH2 0x1581 PUSH1 0xA DUP7 PUSH2 0x2135 JUMP JUMPDEST SWAP5 POP PUSH2 0x1521 JUMP JUMPDEST PUSH1 0x1 PUSH1 0x1 PUSH1 0xA0 SHL SUB DUP4 AND ISZERO PUSH2 0x856 JUMPI PUSH1 0x40 MLOAD PUSH3 0x461BCD PUSH1 0xE5 SHL DUP2 MSTORE PUSH1 0x20 PUSH1 0x4 DUP3 ADD MSTORE PUSH1 0x14 PUSH1 0x24 DUP3 ADD MSTORE PUSH32 0x546F6B656E2063616E2774207472616E73666572000000000000000000000000 PUSH1 0x44 DUP3 ADD MSTORE PUSH1 0x64 ADD PUSH2 0x7B5 JUMP JUMPDEST PUSH1 0x60 PUSH1 0x0 PUSH2 0x15EE DUP4 PUSH1 0x2 PUSH2 0x2080 JUMP JUMPDEST PUSH2 0x15F9 SWAP1 PUSH1 0x2 PUSH2 0x209F JUMP JUMPDEST PUSH8 0xFFFFFFFFFFFFFFFF DUP2 GT ISZERO PUSH2 0x1611 JUMPI PUSH2 0x1611 PUSH2 0x1D6F JUMP JUMPDEST PUSH1 0x40 MLOAD SWAP1 DUP1 DUP3 MSTORE DUP1 PUSH1 0x1F ADD PUSH1 0x1F NOT AND PUSH1 0x20 ADD DUP3 ADD PUSH1 0x40 MSTORE DUP1 ISZERO PUSH2 0x163B JUMPI PUSH1 0x20 DUP3 ADD DUP2 DUP1 CALLDATASIZE DUP4 CALLDATACOPY ADD SWAP1 POP JUMPDEST POP SWAP1 POP PUSH1 0x3 PUSH1 0xFC SHL DUP2 PUSH1 0x0 DUP2 MLOAD DUP2 LT PUSH2 0x1656 JUMPI PUSH2 0x1656 PUSH2 0x203B JUMP JUMPDEST PUSH1 0x20 ADD ADD SWAP1 PUSH1 0x1 PUSH1 0x1 PUSH1 0xF8 SHL SUB NOT AND SWAP1 DUP2 PUSH1 0x0 BYTE SWAP1 MSTORE8 POP PUSH1 0xF PUSH1 0xFB SHL DUP2 PUSH1 0x1 DUP2 MLOAD DUP2 LT PUSH2 0x1685 JUMPI PUSH2 0x1685 PUSH2 0x203B JUMP JUMPDEST PUSH1 0x20 ADD ADD SWAP1 PUSH1 0x1 PUSH1 0x1 PUSH1 0xF8 SHL SUB NOT AND SWAP1 DUP2 PUSH1 0x0 BYTE SWAP1 MSTORE8 POP PUSH1 0x0 PUSH2 0x16A9 DUP5 PUSH1 0x2 PUSH2 0x2080 JUMP JUMPDEST PUSH2 0x16B4 SWAP1 PUSH1 0x1 PUSH2 0x209F JUMP JUMPDEST SWAP1 POP JUMPDEST PUSH1 0x1 DUP2 GT ISZERO PUSH2 0x1739 JUMPI PUSH32 0x3031323334353637383961626364656600000000000000000000000000000000 DUP6 PUSH1 0xF AND PUSH1 0x10 DUP2 LT PUSH2 0x16F5 JUMPI PUSH2 0x16F5 PUSH2 0x203B JUMP JUMPDEST BYTE PUSH1 0xF8 SHL DUP3 DUP3 DUP2 MLOAD DUP2 LT PUSH2 0x170B JUMPI PUSH2 0x170B PUSH2 0x203B JUMP JUMPDEST PUSH1 0x20 ADD ADD SWAP1 PUSH1 0x1 PUSH1 0x1 PUSH1 0xF8 SHL SUB NOT AND SWAP1 DUP2 PUSH1 0x0 BYTE SWAP1 MSTORE8 POP PUSH1 0x4 SWAP5 SWAP1 SWAP5 SHR SWAP4 PUSH2 0x1732 DUP2 PUSH2 0x215D JUMP JUMPDEST SWAP1 POP PUSH2 0x16B7 JUMP JUMPDEST POP DUP4 ISZERO PUSH2 0xE49 JUMPI PUSH1 0x40 MLOAD PUSH3 0x461BCD PUSH1 0xE5 SHL DUP2 MSTORE PUSH1 0x20 PUSH1 0x4 DUP3 ADD DUP2 SWAP1 MSTORE PUSH1 0x24 DUP3 ADD MSTORE PUSH32 0x537472696E67733A20686578206C656E67746820696E73756666696369656E74 PUSH1 0x44 DUP3 ADD MSTORE PUSH1 0x64 ADD PUSH2 0x7B5 JUMP JUMPDEST PUSH2 0x1792 DUP4 DUP4 PUSH2 0x1952 JUMP JUMPDEST PUSH2 0x179F PUSH1 0x0 DUP5 DUP5 DUP5 PUSH2 0x1806 JUMP JUMPDEST PUSH2 0x856 JUMPI PUSH1 0x40 MLOAD PUSH3 0x461BCD PUSH1 0xE5 SHL DUP2 MSTORE PUSH1 0x20 PUSH1 0x4 DUP3 ADD MSTORE PUSH1 0x32 PUSH1 0x24 DUP3 ADD MSTORE PUSH32 0x4552433732313A207472616E7366657220746F206E6F6E204552433732315265 PUSH1 0x44 DUP3 ADD MSTORE PUSH18 0x31B2B4BB32B91034B6B83632B6B2B73A32B9 PUSH1 0x71 SHL PUSH1 0x64 DUP3 ADD MSTORE PUSH1 0x84 ADD PUSH2 0x7B5 JUMP JUMPDEST PUSH1 0x0 PUSH1 0x1 PUSH1 0x1 PUSH1 0xA0 SHL SUB DUP5 AND EXTCODESIZE ISZERO PUSH2 0x1947 JUMPI PUSH1 0x40 MLOAD PUSH4 0xA85BD01 PUSH1 0xE1 SHL DUP2 MSTORE PUSH1 0x1 PUSH1 0x1 PUSH1 0xA0 SHL SUB DUP6 AND SWAP1 PUSH4 0x150B7A02 SWAP1 PUSH2 0x184A SWAP1 CALLER SWAP1 DUP10 SWAP1 DUP9 SWAP1 DUP9 SWAP1 PUSH1 0x4 ADD PUSH2 0x2174 JUMP JUMPDEST PUSH1 0x20 PUSH1 0x40 MLOAD DUP1 DUP4 SUB DUP2 PUSH1 0x0 DUP8 GAS CALL SWAP3 POP POP POP DUP1 ISZERO PUSH2 0x1885 JUMPI POP PUSH1 0x40 DUP1 MLOAD PUSH1 0x1F RETURNDATASIZE SWAP1 DUP2 ADD PUSH1 0x1F NOT AND DUP3 ADD SWAP1 SWAP3 MSTORE PUSH2 0x1882 SWAP2 DUP2 ADD SWAP1 PUSH2 0x21B0 JUMP JUMPDEST PUSH1 0x1 JUMPDEST PUSH2 0x192D JUMPI RETURNDATASIZE DUP1 DUP1 ISZERO PUSH2 0x18B3 JUMPI PUSH1 0x40 MLOAD SWAP2 POP PUSH1 0x1F NOT PUSH1 0x3F RETURNDATASIZE ADD AND DUP3 ADD PUSH1 0x40 MSTORE RETURNDATASIZE DUP3 MSTORE RETURNDATASIZE PUSH1 0x0 PUSH1 0x20 DUP5 ADD RETURNDATACOPY PUSH2 0x18B8 JUMP JUMPDEST PUSH1 0x60 SWAP2 POP JUMPDEST POP DUP1 MLOAD PUSH1 0x0 SUB PUSH2 0x1925 JUMPI PUSH1 0x40 MLOAD PUSH3 0x461BCD PUSH1 0xE5 SHL DUP2 MSTORE PUSH1 0x20 PUSH1 0x4 DUP3 ADD MSTORE PUSH1 0x32 PUSH1 0x24 DUP3 ADD MSTORE PUSH32 0x4552433732313A207472616E7366657220746F206E6F6E204552433732315265 PUSH1 0x44 DUP3 ADD MSTORE PUSH18 0x31B2B4BB32B91034B6B83632B6B2B73A32B9 PUSH1 0x71 SHL PUSH1 0x64 DUP3 ADD MSTORE PUSH1 0x84 ADD PUSH2 0x7B5 JUMP JUMPDEST DUP1 MLOAD DUP2 PUSH1 0x20 ADD REVERT JUMPDEST PUSH1 0x1 PUSH1 0x1 PUSH1 0xE0 SHL SUB NOT AND PUSH4 0xA85BD01 PUSH1 0xE1 SHL EQ SWAP1 POP PUSH2 0x1098 JUMP JUMPDEST POP PUSH1 0x1 SWAP5 SWAP4 POP POP POP POP JUMP JUMPDEST PUSH1 0x1 PUSH1 0x1 PUSH1 0xA0 SHL SUB DUP3 AND PUSH2 0x19A8 JUMPI PUSH1 0x40 MLOAD PUSH3 0x461BCD PUSH1 0xE5 SHL DUP2 MSTORE PUSH1 0x20 PUSH1 0x4 DUP3 ADD DUP2 SWAP1 MSTORE PUSH1 0x24 DUP3 ADD MSTORE PUSH32 0x4552433732313A206D696E7420746F20746865207A65726F2061646472657373 PUSH1 0x44 DUP3 ADD MSTORE PUSH1 0x64 ADD PUSH2 0x7B5 JUMP JUMPDEST PUSH1 0x0 DUP2 DUP2 MSTORE PUSH1 0x2 PUSH1 0x20 MSTORE PUSH1 0x40 SWAP1 KECCAK256 SLOAD PUSH1 0x1 PUSH1 0x1 PUSH1 0xA0 SHL SUB AND ISZERO PUSH2 0x1A0D JUMPI PUSH1 0x40 MLOAD PUSH3 0x461BCD PUSH1 0xE5 SHL DUP2 MSTORE PUSH1 0x20 PUSH1 0x4 DUP3 ADD MSTORE PUSH1 0x1C PUSH1 0x24 DUP3 ADD MSTORE PUSH32 0x4552433732313A20746F6B656E20616C7265616479206D696E74656400000000 PUSH1 0x44 DUP3 ADD MSTORE PUSH1 0x64 ADD PUSH2 0x7B5 JUMP JUMPDEST PUSH2 0x1A19 PUSH1 0x0 DUP4 DUP4 PUSH2 0x1588 JUMP JUMPDEST PUSH1 0x1 PUSH1 0x1 PUSH1 0xA0 SHL SUB DUP3 AND PUSH1 0x0 SWAP1 DUP2 MSTORE PUSH1 0x3 PUSH1 0x20 MSTORE PUSH1 0x40 DUP2 KECCAK256 DUP1 SLOAD PUSH1 0x1 SWAP3 SWAP1 PUSH2 0x1A42 SWAP1 DUP5 SWAP1 PUSH2 0x209F JUMP JUMPDEST SWAP1 SWAP2 SSTORE POP POP PUSH1 0x0 DUP2 DUP2 MSTORE PUSH1 0x2 PUSH1 0x20 MSTORE PUSH1 0x40 DUP1 DUP3 KECCAK256 DUP1 SLOAD PUSH1 0x1 PUSH1 0x1 PUSH1 0xA0 SHL SUB NOT AND PUSH1 0x1 PUSH1 0x1 PUSH1 0xA0 SHL SUB DUP7 AND SWAP1 DUP2 OR SWAP1 SWAP2 SSTORE SWAP1 MLOAD DUP4 SWAP3 SWAP1 PUSH32 0xDDF252AD1BE2C89B69C2B068FC378DAA952BA7F163C4A11628F55A4DF523B3EF SWAP1 DUP3 SWAP1 LOG4 POP POP JUMP JUMPDEST DUP3 DUP1 SLOAD PUSH2 0x1AAC SWAP1 PUSH2 0x1F26 JUMP JUMPDEST SWAP1 PUSH1 0x0 MSTORE PUSH1 0x20 PUSH1 0x0 KECCAK256 SWAP1 PUSH1 0x1F ADD PUSH1 0x20 SWAP1 DIV DUP2 ADD SWAP3 DUP3 PUSH2 0x1ACE JUMPI PUSH1 0x0 DUP6 SSTORE PUSH2 0x1B14 JUMP JUMPDEST DUP3 PUSH1 0x1F LT PUSH2 0x1AE7 JUMPI DUP1 MLOAD PUSH1 0xFF NOT AND DUP4 DUP1 ADD OR DUP6 SSTORE PUSH2 0x1B14 JUMP JUMPDEST DUP3 DUP1 ADD PUSH1 0x1 ADD DUP6 SSTORE DUP3 ISZERO PUSH2 0x1B14 JUMPI SWAP2 DUP3 ADD JUMPDEST DUP3 DUP2 GT ISZERO PUSH2 0x1B14 JUMPI DUP3 MLOAD DUP3 SSTORE SWAP2 PUSH1 0x20 ADD SWAP2 SWAP1 PUSH1 0x1 ADD SWAP1 PUSH2 0x1AF9 JUMP JUMPDEST POP PUSH2 0x1B20 SWAP3 SWAP2 POP PUSH2 0x1B64 JUMP JUMPDEST POP SWAP1 JUMP JUMPDEST DUP3 DUP1 SLOAD DUP3 DUP3 SSTORE SWAP1 PUSH1 0x0 MSTORE PUSH1 0x20 PUSH1 0x0 KECCAK256 SWAP1 DUP2 ADD SWAP3 DUP3 ISZERO PUSH2 0x1B14 JUMPI SWAP2 PUSH1 0x20 MUL DUP3 ADD JUMPDEST DUP3 DUP2 GT ISZERO PUSH2 0x1B14 JUMPI DUP3 MLOAD DUP3 SWAP1 PUSH1 0xFF AND SWAP1 SSTORE SWAP2 PUSH1 0x20 ADD SWAP2 SWAP1 PUSH1 0x1 ADD SWAP1 PUSH2 0x1B44 JUMP JUMPDEST JUMPDEST DUP1 DUP3 GT ISZERO PUSH2 0x1B20 JUMPI PUSH1 0x0 DUP2 SSTORE PUSH1 0x1 ADD PUSH2 0x1B65 JUMP JUMPDEST PUSH1 0x0 PUSH1 0x20 DUP3 DUP5 SUB SLT ISZERO PUSH2 0x1B8B JUMPI PUSH1 0x0 DUP1 REVERT JUMPDEST POP CALLDATALOAD SWAP2 SWAP1 POP JUMP JUMPDEST PUSH1 0x0 JUMPDEST DUP4 DUP2 LT ISZERO PUSH2 0x1BAD JUMPI DUP2 DUP2 ADD MLOAD DUP4 DUP3 ADD MSTORE PUSH1 0x20 ADD PUSH2 0x1B95 JUMP JUMPDEST DUP4 DUP2 GT ISZERO PUSH2 0xD5E JUMPI POP POP PUSH1 0x0 SWAP2 ADD MSTORE JUMP JUMPDEST PUSH1 0x0 DUP2 MLOAD DUP1 DUP5 MSTORE PUSH2 0x1BD6 DUP2 PUSH1 0x20 DUP7 ADD PUSH1 0x20 DUP7 ADD PUSH2 0x1B92 JUMP JUMPDEST PUSH1 0x1F ADD PUSH1 0x1F NOT AND SWAP3 SWAP1 SWAP3 ADD PUSH1 0x20 ADD SWAP3 SWAP2 POP POP JUMP JUMPDEST PUSH1 0x20 DUP2 MSTORE PUSH1 0x0 PUSH2 0xE49 PUSH1 0x20 DUP4 ADD DUP5 PUSH2 0x1BBE JUMP JUMPDEST PUSH1 0x1 PUSH1 0x1 PUSH1 0xE0 SHL SUB NOT DUP2 AND DUP2 EQ PUSH2 0xF4C JUMPI PUSH1 0x0 DUP1 REVERT JUMPDEST PUSH1 0x0 PUSH1 0x20 DUP3 DUP5 SUB SLT ISZERO PUSH2 0x1C25 JUMPI PUSH1 0x0 DUP1 REVERT JUMPDEST DUP2 CALLDATALOAD PUSH2 0xE49 DUP2 PUSH2 0x1BFD JUMP JUMPDEST DUP1 CALLDATALOAD PUSH1 0x1 PUSH1 0x1 PUSH1 0xA0 SHL SUB DUP2 AND DUP2 EQ PUSH2 0x1C47 JUMPI PUSH1 0x0 DUP1 REVERT JUMPDEST SWAP2 SWAP1 POP JUMP JUMPDEST PUSH1 0x0 PUSH1 0x20 DUP3 DUP5 SUB SLT ISZERO PUSH2 0x1C5E JUMPI PUSH1 0x0 DUP1 REVERT JUMPDEST PUSH2 0xE49 DUP3 PUSH2 0x1C30 JUMP JUMPDEST PUSH1 0x20 DUP1 DUP3 MSTORE DUP3 MLOAD DUP3 DUP3 ADD DUP2 SWAP1 MSTORE PUSH1 0x0 SWAP2 SWAP1 DUP5 DUP3 ADD SWAP1 PUSH1 0x40 DUP6 ADD SWAP1 DUP5 JUMPDEST DUP2 DUP2 LT ISZERO PUSH2 0x1C9F JUMPI DUP4 MLOAD DUP4 MSTORE SWAP3 DUP5 ADD SWAP3 SWAP2 DUP5 ADD SWAP2 PUSH1 0x1 ADD PUSH2 0x1C83 JUMP JUMPDEST POP SWAP1 SWAP7 SWAP6 POP POP POP POP POP POP JUMP JUMPDEST PUSH1 0x0 DUP1 PUSH1 0x40 DUP4 DUP6 SUB SLT ISZERO PUSH2 0x1CBE JUMPI PUSH1 0x0 DUP1 REVERT JUMPDEST PUSH2 0x1CC7 DUP4 PUSH2 0x1C30 JUMP JUMPDEST SWAP5 PUSH1 0x20 SWAP4 SWAP1 SWAP4 ADD CALLDATALOAD SWAP4 POP POP POP JUMP JUMPDEST PUSH1 0x0 DUP1 PUSH1 0x0 PUSH1 0x60 DUP5 DUP7 SUB SLT ISZERO PUSH2 0x1CEA JUMPI PUSH1 0x0 DUP1 REVERT JUMPDEST PUSH2 0x1CF3 DUP5 PUSH2 0x1C30 JUMP JUMPDEST SWAP3 POP PUSH2 0x1D01 PUSH1 0x20 DUP6 ADD PUSH2 0x1C30 JUMP JUMPDEST SWAP2 POP PUSH1 0x40 DUP5 ADD CALLDATALOAD SWAP1 POP SWAP3 POP SWAP3 POP SWAP3 JUMP JUMPDEST PUSH1 0x0 DUP1 PUSH1 0x40 DUP4 DUP6 SUB SLT ISZERO PUSH2 0x1D24 JUMPI PUSH1 0x0 DUP1 REVERT JUMPDEST POP POP DUP1 CALLDATALOAD SWAP3 PUSH1 0x20 SWAP1 SWAP2 ADD CALLDATALOAD SWAP2 POP JUMP JUMPDEST PUSH1 0x0 DUP1 PUSH1 0x40 DUP4 DUP6 SUB SLT ISZERO PUSH2 0x1D46 JUMPI PUSH1 0x0 DUP1 REVERT JUMPDEST PUSH2 0x1D4F DUP4 PUSH2 0x1C30 JUMP JUMPDEST SWAP2 POP PUSH1 0x20 DUP4 ADD CALLDATALOAD DUP1 ISZERO ISZERO DUP2 EQ PUSH2 0x1D64 JUMPI PUSH1 0x0 DUP1 REVERT JUMPDEST DUP1 SWAP2 POP POP SWAP3 POP SWAP3 SWAP1 POP JUMP JUMPDEST PUSH4 0x4E487B71 PUSH1 0xE0 SHL PUSH1 0x0 MSTORE PUSH1 0x41 PUSH1 0x4 MSTORE PUSH1 0x24 PUSH1 0x0 REVERT JUMPDEST PUSH1 0x40 MLOAD PUSH1 0x1F DUP3 ADD PUSH1 0x1F NOT AND DUP2 ADD PUSH8 0xFFFFFFFFFFFFFFFF DUP2 GT DUP3 DUP3 LT OR ISZERO PUSH2 0x1DAE JUMPI PUSH2 0x1DAE PUSH2 0x1D6F JUMP JUMPDEST PUSH1 0x40 MSTORE SWAP2 SWAP1 POP JUMP JUMPDEST PUSH1 0x0 PUSH8 0xFFFFFFFFFFFFFFFF DUP3 GT ISZERO PUSH2 0x1DD0 JUMPI PUSH2 0x1DD0 PUSH2 0x1D6F JUMP JUMPDEST POP PUSH1 0x1F ADD PUSH1 0x1F NOT AND PUSH1 0x20 ADD SWAP1 JUMP JUMPDEST PUSH1 0x0 PUSH2 0x1DF1 PUSH2 0x1DEC DUP5 PUSH2 0x1DB6 JUMP JUMPDEST PUSH2 0x1D85 JUMP JUMPDEST SWAP1 POP DUP3 DUP2 MSTORE DUP4 DUP4 DUP4 ADD GT ISZERO PUSH2 0x1E05 JUMPI PUSH1 0x0 DUP1 REVERT JUMPDEST DUP3 DUP3 PUSH1 0x20 DUP4 ADD CALLDATACOPY PUSH1 0x0 PUSH1 0x20 DUP5 DUP4 ADD ADD MSTORE SWAP4 SWAP3 POP POP POP JUMP JUMPDEST PUSH1 0x0 DUP1 PUSH1 0x0 DUP1 PUSH1 0x80 DUP6 DUP8 SUB SLT ISZERO PUSH2 0x1E32 JUMPI PUSH1 0x0 DUP1 REVERT JUMPDEST PUSH2 0x1E3B DUP6 PUSH2 0x1C30 JUMP JUMPDEST SWAP4 POP PUSH2 0x1E49 PUSH1 0x20 DUP7 ADD PUSH2 0x1C30 JUMP JUMPDEST SWAP3 POP PUSH1 0x40 DUP6 ADD CALLDATALOAD SWAP2 POP PUSH1 0x60 DUP6 ADD CALLDATALOAD PUSH8 0xFFFFFFFFFFFFFFFF DUP2 GT ISZERO PUSH2 0x1E6C JUMPI PUSH1 0x0 DUP1 REVERT JUMPDEST DUP6 ADD PUSH1 0x1F DUP2 ADD DUP8 SGT PUSH2 0x1E7D JUMPI PUSH1 0x0 DUP1 REVERT JUMPDEST PUSH2 0x1E8C DUP8 DUP3 CALLDATALOAD PUSH1 0x20 DUP5 ADD PUSH2 0x1DDE JUMP JUMPDEST SWAP2 POP POP SWAP3 SWAP6 SWAP2 SWAP5 POP SWAP3 POP JUMP JUMPDEST PUSH1 0x0 DUP1 PUSH1 0x40 DUP4 DUP6 SUB SLT ISZERO PUSH2 0x1EAB JUMPI PUSH1 0x0 DUP1 REVERT JUMPDEST DUP3 CALLDATALOAD SWAP2 POP PUSH1 0x20 DUP4 ADD CALLDATALOAD PUSH8 0xFFFFFFFFFFFFFFFF DUP2 GT ISZERO PUSH2 0x1EC9 JUMPI PUSH1 0x0 DUP1 REVERT JUMPDEST DUP4 ADD PUSH1 0x1F DUP2 ADD DUP6 SGT PUSH2 0x1EDA JUMPI PUSH1 0x0 DUP1 REVERT JUMPDEST PUSH2 0x1EE9 DUP6 DUP3 CALLDATALOAD PUSH1 0x20 DUP5 ADD PUSH2 0x1DDE JUMP JUMPDEST SWAP2 POP POP SWAP3 POP SWAP3 SWAP1 POP JUMP JUMPDEST PUSH1 0x0 DUP1 PUSH1 0x40 DUP4 DUP6 SUB SLT ISZERO PUSH2 0x1F06 JUMPI PUSH1 0x0 DUP1 REVERT JUMPDEST PUSH2 0x1F0F DUP4 PUSH2 0x1C30 JUMP JUMPDEST SWAP2 POP PUSH2 0x1F1D PUSH1 0x20 DUP5 ADD PUSH2 0x1C30 JUMP JUMPDEST SWAP1 POP SWAP3 POP SWAP3 SWAP1 POP JUMP JUMPDEST PUSH1 0x1 DUP2 DUP2 SHR SWAP1 DUP3 AND DUP1 PUSH2 0x1F3A JUMPI PUSH1 0x7F DUP3 AND SWAP2 POP JUMPDEST PUSH1 0x20 DUP3 LT DUP2 SUB PUSH2 0xA94 JUMPI PUSH4 0x4E487B71 PUSH1 0xE0 SHL PUSH1 0x0 MSTORE PUSH1 0x22 PUSH1 0x4 MSTORE PUSH1 0x24 PUSH1 0x0 REVERT JUMPDEST PUSH1 0x0 DUP3 PUSH1 0x1F DUP4 ADD SLT PUSH2 0x1F6B JUMPI PUSH1 0x0 DUP1 REVERT JUMPDEST DUP2 MLOAD PUSH2 0x1F79 PUSH2 0x1DEC DUP3 PUSH2 0x1DB6 JUMP JUMPDEST DUP2 DUP2 MSTORE DUP5 PUSH1 0x20 DUP4 DUP7 ADD ADD GT ISZERO PUSH2 0x1F8E JUMPI PUSH1 0x0 DUP1 REVERT JUMPDEST PUSH2 0x1098 DUP3 PUSH1 0x20 DUP4 ADD PUSH1 0x20 DUP8 ADD PUSH2 0x1B92 JUMP JUMPDEST PUSH1 0x0 DUP1 PUSH1 0x0 DUP1 PUSH1 0x0 PUSH1 0xA0 DUP7 DUP9 SUB SLT ISZERO PUSH2 0x1FB7 JUMPI PUSH1 0x0 DUP1 REVERT JUMPDEST DUP6 MLOAD SWAP5 POP PUSH1 0x20 DUP7 ADD MLOAD PUSH8 0xFFFFFFFFFFFFFFFF DUP1 DUP3 GT ISZERO PUSH2 0x1FD6 JUMPI PUSH1 0x0 DUP1 REVERT JUMPDEST PUSH2 0x1FE2 DUP10 DUP4 DUP11 ADD PUSH2 0x1F5A JUMP JUMPDEST SWAP6 POP PUSH1 0x40 DUP9 ADD MLOAD SWAP2 POP DUP1 DUP3 GT ISZERO PUSH2 0x1FF8 JUMPI PUSH1 0x0 DUP1 REVERT JUMPDEST PUSH2 0x2004 DUP10 DUP4 DUP11 ADD PUSH2 0x1F5A JUMP JUMPDEST SWAP5 POP PUSH1 0x60 DUP9 ADD MLOAD SWAP2 POP DUP1 DUP3 GT ISZERO PUSH2 0x201A JUMPI PUSH1 0x0 DUP1 REVERT JUMPDEST POP PUSH2 0x2027 DUP9 DUP3 DUP10 ADD PUSH2 0x1F5A JUMP JUMPDEST SWAP3 POP POP PUSH1 0x80 DUP7 ADD MLOAD SWAP1 POP SWAP3 SWAP6 POP SWAP3 SWAP6 SWAP1 SWAP4 POP JUMP JUMPDEST PUSH4 0x4E487B71 PUSH1 0xE0 SHL PUSH1 0x0 MSTORE PUSH1 0x32 PUSH1 0x4 MSTORE PUSH1 0x24 PUSH1 0x0 REVERT JUMPDEST PUSH4 0x4E487B71 PUSH1 0xE0 SHL PUSH1 0x0 MSTORE PUSH1 0x11 PUSH1 0x4 MSTORE PUSH1 0x24 PUSH1 0x0 REVERT JUMPDEST PUSH1 0x0 PUSH1 0x1 DUP3 ADD PUSH2 0x2079 JUMPI PUSH2 0x2079 PUSH2 0x2051 JUMP JUMPDEST POP PUSH1 0x1 ADD SWAP1 JUMP JUMPDEST PUSH1 0x0 DUP2 PUSH1 0x0 NOT DIV DUP4 GT DUP3 ISZERO ISZERO AND ISZERO PUSH2 0x209A JUMPI PUSH2 0x209A PUSH2 0x2051 JUMP JUMPDEST POP MUL SWAP1 JUMP JUMPDEST PUSH1 0x0 DUP3 NOT DUP3 GT ISZERO PUSH2 0x20B2 JUMPI PUSH2 0x20B2 PUSH2 0x2051 JUMP JUMPDEST POP ADD SWAP1 JUMP JUMPDEST PUSH1 0x0 DUP4 MLOAD PUSH2 0x20C9 DUP2 DUP5 PUSH1 0x20 DUP9 ADD PUSH2 0x1B92 JUMP JUMPDEST DUP4 MLOAD SWAP1 DUP4 ADD SWAP1 PUSH2 0x20DD DUP2 DUP4 PUSH1 0x20 DUP9 ADD PUSH2 0x1B92 JUMP JUMPDEST ADD SWAP5 SWAP4 POP POP POP POP JUMP JUMPDEST PUSH1 0x40 DUP2 MSTORE PUSH1 0x0 PUSH2 0x20F9 PUSH1 0x40 DUP4 ADD DUP6 PUSH2 0x1BBE JUMP JUMPDEST SWAP1 POP DUP3 PUSH1 0x20 DUP4 ADD MSTORE SWAP4 SWAP3 POP POP POP JUMP JUMPDEST PUSH1 0x0 DUP3 DUP3 LT ISZERO PUSH2 0x211A JUMPI PUSH2 0x211A PUSH2 0x2051 JUMP JUMPDEST POP SUB SWAP1 JUMP JUMPDEST PUSH4 0x4E487B71 PUSH1 0xE0 SHL PUSH1 0x0 MSTORE PUSH1 0x12 PUSH1 0x4 MSTORE PUSH1 0x24 PUSH1 0x0 REVERT JUMPDEST PUSH1 0x0 DUP3 PUSH2 0x2144 JUMPI PUSH2 0x2144 PUSH2 0x211F JUMP JUMPDEST POP DIV SWAP1 JUMP JUMPDEST PUSH1 0x0 DUP3 PUSH2 0x2158 JUMPI PUSH2 0x2158 PUSH2 0x211F JUMP JUMPDEST POP MOD SWAP1 JUMP JUMPDEST PUSH1 0x0 DUP2 PUSH2 0x216C JUMPI PUSH2 0x216C PUSH2 0x2051 JUMP JUMPDEST POP PUSH1 0x0 NOT ADD SWAP1 JUMP JUMPDEST PUSH1 0x0 PUSH1 0x1 PUSH1 0x1 PUSH1 0xA0 SHL SUB DUP1 DUP8 AND DUP4 MSTORE DUP1 DUP7 AND PUSH1 0x20 DUP5 ADD MSTORE POP DUP4 PUSH1 0x40 DUP4 ADD MSTORE PUSH1 0x80 PUSH1 0x60 DUP4 ADD MSTORE PUSH2 0x21A6 PUSH1 0x80 DUP4 ADD DUP5 PUSH2 0x1BBE JUMP JUMPDEST SWAP7 SWAP6 POP POP POP POP POP POP JUMP JUMPDEST PUSH1 0x0 PUSH1 0x20 DUP3 DUP5 SUB SLT ISZERO PUSH2 0x21C2 JUMPI PUSH1 0x0 DUP1 REVERT JUMPDEST DUP2 MLOAD PUSH2 0xE49 DUP2 PUSH2 0x1BFD JUMP INVALID LOG2 PUSH5 0x6970667358 0x22 SLT KECCAK256 SWAP15 MSTORE8 PUSH24 0x5AE830EA3866752B599DD544102DF96B627B2D644E890CDC DIV JUMP 0x28 CALLVALUE 0xC3 PUSH5 0x736F6C6343 STOP ADDMOD 0xD STOP CALLER "
    },
    "gasEstimates": {
      "creation": {
        "codeDepositCost": "1741400",
        "executionCost": "infinite",
        "totalCost": "infinite"
      },
      "external": {
        "address_tokenId(address)": "2564",
        "approve(address,uint256)": "infinite",
        "balanceOf(address)": "2635",
        "change_name(uint256,string)": "infinite",
        "coin()": "infinite",
        "coin_required(uint256)": "504",
        "getApproved(uint256)": "4770",
        "hunter_skill(address)": "infinite",
        "hunter_skill_multiple(address)": "infinite",
        "isApprovedForAll(address,address)": "infinite",
        "minted_address(address)": "2576",
        "name()": "infinite",
        "name(uint256)": "infinite",
        "owner()": "2376",
        "ownerOf(uint256)": "2643",
        "renounceOwnership()": "infinite",
        "safeTransferFrom(address,address,uint256)": "infinite",
        "safeTransferFrom(address,address,uint256,bytes)": "infinite",
        "setApprovalForAll(address,bool)": "26794",
        "skill(uint256,uint256)": "4733",
        "skillInfo()": "infinite",
        "skill_up(uint256,uint256)": "infinite",
        "summon()": "infinite",
        "supportsInterface(bytes4)": "590",
        "symbol()": "infinite",
        "tokenURI(uint256)": "infinite",
        "transferFrom(address,address,uint256)": "infinite",
        "transferOwnership(address)": "28446"
      },
      "internal": {
        "_beforeTokenTransfer(address,address,uint256)": "infinite"
      }
    },
    "methodIdentifiers": {
      "address_tokenId(address)": "3b092f39",
      "approve(address,uint256)": "095ea7b3",
      "balanceOf(address)": "70a08231",
      "change_name(uint256,string)": "e51c4ecc",
      "coin()": "11df9995",
      "coin_required(uint256)": "4f068da7",
      "getApproved(uint256)": "081812fc",
      "hunter_skill(address)": "c6cc5105",
      "hunter_skill_multiple(address)": "08572119",
      "isApprovedForAll(address,address)": "e985e9c5",
      "minted_address(address)": "adf448d8",
      "name()": "06fdde03",
      "name(uint256)": "00ad800c",
      "owner()": "8da5cb5b",
      "ownerOf(uint256)": "6352211e",
      "renounceOwnership()": "715018a6",
      "safeTransferFrom(address,address,uint256)": "42842e0e",
      "safeTransferFrom(address,address,uint256,bytes)": "b88d4fde",
      "setApprovalForAll(address,bool)": "a22cb465",
      "skill(uint256,uint256)": "34451530",
      "skillInfo()": "941db000",
      "skill_up(uint256,uint256)": "7ae27560",
      "summon()": "363dd19e",
      "supportsInterface(bytes4)": "01ffc9a7",
      "symbol()": "95d89b41",
      "tokenURI(uint256)": "c87b56dd",
      "transferFrom(address,address,uint256)": "23b872dd",
      "transferOwnership(address)": "f2fde38b"
    }
  },
  "storageLayout": {
    "storage": [
      {
        "astId": 1599,
        "contract": "Character.sol:Character",
        "label": "_name",
        "offset": 0,
        "slot": "0",
        "type": "t_string_storage"
      },
      {
        "astId": 1601,
        "contract": "Character.sol:Character",
        "label": "_symbol",
        "offset": 0,
        "slot": "1",
        "type": "t_string_storage"
      },
      {
        "astId": 1605,
        "contract": "Character.sol:Character",
        "label": "_owners",
        "offset": 0,
        "slot": "2",
        "type": "t_mapping(t_uint256,t_address)"
      },
      {
        "astId": 1609,
        "contract": "Character.sol:Character",
        "label": "_balances",
        "offset": 0,
        "slot": "3",
        "type": "t_mapping(t_address,t_uint256)"
      },
      {
        "astId": 1613,
        "contract": "Character.sol:Character",
        "label": "_tokenApprovals",
        "offset": 0,
        "slot": "4",
        "type": "t_mapping(t_uint256,t_address)"
      },
      {
        "astId": 1619,
        "contract": "Character.sol:Character",
        "label": "_operatorApprovals",
        "offset": 0,
        "slot": "5",
        "type": "t_mapping(t_address,t_mapping(t_address,t_bool))"
      },
      {
        "astId": 1109,
        "contract": "Character.sol:Character",
        "label": "_owner",
        "offset": 0,
        "slot": "6",
        "type": "t_address"
      },
      {
        "astId": 44,
        "contract": "Character.sol:Character",
        "label": "_tokenIdCounter",
        "offset": 0,
        "slot": "7",
        "type": "t_struct(Counter)2446_storage"
      },
      {
        "astId": 48,
        "contract": "Character.sol:Character",
        "label": "minted_address",
        "offset": 0,
        "slot": "8",
        "type": "t_mapping(t_address,t_bool)"
      },
      {
        "astId": 52,
        "contract": "Character.sol:Character",
        "label": "address_tokenId",
        "offset": 0,
        "slot": "9",
        "type": "t_mapping(t_address,t_uint256)"
      },
      {
        "astId": 56,
        "contract": "Character.sol:Character",
        "label": "name",
        "offset": 0,
        "slot": "10",
        "type": "t_mapping(t_uint256,t_string_storage)"
      },
      {
        "astId": 61,
        "contract": "Character.sol:Character",
        "label": "skill",
        "offset": 0,
        "slot": "11",
        "type": "t_mapping(t_uint256,t_array(t_uint256)dyn_storage)"
      }
    ],
    "types": {
      "t_address": {
        "encoding": "inplace",
        "label": "address",
        "numberOfBytes": "20"
      },
      "t_array(t_uint256)dyn_storage": {
        "base": "t_uint256",
        "encoding": "dynamic_array",
        "label": "uint256[]",
        "numberOfBytes": "32"
      },
      "t_bool": {
        "encoding": "inplace",
        "label": "bool",
        "numberOfBytes": "1"
      },
      "t_mapping(t_address,t_bool)": {
        "encoding": "mapping",
        "key": "t_address",
        "label": "mapping(address => bool)",
        "numberOfBytes": "32",
        "value": "t_bool"
      },
      "t_mapping(t_address,t_mapping(t_address,t_bool))": {
        "encoding": "mapping",
        "key": "t_address",
        "label": "mapping(address => mapping(address => bool))",
        "numberOfBytes": "32",
        "value": "t_mapping(t_address,t_bool)"
      },
      "t_mapping(t_address,t_uint256)": {
        "encoding": "mapping",
        "key": "t_address",
        "label": "mapping(address => uint256)",
        "numberOfBytes": "32",
        "value": "t_uint256"
      },
      "t_mapping(t_uint256,t_address)": {
        "encoding": "mapping",
        "key": "t_uint256",
        "label": "mapping(uint256 => address)",
        "numberOfBytes": "32",
        "value": "t_address"
      },
      "t_mapping(t_uint256,t_array(t_uint256)dyn_storage)": {
        "encoding": "mapping",
        "key": "t_uint256",
        "label": "mapping(uint256 => uint256[])",
        "numberOfBytes": "32",
        "value": "t_array(t_uint256)dyn_storage"
      },
      "t_mapping(t_uint256,t_string_storage)": {
        "encoding": "mapping",
        "key": "t_uint256",
        "label": "mapping(uint256 => string)",
        "numberOfBytes": "32",
        "value": "t_string_storage"
      },
      "t_string_storage": {
        "encoding": "bytes",
        "label": "string",
        "numberOfBytes": "32"
      },
      "t_struct(Counter)2446_storage": {
        "encoding": "inplace",
        "label": "struct Counters.Counter",
        "members": [
          {
            "astId": 2445,
            "contract": "Character.sol:Character",
            "label": "_value",
            "offset": 0,
            "slot": "0",
            "type": "t_uint256"
          }
        ],
        "numberOfBytes": "32"
      },
      "t_uint256": {
        "encoding": "inplace",
        "label": "uint256",
        "numberOfBytes": "32"
      }
    }
  },
  "userdoc": {
    "kind": "user",
    "methods": {},
    "version": 1
  }
}